{
	"contracts/escrow.sol": {
		"Escrow": {
			"abi": [
				{
					"inputs": [
						{
							"internalType": "address",
							"name": "_token",
							"type": "address"
						},
						{
							"internalType": "address",
							"name": "_resolver",
							"type": "address"
						}
					],
					"stateMutability": "nonpayable",
					"type": "constructor"
				},
				{
					"inputs": [],
					"name": "AccessControlBadConfirmation",
					"type": "error"
				},
				{
					"inputs": [
						{
							"internalType": "address",
							"name": "account",
							"type": "address"
						},
						{
							"internalType": "bytes32",
							"name": "neededRole",
							"type": "bytes32"
						}
					],
					"name": "AccessControlUnauthorizedAccount",
					"type": "error"
				},
				{
					"inputs": [],
					"name": "InvalidFreelancer",
					"type": "error"
				},
				{
					"inputs": [],
					"name": "InvalidIndex",
					"type": "error"
				},
				{
					"inputs": [],
					"name": "InvalidMileStoneStatus",
					"type": "error"
				},
				{
					"inputs": [],
					"name": "JobNotOpen",
					"type": "error"
				},
				{
					"inputs": [],
					"name": "MileStoneNotDisputed",
					"type": "error"
				},
				{
					"inputs": [],
					"name": "MileStoneNotInReview",
					"type": "error"
				},
				{
					"inputs": [],
					"name": "NoMilestonesProvided",
					"type": "error"
				},
				{
					"inputs": [],
					"name": "NotFreelancer",
					"type": "error"
				},
				{
					"inputs": [],
					"name": "NotParticipant",
					"type": "error"
				},
				{
					"inputs": [
						{
							"internalType": "address",
							"name": "owner",
							"type": "address"
						}
					],
					"name": "OwnableInvalidOwner",
					"type": "error"
				},
				{
					"inputs": [
						{
							"internalType": "address",
							"name": "account",
							"type": "address"
						}
					],
					"name": "OwnableUnauthorizedAccount",
					"type": "error"
				},
				{
					"inputs": [],
					"name": "ZeroAddressError",
					"type": "error"
				},
				{
					"anonymous": false,
					"inputs": [
						{
							"indexed": true,
							"internalType": "address",
							"name": "previousOwner",
							"type": "address"
						},
						{
							"indexed": true,
							"internalType": "address",
							"name": "newOwner",
							"type": "address"
						}
					],
					"name": "OwnershipTransferred",
					"type": "event"
				},
				{
					"anonymous": false,
					"inputs": [
						{
							"indexed": true,
							"internalType": "bytes32",
							"name": "role",
							"type": "bytes32"
						},
						{
							"indexed": true,
							"internalType": "bytes32",
							"name": "previousAdminRole",
							"type": "bytes32"
						},
						{
							"indexed": true,
							"internalType": "bytes32",
							"name": "newAdminRole",
							"type": "bytes32"
						}
					],
					"name": "RoleAdminChanged",
					"type": "event"
				},
				{
					"anonymous": false,
					"inputs": [
						{
							"indexed": true,
							"internalType": "bytes32",
							"name": "role",
							"type": "bytes32"
						},
						{
							"indexed": true,
							"internalType": "address",
							"name": "account",
							"type": "address"
						},
						{
							"indexed": true,
							"internalType": "address",
							"name": "sender",
							"type": "address"
						}
					],
					"name": "RoleGranted",
					"type": "event"
				},
				{
					"anonymous": false,
					"inputs": [
						{
							"indexed": true,
							"internalType": "bytes32",
							"name": "role",
							"type": "bytes32"
						},
						{
							"indexed": true,
							"internalType": "address",
							"name": "account",
							"type": "address"
						},
						{
							"indexed": true,
							"internalType": "address",
							"name": "sender",
							"type": "address"
						}
					],
					"name": "RoleRevoked",
					"type": "event"
				},
				{
					"inputs": [],
					"name": "DEFAULT_ADMIN_ROLE",
					"outputs": [
						{
							"internalType": "bytes32",
							"name": "",
							"type": "bytes32"
						}
					],
					"stateMutability": "view",
					"type": "function"
				},
				{
					"inputs": [
						{
							"internalType": "uint256",
							"name": "id",
							"type": "uint256"
						},
						{
							"internalType": "address",
							"name": "_freelancer",
							"type": "address"
						}
					],
					"name": "acceptJob",
					"outputs": [],
					"stateMutability": "nonpayable",
					"type": "function"
				},
				{
					"inputs": [
						{
							"internalType": "uint256",
							"name": "_jobId",
							"type": "uint256"
						},
						{
							"internalType": "uint256",
							"name": "_milestoneId",
							"type": "uint256"
						}
					],
					"name": "approveMilestone",
					"outputs": [],
					"stateMutability": "nonpayable",
					"type": "function"
				},
				{
					"inputs": [
						{
							"internalType": "address",
							"name": "_freelancer",
							"type": "address"
						},
						{
							"internalType": "uint256[]",
							"name": "_amount",
							"type": "uint256[]"
						}
					],
					"name": "createJob",
					"outputs": [],
					"stateMutability": "nonpayable",
					"type": "function"
				},
				{
					"inputs": [
						{
							"internalType": "uint256",
							"name": "",
							"type": "uint256"
						},
						{
							"internalType": "uint256",
							"name": "",
							"type": "uint256"
						}
					],
					"name": "disputes",
					"outputs": [
						{
							"internalType": "uint256",
							"name": "milestoneId",
							"type": "uint256"
						},
						{
							"internalType": "address",
							"name": "raisedBy",
							"type": "address"
						},
						{
							"internalType": "string",
							"name": "reason",
							"type": "string"
						},
						{
							"internalType": "address",
							"name": "resolver",
							"type": "address"
						},
						{
							"internalType": "bool",
							"name": "resolved",
							"type": "bool"
						},
						{
							"internalType": "string",
							"name": "outcome",
							"type": "string"
						}
					],
					"stateMutability": "view",
					"type": "function"
				},
				{
					"inputs": [
						{
							"internalType": "address",
							"name": "",
							"type": "address"
						},
						{
							"internalType": "uint256",
							"name": "",
							"type": "uint256"
						}
					],
					"name": "freelancerJobs",
					"outputs": [
						{
							"internalType": "uint256",
							"name": "",
							"type": "uint256"
						}
					],
					"stateMutability": "view",
					"type": "function"
				},
				{
					"inputs": [
						{
							"internalType": "bytes32",
							"name": "role",
							"type": "bytes32"
						}
					],
					"name": "getRoleAdmin",
					"outputs": [
						{
							"internalType": "bytes32",
							"name": "",
							"type": "bytes32"
						}
					],
					"stateMutability": "view",
					"type": "function"
				},
				{
					"inputs": [
						{
							"internalType": "uint256",
							"name": "_jobid",
							"type": "uint256"
						}
					],
					"name": "getjob",
					"outputs": [
						{
							"components": [
								{
									"internalType": "uint256",
									"name": "amount",
									"type": "uint256"
								},
								{
									"internalType": "bool",
									"name": "paid",
									"type": "bool"
								},
								{
									"internalType": "enum Escrow.MileStoneStatus",
									"name": "mileStoneStatus",
									"type": "uint8"
								}
							],
							"internalType": "struct Escrow.MileStone[]",
							"name": "",
							"type": "tuple[]"
						}
					],
					"stateMutability": "view",
					"type": "function"
				},
				{
					"inputs": [
						{
							"internalType": "bytes32",
							"name": "role",
							"type": "bytes32"
						},
						{
							"internalType": "address",
							"name": "account",
							"type": "address"
						}
					],
					"name": "grantRole",
					"outputs": [],
					"stateMutability": "nonpayable",
					"type": "function"
				},
				{
					"inputs": [
						{
							"internalType": "bytes32",
							"name": "role",
							"type": "bytes32"
						},
						{
							"internalType": "address",
							"name": "account",
							"type": "address"
						}
					],
					"name": "hasRole",
					"outputs": [
						{
							"internalType": "bool",
							"name": "",
							"type": "bool"
						}
					],
					"stateMutability": "view",
					"type": "function"
				},
				{
					"inputs": [],
					"name": "i_token",
					"outputs": [
						{
							"internalType": "contract IERC20",
							"name": "",
							"type": "address"
						}
					],
					"stateMutability": "view",
					"type": "function"
				},
				{
					"inputs": [],
					"name": "jobId",
					"outputs": [
						{
							"internalType": "uint256",
							"name": "",
							"type": "uint256"
						}
					],
					"stateMutability": "view",
					"type": "function"
				},
				{
					"inputs": [
						{
							"internalType": "uint256",
							"name": "",
							"type": "uint256"
						}
					],
					"name": "jobs",
					"outputs": [
						{
							"internalType": "uint256",
							"name": "id",
							"type": "uint256"
						},
						{
							"internalType": "address",
							"name": "clients",
							"type": "address"
						},
						{
							"internalType": "address",
							"name": "freelancer",
							"type": "address"
						},
						{
							"internalType": "uint256",
							"name": "totalAmount",
							"type": "uint256"
						},
						{
							"internalType": "enum Escrow.Status",
							"name": "status",
							"type": "uint8"
						}
					],
					"stateMutability": "view",
					"type": "function"
				},
				{
					"inputs": [],
					"name": "owner",
					"outputs": [
						{
							"internalType": "address",
							"name": "",
							"type": "address"
						}
					],
					"stateMutability": "view",
					"type": "function"
				},
				{
					"inputs": [
						{
							"internalType": "uint256",
							"name": "_jobId",
							"type": "uint256"
						},
						{
							"internalType": "uint256",
							"name": "_milestoneId",
							"type": "uint256"
						},
						{
							"internalType": "string",
							"name": "_reason",
							"type": "string"
						}
					],
					"name": "raiseDispute",
					"outputs": [],
					"stateMutability": "nonpayable",
					"type": "function"
				},
				{
					"inputs": [],
					"name": "renounceOwnership",
					"outputs": [],
					"stateMutability": "nonpayable",
					"type": "function"
				},
				{
					"inputs": [
						{
							"internalType": "bytes32",
							"name": "role",
							"type": "bytes32"
						},
						{
							"internalType": "address",
							"name": "callerConfirmation",
							"type": "address"
						}
					],
					"name": "renounceRole",
					"outputs": [],
					"stateMutability": "nonpayable",
					"type": "function"
				},
				{
					"inputs": [
						{
							"internalType": "uint256",
							"name": "_jobId",
							"type": "uint256"
						},
						{
							"internalType": "uint256",
							"name": "_milestoneId",
							"type": "uint256"
						},
						{
							"internalType": "bool",
							"name": "approve",
							"type": "bool"
						},
						{
							"internalType": "string",
							"name": "_outcome",
							"type": "string"
						}
					],
					"name": "resolveDispute",
					"outputs": [],
					"stateMutability": "nonpayable",
					"type": "function"
				},
				{
					"inputs": [
						{
							"internalType": "bytes32",
							"name": "role",
							"type": "bytes32"
						},
						{
							"internalType": "address",
							"name": "account",
							"type": "address"
						}
					],
					"name": "revokeRole",
					"outputs": [],
					"stateMutability": "nonpayable",
					"type": "function"
				},
				{
					"inputs": [
						{
							"internalType": "uint256",
							"name": "_jobId",
							"type": "uint256"
						},
						{
							"internalType": "uint256",
							"name": "_milestoneId",
							"type": "uint256"
						},
						{
							"internalType": "address",
							"name": "_freelancer",
							"type": "address"
						}
					],
					"name": "submitMilestone",
					"outputs": [],
					"stateMutability": "nonpayable",
					"type": "function"
				},
				{
					"inputs": [
						{
							"internalType": "bytes4",
							"name": "interfaceId",
							"type": "bytes4"
						}
					],
					"name": "supportsInterface",
					"outputs": [
						{
							"internalType": "bool",
							"name": "",
							"type": "bool"
						}
					],
					"stateMutability": "view",
					"type": "function"
				},
				{
					"inputs": [
						{
							"internalType": "address",
							"name": "newOwner",
							"type": "address"
						}
					],
					"name": "transferOwnership",
					"outputs": [],
					"stateMutability": "nonpayable",
					"type": "function"
				}
			],
			"devdoc": {
				"errors": {
					"AccessControlBadConfirmation()": [
						{
							"details": "The caller of a function is not the expected one. NOTE: Don't confuse with {AccessControlUnauthorizedAccount}."
						}
					],
					"AccessControlUnauthorizedAccount(address,bytes32)": [
						{
							"details": "The `account` is missing a role."
						}
					],
					"OwnableInvalidOwner(address)": [
						{
							"details": "The owner is not a valid owner account. (eg. `address(0)`)"
						}
					],
					"OwnableUnauthorizedAccount(address)": [
						{
							"details": "The caller account is not authorized to perform an operation."
						}
					]
				},
				"events": {
					"RoleAdminChanged(bytes32,bytes32,bytes32)": {
						"details": "Emitted when `newAdminRole` is set as ``role``'s admin role, replacing `previousAdminRole` `DEFAULT_ADMIN_ROLE` is the starting admin for all roles, despite {RoleAdminChanged} not being emitted to signal this."
					},
					"RoleGranted(bytes32,address,address)": {
						"details": "Emitted when `account` is granted `role`. `sender` is the account that originated the contract call. This account bears the admin role (for the granted role). Expected in cases where the role was granted using the internal {AccessControl-_grantRole}."
					},
					"RoleRevoked(bytes32,address,address)": {
						"details": "Emitted when `account` is revoked `role`. `sender` is the account that originated the contract call:   - if using `revokeRole`, it is the admin role bearer   - if using `renounceRole`, it is the role bearer (i.e. `account`)"
					}
				},
				"kind": "dev",
				"methods": {
					"getRoleAdmin(bytes32)": {
						"details": "Returns the admin role that controls `role`. See {grantRole} and {revokeRole}. To change a role's admin, use {_setRoleAdmin}."
					},
					"grantRole(bytes32,address)": {
						"details": "Grants `role` to `account`. If `account` had not been already granted `role`, emits a {RoleGranted} event. Requirements: - the caller must have ``role``'s admin role. May emit a {RoleGranted} event."
					},
					"hasRole(bytes32,address)": {
						"details": "Returns `true` if `account` has been granted `role`."
					},
					"owner()": {
						"details": "Returns the address of the current owner."
					},
					"renounceOwnership()": {
						"details": "Leaves the contract without owner. It will not be possible to call `onlyOwner` functions. Can only be called by the current owner. NOTE: Renouncing ownership will leave the contract without an owner, thereby disabling any functionality that is only available to the owner."
					},
					"renounceRole(bytes32,address)": {
						"details": "Revokes `role` from the calling account. Roles are often managed via {grantRole} and {revokeRole}: this function's purpose is to provide a mechanism for accounts to lose their privileges if they are compromised (such as when a trusted device is misplaced). If the calling account had been revoked `role`, emits a {RoleRevoked} event. Requirements: - the caller must be `callerConfirmation`. May emit a {RoleRevoked} event."
					},
					"revokeRole(bytes32,address)": {
						"details": "Revokes `role` from `account`. If `account` had been granted `role`, emits a {RoleRevoked} event. Requirements: - the caller must have ``role``'s admin role. May emit a {RoleRevoked} event."
					},
					"supportsInterface(bytes4)": {
						"details": "Returns true if this contract implements the interface defined by `interfaceId`. See the corresponding https://eips.ethereum.org/EIPS/eip-165#how-interfaces-are-identified[ERC section] to learn more about how these ids are created. This function call must use less than 30 000 gas."
					},
					"transferOwnership(address)": {
						"details": "Transfers ownership of the contract to a new account (`newOwner`). Can only be called by the current owner."
					}
				},
				"version": 1
			},
			"evm": {
				"assembly": "    /* \"contracts/escrow.sol\":323:6004  contract Escrow is Ownable, AccessControl{... */\n  mstore(0x40, 0xa0)\n    /* \"contracts/escrow.sol\":1331:1536  constructor(address _token, address _resolver) Ownable(tx.origin){... */\n  callvalue\n  dup1\n  iszero\n  tag_1\n  jumpi\n  revert(0x00, 0x00)\ntag_1:\n  pop\n  mload(0x40)\n  sub(codesize, bytecodeSize)\n  dup1\n  bytecodeSize\n  dup4\n  codecopy\n  dup2\n  dup2\n  add\n  0x40\n  mstore\n  dup2\n  add\n  swap1\n  tag_2\n  swap2\n  swap1\n  tag_3\n  jump\t// in\ntag_2:\n    /* \"contracts/escrow.sol\":1386:1395  tx.origin */\n  origin\n    /* \"@openzeppelin/contracts/access/Ownable.sol\":1297:1298  0 */\n  0x00\n    /* \"@openzeppelin/contracts/access/Ownable.sol\":1273:1299  initialOwner == address(0) */\n  0xffffffffffffffffffffffffffffffffffffffff\n  and\n    /* \"@openzeppelin/contracts/access/Ownable.sol\":1273:1285  initialOwner */\n  dup2\n    /* \"@openzeppelin/contracts/access/Ownable.sol\":1273:1299  initialOwner == address(0) */\n  0xffffffffffffffffffffffffffffffffffffffff\n  and\n  sub\n    /* \"@openzeppelin/contracts/access/Ownable.sol\":1269:1364  if (initialOwner == address(0)) {... */\n  tag_7\n  jumpi\n    /* \"@openzeppelin/contracts/access/Ownable.sol\":1350:1351  0 */\n  0x00\n    /* \"@openzeppelin/contracts/access/Ownable.sol\":1322:1353  OwnableInvalidOwner(address(0)) */\n  mload(0x40)\n  0x1e4fbdf700000000000000000000000000000000000000000000000000000000\n  dup2\n  mstore\n  0x04\n  add\n  tag_8\n  swap2\n  swap1\n  tag_9\n  jump\t// in\ntag_8:\n  mload(0x40)\n  dup1\n  swap2\n  sub\n  swap1\n  revert\n    /* \"@openzeppelin/contracts/access/Ownable.sol\":1269:1364  if (initialOwner == address(0)) {... */\ntag_7:\n    /* \"@openzeppelin/contracts/access/Ownable.sol\":1373:1405  _transferOwnership(initialOwner) */\n  tag_10\n    /* \"@openzeppelin/contracts/access/Ownable.sol\":1392:1404  initialOwner */\n  dup2\n    /* \"@openzeppelin/contracts/access/Ownable.sol\":1373:1391  _transferOwnership */\n  shl(0x20, tag_11)\n    /* \"@openzeppelin/contracts/access/Ownable.sol\":1373:1405  _transferOwnership(initialOwner) */\n  0x20\n  shr\n  jump\t// in\ntag_10:\n    /* \"@openzeppelin/contracts/access/Ownable.sol\":1225:1412  constructor(address initialOwner) {... */\n  pop\n    /* \"contracts/escrow.sol\":1424:1430  _token */\n  dup2\n    /* \"contracts/escrow.sol\":1407:1431  i_token = IERC20(_token) */\n  0xffffffffffffffffffffffffffffffffffffffff\n  and\n  0x80\n  dup2\n  0xffffffffffffffffffffffffffffffffffffffff\n  and\n  dup2\n  mstore\n  pop\n  pop\n    /* \"contracts/escrow.sol\":1442:1484  _grantRole(DEFAULT_ADMIN_ROLE, msg.sender) */\n  tag_13\n    /* \"@openzeppelin/contracts/access/AccessControl.sol\":2232:2236  0x00 */\n  0x00\n    /* \"contracts/escrow.sol\":1453:1471  DEFAULT_ADMIN_ROLE */\n  0x00\n  shl\n    /* \"contracts/escrow.sol\":1473:1483  msg.sender */\n  caller\n    /* \"contracts/escrow.sol\":1442:1452  _grantRole */\n  shl(0x20, tag_14)\n    /* \"contracts/escrow.sol\":1442:1484  _grantRole(DEFAULT_ADMIN_ROLE, msg.sender) */\n  0x20\n  shr\n  jump\t// in\ntag_13:\n  pop\n    /* \"contracts/escrow.sol\":1495:1526  _grantRole(RESOLVER, _resolver) */\n  tag_15\n    /* \"contracts/escrow.sol\":477:498  keccak256('RESOLVER') */\n  0x17a55417373800620b4c2ceaa9f76c02df2e2dd329b9cb9a7cf849712c108f6f\n    /* \"contracts/escrow.sol\":1516:1525  _resolver */\n  dup3\n    /* \"contracts/escrow.sol\":1495:1505  _grantRole */\n  shl(0x20, tag_14)\n    /* \"contracts/escrow.sol\":1495:1526  _grantRole(RESOLVER, _resolver) */\n  0x20\n  shr\n  jump\t// in\ntag_15:\n  pop\n    /* \"contracts/escrow.sol\":1331:1536  constructor(address _token, address _resolver) Ownable(tx.origin){... */\n  pop\n  pop\n    /* \"contracts/escrow.sol\":323:6004  contract Escrow is Ownable, AccessControl{... */\n  jump(tag_16)\n    /* \"@openzeppelin/contracts/access/Ownable.sol\":2912:3099  function _transferOwnership(address newOwner) internal virtual {... */\ntag_11:\n    /* \"@openzeppelin/contracts/access/Ownable.sol\":2985:3001  address oldOwner */\n  0x00\n    /* \"@openzeppelin/contracts/access/Ownable.sol\":3004:3010  _owner */\n  0x00\n  0x00\n  swap1\n  sload\n  swap1\n  0x0100\n  exp\n  swap1\n  div\n  0xffffffffffffffffffffffffffffffffffffffff\n  and\n    /* \"@openzeppelin/contracts/access/Ownable.sol\":2985:3010  address oldOwner = _owner */\n  swap1\n  pop\n    /* \"@openzeppelin/contracts/access/Ownable.sol\":3029:3037  newOwner */\n  dup2\n    /* \"@openzeppelin/contracts/access/Ownable.sol\":3020:3026  _owner */\n  0x00\n  0x00\n    /* \"@openzeppelin/contracts/access/Ownable.sol\":3020:3037  _owner = newOwner */\n  0x0100\n  exp\n  dup2\n  sload\n  dup2\n  0xffffffffffffffffffffffffffffffffffffffff\n  mul\n  not\n  and\n  swap1\n  dup4\n  0xffffffffffffffffffffffffffffffffffffffff\n  and\n  mul\n  or\n  swap1\n  sstore\n  pop\n    /* \"@openzeppelin/contracts/access/Ownable.sol\":3083:3091  newOwner */\n  dup2\n    /* \"@openzeppelin/contracts/access/Ownable.sol\":3052:3092  OwnershipTransferred(oldOwner, newOwner) */\n  0xffffffffffffffffffffffffffffffffffffffff\n  and\n    /* \"@openzeppelin/contracts/access/Ownable.sol\":3073:3081  oldOwner */\n  dup2\n    /* \"@openzeppelin/contracts/access/Ownable.sol\":3052:3092  OwnershipTransferred(oldOwner, newOwner) */\n  0xffffffffffffffffffffffffffffffffffffffff\n  and\n  0x8be0079c531659141344cd1fd0a4f28419497f9722a3daafe3b4186f6b6457e0\n  mload(0x40)\n  mload(0x40)\n  dup1\n  swap2\n  sub\n  swap1\n  log3\n    /* \"@openzeppelin/contracts/access/Ownable.sol\":2975:3099  {... */\n  pop\n    /* \"@openzeppelin/contracts/access/Ownable.sol\":2912:3099  function _transferOwnership(address newOwner) internal virtual {... */\n  pop\n  jump\t// out\n    /* \"@openzeppelin/contracts/access/AccessControl.sol\":6145:6461  function _grantRole(bytes32 role, address account) internal virtual returns (bool) {... */\ntag_14:\n    /* \"@openzeppelin/contracts/access/AccessControl.sol\":6222:6226  bool */\n  0x00\n    /* \"@openzeppelin/contracts/access/AccessControl.sol\":6243:6265  hasRole(role, account) */\n  tag_19\n    /* \"@openzeppelin/contracts/access/AccessControl.sol\":6251:6255  role */\n  dup4\n    /* \"@openzeppelin/contracts/access/AccessControl.sol\":6257:6264  account */\n  dup4\n    /* \"@openzeppelin/contracts/access/AccessControl.sol\":6243:6250  hasRole */\n  shl(0x20, tag_20)\n    /* \"@openzeppelin/contracts/access/AccessControl.sol\":6243:6265  hasRole(role, account) */\n  0x20\n  shr\n  jump\t// in\ntag_19:\n    /* \"@openzeppelin/contracts/access/AccessControl.sol\":6238:6455  if (!hasRole(role, account)) {... */\n  tag_21\n  jumpi\n    /* \"@openzeppelin/contracts/access/AccessControl.sol\":6313:6317  true */\n  0x01\n    /* \"@openzeppelin/contracts/access/AccessControl.sol\":6281:6287  _roles */\n  dup1\n    /* \"@openzeppelin/contracts/access/AccessControl.sol\":6281:6293  _roles[role] */\n  0x00\n    /* \"@openzeppelin/contracts/access/AccessControl.sol\":6288:6292  role */\n  dup6\n    /* \"@openzeppelin/contracts/access/AccessControl.sol\":6281:6293  _roles[role] */\n  dup2\n  mstore\n  0x20\n  add\n  swap1\n  dup2\n  mstore\n  0x20\n  add\n  0x00\n  keccak256\n    /* \"@openzeppelin/contracts/access/AccessControl.sol\":6281:6301  _roles[role].hasRole */\n  0x00\n  add\n    /* \"@openzeppelin/contracts/access/AccessControl.sol\":6281:6310  _roles[role].hasRole[account] */\n  0x00\n    /* \"@openzeppelin/contracts/access/AccessControl.sol\":6302:6309  account */\n  dup5\n    /* \"@openzeppelin/contracts/access/AccessControl.sol\":6281:6310  _roles[role].hasRole[account] */\n  0xffffffffffffffffffffffffffffffffffffffff\n  and\n  0xffffffffffffffffffffffffffffffffffffffff\n  and\n  dup2\n  mstore\n  0x20\n  add\n  swap1\n  dup2\n  mstore\n  0x20\n  add\n  0x00\n  keccak256\n  0x00\n    /* \"@openzeppelin/contracts/access/AccessControl.sol\":6281:6317  _roles[role].hasRole[account] = true */\n  0x0100\n  exp\n  dup2\n  sload\n  dup2\n  0xff\n  mul\n  not\n  and\n  swap1\n  dup4\n  iszero\n  iszero\n  mul\n  or\n  swap1\n  sstore\n  pop\n    /* \"@openzeppelin/contracts/access/AccessControl.sol\":6363:6375  _msgSender() */\n  tag_22\n    /* \"@openzeppelin/contracts/access/AccessControl.sol\":6363:6373  _msgSender */\n  shl(0x20, tag_23)\n    /* \"@openzeppelin/contracts/access/AccessControl.sol\":6363:6375  _msgSender() */\n  0x20\n  shr\n  jump\t// in\ntag_22:\n    /* \"@openzeppelin/contracts/access/AccessControl.sol\":6336:6376  RoleGranted(role, account, _msgSender()) */\n  0xffffffffffffffffffffffffffffffffffffffff\n  and\n    /* \"@openzeppelin/contracts/access/AccessControl.sol\":6354:6361  account */\n  dup3\n    /* \"@openzeppelin/contracts/access/AccessControl.sol\":6336:6376  RoleGranted(role, account, _msgSender()) */\n  0xffffffffffffffffffffffffffffffffffffffff\n  and\n    /* \"@openzeppelin/contracts/access/AccessControl.sol\":6348:6352  role */\n  dup5\n    /* \"@openzeppelin/contracts/access/AccessControl.sol\":6336:6376  RoleGranted(role, account, _msgSender()) */\n  0x2f8788117e7eff1d82e926ec794901d17c78024a50270940304540a733656f0d\n  mload(0x40)\n  mload(0x40)\n  dup1\n  swap2\n  sub\n  swap1\n  log4\n    /* \"@openzeppelin/contracts/access/AccessControl.sol\":6397:6401  true */\n  0x01\n    /* \"@openzeppelin/contracts/access/AccessControl.sol\":6390:6401  return true */\n  swap1\n  pop\n  jump(tag_18)\n    /* \"@openzeppelin/contracts/access/AccessControl.sol\":6238:6455  if (!hasRole(role, account)) {... */\ntag_21:\n    /* \"@openzeppelin/contracts/access/AccessControl.sol\":6439:6444  false */\n  0x00\n    /* \"@openzeppelin/contracts/access/AccessControl.sol\":6432:6444  return false */\n  swap1\n  pop\n    /* \"@openzeppelin/contracts/access/AccessControl.sol\":6145:6461  function _grantRole(bytes32 role, address account) internal virtual returns (bool) {... */\ntag_18:\n  swap3\n  swap2\n  pop\n  pop\n  jump\t// out\n    /* \"@openzeppelin/contracts/access/AccessControl.sol\":2820:2956  function hasRole(bytes32 role, address account) public view virtual returns (bool) {... */\ntag_20:\n    /* \"@openzeppelin/contracts/access/AccessControl.sol\":2897:2901  bool */\n  0x00\n    /* \"@openzeppelin/contracts/access/AccessControl.sol\":2920:2926  _roles */\n  0x01\n    /* \"@openzeppelin/contracts/access/AccessControl.sol\":2920:2932  _roles[role] */\n  0x00\n    /* \"@openzeppelin/contracts/access/AccessControl.sol\":2927:2931  role */\n  dup5\n    /* \"@openzeppelin/contracts/access/AccessControl.sol\":2920:2932  _roles[role] */\n  dup2\n  mstore\n  0x20\n  add\n  swap1\n  dup2\n  mstore\n  0x20\n  add\n  0x00\n  keccak256\n    /* \"@openzeppelin/contracts/access/AccessControl.sol\":2920:2940  _roles[role].hasRole */\n  0x00\n  add\n    /* \"@openzeppelin/contracts/access/AccessControl.sol\":2920:2949  _roles[role].hasRole[account] */\n  0x00\n    /* \"@openzeppelin/contracts/access/AccessControl.sol\":2941:2948  account */\n  dup4\n    /* \"@openzeppelin/contracts/access/AccessControl.sol\":2920:2949  _roles[role].hasRole[account] */\n  0xffffffffffffffffffffffffffffffffffffffff\n  and\n  0xffffffffffffffffffffffffffffffffffffffff\n  and\n  dup2\n  mstore\n  0x20\n  add\n  swap1\n  dup2\n  mstore\n  0x20\n  add\n  0x00\n  keccak256\n  0x00\n  swap1\n  sload\n  swap1\n  0x0100\n  exp\n  swap1\n  div\n  0xff\n  and\n    /* \"@openzeppelin/contracts/access/AccessControl.sol\":2913:2949  return _roles[role].hasRole[account] */\n  swap1\n  pop\n    /* \"@openzeppelin/contracts/access/AccessControl.sol\":2820:2956  function hasRole(bytes32 role, address account) public view virtual returns (bool) {... */\n  swap3\n  swap2\n  pop\n  pop\n  jump\t// out\n    /* \"@openzeppelin/contracts/utils/Context.sol\":656:752  function _msgSender() internal view virtual returns (address) {... */\ntag_23:\n    /* \"@openzeppelin/contracts/utils/Context.sol\":709:716  address */\n  0x00\n    /* \"@openzeppelin/contracts/utils/Context.sol\":735:745  msg.sender */\n  caller\n    /* \"@openzeppelin/contracts/utils/Context.sol\":728:745  return msg.sender */\n  swap1\n  pop\n    /* \"@openzeppelin/contracts/utils/Context.sol\":656:752  function _msgSender() internal view virtual returns (address) {... */\n  swap1\n  jump\t// out\n    /* \"#utility.yul\":88:205   */\ntag_28:\n    /* \"#utility.yul\":197:198   */\n  0x00\n    /* \"#utility.yul\":194:195   */\n  0x00\n    /* \"#utility.yul\":187:199   */\n  revert\n    /* \"#utility.yul\":334:460   */\ntag_30:\n    /* \"#utility.yul\":371:378   */\n  0x00\n    /* \"#utility.yul\":411:453   */\n  0xffffffffffffffffffffffffffffffffffffffff\n    /* \"#utility.yul\":404:409   */\n  dup3\n    /* \"#utility.yul\":400:454   */\n  and\n    /* \"#utility.yul\":389:454   */\n  swap1\n  pop\n    /* \"#utility.yul\":334:460   */\n  swap2\n  swap1\n  pop\n  jump\t// out\n    /* \"#utility.yul\":466:562   */\ntag_31:\n    /* \"#utility.yul\":503:510   */\n  0x00\n    /* \"#utility.yul\":532:556   */\n  tag_41\n    /* \"#utility.yul\":550:555   */\n  dup3\n    /* \"#utility.yul\":532:556   */\n  tag_30\n  jump\t// in\ntag_41:\n    /* \"#utility.yul\":521:556   */\n  swap1\n  pop\n    /* \"#utility.yul\":466:562   */\n  swap2\n  swap1\n  pop\n  jump\t// out\n    /* \"#utility.yul\":568:690   */\ntag_32:\n    /* \"#utility.yul\":641:665   */\n  tag_43\n    /* \"#utility.yul\":659:664   */\n  dup2\n    /* \"#utility.yul\":641:665   */\n  tag_31\n  jump\t// in\ntag_43:\n    /* \"#utility.yul\":634:639   */\n  dup2\n    /* \"#utility.yul\":631:666   */\n  eq\n    /* \"#utility.yul\":621:684   */\n  tag_44\n  jumpi\n    /* \"#utility.yul\":680:681   */\n  0x00\n    /* \"#utility.yul\":677:678   */\n  0x00\n    /* \"#utility.yul\":670:682   */\n  revert\n    /* \"#utility.yul\":621:684   */\ntag_44:\n    /* \"#utility.yul\":568:690   */\n  pop\n  jump\t// out\n    /* \"#utility.yul\":696:839   */\ntag_33:\n    /* \"#utility.yul\":753:758   */\n  0x00\n    /* \"#utility.yul\":784:790   */\n  dup2\n    /* \"#utility.yul\":778:791   */\n  mload\n    /* \"#utility.yul\":769:791   */\n  swap1\n  pop\n    /* \"#utility.yul\":800:833   */\n  tag_46\n    /* \"#utility.yul\":827:832   */\n  dup2\n    /* \"#utility.yul\":800:833   */\n  tag_32\n  jump\t// in\ntag_46:\n    /* \"#utility.yul\":696:839   */\n  swap3\n  swap2\n  pop\n  pop\n  jump\t// out\n    /* \"#utility.yul\":845:1352   */\ntag_3:\n    /* \"#utility.yul\":924:930   */\n  0x00\n    /* \"#utility.yul\":932:938   */\n  0x00\n    /* \"#utility.yul\":981:983   */\n  0x40\n    /* \"#utility.yul\":969:978   */\n  dup4\n    /* \"#utility.yul\":960:967   */\n  dup6\n    /* \"#utility.yul\":956:979   */\n  sub\n    /* \"#utility.yul\":952:984   */\n  slt\n    /* \"#utility.yul\":949:1068   */\n  iszero\n  tag_48\n  jumpi\n    /* \"#utility.yul\":987:1066   */\n  tag_49\n  tag_28\n  jump\t// in\ntag_49:\n    /* \"#utility.yul\":949:1068   */\ntag_48:\n    /* \"#utility.yul\":1107:1108   */\n  0x00\n    /* \"#utility.yul\":1132:1196   */\n  tag_50\n    /* \"#utility.yul\":1188:1195   */\n  dup6\n    /* \"#utility.yul\":1179:1185   */\n  dup3\n    /* \"#utility.yul\":1168:1177   */\n  dup7\n    /* \"#utility.yul\":1164:1186   */\n  add\n    /* \"#utility.yul\":1132:1196   */\n  tag_33\n  jump\t// in\ntag_50:\n    /* \"#utility.yul\":1122:1196   */\n  swap3\n  pop\n    /* \"#utility.yul\":1078:1206   */\n  pop\n    /* \"#utility.yul\":1245:1247   */\n  0x20\n    /* \"#utility.yul\":1271:1335   */\n  tag_51\n    /* \"#utility.yul\":1327:1334   */\n  dup6\n    /* \"#utility.yul\":1318:1324   */\n  dup3\n    /* \"#utility.yul\":1307:1316   */\n  dup7\n    /* \"#utility.yul\":1303:1325   */\n  add\n    /* \"#utility.yul\":1271:1335   */\n  tag_33\n  jump\t// in\ntag_51:\n    /* \"#utility.yul\":1261:1335   */\n  swap2\n  pop\n    /* \"#utility.yul\":1216:1345   */\n  pop\n    /* \"#utility.yul\":845:1352   */\n  swap3\n  pop\n  swap3\n  swap1\n  pop\n  jump\t// out\n    /* \"#utility.yul\":1358:1476   */\ntag_34:\n    /* \"#utility.yul\":1445:1469   */\n  tag_53\n    /* \"#utility.yul\":1463:1468   */\n  dup2\n    /* \"#utility.yul\":1445:1469   */\n  tag_31\n  jump\t// in\ntag_53:\n    /* \"#utility.yul\":1440:1443   */\n  dup3\n    /* \"#utility.yul\":1433:1470   */\n  mstore\n    /* \"#utility.yul\":1358:1476   */\n  pop\n  pop\n  jump\t// out\n    /* \"#utility.yul\":1482:1704   */\ntag_9:\n    /* \"#utility.yul\":1575:1579   */\n  0x00\n    /* \"#utility.yul\":1613:1615   */\n  0x20\n    /* \"#utility.yul\":1602:1611   */\n  dup3\n    /* \"#utility.yul\":1598:1616   */\n  add\n    /* \"#utility.yul\":1590:1616   */\n  swap1\n  pop\n    /* \"#utility.yul\":1626:1697   */\n  tag_55\n    /* \"#utility.yul\":1694:1695   */\n  0x00\n    /* \"#utility.yul\":1683:1692   */\n  dup4\n    /* \"#utility.yul\":1679:1696   */\n  add\n    /* \"#utility.yul\":1670:1676   */\n  dup5\n    /* \"#utility.yul\":1626:1697   */\n  tag_34\n  jump\t// in\ntag_55:\n    /* \"#utility.yul\":1482:1704   */\n  swap3\n  swap2\n  pop\n  pop\n  jump\t// out\n    /* \"contracts/escrow.sol\":323:6004  contract Escrow is Ownable, AccessControl{... */\ntag_16:\n  mload(0x80)\n  codecopy(0x00, dataOffset(sub_0), dataSize(sub_0))\n  0x00\n  assignImmutable(\"0x759fc1d144333ef3ef5172c8b6bde869faf7a3759a0cfce056d23f6fbfb24c51\")\n  return(0x00, dataSize(sub_0))\nstop\n\nsub_0: assembly {\n        /* \"contracts/escrow.sol\":323:6004  contract Escrow is Ownable, AccessControl{... */\n      mstore(0x40, 0x80)\n      callvalue\n      dup1\n      iszero\n      tag_1\n      jumpi\n      revert(0x00, 0x00)\n    tag_1:\n      pop\n      jumpi(tag_2, lt(calldatasize, 0x04))\n      shr(0xe0, calldataload(0x00))\n      dup1\n      0x870d364d\n      gt\n      tag_25\n      jumpi\n      dup1\n      0xb728775b\n      gt\n      tag_26\n      jumpi\n      dup1\n      0xb728775b\n      eq\n      tag_19\n      jumpi\n      dup1\n      0xc290dd71\n      eq\n      tag_20\n      jumpi\n      dup1\n      0xc2939d97\n      eq\n      tag_21\n      jumpi\n      dup1\n      0xd547741f\n      eq\n      tag_22\n      jumpi\n      dup1\n      0xd7d86727\n      eq\n      tag_23\n      jumpi\n      dup1\n      0xf2fde38b\n      eq\n      tag_24\n      jumpi\n      jump(tag_2)\n    tag_26:\n      dup1\n      0x870d364d\n      eq\n      tag_14\n      jumpi\n      dup1\n      0x8da5cb5b\n      eq\n      tag_15\n      jumpi\n      dup1\n      0x91d14854\n      eq\n      tag_16\n      jumpi\n      dup1\n      0x9608b232\n      eq\n      tag_17\n      jumpi\n      dup1\n      0xa217fddf\n      eq\n      tag_18\n      jumpi\n      jump(tag_2)\n    tag_25:\n      dup1\n      0x25e43652\n      gt\n      tag_27\n      jumpi\n      dup1\n      0x25e43652\n      eq\n      tag_8\n      jumpi\n      dup1\n      0x2f2ff15d\n      eq\n      tag_9\n      jumpi\n      dup1\n      0x36568abe\n      eq\n      tag_10\n      jumpi\n      dup1\n      0x442f5c88\n      eq\n      tag_11\n      jumpi\n      dup1\n      0x65c498ab\n      eq\n      tag_12\n      jumpi\n      dup1\n      0x715018a6\n      eq\n      tag_13\n      jumpi\n      jump(tag_2)\n    tag_27:\n      dup1\n      0x01ffc9a7\n      eq\n      tag_3\n      jumpi\n      dup1\n      0x180aedf3\n      eq\n      tag_4\n      jumpi\n      dup1\n      0x1a424050\n      eq\n      tag_5\n      jumpi\n      dup1\n      0x20913da5\n      eq\n      tag_6\n      jumpi\n      dup1\n      0x248a9ca3\n      eq\n      tag_7\n      jumpi\n    tag_2:\n      revert(0x00, 0x00)\n        /* \"@openzeppelin/contracts/access/AccessControl.sol\":2531:2733  function supportsInterface(bytes4 interfaceId) public view virtual override returns (bool) {... */\n    tag_3:\n      tag_28\n      0x04\n      dup1\n      calldatasize\n      sub\n      dup2\n      add\n      swap1\n      tag_29\n      swap2\n      swap1\n      tag_30\n      jump\t// in\n    tag_29:\n      tag_31\n      jump\t// in\n    tag_28:\n      mload(0x40)\n      tag_32\n      swap2\n      swap1\n      tag_33\n      jump\t// in\n    tag_32:\n      mload(0x40)\n      dup1\n      swap2\n      sub\n      swap1\n      return\n        /* \"contracts/escrow.sol\":1150:1186  mapping (uint256 => Job) public jobs */\n    tag_4:\n      tag_34\n      0x04\n      dup1\n      calldatasize\n      sub\n      dup2\n      add\n      swap1\n      tag_35\n      swap2\n      swap1\n      tag_36\n      jump\t// in\n    tag_35:\n      tag_37\n      jump\t// in\n    tag_34:\n      mload(0x40)\n      tag_38\n      swap6\n      swap5\n      swap4\n      swap3\n      swap2\n      swap1\n      tag_39\n      jump\t// in\n    tag_38:\n      mload(0x40)\n      dup1\n      swap2\n      sub\n      swap1\n      return\n        /* \"contracts/escrow.sol\":1811:2898  function createJob(address _freelancer, uint256[] memory _amount) external onlyOwner {... */\n    tag_5:\n      tag_40\n      0x04\n      dup1\n      calldatasize\n      sub\n      dup2\n      add\n      swap1\n      tag_41\n      swap2\n      swap1\n      tag_42\n      jump\t// in\n    tag_41:\n      tag_43\n      jump\t// in\n    tag_40:\n      stop\n        /* \"contracts/escrow.sol\":3890:4395  function approveMilestone(uint256 _jobId,uint256 _milestoneId) external onlyOwner{... */\n    tag_6:\n      tag_44\n      0x04\n      dup1\n      calldatasize\n      sub\n      dup2\n      add\n      swap1\n      tag_45\n      swap2\n      swap1\n      tag_46\n      jump\t// in\n    tag_45:\n      tag_47\n      jump\t// in\n    tag_44:\n      stop\n        /* \"@openzeppelin/contracts/access/AccessControl.sol\":3776:3896  function getRoleAdmin(bytes32 role) public view virtual returns (bytes32) {... */\n    tag_7:\n      tag_48\n      0x04\n      dup1\n      calldatasize\n      sub\n      dup2\n      add\n      swap1\n      tag_49\n      swap2\n      swap1\n      tag_50\n      jump\t// in\n    tag_49:\n      tag_51\n      jump\t// in\n    tag_48:\n      mload(0x40)\n      tag_52\n      swap2\n      swap1\n      tag_53\n      jump\t// in\n    tag_52:\n      mload(0x40)\n      dup1\n      swap2\n      sub\n      swap1\n      return\n        /* \"contracts/escrow.sol\":1256:1321  mapping(uint256 => mapping (uint256 => Disputes)) public disputes */\n    tag_8:\n      tag_54\n      0x04\n      dup1\n      calldatasize\n      sub\n      dup2\n      add\n      swap1\n      tag_55\n      swap2\n      swap1\n      tag_46\n      jump\t// in\n    tag_55:\n      tag_56\n      jump\t// in\n    tag_54:\n      mload(0x40)\n      tag_57\n      swap7\n      swap6\n      swap5\n      swap4\n      swap3\n      swap2\n      swap1\n      tag_58\n      jump\t// in\n    tag_57:\n      mload(0x40)\n      dup1\n      swap2\n      sub\n      swap1\n      return\n        /* \"@openzeppelin/contracts/access/AccessControl.sol\":4192:4328  function grantRole(bytes32 role, address account) public virtual onlyRole(getRoleAdmin(role)) {... */\n    tag_9:\n      tag_59\n      0x04\n      dup1\n      calldatasize\n      sub\n      dup2\n      add\n      swap1\n      tag_60\n      swap2\n      swap1\n      tag_61\n      jump\t// in\n    tag_60:\n      tag_62\n      jump\t// in\n    tag_59:\n      stop\n        /* \"@openzeppelin/contracts/access/AccessControl.sol\":5294:5539  function renounceRole(bytes32 role, address callerConfirmation) public virtual {... */\n    tag_10:\n      tag_63\n      0x04\n      dup1\n      calldatasize\n      sub\n      dup2\n      add\n      swap1\n      tag_64\n      swap2\n      swap1\n      tag_61\n      jump\t// in\n    tag_64:\n      tag_65\n      jump\t// in\n    tag_63:\n      stop\n        /* \"contracts/escrow.sol\":1195:1247  mapping (address => uint256[]) public freelancerJobs */\n    tag_11:\n      tag_66\n      0x04\n      dup1\n      calldatasize\n      sub\n      dup2\n      add\n      swap1\n      tag_67\n      swap2\n      swap1\n      tag_68\n      jump\t// in\n    tag_67:\n      tag_69\n      jump\t// in\n    tag_66:\n      mload(0x40)\n      tag_70\n      swap2\n      swap1\n      tag_71\n      jump\t// in\n    tag_70:\n      mload(0x40)\n      dup1\n      swap2\n      sub\n      swap1\n      return\n        /* \"contracts/escrow.sol\":1678:1801  function getjob(uint256 _jobid) public view returns (MileStone [] memory){... */\n    tag_12:\n      tag_72\n      0x04\n      dup1\n      calldatasize\n      sub\n      dup2\n      add\n      swap1\n      tag_73\n      swap2\n      swap1\n      tag_36\n      jump\t// in\n    tag_73:\n      tag_74\n      jump\t// in\n    tag_72:\n      mload(0x40)\n      tag_75\n      swap2\n      swap1\n      tag_76\n      jump\t// in\n    tag_75:\n      mload(0x40)\n      dup1\n      swap2\n      sub\n      swap1\n      return\n        /* \"@openzeppelin/contracts/access/Ownable.sol\":2293:2394  function renounceOwnership() public virtual onlyOwner {... */\n    tag_13:\n      tag_77\n      tag_78\n      jump\t// in\n    tag_77:\n      stop\n        /* \"contracts/escrow.sol\":5212:5999  function resolveDispute(uint256 _jobId,uint256 _milestoneId, bool approve, string calldata _outcome) external onlyRole(RESOLVER){... */\n    tag_14:\n      tag_79\n      0x04\n      dup1\n      calldatasize\n      sub\n      dup2\n      add\n      swap1\n      tag_80\n      swap2\n      swap1\n      tag_81\n      jump\t// in\n    tag_80:\n      tag_82\n      jump\t// in\n    tag_79:\n      stop\n        /* \"@openzeppelin/contracts/access/Ownable.sol\":1638:1723  function owner() public view virtual returns (address) {... */\n    tag_15:\n      tag_83\n      tag_84\n      jump\t// in\n    tag_83:\n      mload(0x40)\n      tag_85\n      swap2\n      swap1\n      tag_86\n      jump\t// in\n    tag_85:\n      mload(0x40)\n      dup1\n      swap2\n      sub\n      swap1\n      return\n        /* \"@openzeppelin/contracts/access/AccessControl.sol\":2820:2956  function hasRole(bytes32 role, address account) public view virtual returns (bool) {... */\n    tag_16:\n      tag_87\n      0x04\n      dup1\n      calldatasize\n      sub\n      dup2\n      add\n      swap1\n      tag_88\n      swap2\n      swap1\n      tag_61\n      jump\t// in\n    tag_88:\n      tag_89\n      jump\t// in\n    tag_87:\n      mload(0x40)\n      tag_90\n      swap2\n      swap1\n      tag_33\n      jump\t// in\n    tag_90:\n      mload(0x40)\n      dup1\n      swap2\n      sub\n      swap1\n      return\n        /* \"contracts/escrow.sol\":373:404  IERC20 public immutable i_token */\n    tag_17:\n      tag_91\n      tag_92\n      jump\t// in\n    tag_91:\n      mload(0x40)\n      tag_93\n      swap2\n      swap1\n      tag_94\n      jump\t// in\n    tag_93:\n      mload(0x40)\n      dup1\n      swap2\n      sub\n      swap1\n      return\n        /* \"@openzeppelin/contracts/access/AccessControl.sol\":2187:2236  bytes32 public constant DEFAULT_ADMIN_ROLE = 0x00 */\n    tag_18:\n      tag_95\n      tag_96\n      jump\t// in\n    tag_95:\n      mload(0x40)\n      tag_97\n      swap2\n      swap1\n      tag_53\n      jump\t// in\n    tag_97:\n      mload(0x40)\n      dup1\n      swap2\n      sub\n      swap1\n      return\n        /* \"contracts/escrow.sol\":3286:3882  function submitMilestone(uint256 _jobId, uint256 _milestoneId, address _freelancer) external onlyFreelancer(_jobId) {... */\n    tag_19:\n      tag_98\n      0x04\n      dup1\n      calldatasize\n      sub\n      dup2\n      add\n      swap1\n      tag_99\n      swap2\n      swap1\n      tag_100\n      jump\t// in\n    tag_99:\n      tag_101\n      jump\t// in\n    tag_98:\n      stop\n        /* \"contracts/escrow.sol\":4403:5202  function raiseDispute(uint256 _jobId,uint256 _milestoneId, string calldata _reason) external{... */\n    tag_20:\n      tag_102\n      0x04\n      dup1\n      calldatasize\n      sub\n      dup2\n      add\n      swap1\n      tag_103\n      swap2\n      swap1\n      tag_104\n      jump\t// in\n    tag_103:\n      tag_105\n      jump\t// in\n    tag_102:\n      stop\n        /* \"contracts/escrow.sol\":411:431  uint256 public jobId */\n    tag_21:\n      tag_106\n      tag_107\n      jump\t// in\n    tag_106:\n      mload(0x40)\n      tag_108\n      swap2\n      swap1\n      tag_71\n      jump\t// in\n    tag_108:\n      mload(0x40)\n      dup1\n      swap2\n      sub\n      swap1\n      return\n        /* \"@openzeppelin/contracts/access/AccessControl.sol\":4608:4746  function revokeRole(bytes32 role, address account) public virtual onlyRole(getRoleAdmin(role)) {... */\n    tag_22:\n      tag_109\n      0x04\n      dup1\n      calldatasize\n      sub\n      dup2\n      add\n      swap1\n      tag_110\n      swap2\n      swap1\n      tag_61\n      jump\t// in\n    tag_110:\n      tag_111\n      jump\t// in\n    tag_109:\n      stop\n        /* \"contracts/escrow.sol\":2908:3278  function acceptJob(uint256 id, address _freelancer ) external onlyFreelancer(id) {... */\n    tag_23:\n      tag_112\n      0x04\n      dup1\n      calldatasize\n      sub\n      dup2\n      add\n      swap1\n      tag_113\n      swap2\n      swap1\n      tag_114\n      jump\t// in\n    tag_113:\n      tag_115\n      jump\t// in\n    tag_112:\n      stop\n        /* \"@openzeppelin/contracts/access/Ownable.sol\":2543:2758  function transferOwnership(address newOwner) public virtual onlyOwner {... */\n    tag_24:\n      tag_116\n      0x04\n      dup1\n      calldatasize\n      sub\n      dup2\n      add\n      swap1\n      tag_117\n      swap2\n      swap1\n      tag_118\n      jump\t// in\n    tag_117:\n      tag_119\n      jump\t// in\n    tag_116:\n      stop\n        /* \"@openzeppelin/contracts/access/AccessControl.sol\":2531:2733  function supportsInterface(bytes4 interfaceId) public view virtual override returns (bool) {... */\n    tag_31:\n        /* \"@openzeppelin/contracts/access/AccessControl.sol\":2616:2620  bool */\n      0x00\n        /* \"@openzeppelin/contracts/access/AccessControl.sol\":2654:2686  type(IAccessControl).interfaceId */\n      0x7965db0b00000000000000000000000000000000000000000000000000000000\n        /* \"@openzeppelin/contracts/access/AccessControl.sol\":2639:2686  interfaceId == type(IAccessControl).interfaceId */\n      not(0xffffffffffffffffffffffffffffffffffffffffffffffffffffffff)\n      and\n        /* \"@openzeppelin/contracts/access/AccessControl.sol\":2639:2650  interfaceId */\n      dup3\n        /* \"@openzeppelin/contracts/access/AccessControl.sol\":2639:2686  interfaceId == type(IAccessControl).interfaceId */\n      not(0xffffffffffffffffffffffffffffffffffffffffffffffffffffffff)\n      and\n      eq\n        /* \"@openzeppelin/contracts/access/AccessControl.sol\":2639:2726  interfaceId == type(IAccessControl).interfaceId || super.supportsInterface(interfaceId) */\n      dup1\n      tag_121\n      jumpi\n      pop\n        /* \"@openzeppelin/contracts/access/AccessControl.sol\":2690:2726  super.supportsInterface(interfaceId) */\n      tag_122\n        /* \"@openzeppelin/contracts/access/AccessControl.sol\":2714:2725  interfaceId */\n      dup3\n        /* \"@openzeppelin/contracts/access/AccessControl.sol\":2690:2713  super.supportsInterface */\n      tag_123\n        /* \"@openzeppelin/contracts/access/AccessControl.sol\":2690:2726  super.supportsInterface(interfaceId) */\n      jump\t// in\n    tag_122:\n        /* \"@openzeppelin/contracts/access/AccessControl.sol\":2639:2726  interfaceId == type(IAccessControl).interfaceId || super.supportsInterface(interfaceId) */\n    tag_121:\n        /* \"@openzeppelin/contracts/access/AccessControl.sol\":2632:2726  return interfaceId == type(IAccessControl).interfaceId || super.supportsInterface(interfaceId) */\n      swap1\n      pop\n        /* \"@openzeppelin/contracts/access/AccessControl.sol\":2531:2733  function supportsInterface(bytes4 interfaceId) public view virtual override returns (bool) {... */\n      swap2\n      swap1\n      pop\n      jump\t// out\n        /* \"contracts/escrow.sol\":1150:1186  mapping (uint256 => Job) public jobs */\n    tag_37:\n      mstore(0x20, 0x03)\n      dup1\n      0x00\n      mstore\n      keccak256(0x00, 0x40)\n      0x00\n      swap2\n      pop\n      swap1\n      pop\n      dup1\n      0x00\n      add\n      sload\n      swap1\n      dup1\n      0x01\n      add\n      0x00\n      swap1\n      sload\n      swap1\n      0x0100\n      exp\n      swap1\n      div\n      0xffffffffffffffffffffffffffffffffffffffff\n      and\n      swap1\n      dup1\n      0x02\n      add\n      0x00\n      swap1\n      sload\n      swap1\n      0x0100\n      exp\n      swap1\n      div\n      0xffffffffffffffffffffffffffffffffffffffff\n      and\n      swap1\n      dup1\n      0x04\n      add\n      sload\n      swap1\n      dup1\n      0x05\n      add\n      0x00\n      swap1\n      sload\n      swap1\n      0x0100\n      exp\n      swap1\n      div\n      0xff\n      and\n      swap1\n      pop\n      dup6\n      jump\t// out\n        /* \"contracts/escrow.sol\":1811:2898  function createJob(address _freelancer, uint256[] memory _amount) external onlyOwner {... */\n    tag_43:\n        /* \"@openzeppelin/contracts/access/Ownable.sol\":1531:1544  _checkOwner() */\n      tag_125\n        /* \"@openzeppelin/contracts/access/Ownable.sol\":1531:1542  _checkOwner */\n      tag_126\n        /* \"@openzeppelin/contracts/access/Ownable.sol\":1531:1544  _checkOwner() */\n      jump\t// in\n    tag_125:\n        /* \"contracts/escrow.sol\":1935:1936  0 */\n      0x00\n        /* \"contracts/escrow.sol\":1912:1937  _freelancer == address(0) */\n      0xffffffffffffffffffffffffffffffffffffffff\n      and\n        /* \"contracts/escrow.sol\":1912:1923  _freelancer */\n      dup3\n        /* \"contracts/escrow.sol\":1912:1937  _freelancer == address(0) */\n      0xffffffffffffffffffffffffffffffffffffffff\n      and\n      sub\n        /* \"contracts/escrow.sol\":1909:1964  if(_freelancer == address(0)) revert ZeroAddressError() */\n      tag_128\n      jumpi\n        /* \"contracts/escrow.sol\":1946:1964  ZeroAddressError() */\n      mload(0x40)\n      0x3efa09af00000000000000000000000000000000000000000000000000000000\n      dup2\n      mstore\n      0x04\n      add\n      mload(0x40)\n      dup1\n      swap2\n      sub\n      swap1\n      revert\n        /* \"contracts/escrow.sol\":1909:1964  if(_freelancer == address(0)) revert ZeroAddressError() */\n    tag_128:\n        /* \"contracts/escrow.sol\":1996:1997  0 */\n      0x00\n        /* \"contracts/escrow.sol\":1978:1985  _amount */\n      dup2\n        /* \"contracts/escrow.sol\":1978:1992  _amount.length */\n      mload\n        /* \"contracts/escrow.sol\":1978:1997  _amount.length == 0 */\n      sub\n        /* \"contracts/escrow.sol\":1975:2034  if(_amount.length == 0)       revert NoMilestonesProvided() */\n      tag_129\n      jumpi\n        /* \"contracts/escrow.sol\":2012:2034  NoMilestonesProvided() */\n      mload(0x40)\n      0x5dfece3f00000000000000000000000000000000000000000000000000000000\n      dup2\n      mstore\n      0x04\n      add\n      mload(0x40)\n      dup1\n      swap2\n      sub\n      swap1\n      revert\n        /* \"contracts/escrow.sol\":1975:2034  if(_amount.length == 0)       revert NoMilestonesProvided() */\n    tag_129:\n        /* \"contracts/escrow.sol\":2047:2060  uint256 count */\n      0x00\n        /* \"contracts/escrow.sol\":2063:2070  _amount */\n      dup2\n        /* \"contracts/escrow.sol\":2063:2077  _amount.length */\n      mload\n        /* \"contracts/escrow.sol\":2047:2077  uint256 count = _amount.length */\n      swap1\n      pop\n        /* \"contracts/escrow.sol\":2090:2103  uint256 total */\n      0x00\n        /* \"contracts/escrow.sol\":2114:2130  Job storage _job */\n      0x00\n        /* \"contracts/escrow.sol\":2133:2137  jobs */\n      0x03\n        /* \"contracts/escrow.sol\":2133:2144  jobs[jobId] */\n      0x00\n        /* \"contracts/escrow.sol\":2138:2143  jobId */\n      sload(0x02)\n        /* \"contracts/escrow.sol\":2133:2144  jobs[jobId] */\n      dup2\n      mstore\n      0x20\n      add\n      swap1\n      dup2\n      mstore\n      0x20\n      add\n      0x00\n      keccak256\n        /* \"contracts/escrow.sol\":2114:2144  Job storage _job = jobs[jobId] */\n      swap1\n      pop\n        /* \"contracts/escrow.sol\":2167:2172  jobId */\n      sload(0x02)\n        /* \"contracts/escrow.sol\":2157:2161  _job */\n      dup2\n        /* \"contracts/escrow.sol\":2157:2164  _job.id */\n      0x00\n      add\n        /* \"contracts/escrow.sol\":2157:2172  _job.id = jobId */\n      dup2\n      swap1\n      sstore\n      pop\n        /* \"contracts/escrow.sol\":2198:2208  msg.sender */\n      caller\n        /* \"contracts/escrow.sol\":2183:2187  _job */\n      dup2\n        /* \"contracts/escrow.sol\":2183:2195  _job.clients */\n      0x01\n      add\n      0x00\n        /* \"contracts/escrow.sol\":2183:2208  _job.clients = msg.sender */\n      0x0100\n      exp\n      dup2\n      sload\n      dup2\n      0xffffffffffffffffffffffffffffffffffffffff\n      mul\n      not\n      and\n      swap1\n      dup4\n      0xffffffffffffffffffffffffffffffffffffffff\n      and\n      mul\n      or\n      swap1\n      sstore\n      pop\n        /* \"contracts/escrow.sol\":2237:2248  _freelancer */\n      dup5\n        /* \"contracts/escrow.sol\":2219:2223  _job */\n      dup2\n        /* \"contracts/escrow.sol\":2219:2234  _job.freelancer */\n      0x02\n      add\n      0x00\n        /* \"contracts/escrow.sol\":2219:2248  _job.freelancer = _freelancer */\n      0x0100\n      exp\n      dup2\n      sload\n      dup2\n      0xffffffffffffffffffffffffffffffffffffffff\n      mul\n      not\n      and\n      swap1\n      dup4\n      0xffffffffffffffffffffffffffffffffffffffff\n      and\n      mul\n      or\n      swap1\n      sstore\n      pop\n        /* \"contracts/escrow.sol\":2265:2274  uint256 i */\n      0x00\n        /* \"contracts/escrow.sol\":2276:2277  0 */\n      0x00\n        /* \"contracts/escrow.sol\":2265:2277  uint256 i =0 */\n      swap1\n      pop\n        /* \"contracts/escrow.sol\":2261:2651  for(uint256 i =0; i < count;){... */\n    tag_130:\n        /* \"contracts/escrow.sol\":2283:2288  count */\n      dup4\n        /* \"contracts/escrow.sol\":2279:2280  i */\n      dup2\n        /* \"contracts/escrow.sol\":2279:2288  i < count */\n      lt\n        /* \"contracts/escrow.sol\":2261:2651  for(uint256 i =0; i < count;){... */\n      iszero\n      tag_131\n      jumpi\n        /* \"contracts/escrow.sol\":2305:2322  uint256 amountWei */\n      0x00\n        /* \"contracts/escrow.sol\":2325:2349  Helper.toWei(_amount[i]) */\n      tag_133\n        /* \"contracts/escrow.sol\":2338:2345  _amount */\n      dup7\n        /* \"contracts/escrow.sol\":2346:2347  i */\n      dup4\n        /* \"contracts/escrow.sol\":2338:2348  _amount[i] */\n      dup2\n      mload\n      dup2\n      lt\n      tag_134\n      jumpi\n      tag_135\n      tag_136\n      jump\t// in\n    tag_135:\n    tag_134:\n      0x20\n      mul\n      0x20\n      add\n      add\n      mload\n        /* \"contracts/escrow.sol\":2325:2337  Helper.toWei */\n      tag_137\n        /* \"contracts/escrow.sol\":2325:2349  Helper.toWei(_amount[i]) */\n      jump\t// in\n    tag_133:\n        /* \"contracts/escrow.sol\":2305:2349  uint256 amountWei = Helper.toWei(_amount[i]) */\n      swap1\n      pop\n        /* \"contracts/escrow.sol\":2366:2370  _job */\n      dup3\n        /* \"contracts/escrow.sol\":2366:2381  _job.milestones */\n      0x03\n      add\n        /* \"contracts/escrow.sol\":2387:2573  MileStone({... */\n      mload(0x40)\n      dup1\n      0x60\n      add\n      0x40\n      mstore\n      dup1\n        /* \"contracts/escrow.sol\":2424:2433  amountWei */\n      dup4\n        /* \"contracts/escrow.sol\":2387:2573  MileStone({... */\n      dup2\n      mstore\n      0x20\n      add\n        /* \"contracts/escrow.sol\":2496:2501  false */\n      0x00\n        /* \"contracts/escrow.sol\":2387:2573  MileStone({... */\n      iszero\n      iszero\n      dup2\n      mstore\n      0x20\n      add\n        /* \"contracts/escrow.sol\":2537:2557  MileStoneStatus.Open */\n      0x00\n        /* \"contracts/escrow.sol\":2387:2573  MileStone({... */\n      0x04\n      dup2\n      gt\n      iszero\n      tag_138\n      jumpi\n      tag_139\n      tag_140\n      jump\t// in\n    tag_139:\n    tag_138:\n      dup2\n      mstore\n      pop\n        /* \"contracts/escrow.sol\":2366:2574  _job.milestones.push(MileStone({... */\n      swap1\n      dup1\n      0x01\n      dup2\n      sload\n      add\n      dup1\n      dup3\n      sstore\n      dup1\n      swap2\n      pop\n      pop\n      0x01\n      swap1\n      sub\n      swap1\n      0x00\n      mstore\n      keccak256(0x00, 0x20)\n      swap1\n      0x02\n      mul\n      add\n      0x00\n      swap1\n      swap2\n      swap1\n      swap2\n      swap1\n      swap2\n      pop\n      0x00\n      dup3\n      add\n      mload\n      dup2\n      0x00\n      add\n      sstore\n      0x20\n      dup3\n      add\n      mload\n      dup2\n      0x01\n      add\n      exp(0x0100, 0x00)\n      dup2\n      sload\n      dup2\n      0xff\n      mul\n      not\n      and\n      swap1\n      dup4\n      iszero\n      iszero\n      mul\n      or\n      swap1\n      sstore\n      pop\n      0x40\n      dup3\n      add\n      mload\n      dup2\n      0x01\n      add\n      exp(0x0100, 0x01)\n      dup2\n      sload\n      dup2\n      0xff\n      mul\n      not\n      and\n      swap1\n      dup4\n      0x04\n      dup2\n      gt\n      iszero\n      tag_142\n      jumpi\n      tag_143\n      tag_140\n      jump\t// in\n    tag_143:\n    tag_142:\n      mul\n      or\n      swap1\n      sstore\n      pop\n      pop\n      pop\n        /* \"contracts/escrow.sol\":2598:2607  amountWei */\n      dup1\n        /* \"contracts/escrow.sol\":2589:2607  total += amountWei */\n      dup5\n      tag_144\n      swap2\n      swap1\n      tag_145\n      jump\t// in\n    tag_144:\n      swap4\n      pop\n        /* \"contracts/escrow.sol\":2635:2638  i++ */\n      dup2\n      dup1\n      0x01\n      add\n      swap3\n      pop\n      pop\n        /* \"contracts/escrow.sol\":2290:2651  {... */\n      pop\n        /* \"contracts/escrow.sol\":2261:2651  for(uint256 i =0; i < count;){... */\n      jump(tag_130)\n    tag_131:\n      pop\n        /* \"contracts/escrow.sol\":2682:2687  total */\n      dup2\n        /* \"contracts/escrow.sol\":2663:2667  _job */\n      dup2\n        /* \"contracts/escrow.sol\":2663:2679  _job.totalAmount */\n      0x04\n      add\n        /* \"contracts/escrow.sol\":2663:2687  _job.totalAmount = total */\n      dup2\n      swap1\n      sstore\n      pop\n        /* \"contracts/escrow.sol\":2712:2723  Status.Open */\n      0x00\n        /* \"contracts/escrow.sol\":2698:2702  _job */\n      dup2\n        /* \"contracts/escrow.sol\":2698:2709  _job.status */\n      0x05\n      add\n      0x00\n        /* \"contracts/escrow.sol\":2698:2723  _job.status = Status.Open */\n      0x0100\n      exp\n      dup2\n      sload\n      dup2\n      0xff\n      mul\n      not\n      and\n      swap1\n      dup4\n      0x03\n      dup2\n      gt\n      iszero\n      tag_146\n      jumpi\n      tag_147\n      tag_140\n      jump\t// in\n    tag_147:\n    tag_146:\n      mul\n      or\n      swap1\n      sstore\n      pop\n        /* \"contracts/escrow.sol\":2744:2751  i_token */\n      immutable(\"0x759fc1d144333ef3ef5172c8b6bde869faf7a3759a0cfce056d23f6fbfb24c51\")\n        /* \"contracts/escrow.sol\":2744:2764  i_token.transferFrom */\n      0xffffffffffffffffffffffffffffffffffffffff\n      and\n      0x23b872dd\n        /* \"contracts/escrow.sol\":2765:2775  msg.sender */\n      caller\n        /* \"contracts/escrow.sol\":2785:2789  this */\n      address\n        /* \"contracts/escrow.sol\":2792:2797  total */\n      dup6\n        /* \"contracts/escrow.sol\":2744:2798  i_token.transferFrom(msg.sender, address(this), total) */\n      mload(0x40)\n      dup5\n      0xffffffff\n      and\n      0xe0\n      shl\n      dup2\n      mstore\n      0x04\n      add\n      tag_148\n      swap4\n      swap3\n      swap2\n      swap1\n      tag_149\n      jump\t// in\n    tag_148:\n      0x20\n      mload(0x40)\n      dup1\n      dup4\n      sub\n      dup2\n      0x00\n      dup8\n      gas\n      call\n      iszero\n      dup1\n      iszero\n      tag_151\n      jumpi\n      returndatacopy(0x00, 0x00, returndatasize)\n      revert(0x00, returndatasize)\n    tag_151:\n      pop\n      pop\n      pop\n      pop\n      mload(0x40)\n      returndatasize\n      not(0x1f)\n      0x1f\n      dup3\n      add\n      and\n      dup3\n      add\n      dup1\n      0x40\n      mstore\n      pop\n      dup2\n      add\n      swap1\n      tag_152\n      swap2\n      swap1\n      tag_153\n      jump\t// in\n    tag_152:\n        /* \"contracts/escrow.sol\":2736:2818  require(i_token.transferFrom(msg.sender, address(this), total), 'Transfer failed') */\n      tag_154\n      jumpi\n      mload(0x40)\n      0x08c379a000000000000000000000000000000000000000000000000000000000\n      dup2\n      mstore\n      0x04\n      add\n      tag_155\n      swap1\n      tag_156\n      jump\t// in\n    tag_155:\n      mload(0x40)\n      dup1\n      swap2\n      sub\n      swap1\n      revert\n    tag_154:\n        /* \"contracts/escrow.sol\":2831:2845  freelancerJobs */\n      0x04\n        /* \"contracts/escrow.sol\":2831:2858  freelancerJobs[_freelancer] */\n      0x00\n        /* \"contracts/escrow.sol\":2846:2857  _freelancer */\n      dup7\n        /* \"contracts/escrow.sol\":2831:2858  freelancerJobs[_freelancer] */\n      0xffffffffffffffffffffffffffffffffffffffff\n      and\n      0xffffffffffffffffffffffffffffffffffffffff\n      and\n      dup2\n      mstore\n      0x20\n      add\n      swap1\n      dup2\n      mstore\n      0x20\n      add\n      0x00\n      keccak256\n        /* \"contracts/escrow.sol\":2864:2869  jobId */\n      sload(0x02)\n        /* \"contracts/escrow.sol\":2831:2870  freelancerJobs[_freelancer].push(jobId) */\n      swap1\n      dup1\n      0x01\n      dup2\n      sload\n      add\n      dup1\n      dup3\n      sstore\n      dup1\n      swap2\n      pop\n      pop\n      0x01\n      swap1\n      sub\n      swap1\n      0x00\n      mstore\n      keccak256(0x00, 0x20)\n      add\n      0x00\n      swap1\n      swap2\n      swap1\n      swap2\n      swap1\n      swap2\n      pop\n      sstore\n        /* \"contracts/escrow.sol\":2881:2886  jobId */\n      0x02\n      0x00\n        /* \"contracts/escrow.sol\":2881:2888  jobId++ */\n      dup2\n      sload\n      dup1\n      swap3\n      swap2\n      swap1\n      tag_158\n      swap1\n      tag_159\n      jump\t// in\n    tag_158:\n      swap2\n      swap1\n      pop\n      sstore\n      pop\n        /* \"contracts/escrow.sol\":1896:2898  {... */\n      pop\n      pop\n      pop\n        /* \"contracts/escrow.sol\":1811:2898  function createJob(address _freelancer, uint256[] memory _amount) external onlyOwner {... */\n      pop\n      pop\n      jump\t// out\n        /* \"contracts/escrow.sol\":3890:4395  function approveMilestone(uint256 _jobId,uint256 _milestoneId) external onlyOwner{... */\n    tag_47:\n        /* \"@openzeppelin/contracts/access/Ownable.sol\":1531:1544  _checkOwner() */\n      tag_161\n        /* \"@openzeppelin/contracts/access/Ownable.sol\":1531:1542  _checkOwner */\n      tag_126\n        /* \"@openzeppelin/contracts/access/Ownable.sol\":1531:1544  _checkOwner() */\n      jump\t// in\n    tag_161:\n        /* \"contracts/escrow.sol\":3982:3998  Job storage _job */\n      0x00\n        /* \"contracts/escrow.sol\":4001:4005  jobs */\n      0x03\n        /* \"contracts/escrow.sol\":4001:4013  jobs[_jobId] */\n      0x00\n        /* \"contracts/escrow.sol\":4006:4012  _jobId */\n      dup5\n        /* \"contracts/escrow.sol\":4001:4013  jobs[_jobId] */\n      dup2\n      mstore\n      0x20\n      add\n      swap1\n      dup2\n      mstore\n      0x20\n      add\n      0x00\n      keccak256\n        /* \"contracts/escrow.sol\":3982:4013  Job storage _job = jobs[_jobId] */\n      swap1\n      pop\n        /* \"contracts/escrow.sol\":4042:4046  _job */\n      dup1\n        /* \"contracts/escrow.sol\":4042:4057  _job.milestones */\n      0x03\n      add\n        /* \"contracts/escrow.sol\":4042:4064  _job.milestones.length */\n      dup1\n      sload\n      swap1\n      pop\n        /* \"contracts/escrow.sol\":4027:4039  _milestoneId */\n      dup3\n        /* \"contracts/escrow.sol\":4027:4064  _milestoneId > _job.milestones.length */\n      gt\n        /* \"contracts/escrow.sol\":4024:4087  if(_milestoneId > _job.milestones.length) revert InvalidIndex() */\n      iszero\n      tag_163\n      jumpi\n        /* \"contracts/escrow.sol\":4073:4087  InvalidIndex() */\n      mload(0x40)\n      0x63df817100000000000000000000000000000000000000000000000000000000\n      dup2\n      mstore\n      0x04\n      add\n      mload(0x40)\n      dup1\n      swap2\n      sub\n      swap1\n      revert\n        /* \"contracts/escrow.sol\":4024:4087  if(_milestoneId > _job.milestones.length) revert InvalidIndex() */\n    tag_163:\n        /* \"contracts/escrow.sol\":4100:4120  MileStone storage _m */\n      0x00\n        /* \"contracts/escrow.sol\":4123:4127  _job */\n      dup2\n        /* \"contracts/escrow.sol\":4123:4138  _job.milestones */\n      0x03\n      add\n        /* \"contracts/escrow.sol\":4139:4151  _milestoneId */\n      dup4\n        /* \"contracts/escrow.sol\":4123:4152  _job.milestones[_milestoneId] */\n      dup2\n      sload\n      dup2\n      lt\n      tag_164\n      jumpi\n      tag_165\n      tag_136\n      jump\t// in\n    tag_165:\n    tag_164:\n      swap1\n      0x00\n      mstore\n      keccak256(0x00, 0x20)\n      swap1\n      0x02\n      mul\n      add\n        /* \"contracts/escrow.sol\":4100:4152  MileStone storage _m = _job.milestones[_milestoneId] */\n      swap1\n      pop\n        /* \"contracts/escrow.sol\":4188:4212  MileStoneStatus.InReview */\n      0x01\n        /* \"contracts/escrow.sol\":4166:4212  _m.mileStoneStatus != MileStoneStatus.InReview */\n      0x04\n      dup2\n      gt\n      iszero\n      tag_167\n      jumpi\n      tag_168\n      tag_140\n      jump\t// in\n    tag_168:\n    tag_167:\n        /* \"contracts/escrow.sol\":4166:4168  _m */\n      dup2\n        /* \"contracts/escrow.sol\":4166:4184  _m.mileStoneStatus */\n      0x01\n      add\n      0x01\n      swap1\n      sload\n      swap1\n      0x0100\n      exp\n      swap1\n      div\n      0xff\n      and\n        /* \"contracts/escrow.sol\":4166:4212  _m.mileStoneStatus != MileStoneStatus.InReview */\n      0x04\n      dup2\n      gt\n      iszero\n      tag_169\n      jumpi\n      tag_170\n      tag_140\n      jump\t// in\n    tag_170:\n    tag_169:\n      eq\n        /* \"contracts/escrow.sol\":4163:4245  if(_m.mileStoneStatus != MileStoneStatus.InReview) revert InvalidMileStoneStatus() */\n      tag_171\n      jumpi\n        /* \"contracts/escrow.sol\":4221:4245  InvalidMileStoneStatus() */\n      mload(0x40)\n      0x50da79dd00000000000000000000000000000000000000000000000000000000\n      dup2\n      mstore\n      0x04\n      add\n      mload(0x40)\n      dup1\n      swap2\n      sub\n      swap1\n      revert\n        /* \"contracts/escrow.sol\":4163:4245  if(_m.mileStoneStatus != MileStoneStatus.InReview) revert InvalidMileStoneStatus() */\n    tag_171:\n        /* \"contracts/escrow.sol\":4279:4303  MileStoneStatus.Accepted */\n      0x02\n        /* \"contracts/escrow.sol\":4258:4260  _m */\n      dup2\n        /* \"contracts/escrow.sol\":4258:4276  _m.mileStoneStatus */\n      0x01\n      add\n      0x01\n        /* \"contracts/escrow.sol\":4258:4303  _m.mileStoneStatus = MileStoneStatus.Accepted */\n      0x0100\n      exp\n      dup2\n      sload\n      dup2\n      0xff\n      mul\n      not\n      and\n      swap1\n      dup4\n      0x04\n      dup2\n      gt\n      iszero\n      tag_172\n      jumpi\n      tag_173\n      tag_140\n      jump\t// in\n    tag_173:\n    tag_172:\n      mul\n      or\n      swap1\n      sstore\n      pop\n        /* \"contracts/escrow.sol\":4316:4323  i_token */\n      immutable(\"0x759fc1d144333ef3ef5172c8b6bde869faf7a3759a0cfce056d23f6fbfb24c51\")\n        /* \"contracts/escrow.sol\":4316:4332  i_token.transfer */\n      0xffffffffffffffffffffffffffffffffffffffff\n      and\n      0xa9059cbb\n        /* \"contracts/escrow.sol\":4333:4337  _job */\n      dup4\n        /* \"contracts/escrow.sol\":4333:4348  _job.freelancer */\n      0x02\n      add\n      0x00\n      swap1\n      sload\n      swap1\n      0x0100\n      exp\n      swap1\n      div\n      0xffffffffffffffffffffffffffffffffffffffff\n      and\n        /* \"contracts/escrow.sol\":4350:4352  _m */\n      dup4\n        /* \"contracts/escrow.sol\":4350:4359  _m.amount */\n      0x00\n      add\n      sload\n        /* \"contracts/escrow.sol\":4316:4360  i_token.transfer(_job.freelancer, _m.amount) */\n      mload(0x40)\n      dup4\n      0xffffffff\n      and\n      0xe0\n      shl\n      dup2\n      mstore\n      0x04\n      add\n      tag_174\n      swap3\n      swap2\n      swap1\n      tag_175\n      jump\t// in\n    tag_174:\n      0x20\n      mload(0x40)\n      dup1\n      dup4\n      sub\n      dup2\n      0x00\n      dup8\n      gas\n      call\n      iszero\n      dup1\n      iszero\n      tag_177\n      jumpi\n      returndatacopy(0x00, 0x00, returndatasize)\n      revert(0x00, returndatasize)\n    tag_177:\n      pop\n      pop\n      pop\n      pop\n      mload(0x40)\n      returndatasize\n      not(0x1f)\n      0x1f\n      dup3\n      add\n      and\n      dup3\n      add\n      dup1\n      0x40\n      mstore\n      pop\n      dup2\n      add\n      swap1\n      tag_178\n      swap2\n      swap1\n      tag_153\n      jump\t// in\n    tag_178:\n      pop\n        /* \"contracts/escrow.sol\":4383:4387  true */\n      0x01\n        /* \"contracts/escrow.sol\":4373:4375  _m */\n      dup2\n        /* \"contracts/escrow.sol\":4373:4380  _m.paid */\n      0x01\n      add\n      0x00\n        /* \"contracts/escrow.sol\":4373:4387  _m.paid = true */\n      0x0100\n      exp\n      dup2\n      sload\n      dup2\n      0xff\n      mul\n      not\n      and\n      swap1\n      dup4\n      iszero\n      iszero\n      mul\n      or\n      swap1\n      sstore\n      pop\n        /* \"contracts/escrow.sol\":3971:4395  {... */\n      pop\n      pop\n        /* \"contracts/escrow.sol\":3890:4395  function approveMilestone(uint256 _jobId,uint256 _milestoneId) external onlyOwner{... */\n      pop\n      pop\n      jump\t// out\n        /* \"@openzeppelin/contracts/access/AccessControl.sol\":3776:3896  function getRoleAdmin(bytes32 role) public view virtual returns (bytes32) {... */\n    tag_51:\n        /* \"@openzeppelin/contracts/access/AccessControl.sol\":3841:3848  bytes32 */\n      0x00\n        /* \"@openzeppelin/contracts/access/AccessControl.sol\":3867:3873  _roles */\n      0x01\n        /* \"@openzeppelin/contracts/access/AccessControl.sol\":3867:3879  _roles[role] */\n      0x00\n        /* \"@openzeppelin/contracts/access/AccessControl.sol\":3874:3878  role */\n      dup4\n        /* \"@openzeppelin/contracts/access/AccessControl.sol\":3867:3879  _roles[role] */\n      dup2\n      mstore\n      0x20\n      add\n      swap1\n      dup2\n      mstore\n      0x20\n      add\n      0x00\n      keccak256\n        /* \"@openzeppelin/contracts/access/AccessControl.sol\":3867:3889  _roles[role].adminRole */\n      0x01\n      add\n      sload\n        /* \"@openzeppelin/contracts/access/AccessControl.sol\":3860:3889  return _roles[role].adminRole */\n      swap1\n      pop\n        /* \"@openzeppelin/contracts/access/AccessControl.sol\":3776:3896  function getRoleAdmin(bytes32 role) public view virtual returns (bytes32) {... */\n      swap2\n      swap1\n      pop\n      jump\t// out\n        /* \"contracts/escrow.sol\":1256:1321  mapping(uint256 => mapping (uint256 => Disputes)) public disputes */\n    tag_56:\n      mstore(0x20, 0x05)\n      dup2\n      0x00\n      mstore\n      mstore(0x20, keccak256(0x00, 0x40))\n      dup1\n      0x00\n      mstore\n      keccak256(0x00, 0x40)\n      0x00\n      swap2\n      pop\n      swap2\n      pop\n      pop\n      dup1\n      0x00\n      add\n      sload\n      swap1\n      dup1\n      0x01\n      add\n      0x00\n      swap1\n      sload\n      swap1\n      0x0100\n      exp\n      swap1\n      div\n      0xffffffffffffffffffffffffffffffffffffffff\n      and\n      swap1\n      dup1\n      0x02\n      add\n      dup1\n      sload\n      tag_180\n      swap1\n      tag_181\n      jump\t// in\n    tag_180:\n      dup1\n      0x1f\n      add\n      0x20\n      dup1\n      swap2\n      div\n      mul\n      0x20\n      add\n      mload(0x40)\n      swap1\n      dup2\n      add\n      0x40\n      mstore\n      dup1\n      swap3\n      swap2\n      swap1\n      dup2\n      dup2\n      mstore\n      0x20\n      add\n      dup3\n      dup1\n      sload\n      tag_182\n      swap1\n      tag_181\n      jump\t// in\n    tag_182:\n      dup1\n      iszero\n      tag_183\n      jumpi\n      dup1\n      0x1f\n      lt\n      tag_184\n      jumpi\n      0x0100\n      dup1\n      dup4\n      sload\n      div\n      mul\n      dup4\n      mstore\n      swap2\n      0x20\n      add\n      swap2\n      jump(tag_183)\n    tag_184:\n      dup3\n      add\n      swap2\n      swap1\n      0x00\n      mstore\n      keccak256(0x00, 0x20)\n      swap1\n    tag_185:\n      dup2\n      sload\n      dup2\n      mstore\n      swap1\n      0x01\n      add\n      swap1\n      0x20\n      add\n      dup1\n      dup4\n      gt\n      tag_185\n      jumpi\n      dup3\n      swap1\n      sub\n      0x1f\n      and\n      dup3\n      add\n      swap2\n    tag_183:\n      pop\n      pop\n      pop\n      pop\n      pop\n      swap1\n      dup1\n      0x03\n      add\n      0x00\n      swap1\n      sload\n      swap1\n      0x0100\n      exp\n      swap1\n      div\n      0xffffffffffffffffffffffffffffffffffffffff\n      and\n      swap1\n      dup1\n      0x03\n      add\n      0x14\n      swap1\n      sload\n      swap1\n      0x0100\n      exp\n      swap1\n      div\n      0xff\n      and\n      swap1\n      dup1\n      0x04\n      add\n      dup1\n      sload\n      tag_186\n      swap1\n      tag_181\n      jump\t// in\n    tag_186:\n      dup1\n      0x1f\n      add\n      0x20\n      dup1\n      swap2\n      div\n      mul\n      0x20\n      add\n      mload(0x40)\n      swap1\n      dup2\n      add\n      0x40\n      mstore\n      dup1\n      swap3\n      swap2\n      swap1\n      dup2\n      dup2\n      mstore\n      0x20\n      add\n      dup3\n      dup1\n      sload\n      tag_187\n      swap1\n      tag_181\n      jump\t// in\n    tag_187:\n      dup1\n      iszero\n      tag_188\n      jumpi\n      dup1\n      0x1f\n      lt\n      tag_189\n      jumpi\n      0x0100\n      dup1\n      dup4\n      sload\n      div\n      mul\n      dup4\n      mstore\n      swap2\n      0x20\n      add\n      swap2\n      jump(tag_188)\n    tag_189:\n      dup3\n      add\n      swap2\n      swap1\n      0x00\n      mstore\n      keccak256(0x00, 0x20)\n      swap1\n    tag_190:\n      dup2\n      sload\n      dup2\n      mstore\n      swap1\n      0x01\n      add\n      swap1\n      0x20\n      add\n      dup1\n      dup4\n      gt\n      tag_190\n      jumpi\n      dup3\n      swap1\n      sub\n      0x1f\n      and\n      dup3\n      add\n      swap2\n    tag_188:\n      pop\n      pop\n      pop\n      pop\n      pop\n      swap1\n      pop\n      dup7\n      jump\t// out\n        /* \"@openzeppelin/contracts/access/AccessControl.sol\":4192:4328  function grantRole(bytes32 role, address account) public virtual onlyRole(getRoleAdmin(role)) {... */\n    tag_62:\n        /* \"@openzeppelin/contracts/access/AccessControl.sol\":4266:4284  getRoleAdmin(role) */\n      tag_191\n        /* \"@openzeppelin/contracts/access/AccessControl.sol\":4279:4283  role */\n      dup3\n        /* \"@openzeppelin/contracts/access/AccessControl.sol\":4266:4278  getRoleAdmin */\n      tag_51\n        /* \"@openzeppelin/contracts/access/AccessControl.sol\":4266:4284  getRoleAdmin(role) */\n      jump\t// in\n    tag_191:\n        /* \"@openzeppelin/contracts/access/AccessControl.sol\":2464:2480  _checkRole(role) */\n      tag_193\n        /* \"@openzeppelin/contracts/access/AccessControl.sol\":2475:2479  role */\n      dup2\n        /* \"@openzeppelin/contracts/access/AccessControl.sol\":2464:2474  _checkRole */\n      tag_194\n        /* \"@openzeppelin/contracts/access/AccessControl.sol\":2464:2480  _checkRole(role) */\n      jump\t// in\n    tag_193:\n        /* \"@openzeppelin/contracts/access/AccessControl.sol\":4296:4321  _grantRole(role, account) */\n      tag_196\n        /* \"@openzeppelin/contracts/access/AccessControl.sol\":4307:4311  role */\n      dup4\n        /* \"@openzeppelin/contracts/access/AccessControl.sol\":4313:4320  account */\n      dup4\n        /* \"@openzeppelin/contracts/access/AccessControl.sol\":4296:4306  _grantRole */\n      tag_197\n        /* \"@openzeppelin/contracts/access/AccessControl.sol\":4296:4321  _grantRole(role, account) */\n      jump\t// in\n    tag_196:\n      pop\n        /* \"@openzeppelin/contracts/access/AccessControl.sol\":4192:4328  function grantRole(bytes32 role, address account) public virtual onlyRole(getRoleAdmin(role)) {... */\n      pop\n      pop\n      pop\n      jump\t// out\n        /* \"@openzeppelin/contracts/access/AccessControl.sol\":5294:5539  function renounceRole(bytes32 role, address callerConfirmation) public virtual {... */\n    tag_65:\n        /* \"@openzeppelin/contracts/access/AccessControl.sol\":5409:5421  _msgSender() */\n      tag_199\n        /* \"@openzeppelin/contracts/access/AccessControl.sol\":5409:5419  _msgSender */\n      tag_200\n        /* \"@openzeppelin/contracts/access/AccessControl.sol\":5409:5421  _msgSender() */\n      jump\t// in\n    tag_199:\n        /* \"@openzeppelin/contracts/access/AccessControl.sol\":5387:5421  callerConfirmation != _msgSender() */\n      0xffffffffffffffffffffffffffffffffffffffff\n      and\n        /* \"@openzeppelin/contracts/access/AccessControl.sol\":5387:5405  callerConfirmation */\n      dup2\n        /* \"@openzeppelin/contracts/access/AccessControl.sol\":5387:5421  callerConfirmation != _msgSender() */\n      0xffffffffffffffffffffffffffffffffffffffff\n      and\n      eq\n        /* \"@openzeppelin/contracts/access/AccessControl.sol\":5383:5485  if (callerConfirmation != _msgSender()) {... */\n      tag_201\n      jumpi\n        /* \"@openzeppelin/contracts/access/AccessControl.sol\":5444:5474  AccessControlBadConfirmation() */\n      mload(0x40)\n      0x6697b23200000000000000000000000000000000000000000000000000000000\n      dup2\n      mstore\n      0x04\n      add\n      mload(0x40)\n      dup1\n      swap2\n      sub\n      swap1\n      revert\n        /* \"@openzeppelin/contracts/access/AccessControl.sol\":5383:5485  if (callerConfirmation != _msgSender()) {... */\n    tag_201:\n        /* \"@openzeppelin/contracts/access/AccessControl.sol\":5495:5532  _revokeRole(role, callerConfirmation) */\n      tag_202\n        /* \"@openzeppelin/contracts/access/AccessControl.sol\":5507:5511  role */\n      dup3\n        /* \"@openzeppelin/contracts/access/AccessControl.sol\":5513:5531  callerConfirmation */\n      dup3\n        /* \"@openzeppelin/contracts/access/AccessControl.sol\":5495:5506  _revokeRole */\n      tag_203\n        /* \"@openzeppelin/contracts/access/AccessControl.sol\":5495:5532  _revokeRole(role, callerConfirmation) */\n      jump\t// in\n    tag_202:\n      pop\n        /* \"@openzeppelin/contracts/access/AccessControl.sol\":5294:5539  function renounceRole(bytes32 role, address callerConfirmation) public virtual {... */\n      pop\n      pop\n      jump\t// out\n        /* \"contracts/escrow.sol\":1195:1247  mapping (address => uint256[]) public freelancerJobs */\n    tag_69:\n      mstore(0x20, 0x04)\n      dup2\n      0x00\n      mstore\n      keccak256(0x00, 0x40)\n      dup2\n      dup2\n      sload\n      dup2\n      lt\n      tag_204\n      jumpi\n      0x00\n      dup1\n      revert\n    tag_204:\n      swap1\n      0x00\n      mstore\n      keccak256(0x00, 0x20)\n      add\n      0x00\n      swap2\n      pop\n      swap2\n      pop\n      pop\n      sload\n      dup2\n      jump\t// out\n        /* \"contracts/escrow.sol\":1678:1801  function getjob(uint256 _jobid) public view returns (MileStone [] memory){... */\n    tag_74:\n        /* \"contracts/escrow.sol\":1731:1750  MileStone [] memory */\n      0x60\n        /* \"contracts/escrow.sol\":1770:1774  jobs */\n      0x03\n        /* \"contracts/escrow.sol\":1770:1782  jobs[_jobid] */\n      0x00\n        /* \"contracts/escrow.sol\":1775:1781  _jobid */\n      dup4\n        /* \"contracts/escrow.sol\":1770:1782  jobs[_jobid] */\n      dup2\n      mstore\n      0x20\n      add\n      swap1\n      dup2\n      mstore\n      0x20\n      add\n      0x00\n      keccak256\n        /* \"contracts/escrow.sol\":1770:1793  jobs[_jobid].milestones */\n      0x03\n      add\n        /* \"contracts/escrow.sol\":1762:1793  return  jobs[_jobid].milestones */\n      dup1\n      sload\n      dup1\n      0x20\n      mul\n      0x20\n      add\n      mload(0x40)\n      swap1\n      dup2\n      add\n      0x40\n      mstore\n      dup1\n      swap3\n      swap2\n      swap1\n      dup2\n      dup2\n      mstore\n      0x20\n      add\n      0x00\n      swap1\n    tag_207:\n      dup3\n      dup3\n      lt\n      iszero\n      tag_208\n      jumpi\n      dup4\n      dup3\n      swap1\n      0x00\n      mstore\n      keccak256(0x00, 0x20)\n      swap1\n      0x02\n      mul\n      add\n      mload(0x40)\n      dup1\n      0x60\n      add\n      0x40\n      mstore\n      swap1\n      dup2\n      0x00\n      dup3\n      add\n      sload\n      dup2\n      mstore\n      0x20\n      add\n      0x01\n      dup3\n      add\n      0x00\n      swap1\n      sload\n      swap1\n      0x0100\n      exp\n      swap1\n      div\n      0xff\n      and\n      iszero\n      iszero\n      iszero\n      iszero\n      dup2\n      mstore\n      0x20\n      add\n      0x01\n      dup3\n      add\n      0x01\n      swap1\n      sload\n      swap1\n      0x0100\n      exp\n      swap1\n      div\n      0xff\n      and\n      0x04\n      dup2\n      gt\n      iszero\n      tag_210\n      jumpi\n      tag_211\n      tag_140\n      jump\t// in\n    tag_211:\n    tag_210:\n      0x04\n      dup2\n      gt\n      iszero\n      tag_212\n      jumpi\n      tag_213\n      tag_140\n      jump\t// in\n    tag_213:\n    tag_212:\n      dup2\n      mstore\n      pop\n      pop\n      dup2\n      mstore\n      0x20\n      add\n      swap1\n      0x01\n      add\n      swap1\n      jump(tag_207)\n    tag_208:\n      pop\n      pop\n      pop\n      pop\n      swap1\n      pop\n        /* \"contracts/escrow.sol\":1678:1801  function getjob(uint256 _jobid) public view returns (MileStone [] memory){... */\n      swap2\n      swap1\n      pop\n      jump\t// out\n        /* \"@openzeppelin/contracts/access/Ownable.sol\":2293:2394  function renounceOwnership() public virtual onlyOwner {... */\n    tag_78:\n        /* \"@openzeppelin/contracts/access/Ownable.sol\":1531:1544  _checkOwner() */\n      tag_215\n        /* \"@openzeppelin/contracts/access/Ownable.sol\":1531:1542  _checkOwner */\n      tag_126\n        /* \"@openzeppelin/contracts/access/Ownable.sol\":1531:1544  _checkOwner() */\n      jump\t// in\n    tag_215:\n        /* \"@openzeppelin/contracts/access/Ownable.sol\":2357:2387  _transferOwnership(address(0)) */\n      tag_217\n        /* \"@openzeppelin/contracts/access/Ownable.sol\":2384:2385  0 */\n      0x00\n        /* \"@openzeppelin/contracts/access/Ownable.sol\":2357:2375  _transferOwnership */\n      tag_218\n        /* \"@openzeppelin/contracts/access/Ownable.sol\":2357:2387  _transferOwnership(address(0)) */\n      jump\t// in\n    tag_217:\n        /* \"@openzeppelin/contracts/access/Ownable.sol\":2293:2394  function renounceOwnership() public virtual onlyOwner {... */\n      jump\t// out\n        /* \"contracts/escrow.sol\":5212:5999  function resolveDispute(uint256 _jobId,uint256 _milestoneId, bool approve, string calldata _outcome) external onlyRole(RESOLVER){... */\n    tag_82:\n        /* \"contracts/escrow.sol\":477:498  keccak256('RESOLVER') */\n      0x17a55417373800620b4c2ceaa9f76c02df2e2dd329b9cb9a7cf849712c108f6f\n        /* \"@openzeppelin/contracts/access/AccessControl.sol\":2464:2480  _checkRole(role) */\n      tag_220\n        /* \"@openzeppelin/contracts/access/AccessControl.sol\":2475:2479  role */\n      dup2\n        /* \"@openzeppelin/contracts/access/AccessControl.sol\":2464:2474  _checkRole */\n      tag_194\n        /* \"@openzeppelin/contracts/access/AccessControl.sol\":2464:2480  _checkRole(role) */\n      jump\t// in\n    tag_220:\n        /* \"contracts/escrow.sol\":5351:5371  MileStone storage _m */\n      0x00\n        /* \"contracts/escrow.sol\":5374:5378  jobs */\n      0x03\n        /* \"contracts/escrow.sol\":5374:5386  jobs[_jobId] */\n      0x00\n        /* \"contracts/escrow.sol\":5379:5385  _jobId */\n      dup9\n        /* \"contracts/escrow.sol\":5374:5386  jobs[_jobId] */\n      dup2\n      mstore\n      0x20\n      add\n      swap1\n      dup2\n      mstore\n      0x20\n      add\n      0x00\n      keccak256\n        /* \"contracts/escrow.sol\":5374:5397  jobs[_jobId].milestones */\n      0x03\n      add\n        /* \"contracts/escrow.sol\":5398:5410  _milestoneId */\n      dup7\n        /* \"contracts/escrow.sol\":5374:5411  jobs[_jobId].milestones[_milestoneId] */\n      dup2\n      sload\n      dup2\n      lt\n      tag_222\n      jumpi\n      tag_223\n      tag_136\n      jump\t// in\n    tag_223:\n    tag_222:\n      swap1\n      0x00\n      mstore\n      keccak256(0x00, 0x20)\n      swap1\n      0x02\n      mul\n      add\n        /* \"contracts/escrow.sol\":5351:5411  MileStone storage _m = jobs[_jobId].milestones[_milestoneId] */\n      swap1\n      pop\n        /* \"contracts/escrow.sol\":5422:5447  Disputes storage _dispute */\n      0x00\n        /* \"contracts/escrow.sol\":5450:5458  disputes */\n      0x05\n        /* \"contracts/escrow.sol\":5450:5466  disputes[_jobId] */\n      0x00\n        /* \"contracts/escrow.sol\":5459:5465  _jobId */\n      dup10\n        /* \"contracts/escrow.sol\":5450:5466  disputes[_jobId] */\n      dup2\n      mstore\n      0x20\n      add\n      swap1\n      dup2\n      mstore\n      0x20\n      add\n      0x00\n      keccak256\n        /* \"contracts/escrow.sol\":5450:5480  disputes[_jobId][_milestoneId] */\n      0x00\n        /* \"contracts/escrow.sol\":5467:5479  _milestoneId */\n      dup9\n        /* \"contracts/escrow.sol\":5450:5480  disputes[_jobId][_milestoneId] */\n      dup2\n      mstore\n      0x20\n      add\n      swap1\n      dup2\n      mstore\n      0x20\n      add\n      0x00\n      keccak256\n        /* \"contracts/escrow.sol\":5422:5480  Disputes storage _dispute = disputes[_jobId][_milestoneId] */\n      swap1\n      pop\n        /* \"contracts/escrow.sol\":5518:5542  MileStoneStatus.Disputed */\n      0x03\n        /* \"contracts/escrow.sol\":5496:5542  _m.mileStoneStatus != MileStoneStatus.Disputed */\n      0x04\n      dup2\n      gt\n      iszero\n      tag_225\n      jumpi\n      tag_226\n      tag_140\n      jump\t// in\n    tag_226:\n    tag_225:\n        /* \"contracts/escrow.sol\":5496:5498  _m */\n      dup3\n        /* \"contracts/escrow.sol\":5496:5514  _m.mileStoneStatus */\n      0x01\n      add\n      0x01\n      swap1\n      sload\n      swap1\n      0x0100\n      exp\n      swap1\n      div\n      0xff\n      and\n        /* \"contracts/escrow.sol\":5496:5542  _m.mileStoneStatus != MileStoneStatus.Disputed */\n      0x04\n      dup2\n      gt\n      iszero\n      tag_227\n      jumpi\n      tag_228\n      tag_140\n      jump\t// in\n    tag_228:\n    tag_227:\n      eq\n        /* \"contracts/escrow.sol\":5493:5573  if(_m.mileStoneStatus != MileStoneStatus.Disputed) revert MileStoneNotDisputed() */\n      tag_229\n      jumpi\n        /* \"contracts/escrow.sol\":5551:5573  MileStoneNotDisputed() */\n      mload(0x40)\n      0x261bc65a00000000000000000000000000000000000000000000000000000000\n      dup2\n      mstore\n      0x04\n      add\n      mload(0x40)\n      dup1\n      swap2\n      sub\n      swap1\n      revert\n        /* \"contracts/escrow.sol\":5493:5573  if(_m.mileStoneStatus != MileStoneStatus.Disputed) revert MileStoneNotDisputed() */\n    tag_229:\n        /* \"contracts/escrow.sol\":5606:5610  true */\n      0x01\n        /* \"contracts/escrow.sol\":5586:5594  _dispute */\n      dup2\n        /* \"contracts/escrow.sol\":5586:5603  _dispute.resolved */\n      0x03\n      add\n      0x14\n        /* \"contracts/escrow.sol\":5586:5610  _dispute.resolved = true */\n      0x0100\n      exp\n      dup2\n      sload\n      dup2\n      0xff\n      mul\n      not\n      and\n      swap1\n      dup4\n      iszero\n      iszero\n      mul\n      or\n      swap1\n      sstore\n      pop\n        /* \"contracts/escrow.sol\":5641:5651  msg.sender */\n      caller\n        /* \"contracts/escrow.sol\":5621:5629  _dispute */\n      dup2\n        /* \"contracts/escrow.sol\":5621:5638  _dispute.resolver */\n      0x03\n      add\n      0x00\n        /* \"contracts/escrow.sol\":5621:5651  _dispute.resolver = msg.sender */\n      0x0100\n      exp\n      dup2\n      sload\n      dup2\n      0xffffffffffffffffffffffffffffffffffffffff\n      mul\n      not\n      and\n      swap1\n      dup4\n      0xffffffffffffffffffffffffffffffffffffffff\n      and\n      mul\n      or\n      swap1\n      sstore\n      pop\n        /* \"contracts/escrow.sol\":5681:5689  _outcome */\n      dup5\n      dup5\n        /* \"contracts/escrow.sol\":5662:5670  _dispute */\n      dup3\n        /* \"contracts/escrow.sol\":5662:5678  _dispute.outcome */\n      0x04\n      add\n        /* \"contracts/escrow.sol\":5662:5689  _dispute.outcome = _outcome */\n      swap2\n      dup3\n      tag_230\n      swap3\n      swap2\n      swap1\n      tag_231\n      jump\t// in\n    tag_230:\n      pop\n        /* \"contracts/escrow.sol\":5705:5712  approve */\n      dup6\n        /* \"contracts/escrow.sol\":5702:5990  if(approve){... */\n      iszero\n      tag_232\n      jumpi\n        /* \"contracts/escrow.sol\":5745:5769  MileStoneStatus.Accepted */\n      0x02\n        /* \"contracts/escrow.sol\":5724:5726  _m */\n      dup3\n        /* \"contracts/escrow.sol\":5724:5742  _m.mileStoneStatus */\n      0x01\n      add\n      0x01\n        /* \"contracts/escrow.sol\":5724:5769  _m.mileStoneStatus = MileStoneStatus.Accepted */\n      0x0100\n      exp\n      dup2\n      sload\n      dup2\n      0xff\n      mul\n      not\n      and\n      swap1\n      dup4\n      0x04\n      dup2\n      gt\n      iszero\n      tag_233\n      jumpi\n      tag_234\n      tag_140\n      jump\t// in\n    tag_234:\n    tag_233:\n      mul\n      or\n      swap1\n      sstore\n      pop\n        /* \"contracts/escrow.sol\":5782:5789  i_token */\n      immutable(\"0x759fc1d144333ef3ef5172c8b6bde869faf7a3759a0cfce056d23f6fbfb24c51\")\n        /* \"contracts/escrow.sol\":5782:5798  i_token.transfer */\n      0xffffffffffffffffffffffffffffffffffffffff\n      and\n      0xa9059cbb\n        /* \"contracts/escrow.sol\":5799:5803  jobs */\n      0x03\n        /* \"contracts/escrow.sol\":5799:5811  jobs[_jobId] */\n      0x00\n        /* \"contracts/escrow.sol\":5804:5810  _jobId */\n      dup12\n        /* \"contracts/escrow.sol\":5799:5811  jobs[_jobId] */\n      dup2\n      mstore\n      0x20\n      add\n      swap1\n      dup2\n      mstore\n      0x20\n      add\n      0x00\n      keccak256\n        /* \"contracts/escrow.sol\":5799:5822  jobs[_jobId].freelancer */\n      0x02\n      add\n      0x00\n      swap1\n      sload\n      swap1\n      0x0100\n      exp\n      swap1\n      div\n      0xffffffffffffffffffffffffffffffffffffffff\n      and\n        /* \"contracts/escrow.sol\":5824:5826  _m */\n      dup5\n        /* \"contracts/escrow.sol\":5824:5833  _m.amount */\n      0x00\n      add\n      sload\n        /* \"contracts/escrow.sol\":5782:5834  i_token.transfer(jobs[_jobId].freelancer, _m.amount) */\n      mload(0x40)\n      dup4\n      0xffffffff\n      and\n      0xe0\n      shl\n      dup2\n      mstore\n      0x04\n      add\n      tag_235\n      swap3\n      swap2\n      swap1\n      tag_175\n      jump\t// in\n    tag_235:\n      0x20\n      mload(0x40)\n      dup1\n      dup4\n      sub\n      dup2\n      0x00\n      dup8\n      gas\n      call\n      iszero\n      dup1\n      iszero\n      tag_237\n      jumpi\n      returndatacopy(0x00, 0x00, returndatasize)\n      revert(0x00, returndatasize)\n    tag_237:\n      pop\n      pop\n      pop\n      pop\n      mload(0x40)\n      returndatasize\n      not(0x1f)\n      0x1f\n      dup3\n      add\n      and\n      dup3\n      add\n      dup1\n      0x40\n      mstore\n      pop\n      dup2\n      add\n      swap1\n      tag_238\n      swap2\n      swap1\n      tag_153\n      jump\t// in\n    tag_238:\n      pop\n        /* \"contracts/escrow.sol\":5702:5990  if(approve){... */\n      jump(tag_239)\n    tag_232:\n        /* \"contracts/escrow.sol\":5889:5912  MileStoneStatus.Settled */\n      0x04\n        /* \"contracts/escrow.sol\":5868:5870  _m */\n      dup3\n        /* \"contracts/escrow.sol\":5868:5886  _m.mileStoneStatus */\n      0x01\n      add\n      0x01\n        /* \"contracts/escrow.sol\":5868:5912  _m.mileStoneStatus = MileStoneStatus.Settled */\n      0x0100\n      exp\n      dup2\n      sload\n      dup2\n      0xff\n      mul\n      not\n      and\n      swap1\n      dup4\n      0x04\n      dup2\n      gt\n      iszero\n      tag_240\n      jumpi\n      tag_241\n      tag_140\n      jump\t// in\n    tag_241:\n    tag_240:\n      mul\n      or\n      swap1\n      sstore\n      pop\n        /* \"contracts/escrow.sol\":5927:5934  i_token */\n      immutable(\"0x759fc1d144333ef3ef5172c8b6bde869faf7a3759a0cfce056d23f6fbfb24c51\")\n        /* \"contracts/escrow.sol\":5927:5943  i_token.transfer */\n      0xffffffffffffffffffffffffffffffffffffffff\n      and\n      0xa9059cbb\n        /* \"contracts/escrow.sol\":5944:5948  jobs */\n      0x03\n        /* \"contracts/escrow.sol\":5944:5956  jobs[_jobId] */\n      0x00\n        /* \"contracts/escrow.sol\":5949:5955  _jobId */\n      dup12\n        /* \"contracts/escrow.sol\":5944:5956  jobs[_jobId] */\n      dup2\n      mstore\n      0x20\n      add\n      swap1\n      dup2\n      mstore\n      0x20\n      add\n      0x00\n      keccak256\n        /* \"contracts/escrow.sol\":5944:5964  jobs[_jobId].clients */\n      0x01\n      add\n      0x00\n      swap1\n      sload\n      swap1\n      0x0100\n      exp\n      swap1\n      div\n      0xffffffffffffffffffffffffffffffffffffffff\n      and\n        /* \"contracts/escrow.sol\":5966:5968  _m */\n      dup5\n        /* \"contracts/escrow.sol\":5966:5975  _m.amount */\n      0x00\n      add\n      sload\n        /* \"contracts/escrow.sol\":5927:5976  i_token.transfer(jobs[_jobId].clients, _m.amount) */\n      mload(0x40)\n      dup4\n      0xffffffff\n      and\n      0xe0\n      shl\n      dup2\n      mstore\n      0x04\n      add\n      tag_242\n      swap3\n      swap2\n      swap1\n      tag_175\n      jump\t// in\n    tag_242:\n      0x20\n      mload(0x40)\n      dup1\n      dup4\n      sub\n      dup2\n      0x00\n      dup8\n      gas\n      call\n      iszero\n      dup1\n      iszero\n      tag_244\n      jumpi\n      returndatacopy(0x00, 0x00, returndatasize)\n      revert(0x00, returndatasize)\n    tag_244:\n      pop\n      pop\n      pop\n      pop\n      mload(0x40)\n      returndatasize\n      not(0x1f)\n      0x1f\n      dup3\n      add\n      and\n      dup3\n      add\n      dup1\n      0x40\n      mstore\n      pop\n      dup2\n      add\n      swap1\n      tag_245\n      swap2\n      swap1\n      tag_153\n      jump\t// in\n    tag_245:\n      pop\n        /* \"contracts/escrow.sol\":5702:5990  if(approve){... */\n    tag_239:\n        /* \"contracts/escrow.sol\":5340:5999  {... */\n      pop\n      pop\n        /* \"contracts/escrow.sol\":5212:5999  function resolveDispute(uint256 _jobId,uint256 _milestoneId, bool approve, string calldata _outcome) external onlyRole(RESOLVER){... */\n      pop\n      pop\n      pop\n      pop\n      pop\n      pop\n      jump\t// out\n        /* \"@openzeppelin/contracts/access/Ownable.sol\":1638:1723  function owner() public view virtual returns (address) {... */\n    tag_84:\n        /* \"@openzeppelin/contracts/access/Ownable.sol\":1684:1691  address */\n      0x00\n        /* \"@openzeppelin/contracts/access/Ownable.sol\":1710:1716  _owner */\n      0x00\n      0x00\n      swap1\n      sload\n      swap1\n      0x0100\n      exp\n      swap1\n      div\n      0xffffffffffffffffffffffffffffffffffffffff\n      and\n        /* \"@openzeppelin/contracts/access/Ownable.sol\":1703:1716  return _owner */\n      swap1\n      pop\n        /* \"@openzeppelin/contracts/access/Ownable.sol\":1638:1723  function owner() public view virtual returns (address) {... */\n      swap1\n      jump\t// out\n        /* \"@openzeppelin/contracts/access/AccessControl.sol\":2820:2956  function hasRole(bytes32 role, address account) public view virtual returns (bool) {... */\n    tag_89:\n        /* \"@openzeppelin/contracts/access/AccessControl.sol\":2897:2901  bool */\n      0x00\n        /* \"@openzeppelin/contracts/access/AccessControl.sol\":2920:2926  _roles */\n      0x01\n        /* \"@openzeppelin/contracts/access/AccessControl.sol\":2920:2932  _roles[role] */\n      0x00\n        /* \"@openzeppelin/contracts/access/AccessControl.sol\":2927:2931  role */\n      dup5\n        /* \"@openzeppelin/contracts/access/AccessControl.sol\":2920:2932  _roles[role] */\n      dup2\n      mstore\n      0x20\n      add\n      swap1\n      dup2\n      mstore\n      0x20\n      add\n      0x00\n      keccak256\n        /* \"@openzeppelin/contracts/access/AccessControl.sol\":2920:2940  _roles[role].hasRole */\n      0x00\n      add\n        /* \"@openzeppelin/contracts/access/AccessControl.sol\":2920:2949  _roles[role].hasRole[account] */\n      0x00\n        /* \"@openzeppelin/contracts/access/AccessControl.sol\":2941:2948  account */\n      dup4\n        /* \"@openzeppelin/contracts/access/AccessControl.sol\":2920:2949  _roles[role].hasRole[account] */\n      0xffffffffffffffffffffffffffffffffffffffff\n      and\n      0xffffffffffffffffffffffffffffffffffffffff\n      and\n      dup2\n      mstore\n      0x20\n      add\n      swap1\n      dup2\n      mstore\n      0x20\n      add\n      0x00\n      keccak256\n      0x00\n      swap1\n      sload\n      swap1\n      0x0100\n      exp\n      swap1\n      div\n      0xff\n      and\n        /* \"@openzeppelin/contracts/access/AccessControl.sol\":2913:2949  return _roles[role].hasRole[account] */\n      swap1\n      pop\n        /* \"@openzeppelin/contracts/access/AccessControl.sol\":2820:2956  function hasRole(bytes32 role, address account) public view virtual returns (bool) {... */\n      swap3\n      swap2\n      pop\n      pop\n      jump\t// out\n        /* \"contracts/escrow.sol\":373:404  IERC20 public immutable i_token */\n    tag_92:\n      immutable(\"0x759fc1d144333ef3ef5172c8b6bde869faf7a3759a0cfce056d23f6fbfb24c51\")\n      dup2\n      jump\t// out\n        /* \"@openzeppelin/contracts/access/AccessControl.sol\":2187:2236  bytes32 public constant DEFAULT_ADMIN_ROLE = 0x00 */\n    tag_96:\n        /* \"@openzeppelin/contracts/access/AccessControl.sol\":2232:2236  0x00 */\n      0x00\n        /* \"@openzeppelin/contracts/access/AccessControl.sol\":2187:2236  bytes32 public constant DEFAULT_ADMIN_ROLE = 0x00 */\n      0x00\n      shl\n      dup2\n      jump\t// out\n        /* \"contracts/escrow.sol\":3286:3882  function submitMilestone(uint256 _jobId, uint256 _milestoneId, address _freelancer) external onlyFreelancer(_jobId) {... */\n    tag_101:\n        /* \"contracts/escrow.sol\":3394:3400  _jobId */\n      dup3\n        /* \"contracts/escrow.sol\":1607:1611  jobs */\n      0x03\n        /* \"contracts/escrow.sol\":1607:1615  jobs[id] */\n      0x00\n        /* \"contracts/escrow.sol\":1612:1614  id */\n      dup3\n        /* \"contracts/escrow.sol\":1607:1615  jobs[id] */\n      dup2\n      mstore\n      0x20\n      add\n      swap1\n      dup2\n      mstore\n      0x20\n      add\n      0x00\n      keccak256\n        /* \"contracts/escrow.sol\":1607:1626  jobs[id].freelancer */\n      0x02\n      add\n      0x00\n      swap1\n      sload\n      swap1\n      0x0100\n      exp\n      swap1\n      div\n      0xffffffffffffffffffffffffffffffffffffffff\n      and\n        /* \"contracts/escrow.sol\":1593:1626  msg.sender != jobs[id].freelancer */\n      0xffffffffffffffffffffffffffffffffffffffff\n      and\n        /* \"contracts/escrow.sol\":1593:1603  msg.sender */\n      caller\n        /* \"contracts/escrow.sol\":1593:1626  msg.sender != jobs[id].freelancer */\n      0xffffffffffffffffffffffffffffffffffffffff\n      and\n      eq\n        /* \"contracts/escrow.sol\":1590:1650  if(msg.sender != jobs[id].freelancer) revert NotFreelancer() */\n      tag_249\n      jumpi\n        /* \"contracts/escrow.sol\":1635:1650  NotFreelancer() */\n      mload(0x40)\n      0x706470d200000000000000000000000000000000000000000000000000000000\n      dup2\n      mstore\n      0x04\n      add\n      mload(0x40)\n      dup1\n      swap2\n      sub\n      swap1\n      revert\n        /* \"contracts/escrow.sol\":1590:1650  if(msg.sender != jobs[id].freelancer) revert NotFreelancer() */\n    tag_249:\n        /* \"contracts/escrow.sol\":3413:3429  Job storage _job */\n      0x00\n        /* \"contracts/escrow.sol\":3432:3436  jobs */\n      0x03\n        /* \"contracts/escrow.sol\":3432:3444  jobs[_jobId] */\n      0x00\n        /* \"contracts/escrow.sol\":3437:3443  _jobId */\n      dup7\n        /* \"contracts/escrow.sol\":3432:3444  jobs[_jobId] */\n      dup2\n      mstore\n      0x20\n      add\n      swap1\n      dup2\n      mstore\n      0x20\n      add\n      0x00\n      keccak256\n        /* \"contracts/escrow.sol\":3413:3444  Job storage _job = jobs[_jobId] */\n      swap1\n      pop\n        /* \"contracts/escrow.sol\":3483:3484  0 */\n      0x00\n        /* \"contracts/escrow.sol\":3460:3485  _freelancer == address(0) */\n      0xffffffffffffffffffffffffffffffffffffffff\n      and\n        /* \"contracts/escrow.sol\":3460:3471  _freelancer */\n      dup4\n        /* \"contracts/escrow.sol\":3460:3485  _freelancer == address(0) */\n      0xffffffffffffffffffffffffffffffffffffffff\n      and\n      sub\n        /* \"contracts/escrow.sol\":3457:3512  if(_freelancer == address(0)) revert ZeroAddressError() */\n      tag_251\n      jumpi\n        /* \"contracts/escrow.sol\":3494:3512  ZeroAddressError() */\n      mload(0x40)\n      0x3efa09af00000000000000000000000000000000000000000000000000000000\n      dup2\n      mstore\n      0x04\n      add\n      mload(0x40)\n      dup1\n      swap2\n      sub\n      swap1\n      revert\n        /* \"contracts/escrow.sol\":3457:3512  if(_freelancer == address(0)) revert ZeroAddressError() */\n    tag_251:\n        /* \"contracts/escrow.sol\":3545:3556  _freelancer */\n      dup3\n        /* \"contracts/escrow.sol\":3526:3556  _job.freelancer != _freelancer */\n      0xffffffffffffffffffffffffffffffffffffffff\n      and\n        /* \"contracts/escrow.sol\":3526:3530  _job */\n      dup2\n        /* \"contracts/escrow.sol\":3526:3541  _job.freelancer */\n      0x02\n      add\n      0x00\n      swap1\n      sload\n      swap1\n      0x0100\n      exp\n      swap1\n      div\n      0xffffffffffffffffffffffffffffffffffffffff\n      and\n        /* \"contracts/escrow.sol\":3526:3556  _job.freelancer != _freelancer */\n      0xffffffffffffffffffffffffffffffffffffffff\n      and\n      eq\n        /* \"contracts/escrow.sol\":3523:3584  if(_job.freelancer != _freelancer) revert InvalidFreelancer() */\n      tag_252\n      jumpi\n        /* \"contracts/escrow.sol\":3565:3584  InvalidFreelancer() */\n      mload(0x40)\n      0x75aee32600000000000000000000000000000000000000000000000000000000\n      dup2\n      mstore\n      0x04\n      add\n      mload(0x40)\n      dup1\n      swap2\n      sub\n      swap1\n      revert\n        /* \"contracts/escrow.sol\":3523:3584  if(_job.freelancer != _freelancer) revert InvalidFreelancer() */\n    tag_252:\n        /* \"contracts/escrow.sol\":3613:3617  _job */\n      dup1\n        /* \"contracts/escrow.sol\":3613:3628  _job.milestones */\n      0x03\n      add\n        /* \"contracts/escrow.sol\":3613:3635  _job.milestones.length */\n      dup1\n      sload\n      swap1\n      pop\n        /* \"contracts/escrow.sol\":3598:3610  _milestoneId */\n      dup5\n        /* \"contracts/escrow.sol\":3598:3635  _milestoneId > _job.milestones.length */\n      gt\n        /* \"contracts/escrow.sol\":3595:3658  if(_milestoneId > _job.milestones.length) revert InvalidIndex() */\n      iszero\n      tag_253\n      jumpi\n        /* \"contracts/escrow.sol\":3644:3658  InvalidIndex() */\n      mload(0x40)\n      0x63df817100000000000000000000000000000000000000000000000000000000\n      dup2\n      mstore\n      0x04\n      add\n      mload(0x40)\n      dup1\n      swap2\n      sub\n      swap1\n      revert\n        /* \"contracts/escrow.sol\":3595:3658  if(_milestoneId > _job.milestones.length) revert InvalidIndex() */\n    tag_253:\n        /* \"contracts/escrow.sol\":3671:3691  MileStone storage _m */\n      0x00\n        /* \"contracts/escrow.sol\":3694:3698  _job */\n      dup2\n        /* \"contracts/escrow.sol\":3694:3709  _job.milestones */\n      0x03\n      add\n        /* \"contracts/escrow.sol\":3710:3722  _milestoneId */\n      dup6\n        /* \"contracts/escrow.sol\":3694:3723  _job.milestones[_milestoneId] */\n      dup2\n      sload\n      dup2\n      lt\n      tag_254\n      jumpi\n      tag_255\n      tag_136\n      jump\t// in\n    tag_255:\n    tag_254:\n      swap1\n      0x00\n      mstore\n      keccak256(0x00, 0x20)\n      swap1\n      0x02\n      mul\n      add\n        /* \"contracts/escrow.sol\":3671:3723  MileStone storage _m = _job.milestones[_milestoneId] */\n      swap1\n      pop\n        /* \"contracts/escrow.sol\":3761:3781  MileStoneStatus.Open */\n      0x00\n        /* \"contracts/escrow.sol\":3739:3781  _m.mileStoneStatus != MileStoneStatus.Open */\n      0x04\n      dup2\n      gt\n      iszero\n      tag_257\n      jumpi\n      tag_258\n      tag_140\n      jump\t// in\n    tag_258:\n    tag_257:\n        /* \"contracts/escrow.sol\":3739:3741  _m */\n      dup2\n        /* \"contracts/escrow.sol\":3739:3757  _m.mileStoneStatus */\n      0x01\n      add\n      0x01\n      swap1\n      sload\n      swap1\n      0x0100\n      exp\n      swap1\n      div\n      0xff\n      and\n        /* \"contracts/escrow.sol\":3739:3781  _m.mileStoneStatus != MileStoneStatus.Open */\n      0x04\n      dup2\n      gt\n      iszero\n      tag_259\n      jumpi\n      tag_260\n      tag_140\n      jump\t// in\n    tag_260:\n    tag_259:\n      eq\n        /* \"contracts/escrow.sol\":3736:3814  if(_m.mileStoneStatus != MileStoneStatus.Open) revert InvalidMileStoneStatus() */\n      tag_261\n      jumpi\n        /* \"contracts/escrow.sol\":3790:3814  InvalidMileStoneStatus() */\n      mload(0x40)\n      0x50da79dd00000000000000000000000000000000000000000000000000000000\n      dup2\n      mstore\n      0x04\n      add\n      mload(0x40)\n      dup1\n      swap2\n      sub\n      swap1\n      revert\n        /* \"contracts/escrow.sol\":3736:3814  if(_m.mileStoneStatus != MileStoneStatus.Open) revert InvalidMileStoneStatus() */\n    tag_261:\n        /* \"contracts/escrow.sol\":3848:3872  MileStoneStatus.InReview */\n      0x01\n        /* \"contracts/escrow.sol\":3827:3829  _m */\n      dup2\n        /* \"contracts/escrow.sol\":3827:3845  _m.mileStoneStatus */\n      0x01\n      add\n      0x01\n        /* \"contracts/escrow.sol\":3827:3872  _m.mileStoneStatus = MileStoneStatus.InReview */\n      0x0100\n      exp\n      dup2\n      sload\n      dup2\n      0xff\n      mul\n      not\n      and\n      swap1\n      dup4\n      0x04\n      dup2\n      gt\n      iszero\n      tag_262\n      jumpi\n      tag_263\n      tag_140\n      jump\t// in\n    tag_263:\n    tag_262:\n      mul\n      or\n      swap1\n      sstore\n      pop\n        /* \"contracts/escrow.sol\":3402:3882  {... */\n      pop\n      pop\n        /* \"contracts/escrow.sol\":3286:3882  function submitMilestone(uint256 _jobId, uint256 _milestoneId, address _freelancer) external onlyFreelancer(_jobId) {... */\n      pop\n      pop\n      pop\n      pop\n      jump\t// out\n        /* \"contracts/escrow.sol\":4403:5202  function raiseDispute(uint256 _jobId,uint256 _milestoneId, string calldata _reason) external{... */\n    tag_105:\n        /* \"contracts/escrow.sol\":4506:4522  Job storage _job */\n      0x00\n        /* \"contracts/escrow.sol\":4525:4529  jobs */\n      0x03\n        /* \"contracts/escrow.sol\":4525:4537  jobs[_jobId] */\n      0x00\n        /* \"contracts/escrow.sol\":4530:4536  _jobId */\n      dup7\n        /* \"contracts/escrow.sol\":4525:4537  jobs[_jobId] */\n      dup2\n      mstore\n      0x20\n      add\n      swap1\n      dup2\n      mstore\n      0x20\n      add\n      0x00\n      keccak256\n        /* \"contracts/escrow.sol\":4506:4537  Job storage _job = jobs[_jobId] */\n      swap1\n      pop\n        /* \"contracts/escrow.sol\":4566:4570  _job */\n      dup1\n        /* \"contracts/escrow.sol\":4566:4581  _job.milestones */\n      0x03\n      add\n        /* \"contracts/escrow.sol\":4566:4588  _job.milestones.length */\n      dup1\n      sload\n      swap1\n      pop\n        /* \"contracts/escrow.sol\":4551:4563  _milestoneId */\n      dup5\n        /* \"contracts/escrow.sol\":4551:4588  _milestoneId > _job.milestones.length */\n      gt\n        /* \"contracts/escrow.sol\":4548:4611  if(_milestoneId > _job.milestones.length) revert InvalidIndex() */\n      iszero\n      tag_265\n      jumpi\n        /* \"contracts/escrow.sol\":4597:4611  InvalidIndex() */\n      mload(0x40)\n      0x63df817100000000000000000000000000000000000000000000000000000000\n      dup2\n      mstore\n      0x04\n      add\n      mload(0x40)\n      dup1\n      swap2\n      sub\n      swap1\n      revert\n        /* \"contracts/escrow.sol\":4548:4611  if(_milestoneId > _job.milestones.length) revert InvalidIndex() */\n    tag_265:\n        /* \"contracts/escrow.sol\":4624:4644  MileStone storage _m */\n      0x00\n        /* \"contracts/escrow.sol\":4647:4651  _job */\n      dup2\n        /* \"contracts/escrow.sol\":4647:4662  _job.milestones */\n      0x03\n      add\n        /* \"contracts/escrow.sol\":4663:4675  _milestoneId */\n      dup6\n        /* \"contracts/escrow.sol\":4647:4676  _job.milestones[_milestoneId] */\n      dup2\n      sload\n      dup2\n      lt\n      tag_266\n      jumpi\n      tag_267\n      tag_136\n      jump\t// in\n    tag_267:\n    tag_266:\n      swap1\n      0x00\n      mstore\n      keccak256(0x00, 0x20)\n      swap1\n      0x02\n      mul\n      add\n        /* \"contracts/escrow.sol\":4624:4676  MileStone storage _m = _job.milestones[_milestoneId] */\n      swap1\n      pop\n        /* \"contracts/escrow.sol\":4706:4710  _job */\n      dup2\n        /* \"contracts/escrow.sol\":4706:4718  _job.clients */\n      0x01\n      add\n      0x00\n      swap1\n      sload\n      swap1\n      0x0100\n      exp\n      swap1\n      div\n      0xffffffffffffffffffffffffffffffffffffffff\n      and\n        /* \"contracts/escrow.sol\":4692:4718  msg.sender != _job.clients */\n      0xffffffffffffffffffffffffffffffffffffffff\n      and\n        /* \"contracts/escrow.sol\":4692:4702  msg.sender */\n      caller\n        /* \"contracts/escrow.sol\":4692:4718  msg.sender != _job.clients */\n      0xffffffffffffffffffffffffffffffffffffffff\n      and\n      eq\n      iszero\n        /* \"contracts/escrow.sol\":4692:4751  msg.sender != _job.clients && msg.sender != _job.freelancer */\n      dup1\n      iszero\n      tag_269\n      jumpi\n      pop\n        /* \"contracts/escrow.sol\":4736:4740  _job */\n      dup2\n        /* \"contracts/escrow.sol\":4736:4751  _job.freelancer */\n      0x02\n      add\n      0x00\n      swap1\n      sload\n      swap1\n      0x0100\n      exp\n      swap1\n      div\n      0xffffffffffffffffffffffffffffffffffffffff\n      and\n        /* \"contracts/escrow.sol\":4722:4751  msg.sender != _job.freelancer */\n      0xffffffffffffffffffffffffffffffffffffffff\n      and\n        /* \"contracts/escrow.sol\":4722:4732  msg.sender */\n      caller\n        /* \"contracts/escrow.sol\":4722:4751  msg.sender != _job.freelancer */\n      0xffffffffffffffffffffffffffffffffffffffff\n      and\n      eq\n      iszero\n        /* \"contracts/escrow.sol\":4692:4751  msg.sender != _job.clients && msg.sender != _job.freelancer */\n    tag_269:\n        /* \"contracts/escrow.sol\":4689:4776  if(msg.sender != _job.clients && msg.sender != _job.freelancer) revert NotParticipant() */\n      iszero\n      tag_270\n      jumpi\n        /* \"contracts/escrow.sol\":4760:4776  NotParticipant() */\n      mload(0x40)\n      0xe438f8ce00000000000000000000000000000000000000000000000000000000\n      dup2\n      mstore\n      0x04\n      add\n      mload(0x40)\n      dup1\n      swap2\n      sub\n      swap1\n      revert\n        /* \"contracts/escrow.sol\":4689:4776  if(msg.sender != _job.clients && msg.sender != _job.freelancer) revert NotParticipant() */\n    tag_270:\n        /* \"contracts/escrow.sol\":4812:4836  MileStoneStatus.InReview */\n      0x01\n        /* \"contracts/escrow.sol\":4790:4836  _m.mileStoneStatus != MileStoneStatus.InReview */\n      0x04\n      dup2\n      gt\n      iszero\n      tag_271\n      jumpi\n      tag_272\n      tag_140\n      jump\t// in\n    tag_272:\n    tag_271:\n        /* \"contracts/escrow.sol\":4790:4792  _m */\n      dup2\n        /* \"contracts/escrow.sol\":4790:4808  _m.mileStoneStatus */\n      0x01\n      add\n      0x01\n      swap1\n      sload\n      swap1\n      0x0100\n      exp\n      swap1\n      div\n      0xff\n      and\n        /* \"contracts/escrow.sol\":4790:4836  _m.mileStoneStatus != MileStoneStatus.InReview */\n      0x04\n      dup2\n      gt\n      iszero\n      tag_273\n      jumpi\n      tag_274\n      tag_140\n      jump\t// in\n    tag_274:\n    tag_273:\n      eq\n        /* \"contracts/escrow.sol\":4787:4867  if(_m.mileStoneStatus != MileStoneStatus.InReview) revert MileStoneNotInReview() */\n      tag_275\n      jumpi\n        /* \"contracts/escrow.sol\":4845:4867  MileStoneNotInReview() */\n      mload(0x40)\n      0xccd90cc400000000000000000000000000000000000000000000000000000000\n      dup2\n      mstore\n      0x04\n      add\n      mload(0x40)\n      dup1\n      swap2\n      sub\n      swap1\n      revert\n        /* \"contracts/escrow.sol\":4787:4867  if(_m.mileStoneStatus != MileStoneStatus.InReview) revert MileStoneNotInReview() */\n    tag_275:\n        /* \"contracts/escrow.sol\":4901:4925  MileStoneStatus.Disputed */\n      0x03\n        /* \"contracts/escrow.sol\":4880:4882  _m */\n      dup2\n        /* \"contracts/escrow.sol\":4880:4898  _m.mileStoneStatus */\n      0x01\n      add\n      0x01\n        /* \"contracts/escrow.sol\":4880:4925  _m.mileStoneStatus = MileStoneStatus.Disputed */\n      0x0100\n      exp\n      dup2\n      sload\n      dup2\n      0xff\n      mul\n      not\n      and\n      swap1\n      dup4\n      0x04\n      dup2\n      gt\n      iszero\n      tag_276\n      jumpi\n      tag_277\n      tag_140\n      jump\t// in\n    tag_277:\n    tag_276:\n      mul\n      or\n      swap1\n      sstore\n      pop\n        /* \"contracts/escrow.sol\":4977:5194  Disputes({... */\n      mload(0x40)\n      dup1\n      0xc0\n      add\n      0x40\n      mstore\n      dup1\n        /* \"contracts/escrow.sol\":5014:5026  _milestoneId */\n      dup7\n        /* \"contracts/escrow.sol\":4977:5194  Disputes({... */\n      dup2\n      mstore\n      0x20\n      add\n        /* \"contracts/escrow.sol\":5051:5061  msg.sender */\n      caller\n        /* \"contracts/escrow.sol\":4977:5194  Disputes({... */\n      0xffffffffffffffffffffffffffffffffffffffff\n      and\n      dup2\n      mstore\n      0x20\n      add\n        /* \"contracts/escrow.sol\":5084:5091  _reason */\n      dup6\n      dup6\n        /* \"contracts/escrow.sol\":4977:5194  Disputes({... */\n      dup1\n      dup1\n      0x1f\n      add\n      0x20\n      dup1\n      swap2\n      div\n      mul\n      0x20\n      add\n      mload(0x40)\n      swap1\n      dup2\n      add\n      0x40\n      mstore\n      dup1\n      swap4\n      swap3\n      swap2\n      swap1\n      dup2\n      dup2\n      mstore\n      0x20\n      add\n      dup4\n      dup4\n      dup1\n      dup3\n      dup5\n      calldatacopy\n      0x00\n      dup2\n      dup5\n      add\n      mstore\n      not(0x1f)\n      0x1f\n      dup3\n      add\n      and\n      swap1\n      pop\n      dup1\n      dup4\n      add\n      swap3\n      pop\n      pop\n      pop\n      pop\n      pop\n      pop\n      pop\n      dup2\n      mstore\n      0x20\n      add\n        /* \"contracts/escrow.sol\":5124:5125  0 */\n      0x00\n        /* \"contracts/escrow.sol\":4977:5194  Disputes({... */\n      0xffffffffffffffffffffffffffffffffffffffff\n      and\n      dup2\n      mstore\n      0x20\n      add\n        /* \"contracts/escrow.sol\":5151:5156  false */\n      0x00\n        /* \"contracts/escrow.sol\":4977:5194  Disputes({... */\n      iszero\n      iszero\n      dup2\n      mstore\n      0x20\n      add\n      mload(0x40)\n      dup1\n      0x20\n      add\n      0x40\n      mstore\n      dup1\n      0x00\n      dup2\n      mstore\n      pop\n      dup2\n      mstore\n      pop\n        /* \"contracts/escrow.sol\":4944:4952  disputes */\n      0x05\n        /* \"contracts/escrow.sol\":4944:4960  disputes[_jobId] */\n      0x00\n        /* \"contracts/escrow.sol\":4953:4959  _jobId */\n      dup9\n        /* \"contracts/escrow.sol\":4944:4960  disputes[_jobId] */\n      dup2\n      mstore\n      0x20\n      add\n      swap1\n      dup2\n      mstore\n      0x20\n      add\n      0x00\n      keccak256\n        /* \"contracts/escrow.sol\":4944:4974  disputes[_jobId][_milestoneId] */\n      0x00\n        /* \"contracts/escrow.sol\":4961:4973  _milestoneId */\n      dup8\n        /* \"contracts/escrow.sol\":4944:4974  disputes[_jobId][_milestoneId] */\n      dup2\n      mstore\n      0x20\n      add\n      swap1\n      dup2\n      mstore\n      0x20\n      add\n      0x00\n      keccak256\n        /* \"contracts/escrow.sol\":4944:5194  disputes[_jobId][_milestoneId] = Disputes({... */\n      0x00\n      dup3\n      add\n      mload\n      dup2\n      0x00\n      add\n      sstore\n      0x20\n      dup3\n      add\n      mload\n      dup2\n      0x01\n      add\n      exp(0x0100, 0x00)\n      dup2\n      sload\n      dup2\n      0xffffffffffffffffffffffffffffffffffffffff\n      mul\n      not\n      and\n      swap1\n      dup4\n      0xffffffffffffffffffffffffffffffffffffffff\n      and\n      mul\n      or\n      swap1\n      sstore\n      pop\n      0x40\n      dup3\n      add\n      mload\n      dup2\n      0x02\n      add\n      swap1\n      dup2\n      tag_278\n      swap2\n      swap1\n      tag_279\n      jump\t// in\n    tag_278:\n      pop\n      0x60\n      dup3\n      add\n      mload\n      dup2\n      0x03\n      add\n      exp(0x0100, 0x00)\n      dup2\n      sload\n      dup2\n      0xffffffffffffffffffffffffffffffffffffffff\n      mul\n      not\n      and\n      swap1\n      dup4\n      0xffffffffffffffffffffffffffffffffffffffff\n      and\n      mul\n      or\n      swap1\n      sstore\n      pop\n      0x80\n      dup3\n      add\n      mload\n      dup2\n      0x03\n      add\n      exp(0x0100, 0x14)\n      dup2\n      sload\n      dup2\n      0xff\n      mul\n      not\n      and\n      swap1\n      dup4\n      iszero\n      iszero\n      mul\n      or\n      swap1\n      sstore\n      pop\n      0xa0\n      dup3\n      add\n      mload\n      dup2\n      0x04\n      add\n      swap1\n      dup2\n      tag_280\n      swap2\n      swap1\n      tag_279\n      jump\t// in\n    tag_280:\n      pop\n      swap1\n      pop\n      pop\n        /* \"contracts/escrow.sol\":4495:5202  {... */\n      pop\n      pop\n        /* \"contracts/escrow.sol\":4403:5202  function raiseDispute(uint256 _jobId,uint256 _milestoneId, string calldata _reason) external{... */\n      pop\n      pop\n      pop\n      pop\n      jump\t// out\n        /* \"contracts/escrow.sol\":411:431  uint256 public jobId */\n    tag_107:\n      sload(0x02)\n      dup2\n      jump\t// out\n        /* \"@openzeppelin/contracts/access/AccessControl.sol\":4608:4746  function revokeRole(bytes32 role, address account) public virtual onlyRole(getRoleAdmin(role)) {... */\n    tag_111:\n        /* \"@openzeppelin/contracts/access/AccessControl.sol\":4683:4701  getRoleAdmin(role) */\n      tag_281\n        /* \"@openzeppelin/contracts/access/AccessControl.sol\":4696:4700  role */\n      dup3\n        /* \"@openzeppelin/contracts/access/AccessControl.sol\":4683:4695  getRoleAdmin */\n      tag_51\n        /* \"@openzeppelin/contracts/access/AccessControl.sol\":4683:4701  getRoleAdmin(role) */\n      jump\t// in\n    tag_281:\n        /* \"@openzeppelin/contracts/access/AccessControl.sol\":2464:2480  _checkRole(role) */\n      tag_283\n        /* \"@openzeppelin/contracts/access/AccessControl.sol\":2475:2479  role */\n      dup2\n        /* \"@openzeppelin/contracts/access/AccessControl.sol\":2464:2474  _checkRole */\n      tag_194\n        /* \"@openzeppelin/contracts/access/AccessControl.sol\":2464:2480  _checkRole(role) */\n      jump\t// in\n    tag_283:\n        /* \"@openzeppelin/contracts/access/AccessControl.sol\":4713:4739  _revokeRole(role, account) */\n      tag_285\n        /* \"@openzeppelin/contracts/access/AccessControl.sol\":4725:4729  role */\n      dup4\n        /* \"@openzeppelin/contracts/access/AccessControl.sol\":4731:4738  account */\n      dup4\n        /* \"@openzeppelin/contracts/access/AccessControl.sol\":4713:4724  _revokeRole */\n      tag_203\n        /* \"@openzeppelin/contracts/access/AccessControl.sol\":4713:4739  _revokeRole(role, account) */\n      jump\t// in\n    tag_285:\n      pop\n        /* \"@openzeppelin/contracts/access/AccessControl.sol\":4608:4746  function revokeRole(bytes32 role, address account) public virtual onlyRole(getRoleAdmin(role)) {... */\n      pop\n      pop\n      pop\n      jump\t// out\n        /* \"contracts/escrow.sol\":2908:3278  function acceptJob(uint256 id, address _freelancer ) external onlyFreelancer(id) {... */\n    tag_115:\n        /* \"contracts/escrow.sol\":2985:2987  id */\n      dup2\n        /* \"contracts/escrow.sol\":1607:1611  jobs */\n      0x03\n        /* \"contracts/escrow.sol\":1607:1615  jobs[id] */\n      0x00\n        /* \"contracts/escrow.sol\":1612:1614  id */\n      dup3\n        /* \"contracts/escrow.sol\":1607:1615  jobs[id] */\n      dup2\n      mstore\n      0x20\n      add\n      swap1\n      dup2\n      mstore\n      0x20\n      add\n      0x00\n      keccak256\n        /* \"contracts/escrow.sol\":1607:1626  jobs[id].freelancer */\n      0x02\n      add\n      0x00\n      swap1\n      sload\n      swap1\n      0x0100\n      exp\n      swap1\n      div\n      0xffffffffffffffffffffffffffffffffffffffff\n      and\n        /* \"contracts/escrow.sol\":1593:1626  msg.sender != jobs[id].freelancer */\n      0xffffffffffffffffffffffffffffffffffffffff\n      and\n        /* \"contracts/escrow.sol\":1593:1603  msg.sender */\n      caller\n        /* \"contracts/escrow.sol\":1593:1626  msg.sender != jobs[id].freelancer */\n      0xffffffffffffffffffffffffffffffffffffffff\n      and\n      eq\n        /* \"contracts/escrow.sol\":1590:1650  if(msg.sender != jobs[id].freelancer) revert NotFreelancer() */\n      tag_287\n      jumpi\n        /* \"contracts/escrow.sol\":1635:1650  NotFreelancer() */\n      mload(0x40)\n      0x706470d200000000000000000000000000000000000000000000000000000000\n      dup2\n      mstore\n      0x04\n      add\n      mload(0x40)\n      dup1\n      swap2\n      sub\n      swap1\n      revert\n        /* \"contracts/escrow.sol\":1590:1650  if(msg.sender != jobs[id].freelancer) revert NotFreelancer() */\n    tag_287:\n        /* \"contracts/escrow.sol\":3000:3016  Job storage _job */\n      0x00\n        /* \"contracts/escrow.sol\":3019:3023  jobs */\n      0x03\n        /* \"contracts/escrow.sol\":3019:3027  jobs[id] */\n      0x00\n        /* \"contracts/escrow.sol\":3024:3026  id */\n      dup6\n        /* \"contracts/escrow.sol\":3019:3027  jobs[id] */\n      dup2\n      mstore\n      0x20\n      add\n      swap1\n      dup2\n      mstore\n      0x20\n      add\n      0x00\n      keccak256\n        /* \"contracts/escrow.sol\":3000:3027  Job storage _job = jobs[id] */\n      swap1\n      pop\n        /* \"contracts/escrow.sol\":3066:3067  0 */\n      0x00\n        /* \"contracts/escrow.sol\":3043:3068  _freelancer == address(0) */\n      0xffffffffffffffffffffffffffffffffffffffff\n      and\n        /* \"contracts/escrow.sol\":3043:3054  _freelancer */\n      dup4\n        /* \"contracts/escrow.sol\":3043:3068  _freelancer == address(0) */\n      0xffffffffffffffffffffffffffffffffffffffff\n      and\n      sub\n        /* \"contracts/escrow.sol\":3040:3095  if(_freelancer == address(0)) revert ZeroAddressError() */\n      tag_289\n      jumpi\n        /* \"contracts/escrow.sol\":3077:3095  ZeroAddressError() */\n      mload(0x40)\n      0x3efa09af00000000000000000000000000000000000000000000000000000000\n      dup2\n      mstore\n      0x04\n      add\n      mload(0x40)\n      dup1\n      swap2\n      sub\n      swap1\n      revert\n        /* \"contracts/escrow.sol\":3040:3095  if(_freelancer == address(0)) revert ZeroAddressError() */\n    tag_289:\n        /* \"contracts/escrow.sol\":3128:3139  _freelancer */\n      dup3\n        /* \"contracts/escrow.sol\":3109:3139  _job.freelancer != _freelancer */\n      0xffffffffffffffffffffffffffffffffffffffff\n      and\n        /* \"contracts/escrow.sol\":3109:3113  _job */\n      dup2\n        /* \"contracts/escrow.sol\":3109:3124  _job.freelancer */\n      0x02\n      add\n      0x00\n      swap1\n      sload\n      swap1\n      0x0100\n      exp\n      swap1\n      div\n      0xffffffffffffffffffffffffffffffffffffffff\n      and\n        /* \"contracts/escrow.sol\":3109:3139  _job.freelancer != _freelancer */\n      0xffffffffffffffffffffffffffffffffffffffff\n      and\n      eq\n        /* \"contracts/escrow.sol\":3106:3167  if(_job.freelancer != _freelancer) revert InvalidFreelancer() */\n      tag_290\n      jumpi\n        /* \"contracts/escrow.sol\":3148:3167  InvalidFreelancer() */\n      mload(0x40)\n      0x75aee32600000000000000000000000000000000000000000000000000000000\n      dup2\n      mstore\n      0x04\n      add\n      mload(0x40)\n      dup1\n      swap2\n      sub\n      swap1\n      revert\n        /* \"contracts/escrow.sol\":3106:3167  if(_job.freelancer != _freelancer) revert InvalidFreelancer() */\n    tag_290:\n        /* \"contracts/escrow.sol\":3196:3207  Status.Open */\n      0x00\n        /* \"contracts/escrow.sol\":3181:3207  _job.status != Status.Open */\n      0x03\n      dup2\n      gt\n      iszero\n      tag_291\n      jumpi\n      tag_292\n      tag_140\n      jump\t// in\n    tag_292:\n    tag_291:\n        /* \"contracts/escrow.sol\":3181:3185  _job */\n      dup2\n        /* \"contracts/escrow.sol\":3181:3192  _job.status */\n      0x05\n      add\n      0x00\n      swap1\n      sload\n      swap1\n      0x0100\n      exp\n      swap1\n      div\n      0xff\n      and\n        /* \"contracts/escrow.sol\":3181:3207  _job.status != Status.Open */\n      0x03\n      dup2\n      gt\n      iszero\n      tag_293\n      jumpi\n      tag_294\n      tag_140\n      jump\t// in\n    tag_294:\n    tag_293:\n      eq\n        /* \"contracts/escrow.sol\":3178:3228  if(_job.status != Status.Open) revert JobNotOpen() */\n      tag_295\n      jumpi\n        /* \"contracts/escrow.sol\":3216:3228  JobNotOpen() */\n      mload(0x40)\n      0xd76ebd0f00000000000000000000000000000000000000000000000000000000\n      dup2\n      mstore\n      0x04\n      add\n      mload(0x40)\n      dup1\n      swap2\n      sub\n      swap1\n      revert\n        /* \"contracts/escrow.sol\":3178:3228  if(_job.status != Status.Open) revert JobNotOpen() */\n    tag_295:\n        /* \"contracts/escrow.sol\":3255:3270  Status.Accepted */\n      0x01\n        /* \"contracts/escrow.sol\":3241:3245  _job */\n      dup2\n        /* \"contracts/escrow.sol\":3241:3252  _job.status */\n      0x05\n      add\n      0x00\n        /* \"contracts/escrow.sol\":3241:3270  _job.status = Status.Accepted */\n      0x0100\n      exp\n      dup2\n      sload\n      dup2\n      0xff\n      mul\n      not\n      and\n      swap1\n      dup4\n      0x03\n      dup2\n      gt\n      iszero\n      tag_296\n      jumpi\n      tag_297\n      tag_140\n      jump\t// in\n    tag_297:\n    tag_296:\n      mul\n      or\n      swap1\n      sstore\n      pop\n        /* \"contracts/escrow.sol\":2989:3278  {... */\n      pop\n        /* \"contracts/escrow.sol\":2908:3278  function acceptJob(uint256 id, address _freelancer ) external onlyFreelancer(id) {... */\n      pop\n      pop\n      pop\n      jump\t// out\n        /* \"@openzeppelin/contracts/access/Ownable.sol\":2543:2758  function transferOwnership(address newOwner) public virtual onlyOwner {... */\n    tag_119:\n        /* \"@openzeppelin/contracts/access/Ownable.sol\":1531:1544  _checkOwner() */\n      tag_299\n        /* \"@openzeppelin/contracts/access/Ownable.sol\":1531:1542  _checkOwner */\n      tag_126\n        /* \"@openzeppelin/contracts/access/Ownable.sol\":1531:1544  _checkOwner() */\n      jump\t// in\n    tag_299:\n        /* \"@openzeppelin/contracts/access/Ownable.sol\":2647:2648  0 */\n      0x00\n        /* \"@openzeppelin/contracts/access/Ownable.sol\":2627:2649  newOwner == address(0) */\n      0xffffffffffffffffffffffffffffffffffffffff\n      and\n        /* \"@openzeppelin/contracts/access/Ownable.sol\":2627:2635  newOwner */\n      dup2\n        /* \"@openzeppelin/contracts/access/Ownable.sol\":2627:2649  newOwner == address(0) */\n      0xffffffffffffffffffffffffffffffffffffffff\n      and\n      sub\n        /* \"@openzeppelin/contracts/access/Ownable.sol\":2623:2714  if (newOwner == address(0)) {... */\n      tag_301\n      jumpi\n        /* \"@openzeppelin/contracts/access/Ownable.sol\":2700:2701  0 */\n      0x00\n        /* \"@openzeppelin/contracts/access/Ownable.sol\":2672:2703  OwnableInvalidOwner(address(0)) */\n      mload(0x40)\n      0x1e4fbdf700000000000000000000000000000000000000000000000000000000\n      dup2\n      mstore\n      0x04\n      add\n      tag_302\n      swap2\n      swap1\n      tag_86\n      jump\t// in\n    tag_302:\n      mload(0x40)\n      dup1\n      swap2\n      sub\n      swap1\n      revert\n        /* \"@openzeppelin/contracts/access/Ownable.sol\":2623:2714  if (newOwner == address(0)) {... */\n    tag_301:\n        /* \"@openzeppelin/contracts/access/Ownable.sol\":2723:2751  _transferOwnership(newOwner) */\n      tag_303\n        /* \"@openzeppelin/contracts/access/Ownable.sol\":2742:2750  newOwner */\n      dup2\n        /* \"@openzeppelin/contracts/access/Ownable.sol\":2723:2741  _transferOwnership */\n      tag_218\n        /* \"@openzeppelin/contracts/access/Ownable.sol\":2723:2751  _transferOwnership(newOwner) */\n      jump\t// in\n    tag_303:\n        /* \"@openzeppelin/contracts/access/Ownable.sol\":2543:2758  function transferOwnership(address newOwner) public virtual onlyOwner {... */\n      pop\n      jump\t// out\n        /* \"@openzeppelin/contracts/utils/introspection/ERC165.sol\":730:876  function supportsInterface(bytes4 interfaceId) public view virtual returns (bool) {... */\n    tag_123:\n        /* \"@openzeppelin/contracts/utils/introspection/ERC165.sol\":806:810  bool */\n      0x00\n        /* \"@openzeppelin/contracts/utils/introspection/ERC165.sol\":844:869  type(IERC165).interfaceId */\n      0x01ffc9a700000000000000000000000000000000000000000000000000000000\n        /* \"@openzeppelin/contracts/utils/introspection/ERC165.sol\":829:869  interfaceId == type(IERC165).interfaceId */\n      not(0xffffffffffffffffffffffffffffffffffffffffffffffffffffffff)\n      and\n        /* \"@openzeppelin/contracts/utils/introspection/ERC165.sol\":829:840  interfaceId */\n      dup3\n        /* \"@openzeppelin/contracts/utils/introspection/ERC165.sol\":829:869  interfaceId == type(IERC165).interfaceId */\n      not(0xffffffffffffffffffffffffffffffffffffffffffffffffffffffff)\n      and\n      eq\n        /* \"@openzeppelin/contracts/utils/introspection/ERC165.sol\":822:869  return interfaceId == type(IERC165).interfaceId */\n      swap1\n      pop\n        /* \"@openzeppelin/contracts/utils/introspection/ERC165.sol\":730:876  function supportsInterface(bytes4 interfaceId) public view virtual returns (bool) {... */\n      swap2\n      swap1\n      pop\n      jump\t// out\n        /* \"@openzeppelin/contracts/access/Ownable.sol\":1796:1958  function _checkOwner() internal view virtual {... */\n    tag_126:\n        /* \"@openzeppelin/contracts/access/Ownable.sol\":1866:1878  _msgSender() */\n      tag_306\n        /* \"@openzeppelin/contracts/access/Ownable.sol\":1866:1876  _msgSender */\n      tag_200\n        /* \"@openzeppelin/contracts/access/Ownable.sol\":1866:1878  _msgSender() */\n      jump\t// in\n    tag_306:\n        /* \"@openzeppelin/contracts/access/Ownable.sol\":1855:1878  owner() != _msgSender() */\n      0xffffffffffffffffffffffffffffffffffffffff\n      and\n        /* \"@openzeppelin/contracts/access/Ownable.sol\":1855:1862  owner() */\n      tag_307\n        /* \"@openzeppelin/contracts/access/Ownable.sol\":1855:1860  owner */\n      tag_84\n        /* \"@openzeppelin/contracts/access/Ownable.sol\":1855:1862  owner() */\n      jump\t// in\n    tag_307:\n        /* \"@openzeppelin/contracts/access/Ownable.sol\":1855:1878  owner() != _msgSender() */\n      0xffffffffffffffffffffffffffffffffffffffff\n      and\n      eq\n        /* \"@openzeppelin/contracts/access/Ownable.sol\":1851:1952  if (owner() != _msgSender()) {... */\n      tag_308\n      jumpi\n        /* \"@openzeppelin/contracts/access/Ownable.sol\":1928:1940  _msgSender() */\n      tag_309\n        /* \"@openzeppelin/contracts/access/Ownable.sol\":1928:1938  _msgSender */\n      tag_200\n        /* \"@openzeppelin/contracts/access/Ownable.sol\":1928:1940  _msgSender() */\n      jump\t// in\n    tag_309:\n        /* \"@openzeppelin/contracts/access/Ownable.sol\":1901:1941  OwnableUnauthorizedAccount(_msgSender()) */\n      mload(0x40)\n      0x118cdaa700000000000000000000000000000000000000000000000000000000\n      dup2\n      mstore\n      0x04\n      add\n      tag_310\n      swap2\n      swap1\n      tag_86\n      jump\t// in\n    tag_310:\n      mload(0x40)\n      dup1\n      swap2\n      sub\n      swap1\n      revert\n        /* \"@openzeppelin/contracts/access/Ownable.sol\":1851:1952  if (owner() != _msgSender()) {... */\n    tag_308:\n        /* \"@openzeppelin/contracts/access/Ownable.sol\":1796:1958  function _checkOwner() internal view virtual {... */\n      jump\t// out\n        /* \"contracts/helper.sol\":86:187  function toWei(uint256 amount) internal pure returns (uint256){... */\n    tag_137:\n        /* \"contracts/helper.sol\":140:147  uint256 */\n      0x00\n        /* \"contracts/helper.sol\":175:179  1e18 */\n      0x0de0b6b3a7640000\n        /* \"contracts/helper.sol\":166:172  amount */\n      dup3\n        /* \"contracts/helper.sol\":166:179  amount * 1e18 */\n      tag_312\n      swap2\n      swap1\n      tag_313\n      jump\t// in\n    tag_312:\n        /* \"contracts/helper.sol\":159:179  return amount * 1e18 */\n      swap1\n      pop\n        /* \"contracts/helper.sol\":86:187  function toWei(uint256 amount) internal pure returns (uint256){... */\n      swap2\n      swap1\n      pop\n      jump\t// out\n        /* \"@openzeppelin/contracts/access/AccessControl.sol\":3165:3268  function _checkRole(bytes32 role) internal view virtual {... */\n    tag_194:\n        /* \"@openzeppelin/contracts/access/AccessControl.sol\":3231:3261  _checkRole(role, _msgSender()) */\n      tag_315\n        /* \"@openzeppelin/contracts/access/AccessControl.sol\":3242:3246  role */\n      dup2\n        /* \"@openzeppelin/contracts/access/AccessControl.sol\":3248:3260  _msgSender() */\n      tag_316\n        /* \"@openzeppelin/contracts/access/AccessControl.sol\":3248:3258  _msgSender */\n      tag_200\n        /* \"@openzeppelin/contracts/access/AccessControl.sol\":3248:3260  _msgSender() */\n      jump\t// in\n    tag_316:\n        /* \"@openzeppelin/contracts/access/AccessControl.sol\":3231:3241  _checkRole */\n      tag_317\n        /* \"@openzeppelin/contracts/access/AccessControl.sol\":3231:3261  _checkRole(role, _msgSender()) */\n      jump\t// in\n    tag_315:\n        /* \"@openzeppelin/contracts/access/AccessControl.sol\":3165:3268  function _checkRole(bytes32 role) internal view virtual {... */\n      pop\n      jump\t// out\n        /* \"@openzeppelin/contracts/access/AccessControl.sol\":6145:6461  function _grantRole(bytes32 role, address account) internal virtual returns (bool) {... */\n    tag_197:\n        /* \"@openzeppelin/contracts/access/AccessControl.sol\":6222:6226  bool */\n      0x00\n        /* \"@openzeppelin/contracts/access/AccessControl.sol\":6243:6265  hasRole(role, account) */\n      tag_319\n        /* \"@openzeppelin/contracts/access/AccessControl.sol\":6251:6255  role */\n      dup4\n        /* \"@openzeppelin/contracts/access/AccessControl.sol\":6257:6264  account */\n      dup4\n        /* \"@openzeppelin/contracts/access/AccessControl.sol\":6243:6250  hasRole */\n      tag_89\n        /* \"@openzeppelin/contracts/access/AccessControl.sol\":6243:6265  hasRole(role, account) */\n      jump\t// in\n    tag_319:\n        /* \"@openzeppelin/contracts/access/AccessControl.sol\":6238:6455  if (!hasRole(role, account)) {... */\n      tag_320\n      jumpi\n        /* \"@openzeppelin/contracts/access/AccessControl.sol\":6313:6317  true */\n      0x01\n        /* \"@openzeppelin/contracts/access/AccessControl.sol\":6281:6287  _roles */\n      dup1\n        /* \"@openzeppelin/contracts/access/AccessControl.sol\":6281:6293  _roles[role] */\n      0x00\n        /* \"@openzeppelin/contracts/access/AccessControl.sol\":6288:6292  role */\n      dup6\n        /* \"@openzeppelin/contracts/access/AccessControl.sol\":6281:6293  _roles[role] */\n      dup2\n      mstore\n      0x20\n      add\n      swap1\n      dup2\n      mstore\n      0x20\n      add\n      0x00\n      keccak256\n        /* \"@openzeppelin/contracts/access/AccessControl.sol\":6281:6301  _roles[role].hasRole */\n      0x00\n      add\n        /* \"@openzeppelin/contracts/access/AccessControl.sol\":6281:6310  _roles[role].hasRole[account] */\n      0x00\n        /* \"@openzeppelin/contracts/access/AccessControl.sol\":6302:6309  account */\n      dup5\n        /* \"@openzeppelin/contracts/access/AccessControl.sol\":6281:6310  _roles[role].hasRole[account] */\n      0xffffffffffffffffffffffffffffffffffffffff\n      and\n      0xffffffffffffffffffffffffffffffffffffffff\n      and\n      dup2\n      mstore\n      0x20\n      add\n      swap1\n      dup2\n      mstore\n      0x20\n      add\n      0x00\n      keccak256\n      0x00\n        /* \"@openzeppelin/contracts/access/AccessControl.sol\":6281:6317  _roles[role].hasRole[account] = true */\n      0x0100\n      exp\n      dup2\n      sload\n      dup2\n      0xff\n      mul\n      not\n      and\n      swap1\n      dup4\n      iszero\n      iszero\n      mul\n      or\n      swap1\n      sstore\n      pop\n        /* \"@openzeppelin/contracts/access/AccessControl.sol\":6363:6375  _msgSender() */\n      tag_321\n        /* \"@openzeppelin/contracts/access/AccessControl.sol\":6363:6373  _msgSender */\n      tag_200\n        /* \"@openzeppelin/contracts/access/AccessControl.sol\":6363:6375  _msgSender() */\n      jump\t// in\n    tag_321:\n        /* \"@openzeppelin/contracts/access/AccessControl.sol\":6336:6376  RoleGranted(role, account, _msgSender()) */\n      0xffffffffffffffffffffffffffffffffffffffff\n      and\n        /* \"@openzeppelin/contracts/access/AccessControl.sol\":6354:6361  account */\n      dup3\n        /* \"@openzeppelin/contracts/access/AccessControl.sol\":6336:6376  RoleGranted(role, account, _msgSender()) */\n      0xffffffffffffffffffffffffffffffffffffffff\n      and\n        /* \"@openzeppelin/contracts/access/AccessControl.sol\":6348:6352  role */\n      dup5\n        /* \"@openzeppelin/contracts/access/AccessControl.sol\":6336:6376  RoleGranted(role, account, _msgSender()) */\n      0x2f8788117e7eff1d82e926ec794901d17c78024a50270940304540a733656f0d\n      mload(0x40)\n      mload(0x40)\n      dup1\n      swap2\n      sub\n      swap1\n      log4\n        /* \"@openzeppelin/contracts/access/AccessControl.sol\":6397:6401  true */\n      0x01\n        /* \"@openzeppelin/contracts/access/AccessControl.sol\":6390:6401  return true */\n      swap1\n      pop\n      jump(tag_318)\n        /* \"@openzeppelin/contracts/access/AccessControl.sol\":6238:6455  if (!hasRole(role, account)) {... */\n    tag_320:\n        /* \"@openzeppelin/contracts/access/AccessControl.sol\":6439:6444  false */\n      0x00\n        /* \"@openzeppelin/contracts/access/AccessControl.sol\":6432:6444  return false */\n      swap1\n      pop\n        /* \"@openzeppelin/contracts/access/AccessControl.sol\":6145:6461  function _grantRole(bytes32 role, address account) internal virtual returns (bool) {... */\n    tag_318:\n      swap3\n      swap2\n      pop\n      pop\n      jump\t// out\n        /* \"@openzeppelin/contracts/utils/Context.sol\":656:752  function _msgSender() internal view virtual returns (address) {... */\n    tag_200:\n        /* \"@openzeppelin/contracts/utils/Context.sol\":709:716  address */\n      0x00\n        /* \"@openzeppelin/contracts/utils/Context.sol\":735:745  msg.sender */\n      caller\n        /* \"@openzeppelin/contracts/utils/Context.sol\":728:745  return msg.sender */\n      swap1\n      pop\n        /* \"@openzeppelin/contracts/utils/Context.sol\":656:752  function _msgSender() internal view virtual returns (address) {... */\n      swap1\n      jump\t// out\n        /* \"@openzeppelin/contracts/access/AccessControl.sol\":6698:7015  function _revokeRole(bytes32 role, address account) internal virtual returns (bool) {... */\n    tag_203:\n        /* \"@openzeppelin/contracts/access/AccessControl.sol\":6776:6780  bool */\n      0x00\n        /* \"@openzeppelin/contracts/access/AccessControl.sol\":6796:6818  hasRole(role, account) */\n      tag_325\n        /* \"@openzeppelin/contracts/access/AccessControl.sol\":6804:6808  role */\n      dup4\n        /* \"@openzeppelin/contracts/access/AccessControl.sol\":6810:6817  account */\n      dup4\n        /* \"@openzeppelin/contracts/access/AccessControl.sol\":6796:6803  hasRole */\n      tag_89\n        /* \"@openzeppelin/contracts/access/AccessControl.sol\":6796:6818  hasRole(role, account) */\n      jump\t// in\n    tag_325:\n        /* \"@openzeppelin/contracts/access/AccessControl.sol\":6792:7009  if (hasRole(role, account)) {... */\n      iszero\n      tag_326\n      jumpi\n        /* \"@openzeppelin/contracts/access/AccessControl.sol\":6866:6871  false */\n      0x00\n        /* \"@openzeppelin/contracts/access/AccessControl.sol\":6834:6840  _roles */\n      0x01\n        /* \"@openzeppelin/contracts/access/AccessControl.sol\":6834:6846  _roles[role] */\n      0x00\n        /* \"@openzeppelin/contracts/access/AccessControl.sol\":6841:6845  role */\n      dup6\n        /* \"@openzeppelin/contracts/access/AccessControl.sol\":6834:6846  _roles[role] */\n      dup2\n      mstore\n      0x20\n      add\n      swap1\n      dup2\n      mstore\n      0x20\n      add\n      0x00\n      keccak256\n        /* \"@openzeppelin/contracts/access/AccessControl.sol\":6834:6854  _roles[role].hasRole */\n      0x00\n      add\n        /* \"@openzeppelin/contracts/access/AccessControl.sol\":6834:6863  _roles[role].hasRole[account] */\n      0x00\n        /* \"@openzeppelin/contracts/access/AccessControl.sol\":6855:6862  account */\n      dup5\n        /* \"@openzeppelin/contracts/access/AccessControl.sol\":6834:6863  _roles[role].hasRole[account] */\n      0xffffffffffffffffffffffffffffffffffffffff\n      and\n      0xffffffffffffffffffffffffffffffffffffffff\n      and\n      dup2\n      mstore\n      0x20\n      add\n      swap1\n      dup2\n      mstore\n      0x20\n      add\n      0x00\n      keccak256\n      0x00\n        /* \"@openzeppelin/contracts/access/AccessControl.sol\":6834:6871  _roles[role].hasRole[account] = false */\n      0x0100\n      exp\n      dup2\n      sload\n      dup2\n      0xff\n      mul\n      not\n      and\n      swap1\n      dup4\n      iszero\n      iszero\n      mul\n      or\n      swap1\n      sstore\n      pop\n        /* \"@openzeppelin/contracts/access/AccessControl.sol\":6917:6929  _msgSender() */\n      tag_327\n        /* \"@openzeppelin/contracts/access/AccessControl.sol\":6917:6927  _msgSender */\n      tag_200\n        /* \"@openzeppelin/contracts/access/AccessControl.sol\":6917:6929  _msgSender() */\n      jump\t// in\n    tag_327:\n        /* \"@openzeppelin/contracts/access/AccessControl.sol\":6890:6930  RoleRevoked(role, account, _msgSender()) */\n      0xffffffffffffffffffffffffffffffffffffffff\n      and\n        /* \"@openzeppelin/contracts/access/AccessControl.sol\":6908:6915  account */\n      dup3\n        /* \"@openzeppelin/contracts/access/AccessControl.sol\":6890:6930  RoleRevoked(role, account, _msgSender()) */\n      0xffffffffffffffffffffffffffffffffffffffff\n      and\n        /* \"@openzeppelin/contracts/access/AccessControl.sol\":6902:6906  role */\n      dup5\n        /* \"@openzeppelin/contracts/access/AccessControl.sol\":6890:6930  RoleRevoked(role, account, _msgSender()) */\n      0xf6391f5c32d9c69d2a47ea670b442974b53935d1edc7fd64eb21e047a839171b\n      mload(0x40)\n      mload(0x40)\n      dup1\n      swap2\n      sub\n      swap1\n      log4\n        /* \"@openzeppelin/contracts/access/AccessControl.sol\":6951:6955  true */\n      0x01\n        /* \"@openzeppelin/contracts/access/AccessControl.sol\":6944:6955  return true */\n      swap1\n      pop\n      jump(tag_324)\n        /* \"@openzeppelin/contracts/access/AccessControl.sol\":6792:7009  if (hasRole(role, account)) {... */\n    tag_326:\n        /* \"@openzeppelin/contracts/access/AccessControl.sol\":6993:6998  false */\n      0x00\n        /* \"@openzeppelin/contracts/access/AccessControl.sol\":6986:6998  return false */\n      swap1\n      pop\n        /* \"@openzeppelin/contracts/access/AccessControl.sol\":6698:7015  function _revokeRole(bytes32 role, address account) internal virtual returns (bool) {... */\n    tag_324:\n      swap3\n      swap2\n      pop\n      pop\n      jump\t// out\n        /* \"@openzeppelin/contracts/access/Ownable.sol\":2912:3099  function _transferOwnership(address newOwner) internal virtual {... */\n    tag_218:\n        /* \"@openzeppelin/contracts/access/Ownable.sol\":2985:3001  address oldOwner */\n      0x00\n        /* \"@openzeppelin/contracts/access/Ownable.sol\":3004:3010  _owner */\n      0x00\n      0x00\n      swap1\n      sload\n      swap1\n      0x0100\n      exp\n      swap1\n      div\n      0xffffffffffffffffffffffffffffffffffffffff\n      and\n        /* \"@openzeppelin/contracts/access/Ownable.sol\":2985:3010  address oldOwner = _owner */\n      swap1\n      pop\n        /* \"@openzeppelin/contracts/access/Ownable.sol\":3029:3037  newOwner */\n      dup2\n        /* \"@openzeppelin/contracts/access/Ownable.sol\":3020:3026  _owner */\n      0x00\n      0x00\n        /* \"@openzeppelin/contracts/access/Ownable.sol\":3020:3037  _owner = newOwner */\n      0x0100\n      exp\n      dup2\n      sload\n      dup2\n      0xffffffffffffffffffffffffffffffffffffffff\n      mul\n      not\n      and\n      swap1\n      dup4\n      0xffffffffffffffffffffffffffffffffffffffff\n      and\n      mul\n      or\n      swap1\n      sstore\n      pop\n        /* \"@openzeppelin/contracts/access/Ownable.sol\":3083:3091  newOwner */\n      dup2\n        /* \"@openzeppelin/contracts/access/Ownable.sol\":3052:3092  OwnershipTransferred(oldOwner, newOwner) */\n      0xffffffffffffffffffffffffffffffffffffffff\n      and\n        /* \"@openzeppelin/contracts/access/Ownable.sol\":3073:3081  oldOwner */\n      dup2\n        /* \"@openzeppelin/contracts/access/Ownable.sol\":3052:3092  OwnershipTransferred(oldOwner, newOwner) */\n      0xffffffffffffffffffffffffffffffffffffffff\n      and\n      0x8be0079c531659141344cd1fd0a4f28419497f9722a3daafe3b4186f6b6457e0\n      mload(0x40)\n      mload(0x40)\n      dup1\n      swap2\n      sub\n      swap1\n      log3\n        /* \"@openzeppelin/contracts/access/Ownable.sol\":2975:3099  {... */\n      pop\n        /* \"@openzeppelin/contracts/access/Ownable.sol\":2912:3099  function _transferOwnership(address newOwner) internal virtual {... */\n      pop\n      jump\t// out\n        /* \"@openzeppelin/contracts/access/AccessControl.sol\":3398:3595  function _checkRole(bytes32 role, address account) internal view virtual {... */\n    tag_317:\n        /* \"@openzeppelin/contracts/access/AccessControl.sol\":3486:3508  hasRole(role, account) */\n      tag_331\n        /* \"@openzeppelin/contracts/access/AccessControl.sol\":3494:3498  role */\n      dup3\n        /* \"@openzeppelin/contracts/access/AccessControl.sol\":3500:3507  account */\n      dup3\n        /* \"@openzeppelin/contracts/access/AccessControl.sol\":3486:3493  hasRole */\n      tag_89\n        /* \"@openzeppelin/contracts/access/AccessControl.sol\":3486:3508  hasRole(role, account) */\n      jump\t// in\n    tag_331:\n        /* \"@openzeppelin/contracts/access/AccessControl.sol\":3481:3589  if (!hasRole(role, account)) {... */\n      tag_332\n      jumpi\n        /* \"@openzeppelin/contracts/access/AccessControl.sol\":3564:3571  account */\n      dup1\n        /* \"@openzeppelin/contracts/access/AccessControl.sol\":3573:3577  role */\n      dup3\n        /* \"@openzeppelin/contracts/access/AccessControl.sol\":3531:3578  AccessControlUnauthorizedAccount(account, role) */\n      mload(0x40)\n      0xe2517d3f00000000000000000000000000000000000000000000000000000000\n      dup2\n      mstore\n      0x04\n      add\n      tag_333\n      swap3\n      swap2\n      swap1\n      tag_334\n      jump\t// in\n    tag_333:\n      mload(0x40)\n      dup1\n      swap2\n      sub\n      swap1\n      revert\n        /* \"@openzeppelin/contracts/access/AccessControl.sol\":3481:3589  if (!hasRole(role, account)) {... */\n    tag_332:\n        /* \"@openzeppelin/contracts/access/AccessControl.sol\":3398:3595  function _checkRole(bytes32 role, address account) internal view virtual {... */\n      pop\n      pop\n      jump\t// out\n        /* \"#utility.yul\":7:82   */\n    tag_335:\n        /* \"#utility.yul\":40:46   */\n      0x00\n        /* \"#utility.yul\":73:75   */\n      0x40\n        /* \"#utility.yul\":67:76   */\n      mload\n        /* \"#utility.yul\":57:76   */\n      swap1\n      pop\n        /* \"#utility.yul\":7:82   */\n      swap1\n      jump\t// out\n        /* \"#utility.yul\":88:205   */\n    tag_336:\n        /* \"#utility.yul\":197:198   */\n      0x00\n        /* \"#utility.yul\":194:195   */\n      0x00\n        /* \"#utility.yul\":187:199   */\n      revert\n        /* \"#utility.yul\":211:328   */\n    tag_337:\n        /* \"#utility.yul\":320:321   */\n      0x00\n        /* \"#utility.yul\":317:318   */\n      0x00\n        /* \"#utility.yul\":310:322   */\n      revert\n        /* \"#utility.yul\":334:483   */\n    tag_338:\n        /* \"#utility.yul\":370:377   */\n      0x00\n        /* \"#utility.yul\":410:476   */\n      0xffffffff00000000000000000000000000000000000000000000000000000000\n        /* \"#utility.yul\":403:408   */\n      dup3\n        /* \"#utility.yul\":399:477   */\n      and\n        /* \"#utility.yul\":388:477   */\n      swap1\n      pop\n        /* \"#utility.yul\":334:483   */\n      swap2\n      swap1\n      pop\n      jump\t// out\n        /* \"#utility.yul\":489:609   */\n    tag_339:\n        /* \"#utility.yul\":561:584   */\n      tag_421\n        /* \"#utility.yul\":578:583   */\n      dup2\n        /* \"#utility.yul\":561:584   */\n      tag_338\n      jump\t// in\n    tag_421:\n        /* \"#utility.yul\":554:559   */\n      dup2\n        /* \"#utility.yul\":551:585   */\n      eq\n        /* \"#utility.yul\":541:603   */\n      tag_422\n      jumpi\n        /* \"#utility.yul\":599:600   */\n      0x00\n        /* \"#utility.yul\":596:597   */\n      0x00\n        /* \"#utility.yul\":589:601   */\n      revert\n        /* \"#utility.yul\":541:603   */\n    tag_422:\n        /* \"#utility.yul\":489:609   */\n      pop\n      jump\t// out\n        /* \"#utility.yul\":615:752   */\n    tag_340:\n        /* \"#utility.yul\":660:665   */\n      0x00\n        /* \"#utility.yul\":698:704   */\n      dup2\n        /* \"#utility.yul\":685:705   */\n      calldataload\n        /* \"#utility.yul\":676:705   */\n      swap1\n      pop\n        /* \"#utility.yul\":714:746   */\n      tag_424\n        /* \"#utility.yul\":740:745   */\n      dup2\n        /* \"#utility.yul\":714:746   */\n      tag_339\n      jump\t// in\n    tag_424:\n        /* \"#utility.yul\":615:752   */\n      swap3\n      swap2\n      pop\n      pop\n      jump\t// out\n        /* \"#utility.yul\":758:1085   */\n    tag_30:\n        /* \"#utility.yul\":816:822   */\n      0x00\n        /* \"#utility.yul\":865:867   */\n      0x20\n        /* \"#utility.yul\":853:862   */\n      dup3\n        /* \"#utility.yul\":844:851   */\n      dup5\n        /* \"#utility.yul\":840:863   */\n      sub\n        /* \"#utility.yul\":836:868   */\n      slt\n        /* \"#utility.yul\":833:952   */\n      iszero\n      tag_426\n      jumpi\n        /* \"#utility.yul\":871:950   */\n      tag_427\n      tag_336\n      jump\t// in\n    tag_427:\n        /* \"#utility.yul\":833:952   */\n    tag_426:\n        /* \"#utility.yul\":991:992   */\n      0x00\n        /* \"#utility.yul\":1016:1068   */\n      tag_428\n        /* \"#utility.yul\":1060:1067   */\n      dup5\n        /* \"#utility.yul\":1051:1057   */\n      dup3\n        /* \"#utility.yul\":1040:1049   */\n      dup6\n        /* \"#utility.yul\":1036:1058   */\n      add\n        /* \"#utility.yul\":1016:1068   */\n      tag_340\n      jump\t// in\n    tag_428:\n        /* \"#utility.yul\":1006:1068   */\n      swap2\n      pop\n        /* \"#utility.yul\":962:1078   */\n      pop\n        /* \"#utility.yul\":758:1085   */\n      swap3\n      swap2\n      pop\n      pop\n      jump\t// out\n        /* \"#utility.yul\":1091:1181   */\n    tag_341:\n        /* \"#utility.yul\":1125:1132   */\n      0x00\n        /* \"#utility.yul\":1168:1173   */\n      dup2\n        /* \"#utility.yul\":1161:1174   */\n      iszero\n        /* \"#utility.yul\":1154:1175   */\n      iszero\n        /* \"#utility.yul\":1143:1175   */\n      swap1\n      pop\n        /* \"#utility.yul\":1091:1181   */\n      swap2\n      swap1\n      pop\n      jump\t// out\n        /* \"#utility.yul\":1187:1296   */\n    tag_342:\n        /* \"#utility.yul\":1268:1289   */\n      tag_431\n        /* \"#utility.yul\":1283:1288   */\n      dup2\n        /* \"#utility.yul\":1268:1289   */\n      tag_341\n      jump\t// in\n    tag_431:\n        /* \"#utility.yul\":1263:1266   */\n      dup3\n        /* \"#utility.yul\":1256:1290   */\n      mstore\n        /* \"#utility.yul\":1187:1296   */\n      pop\n      pop\n      jump\t// out\n        /* \"#utility.yul\":1302:1512   */\n    tag_33:\n        /* \"#utility.yul\":1389:1393   */\n      0x00\n        /* \"#utility.yul\":1427:1429   */\n      0x20\n        /* \"#utility.yul\":1416:1425   */\n      dup3\n        /* \"#utility.yul\":1412:1430   */\n      add\n        /* \"#utility.yul\":1404:1430   */\n      swap1\n      pop\n        /* \"#utility.yul\":1440:1505   */\n      tag_433\n        /* \"#utility.yul\":1502:1503   */\n      0x00\n        /* \"#utility.yul\":1491:1500   */\n      dup4\n        /* \"#utility.yul\":1487:1504   */\n      add\n        /* \"#utility.yul\":1478:1484   */\n      dup5\n        /* \"#utility.yul\":1440:1505   */\n      tag_342\n      jump\t// in\n    tag_433:\n        /* \"#utility.yul\":1302:1512   */\n      swap3\n      swap2\n      pop\n      pop\n      jump\t// out\n        /* \"#utility.yul\":1518:1595   */\n    tag_343:\n        /* \"#utility.yul\":1555:1562   */\n      0x00\n        /* \"#utility.yul\":1584:1589   */\n      dup2\n        /* \"#utility.yul\":1573:1589   */\n      swap1\n      pop\n        /* \"#utility.yul\":1518:1595   */\n      swap2\n      swap1\n      pop\n      jump\t// out\n        /* \"#utility.yul\":1601:1723   */\n    tag_344:\n        /* \"#utility.yul\":1674:1698   */\n      tag_436\n        /* \"#utility.yul\":1692:1697   */\n      dup2\n        /* \"#utility.yul\":1674:1698   */\n      tag_343\n      jump\t// in\n    tag_436:\n        /* \"#utility.yul\":1667:1672   */\n      dup2\n        /* \"#utility.yul\":1664:1699   */\n      eq\n        /* \"#utility.yul\":1654:1717   */\n      tag_437\n      jumpi\n        /* \"#utility.yul\":1713:1714   */\n      0x00\n        /* \"#utility.yul\":1710:1711   */\n      0x00\n        /* \"#utility.yul\":1703:1715   */\n      revert\n        /* \"#utility.yul\":1654:1717   */\n    tag_437:\n        /* \"#utility.yul\":1601:1723   */\n      pop\n      jump\t// out\n        /* \"#utility.yul\":1729:1868   */\n    tag_345:\n        /* \"#utility.yul\":1775:1780   */\n      0x00\n        /* \"#utility.yul\":1813:1819   */\n      dup2\n        /* \"#utility.yul\":1800:1820   */\n      calldataload\n        /* \"#utility.yul\":1791:1820   */\n      swap1\n      pop\n        /* \"#utility.yul\":1829:1862   */\n      tag_439\n        /* \"#utility.yul\":1856:1861   */\n      dup2\n        /* \"#utility.yul\":1829:1862   */\n      tag_344\n      jump\t// in\n    tag_439:\n        /* \"#utility.yul\":1729:1868   */\n      swap3\n      swap2\n      pop\n      pop\n      jump\t// out\n        /* \"#utility.yul\":1874:2203   */\n    tag_36:\n        /* \"#utility.yul\":1933:1939   */\n      0x00\n        /* \"#utility.yul\":1982:1984   */\n      0x20\n        /* \"#utility.yul\":1970:1979   */\n      dup3\n        /* \"#utility.yul\":1961:1968   */\n      dup5\n        /* \"#utility.yul\":1957:1980   */\n      sub\n        /* \"#utility.yul\":1953:1985   */\n      slt\n        /* \"#utility.yul\":1950:2069   */\n      iszero\n      tag_441\n      jumpi\n        /* \"#utility.yul\":1988:2067   */\n      tag_442\n      tag_336\n      jump\t// in\n    tag_442:\n        /* \"#utility.yul\":1950:2069   */\n    tag_441:\n        /* \"#utility.yul\":2108:2109   */\n      0x00\n        /* \"#utility.yul\":2133:2186   */\n      tag_443\n        /* \"#utility.yul\":2178:2185   */\n      dup5\n        /* \"#utility.yul\":2169:2175   */\n      dup3\n        /* \"#utility.yul\":2158:2167   */\n      dup6\n        /* \"#utility.yul\":2154:2176   */\n      add\n        /* \"#utility.yul\":2133:2186   */\n      tag_345\n      jump\t// in\n    tag_443:\n        /* \"#utility.yul\":2123:2186   */\n      swap2\n      pop\n        /* \"#utility.yul\":2079:2196   */\n      pop\n        /* \"#utility.yul\":1874:2203   */\n      swap3\n      swap2\n      pop\n      pop\n      jump\t// out\n        /* \"#utility.yul\":2209:2327   */\n    tag_346:\n        /* \"#utility.yul\":2296:2320   */\n      tag_445\n        /* \"#utility.yul\":2314:2319   */\n      dup2\n        /* \"#utility.yul\":2296:2320   */\n      tag_343\n      jump\t// in\n    tag_445:\n        /* \"#utility.yul\":2291:2294   */\n      dup3\n        /* \"#utility.yul\":2284:2321   */\n      mstore\n        /* \"#utility.yul\":2209:2327   */\n      pop\n      pop\n      jump\t// out\n        /* \"#utility.yul\":2333:2459   */\n    tag_347:\n        /* \"#utility.yul\":2370:2377   */\n      0x00\n        /* \"#utility.yul\":2410:2452   */\n      0xffffffffffffffffffffffffffffffffffffffff\n        /* \"#utility.yul\":2403:2408   */\n      dup3\n        /* \"#utility.yul\":2399:2453   */\n      and\n        /* \"#utility.yul\":2388:2453   */\n      swap1\n      pop\n        /* \"#utility.yul\":2333:2459   */\n      swap2\n      swap1\n      pop\n      jump\t// out\n        /* \"#utility.yul\":2465:2561   */\n    tag_348:\n        /* \"#utility.yul\":2502:2509   */\n      0x00\n        /* \"#utility.yul\":2531:2555   */\n      tag_448\n        /* \"#utility.yul\":2549:2554   */\n      dup3\n        /* \"#utility.yul\":2531:2555   */\n      tag_347\n      jump\t// in\n    tag_448:\n        /* \"#utility.yul\":2520:2555   */\n      swap1\n      pop\n        /* \"#utility.yul\":2465:2561   */\n      swap2\n      swap1\n      pop\n      jump\t// out\n        /* \"#utility.yul\":2567:2685   */\n    tag_349:\n        /* \"#utility.yul\":2654:2678   */\n      tag_450\n        /* \"#utility.yul\":2672:2677   */\n      dup2\n        /* \"#utility.yul\":2654:2678   */\n      tag_348\n      jump\t// in\n    tag_450:\n        /* \"#utility.yul\":2649:2652   */\n      dup3\n        /* \"#utility.yul\":2642:2679   */\n      mstore\n        /* \"#utility.yul\":2567:2685   */\n      pop\n      pop\n      jump\t// out\n        /* \"#utility.yul\":2691:2871   */\n    tag_140:\n        /* \"#utility.yul\":2739:2816   */\n      0x4e487b7100000000000000000000000000000000000000000000000000000000\n        /* \"#utility.yul\":2736:2737   */\n      0x00\n        /* \"#utility.yul\":2729:2817   */\n      mstore\n        /* \"#utility.yul\":2836:2840   */\n      0x21\n        /* \"#utility.yul\":2833:2834   */\n      0x04\n        /* \"#utility.yul\":2826:2841   */\n      mstore\n        /* \"#utility.yul\":2860:2864   */\n      0x24\n        /* \"#utility.yul\":2857:2858   */\n      0x00\n        /* \"#utility.yul\":2850:2865   */\n      revert\n        /* \"#utility.yul\":2877:2992   */\n    tag_350:\n        /* \"#utility.yul\":2960:2961   */\n      0x04\n        /* \"#utility.yul\":2953:2958   */\n      dup2\n        /* \"#utility.yul\":2950:2962   */\n      lt\n        /* \"#utility.yul\":2940:2986   */\n      tag_453\n      jumpi\n        /* \"#utility.yul\":2966:2984   */\n      tag_454\n      tag_140\n      jump\t// in\n    tag_454:\n        /* \"#utility.yul\":2940:2986   */\n    tag_453:\n        /* \"#utility.yul\":2877:2992   */\n      pop\n      jump\t// out\n        /* \"#utility.yul\":2998:3129   */\n    tag_351:\n        /* \"#utility.yul\":3045:3052   */\n      0x00\n        /* \"#utility.yul\":3074:3079   */\n      dup2\n        /* \"#utility.yul\":3063:3079   */\n      swap1\n      pop\n        /* \"#utility.yul\":3080:3123   */\n      tag_456\n        /* \"#utility.yul\":3117:3122   */\n      dup3\n        /* \"#utility.yul\":3080:3123   */\n      tag_350\n      jump\t// in\n    tag_456:\n        /* \"#utility.yul\":2998:3129   */\n      swap2\n      swap1\n      pop\n      jump\t// out\n        /* \"#utility.yul\":3135:3266   */\n    tag_352:\n        /* \"#utility.yul\":3193:3202   */\n      0x00\n        /* \"#utility.yul\":3226:3260   */\n      tag_458\n        /* \"#utility.yul\":3254:3259   */\n      dup3\n        /* \"#utility.yul\":3226:3260   */\n      tag_351\n      jump\t// in\n    tag_458:\n        /* \"#utility.yul\":3213:3260   */\n      swap1\n      pop\n        /* \"#utility.yul\":3135:3266   */\n      swap2\n      swap1\n      pop\n      jump\t// out\n        /* \"#utility.yul\":3272:3419   */\n    tag_353:\n        /* \"#utility.yul\":3367:3412   */\n      tag_460\n        /* \"#utility.yul\":3406:3411   */\n      dup2\n        /* \"#utility.yul\":3367:3412   */\n      tag_352\n      jump\t// in\n    tag_460:\n        /* \"#utility.yul\":3362:3365   */\n      dup3\n        /* \"#utility.yul\":3355:3413   */\n      mstore\n        /* \"#utility.yul\":3272:3419   */\n      pop\n      pop\n      jump\t// out\n        /* \"#utility.yul\":3425:4105   */\n    tag_39:\n        /* \"#utility.yul\":3638:3642   */\n      0x00\n        /* \"#utility.yul\":3676:3679   */\n      0xa0\n        /* \"#utility.yul\":3665:3674   */\n      dup3\n        /* \"#utility.yul\":3661:3680   */\n      add\n        /* \"#utility.yul\":3653:3680   */\n      swap1\n      pop\n        /* \"#utility.yul\":3690:3761   */\n      tag_462\n        /* \"#utility.yul\":3758:3759   */\n      0x00\n        /* \"#utility.yul\":3747:3756   */\n      dup4\n        /* \"#utility.yul\":3743:3760   */\n      add\n        /* \"#utility.yul\":3734:3740   */\n      dup9\n        /* \"#utility.yul\":3690:3761   */\n      tag_346\n      jump\t// in\n    tag_462:\n        /* \"#utility.yul\":3771:3843   */\n      tag_463\n        /* \"#utility.yul\":3839:3841   */\n      0x20\n        /* \"#utility.yul\":3828:3837   */\n      dup4\n        /* \"#utility.yul\":3824:3842   */\n      add\n        /* \"#utility.yul\":3815:3821   */\n      dup8\n        /* \"#utility.yul\":3771:3843   */\n      tag_349\n      jump\t// in\n    tag_463:\n        /* \"#utility.yul\":3853:3925   */\n      tag_464\n        /* \"#utility.yul\":3921:3923   */\n      0x40\n        /* \"#utility.yul\":3910:3919   */\n      dup4\n        /* \"#utility.yul\":3906:3924   */\n      add\n        /* \"#utility.yul\":3897:3903   */\n      dup7\n        /* \"#utility.yul\":3853:3925   */\n      tag_349\n      jump\t// in\n    tag_464:\n        /* \"#utility.yul\":3935:4007   */\n      tag_465\n        /* \"#utility.yul\":4003:4005   */\n      0x60\n        /* \"#utility.yul\":3992:4001   */\n      dup4\n        /* \"#utility.yul\":3988:4006   */\n      add\n        /* \"#utility.yul\":3979:3985   */\n      dup6\n        /* \"#utility.yul\":3935:4007   */\n      tag_346\n      jump\t// in\n    tag_465:\n        /* \"#utility.yul\":4017:4098   */\n      tag_466\n        /* \"#utility.yul\":4093:4096   */\n      0x80\n        /* \"#utility.yul\":4082:4091   */\n      dup4\n        /* \"#utility.yul\":4078:4097   */\n      add\n        /* \"#utility.yul\":4069:4075   */\n      dup5\n        /* \"#utility.yul\":4017:4098   */\n      tag_353\n      jump\t// in\n    tag_466:\n        /* \"#utility.yul\":3425:4105   */\n      swap7\n      swap6\n      pop\n      pop\n      pop\n      pop\n      pop\n      pop\n      jump\t// out\n        /* \"#utility.yul\":4111:4233   */\n    tag_354:\n        /* \"#utility.yul\":4184:4208   */\n      tag_468\n        /* \"#utility.yul\":4202:4207   */\n      dup2\n        /* \"#utility.yul\":4184:4208   */\n      tag_348\n      jump\t// in\n    tag_468:\n        /* \"#utility.yul\":4177:4182   */\n      dup2\n        /* \"#utility.yul\":4174:4209   */\n      eq\n        /* \"#utility.yul\":4164:4227   */\n      tag_469\n      jumpi\n        /* \"#utility.yul\":4223:4224   */\n      0x00\n        /* \"#utility.yul\":4220:4221   */\n      0x00\n        /* \"#utility.yul\":4213:4225   */\n      revert\n        /* \"#utility.yul\":4164:4227   */\n    tag_469:\n        /* \"#utility.yul\":4111:4233   */\n      pop\n      jump\t// out\n        /* \"#utility.yul\":4239:4378   */\n    tag_355:\n        /* \"#utility.yul\":4285:4290   */\n      0x00\n        /* \"#utility.yul\":4323:4329   */\n      dup2\n        /* \"#utility.yul\":4310:4330   */\n      calldataload\n        /* \"#utility.yul\":4301:4330   */\n      swap1\n      pop\n        /* \"#utility.yul\":4339:4372   */\n      tag_471\n        /* \"#utility.yul\":4366:4371   */\n      dup2\n        /* \"#utility.yul\":4339:4372   */\n      tag_354\n      jump\t// in\n    tag_471:\n        /* \"#utility.yul\":4239:4378   */\n      swap3\n      swap2\n      pop\n      pop\n      jump\t// out\n        /* \"#utility.yul\":4384:4501   */\n    tag_356:\n        /* \"#utility.yul\":4493:4494   */\n      0x00\n        /* \"#utility.yul\":4490:4491   */\n      0x00\n        /* \"#utility.yul\":4483:4495   */\n      revert\n        /* \"#utility.yul\":4507:4609   */\n    tag_357:\n        /* \"#utility.yul\":4548:4554   */\n      0x00\n        /* \"#utility.yul\":4599:4601   */\n      0x1f\n        /* \"#utility.yul\":4595:4602   */\n      not\n        /* \"#utility.yul\":4590:4592   */\n      0x1f\n        /* \"#utility.yul\":4583:4588   */\n      dup4\n        /* \"#utility.yul\":4579:4593   */\n      add\n        /* \"#utility.yul\":4575:4603   */\n      and\n        /* \"#utility.yul\":4565:4603   */\n      swap1\n      pop\n        /* \"#utility.yul\":4507:4609   */\n      swap2\n      swap1\n      pop\n      jump\t// out\n        /* \"#utility.yul\":4615:4795   */\n    tag_358:\n        /* \"#utility.yul\":4663:4740   */\n      0x4e487b7100000000000000000000000000000000000000000000000000000000\n        /* \"#utility.yul\":4660:4661   */\n      0x00\n        /* \"#utility.yul\":4653:4741   */\n      mstore\n        /* \"#utility.yul\":4760:4764   */\n      0x41\n        /* \"#utility.yul\":4757:4758   */\n      0x04\n        /* \"#utility.yul\":4750:4765   */\n      mstore\n        /* \"#utility.yul\":4784:4788   */\n      0x24\n        /* \"#utility.yul\":4781:4782   */\n      0x00\n        /* \"#utility.yul\":4774:4789   */\n      revert\n        /* \"#utility.yul\":4801:5082   */\n    tag_359:\n        /* \"#utility.yul\":4884:4911   */\n      tag_476\n        /* \"#utility.yul\":4906:4910   */\n      dup3\n        /* \"#utility.yul\":4884:4911   */\n      tag_357\n      jump\t// in\n    tag_476:\n        /* \"#utility.yul\":4876:4882   */\n      dup2\n        /* \"#utility.yul\":4872:4912   */\n      add\n        /* \"#utility.yul\":5014:5020   */\n      dup2\n        /* \"#utility.yul\":5002:5012   */\n      dup2\n        /* \"#utility.yul\":4999:5021   */\n      lt\n        /* \"#utility.yul\":4978:4996   */\n      0xffffffffffffffff\n        /* \"#utility.yul\":4966:4976   */\n      dup3\n        /* \"#utility.yul\":4963:4997   */\n      gt\n        /* \"#utility.yul\":4960:5022   */\n      or\n        /* \"#utility.yul\":4957:5045   */\n      iszero\n      tag_477\n      jumpi\n        /* \"#utility.yul\":5025:5043   */\n      tag_478\n      tag_358\n      jump\t// in\n    tag_478:\n        /* \"#utility.yul\":4957:5045   */\n    tag_477:\n        /* \"#utility.yul\":5065:5075   */\n      dup1\n        /* \"#utility.yul\":5061:5063   */\n      0x40\n        /* \"#utility.yul\":5054:5076   */\n      mstore\n        /* \"#utility.yul\":4844:5082   */\n      pop\n        /* \"#utility.yul\":4801:5082   */\n      pop\n      pop\n      jump\t// out\n        /* \"#utility.yul\":5088:5217   */\n    tag_360:\n        /* \"#utility.yul\":5122:5128   */\n      0x00\n        /* \"#utility.yul\":5149:5169   */\n      tag_480\n      tag_335\n      jump\t// in\n    tag_480:\n        /* \"#utility.yul\":5139:5169   */\n      swap1\n      pop\n        /* \"#utility.yul\":5178:5211   */\n      tag_481\n        /* \"#utility.yul\":5206:5210   */\n      dup3\n        /* \"#utility.yul\":5198:5204   */\n      dup3\n        /* \"#utility.yul\":5178:5211   */\n      tag_359\n      jump\t// in\n    tag_481:\n        /* \"#utility.yul\":5088:5217   */\n      swap2\n      swap1\n      pop\n      jump\t// out\n        /* \"#utility.yul\":5223:5534   */\n    tag_361:\n        /* \"#utility.yul\":5300:5304   */\n      0x00\n        /* \"#utility.yul\":5390:5408   */\n      0xffffffffffffffff\n        /* \"#utility.yul\":5382:5388   */\n      dup3\n        /* \"#utility.yul\":5379:5409   */\n      gt\n        /* \"#utility.yul\":5376:5432   */\n      iszero\n      tag_483\n      jumpi\n        /* \"#utility.yul\":5412:5430   */\n      tag_484\n      tag_358\n      jump\t// in\n    tag_484:\n        /* \"#utility.yul\":5376:5432   */\n    tag_483:\n        /* \"#utility.yul\":5462:5466   */\n      0x20\n        /* \"#utility.yul\":5454:5460   */\n      dup3\n        /* \"#utility.yul\":5450:5467   */\n      mul\n        /* \"#utility.yul\":5442:5467   */\n      swap1\n      pop\n        /* \"#utility.yul\":5522:5526   */\n      0x20\n        /* \"#utility.yul\":5516:5520   */\n      dup2\n        /* \"#utility.yul\":5512:5527   */\n      add\n        /* \"#utility.yul\":5504:5527   */\n      swap1\n      pop\n        /* \"#utility.yul\":5223:5534   */\n      swap2\n      swap1\n      pop\n      jump\t// out\n        /* \"#utility.yul\":5540:5657   */\n    tag_362:\n        /* \"#utility.yul\":5649:5650   */\n      0x00\n        /* \"#utility.yul\":5646:5647   */\n      0x00\n        /* \"#utility.yul\":5639:5651   */\n      revert\n        /* \"#utility.yul\":5680:6390   */\n    tag_363:\n        /* \"#utility.yul\":5776:5781   */\n      0x00\n        /* \"#utility.yul\":5801:5882   */\n      tag_487\n        /* \"#utility.yul\":5817:5881   */\n      tag_488\n        /* \"#utility.yul\":5874:5880   */\n      dup5\n        /* \"#utility.yul\":5817:5881   */\n      tag_361\n      jump\t// in\n    tag_488:\n        /* \"#utility.yul\":5801:5882   */\n      tag_360\n      jump\t// in\n    tag_487:\n        /* \"#utility.yul\":5792:5882   */\n      swap1\n      pop\n        /* \"#utility.yul\":5902:5907   */\n      dup1\n        /* \"#utility.yul\":5931:5937   */\n      dup4\n        /* \"#utility.yul\":5924:5929   */\n      dup3\n        /* \"#utility.yul\":5917:5938   */\n      mstore\n        /* \"#utility.yul\":5965:5969   */\n      0x20\n        /* \"#utility.yul\":5958:5963   */\n      dup3\n        /* \"#utility.yul\":5954:5970   */\n      add\n        /* \"#utility.yul\":5947:5970   */\n      swap1\n      pop\n        /* \"#utility.yul\":6018:6022   */\n      0x20\n        /* \"#utility.yul\":6010:6016   */\n      dup5\n        /* \"#utility.yul\":6006:6023   */\n      mul\n        /* \"#utility.yul\":5998:6004   */\n      dup4\n        /* \"#utility.yul\":5994:6024   */\n      add\n        /* \"#utility.yul\":6047:6050   */\n      dup6\n        /* \"#utility.yul\":6039:6045   */\n      dup2\n        /* \"#utility.yul\":6036:6051   */\n      gt\n        /* \"#utility.yul\":6033:6155   */\n      iszero\n      tag_489\n      jumpi\n        /* \"#utility.yul\":6066:6145   */\n      tag_490\n      tag_362\n      jump\t// in\n    tag_490:\n        /* \"#utility.yul\":6033:6155   */\n    tag_489:\n        /* \"#utility.yul\":6181:6187   */\n      dup4\n        /* \"#utility.yul\":6164:6384   */\n    tag_491:\n        /* \"#utility.yul\":6198:6204   */\n      dup2\n        /* \"#utility.yul\":6193:6196   */\n      dup2\n        /* \"#utility.yul\":6190:6205   */\n      lt\n        /* \"#utility.yul\":6164:6384   */\n      iszero\n      tag_493\n      jumpi\n        /* \"#utility.yul\":6273:6276   */\n      dup1\n        /* \"#utility.yul\":6302:6339   */\n      tag_494\n        /* \"#utility.yul\":6335:6338   */\n      dup9\n        /* \"#utility.yul\":6323:6333   */\n      dup3\n        /* \"#utility.yul\":6302:6339   */\n      tag_345\n      jump\t// in\n    tag_494:\n        /* \"#utility.yul\":6297:6300   */\n      dup5\n        /* \"#utility.yul\":6290:6340   */\n      mstore\n        /* \"#utility.yul\":6369:6373   */\n      0x20\n        /* \"#utility.yul\":6364:6367   */\n      dup5\n        /* \"#utility.yul\":6360:6374   */\n      add\n        /* \"#utility.yul\":6353:6374   */\n      swap4\n      pop\n        /* \"#utility.yul\":6240:6384   */\n      pop\n        /* \"#utility.yul\":6224:6228   */\n      0x20\n        /* \"#utility.yul\":6219:6222   */\n      dup2\n        /* \"#utility.yul\":6215:6229   */\n      add\n        /* \"#utility.yul\":6208:6229   */\n      swap1\n      pop\n        /* \"#utility.yul\":6164:6384   */\n      jump(tag_491)\n    tag_493:\n        /* \"#utility.yul\":6168:6189   */\n      pop\n        /* \"#utility.yul\":5782:6390   */\n      pop\n      pop\n        /* \"#utility.yul\":5680:6390   */\n      swap4\n      swap3\n      pop\n      pop\n      pop\n      jump\t// out\n        /* \"#utility.yul\":6413:6783   */\n    tag_364:\n        /* \"#utility.yul\":6484:6489   */\n      0x00\n        /* \"#utility.yul\":6533:6536   */\n      dup3\n        /* \"#utility.yul\":6526:6530   */\n      0x1f\n        /* \"#utility.yul\":6518:6524   */\n      dup4\n        /* \"#utility.yul\":6514:6531   */\n      add\n        /* \"#utility.yul\":6510:6537   */\n      slt\n        /* \"#utility.yul\":6500:6622   */\n      tag_496\n      jumpi\n        /* \"#utility.yul\":6541:6620   */\n      tag_497\n      tag_356\n      jump\t// in\n    tag_497:\n        /* \"#utility.yul\":6500:6622   */\n    tag_496:\n        /* \"#utility.yul\":6658:6664   */\n      dup2\n        /* \"#utility.yul\":6645:6665   */\n      calldataload\n        /* \"#utility.yul\":6683:6777   */\n      tag_498\n        /* \"#utility.yul\":6773:6776   */\n      dup5\n        /* \"#utility.yul\":6765:6771   */\n      dup3\n        /* \"#utility.yul\":6758:6762   */\n      0x20\n        /* \"#utility.yul\":6750:6756   */\n      dup7\n        /* \"#utility.yul\":6746:6763   */\n      add\n        /* \"#utility.yul\":6683:6777   */\n      tag_363\n      jump\t// in\n    tag_498:\n        /* \"#utility.yul\":6674:6777   */\n      swap2\n      pop\n        /* \"#utility.yul\":6490:6783   */\n      pop\n        /* \"#utility.yul\":6413:6783   */\n      swap3\n      swap2\n      pop\n      pop\n      jump\t// out\n        /* \"#utility.yul\":6789:7473   */\n    tag_42:\n        /* \"#utility.yul\":6882:6888   */\n      0x00\n        /* \"#utility.yul\":6890:6896   */\n      0x00\n        /* \"#utility.yul\":6939:6941   */\n      0x40\n        /* \"#utility.yul\":6927:6936   */\n      dup4\n        /* \"#utility.yul\":6918:6925   */\n      dup6\n        /* \"#utility.yul\":6914:6937   */\n      sub\n        /* \"#utility.yul\":6910:6942   */\n      slt\n        /* \"#utility.yul\":6907:7026   */\n      iszero\n      tag_500\n      jumpi\n        /* \"#utility.yul\":6945:7024   */\n      tag_501\n      tag_336\n      jump\t// in\n    tag_501:\n        /* \"#utility.yul\":6907:7026   */\n    tag_500:\n        /* \"#utility.yul\":7065:7066   */\n      0x00\n        /* \"#utility.yul\":7090:7143   */\n      tag_502\n        /* \"#utility.yul\":7135:7142   */\n      dup6\n        /* \"#utility.yul\":7126:7132   */\n      dup3\n        /* \"#utility.yul\":7115:7124   */\n      dup7\n        /* \"#utility.yul\":7111:7133   */\n      add\n        /* \"#utility.yul\":7090:7143   */\n      tag_355\n      jump\t// in\n    tag_502:\n        /* \"#utility.yul\":7080:7143   */\n      swap3\n      pop\n        /* \"#utility.yul\":7036:7153   */\n      pop\n        /* \"#utility.yul\":7220:7222   */\n      0x20\n        /* \"#utility.yul\":7209:7218   */\n      dup4\n        /* \"#utility.yul\":7205:7223   */\n      add\n        /* \"#utility.yul\":7192:7224   */\n      calldataload\n        /* \"#utility.yul\":7251:7269   */\n      0xffffffffffffffff\n        /* \"#utility.yul\":7243:7249   */\n      dup2\n        /* \"#utility.yul\":7240:7270   */\n      gt\n        /* \"#utility.yul\":7237:7354   */\n      iszero\n      tag_503\n      jumpi\n        /* \"#utility.yul\":7273:7352   */\n      tag_504\n      tag_337\n      jump\t// in\n    tag_504:\n        /* \"#utility.yul\":7237:7354   */\n    tag_503:\n        /* \"#utility.yul\":7378:7456   */\n      tag_505\n        /* \"#utility.yul\":7448:7455   */\n      dup6\n        /* \"#utility.yul\":7439:7445   */\n      dup3\n        /* \"#utility.yul\":7428:7437   */\n      dup7\n        /* \"#utility.yul\":7424:7446   */\n      add\n        /* \"#utility.yul\":7378:7456   */\n      tag_364\n      jump\t// in\n    tag_505:\n        /* \"#utility.yul\":7368:7456   */\n      swap2\n      pop\n        /* \"#utility.yul\":7163:7466   */\n      pop\n        /* \"#utility.yul\":6789:7473   */\n      swap3\n      pop\n      swap3\n      swap1\n      pop\n      jump\t// out\n        /* \"#utility.yul\":7479:7953   */\n    tag_46:\n        /* \"#utility.yul\":7547:7553   */\n      0x00\n        /* \"#utility.yul\":7555:7561   */\n      0x00\n        /* \"#utility.yul\":7604:7606   */\n      0x40\n        /* \"#utility.yul\":7592:7601   */\n      dup4\n        /* \"#utility.yul\":7583:7590   */\n      dup6\n        /* \"#utility.yul\":7579:7602   */\n      sub\n        /* \"#utility.yul\":7575:7607   */\n      slt\n        /* \"#utility.yul\":7572:7691   */\n      iszero\n      tag_507\n      jumpi\n        /* \"#utility.yul\":7610:7689   */\n      tag_508\n      tag_336\n      jump\t// in\n    tag_508:\n        /* \"#utility.yul\":7572:7691   */\n    tag_507:\n        /* \"#utility.yul\":7730:7731   */\n      0x00\n        /* \"#utility.yul\":7755:7808   */\n      tag_509\n        /* \"#utility.yul\":7800:7807   */\n      dup6\n        /* \"#utility.yul\":7791:7797   */\n      dup3\n        /* \"#utility.yul\":7780:7789   */\n      dup7\n        /* \"#utility.yul\":7776:7798   */\n      add\n        /* \"#utility.yul\":7755:7808   */\n      tag_345\n      jump\t// in\n    tag_509:\n        /* \"#utility.yul\":7745:7808   */\n      swap3\n      pop\n        /* \"#utility.yul\":7701:7818   */\n      pop\n        /* \"#utility.yul\":7857:7859   */\n      0x20\n        /* \"#utility.yul\":7883:7936   */\n      tag_510\n        /* \"#utility.yul\":7928:7935   */\n      dup6\n        /* \"#utility.yul\":7919:7925   */\n      dup3\n        /* \"#utility.yul\":7908:7917   */\n      dup7\n        /* \"#utility.yul\":7904:7926   */\n      add\n        /* \"#utility.yul\":7883:7936   */\n      tag_345\n      jump\t// in\n    tag_510:\n        /* \"#utility.yul\":7873:7936   */\n      swap2\n      pop\n        /* \"#utility.yul\":7828:7946   */\n      pop\n        /* \"#utility.yul\":7479:7953   */\n      swap3\n      pop\n      swap3\n      swap1\n      pop\n      jump\t// out\n        /* \"#utility.yul\":7959:8036   */\n    tag_365:\n        /* \"#utility.yul\":7996:8003   */\n      0x00\n        /* \"#utility.yul\":8025:8030   */\n      dup2\n        /* \"#utility.yul\":8014:8030   */\n      swap1\n      pop\n        /* \"#utility.yul\":7959:8036   */\n      swap2\n      swap1\n      pop\n      jump\t// out\n        /* \"#utility.yul\":8042:8164   */\n    tag_366:\n        /* \"#utility.yul\":8115:8139   */\n      tag_513\n        /* \"#utility.yul\":8133:8138   */\n      dup2\n        /* \"#utility.yul\":8115:8139   */\n      tag_365\n      jump\t// in\n    tag_513:\n        /* \"#utility.yul\":8108:8113   */\n      dup2\n        /* \"#utility.yul\":8105:8140   */\n      eq\n        /* \"#utility.yul\":8095:8158   */\n      tag_514\n      jumpi\n        /* \"#utility.yul\":8154:8155   */\n      0x00\n        /* \"#utility.yul\":8151:8152   */\n      0x00\n        /* \"#utility.yul\":8144:8156   */\n      revert\n        /* \"#utility.yul\":8095:8158   */\n    tag_514:\n        /* \"#utility.yul\":8042:8164   */\n      pop\n      jump\t// out\n        /* \"#utility.yul\":8170:8309   */\n    tag_367:\n        /* \"#utility.yul\":8216:8221   */\n      0x00\n        /* \"#utility.yul\":8254:8260   */\n      dup2\n        /* \"#utility.yul\":8241:8261   */\n      calldataload\n        /* \"#utility.yul\":8232:8261   */\n      swap1\n      pop\n        /* \"#utility.yul\":8270:8303   */\n      tag_516\n        /* \"#utility.yul\":8297:8302   */\n      dup2\n        /* \"#utility.yul\":8270:8303   */\n      tag_366\n      jump\t// in\n    tag_516:\n        /* \"#utility.yul\":8170:8309   */\n      swap3\n      swap2\n      pop\n      pop\n      jump\t// out\n        /* \"#utility.yul\":8315:8644   */\n    tag_50:\n        /* \"#utility.yul\":8374:8380   */\n      0x00\n        /* \"#utility.yul\":8423:8425   */\n      0x20\n        /* \"#utility.yul\":8411:8420   */\n      dup3\n        /* \"#utility.yul\":8402:8409   */\n      dup5\n        /* \"#utility.yul\":8398:8421   */\n      sub\n        /* \"#utility.yul\":8394:8426   */\n      slt\n        /* \"#utility.yul\":8391:8510   */\n      iszero\n      tag_518\n      jumpi\n        /* \"#utility.yul\":8429:8508   */\n      tag_519\n      tag_336\n      jump\t// in\n    tag_519:\n        /* \"#utility.yul\":8391:8510   */\n    tag_518:\n        /* \"#utility.yul\":8549:8550   */\n      0x00\n        /* \"#utility.yul\":8574:8627   */\n      tag_520\n        /* \"#utility.yul\":8619:8626   */\n      dup5\n        /* \"#utility.yul\":8610:8616   */\n      dup3\n        /* \"#utility.yul\":8599:8608   */\n      dup6\n        /* \"#utility.yul\":8595:8617   */\n      add\n        /* \"#utility.yul\":8574:8627   */\n      tag_367\n      jump\t// in\n    tag_520:\n        /* \"#utility.yul\":8564:8627   */\n      swap2\n      pop\n        /* \"#utility.yul\":8520:8637   */\n      pop\n        /* \"#utility.yul\":8315:8644   */\n      swap3\n      swap2\n      pop\n      pop\n      jump\t// out\n        /* \"#utility.yul\":8650:8768   */\n    tag_368:\n        /* \"#utility.yul\":8737:8761   */\n      tag_522\n        /* \"#utility.yul\":8755:8760   */\n      dup2\n        /* \"#utility.yul\":8737:8761   */\n      tag_365\n      jump\t// in\n    tag_522:\n        /* \"#utility.yul\":8732:8735   */\n      dup3\n        /* \"#utility.yul\":8725:8762   */\n      mstore\n        /* \"#utility.yul\":8650:8768   */\n      pop\n      pop\n      jump\t// out\n        /* \"#utility.yul\":8774:8996   */\n    tag_53:\n        /* \"#utility.yul\":8867:8871   */\n      0x00\n        /* \"#utility.yul\":8905:8907   */\n      0x20\n        /* \"#utility.yul\":8894:8903   */\n      dup3\n        /* \"#utility.yul\":8890:8908   */\n      add\n        /* \"#utility.yul\":8882:8908   */\n      swap1\n      pop\n        /* \"#utility.yul\":8918:8989   */\n      tag_524\n        /* \"#utility.yul\":8986:8987   */\n      0x00\n        /* \"#utility.yul\":8975:8984   */\n      dup4\n        /* \"#utility.yul\":8971:8988   */\n      add\n        /* \"#utility.yul\":8962:8968   */\n      dup5\n        /* \"#utility.yul\":8918:8989   */\n      tag_368\n      jump\t// in\n    tag_524:\n        /* \"#utility.yul\":8774:8996   */\n      swap3\n      swap2\n      pop\n      pop\n      jump\t// out\n        /* \"#utility.yul\":9002:9101   */\n    tag_369:\n        /* \"#utility.yul\":9054:9060   */\n      0x00\n        /* \"#utility.yul\":9088:9093   */\n      dup2\n        /* \"#utility.yul\":9082:9094   */\n      mload\n        /* \"#utility.yul\":9072:9094   */\n      swap1\n      pop\n        /* \"#utility.yul\":9002:9101   */\n      swap2\n      swap1\n      pop\n      jump\t// out\n        /* \"#utility.yul\":9107:9276   */\n    tag_370:\n        /* \"#utility.yul\":9191:9202   */\n      0x00\n        /* \"#utility.yul\":9225:9231   */\n      dup3\n        /* \"#utility.yul\":9220:9223   */\n      dup3\n        /* \"#utility.yul\":9213:9232   */\n      mstore\n        /* \"#utility.yul\":9265:9269   */\n      0x20\n        /* \"#utility.yul\":9260:9263   */\n      dup3\n        /* \"#utility.yul\":9256:9270   */\n      add\n        /* \"#utility.yul\":9241:9270   */\n      swap1\n      pop\n        /* \"#utility.yul\":9107:9276   */\n      swap3\n      swap2\n      pop\n      pop\n      jump\t// out\n        /* \"#utility.yul\":9282:9421   */\n    tag_371:\n        /* \"#utility.yul\":9371:9377   */\n      dup3\n        /* \"#utility.yul\":9366:9369   */\n      dup2\n        /* \"#utility.yul\":9361:9364   */\n      dup4\n        /* \"#utility.yul\":9355:9378   */\n      mcopy\n        /* \"#utility.yul\":9412:9413   */\n      0x00\n        /* \"#utility.yul\":9403:9409   */\n      dup4\n        /* \"#utility.yul\":9398:9401   */\n      dup4\n        /* \"#utility.yul\":9394:9410   */\n      add\n        /* \"#utility.yul\":9387:9414   */\n      mstore\n        /* \"#utility.yul\":9282:9421   */\n      pop\n      pop\n      pop\n      jump\t// out\n        /* \"#utility.yul\":9427:9804   */\n    tag_372:\n        /* \"#utility.yul\":9515:9518   */\n      0x00\n        /* \"#utility.yul\":9543:9582   */\n      tag_529\n        /* \"#utility.yul\":9576:9581   */\n      dup3\n        /* \"#utility.yul\":9543:9582   */\n      tag_369\n      jump\t// in\n    tag_529:\n        /* \"#utility.yul\":9598:9669   */\n      tag_530\n        /* \"#utility.yul\":9662:9668   */\n      dup2\n        /* \"#utility.yul\":9657:9660   */\n      dup6\n        /* \"#utility.yul\":9598:9669   */\n      tag_370\n      jump\t// in\n    tag_530:\n        /* \"#utility.yul\":9591:9669   */\n      swap4\n      pop\n        /* \"#utility.yul\":9678:9743   */\n      tag_531\n        /* \"#utility.yul\":9736:9742   */\n      dup2\n        /* \"#utility.yul\":9731:9734   */\n      dup6\n        /* \"#utility.yul\":9724:9728   */\n      0x20\n        /* \"#utility.yul\":9717:9722   */\n      dup7\n        /* \"#utility.yul\":9713:9729   */\n      add\n        /* \"#utility.yul\":9678:9743   */\n      tag_371\n      jump\t// in\n    tag_531:\n        /* \"#utility.yul\":9768:9797   */\n      tag_532\n        /* \"#utility.yul\":9790:9796   */\n      dup2\n        /* \"#utility.yul\":9768:9797   */\n      tag_357\n      jump\t// in\n    tag_532:\n        /* \"#utility.yul\":9763:9766   */\n      dup5\n        /* \"#utility.yul\":9759:9798   */\n      add\n        /* \"#utility.yul\":9752:9798   */\n      swap2\n      pop\n        /* \"#utility.yul\":9519:9804   */\n      pop\n        /* \"#utility.yul\":9427:9804   */\n      swap3\n      swap2\n      pop\n      pop\n      jump\t// out\n        /* \"#utility.yul\":9810:10755   */\n    tag_58:\n        /* \"#utility.yul\":10077:10081   */\n      0x00\n        /* \"#utility.yul\":10115:10118   */\n      0xc0\n        /* \"#utility.yul\":10104:10113   */\n      dup3\n        /* \"#utility.yul\":10100:10119   */\n      add\n        /* \"#utility.yul\":10092:10119   */\n      swap1\n      pop\n        /* \"#utility.yul\":10129:10200   */\n      tag_534\n        /* \"#utility.yul\":10197:10198   */\n      0x00\n        /* \"#utility.yul\":10186:10195   */\n      dup4\n        /* \"#utility.yul\":10182:10199   */\n      add\n        /* \"#utility.yul\":10173:10179   */\n      dup10\n        /* \"#utility.yul\":10129:10200   */\n      tag_346\n      jump\t// in\n    tag_534:\n        /* \"#utility.yul\":10210:10282   */\n      tag_535\n        /* \"#utility.yul\":10278:10280   */\n      0x20\n        /* \"#utility.yul\":10267:10276   */\n      dup4\n        /* \"#utility.yul\":10263:10281   */\n      add\n        /* \"#utility.yul\":10254:10260   */\n      dup9\n        /* \"#utility.yul\":10210:10282   */\n      tag_349\n      jump\t// in\n    tag_535:\n        /* \"#utility.yul\":10329:10338   */\n      dup2\n        /* \"#utility.yul\":10323:10327   */\n      dup2\n        /* \"#utility.yul\":10319:10339   */\n      sub\n        /* \"#utility.yul\":10314:10316   */\n      0x40\n        /* \"#utility.yul\":10303:10312   */\n      dup4\n        /* \"#utility.yul\":10299:10317   */\n      add\n        /* \"#utility.yul\":10292:10340   */\n      mstore\n        /* \"#utility.yul\":10357:10435   */\n      tag_536\n        /* \"#utility.yul\":10430:10434   */\n      dup2\n        /* \"#utility.yul\":10421:10427   */\n      dup8\n        /* \"#utility.yul\":10357:10435   */\n      tag_372\n      jump\t// in\n    tag_536:\n        /* \"#utility.yul\":10349:10435   */\n      swap1\n      pop\n        /* \"#utility.yul\":10445:10517   */\n      tag_537\n        /* \"#utility.yul\":10513:10515   */\n      0x60\n        /* \"#utility.yul\":10502:10511   */\n      dup4\n        /* \"#utility.yul\":10498:10516   */\n      add\n        /* \"#utility.yul\":10489:10495   */\n      dup7\n        /* \"#utility.yul\":10445:10517   */\n      tag_349\n      jump\t// in\n    tag_537:\n        /* \"#utility.yul\":10527:10594   */\n      tag_538\n        /* \"#utility.yul\":10589:10592   */\n      0x80\n        /* \"#utility.yul\":10578:10587   */\n      dup4\n        /* \"#utility.yul\":10574:10593   */\n      add\n        /* \"#utility.yul\":10565:10571   */\n      dup6\n        /* \"#utility.yul\":10527:10594   */\n      tag_342\n      jump\t// in\n    tag_538:\n        /* \"#utility.yul\":10642:10651   */\n      dup2\n        /* \"#utility.yul\":10636:10640   */\n      dup2\n        /* \"#utility.yul\":10632:10652   */\n      sub\n        /* \"#utility.yul\":10626:10629   */\n      0xa0\n        /* \"#utility.yul\":10615:10624   */\n      dup4\n        /* \"#utility.yul\":10611:10630   */\n      add\n        /* \"#utility.yul\":10604:10653   */\n      mstore\n        /* \"#utility.yul\":10670:10748   */\n      tag_539\n        /* \"#utility.yul\":10743:10747   */\n      dup2\n        /* \"#utility.yul\":10734:10740   */\n      dup5\n        /* \"#utility.yul\":10670:10748   */\n      tag_372\n      jump\t// in\n    tag_539:\n        /* \"#utility.yul\":10662:10748   */\n      swap1\n      pop\n        /* \"#utility.yul\":9810:10755   */\n      swap8\n      swap7\n      pop\n      pop\n      pop\n      pop\n      pop\n      pop\n      pop\n      jump\t// out\n        /* \"#utility.yul\":10761:11235   */\n    tag_61:\n        /* \"#utility.yul\":10829:10835   */\n      0x00\n        /* \"#utility.yul\":10837:10843   */\n      0x00\n        /* \"#utility.yul\":10886:10888   */\n      0x40\n        /* \"#utility.yul\":10874:10883   */\n      dup4\n        /* \"#utility.yul\":10865:10872   */\n      dup6\n        /* \"#utility.yul\":10861:10884   */\n      sub\n        /* \"#utility.yul\":10857:10889   */\n      slt\n        /* \"#utility.yul\":10854:10973   */\n      iszero\n      tag_541\n      jumpi\n        /* \"#utility.yul\":10892:10971   */\n      tag_542\n      tag_336\n      jump\t// in\n    tag_542:\n        /* \"#utility.yul\":10854:10973   */\n    tag_541:\n        /* \"#utility.yul\":11012:11013   */\n      0x00\n        /* \"#utility.yul\":11037:11090   */\n      tag_543\n        /* \"#utility.yul\":11082:11089   */\n      dup6\n        /* \"#utility.yul\":11073:11079   */\n      dup3\n        /* \"#utility.yul\":11062:11071   */\n      dup7\n        /* \"#utility.yul\":11058:11080   */\n      add\n        /* \"#utility.yul\":11037:11090   */\n      tag_367\n      jump\t// in\n    tag_543:\n        /* \"#utility.yul\":11027:11090   */\n      swap3\n      pop\n        /* \"#utility.yul\":10983:11100   */\n      pop\n        /* \"#utility.yul\":11139:11141   */\n      0x20\n        /* \"#utility.yul\":11165:11218   */\n      tag_544\n        /* \"#utility.yul\":11210:11217   */\n      dup6\n        /* \"#utility.yul\":11201:11207   */\n      dup3\n        /* \"#utility.yul\":11190:11199   */\n      dup7\n        /* \"#utility.yul\":11186:11208   */\n      add\n        /* \"#utility.yul\":11165:11218   */\n      tag_355\n      jump\t// in\n    tag_544:\n        /* \"#utility.yul\":11155:11218   */\n      swap2\n      pop\n        /* \"#utility.yul\":11110:11228   */\n      pop\n        /* \"#utility.yul\":10761:11235   */\n      swap3\n      pop\n      swap3\n      swap1\n      pop\n      jump\t// out\n        /* \"#utility.yul\":11241:11715   */\n    tag_68:\n        /* \"#utility.yul\":11309:11315   */\n      0x00\n        /* \"#utility.yul\":11317:11323   */\n      0x00\n        /* \"#utility.yul\":11366:11368   */\n      0x40\n        /* \"#utility.yul\":11354:11363   */\n      dup4\n        /* \"#utility.yul\":11345:11352   */\n      dup6\n        /* \"#utility.yul\":11341:11364   */\n      sub\n        /* \"#utility.yul\":11337:11369   */\n      slt\n        /* \"#utility.yul\":11334:11453   */\n      iszero\n      tag_546\n      jumpi\n        /* \"#utility.yul\":11372:11451   */\n      tag_547\n      tag_336\n      jump\t// in\n    tag_547:\n        /* \"#utility.yul\":11334:11453   */\n    tag_546:\n        /* \"#utility.yul\":11492:11493   */\n      0x00\n        /* \"#utility.yul\":11517:11570   */\n      tag_548\n        /* \"#utility.yul\":11562:11569   */\n      dup6\n        /* \"#utility.yul\":11553:11559   */\n      dup3\n        /* \"#utility.yul\":11542:11551   */\n      dup7\n        /* \"#utility.yul\":11538:11560   */\n      add\n        /* \"#utility.yul\":11517:11570   */\n      tag_355\n      jump\t// in\n    tag_548:\n        /* \"#utility.yul\":11507:11570   */\n      swap3\n      pop\n        /* \"#utility.yul\":11463:11580   */\n      pop\n        /* \"#utility.yul\":11619:11621   */\n      0x20\n        /* \"#utility.yul\":11645:11698   */\n      tag_549\n        /* \"#utility.yul\":11690:11697   */\n      dup6\n        /* \"#utility.yul\":11681:11687   */\n      dup3\n        /* \"#utility.yul\":11670:11679   */\n      dup7\n        /* \"#utility.yul\":11666:11688   */\n      add\n        /* \"#utility.yul\":11645:11698   */\n      tag_345\n      jump\t// in\n    tag_549:\n        /* \"#utility.yul\":11635:11698   */\n      swap2\n      pop\n        /* \"#utility.yul\":11590:11708   */\n      pop\n        /* \"#utility.yul\":11241:11715   */\n      swap3\n      pop\n      swap3\n      swap1\n      pop\n      jump\t// out\n        /* \"#utility.yul\":11721:11943   */\n    tag_71:\n        /* \"#utility.yul\":11814:11818   */\n      0x00\n        /* \"#utility.yul\":11852:11854   */\n      0x20\n        /* \"#utility.yul\":11841:11850   */\n      dup3\n        /* \"#utility.yul\":11837:11855   */\n      add\n        /* \"#utility.yul\":11829:11855   */\n      swap1\n      pop\n        /* \"#utility.yul\":11865:11936   */\n      tag_551\n        /* \"#utility.yul\":11933:11934   */\n      0x00\n        /* \"#utility.yul\":11922:11931   */\n      dup4\n        /* \"#utility.yul\":11918:11935   */\n      add\n        /* \"#utility.yul\":11909:11915   */\n      dup5\n        /* \"#utility.yul\":11865:11936   */\n      tag_346\n      jump\t// in\n    tag_551:\n        /* \"#utility.yul\":11721:11943   */\n      swap3\n      swap2\n      pop\n      pop\n      jump\t// out\n        /* \"#utility.yul\":11949:12089   */\n    tag_373:\n        /* \"#utility.yul\":12042:12048   */\n      0x00\n        /* \"#utility.yul\":12076:12081   */\n      dup2\n        /* \"#utility.yul\":12070:12082   */\n      mload\n        /* \"#utility.yul\":12060:12082   */\n      swap1\n      pop\n        /* \"#utility.yul\":11949:12089   */\n      swap2\n      swap1\n      pop\n      jump\t// out\n        /* \"#utility.yul\":12095:12305   */\n    tag_374:\n        /* \"#utility.yul\":12220:12231   */\n      0x00\n        /* \"#utility.yul\":12254:12260   */\n      dup3\n        /* \"#utility.yul\":12249:12252   */\n      dup3\n        /* \"#utility.yul\":12242:12261   */\n      mstore\n        /* \"#utility.yul\":12294:12298   */\n      0x20\n        /* \"#utility.yul\":12289:12292   */\n      dup3\n        /* \"#utility.yul\":12285:12299   */\n      add\n        /* \"#utility.yul\":12270:12299   */\n      swap1\n      pop\n        /* \"#utility.yul\":12095:12305   */\n      swap3\n      swap2\n      pop\n      pop\n      jump\t// out\n        /* \"#utility.yul\":12311:12469   */\n    tag_375:\n        /* \"#utility.yul\":12404:12408   */\n      0x00\n        /* \"#utility.yul\":12427:12430   */\n      dup2\n        /* \"#utility.yul\":12419:12430   */\n      swap1\n      pop\n        /* \"#utility.yul\":12457:12461   */\n      0x20\n        /* \"#utility.yul\":12452:12455   */\n      dup3\n        /* \"#utility.yul\":12448:12462   */\n      add\n        /* \"#utility.yul\":12440:12462   */\n      swap1\n      pop\n        /* \"#utility.yul\":12311:12469   */\n      swap2\n      swap1\n      pop\n      jump\t// out\n        /* \"#utility.yul\":12475:12583   */\n    tag_376:\n        /* \"#utility.yul\":12552:12576   */\n      tag_556\n        /* \"#utility.yul\":12570:12575   */\n      dup2\n        /* \"#utility.yul\":12552:12576   */\n      tag_343\n      jump\t// in\n    tag_556:\n        /* \"#utility.yul\":12547:12550   */\n      dup3\n        /* \"#utility.yul\":12540:12577   */\n      mstore\n        /* \"#utility.yul\":12475:12583   */\n      pop\n      pop\n      jump\t// out\n        /* \"#utility.yul\":12589:12688   */\n    tag_377:\n        /* \"#utility.yul\":12660:12681   */\n      tag_558\n        /* \"#utility.yul\":12675:12680   */\n      dup2\n        /* \"#utility.yul\":12660:12681   */\n      tag_341\n      jump\t// in\n    tag_558:\n        /* \"#utility.yul\":12655:12658   */\n      dup3\n        /* \"#utility.yul\":12648:12682   */\n      mstore\n        /* \"#utility.yul\":12589:12688   */\n      pop\n      pop\n      jump\t// out\n        /* \"#utility.yul\":12694:12818   */\n    tag_378:\n        /* \"#utility.yul\":12786:12787   */\n      0x05\n        /* \"#utility.yul\":12779:12784   */\n      dup2\n        /* \"#utility.yul\":12776:12788   */\n      lt\n        /* \"#utility.yul\":12766:12812   */\n      tag_560\n      jumpi\n        /* \"#utility.yul\":12792:12810   */\n      tag_561\n      tag_140\n      jump\t// in\n    tag_561:\n        /* \"#utility.yul\":12766:12812   */\n    tag_560:\n        /* \"#utility.yul\":12694:12818   */\n      pop\n      jump\t// out\n        /* \"#utility.yul\":12824:12973   */\n    tag_379:\n        /* \"#utility.yul\":12880:12887   */\n      0x00\n        /* \"#utility.yul\":12909:12914   */\n      dup2\n        /* \"#utility.yul\":12898:12914   */\n      swap1\n      pop\n        /* \"#utility.yul\":12915:12967   */\n      tag_563\n        /* \"#utility.yul\":12961:12966   */\n      dup3\n        /* \"#utility.yul\":12915:12967   */\n      tag_378\n      jump\t// in\n    tag_563:\n        /* \"#utility.yul\":12824:12973   */\n      swap2\n      swap1\n      pop\n      jump\t// out\n        /* \"#utility.yul\":12979:13128   */\n    tag_380:\n        /* \"#utility.yul\":13046:13055   */\n      0x00\n        /* \"#utility.yul\":13079:13122   */\n      tag_565\n        /* \"#utility.yul\":13116:13121   */\n      dup3\n        /* \"#utility.yul\":13079:13122   */\n      tag_379\n      jump\t// in\n    tag_565:\n        /* \"#utility.yul\":13066:13122   */\n      swap1\n      pop\n        /* \"#utility.yul\":12979:13128   */\n      swap2\n      swap1\n      pop\n      jump\t// out\n        /* \"#utility.yul\":13134:13289   */\n    tag_381:\n        /* \"#utility.yul\":13228:13282   */\n      tag_567\n        /* \"#utility.yul\":13276:13281   */\n      dup2\n        /* \"#utility.yul\":13228:13282   */\n      tag_380\n      jump\t// in\n    tag_567:\n        /* \"#utility.yul\":13223:13226   */\n      dup3\n        /* \"#utility.yul\":13216:13283   */\n      mstore\n        /* \"#utility.yul\":13134:13289   */\n      pop\n      pop\n      jump\t// out\n        /* \"#utility.yul\":13353:14050   */\n    tag_382:\n        /* \"#utility.yul\":13492:13496   */\n      0x60\n        /* \"#utility.yul\":13487:13490   */\n      dup3\n        /* \"#utility.yul\":13483:13497   */\n      add\n        /* \"#utility.yul\":13581:13585   */\n      0x00\n        /* \"#utility.yul\":13574:13579   */\n      dup3\n        /* \"#utility.yul\":13570:13586   */\n      add\n        /* \"#utility.yul\":13564:13587   */\n      mload\n        /* \"#utility.yul\":13600:13663   */\n      tag_569\n        /* \"#utility.yul\":13657:13661   */\n      0x00\n        /* \"#utility.yul\":13652:13655   */\n      dup6\n        /* \"#utility.yul\":13648:13662   */\n      add\n        /* \"#utility.yul\":13634:13646   */\n      dup3\n        /* \"#utility.yul\":13600:13663   */\n      tag_376\n      jump\t// in\n    tag_569:\n        /* \"#utility.yul\":13507:13673   */\n      pop\n        /* \"#utility.yul\":13755:13759   */\n      0x20\n        /* \"#utility.yul\":13748:13753   */\n      dup3\n        /* \"#utility.yul\":13744:13760   */\n      add\n        /* \"#utility.yul\":13738:13761   */\n      mload\n        /* \"#utility.yul\":13774:13831   */\n      tag_570\n        /* \"#utility.yul\":13825:13829   */\n      0x20\n        /* \"#utility.yul\":13820:13823   */\n      dup6\n        /* \"#utility.yul\":13816:13830   */\n      add\n        /* \"#utility.yul\":13802:13814   */\n      dup3\n        /* \"#utility.yul\":13774:13831   */\n      tag_377\n      jump\t// in\n    tag_570:\n        /* \"#utility.yul\":13683:13841   */\n      pop\n        /* \"#utility.yul\":13934:13938   */\n      0x40\n        /* \"#utility.yul\":13927:13932   */\n      dup3\n        /* \"#utility.yul\":13923:13939   */\n      add\n        /* \"#utility.yul\":13917:13940   */\n      mload\n        /* \"#utility.yul\":13953:14033   */\n      tag_571\n        /* \"#utility.yul\":14027:14031   */\n      0x40\n        /* \"#utility.yul\":14022:14025   */\n      dup6\n        /* \"#utility.yul\":14018:14032   */\n      add\n        /* \"#utility.yul\":14004:14016   */\n      dup3\n        /* \"#utility.yul\":13953:14033   */\n      tag_381\n      jump\t// in\n    tag_571:\n        /* \"#utility.yul\":13851:14043   */\n      pop\n        /* \"#utility.yul\":13461:14050   */\n      pop\n        /* \"#utility.yul\":13353:14050   */\n      pop\n      pop\n      jump\t// out\n        /* \"#utility.yul\":14056:14339   */\n    tag_383:\n        /* \"#utility.yul\":14177:14187   */\n      0x00\n        /* \"#utility.yul\":14198:14296   */\n      tag_573\n        /* \"#utility.yul\":14292:14295   */\n      dup4\n        /* \"#utility.yul\":14284:14290   */\n      dup4\n        /* \"#utility.yul\":14198:14296   */\n      tag_382\n      jump\t// in\n    tag_573:\n        /* \"#utility.yul\":14328:14332   */\n      0x60\n        /* \"#utility.yul\":14323:14326   */\n      dup4\n        /* \"#utility.yul\":14319:14333   */\n      add\n        /* \"#utility.yul\":14305:14333   */\n      swap1\n      pop\n        /* \"#utility.yul\":14056:14339   */\n      swap3\n      swap2\n      pop\n      pop\n      jump\t// out\n        /* \"#utility.yul\":14345:14484   */\n    tag_384:\n        /* \"#utility.yul\":14441:14445   */\n      0x00\n        /* \"#utility.yul\":14473:14477   */\n      0x20\n        /* \"#utility.yul\":14468:14471   */\n      dup3\n        /* \"#utility.yul\":14464:14478   */\n      add\n        /* \"#utility.yul\":14456:14478   */\n      swap1\n      pop\n        /* \"#utility.yul\":14345:14484   */\n      swap2\n      swap1\n      pop\n      jump\t// out\n        /* \"#utility.yul\":14552:15492   */\n    tag_385:\n        /* \"#utility.yul\":14723:14726   */\n      0x00\n        /* \"#utility.yul\":14752:14832   */\n      tag_576\n        /* \"#utility.yul\":14826:14831   */\n      dup3\n        /* \"#utility.yul\":14752:14832   */\n      tag_373\n      jump\t// in\n    tag_576:\n        /* \"#utility.yul\":14848:14960   */\n      tag_577\n        /* \"#utility.yul\":14953:14959   */\n      dup2\n        /* \"#utility.yul\":14948:14951   */\n      dup6\n        /* \"#utility.yul\":14848:14960   */\n      tag_374\n      jump\t// in\n    tag_577:\n        /* \"#utility.yul\":14841:14960   */\n      swap4\n      pop\n        /* \"#utility.yul\":14984:15066   */\n      tag_578\n        /* \"#utility.yul\":15060:15065   */\n      dup4\n        /* \"#utility.yul\":14984:15066   */\n      tag_375\n      jump\t// in\n    tag_578:\n        /* \"#utility.yul\":15089:15096   */\n      dup1\n        /* \"#utility.yul\":15120:15121   */\n      0x00\n        /* \"#utility.yul\":15105:15467   */\n    tag_579:\n        /* \"#utility.yul\":15130:15136   */\n      dup4\n        /* \"#utility.yul\":15127:15128   */\n      dup2\n        /* \"#utility.yul\":15124:15137   */\n      lt\n        /* \"#utility.yul\":15105:15467   */\n      iszero\n      tag_581\n      jumpi\n        /* \"#utility.yul\":15206:15212   */\n      dup2\n        /* \"#utility.yul\":15200:15213   */\n      mload\n        /* \"#utility.yul\":15233:15348   */\n      tag_582\n        /* \"#utility.yul\":15344:15347   */\n      dup9\n        /* \"#utility.yul\":15329:15342   */\n      dup3\n        /* \"#utility.yul\":15233:15348   */\n      tag_383\n      jump\t// in\n    tag_582:\n        /* \"#utility.yul\":15226:15348   */\n      swap8\n      pop\n        /* \"#utility.yul\":15371:15457   */\n      tag_583\n        /* \"#utility.yul\":15450:15456   */\n      dup4\n        /* \"#utility.yul\":15371:15457   */\n      tag_384\n      jump\t// in\n    tag_583:\n        /* \"#utility.yul\":15361:15457   */\n      swap3\n      pop\n        /* \"#utility.yul\":15165:15467   */\n      pop\n        /* \"#utility.yul\":15152:15153   */\n      0x01\n        /* \"#utility.yul\":15149:15150   */\n      dup2\n        /* \"#utility.yul\":15145:15154   */\n      add\n        /* \"#utility.yul\":15140:15154   */\n      swap1\n      pop\n        /* \"#utility.yul\":15105:15467   */\n      jump(tag_579)\n    tag_581:\n        /* \"#utility.yul\":15109:15123   */\n      pop\n        /* \"#utility.yul\":15483:15486   */\n      dup6\n        /* \"#utility.yul\":15476:15486   */\n      swap4\n      pop\n        /* \"#utility.yul\":14728:15492   */\n      pop\n      pop\n      pop\n        /* \"#utility.yul\":14552:15492   */\n      swap3\n      swap2\n      pop\n      pop\n      jump\t// out\n        /* \"#utility.yul\":15498:15975   */\n    tag_76:\n        /* \"#utility.yul\":15693:15697   */\n      0x00\n        /* \"#utility.yul\":15731:15733   */\n      0x20\n        /* \"#utility.yul\":15720:15729   */\n      dup3\n        /* \"#utility.yul\":15716:15734   */\n      add\n        /* \"#utility.yul\":15708:15734   */\n      swap1\n      pop\n        /* \"#utility.yul\":15780:15789   */\n      dup2\n        /* \"#utility.yul\":15774:15778   */\n      dup2\n        /* \"#utility.yul\":15770:15790   */\n      sub\n        /* \"#utility.yul\":15766:15767   */\n      0x00\n        /* \"#utility.yul\":15755:15764   */\n      dup4\n        /* \"#utility.yul\":15751:15768   */\n      add\n        /* \"#utility.yul\":15744:15791   */\n      mstore\n        /* \"#utility.yul\":15808:15968   */\n      tag_585\n        /* \"#utility.yul\":15963:15967   */\n      dup2\n        /* \"#utility.yul\":15954:15960   */\n      dup5\n        /* \"#utility.yul\":15808:15968   */\n      tag_385\n      jump\t// in\n    tag_585:\n        /* \"#utility.yul\":15800:15968   */\n      swap1\n      pop\n        /* \"#utility.yul\":15498:15975   */\n      swap3\n      swap2\n      pop\n      pop\n      jump\t// out\n        /* \"#utility.yul\":15981:16097   */\n    tag_386:\n        /* \"#utility.yul\":16051:16072   */\n      tag_587\n        /* \"#utility.yul\":16066:16071   */\n      dup2\n        /* \"#utility.yul\":16051:16072   */\n      tag_341\n      jump\t// in\n    tag_587:\n        /* \"#utility.yul\":16044:16049   */\n      dup2\n        /* \"#utility.yul\":16041:16073   */\n      eq\n        /* \"#utility.yul\":16031:16091   */\n      tag_588\n      jumpi\n        /* \"#utility.yul\":16087:16088   */\n      0x00\n        /* \"#utility.yul\":16084:16085   */\n      0x00\n        /* \"#utility.yul\":16077:16089   */\n      revert\n        /* \"#utility.yul\":16031:16091   */\n    tag_588:\n        /* \"#utility.yul\":15981:16097   */\n      pop\n      jump\t// out\n        /* \"#utility.yul\":16103:16236   */\n    tag_387:\n        /* \"#utility.yul\":16146:16151   */\n      0x00\n        /* \"#utility.yul\":16184:16190   */\n      dup2\n        /* \"#utility.yul\":16171:16191   */\n      calldataload\n        /* \"#utility.yul\":16162:16191   */\n      swap1\n      pop\n        /* \"#utility.yul\":16200:16230   */\n      tag_590\n        /* \"#utility.yul\":16224:16229   */\n      dup2\n        /* \"#utility.yul\":16200:16230   */\n      tag_386\n      jump\t// in\n    tag_590:\n        /* \"#utility.yul\":16103:16236   */\n      swap3\n      swap2\n      pop\n      pop\n      jump\t// out\n        /* \"#utility.yul\":16242:16359   */\n    tag_388:\n        /* \"#utility.yul\":16351:16352   */\n      0x00\n        /* \"#utility.yul\":16348:16349   */\n      0x00\n        /* \"#utility.yul\":16341:16353   */\n      revert\n        /* \"#utility.yul\":16379:16932   */\n    tag_389:\n        /* \"#utility.yul\":16437:16445   */\n      0x00\n        /* \"#utility.yul\":16447:16453   */\n      0x00\n        /* \"#utility.yul\":16497:16500   */\n      dup4\n        /* \"#utility.yul\":16490:16494   */\n      0x1f\n        /* \"#utility.yul\":16482:16488   */\n      dup5\n        /* \"#utility.yul\":16478:16495   */\n      add\n        /* \"#utility.yul\":16474:16501   */\n      slt\n        /* \"#utility.yul\":16464:16586   */\n      tag_593\n      jumpi\n        /* \"#utility.yul\":16505:16584   */\n      tag_594\n      tag_356\n      jump\t// in\n    tag_594:\n        /* \"#utility.yul\":16464:16586   */\n    tag_593:\n        /* \"#utility.yul\":16618:16624   */\n      dup3\n        /* \"#utility.yul\":16605:16625   */\n      calldataload\n        /* \"#utility.yul\":16595:16625   */\n      swap1\n      pop\n        /* \"#utility.yul\":16648:16666   */\n      0xffffffffffffffff\n        /* \"#utility.yul\":16640:16646   */\n      dup2\n        /* \"#utility.yul\":16637:16667   */\n      gt\n        /* \"#utility.yul\":16634:16751   */\n      iszero\n      tag_595\n      jumpi\n        /* \"#utility.yul\":16670:16749   */\n      tag_596\n      tag_388\n      jump\t// in\n    tag_596:\n        /* \"#utility.yul\":16634:16751   */\n    tag_595:\n        /* \"#utility.yul\":16784:16788   */\n      0x20\n        /* \"#utility.yul\":16776:16782   */\n      dup4\n        /* \"#utility.yul\":16772:16789   */\n      add\n        /* \"#utility.yul\":16760:16789   */\n      swap2\n      pop\n        /* \"#utility.yul\":16838:16841   */\n      dup4\n        /* \"#utility.yul\":16830:16834   */\n      0x01\n        /* \"#utility.yul\":16822:16828   */\n      dup3\n        /* \"#utility.yul\":16818:16835   */\n      mul\n        /* \"#utility.yul\":16808:16816   */\n      dup4\n        /* \"#utility.yul\":16804:16836   */\n      add\n        /* \"#utility.yul\":16801:16842   */\n      gt\n        /* \"#utility.yul\":16798:16926   */\n      iszero\n      tag_597\n      jumpi\n        /* \"#utility.yul\":16845:16924   */\n      tag_598\n      tag_362\n      jump\t// in\n    tag_598:\n        /* \"#utility.yul\":16798:16926   */\n    tag_597:\n        /* \"#utility.yul\":16379:16932   */\n      swap3\n      pop\n      swap3\n      swap1\n      pop\n      jump\t// out\n        /* \"#utility.yul\":16938:17897   */\n    tag_81:\n        /* \"#utility.yul\":17033:17039   */\n      0x00\n        /* \"#utility.yul\":17041:17047   */\n      0x00\n        /* \"#utility.yul\":17049:17055   */\n      0x00\n        /* \"#utility.yul\":17057:17063   */\n      0x00\n        /* \"#utility.yul\":17065:17071   */\n      0x00\n        /* \"#utility.yul\":17114:17117   */\n      0x80\n        /* \"#utility.yul\":17102:17111   */\n      dup7\n        /* \"#utility.yul\":17093:17100   */\n      dup9\n        /* \"#utility.yul\":17089:17112   */\n      sub\n        /* \"#utility.yul\":17085:17118   */\n      slt\n        /* \"#utility.yul\":17082:17202   */\n      iszero\n      tag_600\n      jumpi\n        /* \"#utility.yul\":17121:17200   */\n      tag_601\n      tag_336\n      jump\t// in\n    tag_601:\n        /* \"#utility.yul\":17082:17202   */\n    tag_600:\n        /* \"#utility.yul\":17241:17242   */\n      0x00\n        /* \"#utility.yul\":17266:17319   */\n      tag_602\n        /* \"#utility.yul\":17311:17318   */\n      dup9\n        /* \"#utility.yul\":17302:17308   */\n      dup3\n        /* \"#utility.yul\":17291:17300   */\n      dup10\n        /* \"#utility.yul\":17287:17309   */\n      add\n        /* \"#utility.yul\":17266:17319   */\n      tag_345\n      jump\t// in\n    tag_602:\n        /* \"#utility.yul\":17256:17319   */\n      swap6\n      pop\n        /* \"#utility.yul\":17212:17329   */\n      pop\n        /* \"#utility.yul\":17368:17370   */\n      0x20\n        /* \"#utility.yul\":17394:17447   */\n      tag_603\n        /* \"#utility.yul\":17439:17446   */\n      dup9\n        /* \"#utility.yul\":17430:17436   */\n      dup3\n        /* \"#utility.yul\":17419:17428   */\n      dup10\n        /* \"#utility.yul\":17415:17437   */\n      add\n        /* \"#utility.yul\":17394:17447   */\n      tag_345\n      jump\t// in\n    tag_603:\n        /* \"#utility.yul\":17384:17447   */\n      swap5\n      pop\n        /* \"#utility.yul\":17339:17457   */\n      pop\n        /* \"#utility.yul\":17496:17498   */\n      0x40\n        /* \"#utility.yul\":17522:17572   */\n      tag_604\n        /* \"#utility.yul\":17564:17571   */\n      dup9\n        /* \"#utility.yul\":17555:17561   */\n      dup3\n        /* \"#utility.yul\":17544:17553   */\n      dup10\n        /* \"#utility.yul\":17540:17562   */\n      add\n        /* \"#utility.yul\":17522:17572   */\n      tag_387\n      jump\t// in\n    tag_604:\n        /* \"#utility.yul\":17512:17572   */\n      swap4\n      pop\n        /* \"#utility.yul\":17467:17582   */\n      pop\n        /* \"#utility.yul\":17649:17651   */\n      0x60\n        /* \"#utility.yul\":17638:17647   */\n      dup7\n        /* \"#utility.yul\":17634:17652   */\n      add\n        /* \"#utility.yul\":17621:17653   */\n      calldataload\n        /* \"#utility.yul\":17680:17698   */\n      0xffffffffffffffff\n        /* \"#utility.yul\":17672:17678   */\n      dup2\n        /* \"#utility.yul\":17669:17699   */\n      gt\n        /* \"#utility.yul\":17666:17783   */\n      iszero\n      tag_605\n      jumpi\n        /* \"#utility.yul\":17702:17781   */\n      tag_606\n      tag_337\n      jump\t// in\n    tag_606:\n        /* \"#utility.yul\":17666:17783   */\n    tag_605:\n        /* \"#utility.yul\":17815:17880   */\n      tag_607\n        /* \"#utility.yul\":17872:17879   */\n      dup9\n        /* \"#utility.yul\":17863:17869   */\n      dup3\n        /* \"#utility.yul\":17852:17861   */\n      dup10\n        /* \"#utility.yul\":17848:17870   */\n      add\n        /* \"#utility.yul\":17815:17880   */\n      tag_389\n      jump\t// in\n    tag_607:\n        /* \"#utility.yul\":17797:17880   */\n      swap3\n      pop\n      swap3\n      pop\n        /* \"#utility.yul\":17592:17890   */\n      pop\n        /* \"#utility.yul\":16938:17897   */\n      swap3\n      swap6\n      pop\n      swap3\n      swap6\n      swap1\n      swap4\n      pop\n      jump\t// out\n        /* \"#utility.yul\":17903:18125   */\n    tag_86:\n        /* \"#utility.yul\":17996:18000   */\n      0x00\n        /* \"#utility.yul\":18034:18036   */\n      0x20\n        /* \"#utility.yul\":18023:18032   */\n      dup3\n        /* \"#utility.yul\":18019:18037   */\n      add\n        /* \"#utility.yul\":18011:18037   */\n      swap1\n      pop\n        /* \"#utility.yul\":18047:18118   */\n      tag_609\n        /* \"#utility.yul\":18115:18116   */\n      0x00\n        /* \"#utility.yul\":18104:18113   */\n      dup4\n        /* \"#utility.yul\":18100:18117   */\n      add\n        /* \"#utility.yul\":18091:18097   */\n      dup5\n        /* \"#utility.yul\":18047:18118   */\n      tag_349\n      jump\t// in\n    tag_609:\n        /* \"#utility.yul\":17903:18125   */\n      swap3\n      swap2\n      pop\n      pop\n      jump\t// out\n        /* \"#utility.yul\":18131:18191   */\n    tag_390:\n        /* \"#utility.yul\":18159:18162   */\n      0x00\n        /* \"#utility.yul\":18180:18185   */\n      dup2\n        /* \"#utility.yul\":18173:18185   */\n      swap1\n      pop\n        /* \"#utility.yul\":18131:18191   */\n      swap2\n      swap1\n      pop\n      jump\t// out\n        /* \"#utility.yul\":18197:18339   */\n    tag_391:\n        /* \"#utility.yul\":18247:18256   */\n      0x00\n        /* \"#utility.yul\":18280:18333   */\n      tag_612\n        /* \"#utility.yul\":18298:18332   */\n      tag_613\n        /* \"#utility.yul\":18307:18331   */\n      tag_614\n        /* \"#utility.yul\":18325:18330   */\n      dup5\n        /* \"#utility.yul\":18307:18331   */\n      tag_347\n      jump\t// in\n    tag_614:\n        /* \"#utility.yul\":18298:18332   */\n      tag_390\n      jump\t// in\n    tag_613:\n        /* \"#utility.yul\":18280:18333   */\n      tag_347\n      jump\t// in\n    tag_612:\n        /* \"#utility.yul\":18267:18333   */\n      swap1\n      pop\n        /* \"#utility.yul\":18197:18339   */\n      swap2\n      swap1\n      pop\n      jump\t// out\n        /* \"#utility.yul\":18345:18471   */\n    tag_392:\n        /* \"#utility.yul\":18395:18404   */\n      0x00\n        /* \"#utility.yul\":18428:18465   */\n      tag_616\n        /* \"#utility.yul\":18459:18464   */\n      dup3\n        /* \"#utility.yul\":18428:18465   */\n      tag_391\n      jump\t// in\n    tag_616:\n        /* \"#utility.yul\":18415:18465   */\n      swap1\n      pop\n        /* \"#utility.yul\":18345:18471   */\n      swap2\n      swap1\n      pop\n      jump\t// out\n        /* \"#utility.yul\":18477:18617   */\n    tag_393:\n        /* \"#utility.yul\":18541:18550   */\n      0x00\n        /* \"#utility.yul\":18574:18611   */\n      tag_618\n        /* \"#utility.yul\":18605:18610   */\n      dup3\n        /* \"#utility.yul\":18574:18611   */\n      tag_392\n      jump\t// in\n    tag_618:\n        /* \"#utility.yul\":18561:18611   */\n      swap1\n      pop\n        /* \"#utility.yul\":18477:18617   */\n      swap2\n      swap1\n      pop\n      jump\t// out\n        /* \"#utility.yul\":18623:18782   */\n    tag_394:\n        /* \"#utility.yul\":18724:18775   */\n      tag_620\n        /* \"#utility.yul\":18769:18774   */\n      dup2\n        /* \"#utility.yul\":18724:18775   */\n      tag_393\n      jump\t// in\n    tag_620:\n        /* \"#utility.yul\":18719:18722   */\n      dup3\n        /* \"#utility.yul\":18712:18776   */\n      mstore\n        /* \"#utility.yul\":18623:18782   */\n      pop\n      pop\n      jump\t// out\n        /* \"#utility.yul\":18788:19038   */\n    tag_94:\n        /* \"#utility.yul\":18895:18899   */\n      0x00\n        /* \"#utility.yul\":18933:18935   */\n      0x20\n        /* \"#utility.yul\":18922:18931   */\n      dup3\n        /* \"#utility.yul\":18918:18936   */\n      add\n        /* \"#utility.yul\":18910:18936   */\n      swap1\n      pop\n        /* \"#utility.yul\":18946:19031   */\n      tag_622\n        /* \"#utility.yul\":19028:19029   */\n      0x00\n        /* \"#utility.yul\":19017:19026   */\n      dup4\n        /* \"#utility.yul\":19013:19030   */\n      add\n        /* \"#utility.yul\":19004:19010   */\n      dup5\n        /* \"#utility.yul\":18946:19031   */\n      tag_394\n      jump\t// in\n    tag_622:\n        /* \"#utility.yul\":18788:19038   */\n      swap3\n      swap2\n      pop\n      pop\n      jump\t// out\n        /* \"#utility.yul\":19044:19663   */\n    tag_100:\n        /* \"#utility.yul\":19121:19127   */\n      0x00\n        /* \"#utility.yul\":19129:19135   */\n      0x00\n        /* \"#utility.yul\":19137:19143   */\n      0x00\n        /* \"#utility.yul\":19186:19188   */\n      0x60\n        /* \"#utility.yul\":19174:19183   */\n      dup5\n        /* \"#utility.yul\":19165:19172   */\n      dup7\n        /* \"#utility.yul\":19161:19184   */\n      sub\n        /* \"#utility.yul\":19157:19189   */\n      slt\n        /* \"#utility.yul\":19154:19273   */\n      iszero\n      tag_624\n      jumpi\n        /* \"#utility.yul\":19192:19271   */\n      tag_625\n      tag_336\n      jump\t// in\n    tag_625:\n        /* \"#utility.yul\":19154:19273   */\n    tag_624:\n        /* \"#utility.yul\":19312:19313   */\n      0x00\n        /* \"#utility.yul\":19337:19390   */\n      tag_626\n        /* \"#utility.yul\":19382:19389   */\n      dup7\n        /* \"#utility.yul\":19373:19379   */\n      dup3\n        /* \"#utility.yul\":19362:19371   */\n      dup8\n        /* \"#utility.yul\":19358:19380   */\n      add\n        /* \"#utility.yul\":19337:19390   */\n      tag_345\n      jump\t// in\n    tag_626:\n        /* \"#utility.yul\":19327:19390   */\n      swap4\n      pop\n        /* \"#utility.yul\":19283:19400   */\n      pop\n        /* \"#utility.yul\":19439:19441   */\n      0x20\n        /* \"#utility.yul\":19465:19518   */\n      tag_627\n        /* \"#utility.yul\":19510:19517   */\n      dup7\n        /* \"#utility.yul\":19501:19507   */\n      dup3\n        /* \"#utility.yul\":19490:19499   */\n      dup8\n        /* \"#utility.yul\":19486:19508   */\n      add\n        /* \"#utility.yul\":19465:19518   */\n      tag_345\n      jump\t// in\n    tag_627:\n        /* \"#utility.yul\":19455:19518   */\n      swap3\n      pop\n        /* \"#utility.yul\":19410:19528   */\n      pop\n        /* \"#utility.yul\":19567:19569   */\n      0x40\n        /* \"#utility.yul\":19593:19646   */\n      tag_628\n        /* \"#utility.yul\":19638:19645   */\n      dup7\n        /* \"#utility.yul\":19629:19635   */\n      dup3\n        /* \"#utility.yul\":19618:19627   */\n      dup8\n        /* \"#utility.yul\":19614:19636   */\n      add\n        /* \"#utility.yul\":19593:19646   */\n      tag_355\n      jump\t// in\n    tag_628:\n        /* \"#utility.yul\":19583:19646   */\n      swap2\n      pop\n        /* \"#utility.yul\":19538:19656   */\n      pop\n        /* \"#utility.yul\":19044:19663   */\n      swap3\n      pop\n      swap3\n      pop\n      swap3\n      jump\t// out\n        /* \"#utility.yul\":19669:20488   */\n    tag_104:\n        /* \"#utility.yul\":19758:19764   */\n      0x00\n        /* \"#utility.yul\":19766:19772   */\n      0x00\n        /* \"#utility.yul\":19774:19780   */\n      0x00\n        /* \"#utility.yul\":19782:19788   */\n      0x00\n        /* \"#utility.yul\":19831:19833   */\n      0x60\n        /* \"#utility.yul\":19819:19828   */\n      dup6\n        /* \"#utility.yul\":19810:19817   */\n      dup8\n        /* \"#utility.yul\":19806:19829   */\n      sub\n        /* \"#utility.yul\":19802:19834   */\n      slt\n        /* \"#utility.yul\":19799:19918   */\n      iszero\n      tag_630\n      jumpi\n        /* \"#utility.yul\":19837:19916   */\n      tag_631\n      tag_336\n      jump\t// in\n    tag_631:\n        /* \"#utility.yul\":19799:19918   */\n    tag_630:\n        /* \"#utility.yul\":19957:19958   */\n      0x00\n        /* \"#utility.yul\":19982:20035   */\n      tag_632\n        /* \"#utility.yul\":20027:20034   */\n      dup8\n        /* \"#utility.yul\":20018:20024   */\n      dup3\n        /* \"#utility.yul\":20007:20016   */\n      dup9\n        /* \"#utility.yul\":20003:20025   */\n      add\n        /* \"#utility.yul\":19982:20035   */\n      tag_345\n      jump\t// in\n    tag_632:\n        /* \"#utility.yul\":19972:20035   */\n      swap5\n      pop\n        /* \"#utility.yul\":19928:20045   */\n      pop\n        /* \"#utility.yul\":20084:20086   */\n      0x20\n        /* \"#utility.yul\":20110:20163   */\n      tag_633\n        /* \"#utility.yul\":20155:20162   */\n      dup8\n        /* \"#utility.yul\":20146:20152   */\n      dup3\n        /* \"#utility.yul\":20135:20144   */\n      dup9\n        /* \"#utility.yul\":20131:20153   */\n      add\n        /* \"#utility.yul\":20110:20163   */\n      tag_345\n      jump\t// in\n    tag_633:\n        /* \"#utility.yul\":20100:20163   */\n      swap4\n      pop\n        /* \"#utility.yul\":20055:20173   */\n      pop\n        /* \"#utility.yul\":20240:20242   */\n      0x40\n        /* \"#utility.yul\":20229:20238   */\n      dup6\n        /* \"#utility.yul\":20225:20243   */\n      add\n        /* \"#utility.yul\":20212:20244   */\n      calldataload\n        /* \"#utility.yul\":20271:20289   */\n      0xffffffffffffffff\n        /* \"#utility.yul\":20263:20269   */\n      dup2\n        /* \"#utility.yul\":20260:20290   */\n      gt\n        /* \"#utility.yul\":20257:20374   */\n      iszero\n      tag_634\n      jumpi\n        /* \"#utility.yul\":20293:20372   */\n      tag_635\n      tag_337\n      jump\t// in\n    tag_635:\n        /* \"#utility.yul\":20257:20374   */\n    tag_634:\n        /* \"#utility.yul\":20406:20471   */\n      tag_636\n        /* \"#utility.yul\":20463:20470   */\n      dup8\n        /* \"#utility.yul\":20454:20460   */\n      dup3\n        /* \"#utility.yul\":20443:20452   */\n      dup9\n        /* \"#utility.yul\":20439:20461   */\n      add\n        /* \"#utility.yul\":20406:20471   */\n      tag_389\n      jump\t// in\n    tag_636:\n        /* \"#utility.yul\":20388:20471   */\n      swap3\n      pop\n      swap3\n      pop\n        /* \"#utility.yul\":20183:20481   */\n      pop\n        /* \"#utility.yul\":19669:20488   */\n      swap3\n      swap6\n      swap2\n      swap5\n      pop\n      swap3\n      pop\n      jump\t// out\n        /* \"#utility.yul\":20494:20968   */\n    tag_114:\n        /* \"#utility.yul\":20562:20568   */\n      0x00\n        /* \"#utility.yul\":20570:20576   */\n      0x00\n        /* \"#utility.yul\":20619:20621   */\n      0x40\n        /* \"#utility.yul\":20607:20616   */\n      dup4\n        /* \"#utility.yul\":20598:20605   */\n      dup6\n        /* \"#utility.yul\":20594:20617   */\n      sub\n        /* \"#utility.yul\":20590:20622   */\n      slt\n        /* \"#utility.yul\":20587:20706   */\n      iszero\n      tag_638\n      jumpi\n        /* \"#utility.yul\":20625:20704   */\n      tag_639\n      tag_336\n      jump\t// in\n    tag_639:\n        /* \"#utility.yul\":20587:20706   */\n    tag_638:\n        /* \"#utility.yul\":20745:20746   */\n      0x00\n        /* \"#utility.yul\":20770:20823   */\n      tag_640\n        /* \"#utility.yul\":20815:20822   */\n      dup6\n        /* \"#utility.yul\":20806:20812   */\n      dup3\n        /* \"#utility.yul\":20795:20804   */\n      dup7\n        /* \"#utility.yul\":20791:20813   */\n      add\n        /* \"#utility.yul\":20770:20823   */\n      tag_345\n      jump\t// in\n    tag_640:\n        /* \"#utility.yul\":20760:20823   */\n      swap3\n      pop\n        /* \"#utility.yul\":20716:20833   */\n      pop\n        /* \"#utility.yul\":20872:20874   */\n      0x20\n        /* \"#utility.yul\":20898:20951   */\n      tag_641\n        /* \"#utility.yul\":20943:20950   */\n      dup6\n        /* \"#utility.yul\":20934:20940   */\n      dup3\n        /* \"#utility.yul\":20923:20932   */\n      dup7\n        /* \"#utility.yul\":20919:20941   */\n      add\n        /* \"#utility.yul\":20898:20951   */\n      tag_355\n      jump\t// in\n    tag_641:\n        /* \"#utility.yul\":20888:20951   */\n      swap2\n      pop\n        /* \"#utility.yul\":20843:20961   */\n      pop\n        /* \"#utility.yul\":20494:20968   */\n      swap3\n      pop\n      swap3\n      swap1\n      pop\n      jump\t// out\n        /* \"#utility.yul\":20974:21303   */\n    tag_118:\n        /* \"#utility.yul\":21033:21039   */\n      0x00\n        /* \"#utility.yul\":21082:21084   */\n      0x20\n        /* \"#utility.yul\":21070:21079   */\n      dup3\n        /* \"#utility.yul\":21061:21068   */\n      dup5\n        /* \"#utility.yul\":21057:21080   */\n      sub\n        /* \"#utility.yul\":21053:21085   */\n      slt\n        /* \"#utility.yul\":21050:21169   */\n      iszero\n      tag_643\n      jumpi\n        /* \"#utility.yul\":21088:21167   */\n      tag_644\n      tag_336\n      jump\t// in\n    tag_644:\n        /* \"#utility.yul\":21050:21169   */\n    tag_643:\n        /* \"#utility.yul\":21208:21209   */\n      0x00\n        /* \"#utility.yul\":21233:21286   */\n      tag_645\n        /* \"#utility.yul\":21278:21285   */\n      dup5\n        /* \"#utility.yul\":21269:21275   */\n      dup3\n        /* \"#utility.yul\":21258:21267   */\n      dup6\n        /* \"#utility.yul\":21254:21276   */\n      add\n        /* \"#utility.yul\":21233:21286   */\n      tag_355\n      jump\t// in\n    tag_645:\n        /* \"#utility.yul\":21223:21286   */\n      swap2\n      pop\n        /* \"#utility.yul\":21179:21296   */\n      pop\n        /* \"#utility.yul\":20974:21303   */\n      swap3\n      swap2\n      pop\n      pop\n      jump\t// out\n        /* \"#utility.yul\":21309:21489   */\n    tag_136:\n        /* \"#utility.yul\":21357:21434   */\n      0x4e487b7100000000000000000000000000000000000000000000000000000000\n        /* \"#utility.yul\":21354:21355   */\n      0x00\n        /* \"#utility.yul\":21347:21435   */\n      mstore\n        /* \"#utility.yul\":21454:21458   */\n      0x32\n        /* \"#utility.yul\":21451:21452   */\n      0x04\n        /* \"#utility.yul\":21444:21459   */\n      mstore\n        /* \"#utility.yul\":21478:21482   */\n      0x24\n        /* \"#utility.yul\":21475:21476   */\n      0x00\n        /* \"#utility.yul\":21468:21483   */\n      revert\n        /* \"#utility.yul\":21495:21675   */\n    tag_395:\n        /* \"#utility.yul\":21543:21620   */\n      0x4e487b7100000000000000000000000000000000000000000000000000000000\n        /* \"#utility.yul\":21540:21541   */\n      0x00\n        /* \"#utility.yul\":21533:21621   */\n      mstore\n        /* \"#utility.yul\":21640:21644   */\n      0x11\n        /* \"#utility.yul\":21637:21638   */\n      0x04\n        /* \"#utility.yul\":21630:21645   */\n      mstore\n        /* \"#utility.yul\":21664:21668   */\n      0x24\n        /* \"#utility.yul\":21661:21662   */\n      0x00\n        /* \"#utility.yul\":21654:21669   */\n      revert\n        /* \"#utility.yul\":21681:21872   */\n    tag_145:\n        /* \"#utility.yul\":21721:21724   */\n      0x00\n        /* \"#utility.yul\":21740:21760   */\n      tag_649\n        /* \"#utility.yul\":21758:21759   */\n      dup3\n        /* \"#utility.yul\":21740:21760   */\n      tag_343\n      jump\t// in\n    tag_649:\n        /* \"#utility.yul\":21735:21760   */\n      swap2\n      pop\n        /* \"#utility.yul\":21774:21794   */\n      tag_650\n        /* \"#utility.yul\":21792:21793   */\n      dup4\n        /* \"#utility.yul\":21774:21794   */\n      tag_343\n      jump\t// in\n    tag_650:\n        /* \"#utility.yul\":21769:21794   */\n      swap3\n      pop\n        /* \"#utility.yul\":21817:21818   */\n      dup3\n        /* \"#utility.yul\":21814:21815   */\n      dup3\n        /* \"#utility.yul\":21810:21819   */\n      add\n        /* \"#utility.yul\":21803:21819   */\n      swap1\n      pop\n        /* \"#utility.yul\":21838:21841   */\n      dup1\n        /* \"#utility.yul\":21835:21836   */\n      dup3\n        /* \"#utility.yul\":21832:21842   */\n      gt\n        /* \"#utility.yul\":21829:21865   */\n      iszero\n      tag_651\n      jumpi\n        /* \"#utility.yul\":21845:21863   */\n      tag_652\n      tag_395\n      jump\t// in\n    tag_652:\n        /* \"#utility.yul\":21829:21865   */\n    tag_651:\n        /* \"#utility.yul\":21681:21872   */\n      swap3\n      swap2\n      pop\n      pop\n      jump\t// out\n        /* \"#utility.yul\":21878:22320   */\n    tag_149:\n        /* \"#utility.yul\":22027:22031   */\n      0x00\n        /* \"#utility.yul\":22065:22067   */\n      0x60\n        /* \"#utility.yul\":22054:22063   */\n      dup3\n        /* \"#utility.yul\":22050:22068   */\n      add\n        /* \"#utility.yul\":22042:22068   */\n      swap1\n      pop\n        /* \"#utility.yul\":22078:22149   */\n      tag_654\n        /* \"#utility.yul\":22146:22147   */\n      0x00\n        /* \"#utility.yul\":22135:22144   */\n      dup4\n        /* \"#utility.yul\":22131:22148   */\n      add\n        /* \"#utility.yul\":22122:22128   */\n      dup7\n        /* \"#utility.yul\":22078:22149   */\n      tag_349\n      jump\t// in\n    tag_654:\n        /* \"#utility.yul\":22159:22231   */\n      tag_655\n        /* \"#utility.yul\":22227:22229   */\n      0x20\n        /* \"#utility.yul\":22216:22225   */\n      dup4\n        /* \"#utility.yul\":22212:22230   */\n      add\n        /* \"#utility.yul\":22203:22209   */\n      dup6\n        /* \"#utility.yul\":22159:22231   */\n      tag_349\n      jump\t// in\n    tag_655:\n        /* \"#utility.yul\":22241:22313   */\n      tag_656\n        /* \"#utility.yul\":22309:22311   */\n      0x40\n        /* \"#utility.yul\":22298:22307   */\n      dup4\n        /* \"#utility.yul\":22294:22312   */\n      add\n        /* \"#utility.yul\":22285:22291   */\n      dup5\n        /* \"#utility.yul\":22241:22313   */\n      tag_346\n      jump\t// in\n    tag_656:\n        /* \"#utility.yul\":21878:22320   */\n      swap5\n      swap4\n      pop\n      pop\n      pop\n      pop\n      jump\t// out\n        /* \"#utility.yul\":22326:22463   */\n    tag_396:\n        /* \"#utility.yul\":22380:22385   */\n      0x00\n        /* \"#utility.yul\":22411:22417   */\n      dup2\n        /* \"#utility.yul\":22405:22418   */\n      mload\n        /* \"#utility.yul\":22396:22418   */\n      swap1\n      pop\n        /* \"#utility.yul\":22427:22457   */\n      tag_658\n        /* \"#utility.yul\":22451:22456   */\n      dup2\n        /* \"#utility.yul\":22427:22457   */\n      tag_386\n      jump\t// in\n    tag_658:\n        /* \"#utility.yul\":22326:22463   */\n      swap3\n      swap2\n      pop\n      pop\n      jump\t// out\n        /* \"#utility.yul\":22469:22814   */\n    tag_153:\n        /* \"#utility.yul\":22536:22542   */\n      0x00\n        /* \"#utility.yul\":22585:22587   */\n      0x20\n        /* \"#utility.yul\":22573:22582   */\n      dup3\n        /* \"#utility.yul\":22564:22571   */\n      dup5\n        /* \"#utility.yul\":22560:22583   */\n      sub\n        /* \"#utility.yul\":22556:22588   */\n      slt\n        /* \"#utility.yul\":22553:22672   */\n      iszero\n      tag_660\n      jumpi\n        /* \"#utility.yul\":22591:22670   */\n      tag_661\n      tag_336\n      jump\t// in\n    tag_661:\n        /* \"#utility.yul\":22553:22672   */\n    tag_660:\n        /* \"#utility.yul\":22711:22712   */\n      0x00\n        /* \"#utility.yul\":22736:22797   */\n      tag_662\n        /* \"#utility.yul\":22789:22796   */\n      dup5\n        /* \"#utility.yul\":22780:22786   */\n      dup3\n        /* \"#utility.yul\":22769:22778   */\n      dup6\n        /* \"#utility.yul\":22765:22787   */\n      add\n        /* \"#utility.yul\":22736:22797   */\n      tag_396\n      jump\t// in\n    tag_662:\n        /* \"#utility.yul\":22726:22797   */\n      swap2\n      pop\n        /* \"#utility.yul\":22682:22807   */\n      pop\n        /* \"#utility.yul\":22469:22814   */\n      swap3\n      swap2\n      pop\n      pop\n      jump\t// out\n        /* \"#utility.yul\":22820:22985   */\n    tag_397:\n        /* \"#utility.yul\":22960:22977   */\n      0x5472616e73666572206661696c65640000000000000000000000000000000000\n        /* \"#utility.yul\":22956:22957   */\n      0x00\n        /* \"#utility.yul\":22948:22954   */\n      dup3\n        /* \"#utility.yul\":22944:22958   */\n      add\n        /* \"#utility.yul\":22937:22978   */\n      mstore\n        /* \"#utility.yul\":22820:22985   */\n      pop\n      jump\t// out\n        /* \"#utility.yul\":22991:23357   */\n    tag_398:\n        /* \"#utility.yul\":23133:23136   */\n      0x00\n        /* \"#utility.yul\":23154:23221   */\n      tag_665\n        /* \"#utility.yul\":23218:23220   */\n      0x0f\n        /* \"#utility.yul\":23213:23216   */\n      dup4\n        /* \"#utility.yul\":23154:23221   */\n      tag_370\n      jump\t// in\n    tag_665:\n        /* \"#utility.yul\":23147:23221   */\n      swap2\n      pop\n        /* \"#utility.yul\":23230:23323   */\n      tag_666\n        /* \"#utility.yul\":23319:23322   */\n      dup3\n        /* \"#utility.yul\":23230:23323   */\n      tag_397\n      jump\t// in\n    tag_666:\n        /* \"#utility.yul\":23348:23350   */\n      0x20\n        /* \"#utility.yul\":23343:23346   */\n      dup3\n        /* \"#utility.yul\":23339:23351   */\n      add\n        /* \"#utility.yul\":23332:23351   */\n      swap1\n      pop\n        /* \"#utility.yul\":22991:23357   */\n      swap2\n      swap1\n      pop\n      jump\t// out\n        /* \"#utility.yul\":23363:23782   */\n    tag_156:\n        /* \"#utility.yul\":23529:23533   */\n      0x00\n        /* \"#utility.yul\":23567:23569   */\n      0x20\n        /* \"#utility.yul\":23556:23565   */\n      dup3\n        /* \"#utility.yul\":23552:23570   */\n      add\n        /* \"#utility.yul\":23544:23570   */\n      swap1\n      pop\n        /* \"#utility.yul\":23616:23625   */\n      dup2\n        /* \"#utility.yul\":23610:23614   */\n      dup2\n        /* \"#utility.yul\":23606:23626   */\n      sub\n        /* \"#utility.yul\":23602:23603   */\n      0x00\n        /* \"#utility.yul\":23591:23600   */\n      dup4\n        /* \"#utility.yul\":23587:23604   */\n      add\n        /* \"#utility.yul\":23580:23627   */\n      mstore\n        /* \"#utility.yul\":23644:23775   */\n      tag_668\n        /* \"#utility.yul\":23770:23774   */\n      dup2\n        /* \"#utility.yul\":23644:23775   */\n      tag_398\n      jump\t// in\n    tag_668:\n        /* \"#utility.yul\":23636:23775   */\n      swap1\n      pop\n        /* \"#utility.yul\":23363:23782   */\n      swap2\n      swap1\n      pop\n      jump\t// out\n        /* \"#utility.yul\":23788:24021   */\n    tag_159:\n        /* \"#utility.yul\":23827:23830   */\n      0x00\n        /* \"#utility.yul\":23850:23874   */\n      tag_670\n        /* \"#utility.yul\":23868:23873   */\n      dup3\n        /* \"#utility.yul\":23850:23874   */\n      tag_343\n      jump\t// in\n    tag_670:\n        /* \"#utility.yul\":23841:23874   */\n      swap2\n      pop\n        /* \"#utility.yul\":23896:23962   */\n      0xffffffffffffffffffffffffffffffffffffffffffffffffffffffffffffffff\n        /* \"#utility.yul\":23889:23894   */\n      dup3\n        /* \"#utility.yul\":23886:23963   */\n      sub\n        /* \"#utility.yul\":23883:23986   */\n      tag_671\n      jumpi\n        /* \"#utility.yul\":23966:23984   */\n      tag_672\n      tag_395\n      jump\t// in\n    tag_672:\n        /* \"#utility.yul\":23883:23986   */\n    tag_671:\n        /* \"#utility.yul\":24013:24014   */\n      0x01\n        /* \"#utility.yul\":24006:24011   */\n      dup3\n        /* \"#utility.yul\":24002:24015   */\n      add\n        /* \"#utility.yul\":23995:24015   */\n      swap1\n      pop\n        /* \"#utility.yul\":23788:24021   */\n      swap2\n      swap1\n      pop\n      jump\t// out\n        /* \"#utility.yul\":24027:24359   */\n    tag_175:\n        /* \"#utility.yul\":24148:24152   */\n      0x00\n        /* \"#utility.yul\":24186:24188   */\n      0x40\n        /* \"#utility.yul\":24175:24184   */\n      dup3\n        /* \"#utility.yul\":24171:24189   */\n      add\n        /* \"#utility.yul\":24163:24189   */\n      swap1\n      pop\n        /* \"#utility.yul\":24199:24270   */\n      tag_674\n        /* \"#utility.yul\":24267:24268   */\n      0x00\n        /* \"#utility.yul\":24256:24265   */\n      dup4\n        /* \"#utility.yul\":24252:24269   */\n      add\n        /* \"#utility.yul\":24243:24249   */\n      dup6\n        /* \"#utility.yul\":24199:24270   */\n      tag_349\n      jump\t// in\n    tag_674:\n        /* \"#utility.yul\":24280:24352   */\n      tag_675\n        /* \"#utility.yul\":24348:24350   */\n      0x20\n        /* \"#utility.yul\":24337:24346   */\n      dup4\n        /* \"#utility.yul\":24333:24351   */\n      add\n        /* \"#utility.yul\":24324:24330   */\n      dup5\n        /* \"#utility.yul\":24280:24352   */\n      tag_346\n      jump\t// in\n    tag_675:\n        /* \"#utility.yul\":24027:24359   */\n      swap4\n      swap3\n      pop\n      pop\n      pop\n      jump\t// out\n        /* \"#utility.yul\":24365:24545   */\n    tag_399:\n        /* \"#utility.yul\":24413:24490   */\n      0x4e487b7100000000000000000000000000000000000000000000000000000000\n        /* \"#utility.yul\":24410:24411   */\n      0x00\n        /* \"#utility.yul\":24403:24491   */\n      mstore\n        /* \"#utility.yul\":24510:24514   */\n      0x22\n        /* \"#utility.yul\":24507:24508   */\n      0x04\n        /* \"#utility.yul\":24500:24515   */\n      mstore\n        /* \"#utility.yul\":24534:24538   */\n      0x24\n        /* \"#utility.yul\":24531:24532   */\n      0x00\n        /* \"#utility.yul\":24524:24539   */\n      revert\n        /* \"#utility.yul\":24551:24871   */\n    tag_181:\n        /* \"#utility.yul\":24595:24601   */\n      0x00\n        /* \"#utility.yul\":24632:24633   */\n      0x02\n        /* \"#utility.yul\":24626:24630   */\n      dup3\n        /* \"#utility.yul\":24622:24634   */\n      div\n        /* \"#utility.yul\":24612:24634   */\n      swap1\n      pop\n        /* \"#utility.yul\":24679:24680   */\n      0x01\n        /* \"#utility.yul\":24673:24677   */\n      dup3\n        /* \"#utility.yul\":24669:24681   */\n      and\n        /* \"#utility.yul\":24700:24718   */\n      dup1\n        /* \"#utility.yul\":24690:24771   */\n      tag_678\n      jumpi\n        /* \"#utility.yul\":24756:24760   */\n      0x7f\n        /* \"#utility.yul\":24748:24754   */\n      dup3\n        /* \"#utility.yul\":24744:24761   */\n      and\n        /* \"#utility.yul\":24734:24761   */\n      swap2\n      pop\n        /* \"#utility.yul\":24690:24771   */\n    tag_678:\n        /* \"#utility.yul\":24818:24820   */\n      0x20\n        /* \"#utility.yul\":24810:24816   */\n      dup3\n        /* \"#utility.yul\":24807:24821   */\n      lt\n        /* \"#utility.yul\":24787:24805   */\n      dup2\n        /* \"#utility.yul\":24784:24822   */\n      sub\n        /* \"#utility.yul\":24781:24865   */\n      tag_679\n      jumpi\n        /* \"#utility.yul\":24837:24855   */\n      tag_680\n      tag_399\n      jump\t// in\n    tag_680:\n        /* \"#utility.yul\":24781:24865   */\n    tag_679:\n        /* \"#utility.yul\":24602:24871   */\n      pop\n        /* \"#utility.yul\":24551:24871   */\n      swap2\n      swap1\n      pop\n      jump\t// out\n        /* \"#utility.yul\":24877:24974   */\n    tag_400:\n        /* \"#utility.yul\":24936:24942   */\n      0x00\n        /* \"#utility.yul\":24964:24967   */\n      dup3\n        /* \"#utility.yul\":24954:24967   */\n      swap1\n      pop\n        /* \"#utility.yul\":24877:24974   */\n      swap3\n      swap2\n      pop\n      pop\n      jump\t// out\n        /* \"#utility.yul\":24980:25121   */\n    tag_401:\n        /* \"#utility.yul\":25029:25033   */\n      0x00\n        /* \"#utility.yul\":25052:25055   */\n      dup2\n        /* \"#utility.yul\":25044:25055   */\n      swap1\n      pop\n        /* \"#utility.yul\":25075:25078   */\n      dup2\n        /* \"#utility.yul\":25072:25073   */\n      0x00\n        /* \"#utility.yul\":25065:25079   */\n      mstore\n        /* \"#utility.yul\":25109:25113   */\n      0x20\n        /* \"#utility.yul\":25106:25107   */\n      0x00\n        /* \"#utility.yul\":25096:25114   */\n      keccak256\n        /* \"#utility.yul\":25088:25114   */\n      swap1\n      pop\n        /* \"#utility.yul\":24980:25121   */\n      swap2\n      swap1\n      pop\n      jump\t// out\n        /* \"#utility.yul\":25127:25220   */\n    tag_402:\n        /* \"#utility.yul\":25164:25170   */\n      0x00\n        /* \"#utility.yul\":25211:25213   */\n      0x20\n        /* \"#utility.yul\":25206:25208   */\n      0x1f\n        /* \"#utility.yul\":25199:25204   */\n      dup4\n        /* \"#utility.yul\":25195:25209   */\n      add\n        /* \"#utility.yul\":25191:25214   */\n      div\n        /* \"#utility.yul\":25181:25214   */\n      swap1\n      pop\n        /* \"#utility.yul\":25127:25220   */\n      swap2\n      swap1\n      pop\n      jump\t// out\n        /* \"#utility.yul\":25226:25333   */\n    tag_403:\n        /* \"#utility.yul\":25270:25278   */\n      0x00\n        /* \"#utility.yul\":25320:25325   */\n      dup3\n        /* \"#utility.yul\":25314:25318   */\n      dup3\n        /* \"#utility.yul\":25310:25326   */\n      shl\n        /* \"#utility.yul\":25289:25326   */\n      swap1\n      pop\n        /* \"#utility.yul\":25226:25333   */\n      swap3\n      swap2\n      pop\n      pop\n      jump\t// out\n        /* \"#utility.yul\":25339:25732   */\n    tag_404:\n        /* \"#utility.yul\":25408:25414   */\n      0x00\n        /* \"#utility.yul\":25458:25459   */\n      0x08\n        /* \"#utility.yul\":25446:25456   */\n      dup4\n        /* \"#utility.yul\":25442:25460   */\n      mul\n        /* \"#utility.yul\":25481:25578   */\n      tag_686\n        /* \"#utility.yul\":25511:25577   */\n      0xffffffffffffffffffffffffffffffffffffffffffffffffffffffffffffffff\n        /* \"#utility.yul\":25500:25509   */\n      dup3\n        /* \"#utility.yul\":25481:25578   */\n      tag_403\n      jump\t// in\n    tag_686:\n        /* \"#utility.yul\":25599:25638   */\n      tag_687\n        /* \"#utility.yul\":25629:25637   */\n      dup7\n        /* \"#utility.yul\":25618:25627   */\n      dup4\n        /* \"#utility.yul\":25599:25638   */\n      tag_403\n      jump\t// in\n    tag_687:\n        /* \"#utility.yul\":25587:25638   */\n      swap6\n      pop\n        /* \"#utility.yul\":25671:25675   */\n      dup1\n        /* \"#utility.yul\":25667:25676   */\n      not\n        /* \"#utility.yul\":25660:25665   */\n      dup5\n        /* \"#utility.yul\":25656:25677   */\n      and\n        /* \"#utility.yul\":25647:25677   */\n      swap4\n      pop\n        /* \"#utility.yul\":25720:25724   */\n      dup1\n        /* \"#utility.yul\":25710:25718   */\n      dup7\n        /* \"#utility.yul\":25706:25725   */\n      and\n        /* \"#utility.yul\":25699:25704   */\n      dup5\n        /* \"#utility.yul\":25696:25726   */\n      or\n        /* \"#utility.yul\":25686:25726   */\n      swap3\n      pop\n        /* \"#utility.yul\":25415:25732   */\n      pop\n      pop\n        /* \"#utility.yul\":25339:25732   */\n      swap4\n      swap3\n      pop\n      pop\n      pop\n      jump\t// out\n        /* \"#utility.yul\":25738:25880   */\n    tag_405:\n        /* \"#utility.yul\":25788:25797   */\n      0x00\n        /* \"#utility.yul\":25821:25874   */\n      tag_689\n        /* \"#utility.yul\":25839:25873   */\n      tag_690\n        /* \"#utility.yul\":25848:25872   */\n      tag_691\n        /* \"#utility.yul\":25866:25871   */\n      dup5\n        /* \"#utility.yul\":25848:25872   */\n      tag_343\n      jump\t// in\n    tag_691:\n        /* \"#utility.yul\":25839:25873   */\n      tag_390\n      jump\t// in\n    tag_690:\n        /* \"#utility.yul\":25821:25874   */\n      tag_343\n      jump\t// in\n    tag_689:\n        /* \"#utility.yul\":25808:25874   */\n      swap1\n      pop\n        /* \"#utility.yul\":25738:25880   */\n      swap2\n      swap1\n      pop\n      jump\t// out\n        /* \"#utility.yul\":25886:25961   */\n    tag_406:\n        /* \"#utility.yul\":25929:25932   */\n      0x00\n        /* \"#utility.yul\":25950:25955   */\n      dup2\n        /* \"#utility.yul\":25943:25955   */\n      swap1\n      pop\n        /* \"#utility.yul\":25886:25961   */\n      swap2\n      swap1\n      pop\n      jump\t// out\n        /* \"#utility.yul\":25967:26236   */\n    tag_407:\n        /* \"#utility.yul\":26077:26116   */\n      tag_694\n        /* \"#utility.yul\":26108:26115   */\n      dup4\n        /* \"#utility.yul\":26077:26116   */\n      tag_405\n      jump\t// in\n    tag_694:\n        /* \"#utility.yul\":26138:26229   */\n      tag_695\n        /* \"#utility.yul\":26187:26228   */\n      tag_696\n        /* \"#utility.yul\":26211:26227   */\n      dup3\n        /* \"#utility.yul\":26187:26228   */\n      tag_406\n      jump\t// in\n    tag_696:\n        /* \"#utility.yul\":26179:26185   */\n      dup5\n        /* \"#utility.yul\":26172:26176   */\n      dup5\n        /* \"#utility.yul\":26166:26177   */\n      sload\n        /* \"#utility.yul\":26138:26229   */\n      tag_404\n      jump\t// in\n    tag_695:\n        /* \"#utility.yul\":26132:26136   */\n      dup3\n        /* \"#utility.yul\":26125:26230   */\n      sstore\n        /* \"#utility.yul\":26043:26236   */\n      pop\n        /* \"#utility.yul\":25967:26236   */\n      pop\n      pop\n      pop\n      jump\t// out\n        /* \"#utility.yul\":26242:26315   */\n    tag_408:\n        /* \"#utility.yul\":26287:26290   */\n      0x00\n        /* \"#utility.yul\":26308:26309   */\n      0x00\n        /* \"#utility.yul\":26301:26309   */\n      swap1\n      pop\n        /* \"#utility.yul\":26242:26315   */\n      swap1\n      jump\t// out\n        /* \"#utility.yul\":26321:26510   */\n    tag_409:\n        /* \"#utility.yul\":26398:26430   */\n      tag_699\n      tag_408\n      jump\t// in\n    tag_699:\n        /* \"#utility.yul\":26439:26504   */\n      tag_700\n        /* \"#utility.yul\":26497:26503   */\n      dup2\n        /* \"#utility.yul\":26489:26495   */\n      dup5\n        /* \"#utility.yul\":26483:26487   */\n      dup5\n        /* \"#utility.yul\":26439:26504   */\n      tag_407\n      jump\t// in\n    tag_700:\n        /* \"#utility.yul\":26374:26510   */\n      pop\n        /* \"#utility.yul\":26321:26510   */\n      pop\n      pop\n      jump\t// out\n        /* \"#utility.yul\":26516:26702   */\n    tag_410:\n        /* \"#utility.yul\":26576:26696   */\n    tag_702:\n        /* \"#utility.yul\":26593:26596   */\n      dup2\n        /* \"#utility.yul\":26586:26591   */\n      dup2\n        /* \"#utility.yul\":26583:26597   */\n      lt\n        /* \"#utility.yul\":26576:26696   */\n      iszero\n      tag_704\n      jumpi\n        /* \"#utility.yul\":26647:26686   */\n      tag_705\n        /* \"#utility.yul\":26684:26685   */\n      0x00\n        /* \"#utility.yul\":26677:26682   */\n      dup3\n        /* \"#utility.yul\":26647:26686   */\n      tag_409\n      jump\t// in\n    tag_705:\n        /* \"#utility.yul\":26620:26621   */\n      0x01\n        /* \"#utility.yul\":26613:26618   */\n      dup2\n        /* \"#utility.yul\":26609:26622   */\n      add\n        /* \"#utility.yul\":26600:26622   */\n      swap1\n      pop\n        /* \"#utility.yul\":26576:26696   */\n      jump(tag_702)\n    tag_704:\n        /* \"#utility.yul\":26516:26702   */\n      pop\n      pop\n      jump\t// out\n        /* \"#utility.yul\":26708:27251   */\n    tag_411:\n        /* \"#utility.yul\":26809:26811   */\n      0x1f\n        /* \"#utility.yul\":26804:26807   */\n      dup3\n        /* \"#utility.yul\":26801:26812   */\n      gt\n        /* \"#utility.yul\":26798:27244   */\n      iszero\n      tag_707\n      jumpi\n        /* \"#utility.yul\":26843:26881   */\n      tag_708\n        /* \"#utility.yul\":26875:26880   */\n      dup2\n        /* \"#utility.yul\":26843:26881   */\n      tag_401\n      jump\t// in\n    tag_708:\n        /* \"#utility.yul\":26927:26956   */\n      tag_709\n        /* \"#utility.yul\":26945:26955   */\n      dup5\n        /* \"#utility.yul\":26927:26956   */\n      tag_402\n      jump\t// in\n    tag_709:\n        /* \"#utility.yul\":26917:26925   */\n      dup2\n        /* \"#utility.yul\":26913:26957   */\n      add\n        /* \"#utility.yul\":27110:27112   */\n      0x20\n        /* \"#utility.yul\":27098:27108   */\n      dup6\n        /* \"#utility.yul\":27095:27113   */\n      lt\n        /* \"#utility.yul\":27092:27141   */\n      iszero\n      tag_710\n      jumpi\n        /* \"#utility.yul\":27131:27139   */\n      dup2\n        /* \"#utility.yul\":27116:27139   */\n      swap1\n      pop\n        /* \"#utility.yul\":27092:27141   */\n    tag_710:\n        /* \"#utility.yul\":27154:27234   */\n      tag_711\n        /* \"#utility.yul\":27210:27232   */\n      tag_712\n        /* \"#utility.yul\":27228:27231   */\n      dup6\n        /* \"#utility.yul\":27210:27232   */\n      tag_402\n      jump\t// in\n    tag_712:\n        /* \"#utility.yul\":27200:27208   */\n      dup4\n        /* \"#utility.yul\":27196:27233   */\n      add\n        /* \"#utility.yul\":27183:27194   */\n      dup3\n        /* \"#utility.yul\":27154:27234   */\n      tag_410\n      jump\t// in\n    tag_711:\n        /* \"#utility.yul\":26813:27244   */\n      pop\n      pop\n        /* \"#utility.yul\":26798:27244   */\n    tag_707:\n        /* \"#utility.yul\":26708:27251   */\n      pop\n      pop\n      pop\n      jump\t// out\n        /* \"#utility.yul\":27257:27374   */\n    tag_412:\n        /* \"#utility.yul\":27311:27319   */\n      0x00\n        /* \"#utility.yul\":27361:27366   */\n      dup3\n        /* \"#utility.yul\":27355:27359   */\n      dup3\n        /* \"#utility.yul\":27351:27367   */\n      shr\n        /* \"#utility.yul\":27330:27367   */\n      swap1\n      pop\n        /* \"#utility.yul\":27257:27374   */\n      swap3\n      swap2\n      pop\n      pop\n      jump\t// out\n        /* \"#utility.yul\":27380:27549   */\n    tag_413:\n        /* \"#utility.yul\":27424:27430   */\n      0x00\n        /* \"#utility.yul\":27457:27508   */\n      tag_715\n        /* \"#utility.yul\":27505:27506   */\n      0x00\n        /* \"#utility.yul\":27501:27507   */\n      not\n        /* \"#utility.yul\":27493:27498   */\n      dup5\n        /* \"#utility.yul\":27490:27491   */\n      0x08\n        /* \"#utility.yul\":27486:27499   */\n      mul\n        /* \"#utility.yul\":27457:27508   */\n      tag_412\n      jump\t// in\n    tag_715:\n        /* \"#utility.yul\":27453:27509   */\n      not\n        /* \"#utility.yul\":27538:27542   */\n      dup1\n        /* \"#utility.yul\":27532:27536   */\n      dup4\n        /* \"#utility.yul\":27528:27543   */\n      and\n        /* \"#utility.yul\":27518:27543   */\n      swap2\n      pop\n        /* \"#utility.yul\":27431:27549   */\n      pop\n        /* \"#utility.yul\":27380:27549   */\n      swap3\n      swap2\n      pop\n      pop\n      jump\t// out\n        /* \"#utility.yul\":27554:27849   */\n    tag_414:\n        /* \"#utility.yul\":27630:27634   */\n      0x00\n        /* \"#utility.yul\":27776:27805   */\n      tag_717\n        /* \"#utility.yul\":27801:27804   */\n      dup4\n        /* \"#utility.yul\":27795:27799   */\n      dup4\n        /* \"#utility.yul\":27776:27805   */\n      tag_413\n      jump\t// in\n    tag_717:\n        /* \"#utility.yul\":27768:27805   */\n      swap2\n      pop\n        /* \"#utility.yul\":27838:27841   */\n      dup3\n        /* \"#utility.yul\":27835:27836   */\n      0x02\n        /* \"#utility.yul\":27831:27842   */\n      mul\n        /* \"#utility.yul\":27825:27829   */\n      dup3\n        /* \"#utility.yul\":27822:27843   */\n      or\n        /* \"#utility.yul\":27814:27843   */\n      swap1\n      pop\n        /* \"#utility.yul\":27554:27849   */\n      swap3\n      swap2\n      pop\n      pop\n      jump\t// out\n        /* \"#utility.yul\":27854:29257   */\n    tag_231:\n        /* \"#utility.yul\":27978:28022   */\n      tag_719\n        /* \"#utility.yul\":28018:28021   */\n      dup4\n        /* \"#utility.yul\":28013:28016   */\n      dup4\n        /* \"#utility.yul\":27978:28022   */\n      tag_400\n      jump\t// in\n    tag_719:\n        /* \"#utility.yul\":28087:28105   */\n      0xffffffffffffffff\n        /* \"#utility.yul\":28079:28085   */\n      dup2\n        /* \"#utility.yul\":28076:28106   */\n      gt\n        /* \"#utility.yul\":28073:28129   */\n      iszero\n      tag_720\n      jumpi\n        /* \"#utility.yul\":28109:28127   */\n      tag_721\n      tag_358\n      jump\t// in\n    tag_721:\n        /* \"#utility.yul\":28073:28129   */\n    tag_720:\n        /* \"#utility.yul\":28153:28191   */\n      tag_722\n        /* \"#utility.yul\":28185:28189   */\n      dup3\n        /* \"#utility.yul\":28179:28190   */\n      sload\n        /* \"#utility.yul\":28153:28191   */\n      tag_181\n      jump\t// in\n    tag_722:\n        /* \"#utility.yul\":28238:28305   */\n      tag_723\n        /* \"#utility.yul\":28298:28304   */\n      dup3\n        /* \"#utility.yul\":28290:28296   */\n      dup3\n        /* \"#utility.yul\":28284:28288   */\n      dup6\n        /* \"#utility.yul\":28238:28305   */\n      tag_411\n      jump\t// in\n    tag_723:\n        /* \"#utility.yul\":28332:28333   */\n      0x00\n        /* \"#utility.yul\":28361:28363   */\n      0x1f\n        /* \"#utility.yul\":28353:28359   */\n      dup4\n        /* \"#utility.yul\":28350:28364   */\n      gt\n        /* \"#utility.yul\":28378:28379   */\n      0x01\n        /* \"#utility.yul\":28373:29005   */\n      dup2\n      eq\n      tag_725\n      jumpi\n        /* \"#utility.yul\":29049:29050   */\n      0x00\n        /* \"#utility.yul\":29066:29072   */\n      dup5\n        /* \"#utility.yul\":29063:29147   */\n      iszero\n      tag_726\n      jumpi\n        /* \"#utility.yul\":29122:29131   */\n      dup3\n        /* \"#utility.yul\":29117:29120   */\n      dup8\n        /* \"#utility.yul\":29113:29132   */\n      add\n        /* \"#utility.yul\":29100:29133   */\n      calldataload\n        /* \"#utility.yul\":29091:29133   */\n      swap1\n      pop\n        /* \"#utility.yul\":29063:29147   */\n    tag_726:\n        /* \"#utility.yul\":29173:29240   */\n      tag_727\n        /* \"#utility.yul\":29233:29239   */\n      dup6\n        /* \"#utility.yul\":29226:29231   */\n      dup3\n        /* \"#utility.yul\":29173:29240   */\n      tag_414\n      jump\t// in\n    tag_727:\n        /* \"#utility.yul\":29167:29171   */\n      dup7\n        /* \"#utility.yul\":29160:29241   */\n      sstore\n        /* \"#utility.yul\":29022:29251   */\n      pop\n        /* \"#utility.yul\":28343:29251   */\n      jump(tag_724)\n        /* \"#utility.yul\":28373:29005   */\n    tag_725:\n        /* \"#utility.yul\":28425:28429   */\n      0x1f\n        /* \"#utility.yul\":28421:28430   */\n      not\n        /* \"#utility.yul\":28413:28419   */\n      dup5\n        /* \"#utility.yul\":28409:28431   */\n      and\n        /* \"#utility.yul\":28459:28496   */\n      tag_728\n        /* \"#utility.yul\":28491:28495   */\n      dup7\n        /* \"#utility.yul\":28459:28496   */\n      tag_401\n      jump\t// in\n    tag_728:\n        /* \"#utility.yul\":28518:28519   */\n      0x00\n        /* \"#utility.yul\":28532:28747   */\n    tag_729:\n        /* \"#utility.yul\":28546:28553   */\n      dup3\n        /* \"#utility.yul\":28543:28544   */\n      dup2\n        /* \"#utility.yul\":28540:28554   */\n      lt\n        /* \"#utility.yul\":28532:28747   */\n      iszero\n      tag_731\n      jumpi\n        /* \"#utility.yul\":28632:28641   */\n      dup5\n        /* \"#utility.yul\":28627:28630   */\n      dup10\n        /* \"#utility.yul\":28623:28642   */\n      add\n        /* \"#utility.yul\":28610:28643   */\n      calldataload\n        /* \"#utility.yul\":28602:28608   */\n      dup3\n        /* \"#utility.yul\":28595:28644   */\n      sstore\n        /* \"#utility.yul\":28683:28684   */\n      0x01\n        /* \"#utility.yul\":28675:28681   */\n      dup3\n        /* \"#utility.yul\":28671:28685   */\n      add\n        /* \"#utility.yul\":28661:28685   */\n      swap2\n      pop\n        /* \"#utility.yul\":28730:28732   */\n      0x20\n        /* \"#utility.yul\":28719:28728   */\n      dup6\n        /* \"#utility.yul\":28715:28733   */\n      add\n        /* \"#utility.yul\":28702:28733   */\n      swap5\n      pop\n        /* \"#utility.yul\":28569:28573   */\n      0x20\n        /* \"#utility.yul\":28566:28567   */\n      dup2\n        /* \"#utility.yul\":28562:28574   */\n      add\n        /* \"#utility.yul\":28557:28574   */\n      swap1\n      pop\n        /* \"#utility.yul\":28532:28747   */\n      jump(tag_729)\n    tag_731:\n        /* \"#utility.yul\":28775:28781   */\n      dup7\n        /* \"#utility.yul\":28766:28773   */\n      dup4\n        /* \"#utility.yul\":28763:28782   */\n      lt\n        /* \"#utility.yul\":28760:28946   */\n      iszero\n      tag_732\n      jumpi\n        /* \"#utility.yul\":28840:28849   */\n      dup5\n        /* \"#utility.yul\":28835:28838   */\n      dup10\n        /* \"#utility.yul\":28831:28850   */\n      add\n        /* \"#utility.yul\":28818:28851   */\n      calldataload\n        /* \"#utility.yul\":28883:28931   */\n      tag_733\n        /* \"#utility.yul\":28925:28929   */\n      0x1f\n        /* \"#utility.yul\":28917:28923   */\n      dup10\n        /* \"#utility.yul\":28913:28930   */\n      and\n        /* \"#utility.yul\":28902:28911   */\n      dup3\n        /* \"#utility.yul\":28883:28931   */\n      tag_413\n      jump\t// in\n    tag_733:\n        /* \"#utility.yul\":28875:28881   */\n      dup4\n        /* \"#utility.yul\":28868:28932   */\n      sstore\n        /* \"#utility.yul\":28783:28946   */\n      pop\n        /* \"#utility.yul\":28760:28946   */\n    tag_732:\n        /* \"#utility.yul\":28992:28993   */\n      0x01\n        /* \"#utility.yul\":28988:28989   */\n      0x02\n        /* \"#utility.yul\":28980:28986   */\n      dup9\n        /* \"#utility.yul\":28976:28990   */\n      mul\n        /* \"#utility.yul\":28972:28994   */\n      add\n        /* \"#utility.yul\":28966:28970   */\n      dup9\n        /* \"#utility.yul\":28959:28995   */\n      sstore\n        /* \"#utility.yul\":28380:29005   */\n      pop\n      pop\n      pop\n        /* \"#utility.yul\":28343:29251   */\n    tag_724:\n      pop\n        /* \"#utility.yul\":27953:29257   */\n      pop\n      pop\n      pop\n        /* \"#utility.yul\":27854:29257   */\n      pop\n      pop\n      pop\n      jump\t// out\n        /* \"#utility.yul\":29263:30658   */\n    tag_279:\n        /* \"#utility.yul\":29380:29417   */\n      tag_735\n        /* \"#utility.yul\":29413:29416   */\n      dup3\n        /* \"#utility.yul\":29380:29417   */\n      tag_369\n      jump\t// in\n    tag_735:\n        /* \"#utility.yul\":29482:29500   */\n      0xffffffffffffffff\n        /* \"#utility.yul\":29474:29480   */\n      dup2\n        /* \"#utility.yul\":29471:29501   */\n      gt\n        /* \"#utility.yul\":29468:29524   */\n      iszero\n      tag_736\n      jumpi\n        /* \"#utility.yul\":29504:29522   */\n      tag_737\n      tag_358\n      jump\t// in\n    tag_737:\n        /* \"#utility.yul\":29468:29524   */\n    tag_736:\n        /* \"#utility.yul\":29548:29586   */\n      tag_738\n        /* \"#utility.yul\":29580:29584   */\n      dup3\n        /* \"#utility.yul\":29574:29585   */\n      sload\n        /* \"#utility.yul\":29548:29586   */\n      tag_181\n      jump\t// in\n    tag_738:\n        /* \"#utility.yul\":29633:29700   */\n      tag_739\n        /* \"#utility.yul\":29693:29699   */\n      dup3\n        /* \"#utility.yul\":29685:29691   */\n      dup3\n        /* \"#utility.yul\":29679:29683   */\n      dup6\n        /* \"#utility.yul\":29633:29700   */\n      tag_411\n      jump\t// in\n    tag_739:\n        /* \"#utility.yul\":29727:29728   */\n      0x00\n        /* \"#utility.yul\":29751:29755   */\n      0x20\n        /* \"#utility.yul\":29738:29755   */\n      swap1\n      pop\n        /* \"#utility.yul\":29783:29785   */\n      0x1f\n        /* \"#utility.yul\":29775:29781   */\n      dup4\n        /* \"#utility.yul\":29772:29786   */\n      gt\n        /* \"#utility.yul\":29800:29801   */\n      0x01\n        /* \"#utility.yul\":29795:30413   */\n      dup2\n      eq\n      tag_741\n      jumpi\n        /* \"#utility.yul\":30457:30458   */\n      0x00\n        /* \"#utility.yul\":30474:30480   */\n      dup5\n        /* \"#utility.yul\":30471:30548   */\n      iszero\n      tag_742\n      jumpi\n        /* \"#utility.yul\":30523:30532   */\n      dup3\n        /* \"#utility.yul\":30518:30521   */\n      dup8\n        /* \"#utility.yul\":30514:30533   */\n      add\n        /* \"#utility.yul\":30508:30534   */\n      mload\n        /* \"#utility.yul\":30499:30534   */\n      swap1\n      pop\n        /* \"#utility.yul\":30471:30548   */\n    tag_742:\n        /* \"#utility.yul\":30574:30641   */\n      tag_743\n        /* \"#utility.yul\":30634:30640   */\n      dup6\n        /* \"#utility.yul\":30627:30632   */\n      dup3\n        /* \"#utility.yul\":30574:30641   */\n      tag_414\n      jump\t// in\n    tag_743:\n        /* \"#utility.yul\":30568:30572   */\n      dup7\n        /* \"#utility.yul\":30561:30642   */\n      sstore\n        /* \"#utility.yul\":30430:30652   */\n      pop\n        /* \"#utility.yul\":29765:30652   */\n      jump(tag_740)\n        /* \"#utility.yul\":29795:30413   */\n    tag_741:\n        /* \"#utility.yul\":29847:29851   */\n      0x1f\n        /* \"#utility.yul\":29843:29852   */\n      not\n        /* \"#utility.yul\":29835:29841   */\n      dup5\n        /* \"#utility.yul\":29831:29853   */\n      and\n        /* \"#utility.yul\":29881:29918   */\n      tag_744\n        /* \"#utility.yul\":29913:29917   */\n      dup7\n        /* \"#utility.yul\":29881:29918   */\n      tag_401\n      jump\t// in\n    tag_744:\n        /* \"#utility.yul\":29940:29941   */\n      0x00\n        /* \"#utility.yul\":29954:30162   */\n    tag_745:\n        /* \"#utility.yul\":29968:29975   */\n      dup3\n        /* \"#utility.yul\":29965:29966   */\n      dup2\n        /* \"#utility.yul\":29962:29976   */\n      lt\n        /* \"#utility.yul\":29954:30162   */\n      iszero\n      tag_747\n      jumpi\n        /* \"#utility.yul\":30047:30056   */\n      dup5\n        /* \"#utility.yul\":30042:30045   */\n      dup10\n        /* \"#utility.yul\":30038:30057   */\n      add\n        /* \"#utility.yul\":30032:30058   */\n      mload\n        /* \"#utility.yul\":30024:30030   */\n      dup3\n        /* \"#utility.yul\":30017:30059   */\n      sstore\n        /* \"#utility.yul\":30098:30099   */\n      0x01\n        /* \"#utility.yul\":30090:30096   */\n      dup3\n        /* \"#utility.yul\":30086:30100   */\n      add\n        /* \"#utility.yul\":30076:30100   */\n      swap2\n      pop\n        /* \"#utility.yul\":30145:30147   */\n      0x20\n        /* \"#utility.yul\":30134:30143   */\n      dup6\n        /* \"#utility.yul\":30130:30148   */\n      add\n        /* \"#utility.yul\":30117:30148   */\n      swap5\n      pop\n        /* \"#utility.yul\":29991:29995   */\n      0x20\n        /* \"#utility.yul\":29988:29989   */\n      dup2\n        /* \"#utility.yul\":29984:29996   */\n      add\n        /* \"#utility.yul\":29979:29996   */\n      swap1\n      pop\n        /* \"#utility.yul\":29954:30162   */\n      jump(tag_745)\n    tag_747:\n        /* \"#utility.yul\":30190:30196   */\n      dup7\n        /* \"#utility.yul\":30181:30188   */\n      dup4\n        /* \"#utility.yul\":30178:30197   */\n      lt\n        /* \"#utility.yul\":30175:30354   */\n      iszero\n      tag_748\n      jumpi\n        /* \"#utility.yul\":30248:30257   */\n      dup5\n        /* \"#utility.yul\":30243:30246   */\n      dup10\n        /* \"#utility.yul\":30239:30258   */\n      add\n        /* \"#utility.yul\":30233:30259   */\n      mload\n        /* \"#utility.yul\":30291:30339   */\n      tag_749\n        /* \"#utility.yul\":30333:30337   */\n      0x1f\n        /* \"#utility.yul\":30325:30331   */\n      dup10\n        /* \"#utility.yul\":30321:30338   */\n      and\n        /* \"#utility.yul\":30310:30319   */\n      dup3\n        /* \"#utility.yul\":30291:30339   */\n      tag_413\n      jump\t// in\n    tag_749:\n        /* \"#utility.yul\":30283:30289   */\n      dup4\n        /* \"#utility.yul\":30276:30340   */\n      sstore\n        /* \"#utility.yul\":30198:30354   */\n      pop\n        /* \"#utility.yul\":30175:30354   */\n    tag_748:\n        /* \"#utility.yul\":30400:30401   */\n      0x01\n        /* \"#utility.yul\":30396:30397   */\n      0x02\n        /* \"#utility.yul\":30388:30394   */\n      dup9\n        /* \"#utility.yul\":30384:30398   */\n      mul\n        /* \"#utility.yul\":30380:30402   */\n      add\n        /* \"#utility.yul\":30374:30378   */\n      dup9\n        /* \"#utility.yul\":30367:30403   */\n      sstore\n        /* \"#utility.yul\":29802:30413   */\n      pop\n      pop\n      pop\n        /* \"#utility.yul\":29765:30652   */\n    tag_740:\n      pop\n        /* \"#utility.yul\":29355:30658   */\n      pop\n      pop\n      pop\n        /* \"#utility.yul\":29263:30658   */\n      pop\n      pop\n      jump\t// out\n        /* \"#utility.yul\":30664:31074   */\n    tag_313:\n        /* \"#utility.yul\":30704:30711   */\n      0x00\n        /* \"#utility.yul\":30727:30747   */\n      tag_751\n        /* \"#utility.yul\":30745:30746   */\n      dup3\n        /* \"#utility.yul\":30727:30747   */\n      tag_343\n      jump\t// in\n    tag_751:\n        /* \"#utility.yul\":30722:30747   */\n      swap2\n      pop\n        /* \"#utility.yul\":30761:30781   */\n      tag_752\n        /* \"#utility.yul\":30779:30780   */\n      dup4\n        /* \"#utility.yul\":30761:30781   */\n      tag_343\n      jump\t// in\n    tag_752:\n        /* \"#utility.yul\":30756:30781   */\n      swap3\n      pop\n        /* \"#utility.yul\":30816:30817   */\n      dup3\n        /* \"#utility.yul\":30813:30814   */\n      dup3\n        /* \"#utility.yul\":30809:30818   */\n      mul\n        /* \"#utility.yul\":30838:30868   */\n      tag_753\n        /* \"#utility.yul\":30856:30867   */\n      dup2\n        /* \"#utility.yul\":30838:30868   */\n      tag_343\n      jump\t// in\n    tag_753:\n        /* \"#utility.yul\":30827:30868   */\n      swap2\n      pop\n        /* \"#utility.yul\":31017:31018   */\n      dup3\n        /* \"#utility.yul\":31008:31015   */\n      dup3\n        /* \"#utility.yul\":31004:31019   */\n      div\n        /* \"#utility.yul\":31001:31002   */\n      dup5\n        /* \"#utility.yul\":30998:31020   */\n      eq\n        /* \"#utility.yul\":30978:30979   */\n      dup4\n        /* \"#utility.yul\":30971:30980   */\n      iszero\n        /* \"#utility.yul\":30951:31034   */\n      or\n        /* \"#utility.yul\":30928:31067   */\n      tag_754\n      jumpi\n        /* \"#utility.yul\":31047:31065   */\n      tag_755\n      tag_395\n      jump\t// in\n    tag_755:\n        /* \"#utility.yul\":30928:31067   */\n    tag_754:\n        /* \"#utility.yul\":30712:31074   */\n      pop\n        /* \"#utility.yul\":30664:31074   */\n      swap3\n      swap2\n      pop\n      pop\n      jump\t// out\n        /* \"#utility.yul\":31080:31412   */\n    tag_334:\n        /* \"#utility.yul\":31201:31205   */\n      0x00\n        /* \"#utility.yul\":31239:31241   */\n      0x40\n        /* \"#utility.yul\":31228:31237   */\n      dup3\n        /* \"#utility.yul\":31224:31242   */\n      add\n        /* \"#utility.yul\":31216:31242   */\n      swap1\n      pop\n        /* \"#utility.yul\":31252:31323   */\n      tag_757\n        /* \"#utility.yul\":31320:31321   */\n      0x00\n        /* \"#utility.yul\":31309:31318   */\n      dup4\n        /* \"#utility.yul\":31305:31322   */\n      add\n        /* \"#utility.yul\":31296:31302   */\n      dup6\n        /* \"#utility.yul\":31252:31323   */\n      tag_349\n      jump\t// in\n    tag_757:\n        /* \"#utility.yul\":31333:31405   */\n      tag_758\n        /* \"#utility.yul\":31401:31403   */\n      0x20\n        /* \"#utility.yul\":31390:31399   */\n      dup4\n        /* \"#utility.yul\":31386:31404   */\n      add\n        /* \"#utility.yul\":31377:31383   */\n      dup5\n        /* \"#utility.yul\":31333:31405   */\n      tag_368\n      jump\t// in\n    tag_758:\n        /* \"#utility.yul\":31080:31412   */\n      swap4\n      swap3\n      pop\n      pop\n      pop\n      jump\t// out\n\n    auxdata: 0xa26469706673582212207016429a6a1eab954229f98ec8dab289996f3aca01905c7d575b087d035df7c064736f6c634300081e0033\n}\n",
				"bytecode": {
					"linkReferences": {},
					"object": "60a060405234801561000f575f5ffd5b50604051613496380380613496833981810160405281019061003191906103b0565b325f73ffffffffffffffffffffffffffffffffffffffff168173ffffffffffffffffffffffffffffffffffffffff16036100a2575f6040517f1e4fbdf700000000000000000000000000000000000000000000000000000000815260040161009991906103fd565b60405180910390fd5b6100b18161013160201b60201c565b508173ffffffffffffffffffffffffffffffffffffffff1660808173ffffffffffffffffffffffffffffffffffffffff16815250506100f85f5f1b336101f260201b60201c565b506101297f17a55417373800620b4c2ceaa9f76c02df2e2dd329b9cb9a7cf849712c108f6f826101f260201b60201c565b505050610416565b5f5f5f9054906101000a900473ffffffffffffffffffffffffffffffffffffffff169050815f5f6101000a81548173ffffffffffffffffffffffffffffffffffffffff021916908373ffffffffffffffffffffffffffffffffffffffff1602179055508173ffffffffffffffffffffffffffffffffffffffff168173ffffffffffffffffffffffffffffffffffffffff167f8be0079c531659141344cd1fd0a4f28419497f9722a3daafe3b4186f6b6457e060405160405180910390a35050565b5f61020383836102e760201b60201c565b6102dd576001805f8581526020019081526020015f205f015f8473ffffffffffffffffffffffffffffffffffffffff1673ffffffffffffffffffffffffffffffffffffffff1681526020019081526020015f205f6101000a81548160ff02191690831515021790555061027a61034b60201b60201c565b73ffffffffffffffffffffffffffffffffffffffff168273ffffffffffffffffffffffffffffffffffffffff16847f2f8788117e7eff1d82e926ec794901d17c78024a50270940304540a733656f0d60405160405180910390a4600190506102e1565b5f90505b92915050565b5f60015f8481526020019081526020015f205f015f8373ffffffffffffffffffffffffffffffffffffffff1673ffffffffffffffffffffffffffffffffffffffff1681526020019081526020015f205f9054906101000a900460ff16905092915050565b5f33905090565b5f5ffd5b5f73ffffffffffffffffffffffffffffffffffffffff82169050919050565b5f61037f82610356565b9050919050565b61038f81610375565b8114610399575f5ffd5b50565b5f815190506103aa81610386565b92915050565b5f5f604083850312156103c6576103c5610352565b5b5f6103d38582860161039c565b92505060206103e48582860161039c565b9150509250929050565b6103f781610375565b82525050565b5f6020820190506104105f8301846103ee565b92915050565b60805161304c61044a5f395f81816107b501528181610a300152818161100b0152818161110f0152611277015261304c5ff3fe608060405234801561000f575f5ffd5b5060043610610140575f3560e01c8063870d364d116100b6578063b728775b1161007a578063b728775b1461038d578063c290dd71146103a9578063c2939d97146103c5578063d547741f146103e3578063d7d86727146103ff578063f2fde38b1461041b57610140565b8063870d364d146102e75780638da5cb5b1461030357806391d14854146103215780639608b23214610351578063a217fddf1461036f57610140565b806325e436521161010857806325e43652146102105780632f2ff15d1461024557806336568abe14610261578063442f5c881461027d57806365c498ab146102ad578063715018a6146102dd57610140565b806301ffc9a714610144578063180aedf3146101745780631a424050146101a857806320913da5146101c4578063248a9ca3146101e0575b5f5ffd5b61015e6004803603810190610159919061204b565b610437565b60405161016b9190612090565b60405180910390f35b61018e600480360381019061018991906120dc565b6104b0565b60405161019f9594939291906121c8565b60405180910390f35b6101c260048036038101906101bd9190612393565b61052c565b005b6101de60048036038101906101d991906123ed565b610910565b005b6101fa60048036038101906101f5919061245e565b610b12565b6040516102079190612498565b60405180910390f35b61022a600480360381019061022591906123ed565b610b2f565b60405161023c96959493929190612511565b60405180910390f35b61025f600480360381019061025a919061257e565b610cc9565b005b61027b6004803603810190610276919061257e565b610ceb565b005b610297600480360381019061029291906125bc565b610d66565b6040516102a491906125fa565b60405180910390f35b6102c760048036038101906102c291906120dc565b610d91565b6040516102d4919061275f565b60405180910390f35b6102e5610e5f565b005b61030160048036038101906102fc9190612802565b610e72565b005b61030b6111ea565b6040516103189190612886565b60405180910390f35b61033b6004803603810190610336919061257e565b611211565b6040516103489190612090565b60405180910390f35b610359611275565b60405161036691906128fa565b60405180910390f35b610377611299565b6040516103849190612498565b60405180910390f35b6103a760048036038101906103a29190612913565b61129f565b005b6103c360048036038101906103be9190612963565b611542565b005b6103cd6118f4565b6040516103da91906125fa565b60405180910390f35b6103fd60048036038101906103f8919061257e565b6118fa565b005b610419600480360381019061041491906129d4565b61191c565b005b61043560048036038101906104309190612a12565b611b55565b005b5f7f7965db0b000000000000000000000000000000000000000000000000000000007bffffffffffffffffffffffffffffffffffffffffffffffffffffffff1916827bffffffffffffffffffffffffffffffffffffffffffffffffffffffff191614806104a957506104a882611bd9565b5b9050919050565b6003602052805f5260405f205f91509050805f015490806001015f9054906101000a900473ffffffffffffffffffffffffffffffffffffffff1690806002015f9054906101000a900473ffffffffffffffffffffffffffffffffffffffff1690806004015490806005015f9054906101000a900460ff16905085565b610534611c42565b5f73ffffffffffffffffffffffffffffffffffffffff168273ffffffffffffffffffffffffffffffffffffffff1603610599576040517f3efa09af00000000000000000000000000000000000000000000000000000000815260040160405180910390fd5b5f8151036105d3576040517f5dfece3f00000000000000000000000000000000000000000000000000000000815260040160405180910390fd5b5f815190505f5f60035f60025481526020019081526020015f209050600254815f018190555033816001015f6101000a81548173ffffffffffffffffffffffffffffffffffffffff021916908373ffffffffffffffffffffffffffffffffffffffff16021790555084816002015f6101000a81548173ffffffffffffffffffffffffffffffffffffffff021916908373ffffffffffffffffffffffffffffffffffffffff1602179055505f5f90505b8381101561077e575f6106ae8683815181106106a1576106a0612a3d565b5b6020026020010151611cc9565b90508260030160405180606001604052808381526020015f151581526020015f60048111156106e0576106df612155565b5b815250908060018154018082558091505060019003905f5260205f2090600202015f909190919091505f820151815f01556020820151816001015f6101000a81548160ff02191690831515021790555060408201518160010160016101000a81548160ff0219169083600481111561075b5761075a612155565b5b02179055505050808461076e9190612a97565b9350818060010192505050610682565b508181600401819055505f816005015f6101000a81548160ff021916908360038111156107ae576107ad612155565b5b02179055507f000000000000000000000000000000000000000000000000000000000000000073ffffffffffffffffffffffffffffffffffffffff166323b872dd3330856040518463ffffffff1660e01b815260040161081093929190612aca565b6020604051808303815f875af115801561082c573d5f5f3e3d5ffd5b505050506040513d601f19601f820116820180604052508101906108509190612b13565b61088f576040517f08c379a000000000000000000000000000000000000000000000000000000000815260040161088690612b88565b60405180910390fd5b60045f8673ffffffffffffffffffffffffffffffffffffffff1673ffffffffffffffffffffffffffffffffffffffff1681526020019081526020015f20600254908060018154018082558091505060019003905f5260205f20015f909190919091505560025f81548092919061090490612ba6565b91905055505050505050565b610918611c42565b5f60035f8481526020019081526020015f209050806003018054905082111561096d576040517f63df817100000000000000000000000000000000000000000000000000000000815260040160405180910390fd5b5f81600301838154811061098457610983612a3d565b5b905f5260205f2090600202019050600160048111156109a6576109a5612155565b5b8160010160019054906101000a900460ff1660048111156109ca576109c9612155565b5b14610a01576040517f50da79dd00000000000000000000000000000000000000000000000000000000815260040160405180910390fd5b60028160010160016101000a81548160ff02191690836004811115610a2957610a28612155565b5b02179055507f000000000000000000000000000000000000000000000000000000000000000073ffffffffffffffffffffffffffffffffffffffff1663a9059cbb836002015f9054906101000a900473ffffffffffffffffffffffffffffffffffffffff16835f01546040518363ffffffff1660e01b8152600401610aaf929190612bed565b6020604051808303815f875af1158015610acb573d5f5f3e3d5ffd5b505050506040513d601f19601f82011682018060405250810190610aef9190612b13565b506001816001015f6101000a81548160ff02191690831515021790555050505050565b5f60015f8381526020019081526020015f20600101549050919050565b6005602052815f5260405f20602052805f5260405f205f9150915050805f015490806001015f9054906101000a900473ffffffffffffffffffffffffffffffffffffffff1690806002018054610b8490612c41565b80601f0160208091040260200160405190810160405280929190818152602001828054610bb090612c41565b8015610bfb5780601f10610bd257610100808354040283529160200191610bfb565b820191905f5260205f20905b815481529060010190602001808311610bde57829003601f168201915b505050505090806003015f9054906101000a900473ffffffffffffffffffffffffffffffffffffffff16908060030160149054906101000a900460ff1690806004018054610c4890612c41565b80601f0160208091040260200160405190810160405280929190818152602001828054610c7490612c41565b8015610cbf5780601f10610c9657610100808354040283529160200191610cbf565b820191905f5260205f20905b815481529060010190602001808311610ca257829003601f168201915b5050505050905086565b610cd282610b12565b610cdb81611ce5565b610ce58383611cf9565b50505050565b610cf3611de2565b73ffffffffffffffffffffffffffffffffffffffff168173ffffffffffffffffffffffffffffffffffffffff1614610d57576040517f6697b23200000000000000000000000000000000000000000000000000000000815260040160405180910390fd5b610d618282611de9565b505050565b6004602052815f5260405f208181548110610d7f575f80fd5b905f5260205f20015f91509150505481565b606060035f8381526020019081526020015f20600301805480602002602001604051908101604052809291908181526020015f905b82821015610e54578382905f5260205f2090600202016040518060600160405290815f8201548152602001600182015f9054906101000a900460ff161515151581526020016001820160019054906101000a900460ff166004811115610e2f57610e2e612155565b5b6004811115610e4157610e40612155565b5b8152505081526020019060010190610dc6565b505050509050919050565b610e67611c42565b610e705f611ed3565b565b7f17a55417373800620b4c2ceaa9f76c02df2e2dd329b9cb9a7cf849712c108f6f610e9c81611ce5565b5f60035f8881526020019081526020015f206003018681548110610ec357610ec2612a3d565b5b905f5260205f20906002020190505f60055f8981526020019081526020015f205f8881526020019081526020015f20905060036004811115610f0857610f07612155565b5b8260010160019054906101000a900460ff166004811115610f2c57610f2b612155565b5b14610f63576040517f261bc65a00000000000000000000000000000000000000000000000000000000815260040160405180910390fd5b60018160030160146101000a81548160ff02191690831515021790555033816003015f6101000a81548173ffffffffffffffffffffffffffffffffffffffff021916908373ffffffffffffffffffffffffffffffffffffffff1602179055508484826004019182610fd5929190612e12565b5085156110e05760028260010160016101000a81548160ff0219169083600481111561100457611003612155565b5b02179055507f000000000000000000000000000000000000000000000000000000000000000073ffffffffffffffffffffffffffffffffffffffff1663a9059cbb60035f8b81526020019081526020015f206002015f9054906101000a900473ffffffffffffffffffffffffffffffffffffffff16845f01546040518363ffffffff1660e01b815260040161109a929190612bed565b6020604051808303815f875af11580156110b6573d5f5f3e3d5ffd5b505050506040513d601f19601f820116820180604052508101906110da9190612b13565b506111e0565b60048260010160016101000a81548160ff0219169083600481111561110857611107612155565b5b02179055507f000000000000000000000000000000000000000000000000000000000000000073ffffffffffffffffffffffffffffffffffffffff1663a9059cbb60035f8b81526020019081526020015f206001015f9054906101000a900473ffffffffffffffffffffffffffffffffffffffff16845f01546040518363ffffffff1660e01b815260040161119e929190612bed565b6020604051808303815f875af11580156111ba573d5f5f3e3d5ffd5b505050506040513d601f19601f820116820180604052508101906111de9190612b13565b505b5050505050505050565b5f5f5f9054906101000a900473ffffffffffffffffffffffffffffffffffffffff16905090565b5f60015f8481526020019081526020015f205f015f8373ffffffffffffffffffffffffffffffffffffffff1673ffffffffffffffffffffffffffffffffffffffff1681526020019081526020015f205f9054906101000a900460ff16905092915050565b7f000000000000000000000000000000000000000000000000000000000000000081565b5f5f1b81565b8260035f8281526020019081526020015f206002015f9054906101000a900473ffffffffffffffffffffffffffffffffffffffff1673ffffffffffffffffffffffffffffffffffffffff163373ffffffffffffffffffffffffffffffffffffffff1614611338576040517f706470d200000000000000000000000000000000000000000000000000000000815260040160405180910390fd5b5f60035f8681526020019081526020015f2090505f73ffffffffffffffffffffffffffffffffffffffff168373ffffffffffffffffffffffffffffffffffffffff16036113b1576040517f3efa09af00000000000000000000000000000000000000000000000000000000815260040160405180910390fd5b8273ffffffffffffffffffffffffffffffffffffffff16816002015f9054906101000a900473ffffffffffffffffffffffffffffffffffffffff1673ffffffffffffffffffffffffffffffffffffffff1614611439576040517f75aee32600000000000000000000000000000000000000000000000000000000815260040160405180910390fd5b806003018054905084111561147a576040517f63df817100000000000000000000000000000000000000000000000000000000815260040160405180910390fd5b5f81600301858154811061149157611490612a3d565b5b905f5260205f20906002020190505f60048111156114b2576114b1612155565b5b8160010160019054906101000a900460ff1660048111156114d6576114d5612155565b5b1461150d576040517f50da79dd00000000000000000000000000000000000000000000000000000000815260040160405180910390fd5b60018160010160016101000a81548160ff0219169083600481111561153557611534612155565b5b0217905550505050505050565b5f60035f8681526020019081526020015f2090508060030180549050841115611597576040517f63df817100000000000000000000000000000000000000000000000000000000815260040160405180910390fd5b5f8160030185815481106115ae576115ad612a3d565b5b905f5260205f2090600202019050816001015f9054906101000a900473ffffffffffffffffffffffffffffffffffffffff1673ffffffffffffffffffffffffffffffffffffffff163373ffffffffffffffffffffffffffffffffffffffff161415801561166a5750816002015f9054906101000a900473ffffffffffffffffffffffffffffffffffffffff1673ffffffffffffffffffffffffffffffffffffffff163373ffffffffffffffffffffffffffffffffffffffff1614155b156116a1576040517fe438f8ce00000000000000000000000000000000000000000000000000000000815260040160405180910390fd5b600160048111156116b5576116b4612155565b5b8160010160019054906101000a900460ff1660048111156116d9576116d8612155565b5b14611710576040517fccd90cc400000000000000000000000000000000000000000000000000000000815260040160405180910390fd5b60038160010160016101000a81548160ff0219169083600481111561173857611737612155565b5b02179055506040518060c001604052808681526020013373ffffffffffffffffffffffffffffffffffffffff16815260200185858080601f0160208091040260200160405190810160405280939291908181526020018383808284375f81840152601f19601f8201169050808301925050505050505081526020015f73ffffffffffffffffffffffffffffffffffffffff1681526020015f1515815260200160405180602001604052805f81525081525060055f8881526020019081526020015f205f8781526020019081526020015f205f820151815f01556020820151816001015f6101000a81548173ffffffffffffffffffffffffffffffffffffffff021916908373ffffffffffffffffffffffffffffffffffffffff160217905550604082015181600201908161186c9190612edf565b506060820151816003015f6101000a81548173ffffffffffffffffffffffffffffffffffffffff021916908373ffffffffffffffffffffffffffffffffffffffff16021790555060808201518160030160146101000a81548160ff02191690831515021790555060a08201518160040190816118e89190612edf565b50905050505050505050565b60025481565b61190382610b12565b61190c81611ce5565b6119168383611de9565b50505050565b8160035f8281526020019081526020015f206002015f9054906101000a900473ffffffffffffffffffffffffffffffffffffffff1673ffffffffffffffffffffffffffffffffffffffff163373ffffffffffffffffffffffffffffffffffffffff16146119b5576040517f706470d200000000000000000000000000000000000000000000000000000000815260040160405180910390fd5b5f60035f8581526020019081526020015f2090505f73ffffffffffffffffffffffffffffffffffffffff168373ffffffffffffffffffffffffffffffffffffffff1603611a2e576040517f3efa09af00000000000000000000000000000000000000000000000000000000815260040160405180910390fd5b8273ffffffffffffffffffffffffffffffffffffffff16816002015f9054906101000a900473ffffffffffffffffffffffffffffffffffffffff1673ffffffffffffffffffffffffffffffffffffffff1614611ab6576040517f75aee32600000000000000000000000000000000000000000000000000000000815260040160405180910390fd5b5f6003811115611ac957611ac8612155565b5b816005015f9054906101000a900460ff166003811115611aec57611aeb612155565b5b14611b23576040517fd76ebd0f00000000000000000000000000000000000000000000000000000000815260040160405180910390fd5b6001816005015f6101000a81548160ff02191690836003811115611b4a57611b49612155565b5b021790555050505050565b611b5d611c42565b5f73ffffffffffffffffffffffffffffffffffffffff168173ffffffffffffffffffffffffffffffffffffffff1603611bcd575f6040517f1e4fbdf7000000000000000000000000000000000000000000000000000000008152600401611bc49190612886565b60405180910390fd5b611bd681611ed3565b50565b5f7f01ffc9a7000000000000000000000000000000000000000000000000000000007bffffffffffffffffffffffffffffffffffffffffffffffffffffffff1916827bffffffffffffffffffffffffffffffffffffffffffffffffffffffff1916149050919050565b611c4a611de2565b73ffffffffffffffffffffffffffffffffffffffff16611c686111ea565b73ffffffffffffffffffffffffffffffffffffffff1614611cc757611c8b611de2565b6040517f118cdaa7000000000000000000000000000000000000000000000000000000008152600401611cbe9190612886565b60405180910390fd5b565b5f670de0b6b3a764000082611cde9190612fae565b9050919050565b611cf681611cf1611de2565b611f94565b50565b5f611d048383611211565b611dd8576001805f8581526020019081526020015f205f015f8473ffffffffffffffffffffffffffffffffffffffff1673ffffffffffffffffffffffffffffffffffffffff1681526020019081526020015f205f6101000a81548160ff021916908315150217905550611d75611de2565b73ffffffffffffffffffffffffffffffffffffffff168273ffffffffffffffffffffffffffffffffffffffff16847f2f8788117e7eff1d82e926ec794901d17c78024a50270940304540a733656f0d60405160405180910390a460019050611ddc565b5f90505b92915050565b5f33905090565b5f611df48383611211565b15611ec9575f60015f8581526020019081526020015f205f015f8473ffffffffffffffffffffffffffffffffffffffff1673ffffffffffffffffffffffffffffffffffffffff1681526020019081526020015f205f6101000a81548160ff021916908315150217905550611e66611de2565b73ffffffffffffffffffffffffffffffffffffffff168273ffffffffffffffffffffffffffffffffffffffff16847ff6391f5c32d9c69d2a47ea670b442974b53935d1edc7fd64eb21e047a839171b60405160405180910390a460019050611ecd565b5f90505b92915050565b5f5f5f9054906101000a900473ffffffffffffffffffffffffffffffffffffffff169050815f5f6101000a81548173ffffffffffffffffffffffffffffffffffffffff021916908373ffffffffffffffffffffffffffffffffffffffff1602179055508173ffffffffffffffffffffffffffffffffffffffff168173ffffffffffffffffffffffffffffffffffffffff167f8be0079c531659141344cd1fd0a4f28419497f9722a3daafe3b4186f6b6457e060405160405180910390a35050565b611f9e8282611211565b611fe15780826040517fe2517d3f000000000000000000000000000000000000000000000000000000008152600401611fd8929190612fef565b60405180910390fd5b5050565b5f604051905090565b5f5ffd5b5f5ffd5b5f7fffffffff0000000000000000000000000000000000000000000000000000000082169050919050565b61202a81611ff6565b8114612034575f5ffd5b50565b5f8135905061204581612021565b92915050565b5f602082840312156120605761205f611fee565b5b5f61206d84828501612037565b91505092915050565b5f8115159050919050565b61208a81612076565b82525050565b5f6020820190506120a35f830184612081565b92915050565b5f819050919050565b6120bb816120a9565b81146120c5575f5ffd5b50565b5f813590506120d6816120b2565b92915050565b5f602082840312156120f1576120f0611fee565b5b5f6120fe848285016120c8565b91505092915050565b612110816120a9565b82525050565b5f73ffffffffffffffffffffffffffffffffffffffff82169050919050565b5f61213f82612116565b9050919050565b61214f81612135565b82525050565b7f4e487b71000000000000000000000000000000000000000000000000000000005f52602160045260245ffd5b6004811061219357612192612155565b5b50565b5f8190506121a382612182565b919050565b5f6121b282612196565b9050919050565b6121c2816121a8565b82525050565b5f60a0820190506121db5f830188612107565b6121e86020830187612146565b6121f56040830186612146565b6122026060830185612107565b61220f60808301846121b9565b9695505050505050565b61222281612135565b811461222c575f5ffd5b50565b5f8135905061223d81612219565b92915050565b5f5ffd5b5f601f19601f8301169050919050565b7f4e487b71000000000000000000000000000000000000000000000000000000005f52604160045260245ffd5b61228d82612247565b810181811067ffffffffffffffff821117156122ac576122ab612257565b5b80604052505050565b5f6122be611fe5565b90506122ca8282612284565b919050565b5f67ffffffffffffffff8211156122e9576122e8612257565b5b602082029050602081019050919050565b5f5ffd5b5f61231061230b846122cf565b6122b5565b90508083825260208201905060208402830185811115612333576123326122fa565b5b835b8181101561235c578061234888826120c8565b845260208401935050602081019050612335565b5050509392505050565b5f82601f83011261237a57612379612243565b5b813561238a8482602086016122fe565b91505092915050565b5f5f604083850312156123a9576123a8611fee565b5b5f6123b68582860161222f565b925050602083013567ffffffffffffffff8111156123d7576123d6611ff2565b5b6123e385828601612366565b9150509250929050565b5f5f6040838503121561240357612402611fee565b5b5f612410858286016120c8565b9250506020612421858286016120c8565b9150509250929050565b5f819050919050565b61243d8161242b565b8114612447575f5ffd5b50565b5f8135905061245881612434565b92915050565b5f6020828403121561247357612472611fee565b5b5f6124808482850161244a565b91505092915050565b6124928161242b565b82525050565b5f6020820190506124ab5f830184612489565b92915050565b5f81519050919050565b5f82825260208201905092915050565b8281835e5f83830152505050565b5f6124e3826124b1565b6124ed81856124bb565b93506124fd8185602086016124cb565b61250681612247565b840191505092915050565b5f60c0820190506125245f830189612107565b6125316020830188612146565b818103604083015261254381876124d9565b90506125526060830186612146565b61255f6080830185612081565b81810360a083015261257181846124d9565b9050979650505050505050565b5f5f6040838503121561259457612593611fee565b5b5f6125a18582860161244a565b92505060206125b28582860161222f565b9150509250929050565b5f5f604083850312156125d2576125d1611fee565b5b5f6125df8582860161222f565b92505060206125f0858286016120c8565b9150509250929050565b5f60208201905061260d5f830184612107565b92915050565b5f81519050919050565b5f82825260208201905092915050565b5f819050602082019050919050565b612645816120a9565b82525050565b61265481612076565b82525050565b6005811061266b5761266a612155565b5b50565b5f81905061267b8261265a565b919050565b5f61268a8261266e565b9050919050565b61269a81612680565b82525050565b606082015f8201516126b45f85018261263c565b5060208201516126c7602085018261264b565b5060408201516126da6040850182612691565b50505050565b5f6126eb83836126a0565b60608301905092915050565b5f602082019050919050565b5f61270d82612613565b612717818561261d565b93506127228361262d565b805f5b8381101561275257815161273988826126e0565b9750612744836126f7565b925050600181019050612725565b5085935050505092915050565b5f6020820190508181035f8301526127778184612703565b905092915050565b61278881612076565b8114612792575f5ffd5b50565b5f813590506127a38161277f565b92915050565b5f5ffd5b5f5f83601f8401126127c2576127c1612243565b5b8235905067ffffffffffffffff8111156127df576127de6127a9565b5b6020830191508360018202830111156127fb576127fa6122fa565b5b9250929050565b5f5f5f5f5f6080868803121561281b5761281a611fee565b5b5f612828888289016120c8565b9550506020612839888289016120c8565b945050604061284a88828901612795565b935050606086013567ffffffffffffffff81111561286b5761286a611ff2565b5b612877888289016127ad565b92509250509295509295909350565b5f6020820190506128995f830184612146565b92915050565b5f819050919050565b5f6128c26128bd6128b884612116565b61289f565b612116565b9050919050565b5f6128d3826128a8565b9050919050565b5f6128e4826128c9565b9050919050565b6128f4816128da565b82525050565b5f60208201905061290d5f8301846128eb565b92915050565b5f5f5f6060848603121561292a57612929611fee565b5b5f612937868287016120c8565b9350506020612948868287016120c8565b92505060406129598682870161222f565b9150509250925092565b5f5f5f5f6060858703121561297b5761297a611fee565b5b5f612988878288016120c8565b9450506020612999878288016120c8565b935050604085013567ffffffffffffffff8111156129ba576129b9611ff2565b5b6129c6878288016127ad565b925092505092959194509250565b5f5f604083850312156129ea576129e9611fee565b5b5f6129f7858286016120c8565b9250506020612a088582860161222f565b9150509250929050565b5f60208284031215612a2757612a26611fee565b5b5f612a348482850161222f565b91505092915050565b7f4e487b71000000000000000000000000000000000000000000000000000000005f52603260045260245ffd5b7f4e487b71000000000000000000000000000000000000000000000000000000005f52601160045260245ffd5b5f612aa1826120a9565b9150612aac836120a9565b9250828201905080821115612ac457612ac3612a6a565b5b92915050565b5f606082019050612add5f830186612146565b612aea6020830185612146565b612af76040830184612107565b949350505050565b5f81519050612b0d8161277f565b92915050565b5f60208284031215612b2857612b27611fee565b5b5f612b3584828501612aff565b91505092915050565b7f5472616e73666572206661696c656400000000000000000000000000000000005f82015250565b5f612b72600f836124bb565b9150612b7d82612b3e565b602082019050919050565b5f6020820190508181035f830152612b9f81612b66565b9050919050565b5f612bb0826120a9565b91507fffffffffffffffffffffffffffffffffffffffffffffffffffffffffffffffff8203612be257612be1612a6a565b5b600182019050919050565b5f604082019050612c005f830185612146565b612c0d6020830184612107565b9392505050565b7f4e487b71000000000000000000000000000000000000000000000000000000005f52602260045260245ffd5b5f6002820490506001821680612c5857607f821691505b602082108103612c6b57612c6a612c14565b5b50919050565b5f82905092915050565b5f819050815f5260205f209050919050565b5f6020601f8301049050919050565b5f82821b905092915050565b5f60088302612cd77fffffffffffffffffffffffffffffffffffffffffffffffffffffffffffffffff82612c9c565b612ce18683612c9c565b95508019841693508086168417925050509392505050565b5f612d13612d0e612d09846120a9565b61289f565b6120a9565b9050919050565b5f819050919050565b612d2c83612cf9565b612d40612d3882612d1a565b848454612ca8565b825550505050565b5f5f905090565b612d57612d48565b612d62818484612d23565b505050565b5b81811015612d8557612d7a5f82612d4f565b600181019050612d68565b5050565b601f821115612dca57612d9b81612c7b565b612da484612c8d565b81016020851015612db3578190505b612dc7612dbf85612c8d565b830182612d67565b50505b505050565b5f82821c905092915050565b5f612dea5f1984600802612dcf565b1980831691505092915050565b5f612e028383612ddb565b9150826002028217905092915050565b612e1c8383612c71565b67ffffffffffffffff811115612e3557612e34612257565b5b612e3f8254612c41565b612e4a828285612d89565b5f601f831160018114612e77575f8415612e65578287013590505b612e6f8582612df7565b865550612ed6565b601f198416612e8586612c7b565b5f5b82811015612eac57848901358255600182019150602085019450602081019050612e87565b86831015612ec95784890135612ec5601f891682612ddb565b8355505b6001600288020188555050505b50505050505050565b612ee8826124b1565b67ffffffffffffffff811115612f0157612f00612257565b5b612f0b8254612c41565b612f16828285612d89565b5f60209050601f831160018114612f47575f8415612f35578287015190505b612f3f8582612df7565b865550612fa6565b601f198416612f5586612c7b565b5f5b82811015612f7c57848901518255600182019150602085019450602081019050612f57565b86831015612f995784890151612f95601f891682612ddb565b8355505b6001600288020188555050505b505050505050565b5f612fb8826120a9565b9150612fc3836120a9565b9250828202612fd1816120a9565b91508282048414831517612fe857612fe7612a6a565b5b5092915050565b5f6040820190506130025f830185612146565b61300f6020830184612489565b939250505056fea26469706673582212207016429a6a1eab954229f98ec8dab289996f3aca01905c7d575b087d035df7c064736f6c634300081e0033",
					"opcodes": "PUSH1 0xA0 PUSH1 0x40 MSTORE CALLVALUE DUP1 ISZERO PUSH2 0xF JUMPI PUSH0 PUSH0 REVERT JUMPDEST POP PUSH1 0x40 MLOAD PUSH2 0x3496 CODESIZE SUB DUP1 PUSH2 0x3496 DUP4 CODECOPY DUP2 DUP2 ADD PUSH1 0x40 MSTORE DUP2 ADD SWAP1 PUSH2 0x31 SWAP2 SWAP1 PUSH2 0x3B0 JUMP JUMPDEST ORIGIN PUSH0 PUSH20 0xFFFFFFFFFFFFFFFFFFFFFFFFFFFFFFFFFFFFFFFF AND DUP2 PUSH20 0xFFFFFFFFFFFFFFFFFFFFFFFFFFFFFFFFFFFFFFFF AND SUB PUSH2 0xA2 JUMPI PUSH0 PUSH1 0x40 MLOAD PUSH32 0x1E4FBDF700000000000000000000000000000000000000000000000000000000 DUP2 MSTORE PUSH1 0x4 ADD PUSH2 0x99 SWAP2 SWAP1 PUSH2 0x3FD JUMP JUMPDEST PUSH1 0x40 MLOAD DUP1 SWAP2 SUB SWAP1 REVERT JUMPDEST PUSH2 0xB1 DUP2 PUSH2 0x131 PUSH1 0x20 SHL PUSH1 0x20 SHR JUMP JUMPDEST POP DUP2 PUSH20 0xFFFFFFFFFFFFFFFFFFFFFFFFFFFFFFFFFFFFFFFF AND PUSH1 0x80 DUP2 PUSH20 0xFFFFFFFFFFFFFFFFFFFFFFFFFFFFFFFFFFFFFFFF AND DUP2 MSTORE POP POP PUSH2 0xF8 PUSH0 PUSH0 SHL CALLER PUSH2 0x1F2 PUSH1 0x20 SHL PUSH1 0x20 SHR JUMP JUMPDEST POP PUSH2 0x129 PUSH32 0x17A55417373800620B4C2CEAA9F76C02DF2E2DD329B9CB9A7CF849712C108F6F DUP3 PUSH2 0x1F2 PUSH1 0x20 SHL PUSH1 0x20 SHR JUMP JUMPDEST POP POP POP PUSH2 0x416 JUMP JUMPDEST PUSH0 PUSH0 PUSH0 SWAP1 SLOAD SWAP1 PUSH2 0x100 EXP SWAP1 DIV PUSH20 0xFFFFFFFFFFFFFFFFFFFFFFFFFFFFFFFFFFFFFFFF AND SWAP1 POP DUP2 PUSH0 PUSH0 PUSH2 0x100 EXP DUP2 SLOAD DUP2 PUSH20 0xFFFFFFFFFFFFFFFFFFFFFFFFFFFFFFFFFFFFFFFF MUL NOT AND SWAP1 DUP4 PUSH20 0xFFFFFFFFFFFFFFFFFFFFFFFFFFFFFFFFFFFFFFFF AND MUL OR SWAP1 SSTORE POP DUP2 PUSH20 0xFFFFFFFFFFFFFFFFFFFFFFFFFFFFFFFFFFFFFFFF AND DUP2 PUSH20 0xFFFFFFFFFFFFFFFFFFFFFFFFFFFFFFFFFFFFFFFF AND PUSH32 0x8BE0079C531659141344CD1FD0A4F28419497F9722A3DAAFE3B4186F6B6457E0 PUSH1 0x40 MLOAD PUSH1 0x40 MLOAD DUP1 SWAP2 SUB SWAP1 LOG3 POP POP JUMP JUMPDEST PUSH0 PUSH2 0x203 DUP4 DUP4 PUSH2 0x2E7 PUSH1 0x20 SHL PUSH1 0x20 SHR JUMP JUMPDEST PUSH2 0x2DD JUMPI PUSH1 0x1 DUP1 PUSH0 DUP6 DUP2 MSTORE PUSH1 0x20 ADD SWAP1 DUP2 MSTORE PUSH1 0x20 ADD PUSH0 KECCAK256 PUSH0 ADD PUSH0 DUP5 PUSH20 0xFFFFFFFFFFFFFFFFFFFFFFFFFFFFFFFFFFFFFFFF AND PUSH20 0xFFFFFFFFFFFFFFFFFFFFFFFFFFFFFFFFFFFFFFFF AND DUP2 MSTORE PUSH1 0x20 ADD SWAP1 DUP2 MSTORE PUSH1 0x20 ADD PUSH0 KECCAK256 PUSH0 PUSH2 0x100 EXP DUP2 SLOAD DUP2 PUSH1 0xFF MUL NOT AND SWAP1 DUP4 ISZERO ISZERO MUL OR SWAP1 SSTORE POP PUSH2 0x27A PUSH2 0x34B PUSH1 0x20 SHL PUSH1 0x20 SHR JUMP JUMPDEST PUSH20 0xFFFFFFFFFFFFFFFFFFFFFFFFFFFFFFFFFFFFFFFF AND DUP3 PUSH20 0xFFFFFFFFFFFFFFFFFFFFFFFFFFFFFFFFFFFFFFFF AND DUP5 PUSH32 0x2F8788117E7EFF1D82E926EC794901D17C78024A50270940304540A733656F0D PUSH1 0x40 MLOAD PUSH1 0x40 MLOAD DUP1 SWAP2 SUB SWAP1 LOG4 PUSH1 0x1 SWAP1 POP PUSH2 0x2E1 JUMP JUMPDEST PUSH0 SWAP1 POP JUMPDEST SWAP3 SWAP2 POP POP JUMP JUMPDEST PUSH0 PUSH1 0x1 PUSH0 DUP5 DUP2 MSTORE PUSH1 0x20 ADD SWAP1 DUP2 MSTORE PUSH1 0x20 ADD PUSH0 KECCAK256 PUSH0 ADD PUSH0 DUP4 PUSH20 0xFFFFFFFFFFFFFFFFFFFFFFFFFFFFFFFFFFFFFFFF AND PUSH20 0xFFFFFFFFFFFFFFFFFFFFFFFFFFFFFFFFFFFFFFFF AND DUP2 MSTORE PUSH1 0x20 ADD SWAP1 DUP2 MSTORE PUSH1 0x20 ADD PUSH0 KECCAK256 PUSH0 SWAP1 SLOAD SWAP1 PUSH2 0x100 EXP SWAP1 DIV PUSH1 0xFF AND SWAP1 POP SWAP3 SWAP2 POP POP JUMP JUMPDEST PUSH0 CALLER SWAP1 POP SWAP1 JUMP JUMPDEST PUSH0 PUSH0 REVERT JUMPDEST PUSH0 PUSH20 0xFFFFFFFFFFFFFFFFFFFFFFFFFFFFFFFFFFFFFFFF DUP3 AND SWAP1 POP SWAP2 SWAP1 POP JUMP JUMPDEST PUSH0 PUSH2 0x37F DUP3 PUSH2 0x356 JUMP JUMPDEST SWAP1 POP SWAP2 SWAP1 POP JUMP JUMPDEST PUSH2 0x38F DUP2 PUSH2 0x375 JUMP JUMPDEST DUP2 EQ PUSH2 0x399 JUMPI PUSH0 PUSH0 REVERT JUMPDEST POP JUMP JUMPDEST PUSH0 DUP2 MLOAD SWAP1 POP PUSH2 0x3AA DUP2 PUSH2 0x386 JUMP JUMPDEST SWAP3 SWAP2 POP POP JUMP JUMPDEST PUSH0 PUSH0 PUSH1 0x40 DUP4 DUP6 SUB SLT ISZERO PUSH2 0x3C6 JUMPI PUSH2 0x3C5 PUSH2 0x352 JUMP JUMPDEST JUMPDEST PUSH0 PUSH2 0x3D3 DUP6 DUP3 DUP7 ADD PUSH2 0x39C JUMP JUMPDEST SWAP3 POP POP PUSH1 0x20 PUSH2 0x3E4 DUP6 DUP3 DUP7 ADD PUSH2 0x39C JUMP JUMPDEST SWAP2 POP POP SWAP3 POP SWAP3 SWAP1 POP JUMP JUMPDEST PUSH2 0x3F7 DUP2 PUSH2 0x375 JUMP JUMPDEST DUP3 MSTORE POP POP JUMP JUMPDEST PUSH0 PUSH1 0x20 DUP3 ADD SWAP1 POP PUSH2 0x410 PUSH0 DUP4 ADD DUP5 PUSH2 0x3EE JUMP JUMPDEST SWAP3 SWAP2 POP POP JUMP JUMPDEST PUSH1 0x80 MLOAD PUSH2 0x304C PUSH2 0x44A PUSH0 CODECOPY PUSH0 DUP2 DUP2 PUSH2 0x7B5 ADD MSTORE DUP2 DUP2 PUSH2 0xA30 ADD MSTORE DUP2 DUP2 PUSH2 0x100B ADD MSTORE DUP2 DUP2 PUSH2 0x110F ADD MSTORE PUSH2 0x1277 ADD MSTORE PUSH2 0x304C PUSH0 RETURN INVALID PUSH1 0x80 PUSH1 0x40 MSTORE CALLVALUE DUP1 ISZERO PUSH2 0xF JUMPI PUSH0 PUSH0 REVERT JUMPDEST POP PUSH1 0x4 CALLDATASIZE LT PUSH2 0x140 JUMPI PUSH0 CALLDATALOAD PUSH1 0xE0 SHR DUP1 PUSH4 0x870D364D GT PUSH2 0xB6 JUMPI DUP1 PUSH4 0xB728775B GT PUSH2 0x7A JUMPI DUP1 PUSH4 0xB728775B EQ PUSH2 0x38D JUMPI DUP1 PUSH4 0xC290DD71 EQ PUSH2 0x3A9 JUMPI DUP1 PUSH4 0xC2939D97 EQ PUSH2 0x3C5 JUMPI DUP1 PUSH4 0xD547741F EQ PUSH2 0x3E3 JUMPI DUP1 PUSH4 0xD7D86727 EQ PUSH2 0x3FF JUMPI DUP1 PUSH4 0xF2FDE38B EQ PUSH2 0x41B JUMPI PUSH2 0x140 JUMP JUMPDEST DUP1 PUSH4 0x870D364D EQ PUSH2 0x2E7 JUMPI DUP1 PUSH4 0x8DA5CB5B EQ PUSH2 0x303 JUMPI DUP1 PUSH4 0x91D14854 EQ PUSH2 0x321 JUMPI DUP1 PUSH4 0x9608B232 EQ PUSH2 0x351 JUMPI DUP1 PUSH4 0xA217FDDF EQ PUSH2 0x36F JUMPI PUSH2 0x140 JUMP JUMPDEST DUP1 PUSH4 0x25E43652 GT PUSH2 0x108 JUMPI DUP1 PUSH4 0x25E43652 EQ PUSH2 0x210 JUMPI DUP1 PUSH4 0x2F2FF15D EQ PUSH2 0x245 JUMPI DUP1 PUSH4 0x36568ABE EQ PUSH2 0x261 JUMPI DUP1 PUSH4 0x442F5C88 EQ PUSH2 0x27D JUMPI DUP1 PUSH4 0x65C498AB EQ PUSH2 0x2AD JUMPI DUP1 PUSH4 0x715018A6 EQ PUSH2 0x2DD JUMPI PUSH2 0x140 JUMP JUMPDEST DUP1 PUSH4 0x1FFC9A7 EQ PUSH2 0x144 JUMPI DUP1 PUSH4 0x180AEDF3 EQ PUSH2 0x174 JUMPI DUP1 PUSH4 0x1A424050 EQ PUSH2 0x1A8 JUMPI DUP1 PUSH4 0x20913DA5 EQ PUSH2 0x1C4 JUMPI DUP1 PUSH4 0x248A9CA3 EQ PUSH2 0x1E0 JUMPI JUMPDEST PUSH0 PUSH0 REVERT JUMPDEST PUSH2 0x15E PUSH1 0x4 DUP1 CALLDATASIZE SUB DUP2 ADD SWAP1 PUSH2 0x159 SWAP2 SWAP1 PUSH2 0x204B JUMP JUMPDEST PUSH2 0x437 JUMP JUMPDEST PUSH1 0x40 MLOAD PUSH2 0x16B SWAP2 SWAP1 PUSH2 0x2090 JUMP JUMPDEST PUSH1 0x40 MLOAD DUP1 SWAP2 SUB SWAP1 RETURN JUMPDEST PUSH2 0x18E PUSH1 0x4 DUP1 CALLDATASIZE SUB DUP2 ADD SWAP1 PUSH2 0x189 SWAP2 SWAP1 PUSH2 0x20DC JUMP JUMPDEST PUSH2 0x4B0 JUMP JUMPDEST PUSH1 0x40 MLOAD PUSH2 0x19F SWAP6 SWAP5 SWAP4 SWAP3 SWAP2 SWAP1 PUSH2 0x21C8 JUMP JUMPDEST PUSH1 0x40 MLOAD DUP1 SWAP2 SUB SWAP1 RETURN JUMPDEST PUSH2 0x1C2 PUSH1 0x4 DUP1 CALLDATASIZE SUB DUP2 ADD SWAP1 PUSH2 0x1BD SWAP2 SWAP1 PUSH2 0x2393 JUMP JUMPDEST PUSH2 0x52C JUMP JUMPDEST STOP JUMPDEST PUSH2 0x1DE PUSH1 0x4 DUP1 CALLDATASIZE SUB DUP2 ADD SWAP1 PUSH2 0x1D9 SWAP2 SWAP1 PUSH2 0x23ED JUMP JUMPDEST PUSH2 0x910 JUMP JUMPDEST STOP JUMPDEST PUSH2 0x1FA PUSH1 0x4 DUP1 CALLDATASIZE SUB DUP2 ADD SWAP1 PUSH2 0x1F5 SWAP2 SWAP1 PUSH2 0x245E JUMP JUMPDEST PUSH2 0xB12 JUMP JUMPDEST PUSH1 0x40 MLOAD PUSH2 0x207 SWAP2 SWAP1 PUSH2 0x2498 JUMP JUMPDEST PUSH1 0x40 MLOAD DUP1 SWAP2 SUB SWAP1 RETURN JUMPDEST PUSH2 0x22A PUSH1 0x4 DUP1 CALLDATASIZE SUB DUP2 ADD SWAP1 PUSH2 0x225 SWAP2 SWAP1 PUSH2 0x23ED JUMP JUMPDEST PUSH2 0xB2F JUMP JUMPDEST PUSH1 0x40 MLOAD PUSH2 0x23C SWAP7 SWAP6 SWAP5 SWAP4 SWAP3 SWAP2 SWAP1 PUSH2 0x2511 JUMP JUMPDEST PUSH1 0x40 MLOAD DUP1 SWAP2 SUB SWAP1 RETURN JUMPDEST PUSH2 0x25F PUSH1 0x4 DUP1 CALLDATASIZE SUB DUP2 ADD SWAP1 PUSH2 0x25A SWAP2 SWAP1 PUSH2 0x257E JUMP JUMPDEST PUSH2 0xCC9 JUMP JUMPDEST STOP JUMPDEST PUSH2 0x27B PUSH1 0x4 DUP1 CALLDATASIZE SUB DUP2 ADD SWAP1 PUSH2 0x276 SWAP2 SWAP1 PUSH2 0x257E JUMP JUMPDEST PUSH2 0xCEB JUMP JUMPDEST STOP JUMPDEST PUSH2 0x297 PUSH1 0x4 DUP1 CALLDATASIZE SUB DUP2 ADD SWAP1 PUSH2 0x292 SWAP2 SWAP1 PUSH2 0x25BC JUMP JUMPDEST PUSH2 0xD66 JUMP JUMPDEST PUSH1 0x40 MLOAD PUSH2 0x2A4 SWAP2 SWAP1 PUSH2 0x25FA JUMP JUMPDEST PUSH1 0x40 MLOAD DUP1 SWAP2 SUB SWAP1 RETURN JUMPDEST PUSH2 0x2C7 PUSH1 0x4 DUP1 CALLDATASIZE SUB DUP2 ADD SWAP1 PUSH2 0x2C2 SWAP2 SWAP1 PUSH2 0x20DC JUMP JUMPDEST PUSH2 0xD91 JUMP JUMPDEST PUSH1 0x40 MLOAD PUSH2 0x2D4 SWAP2 SWAP1 PUSH2 0x275F JUMP JUMPDEST PUSH1 0x40 MLOAD DUP1 SWAP2 SUB SWAP1 RETURN JUMPDEST PUSH2 0x2E5 PUSH2 0xE5F JUMP JUMPDEST STOP JUMPDEST PUSH2 0x301 PUSH1 0x4 DUP1 CALLDATASIZE SUB DUP2 ADD SWAP1 PUSH2 0x2FC SWAP2 SWAP1 PUSH2 0x2802 JUMP JUMPDEST PUSH2 0xE72 JUMP JUMPDEST STOP JUMPDEST PUSH2 0x30B PUSH2 0x11EA JUMP JUMPDEST PUSH1 0x40 MLOAD PUSH2 0x318 SWAP2 SWAP1 PUSH2 0x2886 JUMP JUMPDEST PUSH1 0x40 MLOAD DUP1 SWAP2 SUB SWAP1 RETURN JUMPDEST PUSH2 0x33B PUSH1 0x4 DUP1 CALLDATASIZE SUB DUP2 ADD SWAP1 PUSH2 0x336 SWAP2 SWAP1 PUSH2 0x257E JUMP JUMPDEST PUSH2 0x1211 JUMP JUMPDEST PUSH1 0x40 MLOAD PUSH2 0x348 SWAP2 SWAP1 PUSH2 0x2090 JUMP JUMPDEST PUSH1 0x40 MLOAD DUP1 SWAP2 SUB SWAP1 RETURN JUMPDEST PUSH2 0x359 PUSH2 0x1275 JUMP JUMPDEST PUSH1 0x40 MLOAD PUSH2 0x366 SWAP2 SWAP1 PUSH2 0x28FA JUMP JUMPDEST PUSH1 0x40 MLOAD DUP1 SWAP2 SUB SWAP1 RETURN JUMPDEST PUSH2 0x377 PUSH2 0x1299 JUMP JUMPDEST PUSH1 0x40 MLOAD PUSH2 0x384 SWAP2 SWAP1 PUSH2 0x2498 JUMP JUMPDEST PUSH1 0x40 MLOAD DUP1 SWAP2 SUB SWAP1 RETURN JUMPDEST PUSH2 0x3A7 PUSH1 0x4 DUP1 CALLDATASIZE SUB DUP2 ADD SWAP1 PUSH2 0x3A2 SWAP2 SWAP1 PUSH2 0x2913 JUMP JUMPDEST PUSH2 0x129F JUMP JUMPDEST STOP JUMPDEST PUSH2 0x3C3 PUSH1 0x4 DUP1 CALLDATASIZE SUB DUP2 ADD SWAP1 PUSH2 0x3BE SWAP2 SWAP1 PUSH2 0x2963 JUMP JUMPDEST PUSH2 0x1542 JUMP JUMPDEST STOP JUMPDEST PUSH2 0x3CD PUSH2 0x18F4 JUMP JUMPDEST PUSH1 0x40 MLOAD PUSH2 0x3DA SWAP2 SWAP1 PUSH2 0x25FA JUMP JUMPDEST PUSH1 0x40 MLOAD DUP1 SWAP2 SUB SWAP1 RETURN JUMPDEST PUSH2 0x3FD PUSH1 0x4 DUP1 CALLDATASIZE SUB DUP2 ADD SWAP1 PUSH2 0x3F8 SWAP2 SWAP1 PUSH2 0x257E JUMP JUMPDEST PUSH2 0x18FA JUMP JUMPDEST STOP JUMPDEST PUSH2 0x419 PUSH1 0x4 DUP1 CALLDATASIZE SUB DUP2 ADD SWAP1 PUSH2 0x414 SWAP2 SWAP1 PUSH2 0x29D4 JUMP JUMPDEST PUSH2 0x191C JUMP JUMPDEST STOP JUMPDEST PUSH2 0x435 PUSH1 0x4 DUP1 CALLDATASIZE SUB DUP2 ADD SWAP1 PUSH2 0x430 SWAP2 SWAP1 PUSH2 0x2A12 JUMP JUMPDEST PUSH2 0x1B55 JUMP JUMPDEST STOP JUMPDEST PUSH0 PUSH32 0x7965DB0B00000000000000000000000000000000000000000000000000000000 PUSH28 0xFFFFFFFFFFFFFFFFFFFFFFFFFFFFFFFFFFFFFFFFFFFFFFFFFFFFFFFF NOT AND DUP3 PUSH28 0xFFFFFFFFFFFFFFFFFFFFFFFFFFFFFFFFFFFFFFFFFFFFFFFFFFFFFFFF NOT AND EQ DUP1 PUSH2 0x4A9 JUMPI POP PUSH2 0x4A8 DUP3 PUSH2 0x1BD9 JUMP JUMPDEST JUMPDEST SWAP1 POP SWAP2 SWAP1 POP JUMP JUMPDEST PUSH1 0x3 PUSH1 0x20 MSTORE DUP1 PUSH0 MSTORE PUSH1 0x40 PUSH0 KECCAK256 PUSH0 SWAP2 POP SWAP1 POP DUP1 PUSH0 ADD SLOAD SWAP1 DUP1 PUSH1 0x1 ADD PUSH0 SWAP1 SLOAD SWAP1 PUSH2 0x100 EXP SWAP1 DIV PUSH20 0xFFFFFFFFFFFFFFFFFFFFFFFFFFFFFFFFFFFFFFFF AND SWAP1 DUP1 PUSH1 0x2 ADD PUSH0 SWAP1 SLOAD SWAP1 PUSH2 0x100 EXP SWAP1 DIV PUSH20 0xFFFFFFFFFFFFFFFFFFFFFFFFFFFFFFFFFFFFFFFF AND SWAP1 DUP1 PUSH1 0x4 ADD SLOAD SWAP1 DUP1 PUSH1 0x5 ADD PUSH0 SWAP1 SLOAD SWAP1 PUSH2 0x100 EXP SWAP1 DIV PUSH1 0xFF AND SWAP1 POP DUP6 JUMP JUMPDEST PUSH2 0x534 PUSH2 0x1C42 JUMP JUMPDEST PUSH0 PUSH20 0xFFFFFFFFFFFFFFFFFFFFFFFFFFFFFFFFFFFFFFFF AND DUP3 PUSH20 0xFFFFFFFFFFFFFFFFFFFFFFFFFFFFFFFFFFFFFFFF AND SUB PUSH2 0x599 JUMPI PUSH1 0x40 MLOAD PUSH32 0x3EFA09AF00000000000000000000000000000000000000000000000000000000 DUP2 MSTORE PUSH1 0x4 ADD PUSH1 0x40 MLOAD DUP1 SWAP2 SUB SWAP1 REVERT JUMPDEST PUSH0 DUP2 MLOAD SUB PUSH2 0x5D3 JUMPI PUSH1 0x40 MLOAD PUSH32 0x5DFECE3F00000000000000000000000000000000000000000000000000000000 DUP2 MSTORE PUSH1 0x4 ADD PUSH1 0x40 MLOAD DUP1 SWAP2 SUB SWAP1 REVERT JUMPDEST PUSH0 DUP2 MLOAD SWAP1 POP PUSH0 PUSH0 PUSH1 0x3 PUSH0 PUSH1 0x2 SLOAD DUP2 MSTORE PUSH1 0x20 ADD SWAP1 DUP2 MSTORE PUSH1 0x20 ADD PUSH0 KECCAK256 SWAP1 POP PUSH1 0x2 SLOAD DUP2 PUSH0 ADD DUP2 SWAP1 SSTORE POP CALLER DUP2 PUSH1 0x1 ADD PUSH0 PUSH2 0x100 EXP DUP2 SLOAD DUP2 PUSH20 0xFFFFFFFFFFFFFFFFFFFFFFFFFFFFFFFFFFFFFFFF MUL NOT AND SWAP1 DUP4 PUSH20 0xFFFFFFFFFFFFFFFFFFFFFFFFFFFFFFFFFFFFFFFF AND MUL OR SWAP1 SSTORE POP DUP5 DUP2 PUSH1 0x2 ADD PUSH0 PUSH2 0x100 EXP DUP2 SLOAD DUP2 PUSH20 0xFFFFFFFFFFFFFFFFFFFFFFFFFFFFFFFFFFFFFFFF MUL NOT AND SWAP1 DUP4 PUSH20 0xFFFFFFFFFFFFFFFFFFFFFFFFFFFFFFFFFFFFFFFF AND MUL OR SWAP1 SSTORE POP PUSH0 PUSH0 SWAP1 POP JUMPDEST DUP4 DUP2 LT ISZERO PUSH2 0x77E JUMPI PUSH0 PUSH2 0x6AE DUP7 DUP4 DUP2 MLOAD DUP2 LT PUSH2 0x6A1 JUMPI PUSH2 0x6A0 PUSH2 0x2A3D JUMP JUMPDEST JUMPDEST PUSH1 0x20 MUL PUSH1 0x20 ADD ADD MLOAD PUSH2 0x1CC9 JUMP JUMPDEST SWAP1 POP DUP3 PUSH1 0x3 ADD PUSH1 0x40 MLOAD DUP1 PUSH1 0x60 ADD PUSH1 0x40 MSTORE DUP1 DUP4 DUP2 MSTORE PUSH1 0x20 ADD PUSH0 ISZERO ISZERO DUP2 MSTORE PUSH1 0x20 ADD PUSH0 PUSH1 0x4 DUP2 GT ISZERO PUSH2 0x6E0 JUMPI PUSH2 0x6DF PUSH2 0x2155 JUMP JUMPDEST JUMPDEST DUP2 MSTORE POP SWAP1 DUP1 PUSH1 0x1 DUP2 SLOAD ADD DUP1 DUP3 SSTORE DUP1 SWAP2 POP POP PUSH1 0x1 SWAP1 SUB SWAP1 PUSH0 MSTORE PUSH1 0x20 PUSH0 KECCAK256 SWAP1 PUSH1 0x2 MUL ADD PUSH0 SWAP1 SWAP2 SWAP1 SWAP2 SWAP1 SWAP2 POP PUSH0 DUP3 ADD MLOAD DUP2 PUSH0 ADD SSTORE PUSH1 0x20 DUP3 ADD MLOAD DUP2 PUSH1 0x1 ADD PUSH0 PUSH2 0x100 EXP DUP2 SLOAD DUP2 PUSH1 0xFF MUL NOT AND SWAP1 DUP4 ISZERO ISZERO MUL OR SWAP1 SSTORE POP PUSH1 0x40 DUP3 ADD MLOAD DUP2 PUSH1 0x1 ADD PUSH1 0x1 PUSH2 0x100 EXP DUP2 SLOAD DUP2 PUSH1 0xFF MUL NOT AND SWAP1 DUP4 PUSH1 0x4 DUP2 GT ISZERO PUSH2 0x75B JUMPI PUSH2 0x75A PUSH2 0x2155 JUMP JUMPDEST JUMPDEST MUL OR SWAP1 SSTORE POP POP POP DUP1 DUP5 PUSH2 0x76E SWAP2 SWAP1 PUSH2 0x2A97 JUMP JUMPDEST SWAP4 POP DUP2 DUP1 PUSH1 0x1 ADD SWAP3 POP POP POP PUSH2 0x682 JUMP JUMPDEST POP DUP2 DUP2 PUSH1 0x4 ADD DUP2 SWAP1 SSTORE POP PUSH0 DUP2 PUSH1 0x5 ADD PUSH0 PUSH2 0x100 EXP DUP2 SLOAD DUP2 PUSH1 0xFF MUL NOT AND SWAP1 DUP4 PUSH1 0x3 DUP2 GT ISZERO PUSH2 0x7AE JUMPI PUSH2 0x7AD PUSH2 0x2155 JUMP JUMPDEST JUMPDEST MUL OR SWAP1 SSTORE POP PUSH32 0x0 PUSH20 0xFFFFFFFFFFFFFFFFFFFFFFFFFFFFFFFFFFFFFFFF AND PUSH4 0x23B872DD CALLER ADDRESS DUP6 PUSH1 0x40 MLOAD DUP5 PUSH4 0xFFFFFFFF AND PUSH1 0xE0 SHL DUP2 MSTORE PUSH1 0x4 ADD PUSH2 0x810 SWAP4 SWAP3 SWAP2 SWAP1 PUSH2 0x2ACA JUMP JUMPDEST PUSH1 0x20 PUSH1 0x40 MLOAD DUP1 DUP4 SUB DUP2 PUSH0 DUP8 GAS CALL ISZERO DUP1 ISZERO PUSH2 0x82C JUMPI RETURNDATASIZE PUSH0 PUSH0 RETURNDATACOPY RETURNDATASIZE PUSH0 REVERT JUMPDEST POP POP POP POP PUSH1 0x40 MLOAD RETURNDATASIZE PUSH1 0x1F NOT PUSH1 0x1F DUP3 ADD AND DUP3 ADD DUP1 PUSH1 0x40 MSTORE POP DUP2 ADD SWAP1 PUSH2 0x850 SWAP2 SWAP1 PUSH2 0x2B13 JUMP JUMPDEST PUSH2 0x88F JUMPI PUSH1 0x40 MLOAD PUSH32 0x8C379A000000000000000000000000000000000000000000000000000000000 DUP2 MSTORE PUSH1 0x4 ADD PUSH2 0x886 SWAP1 PUSH2 0x2B88 JUMP JUMPDEST PUSH1 0x40 MLOAD DUP1 SWAP2 SUB SWAP1 REVERT JUMPDEST PUSH1 0x4 PUSH0 DUP7 PUSH20 0xFFFFFFFFFFFFFFFFFFFFFFFFFFFFFFFFFFFFFFFF AND PUSH20 0xFFFFFFFFFFFFFFFFFFFFFFFFFFFFFFFFFFFFFFFF AND DUP2 MSTORE PUSH1 0x20 ADD SWAP1 DUP2 MSTORE PUSH1 0x20 ADD PUSH0 KECCAK256 PUSH1 0x2 SLOAD SWAP1 DUP1 PUSH1 0x1 DUP2 SLOAD ADD DUP1 DUP3 SSTORE DUP1 SWAP2 POP POP PUSH1 0x1 SWAP1 SUB SWAP1 PUSH0 MSTORE PUSH1 0x20 PUSH0 KECCAK256 ADD PUSH0 SWAP1 SWAP2 SWAP1 SWAP2 SWAP1 SWAP2 POP SSTORE PUSH1 0x2 PUSH0 DUP2 SLOAD DUP1 SWAP3 SWAP2 SWAP1 PUSH2 0x904 SWAP1 PUSH2 0x2BA6 JUMP JUMPDEST SWAP2 SWAP1 POP SSTORE POP POP POP POP POP POP JUMP JUMPDEST PUSH2 0x918 PUSH2 0x1C42 JUMP JUMPDEST PUSH0 PUSH1 0x3 PUSH0 DUP5 DUP2 MSTORE PUSH1 0x20 ADD SWAP1 DUP2 MSTORE PUSH1 0x20 ADD PUSH0 KECCAK256 SWAP1 POP DUP1 PUSH1 0x3 ADD DUP1 SLOAD SWAP1 POP DUP3 GT ISZERO PUSH2 0x96D JUMPI PUSH1 0x40 MLOAD PUSH32 0x63DF817100000000000000000000000000000000000000000000000000000000 DUP2 MSTORE PUSH1 0x4 ADD PUSH1 0x40 MLOAD DUP1 SWAP2 SUB SWAP1 REVERT JUMPDEST PUSH0 DUP2 PUSH1 0x3 ADD DUP4 DUP2 SLOAD DUP2 LT PUSH2 0x984 JUMPI PUSH2 0x983 PUSH2 0x2A3D JUMP JUMPDEST JUMPDEST SWAP1 PUSH0 MSTORE PUSH1 0x20 PUSH0 KECCAK256 SWAP1 PUSH1 0x2 MUL ADD SWAP1 POP PUSH1 0x1 PUSH1 0x4 DUP2 GT ISZERO PUSH2 0x9A6 JUMPI PUSH2 0x9A5 PUSH2 0x2155 JUMP JUMPDEST JUMPDEST DUP2 PUSH1 0x1 ADD PUSH1 0x1 SWAP1 SLOAD SWAP1 PUSH2 0x100 EXP SWAP1 DIV PUSH1 0xFF AND PUSH1 0x4 DUP2 GT ISZERO PUSH2 0x9CA JUMPI PUSH2 0x9C9 PUSH2 0x2155 JUMP JUMPDEST JUMPDEST EQ PUSH2 0xA01 JUMPI PUSH1 0x40 MLOAD PUSH32 0x50DA79DD00000000000000000000000000000000000000000000000000000000 DUP2 MSTORE PUSH1 0x4 ADD PUSH1 0x40 MLOAD DUP1 SWAP2 SUB SWAP1 REVERT JUMPDEST PUSH1 0x2 DUP2 PUSH1 0x1 ADD PUSH1 0x1 PUSH2 0x100 EXP DUP2 SLOAD DUP2 PUSH1 0xFF MUL NOT AND SWAP1 DUP4 PUSH1 0x4 DUP2 GT ISZERO PUSH2 0xA29 JUMPI PUSH2 0xA28 PUSH2 0x2155 JUMP JUMPDEST JUMPDEST MUL OR SWAP1 SSTORE POP PUSH32 0x0 PUSH20 0xFFFFFFFFFFFFFFFFFFFFFFFFFFFFFFFFFFFFFFFF AND PUSH4 0xA9059CBB DUP4 PUSH1 0x2 ADD PUSH0 SWAP1 SLOAD SWAP1 PUSH2 0x100 EXP SWAP1 DIV PUSH20 0xFFFFFFFFFFFFFFFFFFFFFFFFFFFFFFFFFFFFFFFF AND DUP4 PUSH0 ADD SLOAD PUSH1 0x40 MLOAD DUP4 PUSH4 0xFFFFFFFF AND PUSH1 0xE0 SHL DUP2 MSTORE PUSH1 0x4 ADD PUSH2 0xAAF SWAP3 SWAP2 SWAP1 PUSH2 0x2BED JUMP JUMPDEST PUSH1 0x20 PUSH1 0x40 MLOAD DUP1 DUP4 SUB DUP2 PUSH0 DUP8 GAS CALL ISZERO DUP1 ISZERO PUSH2 0xACB JUMPI RETURNDATASIZE PUSH0 PUSH0 RETURNDATACOPY RETURNDATASIZE PUSH0 REVERT JUMPDEST POP POP POP POP PUSH1 0x40 MLOAD RETURNDATASIZE PUSH1 0x1F NOT PUSH1 0x1F DUP3 ADD AND DUP3 ADD DUP1 PUSH1 0x40 MSTORE POP DUP2 ADD SWAP1 PUSH2 0xAEF SWAP2 SWAP1 PUSH2 0x2B13 JUMP JUMPDEST POP PUSH1 0x1 DUP2 PUSH1 0x1 ADD PUSH0 PUSH2 0x100 EXP DUP2 SLOAD DUP2 PUSH1 0xFF MUL NOT AND SWAP1 DUP4 ISZERO ISZERO MUL OR SWAP1 SSTORE POP POP POP POP POP JUMP JUMPDEST PUSH0 PUSH1 0x1 PUSH0 DUP4 DUP2 MSTORE PUSH1 0x20 ADD SWAP1 DUP2 MSTORE PUSH1 0x20 ADD PUSH0 KECCAK256 PUSH1 0x1 ADD SLOAD SWAP1 POP SWAP2 SWAP1 POP JUMP JUMPDEST PUSH1 0x5 PUSH1 0x20 MSTORE DUP2 PUSH0 MSTORE PUSH1 0x40 PUSH0 KECCAK256 PUSH1 0x20 MSTORE DUP1 PUSH0 MSTORE PUSH1 0x40 PUSH0 KECCAK256 PUSH0 SWAP2 POP SWAP2 POP POP DUP1 PUSH0 ADD SLOAD SWAP1 DUP1 PUSH1 0x1 ADD PUSH0 SWAP1 SLOAD SWAP1 PUSH2 0x100 EXP SWAP1 DIV PUSH20 0xFFFFFFFFFFFFFFFFFFFFFFFFFFFFFFFFFFFFFFFF AND SWAP1 DUP1 PUSH1 0x2 ADD DUP1 SLOAD PUSH2 0xB84 SWAP1 PUSH2 0x2C41 JUMP JUMPDEST DUP1 PUSH1 0x1F ADD PUSH1 0x20 DUP1 SWAP2 DIV MUL PUSH1 0x20 ADD PUSH1 0x40 MLOAD SWAP1 DUP2 ADD PUSH1 0x40 MSTORE DUP1 SWAP3 SWAP2 SWAP1 DUP2 DUP2 MSTORE PUSH1 0x20 ADD DUP3 DUP1 SLOAD PUSH2 0xBB0 SWAP1 PUSH2 0x2C41 JUMP JUMPDEST DUP1 ISZERO PUSH2 0xBFB JUMPI DUP1 PUSH1 0x1F LT PUSH2 0xBD2 JUMPI PUSH2 0x100 DUP1 DUP4 SLOAD DIV MUL DUP4 MSTORE SWAP2 PUSH1 0x20 ADD SWAP2 PUSH2 0xBFB JUMP JUMPDEST DUP3 ADD SWAP2 SWAP1 PUSH0 MSTORE PUSH1 0x20 PUSH0 KECCAK256 SWAP1 JUMPDEST DUP2 SLOAD DUP2 MSTORE SWAP1 PUSH1 0x1 ADD SWAP1 PUSH1 0x20 ADD DUP1 DUP4 GT PUSH2 0xBDE JUMPI DUP3 SWAP1 SUB PUSH1 0x1F AND DUP3 ADD SWAP2 JUMPDEST POP POP POP POP POP SWAP1 DUP1 PUSH1 0x3 ADD PUSH0 SWAP1 SLOAD SWAP1 PUSH2 0x100 EXP SWAP1 DIV PUSH20 0xFFFFFFFFFFFFFFFFFFFFFFFFFFFFFFFFFFFFFFFF AND SWAP1 DUP1 PUSH1 0x3 ADD PUSH1 0x14 SWAP1 SLOAD SWAP1 PUSH2 0x100 EXP SWAP1 DIV PUSH1 0xFF AND SWAP1 DUP1 PUSH1 0x4 ADD DUP1 SLOAD PUSH2 0xC48 SWAP1 PUSH2 0x2C41 JUMP JUMPDEST DUP1 PUSH1 0x1F ADD PUSH1 0x20 DUP1 SWAP2 DIV MUL PUSH1 0x20 ADD PUSH1 0x40 MLOAD SWAP1 DUP2 ADD PUSH1 0x40 MSTORE DUP1 SWAP3 SWAP2 SWAP1 DUP2 DUP2 MSTORE PUSH1 0x20 ADD DUP3 DUP1 SLOAD PUSH2 0xC74 SWAP1 PUSH2 0x2C41 JUMP JUMPDEST DUP1 ISZERO PUSH2 0xCBF JUMPI DUP1 PUSH1 0x1F LT PUSH2 0xC96 JUMPI PUSH2 0x100 DUP1 DUP4 SLOAD DIV MUL DUP4 MSTORE SWAP2 PUSH1 0x20 ADD SWAP2 PUSH2 0xCBF JUMP JUMPDEST DUP3 ADD SWAP2 SWAP1 PUSH0 MSTORE PUSH1 0x20 PUSH0 KECCAK256 SWAP1 JUMPDEST DUP2 SLOAD DUP2 MSTORE SWAP1 PUSH1 0x1 ADD SWAP1 PUSH1 0x20 ADD DUP1 DUP4 GT PUSH2 0xCA2 JUMPI DUP3 SWAP1 SUB PUSH1 0x1F AND DUP3 ADD SWAP2 JUMPDEST POP POP POP POP POP SWAP1 POP DUP7 JUMP JUMPDEST PUSH2 0xCD2 DUP3 PUSH2 0xB12 JUMP JUMPDEST PUSH2 0xCDB DUP2 PUSH2 0x1CE5 JUMP JUMPDEST PUSH2 0xCE5 DUP4 DUP4 PUSH2 0x1CF9 JUMP JUMPDEST POP POP POP POP JUMP JUMPDEST PUSH2 0xCF3 PUSH2 0x1DE2 JUMP JUMPDEST PUSH20 0xFFFFFFFFFFFFFFFFFFFFFFFFFFFFFFFFFFFFFFFF AND DUP2 PUSH20 0xFFFFFFFFFFFFFFFFFFFFFFFFFFFFFFFFFFFFFFFF AND EQ PUSH2 0xD57 JUMPI PUSH1 0x40 MLOAD PUSH32 0x6697B23200000000000000000000000000000000000000000000000000000000 DUP2 MSTORE PUSH1 0x4 ADD PUSH1 0x40 MLOAD DUP1 SWAP2 SUB SWAP1 REVERT JUMPDEST PUSH2 0xD61 DUP3 DUP3 PUSH2 0x1DE9 JUMP JUMPDEST POP POP POP JUMP JUMPDEST PUSH1 0x4 PUSH1 0x20 MSTORE DUP2 PUSH0 MSTORE PUSH1 0x40 PUSH0 KECCAK256 DUP2 DUP2 SLOAD DUP2 LT PUSH2 0xD7F JUMPI PUSH0 DUP1 REVERT JUMPDEST SWAP1 PUSH0 MSTORE PUSH1 0x20 PUSH0 KECCAK256 ADD PUSH0 SWAP2 POP SWAP2 POP POP SLOAD DUP2 JUMP JUMPDEST PUSH1 0x60 PUSH1 0x3 PUSH0 DUP4 DUP2 MSTORE PUSH1 0x20 ADD SWAP1 DUP2 MSTORE PUSH1 0x20 ADD PUSH0 KECCAK256 PUSH1 0x3 ADD DUP1 SLOAD DUP1 PUSH1 0x20 MUL PUSH1 0x20 ADD PUSH1 0x40 MLOAD SWAP1 DUP2 ADD PUSH1 0x40 MSTORE DUP1 SWAP3 SWAP2 SWAP1 DUP2 DUP2 MSTORE PUSH1 0x20 ADD PUSH0 SWAP1 JUMPDEST DUP3 DUP3 LT ISZERO PUSH2 0xE54 JUMPI DUP4 DUP3 SWAP1 PUSH0 MSTORE PUSH1 0x20 PUSH0 KECCAK256 SWAP1 PUSH1 0x2 MUL ADD PUSH1 0x40 MLOAD DUP1 PUSH1 0x60 ADD PUSH1 0x40 MSTORE SWAP1 DUP2 PUSH0 DUP3 ADD SLOAD DUP2 MSTORE PUSH1 0x20 ADD PUSH1 0x1 DUP3 ADD PUSH0 SWAP1 SLOAD SWAP1 PUSH2 0x100 EXP SWAP1 DIV PUSH1 0xFF AND ISZERO ISZERO ISZERO ISZERO DUP2 MSTORE PUSH1 0x20 ADD PUSH1 0x1 DUP3 ADD PUSH1 0x1 SWAP1 SLOAD SWAP1 PUSH2 0x100 EXP SWAP1 DIV PUSH1 0xFF AND PUSH1 0x4 DUP2 GT ISZERO PUSH2 0xE2F JUMPI PUSH2 0xE2E PUSH2 0x2155 JUMP JUMPDEST JUMPDEST PUSH1 0x4 DUP2 GT ISZERO PUSH2 0xE41 JUMPI PUSH2 0xE40 PUSH2 0x2155 JUMP JUMPDEST JUMPDEST DUP2 MSTORE POP POP DUP2 MSTORE PUSH1 0x20 ADD SWAP1 PUSH1 0x1 ADD SWAP1 PUSH2 0xDC6 JUMP JUMPDEST POP POP POP POP SWAP1 POP SWAP2 SWAP1 POP JUMP JUMPDEST PUSH2 0xE67 PUSH2 0x1C42 JUMP JUMPDEST PUSH2 0xE70 PUSH0 PUSH2 0x1ED3 JUMP JUMPDEST JUMP JUMPDEST PUSH32 0x17A55417373800620B4C2CEAA9F76C02DF2E2DD329B9CB9A7CF849712C108F6F PUSH2 0xE9C DUP2 PUSH2 0x1CE5 JUMP JUMPDEST PUSH0 PUSH1 0x3 PUSH0 DUP9 DUP2 MSTORE PUSH1 0x20 ADD SWAP1 DUP2 MSTORE PUSH1 0x20 ADD PUSH0 KECCAK256 PUSH1 0x3 ADD DUP7 DUP2 SLOAD DUP2 LT PUSH2 0xEC3 JUMPI PUSH2 0xEC2 PUSH2 0x2A3D JUMP JUMPDEST JUMPDEST SWAP1 PUSH0 MSTORE PUSH1 0x20 PUSH0 KECCAK256 SWAP1 PUSH1 0x2 MUL ADD SWAP1 POP PUSH0 PUSH1 0x5 PUSH0 DUP10 DUP2 MSTORE PUSH1 0x20 ADD SWAP1 DUP2 MSTORE PUSH1 0x20 ADD PUSH0 KECCAK256 PUSH0 DUP9 DUP2 MSTORE PUSH1 0x20 ADD SWAP1 DUP2 MSTORE PUSH1 0x20 ADD PUSH0 KECCAK256 SWAP1 POP PUSH1 0x3 PUSH1 0x4 DUP2 GT ISZERO PUSH2 0xF08 JUMPI PUSH2 0xF07 PUSH2 0x2155 JUMP JUMPDEST JUMPDEST DUP3 PUSH1 0x1 ADD PUSH1 0x1 SWAP1 SLOAD SWAP1 PUSH2 0x100 EXP SWAP1 DIV PUSH1 0xFF AND PUSH1 0x4 DUP2 GT ISZERO PUSH2 0xF2C JUMPI PUSH2 0xF2B PUSH2 0x2155 JUMP JUMPDEST JUMPDEST EQ PUSH2 0xF63 JUMPI PUSH1 0x40 MLOAD PUSH32 0x261BC65A00000000000000000000000000000000000000000000000000000000 DUP2 MSTORE PUSH1 0x4 ADD PUSH1 0x40 MLOAD DUP1 SWAP2 SUB SWAP1 REVERT JUMPDEST PUSH1 0x1 DUP2 PUSH1 0x3 ADD PUSH1 0x14 PUSH2 0x100 EXP DUP2 SLOAD DUP2 PUSH1 0xFF MUL NOT AND SWAP1 DUP4 ISZERO ISZERO MUL OR SWAP1 SSTORE POP CALLER DUP2 PUSH1 0x3 ADD PUSH0 PUSH2 0x100 EXP DUP2 SLOAD DUP2 PUSH20 0xFFFFFFFFFFFFFFFFFFFFFFFFFFFFFFFFFFFFFFFF MUL NOT AND SWAP1 DUP4 PUSH20 0xFFFFFFFFFFFFFFFFFFFFFFFFFFFFFFFFFFFFFFFF AND MUL OR SWAP1 SSTORE POP DUP5 DUP5 DUP3 PUSH1 0x4 ADD SWAP2 DUP3 PUSH2 0xFD5 SWAP3 SWAP2 SWAP1 PUSH2 0x2E12 JUMP JUMPDEST POP DUP6 ISZERO PUSH2 0x10E0 JUMPI PUSH1 0x2 DUP3 PUSH1 0x1 ADD PUSH1 0x1 PUSH2 0x100 EXP DUP2 SLOAD DUP2 PUSH1 0xFF MUL NOT AND SWAP1 DUP4 PUSH1 0x4 DUP2 GT ISZERO PUSH2 0x1004 JUMPI PUSH2 0x1003 PUSH2 0x2155 JUMP JUMPDEST JUMPDEST MUL OR SWAP1 SSTORE POP PUSH32 0x0 PUSH20 0xFFFFFFFFFFFFFFFFFFFFFFFFFFFFFFFFFFFFFFFF AND PUSH4 0xA9059CBB PUSH1 0x3 PUSH0 DUP12 DUP2 MSTORE PUSH1 0x20 ADD SWAP1 DUP2 MSTORE PUSH1 0x20 ADD PUSH0 KECCAK256 PUSH1 0x2 ADD PUSH0 SWAP1 SLOAD SWAP1 PUSH2 0x100 EXP SWAP1 DIV PUSH20 0xFFFFFFFFFFFFFFFFFFFFFFFFFFFFFFFFFFFFFFFF AND DUP5 PUSH0 ADD SLOAD PUSH1 0x40 MLOAD DUP4 PUSH4 0xFFFFFFFF AND PUSH1 0xE0 SHL DUP2 MSTORE PUSH1 0x4 ADD PUSH2 0x109A SWAP3 SWAP2 SWAP1 PUSH2 0x2BED JUMP JUMPDEST PUSH1 0x20 PUSH1 0x40 MLOAD DUP1 DUP4 SUB DUP2 PUSH0 DUP8 GAS CALL ISZERO DUP1 ISZERO PUSH2 0x10B6 JUMPI RETURNDATASIZE PUSH0 PUSH0 RETURNDATACOPY RETURNDATASIZE PUSH0 REVERT JUMPDEST POP POP POP POP PUSH1 0x40 MLOAD RETURNDATASIZE PUSH1 0x1F NOT PUSH1 0x1F DUP3 ADD AND DUP3 ADD DUP1 PUSH1 0x40 MSTORE POP DUP2 ADD SWAP1 PUSH2 0x10DA SWAP2 SWAP1 PUSH2 0x2B13 JUMP JUMPDEST POP PUSH2 0x11E0 JUMP JUMPDEST PUSH1 0x4 DUP3 PUSH1 0x1 ADD PUSH1 0x1 PUSH2 0x100 EXP DUP2 SLOAD DUP2 PUSH1 0xFF MUL NOT AND SWAP1 DUP4 PUSH1 0x4 DUP2 GT ISZERO PUSH2 0x1108 JUMPI PUSH2 0x1107 PUSH2 0x2155 JUMP JUMPDEST JUMPDEST MUL OR SWAP1 SSTORE POP PUSH32 0x0 PUSH20 0xFFFFFFFFFFFFFFFFFFFFFFFFFFFFFFFFFFFFFFFF AND PUSH4 0xA9059CBB PUSH1 0x3 PUSH0 DUP12 DUP2 MSTORE PUSH1 0x20 ADD SWAP1 DUP2 MSTORE PUSH1 0x20 ADD PUSH0 KECCAK256 PUSH1 0x1 ADD PUSH0 SWAP1 SLOAD SWAP1 PUSH2 0x100 EXP SWAP1 DIV PUSH20 0xFFFFFFFFFFFFFFFFFFFFFFFFFFFFFFFFFFFFFFFF AND DUP5 PUSH0 ADD SLOAD PUSH1 0x40 MLOAD DUP4 PUSH4 0xFFFFFFFF AND PUSH1 0xE0 SHL DUP2 MSTORE PUSH1 0x4 ADD PUSH2 0x119E SWAP3 SWAP2 SWAP1 PUSH2 0x2BED JUMP JUMPDEST PUSH1 0x20 PUSH1 0x40 MLOAD DUP1 DUP4 SUB DUP2 PUSH0 DUP8 GAS CALL ISZERO DUP1 ISZERO PUSH2 0x11BA JUMPI RETURNDATASIZE PUSH0 PUSH0 RETURNDATACOPY RETURNDATASIZE PUSH0 REVERT JUMPDEST POP POP POP POP PUSH1 0x40 MLOAD RETURNDATASIZE PUSH1 0x1F NOT PUSH1 0x1F DUP3 ADD AND DUP3 ADD DUP1 PUSH1 0x40 MSTORE POP DUP2 ADD SWAP1 PUSH2 0x11DE SWAP2 SWAP1 PUSH2 0x2B13 JUMP JUMPDEST POP JUMPDEST POP POP POP POP POP POP POP POP JUMP JUMPDEST PUSH0 PUSH0 PUSH0 SWAP1 SLOAD SWAP1 PUSH2 0x100 EXP SWAP1 DIV PUSH20 0xFFFFFFFFFFFFFFFFFFFFFFFFFFFFFFFFFFFFFFFF AND SWAP1 POP SWAP1 JUMP JUMPDEST PUSH0 PUSH1 0x1 PUSH0 DUP5 DUP2 MSTORE PUSH1 0x20 ADD SWAP1 DUP2 MSTORE PUSH1 0x20 ADD PUSH0 KECCAK256 PUSH0 ADD PUSH0 DUP4 PUSH20 0xFFFFFFFFFFFFFFFFFFFFFFFFFFFFFFFFFFFFFFFF AND PUSH20 0xFFFFFFFFFFFFFFFFFFFFFFFFFFFFFFFFFFFFFFFF AND DUP2 MSTORE PUSH1 0x20 ADD SWAP1 DUP2 MSTORE PUSH1 0x20 ADD PUSH0 KECCAK256 PUSH0 SWAP1 SLOAD SWAP1 PUSH2 0x100 EXP SWAP1 DIV PUSH1 0xFF AND SWAP1 POP SWAP3 SWAP2 POP POP JUMP JUMPDEST PUSH32 0x0 DUP2 JUMP JUMPDEST PUSH0 PUSH0 SHL DUP2 JUMP JUMPDEST DUP3 PUSH1 0x3 PUSH0 DUP3 DUP2 MSTORE PUSH1 0x20 ADD SWAP1 DUP2 MSTORE PUSH1 0x20 ADD PUSH0 KECCAK256 PUSH1 0x2 ADD PUSH0 SWAP1 SLOAD SWAP1 PUSH2 0x100 EXP SWAP1 DIV PUSH20 0xFFFFFFFFFFFFFFFFFFFFFFFFFFFFFFFFFFFFFFFF AND PUSH20 0xFFFFFFFFFFFFFFFFFFFFFFFFFFFFFFFFFFFFFFFF AND CALLER PUSH20 0xFFFFFFFFFFFFFFFFFFFFFFFFFFFFFFFFFFFFFFFF AND EQ PUSH2 0x1338 JUMPI PUSH1 0x40 MLOAD PUSH32 0x706470D200000000000000000000000000000000000000000000000000000000 DUP2 MSTORE PUSH1 0x4 ADD PUSH1 0x40 MLOAD DUP1 SWAP2 SUB SWAP1 REVERT JUMPDEST PUSH0 PUSH1 0x3 PUSH0 DUP7 DUP2 MSTORE PUSH1 0x20 ADD SWAP1 DUP2 MSTORE PUSH1 0x20 ADD PUSH0 KECCAK256 SWAP1 POP PUSH0 PUSH20 0xFFFFFFFFFFFFFFFFFFFFFFFFFFFFFFFFFFFFFFFF AND DUP4 PUSH20 0xFFFFFFFFFFFFFFFFFFFFFFFFFFFFFFFFFFFFFFFF AND SUB PUSH2 0x13B1 JUMPI PUSH1 0x40 MLOAD PUSH32 0x3EFA09AF00000000000000000000000000000000000000000000000000000000 DUP2 MSTORE PUSH1 0x4 ADD PUSH1 0x40 MLOAD DUP1 SWAP2 SUB SWAP1 REVERT JUMPDEST DUP3 PUSH20 0xFFFFFFFFFFFFFFFFFFFFFFFFFFFFFFFFFFFFFFFF AND DUP2 PUSH1 0x2 ADD PUSH0 SWAP1 SLOAD SWAP1 PUSH2 0x100 EXP SWAP1 DIV PUSH20 0xFFFFFFFFFFFFFFFFFFFFFFFFFFFFFFFFFFFFFFFF AND PUSH20 0xFFFFFFFFFFFFFFFFFFFFFFFFFFFFFFFFFFFFFFFF AND EQ PUSH2 0x1439 JUMPI PUSH1 0x40 MLOAD PUSH32 0x75AEE32600000000000000000000000000000000000000000000000000000000 DUP2 MSTORE PUSH1 0x4 ADD PUSH1 0x40 MLOAD DUP1 SWAP2 SUB SWAP1 REVERT JUMPDEST DUP1 PUSH1 0x3 ADD DUP1 SLOAD SWAP1 POP DUP5 GT ISZERO PUSH2 0x147A JUMPI PUSH1 0x40 MLOAD PUSH32 0x63DF817100000000000000000000000000000000000000000000000000000000 DUP2 MSTORE PUSH1 0x4 ADD PUSH1 0x40 MLOAD DUP1 SWAP2 SUB SWAP1 REVERT JUMPDEST PUSH0 DUP2 PUSH1 0x3 ADD DUP6 DUP2 SLOAD DUP2 LT PUSH2 0x1491 JUMPI PUSH2 0x1490 PUSH2 0x2A3D JUMP JUMPDEST JUMPDEST SWAP1 PUSH0 MSTORE PUSH1 0x20 PUSH0 KECCAK256 SWAP1 PUSH1 0x2 MUL ADD SWAP1 POP PUSH0 PUSH1 0x4 DUP2 GT ISZERO PUSH2 0x14B2 JUMPI PUSH2 0x14B1 PUSH2 0x2155 JUMP JUMPDEST JUMPDEST DUP2 PUSH1 0x1 ADD PUSH1 0x1 SWAP1 SLOAD SWAP1 PUSH2 0x100 EXP SWAP1 DIV PUSH1 0xFF AND PUSH1 0x4 DUP2 GT ISZERO PUSH2 0x14D6 JUMPI PUSH2 0x14D5 PUSH2 0x2155 JUMP JUMPDEST JUMPDEST EQ PUSH2 0x150D JUMPI PUSH1 0x40 MLOAD PUSH32 0x50DA79DD00000000000000000000000000000000000000000000000000000000 DUP2 MSTORE PUSH1 0x4 ADD PUSH1 0x40 MLOAD DUP1 SWAP2 SUB SWAP1 REVERT JUMPDEST PUSH1 0x1 DUP2 PUSH1 0x1 ADD PUSH1 0x1 PUSH2 0x100 EXP DUP2 SLOAD DUP2 PUSH1 0xFF MUL NOT AND SWAP1 DUP4 PUSH1 0x4 DUP2 GT ISZERO PUSH2 0x1535 JUMPI PUSH2 0x1534 PUSH2 0x2155 JUMP JUMPDEST JUMPDEST MUL OR SWAP1 SSTORE POP POP POP POP POP POP POP JUMP JUMPDEST PUSH0 PUSH1 0x3 PUSH0 DUP7 DUP2 MSTORE PUSH1 0x20 ADD SWAP1 DUP2 MSTORE PUSH1 0x20 ADD PUSH0 KECCAK256 SWAP1 POP DUP1 PUSH1 0x3 ADD DUP1 SLOAD SWAP1 POP DUP5 GT ISZERO PUSH2 0x1597 JUMPI PUSH1 0x40 MLOAD PUSH32 0x63DF817100000000000000000000000000000000000000000000000000000000 DUP2 MSTORE PUSH1 0x4 ADD PUSH1 0x40 MLOAD DUP1 SWAP2 SUB SWAP1 REVERT JUMPDEST PUSH0 DUP2 PUSH1 0x3 ADD DUP6 DUP2 SLOAD DUP2 LT PUSH2 0x15AE JUMPI PUSH2 0x15AD PUSH2 0x2A3D JUMP JUMPDEST JUMPDEST SWAP1 PUSH0 MSTORE PUSH1 0x20 PUSH0 KECCAK256 SWAP1 PUSH1 0x2 MUL ADD SWAP1 POP DUP2 PUSH1 0x1 ADD PUSH0 SWAP1 SLOAD SWAP1 PUSH2 0x100 EXP SWAP1 DIV PUSH20 0xFFFFFFFFFFFFFFFFFFFFFFFFFFFFFFFFFFFFFFFF AND PUSH20 0xFFFFFFFFFFFFFFFFFFFFFFFFFFFFFFFFFFFFFFFF AND CALLER PUSH20 0xFFFFFFFFFFFFFFFFFFFFFFFFFFFFFFFFFFFFFFFF AND EQ ISZERO DUP1 ISZERO PUSH2 0x166A JUMPI POP DUP2 PUSH1 0x2 ADD PUSH0 SWAP1 SLOAD SWAP1 PUSH2 0x100 EXP SWAP1 DIV PUSH20 0xFFFFFFFFFFFFFFFFFFFFFFFFFFFFFFFFFFFFFFFF AND PUSH20 0xFFFFFFFFFFFFFFFFFFFFFFFFFFFFFFFFFFFFFFFF AND CALLER PUSH20 0xFFFFFFFFFFFFFFFFFFFFFFFFFFFFFFFFFFFFFFFF AND EQ ISZERO JUMPDEST ISZERO PUSH2 0x16A1 JUMPI PUSH1 0x40 MLOAD PUSH32 0xE438F8CE00000000000000000000000000000000000000000000000000000000 DUP2 MSTORE PUSH1 0x4 ADD PUSH1 0x40 MLOAD DUP1 SWAP2 SUB SWAP1 REVERT JUMPDEST PUSH1 0x1 PUSH1 0x4 DUP2 GT ISZERO PUSH2 0x16B5 JUMPI PUSH2 0x16B4 PUSH2 0x2155 JUMP JUMPDEST JUMPDEST DUP2 PUSH1 0x1 ADD PUSH1 0x1 SWAP1 SLOAD SWAP1 PUSH2 0x100 EXP SWAP1 DIV PUSH1 0xFF AND PUSH1 0x4 DUP2 GT ISZERO PUSH2 0x16D9 JUMPI PUSH2 0x16D8 PUSH2 0x2155 JUMP JUMPDEST JUMPDEST EQ PUSH2 0x1710 JUMPI PUSH1 0x40 MLOAD PUSH32 0xCCD90CC400000000000000000000000000000000000000000000000000000000 DUP2 MSTORE PUSH1 0x4 ADD PUSH1 0x40 MLOAD DUP1 SWAP2 SUB SWAP1 REVERT JUMPDEST PUSH1 0x3 DUP2 PUSH1 0x1 ADD PUSH1 0x1 PUSH2 0x100 EXP DUP2 SLOAD DUP2 PUSH1 0xFF MUL NOT AND SWAP1 DUP4 PUSH1 0x4 DUP2 GT ISZERO PUSH2 0x1738 JUMPI PUSH2 0x1737 PUSH2 0x2155 JUMP JUMPDEST JUMPDEST MUL OR SWAP1 SSTORE POP PUSH1 0x40 MLOAD DUP1 PUSH1 0xC0 ADD PUSH1 0x40 MSTORE DUP1 DUP7 DUP2 MSTORE PUSH1 0x20 ADD CALLER PUSH20 0xFFFFFFFFFFFFFFFFFFFFFFFFFFFFFFFFFFFFFFFF AND DUP2 MSTORE PUSH1 0x20 ADD DUP6 DUP6 DUP1 DUP1 PUSH1 0x1F ADD PUSH1 0x20 DUP1 SWAP2 DIV MUL PUSH1 0x20 ADD PUSH1 0x40 MLOAD SWAP1 DUP2 ADD PUSH1 0x40 MSTORE DUP1 SWAP4 SWAP3 SWAP2 SWAP1 DUP2 DUP2 MSTORE PUSH1 0x20 ADD DUP4 DUP4 DUP1 DUP3 DUP5 CALLDATACOPY PUSH0 DUP2 DUP5 ADD MSTORE PUSH1 0x1F NOT PUSH1 0x1F DUP3 ADD AND SWAP1 POP DUP1 DUP4 ADD SWAP3 POP POP POP POP POP POP POP DUP2 MSTORE PUSH1 0x20 ADD PUSH0 PUSH20 0xFFFFFFFFFFFFFFFFFFFFFFFFFFFFFFFFFFFFFFFF AND DUP2 MSTORE PUSH1 0x20 ADD PUSH0 ISZERO ISZERO DUP2 MSTORE PUSH1 0x20 ADD PUSH1 0x40 MLOAD DUP1 PUSH1 0x20 ADD PUSH1 0x40 MSTORE DUP1 PUSH0 DUP2 MSTORE POP DUP2 MSTORE POP PUSH1 0x5 PUSH0 DUP9 DUP2 MSTORE PUSH1 0x20 ADD SWAP1 DUP2 MSTORE PUSH1 0x20 ADD PUSH0 KECCAK256 PUSH0 DUP8 DUP2 MSTORE PUSH1 0x20 ADD SWAP1 DUP2 MSTORE PUSH1 0x20 ADD PUSH0 KECCAK256 PUSH0 DUP3 ADD MLOAD DUP2 PUSH0 ADD SSTORE PUSH1 0x20 DUP3 ADD MLOAD DUP2 PUSH1 0x1 ADD PUSH0 PUSH2 0x100 EXP DUP2 SLOAD DUP2 PUSH20 0xFFFFFFFFFFFFFFFFFFFFFFFFFFFFFFFFFFFFFFFF MUL NOT AND SWAP1 DUP4 PUSH20 0xFFFFFFFFFFFFFFFFFFFFFFFFFFFFFFFFFFFFFFFF AND MUL OR SWAP1 SSTORE POP PUSH1 0x40 DUP3 ADD MLOAD DUP2 PUSH1 0x2 ADD SWAP1 DUP2 PUSH2 0x186C SWAP2 SWAP1 PUSH2 0x2EDF JUMP JUMPDEST POP PUSH1 0x60 DUP3 ADD MLOAD DUP2 PUSH1 0x3 ADD PUSH0 PUSH2 0x100 EXP DUP2 SLOAD DUP2 PUSH20 0xFFFFFFFFFFFFFFFFFFFFFFFFFFFFFFFFFFFFFFFF MUL NOT AND SWAP1 DUP4 PUSH20 0xFFFFFFFFFFFFFFFFFFFFFFFFFFFFFFFFFFFFFFFF AND MUL OR SWAP1 SSTORE POP PUSH1 0x80 DUP3 ADD MLOAD DUP2 PUSH1 0x3 ADD PUSH1 0x14 PUSH2 0x100 EXP DUP2 SLOAD DUP2 PUSH1 0xFF MUL NOT AND SWAP1 DUP4 ISZERO ISZERO MUL OR SWAP1 SSTORE POP PUSH1 0xA0 DUP3 ADD MLOAD DUP2 PUSH1 0x4 ADD SWAP1 DUP2 PUSH2 0x18E8 SWAP2 SWAP1 PUSH2 0x2EDF JUMP JUMPDEST POP SWAP1 POP POP POP POP POP POP POP POP JUMP JUMPDEST PUSH1 0x2 SLOAD DUP2 JUMP JUMPDEST PUSH2 0x1903 DUP3 PUSH2 0xB12 JUMP JUMPDEST PUSH2 0x190C DUP2 PUSH2 0x1CE5 JUMP JUMPDEST PUSH2 0x1916 DUP4 DUP4 PUSH2 0x1DE9 JUMP JUMPDEST POP POP POP POP JUMP JUMPDEST DUP2 PUSH1 0x3 PUSH0 DUP3 DUP2 MSTORE PUSH1 0x20 ADD SWAP1 DUP2 MSTORE PUSH1 0x20 ADD PUSH0 KECCAK256 PUSH1 0x2 ADD PUSH0 SWAP1 SLOAD SWAP1 PUSH2 0x100 EXP SWAP1 DIV PUSH20 0xFFFFFFFFFFFFFFFFFFFFFFFFFFFFFFFFFFFFFFFF AND PUSH20 0xFFFFFFFFFFFFFFFFFFFFFFFFFFFFFFFFFFFFFFFF AND CALLER PUSH20 0xFFFFFFFFFFFFFFFFFFFFFFFFFFFFFFFFFFFFFFFF AND EQ PUSH2 0x19B5 JUMPI PUSH1 0x40 MLOAD PUSH32 0x706470D200000000000000000000000000000000000000000000000000000000 DUP2 MSTORE PUSH1 0x4 ADD PUSH1 0x40 MLOAD DUP1 SWAP2 SUB SWAP1 REVERT JUMPDEST PUSH0 PUSH1 0x3 PUSH0 DUP6 DUP2 MSTORE PUSH1 0x20 ADD SWAP1 DUP2 MSTORE PUSH1 0x20 ADD PUSH0 KECCAK256 SWAP1 POP PUSH0 PUSH20 0xFFFFFFFFFFFFFFFFFFFFFFFFFFFFFFFFFFFFFFFF AND DUP4 PUSH20 0xFFFFFFFFFFFFFFFFFFFFFFFFFFFFFFFFFFFFFFFF AND SUB PUSH2 0x1A2E JUMPI PUSH1 0x40 MLOAD PUSH32 0x3EFA09AF00000000000000000000000000000000000000000000000000000000 DUP2 MSTORE PUSH1 0x4 ADD PUSH1 0x40 MLOAD DUP1 SWAP2 SUB SWAP1 REVERT JUMPDEST DUP3 PUSH20 0xFFFFFFFFFFFFFFFFFFFFFFFFFFFFFFFFFFFFFFFF AND DUP2 PUSH1 0x2 ADD PUSH0 SWAP1 SLOAD SWAP1 PUSH2 0x100 EXP SWAP1 DIV PUSH20 0xFFFFFFFFFFFFFFFFFFFFFFFFFFFFFFFFFFFFFFFF AND PUSH20 0xFFFFFFFFFFFFFFFFFFFFFFFFFFFFFFFFFFFFFFFF AND EQ PUSH2 0x1AB6 JUMPI PUSH1 0x40 MLOAD PUSH32 0x75AEE32600000000000000000000000000000000000000000000000000000000 DUP2 MSTORE PUSH1 0x4 ADD PUSH1 0x40 MLOAD DUP1 SWAP2 SUB SWAP1 REVERT JUMPDEST PUSH0 PUSH1 0x3 DUP2 GT ISZERO PUSH2 0x1AC9 JUMPI PUSH2 0x1AC8 PUSH2 0x2155 JUMP JUMPDEST JUMPDEST DUP2 PUSH1 0x5 ADD PUSH0 SWAP1 SLOAD SWAP1 PUSH2 0x100 EXP SWAP1 DIV PUSH1 0xFF AND PUSH1 0x3 DUP2 GT ISZERO PUSH2 0x1AEC JUMPI PUSH2 0x1AEB PUSH2 0x2155 JUMP JUMPDEST JUMPDEST EQ PUSH2 0x1B23 JUMPI PUSH1 0x40 MLOAD PUSH32 0xD76EBD0F00000000000000000000000000000000000000000000000000000000 DUP2 MSTORE PUSH1 0x4 ADD PUSH1 0x40 MLOAD DUP1 SWAP2 SUB SWAP1 REVERT JUMPDEST PUSH1 0x1 DUP2 PUSH1 0x5 ADD PUSH0 PUSH2 0x100 EXP DUP2 SLOAD DUP2 PUSH1 0xFF MUL NOT AND SWAP1 DUP4 PUSH1 0x3 DUP2 GT ISZERO PUSH2 0x1B4A JUMPI PUSH2 0x1B49 PUSH2 0x2155 JUMP JUMPDEST JUMPDEST MUL OR SWAP1 SSTORE POP POP POP POP POP JUMP JUMPDEST PUSH2 0x1B5D PUSH2 0x1C42 JUMP JUMPDEST PUSH0 PUSH20 0xFFFFFFFFFFFFFFFFFFFFFFFFFFFFFFFFFFFFFFFF AND DUP2 PUSH20 0xFFFFFFFFFFFFFFFFFFFFFFFFFFFFFFFFFFFFFFFF AND SUB PUSH2 0x1BCD JUMPI PUSH0 PUSH1 0x40 MLOAD PUSH32 0x1E4FBDF700000000000000000000000000000000000000000000000000000000 DUP2 MSTORE PUSH1 0x4 ADD PUSH2 0x1BC4 SWAP2 SWAP1 PUSH2 0x2886 JUMP JUMPDEST PUSH1 0x40 MLOAD DUP1 SWAP2 SUB SWAP1 REVERT JUMPDEST PUSH2 0x1BD6 DUP2 PUSH2 0x1ED3 JUMP JUMPDEST POP JUMP JUMPDEST PUSH0 PUSH32 0x1FFC9A700000000000000000000000000000000000000000000000000000000 PUSH28 0xFFFFFFFFFFFFFFFFFFFFFFFFFFFFFFFFFFFFFFFFFFFFFFFFFFFFFFFF NOT AND DUP3 PUSH28 0xFFFFFFFFFFFFFFFFFFFFFFFFFFFFFFFFFFFFFFFFFFFFFFFFFFFFFFFF NOT AND EQ SWAP1 POP SWAP2 SWAP1 POP JUMP JUMPDEST PUSH2 0x1C4A PUSH2 0x1DE2 JUMP JUMPDEST PUSH20 0xFFFFFFFFFFFFFFFFFFFFFFFFFFFFFFFFFFFFFFFF AND PUSH2 0x1C68 PUSH2 0x11EA JUMP JUMPDEST PUSH20 0xFFFFFFFFFFFFFFFFFFFFFFFFFFFFFFFFFFFFFFFF AND EQ PUSH2 0x1CC7 JUMPI PUSH2 0x1C8B PUSH2 0x1DE2 JUMP JUMPDEST PUSH1 0x40 MLOAD PUSH32 0x118CDAA700000000000000000000000000000000000000000000000000000000 DUP2 MSTORE PUSH1 0x4 ADD PUSH2 0x1CBE SWAP2 SWAP1 PUSH2 0x2886 JUMP JUMPDEST PUSH1 0x40 MLOAD DUP1 SWAP2 SUB SWAP1 REVERT JUMPDEST JUMP JUMPDEST PUSH0 PUSH8 0xDE0B6B3A7640000 DUP3 PUSH2 0x1CDE SWAP2 SWAP1 PUSH2 0x2FAE JUMP JUMPDEST SWAP1 POP SWAP2 SWAP1 POP JUMP JUMPDEST PUSH2 0x1CF6 DUP2 PUSH2 0x1CF1 PUSH2 0x1DE2 JUMP JUMPDEST PUSH2 0x1F94 JUMP JUMPDEST POP JUMP JUMPDEST PUSH0 PUSH2 0x1D04 DUP4 DUP4 PUSH2 0x1211 JUMP JUMPDEST PUSH2 0x1DD8 JUMPI PUSH1 0x1 DUP1 PUSH0 DUP6 DUP2 MSTORE PUSH1 0x20 ADD SWAP1 DUP2 MSTORE PUSH1 0x20 ADD PUSH0 KECCAK256 PUSH0 ADD PUSH0 DUP5 PUSH20 0xFFFFFFFFFFFFFFFFFFFFFFFFFFFFFFFFFFFFFFFF AND PUSH20 0xFFFFFFFFFFFFFFFFFFFFFFFFFFFFFFFFFFFFFFFF AND DUP2 MSTORE PUSH1 0x20 ADD SWAP1 DUP2 MSTORE PUSH1 0x20 ADD PUSH0 KECCAK256 PUSH0 PUSH2 0x100 EXP DUP2 SLOAD DUP2 PUSH1 0xFF MUL NOT AND SWAP1 DUP4 ISZERO ISZERO MUL OR SWAP1 SSTORE POP PUSH2 0x1D75 PUSH2 0x1DE2 JUMP JUMPDEST PUSH20 0xFFFFFFFFFFFFFFFFFFFFFFFFFFFFFFFFFFFFFFFF AND DUP3 PUSH20 0xFFFFFFFFFFFFFFFFFFFFFFFFFFFFFFFFFFFFFFFF AND DUP5 PUSH32 0x2F8788117E7EFF1D82E926EC794901D17C78024A50270940304540A733656F0D PUSH1 0x40 MLOAD PUSH1 0x40 MLOAD DUP1 SWAP2 SUB SWAP1 LOG4 PUSH1 0x1 SWAP1 POP PUSH2 0x1DDC JUMP JUMPDEST PUSH0 SWAP1 POP JUMPDEST SWAP3 SWAP2 POP POP JUMP JUMPDEST PUSH0 CALLER SWAP1 POP SWAP1 JUMP JUMPDEST PUSH0 PUSH2 0x1DF4 DUP4 DUP4 PUSH2 0x1211 JUMP JUMPDEST ISZERO PUSH2 0x1EC9 JUMPI PUSH0 PUSH1 0x1 PUSH0 DUP6 DUP2 MSTORE PUSH1 0x20 ADD SWAP1 DUP2 MSTORE PUSH1 0x20 ADD PUSH0 KECCAK256 PUSH0 ADD PUSH0 DUP5 PUSH20 0xFFFFFFFFFFFFFFFFFFFFFFFFFFFFFFFFFFFFFFFF AND PUSH20 0xFFFFFFFFFFFFFFFFFFFFFFFFFFFFFFFFFFFFFFFF AND DUP2 MSTORE PUSH1 0x20 ADD SWAP1 DUP2 MSTORE PUSH1 0x20 ADD PUSH0 KECCAK256 PUSH0 PUSH2 0x100 EXP DUP2 SLOAD DUP2 PUSH1 0xFF MUL NOT AND SWAP1 DUP4 ISZERO ISZERO MUL OR SWAP1 SSTORE POP PUSH2 0x1E66 PUSH2 0x1DE2 JUMP JUMPDEST PUSH20 0xFFFFFFFFFFFFFFFFFFFFFFFFFFFFFFFFFFFFFFFF AND DUP3 PUSH20 0xFFFFFFFFFFFFFFFFFFFFFFFFFFFFFFFFFFFFFFFF AND DUP5 PUSH32 0xF6391F5C32D9C69D2A47EA670B442974B53935D1EDC7FD64EB21E047A839171B PUSH1 0x40 MLOAD PUSH1 0x40 MLOAD DUP1 SWAP2 SUB SWAP1 LOG4 PUSH1 0x1 SWAP1 POP PUSH2 0x1ECD JUMP JUMPDEST PUSH0 SWAP1 POP JUMPDEST SWAP3 SWAP2 POP POP JUMP JUMPDEST PUSH0 PUSH0 PUSH0 SWAP1 SLOAD SWAP1 PUSH2 0x100 EXP SWAP1 DIV PUSH20 0xFFFFFFFFFFFFFFFFFFFFFFFFFFFFFFFFFFFFFFFF AND SWAP1 POP DUP2 PUSH0 PUSH0 PUSH2 0x100 EXP DUP2 SLOAD DUP2 PUSH20 0xFFFFFFFFFFFFFFFFFFFFFFFFFFFFFFFFFFFFFFFF MUL NOT AND SWAP1 DUP4 PUSH20 0xFFFFFFFFFFFFFFFFFFFFFFFFFFFFFFFFFFFFFFFF AND MUL OR SWAP1 SSTORE POP DUP2 PUSH20 0xFFFFFFFFFFFFFFFFFFFFFFFFFFFFFFFFFFFFFFFF AND DUP2 PUSH20 0xFFFFFFFFFFFFFFFFFFFFFFFFFFFFFFFFFFFFFFFF AND PUSH32 0x8BE0079C531659141344CD1FD0A4F28419497F9722A3DAAFE3B4186F6B6457E0 PUSH1 0x40 MLOAD PUSH1 0x40 MLOAD DUP1 SWAP2 SUB SWAP1 LOG3 POP POP JUMP JUMPDEST PUSH2 0x1F9E DUP3 DUP3 PUSH2 0x1211 JUMP JUMPDEST PUSH2 0x1FE1 JUMPI DUP1 DUP3 PUSH1 0x40 MLOAD PUSH32 0xE2517D3F00000000000000000000000000000000000000000000000000000000 DUP2 MSTORE PUSH1 0x4 ADD PUSH2 0x1FD8 SWAP3 SWAP2 SWAP1 PUSH2 0x2FEF JUMP JUMPDEST PUSH1 0x40 MLOAD DUP1 SWAP2 SUB SWAP1 REVERT JUMPDEST POP POP JUMP JUMPDEST PUSH0 PUSH1 0x40 MLOAD SWAP1 POP SWAP1 JUMP JUMPDEST PUSH0 PUSH0 REVERT JUMPDEST PUSH0 PUSH0 REVERT JUMPDEST PUSH0 PUSH32 0xFFFFFFFF00000000000000000000000000000000000000000000000000000000 DUP3 AND SWAP1 POP SWAP2 SWAP1 POP JUMP JUMPDEST PUSH2 0x202A DUP2 PUSH2 0x1FF6 JUMP JUMPDEST DUP2 EQ PUSH2 0x2034 JUMPI PUSH0 PUSH0 REVERT JUMPDEST POP JUMP JUMPDEST PUSH0 DUP2 CALLDATALOAD SWAP1 POP PUSH2 0x2045 DUP2 PUSH2 0x2021 JUMP JUMPDEST SWAP3 SWAP2 POP POP JUMP JUMPDEST PUSH0 PUSH1 0x20 DUP3 DUP5 SUB SLT ISZERO PUSH2 0x2060 JUMPI PUSH2 0x205F PUSH2 0x1FEE JUMP JUMPDEST JUMPDEST PUSH0 PUSH2 0x206D DUP5 DUP3 DUP6 ADD PUSH2 0x2037 JUMP JUMPDEST SWAP2 POP POP SWAP3 SWAP2 POP POP JUMP JUMPDEST PUSH0 DUP2 ISZERO ISZERO SWAP1 POP SWAP2 SWAP1 POP JUMP JUMPDEST PUSH2 0x208A DUP2 PUSH2 0x2076 JUMP JUMPDEST DUP3 MSTORE POP POP JUMP JUMPDEST PUSH0 PUSH1 0x20 DUP3 ADD SWAP1 POP PUSH2 0x20A3 PUSH0 DUP4 ADD DUP5 PUSH2 0x2081 JUMP JUMPDEST SWAP3 SWAP2 POP POP JUMP JUMPDEST PUSH0 DUP2 SWAP1 POP SWAP2 SWAP1 POP JUMP JUMPDEST PUSH2 0x20BB DUP2 PUSH2 0x20A9 JUMP JUMPDEST DUP2 EQ PUSH2 0x20C5 JUMPI PUSH0 PUSH0 REVERT JUMPDEST POP JUMP JUMPDEST PUSH0 DUP2 CALLDATALOAD SWAP1 POP PUSH2 0x20D6 DUP2 PUSH2 0x20B2 JUMP JUMPDEST SWAP3 SWAP2 POP POP JUMP JUMPDEST PUSH0 PUSH1 0x20 DUP3 DUP5 SUB SLT ISZERO PUSH2 0x20F1 JUMPI PUSH2 0x20F0 PUSH2 0x1FEE JUMP JUMPDEST JUMPDEST PUSH0 PUSH2 0x20FE DUP5 DUP3 DUP6 ADD PUSH2 0x20C8 JUMP JUMPDEST SWAP2 POP POP SWAP3 SWAP2 POP POP JUMP JUMPDEST PUSH2 0x2110 DUP2 PUSH2 0x20A9 JUMP JUMPDEST DUP3 MSTORE POP POP JUMP JUMPDEST PUSH0 PUSH20 0xFFFFFFFFFFFFFFFFFFFFFFFFFFFFFFFFFFFFFFFF DUP3 AND SWAP1 POP SWAP2 SWAP1 POP JUMP JUMPDEST PUSH0 PUSH2 0x213F DUP3 PUSH2 0x2116 JUMP JUMPDEST SWAP1 POP SWAP2 SWAP1 POP JUMP JUMPDEST PUSH2 0x214F DUP2 PUSH2 0x2135 JUMP JUMPDEST DUP3 MSTORE POP POP JUMP JUMPDEST PUSH32 0x4E487B7100000000000000000000000000000000000000000000000000000000 PUSH0 MSTORE PUSH1 0x21 PUSH1 0x4 MSTORE PUSH1 0x24 PUSH0 REVERT JUMPDEST PUSH1 0x4 DUP2 LT PUSH2 0x2193 JUMPI PUSH2 0x2192 PUSH2 0x2155 JUMP JUMPDEST JUMPDEST POP JUMP JUMPDEST PUSH0 DUP2 SWAP1 POP PUSH2 0x21A3 DUP3 PUSH2 0x2182 JUMP JUMPDEST SWAP2 SWAP1 POP JUMP JUMPDEST PUSH0 PUSH2 0x21B2 DUP3 PUSH2 0x2196 JUMP JUMPDEST SWAP1 POP SWAP2 SWAP1 POP JUMP JUMPDEST PUSH2 0x21C2 DUP2 PUSH2 0x21A8 JUMP JUMPDEST DUP3 MSTORE POP POP JUMP JUMPDEST PUSH0 PUSH1 0xA0 DUP3 ADD SWAP1 POP PUSH2 0x21DB PUSH0 DUP4 ADD DUP9 PUSH2 0x2107 JUMP JUMPDEST PUSH2 0x21E8 PUSH1 0x20 DUP4 ADD DUP8 PUSH2 0x2146 JUMP JUMPDEST PUSH2 0x21F5 PUSH1 0x40 DUP4 ADD DUP7 PUSH2 0x2146 JUMP JUMPDEST PUSH2 0x2202 PUSH1 0x60 DUP4 ADD DUP6 PUSH2 0x2107 JUMP JUMPDEST PUSH2 0x220F PUSH1 0x80 DUP4 ADD DUP5 PUSH2 0x21B9 JUMP JUMPDEST SWAP7 SWAP6 POP POP POP POP POP POP JUMP JUMPDEST PUSH2 0x2222 DUP2 PUSH2 0x2135 JUMP JUMPDEST DUP2 EQ PUSH2 0x222C JUMPI PUSH0 PUSH0 REVERT JUMPDEST POP JUMP JUMPDEST PUSH0 DUP2 CALLDATALOAD SWAP1 POP PUSH2 0x223D DUP2 PUSH2 0x2219 JUMP JUMPDEST SWAP3 SWAP2 POP POP JUMP JUMPDEST PUSH0 PUSH0 REVERT JUMPDEST PUSH0 PUSH1 0x1F NOT PUSH1 0x1F DUP4 ADD AND SWAP1 POP SWAP2 SWAP1 POP JUMP JUMPDEST PUSH32 0x4E487B7100000000000000000000000000000000000000000000000000000000 PUSH0 MSTORE PUSH1 0x41 PUSH1 0x4 MSTORE PUSH1 0x24 PUSH0 REVERT JUMPDEST PUSH2 0x228D DUP3 PUSH2 0x2247 JUMP JUMPDEST DUP2 ADD DUP2 DUP2 LT PUSH8 0xFFFFFFFFFFFFFFFF DUP3 GT OR ISZERO PUSH2 0x22AC JUMPI PUSH2 0x22AB PUSH2 0x2257 JUMP JUMPDEST JUMPDEST DUP1 PUSH1 0x40 MSTORE POP POP POP JUMP JUMPDEST PUSH0 PUSH2 0x22BE PUSH2 0x1FE5 JUMP JUMPDEST SWAP1 POP PUSH2 0x22CA DUP3 DUP3 PUSH2 0x2284 JUMP JUMPDEST SWAP2 SWAP1 POP JUMP JUMPDEST PUSH0 PUSH8 0xFFFFFFFFFFFFFFFF DUP3 GT ISZERO PUSH2 0x22E9 JUMPI PUSH2 0x22E8 PUSH2 0x2257 JUMP JUMPDEST JUMPDEST PUSH1 0x20 DUP3 MUL SWAP1 POP PUSH1 0x20 DUP2 ADD SWAP1 POP SWAP2 SWAP1 POP JUMP JUMPDEST PUSH0 PUSH0 REVERT JUMPDEST PUSH0 PUSH2 0x2310 PUSH2 0x230B DUP5 PUSH2 0x22CF JUMP JUMPDEST PUSH2 0x22B5 JUMP JUMPDEST SWAP1 POP DUP1 DUP4 DUP3 MSTORE PUSH1 0x20 DUP3 ADD SWAP1 POP PUSH1 0x20 DUP5 MUL DUP4 ADD DUP6 DUP2 GT ISZERO PUSH2 0x2333 JUMPI PUSH2 0x2332 PUSH2 0x22FA JUMP JUMPDEST JUMPDEST DUP4 JUMPDEST DUP2 DUP2 LT ISZERO PUSH2 0x235C JUMPI DUP1 PUSH2 0x2348 DUP9 DUP3 PUSH2 0x20C8 JUMP JUMPDEST DUP5 MSTORE PUSH1 0x20 DUP5 ADD SWAP4 POP POP PUSH1 0x20 DUP2 ADD SWAP1 POP PUSH2 0x2335 JUMP JUMPDEST POP POP POP SWAP4 SWAP3 POP POP POP JUMP JUMPDEST PUSH0 DUP3 PUSH1 0x1F DUP4 ADD SLT PUSH2 0x237A JUMPI PUSH2 0x2379 PUSH2 0x2243 JUMP JUMPDEST JUMPDEST DUP2 CALLDATALOAD PUSH2 0x238A DUP5 DUP3 PUSH1 0x20 DUP7 ADD PUSH2 0x22FE JUMP JUMPDEST SWAP2 POP POP SWAP3 SWAP2 POP POP JUMP JUMPDEST PUSH0 PUSH0 PUSH1 0x40 DUP4 DUP6 SUB SLT ISZERO PUSH2 0x23A9 JUMPI PUSH2 0x23A8 PUSH2 0x1FEE JUMP JUMPDEST JUMPDEST PUSH0 PUSH2 0x23B6 DUP6 DUP3 DUP7 ADD PUSH2 0x222F JUMP JUMPDEST SWAP3 POP POP PUSH1 0x20 DUP4 ADD CALLDATALOAD PUSH8 0xFFFFFFFFFFFFFFFF DUP2 GT ISZERO PUSH2 0x23D7 JUMPI PUSH2 0x23D6 PUSH2 0x1FF2 JUMP JUMPDEST JUMPDEST PUSH2 0x23E3 DUP6 DUP3 DUP7 ADD PUSH2 0x2366 JUMP JUMPDEST SWAP2 POP POP SWAP3 POP SWAP3 SWAP1 POP JUMP JUMPDEST PUSH0 PUSH0 PUSH1 0x40 DUP4 DUP6 SUB SLT ISZERO PUSH2 0x2403 JUMPI PUSH2 0x2402 PUSH2 0x1FEE JUMP JUMPDEST JUMPDEST PUSH0 PUSH2 0x2410 DUP6 DUP3 DUP7 ADD PUSH2 0x20C8 JUMP JUMPDEST SWAP3 POP POP PUSH1 0x20 PUSH2 0x2421 DUP6 DUP3 DUP7 ADD PUSH2 0x20C8 JUMP JUMPDEST SWAP2 POP POP SWAP3 POP SWAP3 SWAP1 POP JUMP JUMPDEST PUSH0 DUP2 SWAP1 POP SWAP2 SWAP1 POP JUMP JUMPDEST PUSH2 0x243D DUP2 PUSH2 0x242B JUMP JUMPDEST DUP2 EQ PUSH2 0x2447 JUMPI PUSH0 PUSH0 REVERT JUMPDEST POP JUMP JUMPDEST PUSH0 DUP2 CALLDATALOAD SWAP1 POP PUSH2 0x2458 DUP2 PUSH2 0x2434 JUMP JUMPDEST SWAP3 SWAP2 POP POP JUMP JUMPDEST PUSH0 PUSH1 0x20 DUP3 DUP5 SUB SLT ISZERO PUSH2 0x2473 JUMPI PUSH2 0x2472 PUSH2 0x1FEE JUMP JUMPDEST JUMPDEST PUSH0 PUSH2 0x2480 DUP5 DUP3 DUP6 ADD PUSH2 0x244A JUMP JUMPDEST SWAP2 POP POP SWAP3 SWAP2 POP POP JUMP JUMPDEST PUSH2 0x2492 DUP2 PUSH2 0x242B JUMP JUMPDEST DUP3 MSTORE POP POP JUMP JUMPDEST PUSH0 PUSH1 0x20 DUP3 ADD SWAP1 POP PUSH2 0x24AB PUSH0 DUP4 ADD DUP5 PUSH2 0x2489 JUMP JUMPDEST SWAP3 SWAP2 POP POP JUMP JUMPDEST PUSH0 DUP2 MLOAD SWAP1 POP SWAP2 SWAP1 POP JUMP JUMPDEST PUSH0 DUP3 DUP3 MSTORE PUSH1 0x20 DUP3 ADD SWAP1 POP SWAP3 SWAP2 POP POP JUMP JUMPDEST DUP3 DUP2 DUP4 MCOPY PUSH0 DUP4 DUP4 ADD MSTORE POP POP POP JUMP JUMPDEST PUSH0 PUSH2 0x24E3 DUP3 PUSH2 0x24B1 JUMP JUMPDEST PUSH2 0x24ED DUP2 DUP6 PUSH2 0x24BB JUMP JUMPDEST SWAP4 POP PUSH2 0x24FD DUP2 DUP6 PUSH1 0x20 DUP7 ADD PUSH2 0x24CB JUMP JUMPDEST PUSH2 0x2506 DUP2 PUSH2 0x2247 JUMP JUMPDEST DUP5 ADD SWAP2 POP POP SWAP3 SWAP2 POP POP JUMP JUMPDEST PUSH0 PUSH1 0xC0 DUP3 ADD SWAP1 POP PUSH2 0x2524 PUSH0 DUP4 ADD DUP10 PUSH2 0x2107 JUMP JUMPDEST PUSH2 0x2531 PUSH1 0x20 DUP4 ADD DUP9 PUSH2 0x2146 JUMP JUMPDEST DUP2 DUP2 SUB PUSH1 0x40 DUP4 ADD MSTORE PUSH2 0x2543 DUP2 DUP8 PUSH2 0x24D9 JUMP JUMPDEST SWAP1 POP PUSH2 0x2552 PUSH1 0x60 DUP4 ADD DUP7 PUSH2 0x2146 JUMP JUMPDEST PUSH2 0x255F PUSH1 0x80 DUP4 ADD DUP6 PUSH2 0x2081 JUMP JUMPDEST DUP2 DUP2 SUB PUSH1 0xA0 DUP4 ADD MSTORE PUSH2 0x2571 DUP2 DUP5 PUSH2 0x24D9 JUMP JUMPDEST SWAP1 POP SWAP8 SWAP7 POP POP POP POP POP POP POP JUMP JUMPDEST PUSH0 PUSH0 PUSH1 0x40 DUP4 DUP6 SUB SLT ISZERO PUSH2 0x2594 JUMPI PUSH2 0x2593 PUSH2 0x1FEE JUMP JUMPDEST JUMPDEST PUSH0 PUSH2 0x25A1 DUP6 DUP3 DUP7 ADD PUSH2 0x244A JUMP JUMPDEST SWAP3 POP POP PUSH1 0x20 PUSH2 0x25B2 DUP6 DUP3 DUP7 ADD PUSH2 0x222F JUMP JUMPDEST SWAP2 POP POP SWAP3 POP SWAP3 SWAP1 POP JUMP JUMPDEST PUSH0 PUSH0 PUSH1 0x40 DUP4 DUP6 SUB SLT ISZERO PUSH2 0x25D2 JUMPI PUSH2 0x25D1 PUSH2 0x1FEE JUMP JUMPDEST JUMPDEST PUSH0 PUSH2 0x25DF DUP6 DUP3 DUP7 ADD PUSH2 0x222F JUMP JUMPDEST SWAP3 POP POP PUSH1 0x20 PUSH2 0x25F0 DUP6 DUP3 DUP7 ADD PUSH2 0x20C8 JUMP JUMPDEST SWAP2 POP POP SWAP3 POP SWAP3 SWAP1 POP JUMP JUMPDEST PUSH0 PUSH1 0x20 DUP3 ADD SWAP1 POP PUSH2 0x260D PUSH0 DUP4 ADD DUP5 PUSH2 0x2107 JUMP JUMPDEST SWAP3 SWAP2 POP POP JUMP JUMPDEST PUSH0 DUP2 MLOAD SWAP1 POP SWAP2 SWAP1 POP JUMP JUMPDEST PUSH0 DUP3 DUP3 MSTORE PUSH1 0x20 DUP3 ADD SWAP1 POP SWAP3 SWAP2 POP POP JUMP JUMPDEST PUSH0 DUP2 SWAP1 POP PUSH1 0x20 DUP3 ADD SWAP1 POP SWAP2 SWAP1 POP JUMP JUMPDEST PUSH2 0x2645 DUP2 PUSH2 0x20A9 JUMP JUMPDEST DUP3 MSTORE POP POP JUMP JUMPDEST PUSH2 0x2654 DUP2 PUSH2 0x2076 JUMP JUMPDEST DUP3 MSTORE POP POP JUMP JUMPDEST PUSH1 0x5 DUP2 LT PUSH2 0x266B JUMPI PUSH2 0x266A PUSH2 0x2155 JUMP JUMPDEST JUMPDEST POP JUMP JUMPDEST PUSH0 DUP2 SWAP1 POP PUSH2 0x267B DUP3 PUSH2 0x265A JUMP JUMPDEST SWAP2 SWAP1 POP JUMP JUMPDEST PUSH0 PUSH2 0x268A DUP3 PUSH2 0x266E JUMP JUMPDEST SWAP1 POP SWAP2 SWAP1 POP JUMP JUMPDEST PUSH2 0x269A DUP2 PUSH2 0x2680 JUMP JUMPDEST DUP3 MSTORE POP POP JUMP JUMPDEST PUSH1 0x60 DUP3 ADD PUSH0 DUP3 ADD MLOAD PUSH2 0x26B4 PUSH0 DUP6 ADD DUP3 PUSH2 0x263C JUMP JUMPDEST POP PUSH1 0x20 DUP3 ADD MLOAD PUSH2 0x26C7 PUSH1 0x20 DUP6 ADD DUP3 PUSH2 0x264B JUMP JUMPDEST POP PUSH1 0x40 DUP3 ADD MLOAD PUSH2 0x26DA PUSH1 0x40 DUP6 ADD DUP3 PUSH2 0x2691 JUMP JUMPDEST POP POP POP POP JUMP JUMPDEST PUSH0 PUSH2 0x26EB DUP4 DUP4 PUSH2 0x26A0 JUMP JUMPDEST PUSH1 0x60 DUP4 ADD SWAP1 POP SWAP3 SWAP2 POP POP JUMP JUMPDEST PUSH0 PUSH1 0x20 DUP3 ADD SWAP1 POP SWAP2 SWAP1 POP JUMP JUMPDEST PUSH0 PUSH2 0x270D DUP3 PUSH2 0x2613 JUMP JUMPDEST PUSH2 0x2717 DUP2 DUP6 PUSH2 0x261D JUMP JUMPDEST SWAP4 POP PUSH2 0x2722 DUP4 PUSH2 0x262D JUMP JUMPDEST DUP1 PUSH0 JUMPDEST DUP4 DUP2 LT ISZERO PUSH2 0x2752 JUMPI DUP2 MLOAD PUSH2 0x2739 DUP9 DUP3 PUSH2 0x26E0 JUMP JUMPDEST SWAP8 POP PUSH2 0x2744 DUP4 PUSH2 0x26F7 JUMP JUMPDEST SWAP3 POP POP PUSH1 0x1 DUP2 ADD SWAP1 POP PUSH2 0x2725 JUMP JUMPDEST POP DUP6 SWAP4 POP POP POP POP SWAP3 SWAP2 POP POP JUMP JUMPDEST PUSH0 PUSH1 0x20 DUP3 ADD SWAP1 POP DUP2 DUP2 SUB PUSH0 DUP4 ADD MSTORE PUSH2 0x2777 DUP2 DUP5 PUSH2 0x2703 JUMP JUMPDEST SWAP1 POP SWAP3 SWAP2 POP POP JUMP JUMPDEST PUSH2 0x2788 DUP2 PUSH2 0x2076 JUMP JUMPDEST DUP2 EQ PUSH2 0x2792 JUMPI PUSH0 PUSH0 REVERT JUMPDEST POP JUMP JUMPDEST PUSH0 DUP2 CALLDATALOAD SWAP1 POP PUSH2 0x27A3 DUP2 PUSH2 0x277F JUMP JUMPDEST SWAP3 SWAP2 POP POP JUMP JUMPDEST PUSH0 PUSH0 REVERT JUMPDEST PUSH0 PUSH0 DUP4 PUSH1 0x1F DUP5 ADD SLT PUSH2 0x27C2 JUMPI PUSH2 0x27C1 PUSH2 0x2243 JUMP JUMPDEST JUMPDEST DUP3 CALLDATALOAD SWAP1 POP PUSH8 0xFFFFFFFFFFFFFFFF DUP2 GT ISZERO PUSH2 0x27DF JUMPI PUSH2 0x27DE PUSH2 0x27A9 JUMP JUMPDEST JUMPDEST PUSH1 0x20 DUP4 ADD SWAP2 POP DUP4 PUSH1 0x1 DUP3 MUL DUP4 ADD GT ISZERO PUSH2 0x27FB JUMPI PUSH2 0x27FA PUSH2 0x22FA JUMP JUMPDEST JUMPDEST SWAP3 POP SWAP3 SWAP1 POP JUMP JUMPDEST PUSH0 PUSH0 PUSH0 PUSH0 PUSH0 PUSH1 0x80 DUP7 DUP9 SUB SLT ISZERO PUSH2 0x281B JUMPI PUSH2 0x281A PUSH2 0x1FEE JUMP JUMPDEST JUMPDEST PUSH0 PUSH2 0x2828 DUP9 DUP3 DUP10 ADD PUSH2 0x20C8 JUMP JUMPDEST SWAP6 POP POP PUSH1 0x20 PUSH2 0x2839 DUP9 DUP3 DUP10 ADD PUSH2 0x20C8 JUMP JUMPDEST SWAP5 POP POP PUSH1 0x40 PUSH2 0x284A DUP9 DUP3 DUP10 ADD PUSH2 0x2795 JUMP JUMPDEST SWAP4 POP POP PUSH1 0x60 DUP7 ADD CALLDATALOAD PUSH8 0xFFFFFFFFFFFFFFFF DUP2 GT ISZERO PUSH2 0x286B JUMPI PUSH2 0x286A PUSH2 0x1FF2 JUMP JUMPDEST JUMPDEST PUSH2 0x2877 DUP9 DUP3 DUP10 ADD PUSH2 0x27AD JUMP JUMPDEST SWAP3 POP SWAP3 POP POP SWAP3 SWAP6 POP SWAP3 SWAP6 SWAP1 SWAP4 POP JUMP JUMPDEST PUSH0 PUSH1 0x20 DUP3 ADD SWAP1 POP PUSH2 0x2899 PUSH0 DUP4 ADD DUP5 PUSH2 0x2146 JUMP JUMPDEST SWAP3 SWAP2 POP POP JUMP JUMPDEST PUSH0 DUP2 SWAP1 POP SWAP2 SWAP1 POP JUMP JUMPDEST PUSH0 PUSH2 0x28C2 PUSH2 0x28BD PUSH2 0x28B8 DUP5 PUSH2 0x2116 JUMP JUMPDEST PUSH2 0x289F JUMP JUMPDEST PUSH2 0x2116 JUMP JUMPDEST SWAP1 POP SWAP2 SWAP1 POP JUMP JUMPDEST PUSH0 PUSH2 0x28D3 DUP3 PUSH2 0x28A8 JUMP JUMPDEST SWAP1 POP SWAP2 SWAP1 POP JUMP JUMPDEST PUSH0 PUSH2 0x28E4 DUP3 PUSH2 0x28C9 JUMP JUMPDEST SWAP1 POP SWAP2 SWAP1 POP JUMP JUMPDEST PUSH2 0x28F4 DUP2 PUSH2 0x28DA JUMP JUMPDEST DUP3 MSTORE POP POP JUMP JUMPDEST PUSH0 PUSH1 0x20 DUP3 ADD SWAP1 POP PUSH2 0x290D PUSH0 DUP4 ADD DUP5 PUSH2 0x28EB JUMP JUMPDEST SWAP3 SWAP2 POP POP JUMP JUMPDEST PUSH0 PUSH0 PUSH0 PUSH1 0x60 DUP5 DUP7 SUB SLT ISZERO PUSH2 0x292A JUMPI PUSH2 0x2929 PUSH2 0x1FEE JUMP JUMPDEST JUMPDEST PUSH0 PUSH2 0x2937 DUP7 DUP3 DUP8 ADD PUSH2 0x20C8 JUMP JUMPDEST SWAP4 POP POP PUSH1 0x20 PUSH2 0x2948 DUP7 DUP3 DUP8 ADD PUSH2 0x20C8 JUMP JUMPDEST SWAP3 POP POP PUSH1 0x40 PUSH2 0x2959 DUP7 DUP3 DUP8 ADD PUSH2 0x222F JUMP JUMPDEST SWAP2 POP POP SWAP3 POP SWAP3 POP SWAP3 JUMP JUMPDEST PUSH0 PUSH0 PUSH0 PUSH0 PUSH1 0x60 DUP6 DUP8 SUB SLT ISZERO PUSH2 0x297B JUMPI PUSH2 0x297A PUSH2 0x1FEE JUMP JUMPDEST JUMPDEST PUSH0 PUSH2 0x2988 DUP8 DUP3 DUP9 ADD PUSH2 0x20C8 JUMP JUMPDEST SWAP5 POP POP PUSH1 0x20 PUSH2 0x2999 DUP8 DUP3 DUP9 ADD PUSH2 0x20C8 JUMP JUMPDEST SWAP4 POP POP PUSH1 0x40 DUP6 ADD CALLDATALOAD PUSH8 0xFFFFFFFFFFFFFFFF DUP2 GT ISZERO PUSH2 0x29BA JUMPI PUSH2 0x29B9 PUSH2 0x1FF2 JUMP JUMPDEST JUMPDEST PUSH2 0x29C6 DUP8 DUP3 DUP9 ADD PUSH2 0x27AD JUMP JUMPDEST SWAP3 POP SWAP3 POP POP SWAP3 SWAP6 SWAP2 SWAP5 POP SWAP3 POP JUMP JUMPDEST PUSH0 PUSH0 PUSH1 0x40 DUP4 DUP6 SUB SLT ISZERO PUSH2 0x29EA JUMPI PUSH2 0x29E9 PUSH2 0x1FEE JUMP JUMPDEST JUMPDEST PUSH0 PUSH2 0x29F7 DUP6 DUP3 DUP7 ADD PUSH2 0x20C8 JUMP JUMPDEST SWAP3 POP POP PUSH1 0x20 PUSH2 0x2A08 DUP6 DUP3 DUP7 ADD PUSH2 0x222F JUMP JUMPDEST SWAP2 POP POP SWAP3 POP SWAP3 SWAP1 POP JUMP JUMPDEST PUSH0 PUSH1 0x20 DUP3 DUP5 SUB SLT ISZERO PUSH2 0x2A27 JUMPI PUSH2 0x2A26 PUSH2 0x1FEE JUMP JUMPDEST JUMPDEST PUSH0 PUSH2 0x2A34 DUP5 DUP3 DUP6 ADD PUSH2 0x222F JUMP JUMPDEST SWAP2 POP POP SWAP3 SWAP2 POP POP JUMP JUMPDEST PUSH32 0x4E487B7100000000000000000000000000000000000000000000000000000000 PUSH0 MSTORE PUSH1 0x32 PUSH1 0x4 MSTORE PUSH1 0x24 PUSH0 REVERT JUMPDEST PUSH32 0x4E487B7100000000000000000000000000000000000000000000000000000000 PUSH0 MSTORE PUSH1 0x11 PUSH1 0x4 MSTORE PUSH1 0x24 PUSH0 REVERT JUMPDEST PUSH0 PUSH2 0x2AA1 DUP3 PUSH2 0x20A9 JUMP JUMPDEST SWAP2 POP PUSH2 0x2AAC DUP4 PUSH2 0x20A9 JUMP JUMPDEST SWAP3 POP DUP3 DUP3 ADD SWAP1 POP DUP1 DUP3 GT ISZERO PUSH2 0x2AC4 JUMPI PUSH2 0x2AC3 PUSH2 0x2A6A JUMP JUMPDEST JUMPDEST SWAP3 SWAP2 POP POP JUMP JUMPDEST PUSH0 PUSH1 0x60 DUP3 ADD SWAP1 POP PUSH2 0x2ADD PUSH0 DUP4 ADD DUP7 PUSH2 0x2146 JUMP JUMPDEST PUSH2 0x2AEA PUSH1 0x20 DUP4 ADD DUP6 PUSH2 0x2146 JUMP JUMPDEST PUSH2 0x2AF7 PUSH1 0x40 DUP4 ADD DUP5 PUSH2 0x2107 JUMP JUMPDEST SWAP5 SWAP4 POP POP POP POP JUMP JUMPDEST PUSH0 DUP2 MLOAD SWAP1 POP PUSH2 0x2B0D DUP2 PUSH2 0x277F JUMP JUMPDEST SWAP3 SWAP2 POP POP JUMP JUMPDEST PUSH0 PUSH1 0x20 DUP3 DUP5 SUB SLT ISZERO PUSH2 0x2B28 JUMPI PUSH2 0x2B27 PUSH2 0x1FEE JUMP JUMPDEST JUMPDEST PUSH0 PUSH2 0x2B35 DUP5 DUP3 DUP6 ADD PUSH2 0x2AFF JUMP JUMPDEST SWAP2 POP POP SWAP3 SWAP2 POP POP JUMP JUMPDEST PUSH32 0x5472616E73666572206661696C65640000000000000000000000000000000000 PUSH0 DUP3 ADD MSTORE POP JUMP JUMPDEST PUSH0 PUSH2 0x2B72 PUSH1 0xF DUP4 PUSH2 0x24BB JUMP JUMPDEST SWAP2 POP PUSH2 0x2B7D DUP3 PUSH2 0x2B3E JUMP JUMPDEST PUSH1 0x20 DUP3 ADD SWAP1 POP SWAP2 SWAP1 POP JUMP JUMPDEST PUSH0 PUSH1 0x20 DUP3 ADD SWAP1 POP DUP2 DUP2 SUB PUSH0 DUP4 ADD MSTORE PUSH2 0x2B9F DUP2 PUSH2 0x2B66 JUMP JUMPDEST SWAP1 POP SWAP2 SWAP1 POP JUMP JUMPDEST PUSH0 PUSH2 0x2BB0 DUP3 PUSH2 0x20A9 JUMP JUMPDEST SWAP2 POP PUSH32 0xFFFFFFFFFFFFFFFFFFFFFFFFFFFFFFFFFFFFFFFFFFFFFFFFFFFFFFFFFFFFFFFF DUP3 SUB PUSH2 0x2BE2 JUMPI PUSH2 0x2BE1 PUSH2 0x2A6A JUMP JUMPDEST JUMPDEST PUSH1 0x1 DUP3 ADD SWAP1 POP SWAP2 SWAP1 POP JUMP JUMPDEST PUSH0 PUSH1 0x40 DUP3 ADD SWAP1 POP PUSH2 0x2C00 PUSH0 DUP4 ADD DUP6 PUSH2 0x2146 JUMP JUMPDEST PUSH2 0x2C0D PUSH1 0x20 DUP4 ADD DUP5 PUSH2 0x2107 JUMP JUMPDEST SWAP4 SWAP3 POP POP POP JUMP JUMPDEST PUSH32 0x4E487B7100000000000000000000000000000000000000000000000000000000 PUSH0 MSTORE PUSH1 0x22 PUSH1 0x4 MSTORE PUSH1 0x24 PUSH0 REVERT JUMPDEST PUSH0 PUSH1 0x2 DUP3 DIV SWAP1 POP PUSH1 0x1 DUP3 AND DUP1 PUSH2 0x2C58 JUMPI PUSH1 0x7F DUP3 AND SWAP2 POP JUMPDEST PUSH1 0x20 DUP3 LT DUP2 SUB PUSH2 0x2C6B JUMPI PUSH2 0x2C6A PUSH2 0x2C14 JUMP JUMPDEST JUMPDEST POP SWAP2 SWAP1 POP JUMP JUMPDEST PUSH0 DUP3 SWAP1 POP SWAP3 SWAP2 POP POP JUMP JUMPDEST PUSH0 DUP2 SWAP1 POP DUP2 PUSH0 MSTORE PUSH1 0x20 PUSH0 KECCAK256 SWAP1 POP SWAP2 SWAP1 POP JUMP JUMPDEST PUSH0 PUSH1 0x20 PUSH1 0x1F DUP4 ADD DIV SWAP1 POP SWAP2 SWAP1 POP JUMP JUMPDEST PUSH0 DUP3 DUP3 SHL SWAP1 POP SWAP3 SWAP2 POP POP JUMP JUMPDEST PUSH0 PUSH1 0x8 DUP4 MUL PUSH2 0x2CD7 PUSH32 0xFFFFFFFFFFFFFFFFFFFFFFFFFFFFFFFFFFFFFFFFFFFFFFFFFFFFFFFFFFFFFFFF DUP3 PUSH2 0x2C9C JUMP JUMPDEST PUSH2 0x2CE1 DUP7 DUP4 PUSH2 0x2C9C JUMP JUMPDEST SWAP6 POP DUP1 NOT DUP5 AND SWAP4 POP DUP1 DUP7 AND DUP5 OR SWAP3 POP POP POP SWAP4 SWAP3 POP POP POP JUMP JUMPDEST PUSH0 PUSH2 0x2D13 PUSH2 0x2D0E PUSH2 0x2D09 DUP5 PUSH2 0x20A9 JUMP JUMPDEST PUSH2 0x289F JUMP JUMPDEST PUSH2 0x20A9 JUMP JUMPDEST SWAP1 POP SWAP2 SWAP1 POP JUMP JUMPDEST PUSH0 DUP2 SWAP1 POP SWAP2 SWAP1 POP JUMP JUMPDEST PUSH2 0x2D2C DUP4 PUSH2 0x2CF9 JUMP JUMPDEST PUSH2 0x2D40 PUSH2 0x2D38 DUP3 PUSH2 0x2D1A JUMP JUMPDEST DUP5 DUP5 SLOAD PUSH2 0x2CA8 JUMP JUMPDEST DUP3 SSTORE POP POP POP POP JUMP JUMPDEST PUSH0 PUSH0 SWAP1 POP SWAP1 JUMP JUMPDEST PUSH2 0x2D57 PUSH2 0x2D48 JUMP JUMPDEST PUSH2 0x2D62 DUP2 DUP5 DUP5 PUSH2 0x2D23 JUMP JUMPDEST POP POP POP JUMP JUMPDEST JUMPDEST DUP2 DUP2 LT ISZERO PUSH2 0x2D85 JUMPI PUSH2 0x2D7A PUSH0 DUP3 PUSH2 0x2D4F JUMP JUMPDEST PUSH1 0x1 DUP2 ADD SWAP1 POP PUSH2 0x2D68 JUMP JUMPDEST POP POP JUMP JUMPDEST PUSH1 0x1F DUP3 GT ISZERO PUSH2 0x2DCA JUMPI PUSH2 0x2D9B DUP2 PUSH2 0x2C7B JUMP JUMPDEST PUSH2 0x2DA4 DUP5 PUSH2 0x2C8D JUMP JUMPDEST DUP2 ADD PUSH1 0x20 DUP6 LT ISZERO PUSH2 0x2DB3 JUMPI DUP2 SWAP1 POP JUMPDEST PUSH2 0x2DC7 PUSH2 0x2DBF DUP6 PUSH2 0x2C8D JUMP JUMPDEST DUP4 ADD DUP3 PUSH2 0x2D67 JUMP JUMPDEST POP POP JUMPDEST POP POP POP JUMP JUMPDEST PUSH0 DUP3 DUP3 SHR SWAP1 POP SWAP3 SWAP2 POP POP JUMP JUMPDEST PUSH0 PUSH2 0x2DEA PUSH0 NOT DUP5 PUSH1 0x8 MUL PUSH2 0x2DCF JUMP JUMPDEST NOT DUP1 DUP4 AND SWAP2 POP POP SWAP3 SWAP2 POP POP JUMP JUMPDEST PUSH0 PUSH2 0x2E02 DUP4 DUP4 PUSH2 0x2DDB JUMP JUMPDEST SWAP2 POP DUP3 PUSH1 0x2 MUL DUP3 OR SWAP1 POP SWAP3 SWAP2 POP POP JUMP JUMPDEST PUSH2 0x2E1C DUP4 DUP4 PUSH2 0x2C71 JUMP JUMPDEST PUSH8 0xFFFFFFFFFFFFFFFF DUP2 GT ISZERO PUSH2 0x2E35 JUMPI PUSH2 0x2E34 PUSH2 0x2257 JUMP JUMPDEST JUMPDEST PUSH2 0x2E3F DUP3 SLOAD PUSH2 0x2C41 JUMP JUMPDEST PUSH2 0x2E4A DUP3 DUP3 DUP6 PUSH2 0x2D89 JUMP JUMPDEST PUSH0 PUSH1 0x1F DUP4 GT PUSH1 0x1 DUP2 EQ PUSH2 0x2E77 JUMPI PUSH0 DUP5 ISZERO PUSH2 0x2E65 JUMPI DUP3 DUP8 ADD CALLDATALOAD SWAP1 POP JUMPDEST PUSH2 0x2E6F DUP6 DUP3 PUSH2 0x2DF7 JUMP JUMPDEST DUP7 SSTORE POP PUSH2 0x2ED6 JUMP JUMPDEST PUSH1 0x1F NOT DUP5 AND PUSH2 0x2E85 DUP7 PUSH2 0x2C7B JUMP JUMPDEST PUSH0 JUMPDEST DUP3 DUP2 LT ISZERO PUSH2 0x2EAC JUMPI DUP5 DUP10 ADD CALLDATALOAD DUP3 SSTORE PUSH1 0x1 DUP3 ADD SWAP2 POP PUSH1 0x20 DUP6 ADD SWAP5 POP PUSH1 0x20 DUP2 ADD SWAP1 POP PUSH2 0x2E87 JUMP JUMPDEST DUP7 DUP4 LT ISZERO PUSH2 0x2EC9 JUMPI DUP5 DUP10 ADD CALLDATALOAD PUSH2 0x2EC5 PUSH1 0x1F DUP10 AND DUP3 PUSH2 0x2DDB JUMP JUMPDEST DUP4 SSTORE POP JUMPDEST PUSH1 0x1 PUSH1 0x2 DUP9 MUL ADD DUP9 SSTORE POP POP POP JUMPDEST POP POP POP POP POP POP POP JUMP JUMPDEST PUSH2 0x2EE8 DUP3 PUSH2 0x24B1 JUMP JUMPDEST PUSH8 0xFFFFFFFFFFFFFFFF DUP2 GT ISZERO PUSH2 0x2F01 JUMPI PUSH2 0x2F00 PUSH2 0x2257 JUMP JUMPDEST JUMPDEST PUSH2 0x2F0B DUP3 SLOAD PUSH2 0x2C41 JUMP JUMPDEST PUSH2 0x2F16 DUP3 DUP3 DUP6 PUSH2 0x2D89 JUMP JUMPDEST PUSH0 PUSH1 0x20 SWAP1 POP PUSH1 0x1F DUP4 GT PUSH1 0x1 DUP2 EQ PUSH2 0x2F47 JUMPI PUSH0 DUP5 ISZERO PUSH2 0x2F35 JUMPI DUP3 DUP8 ADD MLOAD SWAP1 POP JUMPDEST PUSH2 0x2F3F DUP6 DUP3 PUSH2 0x2DF7 JUMP JUMPDEST DUP7 SSTORE POP PUSH2 0x2FA6 JUMP JUMPDEST PUSH1 0x1F NOT DUP5 AND PUSH2 0x2F55 DUP7 PUSH2 0x2C7B JUMP JUMPDEST PUSH0 JUMPDEST DUP3 DUP2 LT ISZERO PUSH2 0x2F7C JUMPI DUP5 DUP10 ADD MLOAD DUP3 SSTORE PUSH1 0x1 DUP3 ADD SWAP2 POP PUSH1 0x20 DUP6 ADD SWAP5 POP PUSH1 0x20 DUP2 ADD SWAP1 POP PUSH2 0x2F57 JUMP JUMPDEST DUP7 DUP4 LT ISZERO PUSH2 0x2F99 JUMPI DUP5 DUP10 ADD MLOAD PUSH2 0x2F95 PUSH1 0x1F DUP10 AND DUP3 PUSH2 0x2DDB JUMP JUMPDEST DUP4 SSTORE POP JUMPDEST PUSH1 0x1 PUSH1 0x2 DUP9 MUL ADD DUP9 SSTORE POP POP POP JUMPDEST POP POP POP POP POP POP JUMP JUMPDEST PUSH0 PUSH2 0x2FB8 DUP3 PUSH2 0x20A9 JUMP JUMPDEST SWAP2 POP PUSH2 0x2FC3 DUP4 PUSH2 0x20A9 JUMP JUMPDEST SWAP3 POP DUP3 DUP3 MUL PUSH2 0x2FD1 DUP2 PUSH2 0x20A9 JUMP JUMPDEST SWAP2 POP DUP3 DUP3 DIV DUP5 EQ DUP4 ISZERO OR PUSH2 0x2FE8 JUMPI PUSH2 0x2FE7 PUSH2 0x2A6A JUMP JUMPDEST JUMPDEST POP SWAP3 SWAP2 POP POP JUMP JUMPDEST PUSH0 PUSH1 0x40 DUP3 ADD SWAP1 POP PUSH2 0x3002 PUSH0 DUP4 ADD DUP6 PUSH2 0x2146 JUMP JUMPDEST PUSH2 0x300F PUSH1 0x20 DUP4 ADD DUP5 PUSH2 0x2489 JUMP JUMPDEST SWAP4 SWAP3 POP POP POP JUMP INVALID LOG2 PUSH5 0x6970667358 0x22 SLT KECCAK256 PUSH17 0x16429A6A1EAB954229F98EC8DAB289996F GASPRICE 0xCA ADD SWAP1 TLOAD PUSH30 0x575B087D035DF7C064736F6C634300081E00330000000000000000000000 "
				},
				"gasEstimates": {
					"creation": {
						"codeDepositCost": "2472800",
						"executionCost": "infinite",
						"totalCost": "infinite"
					},
					"external": {
						"DEFAULT_ADMIN_ROLE()": "440",
						"acceptJob(uint256,address)": "31790",
						"approveMilestone(uint256,uint256)": "infinite",
						"createJob(address,uint256[])": "infinite",
						"disputes(uint256,uint256)": "infinite",
						"freelancerJobs(address,uint256)": "infinite",
						"getRoleAdmin(bytes32)": "infinite",
						"getjob(uint256)": "infinite",
						"grantRole(bytes32,address)": "infinite",
						"hasRole(bytes32,address)": "3188",
						"i_token()": "infinite",
						"jobId()": "2491",
						"jobs(uint256)": "infinite",
						"owner()": "2559",
						"raiseDispute(uint256,uint256,string)": "infinite",
						"renounceOwnership()": "infinite",
						"renounceRole(bytes32,address)": "infinite",
						"resolveDispute(uint256,uint256,bool,string)": "infinite",
						"revokeRole(bytes32,address)": "infinite",
						"submitMilestone(uint256,uint256,address)": "infinite",
						"supportsInterface(bytes4)": "741",
						"transferOwnership(address)": "infinite"
					}
				},
				"methodIdentifiers": {
					"DEFAULT_ADMIN_ROLE()": "a217fddf",
					"acceptJob(uint256,address)": "d7d86727",
					"approveMilestone(uint256,uint256)": "20913da5",
					"createJob(address,uint256[])": "1a424050",
					"disputes(uint256,uint256)": "25e43652",
					"freelancerJobs(address,uint256)": "442f5c88",
					"getRoleAdmin(bytes32)": "248a9ca3",
					"getjob(uint256)": "65c498ab",
					"grantRole(bytes32,address)": "2f2ff15d",
					"hasRole(bytes32,address)": "91d14854",
					"i_token()": "9608b232",
					"jobId()": "c2939d97",
					"jobs(uint256)": "180aedf3",
					"owner()": "8da5cb5b",
					"raiseDispute(uint256,uint256,string)": "c290dd71",
					"renounceOwnership()": "715018a6",
					"renounceRole(bytes32,address)": "36568abe",
					"resolveDispute(uint256,uint256,bool,string)": "870d364d",
					"revokeRole(bytes32,address)": "d547741f",
					"submitMilestone(uint256,uint256,address)": "b728775b",
					"supportsInterface(bytes4)": "01ffc9a7",
					"transferOwnership(address)": "f2fde38b"
				}
			},
			"storageLayout": {
				"storage": [
					{
						"astId": 387,
						"contract": "contracts/escrow.sol:Escrow",
						"label": "_owner",
						"offset": 0,
						"slot": "0",
						"type": "t_address"
					},
					{
						"astId": 26,
						"contract": "contracts/escrow.sol:Escrow",
						"label": "_roles",
						"offset": 0,
						"slot": "1",
						"type": "t_mapping(t_bytes32,t_struct(RoleData)21_storage)"
					},
					{
						"astId": 736,
						"contract": "contracts/escrow.sol:Escrow",
						"label": "jobId",
						"offset": 0,
						"slot": "2",
						"type": "t_uint256"
					},
					{
						"astId": 794,
						"contract": "contracts/escrow.sol:Escrow",
						"label": "jobs",
						"offset": 0,
						"slot": "3",
						"type": "t_mapping(t_uint256,t_struct(Job)757_storage)"
					},
					{
						"astId": 799,
						"contract": "contracts/escrow.sol:Escrow",
						"label": "freelancerJobs",
						"offset": 0,
						"slot": "4",
						"type": "t_mapping(t_address,t_array(t_uint256)dyn_storage)"
					},
					{
						"astId": 806,
						"contract": "contracts/escrow.sol:Escrow",
						"label": "disputes",
						"offset": 0,
						"slot": "5",
						"type": "t_mapping(t_uint256,t_mapping(t_uint256,t_struct(Disputes)778_storage))"
					}
				],
				"types": {
					"t_address": {
						"encoding": "inplace",
						"label": "address",
						"numberOfBytes": "20"
					},
					"t_array(t_struct(MileStone)765_storage)dyn_storage": {
						"base": "t_struct(MileStone)765_storage",
						"encoding": "dynamic_array",
						"label": "struct Escrow.MileStone[]",
						"numberOfBytes": "32"
					},
					"t_array(t_uint256)dyn_storage": {
						"base": "t_uint256",
						"encoding": "dynamic_array",
						"label": "uint256[]",
						"numberOfBytes": "32"
					},
					"t_bool": {
						"encoding": "inplace",
						"label": "bool",
						"numberOfBytes": "1"
					},
					"t_bytes32": {
						"encoding": "inplace",
						"label": "bytes32",
						"numberOfBytes": "32"
					},
					"t_enum(MileStoneStatus)789": {
						"encoding": "inplace",
						"label": "enum Escrow.MileStoneStatus",
						"numberOfBytes": "1"
					},
					"t_enum(Status)783": {
						"encoding": "inplace",
						"label": "enum Escrow.Status",
						"numberOfBytes": "1"
					},
					"t_mapping(t_address,t_array(t_uint256)dyn_storage)": {
						"encoding": "mapping",
						"key": "t_address",
						"label": "mapping(address => uint256[])",
						"numberOfBytes": "32",
						"value": "t_array(t_uint256)dyn_storage"
					},
					"t_mapping(t_address,t_bool)": {
						"encoding": "mapping",
						"key": "t_address",
						"label": "mapping(address => bool)",
						"numberOfBytes": "32",
						"value": "t_bool"
					},
					"t_mapping(t_bytes32,t_struct(RoleData)21_storage)": {
						"encoding": "mapping",
						"key": "t_bytes32",
						"label": "mapping(bytes32 => struct AccessControl.RoleData)",
						"numberOfBytes": "32",
						"value": "t_struct(RoleData)21_storage"
					},
					"t_mapping(t_uint256,t_mapping(t_uint256,t_struct(Disputes)778_storage))": {
						"encoding": "mapping",
						"key": "t_uint256",
						"label": "mapping(uint256 => mapping(uint256 => struct Escrow.Disputes))",
						"numberOfBytes": "32",
						"value": "t_mapping(t_uint256,t_struct(Disputes)778_storage)"
					},
					"t_mapping(t_uint256,t_struct(Disputes)778_storage)": {
						"encoding": "mapping",
						"key": "t_uint256",
						"label": "mapping(uint256 => struct Escrow.Disputes)",
						"numberOfBytes": "32",
						"value": "t_struct(Disputes)778_storage"
					},
					"t_mapping(t_uint256,t_struct(Job)757_storage)": {
						"encoding": "mapping",
						"key": "t_uint256",
						"label": "mapping(uint256 => struct Escrow.Job)",
						"numberOfBytes": "32",
						"value": "t_struct(Job)757_storage"
					},
					"t_string_storage": {
						"encoding": "bytes",
						"label": "string",
						"numberOfBytes": "32"
					},
					"t_struct(Disputes)778_storage": {
						"encoding": "inplace",
						"label": "struct Escrow.Disputes",
						"members": [
							{
								"astId": 767,
								"contract": "contracts/escrow.sol:Escrow",
								"label": "milestoneId",
								"offset": 0,
								"slot": "0",
								"type": "t_uint256"
							},
							{
								"astId": 769,
								"contract": "contracts/escrow.sol:Escrow",
								"label": "raisedBy",
								"offset": 0,
								"slot": "1",
								"type": "t_address"
							},
							{
								"astId": 771,
								"contract": "contracts/escrow.sol:Escrow",
								"label": "reason",
								"offset": 0,
								"slot": "2",
								"type": "t_string_storage"
							},
							{
								"astId": 773,
								"contract": "contracts/escrow.sol:Escrow",
								"label": "resolver",
								"offset": 0,
								"slot": "3",
								"type": "t_address"
							},
							{
								"astId": 775,
								"contract": "contracts/escrow.sol:Escrow",
								"label": "resolved",
								"offset": 20,
								"slot": "3",
								"type": "t_bool"
							},
							{
								"astId": 777,
								"contract": "contracts/escrow.sol:Escrow",
								"label": "outcome",
								"offset": 0,
								"slot": "4",
								"type": "t_string_storage"
							}
						],
						"numberOfBytes": "160"
					},
					"t_struct(Job)757_storage": {
						"encoding": "inplace",
						"label": "struct Escrow.Job",
						"members": [
							{
								"astId": 743,
								"contract": "contracts/escrow.sol:Escrow",
								"label": "id",
								"offset": 0,
								"slot": "0",
								"type": "t_uint256"
							},
							{
								"astId": 745,
								"contract": "contracts/escrow.sol:Escrow",
								"label": "clients",
								"offset": 0,
								"slot": "1",
								"type": "t_address"
							},
							{
								"astId": 747,
								"contract": "contracts/escrow.sol:Escrow",
								"label": "freelancer",
								"offset": 0,
								"slot": "2",
								"type": "t_address"
							},
							{
								"astId": 751,
								"contract": "contracts/escrow.sol:Escrow",
								"label": "milestones",
								"offset": 0,
								"slot": "3",
								"type": "t_array(t_struct(MileStone)765_storage)dyn_storage"
							},
							{
								"astId": 753,
								"contract": "contracts/escrow.sol:Escrow",
								"label": "totalAmount",
								"offset": 0,
								"slot": "4",
								"type": "t_uint256"
							},
							{
								"astId": 756,
								"contract": "contracts/escrow.sol:Escrow",
								"label": "status",
								"offset": 0,
								"slot": "5",
								"type": "t_enum(Status)783"
							}
						],
						"numberOfBytes": "192"
					},
					"t_struct(MileStone)765_storage": {
						"encoding": "inplace",
						"label": "struct Escrow.MileStone",
						"members": [
							{
								"astId": 759,
								"contract": "contracts/escrow.sol:Escrow",
								"label": "amount",
								"offset": 0,
								"slot": "0",
								"type": "t_uint256"
							},
							{
								"astId": 761,
								"contract": "contracts/escrow.sol:Escrow",
								"label": "paid",
								"offset": 0,
								"slot": "1",
								"type": "t_bool"
							},
							{
								"astId": 764,
								"contract": "contracts/escrow.sol:Escrow",
								"label": "mileStoneStatus",
								"offset": 1,
								"slot": "1",
								"type": "t_enum(MileStoneStatus)789"
							}
						],
						"numberOfBytes": "64"
					},
					"t_struct(RoleData)21_storage": {
						"encoding": "inplace",
						"label": "struct AccessControl.RoleData",
						"members": [
							{
								"astId": 18,
								"contract": "contracts/escrow.sol:Escrow",
								"label": "hasRole",
								"offset": 0,
								"slot": "0",
								"type": "t_mapping(t_address,t_bool)"
							},
							{
								"astId": 20,
								"contract": "contracts/escrow.sol:Escrow",
								"label": "adminRole",
								"offset": 0,
								"slot": "1",
								"type": "t_bytes32"
							}
						],
						"numberOfBytes": "64"
					},
					"t_uint256": {
						"encoding": "inplace",
						"label": "uint256",
						"numberOfBytes": "32"
					}
				}
			},
			"userdoc": {
				"kind": "user",
				"methods": {},
				"version": 1
			}
		}
	}
}