{
	"contracts/vesting.sol": {
		"VestingToken": {
			"abi": [
				{
					"inputs": [
						{
							"internalType": "address",
							"name": "_nxtAddress",
							"type": "address"
						},
						{
							"internalType": "uint256",
							"name": "_duration",
							"type": "uint256"
						},
						{
							"internalType": "uint256",
							"name": "_cliff",
							"type": "uint256"
						},
						{
							"internalType": "uint8",
							"name": "_unit",
							"type": "uint8"
						}
					],
					"stateMutability": "nonpayable",
					"type": "constructor"
				},
				{
					"inputs": [],
					"name": "NotEnoughContractToken",
					"type": "error"
				},
				{
					"inputs": [
						{
							"internalType": "address",
							"name": "recipient",
							"type": "address"
						},
						{
							"internalType": "uint256",
							"name": "amount",
							"type": "uint256"
						}
					],
					"name": "addBeneficiary",
					"outputs": [],
					"stateMutability": "nonpayable",
					"type": "function"
				},
				{
					"inputs": [
						{
							"internalType": "address",
							"name": "",
							"type": "address"
						}
					],
					"name": "allocation",
					"outputs": [
						{
							"internalType": "uint256",
							"name": "",
							"type": "uint256"
						}
					],
					"stateMutability": "view",
					"type": "function"
				},
				{
					"inputs": [],
					"name": "claim",
					"outputs": [],
					"stateMutability": "nonpayable",
					"type": "function"
				},
				{
					"inputs": [
						{
							"internalType": "address",
							"name": "",
							"type": "address"
						}
					],
					"name": "claimed",
					"outputs": [
						{
							"internalType": "uint256",
							"name": "",
							"type": "uint256"
						}
					],
					"stateMutability": "view",
					"type": "function"
				},
				{
					"inputs": [],
					"name": "cliff",
					"outputs": [
						{
							"internalType": "uint256",
							"name": "",
							"type": "uint256"
						}
					],
					"stateMutability": "view",
					"type": "function"
				},
				{
					"inputs": [
						{
							"internalType": "address",
							"name": "user",
							"type": "address"
						}
					],
					"name": "diagnose",
					"outputs": [
						{
							"internalType": "uint256",
							"name": "currentTime",
							"type": "uint256"
						},
						{
							"internalType": "uint256",
							"name": "cliffEndsAt",
							"type": "uint256"
						},
						{
							"internalType": "uint256",
							"name": "cliffRemaining",
							"type": "uint256"
						},
						{
							"internalType": "uint256",
							"name": "userAllocation",
							"type": "uint256"
						},
						{
							"internalType": "uint256",
							"name": "vestedNow",
							"type": "uint256"
						},
						{
							"internalType": "uint256",
							"name": "alreadyClaimed",
							"type": "uint256"
						},
						{
							"internalType": "uint256",
							"name": "claimableNow",
							"type": "uint256"
						},
						{
							"internalType": "uint256",
							"name": "balance",
							"type": "uint256"
						}
					],
					"stateMutability": "view",
					"type": "function"
				},
				{
					"inputs": [],
					"name": "duration",
					"outputs": [
						{
							"internalType": "uint256",
							"name": "",
							"type": "uint256"
						}
					],
					"stateMutability": "view",
					"type": "function"
				},
				{
					"inputs": [],
					"name": "owner",
					"outputs": [
						{
							"internalType": "address",
							"name": "",
							"type": "address"
						}
					],
					"stateMutability": "view",
					"type": "function"
				},
				{
					"inputs": [],
					"name": "startTime",
					"outputs": [
						{
							"internalType": "uint256",
							"name": "",
							"type": "uint256"
						}
					],
					"stateMutability": "view",
					"type": "function"
				},
				{
					"inputs": [],
					"name": "token",
					"outputs": [
						{
							"internalType": "contract IERC20",
							"name": "",
							"type": "address"
						}
					],
					"stateMutability": "view",
					"type": "function"
				},
				{
					"inputs": [],
					"name": "totalAllocation",
					"outputs": [
						{
							"internalType": "uint256",
							"name": "",
							"type": "uint256"
						}
					],
					"stateMutability": "view",
					"type": "function"
				}
			],
			"devdoc": {
				"kind": "dev",
				"methods": {},
				"version": 1
			},
			"evm": {
				"assembly": "    /* \"contracts/vesting.sol\":147:4005  contract VestingToken{... */\n  mstore(0x40, 0x0120)\n    /* \"contracts/vesting.sol\":745:1487  constructor(address _nxtAddress, uint256 _duration, uint256 _cliff, uint8 _unit){... */\n  callvalue\n  dup1\n  iszero\n  tag_1\n  jumpi\n  revert(0x00, 0x00)\ntag_1:\n  pop\n  mload(0x40)\n  sub(codesize, bytecodeSize)\n  dup1\n  bytecodeSize\n  dup4\n  codecopy\n  dup2\n  dup2\n  add\n  0x40\n  mstore\n  dup2\n  add\n  swap1\n  tag_2\n  swap2\n  swap1\n  tag_3\n  jump\t// in\ntag_2:\n    /* \"contracts/vesting.sol\":853:854  1 */\n  0x01\n    /* \"contracts/vesting.sol\":844:849  _unit */\n  dup2\n    /* \"contracts/vesting.sol\":844:854  _unit >= 1 */\n  0xff\n  and\n  lt\n  iszero\n    /* \"contracts/vesting.sol\":844:868  _unit >= 1 && _unit <= 4 */\n  dup1\n  iszero\n  tag_6\n  jumpi\n  pop\n    /* \"contracts/vesting.sol\":867:868  4 */\n  0x04\n    /* \"contracts/vesting.sol\":858:863  _unit */\n  dup2\n    /* \"contracts/vesting.sol\":858:868  _unit <= 4 */\n  0xff\n  and\n  gt\n  iszero\n    /* \"contracts/vesting.sol\":844:868  _unit >= 1 && _unit <= 4 */\ntag_6:\n    /* \"contracts/vesting.sol\":836:890  require(_unit >= 1 && _unit <= 4, \"Invalid time unit\") */\n  tag_7\n  jumpi\n  mload(0x40)\n  0x08c379a000000000000000000000000000000000000000000000000000000000\n  dup2\n  mstore\n  0x04\n  add\n  tag_8\n  swap1\n  tag_9\n  jump\t// in\ntag_8:\n  mload(0x40)\n  dup1\n  swap2\n  sub\n  swap1\n  revert\ntag_7:\n    /* \"contracts/vesting.sol\":921:922  0 */\n  0x00\n    /* \"contracts/vesting.sol\":909:918  _duration */\n  dup4\n    /* \"contracts/vesting.sol\":909:922  _duration > 0 */\n  gt\n    /* \"contracts/vesting.sol\":901:958  require(_duration > 0, \"Duration must be greater than 0\") */\n  tag_10\n  jumpi\n  mload(0x40)\n  0x08c379a000000000000000000000000000000000000000000000000000000000\n  dup2\n  mstore\n  0x04\n  add\n  tag_11\n  swap1\n  tag_12\n  jump\t// in\ntag_11:\n  mload(0x40)\n  dup1\n  swap2\n  sub\n  swap1\n  revert\ntag_10:\n    /* \"contracts/vesting.sol\":987:996  _duration */\n  dup3\n    /* \"contracts/vesting.sol\":977:983  _cliff */\n  dup3\n    /* \"contracts/vesting.sol\":977:996  _cliff <= _duration */\n  gt\n  iszero\n    /* \"contracts/vesting.sol\":969:1029  require(_cliff <= _duration, \"Cliff cannot exceed duration\") */\n  tag_13\n  jumpi\n  mload(0x40)\n  0x08c379a000000000000000000000000000000000000000000000000000000000\n  dup2\n  mstore\n  0x04\n  add\n  tag_14\n  swap1\n  tag_15\n  jump\t// in\ntag_14:\n  mload(0x40)\n  dup1\n  swap2\n  sub\n  swap1\n  revert\ntag_13:\n    /* \"contracts/vesting.sol\":1059:1070  _nxtAddress */\n  dup4\n    /* \"contracts/vesting.sol\":1044:1071  token = IERC20(_nxtAddress) */\n  0xffffffffffffffffffffffffffffffffffffffff\n  and\n  0x80\n  dup2\n  0xffffffffffffffffffffffffffffffffffffffff\n  and\n  dup2\n  mstore\n  pop\n  pop\n    /* \"contracts/vesting.sol\":1090:1100  msg.sender */\n  caller\n    /* \"contracts/vesting.sol\":1082:1100  owner = msg.sender */\n  0xffffffffffffffffffffffffffffffffffffffff\n  and\n  0xa0\n  dup2\n  0xffffffffffffffffffffffffffffffffffffffff\n  and\n  dup2\n  mstore\n  pop\n  pop\n    /* \"contracts/vesting.sol\":1123:1138  block.timestamp */\n  timestamp\n    /* \"contracts/vesting.sol\":1111:1138  startTime = block.timestamp */\n  0xc0\n  dup2\n  dup2\n  mstore\n  pop\n  pop\n    /* \"contracts/vesting.sol\":1151:1169  uint256  mutiplier */\n  0x00\n    /* \"contracts/vesting.sol\":1195:1196  1 */\n  0x01\n    /* \"contracts/vesting.sol\":1186:1191  _unit */\n  dup3\n    /* \"contracts/vesting.sol\":1186:1196  _unit == 1 */\n  0xff\n  and\n  eq\n    /* \"contracts/vesting.sol\":1186:1334  _unit == 1 ? 1 :         //seconds... */\n  tag_16\n  jumpi\n    /* \"contracts/vesting.sol\":1243:1244  2 */\n  0x02\n    /* \"contracts/vesting.sol\":1234:1239  _unit */\n  dup3\n    /* \"contracts/vesting.sol\":1234:1244  _unit == 2 */\n  0xff\n  and\n  eq\n    /* \"contracts/vesting.sol\":1234:1334  _unit == 2 ? 60 :        //minutes... */\n  tag_17\n  jumpi\n    /* \"contracts/vesting.sol\":1291:1292  3 */\n  0x03\n    /* \"contracts/vesting.sol\":1282:1287  _unit */\n  dup3\n    /* \"contracts/vesting.sol\":1282:1292  _unit == 3 */\n  0xff\n  and\n  eq\n    /* \"contracts/vesting.sol\":1282:1334  _unit == 3 ? 3600 :      // hours... */\n  tag_18\n  jumpi\n    /* \"contracts/vesting.sol\":1329:1334  86400 */\n  0x015180\n    /* \"contracts/vesting.sol\":1282:1334  _unit == 3 ? 3600 :      // hours... */\n  jump(tag_19)\ntag_18:\n    /* \"contracts/vesting.sol\":1295:1299  3600 */\n  0x0e10\n    /* \"contracts/vesting.sol\":1282:1334  _unit == 3 ? 3600 :      // hours... */\ntag_19:\n    /* \"contracts/vesting.sol\":1234:1334  _unit == 2 ? 60 :        //minutes... */\n  jump(tag_20)\ntag_17:\n    /* \"contracts/vesting.sol\":1247:1249  60 */\n  0x3c\n    /* \"contracts/vesting.sol\":1234:1334  _unit == 2 ? 60 :        //minutes... */\ntag_20:\n    /* \"contracts/vesting.sol\":1186:1334  _unit == 1 ? 1 :         //seconds... */\n  jump(tag_21)\ntag_16:\n    /* \"contracts/vesting.sol\":1199:1200  1 */\n  0x01\n    /* \"contracts/vesting.sol\":1186:1334  _unit == 1 ? 1 :         //seconds... */\ntag_21:\n    /* \"contracts/vesting.sol\":1151:1334  uint256  mutiplier = ... */\n  0xffffff\n  and\n  swap1\n  pop\n    /* \"contracts/vesting.sol\":1423:1432  mutiplier */\n  dup1\n    /* \"contracts/vesting.sol\":1411:1420  _duration */\n  dup5\n    /* \"contracts/vesting.sol\":1411:1432  _duration * mutiplier */\n  tag_22\n  swap2\n  swap1\n  tag_23\n  jump\t// in\ntag_22:\n    /* \"contracts/vesting.sol\":1400:1432  duration = _duration * mutiplier */\n  0xe0\n  dup2\n  dup2\n  mstore\n  pop\n  pop\n    /* \"contracts/vesting.sol\":1460:1469  mutiplier */\n  dup1\n    /* \"contracts/vesting.sol\":1451:1457  _cliff */\n  dup4\n    /* \"contracts/vesting.sol\":1451:1469  _cliff * mutiplier */\n  tag_24\n  swap2\n  swap1\n  tag_23\n  jump\t// in\ntag_24:\n    /* \"contracts/vesting.sol\":1443:1469  cliff = _cliff * mutiplier */\n  0x0100\n  dup2\n  dup2\n  mstore\n  pop\n  pop\n    /* \"contracts/vesting.sol\":825:1487  {... */\n  pop\n    /* \"contracts/vesting.sol\":745:1487  constructor(address _nxtAddress, uint256 _duration, uint256 _cliff, uint8 _unit){... */\n  pop\n  pop\n  pop\n  pop\n    /* \"contracts/vesting.sol\":147:4005  contract VestingToken{... */\n  jump(tag_25)\n    /* \"#utility.yul\":88:205   */\ntag_27:\n    /* \"#utility.yul\":197:198   */\n  0x00\n    /* \"#utility.yul\":194:195   */\n  0x00\n    /* \"#utility.yul\":187:199   */\n  revert\n    /* \"#utility.yul\":334:460   */\ntag_29:\n    /* \"#utility.yul\":371:378   */\n  0x00\n    /* \"#utility.yul\":411:453   */\n  0xffffffffffffffffffffffffffffffffffffffff\n    /* \"#utility.yul\":404:409   */\n  dup3\n    /* \"#utility.yul\":400:454   */\n  and\n    /* \"#utility.yul\":389:454   */\n  swap1\n  pop\n    /* \"#utility.yul\":334:460   */\n  swap2\n  swap1\n  pop\n  jump\t// out\n    /* \"#utility.yul\":466:562   */\ntag_30:\n    /* \"#utility.yul\":503:510   */\n  0x00\n    /* \"#utility.yul\":532:556   */\n  tag_53\n    /* \"#utility.yul\":550:555   */\n  dup3\n    /* \"#utility.yul\":532:556   */\n  tag_29\n  jump\t// in\ntag_53:\n    /* \"#utility.yul\":521:556   */\n  swap1\n  pop\n    /* \"#utility.yul\":466:562   */\n  swap2\n  swap1\n  pop\n  jump\t// out\n    /* \"#utility.yul\":568:690   */\ntag_31:\n    /* \"#utility.yul\":641:665   */\n  tag_55\n    /* \"#utility.yul\":659:664   */\n  dup2\n    /* \"#utility.yul\":641:665   */\n  tag_30\n  jump\t// in\ntag_55:\n    /* \"#utility.yul\":634:639   */\n  dup2\n    /* \"#utility.yul\":631:666   */\n  eq\n    /* \"#utility.yul\":621:684   */\n  tag_56\n  jumpi\n    /* \"#utility.yul\":680:681   */\n  0x00\n    /* \"#utility.yul\":677:678   */\n  0x00\n    /* \"#utility.yul\":670:682   */\n  revert\n    /* \"#utility.yul\":621:684   */\ntag_56:\n    /* \"#utility.yul\":568:690   */\n  pop\n  jump\t// out\n    /* \"#utility.yul\":696:839   */\ntag_32:\n    /* \"#utility.yul\":753:758   */\n  0x00\n    /* \"#utility.yul\":784:790   */\n  dup2\n    /* \"#utility.yul\":778:791   */\n  mload\n    /* \"#utility.yul\":769:791   */\n  swap1\n  pop\n    /* \"#utility.yul\":800:833   */\n  tag_58\n    /* \"#utility.yul\":827:832   */\n  dup2\n    /* \"#utility.yul\":800:833   */\n  tag_31\n  jump\t// in\ntag_58:\n    /* \"#utility.yul\":696:839   */\n  swap3\n  swap2\n  pop\n  pop\n  jump\t// out\n    /* \"#utility.yul\":845:922   */\ntag_33:\n    /* \"#utility.yul\":882:889   */\n  0x00\n    /* \"#utility.yul\":911:916   */\n  dup2\n    /* \"#utility.yul\":900:916   */\n  swap1\n  pop\n    /* \"#utility.yul\":845:922   */\n  swap2\n  swap1\n  pop\n  jump\t// out\n    /* \"#utility.yul\":928:1050   */\ntag_34:\n    /* \"#utility.yul\":1001:1025   */\n  tag_61\n    /* \"#utility.yul\":1019:1024   */\n  dup2\n    /* \"#utility.yul\":1001:1025   */\n  tag_33\n  jump\t// in\ntag_61:\n    /* \"#utility.yul\":994:999   */\n  dup2\n    /* \"#utility.yul\":991:1026   */\n  eq\n    /* \"#utility.yul\":981:1044   */\n  tag_62\n  jumpi\n    /* \"#utility.yul\":1040:1041   */\n  0x00\n    /* \"#utility.yul\":1037:1038   */\n  0x00\n    /* \"#utility.yul\":1030:1042   */\n  revert\n    /* \"#utility.yul\":981:1044   */\ntag_62:\n    /* \"#utility.yul\":928:1050   */\n  pop\n  jump\t// out\n    /* \"#utility.yul\":1056:1199   */\ntag_35:\n    /* \"#utility.yul\":1113:1118   */\n  0x00\n    /* \"#utility.yul\":1144:1150   */\n  dup2\n    /* \"#utility.yul\":1138:1151   */\n  mload\n    /* \"#utility.yul\":1129:1151   */\n  swap1\n  pop\n    /* \"#utility.yul\":1160:1193   */\n  tag_64\n    /* \"#utility.yul\":1187:1192   */\n  dup2\n    /* \"#utility.yul\":1160:1193   */\n  tag_34\n  jump\t// in\ntag_64:\n    /* \"#utility.yul\":1056:1199   */\n  swap3\n  swap2\n  pop\n  pop\n  jump\t// out\n    /* \"#utility.yul\":1205:1291   */\ntag_36:\n    /* \"#utility.yul\":1240:1247   */\n  0x00\n    /* \"#utility.yul\":1280:1284   */\n  0xff\n    /* \"#utility.yul\":1273:1278   */\n  dup3\n    /* \"#utility.yul\":1269:1285   */\n  and\n    /* \"#utility.yul\":1258:1285   */\n  swap1\n  pop\n    /* \"#utility.yul\":1205:1291   */\n  swap2\n  swap1\n  pop\n  jump\t// out\n    /* \"#utility.yul\":1297:1415   */\ntag_37:\n    /* \"#utility.yul\":1368:1390   */\n  tag_67\n    /* \"#utility.yul\":1384:1389   */\n  dup2\n    /* \"#utility.yul\":1368:1390   */\n  tag_36\n  jump\t// in\ntag_67:\n    /* \"#utility.yul\":1361:1366   */\n  dup2\n    /* \"#utility.yul\":1358:1391   */\n  eq\n    /* \"#utility.yul\":1348:1409   */\n  tag_68\n  jumpi\n    /* \"#utility.yul\":1405:1406   */\n  0x00\n    /* \"#utility.yul\":1402:1403   */\n  0x00\n    /* \"#utility.yul\":1395:1407   */\n  revert\n    /* \"#utility.yul\":1348:1409   */\ntag_68:\n    /* \"#utility.yul\":1297:1415   */\n  pop\n  jump\t// out\n    /* \"#utility.yul\":1421:1560   */\ntag_38:\n    /* \"#utility.yul\":1476:1481   */\n  0x00\n    /* \"#utility.yul\":1507:1513   */\n  dup2\n    /* \"#utility.yul\":1501:1514   */\n  mload\n    /* \"#utility.yul\":1492:1514   */\n  swap1\n  pop\n    /* \"#utility.yul\":1523:1554   */\n  tag_70\n    /* \"#utility.yul\":1548:1553   */\n  dup2\n    /* \"#utility.yul\":1523:1554   */\n  tag_37\n  jump\t// in\ntag_70:\n    /* \"#utility.yul\":1421:1560   */\n  swap3\n  swap2\n  pop\n  pop\n  jump\t// out\n    /* \"#utility.yul\":1566:2382   */\ntag_3:\n    /* \"#utility.yul\":1661:1667   */\n  0x00\n    /* \"#utility.yul\":1669:1675   */\n  0x00\n    /* \"#utility.yul\":1677:1683   */\n  0x00\n    /* \"#utility.yul\":1685:1691   */\n  0x00\n    /* \"#utility.yul\":1734:1737   */\n  0x80\n    /* \"#utility.yul\":1722:1731   */\n  dup6\n    /* \"#utility.yul\":1713:1720   */\n  dup8\n    /* \"#utility.yul\":1709:1732   */\n  sub\n    /* \"#utility.yul\":1705:1738   */\n  slt\n    /* \"#utility.yul\":1702:1822   */\n  iszero\n  tag_72\n  jumpi\n    /* \"#utility.yul\":1741:1820   */\n  tag_73\n  tag_27\n  jump\t// in\ntag_73:\n    /* \"#utility.yul\":1702:1822   */\ntag_72:\n    /* \"#utility.yul\":1861:1862   */\n  0x00\n    /* \"#utility.yul\":1886:1950   */\n  tag_74\n    /* \"#utility.yul\":1942:1949   */\n  dup8\n    /* \"#utility.yul\":1933:1939   */\n  dup3\n    /* \"#utility.yul\":1922:1931   */\n  dup9\n    /* \"#utility.yul\":1918:1940   */\n  add\n    /* \"#utility.yul\":1886:1950   */\n  tag_32\n  jump\t// in\ntag_74:\n    /* \"#utility.yul\":1876:1950   */\n  swap5\n  pop\n    /* \"#utility.yul\":1832:1960   */\n  pop\n    /* \"#utility.yul\":1999:2001   */\n  0x20\n    /* \"#utility.yul\":2025:2089   */\n  tag_75\n    /* \"#utility.yul\":2081:2088   */\n  dup8\n    /* \"#utility.yul\":2072:2078   */\n  dup3\n    /* \"#utility.yul\":2061:2070   */\n  dup9\n    /* \"#utility.yul\":2057:2079   */\n  add\n    /* \"#utility.yul\":2025:2089   */\n  tag_35\n  jump\t// in\ntag_75:\n    /* \"#utility.yul\":2015:2089   */\n  swap4\n  pop\n    /* \"#utility.yul\":1970:2099   */\n  pop\n    /* \"#utility.yul\":2138:2140   */\n  0x40\n    /* \"#utility.yul\":2164:2228   */\n  tag_76\n    /* \"#utility.yul\":2220:2227   */\n  dup8\n    /* \"#utility.yul\":2211:2217   */\n  dup3\n    /* \"#utility.yul\":2200:2209   */\n  dup9\n    /* \"#utility.yul\":2196:2218   */\n  add\n    /* \"#utility.yul\":2164:2228   */\n  tag_35\n  jump\t// in\ntag_76:\n    /* \"#utility.yul\":2154:2228   */\n  swap3\n  pop\n    /* \"#utility.yul\":2109:2238   */\n  pop\n    /* \"#utility.yul\":2277:2279   */\n  0x60\n    /* \"#utility.yul\":2303:2365   */\n  tag_77\n    /* \"#utility.yul\":2357:2364   */\n  dup8\n    /* \"#utility.yul\":2348:2354   */\n  dup3\n    /* \"#utility.yul\":2337:2346   */\n  dup9\n    /* \"#utility.yul\":2333:2355   */\n  add\n    /* \"#utility.yul\":2303:2365   */\n  tag_38\n  jump\t// in\ntag_77:\n    /* \"#utility.yul\":2293:2365   */\n  swap2\n  pop\n    /* \"#utility.yul\":2248:2375   */\n  pop\n    /* \"#utility.yul\":1566:2382   */\n  swap3\n  swap6\n  swap2\n  swap5\n  pop\n  swap3\n  pop\n  jump\t// out\n    /* \"#utility.yul\":2388:2557   */\ntag_39:\n    /* \"#utility.yul\":2472:2483   */\n  0x00\n    /* \"#utility.yul\":2506:2512   */\n  dup3\n    /* \"#utility.yul\":2501:2504   */\n  dup3\n    /* \"#utility.yul\":2494:2513   */\n  mstore\n    /* \"#utility.yul\":2546:2550   */\n  0x20\n    /* \"#utility.yul\":2541:2544   */\n  dup3\n    /* \"#utility.yul\":2537:2551   */\n  add\n    /* \"#utility.yul\":2522:2551   */\n  swap1\n  pop\n    /* \"#utility.yul\":2388:2557   */\n  swap3\n  swap2\n  pop\n  pop\n  jump\t// out\n    /* \"#utility.yul\":2563:2730   */\ntag_40:\n    /* \"#utility.yul\":2703:2722   */\n  0x496e76616c69642074696d6520756e6974000000000000000000000000000000\n    /* \"#utility.yul\":2699:2700   */\n  0x00\n    /* \"#utility.yul\":2691:2697   */\n  dup3\n    /* \"#utility.yul\":2687:2701   */\n  add\n    /* \"#utility.yul\":2680:2723   */\n  mstore\n    /* \"#utility.yul\":2563:2730   */\n  pop\n  jump\t// out\n    /* \"#utility.yul\":2736:3102   */\ntag_41:\n    /* \"#utility.yul\":2878:2881   */\n  0x00\n    /* \"#utility.yul\":2899:2966   */\n  tag_81\n    /* \"#utility.yul\":2963:2965   */\n  0x11\n    /* \"#utility.yul\":2958:2961   */\n  dup4\n    /* \"#utility.yul\":2899:2966   */\n  tag_39\n  jump\t// in\ntag_81:\n    /* \"#utility.yul\":2892:2966   */\n  swap2\n  pop\n    /* \"#utility.yul\":2975:3068   */\n  tag_82\n    /* \"#utility.yul\":3064:3067   */\n  dup3\n    /* \"#utility.yul\":2975:3068   */\n  tag_40\n  jump\t// in\ntag_82:\n    /* \"#utility.yul\":3093:3095   */\n  0x20\n    /* \"#utility.yul\":3088:3091   */\n  dup3\n    /* \"#utility.yul\":3084:3096   */\n  add\n    /* \"#utility.yul\":3077:3096   */\n  swap1\n  pop\n    /* \"#utility.yul\":2736:3102   */\n  swap2\n  swap1\n  pop\n  jump\t// out\n    /* \"#utility.yul\":3108:3527   */\ntag_9:\n    /* \"#utility.yul\":3274:3278   */\n  0x00\n    /* \"#utility.yul\":3312:3314   */\n  0x20\n    /* \"#utility.yul\":3301:3310   */\n  dup3\n    /* \"#utility.yul\":3297:3315   */\n  add\n    /* \"#utility.yul\":3289:3315   */\n  swap1\n  pop\n    /* \"#utility.yul\":3361:3370   */\n  dup2\n    /* \"#utility.yul\":3355:3359   */\n  dup2\n    /* \"#utility.yul\":3351:3371   */\n  sub\n    /* \"#utility.yul\":3347:3348   */\n  0x00\n    /* \"#utility.yul\":3336:3345   */\n  dup4\n    /* \"#utility.yul\":3332:3349   */\n  add\n    /* \"#utility.yul\":3325:3372   */\n  mstore\n    /* \"#utility.yul\":3389:3520   */\n  tag_84\n    /* \"#utility.yul\":3515:3519   */\n  dup2\n    /* \"#utility.yul\":3389:3520   */\n  tag_41\n  jump\t// in\ntag_84:\n    /* \"#utility.yul\":3381:3520   */\n  swap1\n  pop\n    /* \"#utility.yul\":3108:3527   */\n  swap2\n  swap1\n  pop\n  jump\t// out\n    /* \"#utility.yul\":3533:3714   */\ntag_42:\n    /* \"#utility.yul\":3673:3706   */\n  0x4475726174696f6e206d7573742062652067726561746572207468616e203000\n    /* \"#utility.yul\":3669:3670   */\n  0x00\n    /* \"#utility.yul\":3661:3667   */\n  dup3\n    /* \"#utility.yul\":3657:3671   */\n  add\n    /* \"#utility.yul\":3650:3707   */\n  mstore\n    /* \"#utility.yul\":3533:3714   */\n  pop\n  jump\t// out\n    /* \"#utility.yul\":3720:4086   */\ntag_43:\n    /* \"#utility.yul\":3862:3865   */\n  0x00\n    /* \"#utility.yul\":3883:3950   */\n  tag_87\n    /* \"#utility.yul\":3947:3949   */\n  0x1f\n    /* \"#utility.yul\":3942:3945   */\n  dup4\n    /* \"#utility.yul\":3883:3950   */\n  tag_39\n  jump\t// in\ntag_87:\n    /* \"#utility.yul\":3876:3950   */\n  swap2\n  pop\n    /* \"#utility.yul\":3959:4052   */\n  tag_88\n    /* \"#utility.yul\":4048:4051   */\n  dup3\n    /* \"#utility.yul\":3959:4052   */\n  tag_42\n  jump\t// in\ntag_88:\n    /* \"#utility.yul\":4077:4079   */\n  0x20\n    /* \"#utility.yul\":4072:4075   */\n  dup3\n    /* \"#utility.yul\":4068:4080   */\n  add\n    /* \"#utility.yul\":4061:4080   */\n  swap1\n  pop\n    /* \"#utility.yul\":3720:4086   */\n  swap2\n  swap1\n  pop\n  jump\t// out\n    /* \"#utility.yul\":4092:4511   */\ntag_12:\n    /* \"#utility.yul\":4258:4262   */\n  0x00\n    /* \"#utility.yul\":4296:4298   */\n  0x20\n    /* \"#utility.yul\":4285:4294   */\n  dup3\n    /* \"#utility.yul\":4281:4299   */\n  add\n    /* \"#utility.yul\":4273:4299   */\n  swap1\n  pop\n    /* \"#utility.yul\":4345:4354   */\n  dup2\n    /* \"#utility.yul\":4339:4343   */\n  dup2\n    /* \"#utility.yul\":4335:4355   */\n  sub\n    /* \"#utility.yul\":4331:4332   */\n  0x00\n    /* \"#utility.yul\":4320:4329   */\n  dup4\n    /* \"#utility.yul\":4316:4333   */\n  add\n    /* \"#utility.yul\":4309:4356   */\n  mstore\n    /* \"#utility.yul\":4373:4504   */\n  tag_90\n    /* \"#utility.yul\":4499:4503   */\n  dup2\n    /* \"#utility.yul\":4373:4504   */\n  tag_43\n  jump\t// in\ntag_90:\n    /* \"#utility.yul\":4365:4504   */\n  swap1\n  pop\n    /* \"#utility.yul\":4092:4511   */\n  swap2\n  swap1\n  pop\n  jump\t// out\n    /* \"#utility.yul\":4517:4695   */\ntag_44:\n    /* \"#utility.yul\":4657:4687   */\n  0x436c6966662063616e6e6f7420657863656564206475726174696f6e00000000\n    /* \"#utility.yul\":4653:4654   */\n  0x00\n    /* \"#utility.yul\":4645:4651   */\n  dup3\n    /* \"#utility.yul\":4641:4655   */\n  add\n    /* \"#utility.yul\":4634:4688   */\n  mstore\n    /* \"#utility.yul\":4517:4695   */\n  pop\n  jump\t// out\n    /* \"#utility.yul\":4701:5067   */\ntag_45:\n    /* \"#utility.yul\":4843:4846   */\n  0x00\n    /* \"#utility.yul\":4864:4931   */\n  tag_93\n    /* \"#utility.yul\":4928:4930   */\n  0x1c\n    /* \"#utility.yul\":4923:4926   */\n  dup4\n    /* \"#utility.yul\":4864:4931   */\n  tag_39\n  jump\t// in\ntag_93:\n    /* \"#utility.yul\":4857:4931   */\n  swap2\n  pop\n    /* \"#utility.yul\":4940:5033   */\n  tag_94\n    /* \"#utility.yul\":5029:5032   */\n  dup3\n    /* \"#utility.yul\":4940:5033   */\n  tag_44\n  jump\t// in\ntag_94:\n    /* \"#utility.yul\":5058:5060   */\n  0x20\n    /* \"#utility.yul\":5053:5056   */\n  dup3\n    /* \"#utility.yul\":5049:5061   */\n  add\n    /* \"#utility.yul\":5042:5061   */\n  swap1\n  pop\n    /* \"#utility.yul\":4701:5067   */\n  swap2\n  swap1\n  pop\n  jump\t// out\n    /* \"#utility.yul\":5073:5492   */\ntag_15:\n    /* \"#utility.yul\":5239:5243   */\n  0x00\n    /* \"#utility.yul\":5277:5279   */\n  0x20\n    /* \"#utility.yul\":5266:5275   */\n  dup3\n    /* \"#utility.yul\":5262:5280   */\n  add\n    /* \"#utility.yul\":5254:5280   */\n  swap1\n  pop\n    /* \"#utility.yul\":5326:5335   */\n  dup2\n    /* \"#utility.yul\":5320:5324   */\n  dup2\n    /* \"#utility.yul\":5316:5336   */\n  sub\n    /* \"#utility.yul\":5312:5313   */\n  0x00\n    /* \"#utility.yul\":5301:5310   */\n  dup4\n    /* \"#utility.yul\":5297:5314   */\n  add\n    /* \"#utility.yul\":5290:5337   */\n  mstore\n    /* \"#utility.yul\":5354:5485   */\n  tag_96\n    /* \"#utility.yul\":5480:5484   */\n  dup2\n    /* \"#utility.yul\":5354:5485   */\n  tag_45\n  jump\t// in\ntag_96:\n    /* \"#utility.yul\":5346:5485   */\n  swap1\n  pop\n    /* \"#utility.yul\":5073:5492   */\n  swap2\n  swap1\n  pop\n  jump\t// out\n    /* \"#utility.yul\":5498:5678   */\ntag_46:\n    /* \"#utility.yul\":5546:5623   */\n  0x4e487b7100000000000000000000000000000000000000000000000000000000\n    /* \"#utility.yul\":5543:5544   */\n  0x00\n    /* \"#utility.yul\":5536:5624   */\n  mstore\n    /* \"#utility.yul\":5643:5647   */\n  0x11\n    /* \"#utility.yul\":5640:5641   */\n  0x04\n    /* \"#utility.yul\":5633:5648   */\n  mstore\n    /* \"#utility.yul\":5667:5671   */\n  0x24\n    /* \"#utility.yul\":5664:5665   */\n  0x00\n    /* \"#utility.yul\":5657:5672   */\n  revert\n    /* \"#utility.yul\":5684:6094   */\ntag_23:\n    /* \"#utility.yul\":5724:5731   */\n  0x00\n    /* \"#utility.yul\":5747:5767   */\n  tag_99\n    /* \"#utility.yul\":5765:5766   */\n  dup3\n    /* \"#utility.yul\":5747:5767   */\n  tag_33\n  jump\t// in\ntag_99:\n    /* \"#utility.yul\":5742:5767   */\n  swap2\n  pop\n    /* \"#utility.yul\":5781:5801   */\n  tag_100\n    /* \"#utility.yul\":5799:5800   */\n  dup4\n    /* \"#utility.yul\":5781:5801   */\n  tag_33\n  jump\t// in\ntag_100:\n    /* \"#utility.yul\":5776:5801   */\n  swap3\n  pop\n    /* \"#utility.yul\":5836:5837   */\n  dup3\n    /* \"#utility.yul\":5833:5834   */\n  dup3\n    /* \"#utility.yul\":5829:5838   */\n  mul\n    /* \"#utility.yul\":5858:5888   */\n  tag_101\n    /* \"#utility.yul\":5876:5887   */\n  dup2\n    /* \"#utility.yul\":5858:5888   */\n  tag_33\n  jump\t// in\ntag_101:\n    /* \"#utility.yul\":5847:5888   */\n  swap2\n  pop\n    /* \"#utility.yul\":6037:6038   */\n  dup3\n    /* \"#utility.yul\":6028:6035   */\n  dup3\n    /* \"#utility.yul\":6024:6039   */\n  div\n    /* \"#utility.yul\":6021:6022   */\n  dup5\n    /* \"#utility.yul\":6018:6040   */\n  eq\n    /* \"#utility.yul\":5998:5999   */\n  dup4\n    /* \"#utility.yul\":5991:6000   */\n  iszero\n    /* \"#utility.yul\":5971:6054   */\n  or\n    /* \"#utility.yul\":5948:6087   */\n  tag_102\n  jumpi\n    /* \"#utility.yul\":6067:6085   */\n  tag_103\n  tag_46\n  jump\t// in\ntag_103:\n    /* \"#utility.yul\":5948:6087   */\ntag_102:\n    /* \"#utility.yul\":5732:6094   */\n  pop\n    /* \"#utility.yul\":5684:6094   */\n  swap3\n  swap2\n  pop\n  pop\n  jump\t// out\n    /* \"contracts/vesting.sol\":147:4005  contract VestingToken{... */\ntag_25:\n  mload(0x80)\n  mload(0xa0)\n  mload(0xc0)\n  mload(0xe0)\n  mload(0x0100)\n  codecopy(0x00, dataOffset(sub_0), dataSize(sub_0))\n  0x00\n  assignImmutable(\"0x2a9063ed52b7d417e441f378325359c9ce274f5d6c3ecf11b7d42f24b9c90b7f\")\n  0x00\n  assignImmutable(\"0x8c18210df0d9514f2d2e5d8ca7c100978219ee80d3968ad850ab5ead208287b3\")\n  0x00\n  assignImmutable(\"0x56fd040903fcc2e59c9b9f09df6ca51a830f066826ddedecdd2eb17dc3f3f289\")\n  0x00\n  assignImmutable(\"0xdab92d3cfd2fb10847c732668f5be4f526313d660461529e6720c950cca9ea28\")\n  0x00\n  assignImmutable(\"0x037d752242ae8d900ca1c2dba9512ed3f691680bee2a7d598ed49320619901d7\")\n  return(0x00, dataSize(sub_0))\nstop\n\nsub_0: assembly {\n        /* \"contracts/vesting.sol\":147:4005  contract VestingToken{... */\n      mstore(0x40, 0x80)\n      callvalue\n      dup1\n      iszero\n      tag_1\n      jumpi\n      revert(0x00, 0x00)\n    tag_1:\n      pop\n      jumpi(tag_2, lt(calldatasize, 0x04))\n      shr(0xe0, calldataload(0x00))\n      dup1\n      0x8da5cb5b\n      gt\n      tag_14\n      jumpi\n      dup1\n      0x8da5cb5b\n      eq\n      tag_8\n      jumpi\n      dup1\n      0x96074e70\n      eq\n      tag_9\n      jumpi\n      dup1\n      0xa1e3285c\n      eq\n      tag_10\n      jumpi\n      dup1\n      0xb81b8630\n      eq\n      tag_11\n      jumpi\n      dup1\n      0xc884ef83\n      eq\n      tag_12\n      jumpi\n      dup1\n      0xfc0c546a\n      eq\n      tag_13\n      jumpi\n      jump(tag_2)\n    tag_14:\n      dup1\n      0x0fb5a6b4\n      eq\n      tag_3\n      jumpi\n      dup1\n      0x13d033c0\n      eq\n      tag_4\n      jumpi\n      dup1\n      0x4e71d92d\n      eq\n      tag_5\n      jumpi\n      dup1\n      0x78e97925\n      eq\n      tag_6\n      jumpi\n      dup1\n      0x79203dc4\n      eq\n      tag_7\n      jumpi\n    tag_2:\n      revert(0x00, 0x00)\n        /* \"contracts/vesting.sol\":309:342  uint256 public immutable duration */\n    tag_3:\n      tag_15\n      tag_16\n      jump\t// in\n    tag_15:\n      mload(0x40)\n      tag_17\n      swap2\n      swap1\n      tag_18\n      jump\t// in\n    tag_17:\n      mload(0x40)\n      dup1\n      swap2\n      sub\n      swap1\n      return\n        /* \"contracts/vesting.sol\":388:418  uint256 public immutable cliff */\n    tag_4:\n      tag_19\n      tag_20\n      jump\t// in\n    tag_19:\n      mload(0x40)\n      tag_21\n      swap2\n      swap1\n      tag_18\n      jump\t// in\n    tag_21:\n      mload(0x40)\n      dup1\n      swap2\n      sub\n      swap1\n      return\n        /* \"contracts/vesting.sol\":2617:3193  function claim() public {... */\n    tag_5:\n      tag_22\n      tag_23\n      jump\t// in\n    tag_22:\n      stop\n        /* \"contracts/vesting.sol\":250:284  uint256 public immutable startTime */\n    tag_6:\n      tag_24\n      tag_25\n      jump\t// in\n    tag_24:\n      mload(0x40)\n      tag_26\n      swap2\n      swap1\n      tag_18\n      jump\t// in\n    tag_26:\n      mload(0x40)\n      dup1\n      swap2\n      sub\n      swap1\n      return\n        /* \"contracts/vesting.sol\":464:494  uint256 public totalAllocation */\n    tag_7:\n      tag_27\n      tag_28\n      jump\t// in\n    tag_27:\n      mload(0x40)\n      tag_29\n      swap2\n      swap1\n      tag_18\n      jump\t// in\n    tag_29:\n      mload(0x40)\n      dup1\n      swap2\n      sub\n      swap1\n      return\n        /* \"contracts/vesting.sol\":211:241  address public immutable owner */\n    tag_8:\n      tag_30\n      tag_31\n      jump\t// in\n    tag_30:\n      mload(0x40)\n      tag_32\n      swap2\n      swap1\n      tag_33\n      jump\t// in\n    tag_32:\n      mload(0x40)\n      dup1\n      swap2\n      sub\n      swap1\n      return\n        /* \"contracts/vesting.sol\":1495:1857  function addBeneficiary(address recipient, uint256 amount) public onlyOwner{... */\n    tag_9:\n      tag_34\n      0x04\n      dup1\n      calldatasize\n      sub\n      dup2\n      add\n      swap1\n      tag_35\n      swap2\n      swap1\n      tag_36\n      jump\t// in\n    tag_35:\n      tag_37\n      jump\t// in\n    tag_34:\n      stop\n        /* \"contracts/vesting.sol\":3201:4000  function diagnose(address user) public view returns (... */\n    tag_10:\n      tag_38\n      0x04\n      dup1\n      calldatasize\n      sub\n      dup2\n      add\n      swap1\n      tag_39\n      swap2\n      swap1\n      tag_40\n      jump\t// in\n    tag_39:\n      tag_41\n      jump\t// in\n    tag_38:\n      mload(0x40)\n      tag_42\n      swap9\n      swap8\n      swap7\n      swap6\n      swap5\n      swap4\n      swap3\n      swap2\n      swap1\n      tag_43\n      jump\t// in\n    tag_42:\n      mload(0x40)\n      dup1\n      swap2\n      sub\n      swap1\n      return\n        /* \"contracts/vesting.sol\":532:577  mapping(address => uint256) public allocation */\n    tag_11:\n      tag_44\n      0x04\n      dup1\n      calldatasize\n      sub\n      dup2\n      add\n      swap1\n      tag_45\n      swap2\n      swap1\n      tag_40\n      jump\t// in\n    tag_45:\n      tag_46\n      jump\t// in\n    tag_44:\n      mload(0x40)\n      tag_47\n      swap2\n      swap1\n      tag_18\n      jump\t// in\n    tag_47:\n      mload(0x40)\n      dup1\n      swap2\n      sub\n      swap1\n      return\n        /* \"contracts/vesting.sol\":584:626  mapping(address => uint256) public claimed */\n    tag_12:\n      tag_48\n      0x04\n      dup1\n      calldatasize\n      sub\n      dup2\n      add\n      swap1\n      tag_49\n      swap2\n      swap1\n      tag_40\n      jump\t// in\n    tag_49:\n      tag_50\n      jump\t// in\n    tag_48:\n      mload(0x40)\n      tag_51\n      swap2\n      swap1\n      tag_18\n      jump\t// in\n    tag_51:\n      mload(0x40)\n      dup1\n      swap2\n      sub\n      swap1\n      return\n        /* \"contracts/vesting.sol\":175:204  IERC20 public immutable token */\n    tag_13:\n      tag_52\n      tag_53\n      jump\t// in\n    tag_52:\n      mload(0x40)\n      tag_54\n      swap2\n      swap1\n      tag_55\n      jump\t// in\n    tag_54:\n      mload(0x40)\n      dup1\n      swap2\n      sub\n      swap1\n      return\n        /* \"contracts/vesting.sol\":309:342  uint256 public immutable duration */\n    tag_16:\n      immutable(\"0x8c18210df0d9514f2d2e5d8ca7c100978219ee80d3968ad850ab5ead208287b3\")\n      dup2\n      jump\t// out\n        /* \"contracts/vesting.sol\":388:418  uint256 public immutable cliff */\n    tag_20:\n      immutable(\"0x2a9063ed52b7d417e441f378325359c9ce274f5d6c3ecf11b7d42f24b9c90b7f\")\n      dup2\n      jump\t// out\n        /* \"contracts/vesting.sol\":2617:3193  function claim() public {... */\n    tag_23:\n        /* \"contracts/vesting.sol\":2654:2668  uint256 vested */\n      0x00\n        /* \"contracts/vesting.sol\":2671:2695  vestedAmount(msg.sender) */\n      tag_57\n        /* \"contracts/vesting.sol\":2684:2694  msg.sender */\n      caller\n        /* \"contracts/vesting.sol\":2671:2683  vestedAmount */\n      tag_58\n        /* \"contracts/vesting.sol\":2671:2695  vestedAmount(msg.sender) */\n      jump\t// in\n    tag_57:\n        /* \"contracts/vesting.sol\":2654:2695  uint256 vested = vestedAmount(msg.sender) */\n      swap1\n      pop\n        /* \"contracts/vesting.sol\":2755:2773  uint256  claimable */\n      0x00\n        /* \"contracts/vesting.sol\":2785:2792  claimed */\n      0x02\n        /* \"contracts/vesting.sol\":2785:2804  claimed[msg.sender] */\n      0x00\n        /* \"contracts/vesting.sol\":2793:2803  msg.sender */\n      caller\n        /* \"contracts/vesting.sol\":2785:2804  claimed[msg.sender] */\n      0xffffffffffffffffffffffffffffffffffffffff\n      and\n      0xffffffffffffffffffffffffffffffffffffffff\n      and\n      dup2\n      mstore\n      0x20\n      add\n      swap1\n      dup2\n      mstore\n      0x20\n      add\n      0x00\n      keccak256\n      sload\n        /* \"contracts/vesting.sol\":2776:2782  vested */\n      dup3\n        /* \"contracts/vesting.sol\":2776:2804  vested - claimed[msg.sender] */\n      tag_59\n      swap2\n      swap1\n      tag_60\n      jump\t// in\n    tag_59:\n        /* \"contracts/vesting.sol\":2755:2804  uint256  claimable = vested - claimed[msg.sender] */\n      swap1\n      pop\n        /* \"contracts/vesting.sol\":2837:2838  0 */\n      0x00\n        /* \"contracts/vesting.sol\":2825:2834  claimable */\n      dup2\n        /* \"contracts/vesting.sol\":2825:2838  claimable > 0 */\n      gt\n        /* \"contracts/vesting.sol\":2817:2859  require(claimable > 0, \"Nothing to claim\") */\n      tag_61\n      jumpi\n      mload(0x40)\n      0x08c379a000000000000000000000000000000000000000000000000000000000\n      dup2\n      mstore\n      0x04\n      add\n      tag_62\n      swap1\n      tag_63\n      jump\t// in\n    tag_62:\n      mload(0x40)\n      dup1\n      swap2\n      sub\n      swap1\n      revert\n    tag_61:\n        /* \"contracts/vesting.sol\":2929:2952  uint256 contractBalance */\n      0x00\n        /* \"contracts/vesting.sol\":2962:2967  token */\n      immutable(\"0x037d752242ae8d900ca1c2dba9512ed3f691680bee2a7d598ed49320619901d7\")\n        /* \"contracts/vesting.sol\":2955:2978  IERC20(token).balanceOf */\n      0xffffffffffffffffffffffffffffffffffffffff\n      and\n      0x70a08231\n        /* \"contracts/vesting.sol\":2987:2991  this */\n      address\n        /* \"contracts/vesting.sol\":2955:2993  IERC20(token).balanceOf(address(this)) */\n      mload(0x40)\n      dup3\n      0xffffffff\n      and\n      0xe0\n      shl\n      dup2\n      mstore\n      0x04\n      add\n      tag_64\n      swap2\n      swap1\n      tag_33\n      jump\t// in\n    tag_64:\n      0x20\n      mload(0x40)\n      dup1\n      dup4\n      sub\n      dup2\n      dup7\n      gas\n      staticcall\n      iszero\n      dup1\n      iszero\n      tag_66\n      jumpi\n      returndatacopy(0x00, 0x00, returndatasize)\n      revert(0x00, returndatasize)\n    tag_66:\n      pop\n      pop\n      pop\n      pop\n      mload(0x40)\n      returndatasize\n      not(0x1f)\n      0x1f\n      dup3\n      add\n      and\n      dup3\n      add\n      dup1\n      0x40\n      mstore\n      pop\n      dup2\n      add\n      swap1\n      tag_67\n      swap2\n      swap1\n      tag_68\n      jump\t// in\n    tag_67:\n        /* \"contracts/vesting.sol\":2929:2993  uint256 contractBalance = IERC20(token).balanceOf(address(this)) */\n      swap1\n      pop\n        /* \"contracts/vesting.sol\":3019:3034  contractBalance */\n      dup1\n        /* \"contracts/vesting.sol\":3007:3016  claimable */\n      dup3\n        /* \"contracts/vesting.sol\":3007:3034  claimable > contractBalance */\n      gt\n        /* \"contracts/vesting.sol\":3004:3089  if(claimable > contractBalance){... */\n      iszero\n      tag_69\n      jumpi\n        /* \"contracts/vesting.sol\":3062:3077  contractBalance */\n      dup1\n        /* \"contracts/vesting.sol\":3050:3077  claimable = contractBalance */\n      swap2\n      pop\n        /* \"contracts/vesting.sol\":3004:3089  if(claimable > contractBalance){... */\n    tag_69:\n        /* \"contracts/vesting.sol\":3124:3133  claimable */\n      dup2\n        /* \"contracts/vesting.sol\":3101:3108  claimed */\n      0x02\n        /* \"contracts/vesting.sol\":3101:3120  claimed[msg.sender] */\n      0x00\n        /* \"contracts/vesting.sol\":3109:3119  msg.sender */\n      caller\n        /* \"contracts/vesting.sol\":3101:3120  claimed[msg.sender] */\n      0xffffffffffffffffffffffffffffffffffffffff\n      and\n      0xffffffffffffffffffffffffffffffffffffffff\n      and\n      dup2\n      mstore\n      0x20\n      add\n      swap1\n      dup2\n      mstore\n      0x20\n      add\n      0x00\n      keccak256\n      0x00\n        /* \"contracts/vesting.sol\":3101:3133  claimed[msg.sender] += claimable */\n      dup3\n      dup3\n      sload\n      tag_70\n      swap2\n      swap1\n      tag_71\n      jump\t// in\n    tag_70:\n      swap3\n      pop\n      pop\n      dup2\n      swap1\n      sstore\n      pop\n        /* \"contracts/vesting.sol\":3146:3151  token */\n      immutable(\"0x037d752242ae8d900ca1c2dba9512ed3f691680bee2a7d598ed49320619901d7\")\n        /* \"contracts/vesting.sol\":3146:3160  token.transfer */\n      0xffffffffffffffffffffffffffffffffffffffff\n      and\n      0xa9059cbb\n        /* \"contracts/vesting.sol\":3161:3171  msg.sender */\n      caller\n        /* \"contracts/vesting.sol\":3173:3182  claimable */\n      dup5\n        /* \"contracts/vesting.sol\":3146:3183  token.transfer(msg.sender, claimable) */\n      mload(0x40)\n      dup4\n      0xffffffff\n      and\n      0xe0\n      shl\n      dup2\n      mstore\n      0x04\n      add\n      tag_72\n      swap3\n      swap2\n      swap1\n      tag_73\n      jump\t// in\n    tag_72:\n      0x20\n      mload(0x40)\n      dup1\n      dup4\n      sub\n      dup2\n      0x00\n      dup8\n      gas\n      call\n      iszero\n      dup1\n      iszero\n      tag_75\n      jumpi\n      returndatacopy(0x00, 0x00, returndatasize)\n      revert(0x00, returndatasize)\n    tag_75:\n      pop\n      pop\n      pop\n      pop\n      mload(0x40)\n      returndatasize\n      not(0x1f)\n      0x1f\n      dup3\n      add\n      and\n      dup3\n      add\n      dup1\n      0x40\n      mstore\n      pop\n      dup2\n      add\n      swap1\n      tag_76\n      swap2\n      swap1\n      tag_77\n      jump\t// in\n    tag_76:\n      pop\n        /* \"contracts/vesting.sol\":2641:3193  {... */\n      pop\n      pop\n      pop\n        /* \"contracts/vesting.sol\":2617:3193  function claim() public {... */\n      jump\t// out\n        /* \"contracts/vesting.sol\":250:284  uint256 public immutable startTime */\n    tag_25:\n      immutable(\"0x56fd040903fcc2e59c9b9f09df6ca51a830f066826ddedecdd2eb17dc3f3f289\")\n      dup2\n      jump\t// out\n        /* \"contracts/vesting.sol\":464:494  uint256 public totalAllocation */\n    tag_28:\n      sload(0x00)\n      dup2\n      jump\t// out\n        /* \"contracts/vesting.sol\":211:241  address public immutable owner */\n    tag_31:\n      immutable(\"0xdab92d3cfd2fb10847c732668f5be4f526313d660461529e6720c950cca9ea28\")\n      dup2\n      jump\t// out\n        /* \"contracts/vesting.sol\":1495:1857  function addBeneficiary(address recipient, uint256 amount) public onlyOwner{... */\n    tag_37:\n        /* \"contracts/vesting.sol\":688:693  owner */\n      immutable(\"0xdab92d3cfd2fb10847c732668f5be4f526313d660461529e6720c950cca9ea28\")\n        /* \"contracts/vesting.sol\":674:693  msg.sender == owner */\n      0xffffffffffffffffffffffffffffffffffffffff\n      and\n        /* \"contracts/vesting.sol\":674:684  msg.sender */\n      caller\n        /* \"contracts/vesting.sol\":674:693  msg.sender == owner */\n      0xffffffffffffffffffffffffffffffffffffffff\n      and\n      eq\n        /* \"contracts/vesting.sol\":666:707  require(msg.sender == owner, 'Not Owner') */\n      tag_79\n      jumpi\n      mload(0x40)\n      0x08c379a000000000000000000000000000000000000000000000000000000000\n      dup2\n      mstore\n      0x04\n      add\n      tag_80\n      swap1\n      tag_81\n      jump\t// in\n    tag_80:\n      mload(0x40)\n      dup1\n      swap2\n      sub\n      swap1\n      revert\n    tag_79:\n        /* \"contracts/vesting.sol\":1581:1600  uint256 amountInWei */\n      0x00\n        /* \"contracts/vesting.sol\":1612:1616  1e18 */\n      0x0de0b6b3a7640000\n        /* \"contracts/vesting.sol\":1603:1609  amount */\n      dup3\n        /* \"contracts/vesting.sol\":1603:1616  amount * 1e18 */\n      tag_83\n      swap2\n      swap1\n      tag_84\n      jump\t// in\n    tag_83:\n        /* \"contracts/vesting.sol\":1581:1616  uint256 amountInWei = amount * 1e18 */\n      swap1\n      pop\n        /* \"contracts/vesting.sol\":1669:1674  token */\n      immutable(\"0x037d752242ae8d900ca1c2dba9512ed3f691680bee2a7d598ed49320619901d7\")\n        /* \"contracts/vesting.sol\":1662:1685  IERC20(token).balanceOf */\n      0xffffffffffffffffffffffffffffffffffffffff\n      and\n      0x70a08231\n        /* \"contracts/vesting.sol\":1694:1698  this */\n      address\n        /* \"contracts/vesting.sol\":1662:1700  IERC20(token).balanceOf(address(this)) */\n      mload(0x40)\n      dup3\n      0xffffffff\n      and\n      0xe0\n      shl\n      dup2\n      mstore\n      0x04\n      add\n      tag_85\n      swap2\n      swap1\n      tag_33\n      jump\t// in\n    tag_85:\n      0x20\n      mload(0x40)\n      dup1\n      dup4\n      sub\n      dup2\n      dup7\n      gas\n      staticcall\n      iszero\n      dup1\n      iszero\n      tag_87\n      jumpi\n      returndatacopy(0x00, 0x00, returndatasize)\n      revert(0x00, returndatasize)\n    tag_87:\n      pop\n      pop\n      pop\n      pop\n      mload(0x40)\n      returndatasize\n      not(0x1f)\n      0x1f\n      dup3\n      add\n      and\n      dup3\n      add\n      dup1\n      0x40\n      mstore\n      pop\n      dup2\n      add\n      swap1\n      tag_88\n      swap2\n      swap1\n      tag_68\n      jump\t// in\n    tag_88:\n        /* \"contracts/vesting.sol\":1648:1659  amountInWei */\n      dup2\n        /* \"contracts/vesting.sol\":1630:1645  totalAllocation */\n      sload(0x00)\n        /* \"contracts/vesting.sol\":1630:1659  totalAllocation + amountInWei */\n      tag_89\n      swap2\n      swap1\n      tag_71\n      jump\t// in\n    tag_89:\n        /* \"contracts/vesting.sol\":1630:1700  totalAllocation + amountInWei > IERC20(token).balanceOf(address(this)) */\n      gt\n        /* \"contracts/vesting.sol\":1627:1733  if(totalAllocation + amountInWei > IERC20(token).balanceOf(address(this))) revert NotEnoughContractToken() */\n      iszero\n      tag_90\n      jumpi\n        /* \"contracts/vesting.sol\":1709:1733  NotEnoughContractToken() */\n      mload(0x40)\n      0xe2969e3100000000000000000000000000000000000000000000000000000000\n      dup2\n      mstore\n      0x04\n      add\n      mload(0x40)\n      dup1\n      swap2\n      sub\n      swap1\n      revert\n        /* \"contracts/vesting.sol\":1627:1733  if(totalAllocation + amountInWei > IERC20(token).balanceOf(address(this))) revert NotEnoughContractToken() */\n    tag_90:\n        /* \"contracts/vesting.sol\":1768:1779  amountInWei */\n      dup1\n        /* \"contracts/vesting.sol\":1744:1754  allocation */\n      0x01\n        /* \"contracts/vesting.sol\":1744:1765  allocation[recipient] */\n      0x00\n        /* \"contracts/vesting.sol\":1755:1764  recipient */\n      dup6\n        /* \"contracts/vesting.sol\":1744:1765  allocation[recipient] */\n      0xffffffffffffffffffffffffffffffffffffffff\n      and\n      0xffffffffffffffffffffffffffffffffffffffff\n      and\n      dup2\n      mstore\n      0x20\n      add\n      swap1\n      dup2\n      mstore\n      0x20\n      add\n      0x00\n      keccak256\n        /* \"contracts/vesting.sol\":1744:1779  allocation[recipient] = amountInWei */\n      dup2\n      swap1\n      sstore\n      pop\n        /* \"contracts/vesting.sol\":1838:1849  amountInWei */\n      dup1\n        /* \"contracts/vesting.sol\":1814:1829  totalAllocation */\n      0x00\n      0x00\n        /* \"contracts/vesting.sol\":1814:1849  totalAllocation      += amountInWei */\n      dup3\n      dup3\n      sload\n      tag_91\n      swap2\n      swap1\n      tag_71\n      jump\t// in\n    tag_91:\n      swap3\n      pop\n      pop\n      dup2\n      swap1\n      sstore\n      pop\n        /* \"contracts/vesting.sol\":1570:1857  {... */\n      pop\n        /* \"contracts/vesting.sol\":1495:1857  function addBeneficiary(address recipient, uint256 amount) public onlyOwner{... */\n      pop\n      pop\n      jump\t// out\n        /* \"contracts/vesting.sol\":3201:4000  function diagnose(address user) public view returns (... */\n    tag_41:\n        /* \"contracts/vesting.sol\":3260:3279  uint256 currentTime */\n      0x00\n        /* \"contracts/vesting.sol\":3286:3305  uint256 cliffEndsAt */\n      0x00\n        /* \"contracts/vesting.sol\":3312:3334  uint256 cliffRemaining */\n      0x00\n        /* \"contracts/vesting.sol\":3341:3363  uint256 userAllocation */\n      0x00\n        /* \"contracts/vesting.sol\":3370:3387  uint256 vestedNow */\n      0x00\n        /* \"contracts/vesting.sol\":3394:3416  uint256 alreadyClaimed */\n      0x00\n        /* \"contracts/vesting.sol\":3423:3443  uint256 claimableNow */\n      0x00\n        /* \"contracts/vesting.sol\":3445:3460  uint256 balance */\n      0x00\n        /* \"contracts/vesting.sol\":3488:3503  block.timestamp */\n      timestamp\n        /* \"contracts/vesting.sol\":3471:3503  currentTime    = block.timestamp */\n      swap8\n      pop\n        /* \"contracts/vesting.sol\":3527:3532  token */\n      immutable(\"0x037d752242ae8d900ca1c2dba9512ed3f691680bee2a7d598ed49320619901d7\")\n        /* \"contracts/vesting.sol\":3520:3543  IERC20(token).balanceOf */\n      0xffffffffffffffffffffffffffffffffffffffff\n      and\n      0x70a08231\n        /* \"contracts/vesting.sol\":3552:3556  this */\n      address\n        /* \"contracts/vesting.sol\":3520:3558  IERC20(token).balanceOf(address(this)) */\n      mload(0x40)\n      dup3\n      0xffffffff\n      and\n      0xe0\n      shl\n      dup2\n      mstore\n      0x04\n      add\n      tag_93\n      swap2\n      swap1\n      tag_33\n      jump\t// in\n    tag_93:\n      0x20\n      mload(0x40)\n      dup1\n      dup4\n      sub\n      dup2\n      dup7\n      gas\n      staticcall\n      iszero\n      dup1\n      iszero\n      tag_95\n      jumpi\n      returndatacopy(0x00, 0x00, returndatasize)\n      revert(0x00, returndatasize)\n    tag_95:\n      pop\n      pop\n      pop\n      pop\n      mload(0x40)\n      returndatasize\n      not(0x1f)\n      0x1f\n      dup3\n      add\n      and\n      dup3\n      add\n      dup1\n      0x40\n      mstore\n      pop\n      dup2\n      add\n      swap1\n      tag_96\n      swap2\n      swap1\n      tag_68\n      jump\t// in\n    tag_96:\n        /* \"contracts/vesting.sol\":3510:3558  balance = IERC20(token).balanceOf(address(this)) */\n      swap1\n      pop\n        /* \"contracts/vesting.sol\":3594:3599  cliff */\n      immutable(\"0x2a9063ed52b7d417e441f378325359c9ce274f5d6c3ecf11b7d42f24b9c90b7f\")\n        /* \"contracts/vesting.sol\":3582:3591  startTime */\n      immutable(\"0x56fd040903fcc2e59c9b9f09df6ca51a830f066826ddedecdd2eb17dc3f3f289\")\n        /* \"contracts/vesting.sol\":3582:3599  startTime + cliff */\n      tag_97\n      swap2\n      swap1\n      tag_71\n      jump\t// in\n    tag_97:\n        /* \"contracts/vesting.sol\":3565:3599  cliffEndsAt    = startTime + cliff */\n      swap7\n      pop\n        /* \"contracts/vesting.sol\":3653:3658  cliff */\n      immutable(\"0x2a9063ed52b7d417e441f378325359c9ce274f5d6c3ecf11b7d42f24b9c90b7f\")\n        /* \"contracts/vesting.sol\":3641:3650  startTime */\n      immutable(\"0x56fd040903fcc2e59c9b9f09df6ca51a830f066826ddedecdd2eb17dc3f3f289\")\n        /* \"contracts/vesting.sol\":3641:3658  startTime + cliff */\n      tag_98\n      swap2\n      swap1\n      tag_71\n      jump\t// in\n    tag_98:\n        /* \"contracts/vesting.sol\":3623:3638  block.timestamp */\n      timestamp\n        /* \"contracts/vesting.sol\":3623:3658  block.timestamp < startTime + cliff */\n      lt\n        /* \"contracts/vesting.sol\":3623:3748  block.timestamp < startTime + cliff ... */\n      tag_99\n      jumpi\n        /* \"contracts/vesting.sol\":3747:3748  0 */\n      0x00\n        /* \"contracts/vesting.sol\":3623:3748  block.timestamp < startTime + cliff ... */\n      jump(tag_100)\n    tag_99:\n        /* \"contracts/vesting.sol\":3706:3721  block.timestamp */\n      timestamp\n        /* \"contracts/vesting.sol\":3697:3702  cliff */\n      immutable(\"0x2a9063ed52b7d417e441f378325359c9ce274f5d6c3ecf11b7d42f24b9c90b7f\")\n        /* \"contracts/vesting.sol\":3685:3694  startTime */\n      immutable(\"0x56fd040903fcc2e59c9b9f09df6ca51a830f066826ddedecdd2eb17dc3f3f289\")\n        /* \"contracts/vesting.sol\":3685:3702  startTime + cliff */\n      tag_101\n      swap2\n      swap1\n      tag_71\n      jump\t// in\n    tag_101:\n        /* \"contracts/vesting.sol\":3684:3721  (startTime + cliff) - block.timestamp */\n      tag_102\n      swap2\n      swap1\n      tag_60\n      jump\t// in\n    tag_102:\n        /* \"contracts/vesting.sol\":3623:3748  block.timestamp < startTime + cliff ... */\n    tag_100:\n        /* \"contracts/vesting.sol\":3606:3748  cliffRemaining = block.timestamp < startTime + cliff ... */\n      swap6\n      pop\n        /* \"contracts/vesting.sol\":3772:3782  allocation */\n      0x01\n        /* \"contracts/vesting.sol\":3772:3788  allocation[user] */\n      0x00\n        /* \"contracts/vesting.sol\":3783:3787  user */\n      dup11\n        /* \"contracts/vesting.sol\":3772:3788  allocation[user] */\n      0xffffffffffffffffffffffffffffffffffffffff\n      and\n      0xffffffffffffffffffffffffffffffffffffffff\n      and\n      dup2\n      mstore\n      0x20\n      add\n      swap1\n      dup2\n      mstore\n      0x20\n      add\n      0x00\n      keccak256\n      sload\n        /* \"contracts/vesting.sol\":3755:3788  userAllocation = allocation[user] */\n      swap5\n      pop\n        /* \"contracts/vesting.sol\":3812:3830  vestedAmount(user) */\n      tag_103\n        /* \"contracts/vesting.sol\":3825:3829  user */\n      dup10\n        /* \"contracts/vesting.sol\":3812:3824  vestedAmount */\n      tag_58\n        /* \"contracts/vesting.sol\":3812:3830  vestedAmount(user) */\n      jump\t// in\n    tag_103:\n        /* \"contracts/vesting.sol\":3795:3830  vestedNow      = vestedAmount(user) */\n      swap4\n      pop\n        /* \"contracts/vesting.sol\":3854:3861  claimed */\n      0x02\n        /* \"contracts/vesting.sol\":3854:3867  claimed[user] */\n      0x00\n        /* \"contracts/vesting.sol\":3862:3866  user */\n      dup11\n        /* \"contracts/vesting.sol\":3854:3867  claimed[user] */\n      0xffffffffffffffffffffffffffffffffffffffff\n      and\n      0xffffffffffffffffffffffffffffffffffffffff\n      and\n      dup2\n      mstore\n      0x20\n      add\n      swap1\n      dup2\n      mstore\n      0x20\n      add\n      0x00\n      keccak256\n      sload\n        /* \"contracts/vesting.sol\":3837:3867  alreadyClaimed = claimed[user] */\n      swap3\n      pop\n        /* \"contracts/vesting.sol\":3903:3917  alreadyClaimed */\n      dup3\n        /* \"contracts/vesting.sol\":3891:3900  vestedNow */\n      dup5\n        /* \"contracts/vesting.sol\":3891:3917  vestedNow > alreadyClaimed */\n      gt\n        /* \"contracts/vesting.sol\":3891:3996  vestedNow > alreadyClaimed ... */\n      tag_104\n      jumpi\n        /* \"contracts/vesting.sol\":3995:3996  0 */\n      0x00\n        /* \"contracts/vesting.sol\":3891:3996  vestedNow > alreadyClaimed ... */\n      jump(tag_105)\n    tag_104:\n        /* \"contracts/vesting.sol\":3955:3969  alreadyClaimed */\n      dup3\n        /* \"contracts/vesting.sol\":3943:3952  vestedNow */\n      dup5\n        /* \"contracts/vesting.sol\":3943:3969  vestedNow - alreadyClaimed */\n      tag_106\n      swap2\n      swap1\n      tag_60\n      jump\t// in\n    tag_106:\n        /* \"contracts/vesting.sol\":3891:3996  vestedNow > alreadyClaimed ... */\n    tag_105:\n        /* \"contracts/vesting.sol\":3874:3996  claimableNow   = vestedNow > alreadyClaimed ... */\n      swap2\n      pop\n        /* \"contracts/vesting.sol\":3201:4000  function diagnose(address user) public view returns (... */\n      swap2\n      swap4\n      swap6\n      swap8\n      pop\n      swap2\n      swap4\n      swap6\n      swap8\n      jump\t// out\n        /* \"contracts/vesting.sol\":532:577  mapping(address => uint256) public allocation */\n    tag_46:\n      mstore(0x20, 0x01)\n      dup1\n      0x00\n      mstore\n      keccak256(0x00, 0x40)\n      0x00\n      swap2\n      pop\n      swap1\n      pop\n      sload\n      dup2\n      jump\t// out\n        /* \"contracts/vesting.sol\":584:626  mapping(address => uint256) public claimed */\n    tag_50:\n      mstore(0x20, 0x02)\n      dup1\n      0x00\n      mstore\n      keccak256(0x00, 0x40)\n      0x00\n      swap2\n      pop\n      swap1\n      pop\n      sload\n      dup2\n      jump\t// out\n        /* \"contracts/vesting.sol\":175:204  IERC20 public immutable token */\n    tag_53:\n      immutable(\"0x037d752242ae8d900ca1c2dba9512ed3f691680bee2a7d598ed49320619901d7\")\n      dup2\n      jump\t// out\n        /* \"contracts/vesting.sol\":1865:2607  function vestedAmount(address beneficiary) internal view returns (uint256){... */\n    tag_58:\n        /* \"contracts/vesting.sol\":1931:1938  uint256 */\n      0x00\n        /* \"contracts/vesting.sol\":2105:2110  cliff */\n      immutable(\"0x2a9063ed52b7d417e441f378325359c9ce274f5d6c3ecf11b7d42f24b9c90b7f\")\n        /* \"contracts/vesting.sol\":2093:2102  startTime */\n      immutable(\"0x56fd040903fcc2e59c9b9f09df6ca51a830f066826ddedecdd2eb17dc3f3f289\")\n        /* \"contracts/vesting.sol\":2093:2110  startTime + cliff */\n      tag_108\n      swap2\n      swap1\n      tag_71\n      jump\t// in\n    tag_108:\n        /* \"contracts/vesting.sol\":2075:2090  block.timestamp */\n      timestamp\n        /* \"contracts/vesting.sol\":2075:2110  block.timestamp < startTime + cliff */\n      lt\n        /* \"contracts/vesting.sol\":2072:2146  if(block.timestamp < startTime + cliff){... */\n      iszero\n      tag_109\n      jumpi\n        /* \"contracts/vesting.sol\":2133:2134  0 */\n      0x00\n        /* \"contracts/vesting.sol\":2126:2134  return 0 */\n      swap1\n      pop\n      jump(tag_107)\n        /* \"contracts/vesting.sol\":2072:2146  if(block.timestamp < startTime + cliff){... */\n    tag_109:\n        /* \"contracts/vesting.sol\":2156:2169  uint256 total */\n      0x00\n        /* \"contracts/vesting.sol\":2172:2182  allocation */\n      0x01\n        /* \"contracts/vesting.sol\":2172:2195  allocation[beneficiary] */\n      0x00\n        /* \"contracts/vesting.sol\":2183:2194  beneficiary */\n      dup5\n        /* \"contracts/vesting.sol\":2172:2195  allocation[beneficiary] */\n      0xffffffffffffffffffffffffffffffffffffffff\n      and\n      0xffffffffffffffffffffffffffffffffffffffff\n      and\n      dup2\n      mstore\n      0x20\n      add\n      swap1\n      dup2\n      mstore\n      0x20\n      add\n      0x00\n      keccak256\n      sload\n        /* \"contracts/vesting.sol\":2156:2195  uint256 total = allocation[beneficiary] */\n      swap1\n      pop\n        /* \"contracts/vesting.sol\":2206:2221  uint256 elapsed */\n      0x00\n        /* \"contracts/vesting.sol\":2242:2251  startTime */\n      immutable(\"0x56fd040903fcc2e59c9b9f09df6ca51a830f066826ddedecdd2eb17dc3f3f289\")\n        /* \"contracts/vesting.sol\":2224:2239  block.timestamp */\n      timestamp\n        /* \"contracts/vesting.sol\":2224:2251  block.timestamp - startTime */\n      tag_110\n      swap2\n      swap1\n      tag_60\n      jump\t// in\n    tag_110:\n        /* \"contracts/vesting.sol\":2206:2251  uint256 elapsed = block.timestamp - startTime */\n      swap1\n      pop\n        /* \"contracts/vesting.sol\":2389:2397  duration */\n      immutable(\"0x8c18210df0d9514f2d2e5d8ca7c100978219ee80d3968ad850ab5ead208287b3\")\n        /* \"contracts/vesting.sol\":2378:2385  elapsed */\n      dup2\n        /* \"contracts/vesting.sol\":2378:2397  elapsed >= duration */\n      lt\n        /* \"contracts/vesting.sol\":2375:2437  if(elapsed >= duration){... */\n      tag_111\n      jumpi\n        /* \"contracts/vesting.sol\":2420:2425  total */\n      dup2\n        /* \"contracts/vesting.sol\":2413:2425  return total */\n      swap3\n      pop\n      pop\n      pop\n      jump(tag_107)\n        /* \"contracts/vesting.sol\":2375:2437  if(elapsed >= duration){... */\n    tag_111:\n        /* \"contracts/vesting.sol\":2591:2599  duration */\n      immutable(\"0x8c18210df0d9514f2d2e5d8ca7c100978219ee80d3968ad850ab5ead208287b3\")\n        /* \"contracts/vesting.sol\":2580:2587  elapsed */\n      dup2\n        /* \"contracts/vesting.sol\":2572:2577  total */\n      dup4\n        /* \"contracts/vesting.sol\":2572:2587  total * elapsed */\n      tag_112\n      swap2\n      swap1\n      tag_84\n      jump\t// in\n    tag_112:\n        /* \"contracts/vesting.sol\":2571:2599  (total * elapsed) / duration */\n      tag_113\n      swap2\n      swap1\n      tag_114\n      jump\t// in\n    tag_113:\n        /* \"contracts/vesting.sol\":2564:2599  return (total * elapsed) / duration */\n      swap3\n      pop\n      pop\n      pop\n        /* \"contracts/vesting.sol\":1865:2607  function vestedAmount(address beneficiary) internal view returns (uint256){... */\n    tag_107:\n      swap2\n      swap1\n      pop\n      jump\t// out\n        /* \"#utility.yul\":7:84   */\n    tag_115:\n        /* \"#utility.yul\":44:51   */\n      0x00\n        /* \"#utility.yul\":73:78   */\n      dup2\n        /* \"#utility.yul\":62:78   */\n      swap1\n      pop\n        /* \"#utility.yul\":7:84   */\n      swap2\n      swap1\n      pop\n      jump\t// out\n        /* \"#utility.yul\":90:208   */\n    tag_116:\n        /* \"#utility.yul\":177:201   */\n      tag_146\n        /* \"#utility.yul\":195:200   */\n      dup2\n        /* \"#utility.yul\":177:201   */\n      tag_115\n      jump\t// in\n    tag_146:\n        /* \"#utility.yul\":172:175   */\n      dup3\n        /* \"#utility.yul\":165:202   */\n      mstore\n        /* \"#utility.yul\":90:208   */\n      pop\n      pop\n      jump\t// out\n        /* \"#utility.yul\":214:436   */\n    tag_18:\n        /* \"#utility.yul\":307:311   */\n      0x00\n        /* \"#utility.yul\":345:347   */\n      0x20\n        /* \"#utility.yul\":334:343   */\n      dup3\n        /* \"#utility.yul\":330:348   */\n      add\n        /* \"#utility.yul\":322:348   */\n      swap1\n      pop\n        /* \"#utility.yul\":358:429   */\n      tag_148\n        /* \"#utility.yul\":426:427   */\n      0x00\n        /* \"#utility.yul\":415:424   */\n      dup4\n        /* \"#utility.yul\":411:428   */\n      add\n        /* \"#utility.yul\":402:408   */\n      dup5\n        /* \"#utility.yul\":358:429   */\n      tag_116\n      jump\t// in\n    tag_148:\n        /* \"#utility.yul\":214:436   */\n      swap3\n      swap2\n      pop\n      pop\n      jump\t// out\n        /* \"#utility.yul\":442:568   */\n    tag_117:\n        /* \"#utility.yul\":479:486   */\n      0x00\n        /* \"#utility.yul\":519:561   */\n      0xffffffffffffffffffffffffffffffffffffffff\n        /* \"#utility.yul\":512:517   */\n      dup3\n        /* \"#utility.yul\":508:562   */\n      and\n        /* \"#utility.yul\":497:562   */\n      swap1\n      pop\n        /* \"#utility.yul\":442:568   */\n      swap2\n      swap1\n      pop\n      jump\t// out\n        /* \"#utility.yul\":574:670   */\n    tag_118:\n        /* \"#utility.yul\":611:618   */\n      0x00\n        /* \"#utility.yul\":640:664   */\n      tag_151\n        /* \"#utility.yul\":658:663   */\n      dup3\n        /* \"#utility.yul\":640:664   */\n      tag_117\n      jump\t// in\n    tag_151:\n        /* \"#utility.yul\":629:664   */\n      swap1\n      pop\n        /* \"#utility.yul\":574:670   */\n      swap2\n      swap1\n      pop\n      jump\t// out\n        /* \"#utility.yul\":676:794   */\n    tag_119:\n        /* \"#utility.yul\":763:787   */\n      tag_153\n        /* \"#utility.yul\":781:786   */\n      dup2\n        /* \"#utility.yul\":763:787   */\n      tag_118\n      jump\t// in\n    tag_153:\n        /* \"#utility.yul\":758:761   */\n      dup3\n        /* \"#utility.yul\":751:788   */\n      mstore\n        /* \"#utility.yul\":676:794   */\n      pop\n      pop\n      jump\t// out\n        /* \"#utility.yul\":800:1022   */\n    tag_33:\n        /* \"#utility.yul\":893:897   */\n      0x00\n        /* \"#utility.yul\":931:933   */\n      0x20\n        /* \"#utility.yul\":920:929   */\n      dup3\n        /* \"#utility.yul\":916:934   */\n      add\n        /* \"#utility.yul\":908:934   */\n      swap1\n      pop\n        /* \"#utility.yul\":944:1015   */\n      tag_155\n        /* \"#utility.yul\":1012:1013   */\n      0x00\n        /* \"#utility.yul\":1001:1010   */\n      dup4\n        /* \"#utility.yul\":997:1014   */\n      add\n        /* \"#utility.yul\":988:994   */\n      dup5\n        /* \"#utility.yul\":944:1015   */\n      tag_119\n      jump\t// in\n    tag_155:\n        /* \"#utility.yul\":800:1022   */\n      swap3\n      swap2\n      pop\n      pop\n      jump\t// out\n        /* \"#utility.yul\":1109:1226   */\n    tag_121:\n        /* \"#utility.yul\":1218:1219   */\n      0x00\n        /* \"#utility.yul\":1215:1216   */\n      0x00\n        /* \"#utility.yul\":1208:1220   */\n      revert\n        /* \"#utility.yul\":1355:1477   */\n    tag_123:\n        /* \"#utility.yul\":1428:1452   */\n      tag_160\n        /* \"#utility.yul\":1446:1451   */\n      dup2\n        /* \"#utility.yul\":1428:1452   */\n      tag_118\n      jump\t// in\n    tag_160:\n        /* \"#utility.yul\":1421:1426   */\n      dup2\n        /* \"#utility.yul\":1418:1453   */\n      eq\n        /* \"#utility.yul\":1408:1471   */\n      tag_161\n      jumpi\n        /* \"#utility.yul\":1467:1468   */\n      0x00\n        /* \"#utility.yul\":1464:1465   */\n      0x00\n        /* \"#utility.yul\":1457:1469   */\n      revert\n        /* \"#utility.yul\":1408:1471   */\n    tag_161:\n        /* \"#utility.yul\":1355:1477   */\n      pop\n      jump\t// out\n        /* \"#utility.yul\":1483:1622   */\n    tag_124:\n        /* \"#utility.yul\":1529:1534   */\n      0x00\n        /* \"#utility.yul\":1567:1573   */\n      dup2\n        /* \"#utility.yul\":1554:1574   */\n      calldataload\n        /* \"#utility.yul\":1545:1574   */\n      swap1\n      pop\n        /* \"#utility.yul\":1583:1616   */\n      tag_163\n        /* \"#utility.yul\":1610:1615   */\n      dup2\n        /* \"#utility.yul\":1583:1616   */\n      tag_123\n      jump\t// in\n    tag_163:\n        /* \"#utility.yul\":1483:1622   */\n      swap3\n      swap2\n      pop\n      pop\n      jump\t// out\n        /* \"#utility.yul\":1628:1750   */\n    tag_125:\n        /* \"#utility.yul\":1701:1725   */\n      tag_165\n        /* \"#utility.yul\":1719:1724   */\n      dup2\n        /* \"#utility.yul\":1701:1725   */\n      tag_115\n      jump\t// in\n    tag_165:\n        /* \"#utility.yul\":1694:1699   */\n      dup2\n        /* \"#utility.yul\":1691:1726   */\n      eq\n        /* \"#utility.yul\":1681:1744   */\n      tag_166\n      jumpi\n        /* \"#utility.yul\":1740:1741   */\n      0x00\n        /* \"#utility.yul\":1737:1738   */\n      0x00\n        /* \"#utility.yul\":1730:1742   */\n      revert\n        /* \"#utility.yul\":1681:1744   */\n    tag_166:\n        /* \"#utility.yul\":1628:1750   */\n      pop\n      jump\t// out\n        /* \"#utility.yul\":1756:1895   */\n    tag_126:\n        /* \"#utility.yul\":1802:1807   */\n      0x00\n        /* \"#utility.yul\":1840:1846   */\n      dup2\n        /* \"#utility.yul\":1827:1847   */\n      calldataload\n        /* \"#utility.yul\":1818:1847   */\n      swap1\n      pop\n        /* \"#utility.yul\":1856:1889   */\n      tag_168\n        /* \"#utility.yul\":1883:1888   */\n      dup2\n        /* \"#utility.yul\":1856:1889   */\n      tag_125\n      jump\t// in\n    tag_168:\n        /* \"#utility.yul\":1756:1895   */\n      swap3\n      swap2\n      pop\n      pop\n      jump\t// out\n        /* \"#utility.yul\":1901:2375   */\n    tag_36:\n        /* \"#utility.yul\":1969:1975   */\n      0x00\n        /* \"#utility.yul\":1977:1983   */\n      0x00\n        /* \"#utility.yul\":2026:2028   */\n      0x40\n        /* \"#utility.yul\":2014:2023   */\n      dup4\n        /* \"#utility.yul\":2005:2012   */\n      dup6\n        /* \"#utility.yul\":2001:2024   */\n      sub\n        /* \"#utility.yul\":1997:2029   */\n      slt\n        /* \"#utility.yul\":1994:2113   */\n      iszero\n      tag_170\n      jumpi\n        /* \"#utility.yul\":2032:2111   */\n      tag_171\n      tag_121\n      jump\t// in\n    tag_171:\n        /* \"#utility.yul\":1994:2113   */\n    tag_170:\n        /* \"#utility.yul\":2152:2153   */\n      0x00\n        /* \"#utility.yul\":2177:2230   */\n      tag_172\n        /* \"#utility.yul\":2222:2229   */\n      dup6\n        /* \"#utility.yul\":2213:2219   */\n      dup3\n        /* \"#utility.yul\":2202:2211   */\n      dup7\n        /* \"#utility.yul\":2198:2220   */\n      add\n        /* \"#utility.yul\":2177:2230   */\n      tag_124\n      jump\t// in\n    tag_172:\n        /* \"#utility.yul\":2167:2230   */\n      swap3\n      pop\n        /* \"#utility.yul\":2123:2240   */\n      pop\n        /* \"#utility.yul\":2279:2281   */\n      0x20\n        /* \"#utility.yul\":2305:2358   */\n      tag_173\n        /* \"#utility.yul\":2350:2357   */\n      dup6\n        /* \"#utility.yul\":2341:2347   */\n      dup3\n        /* \"#utility.yul\":2330:2339   */\n      dup7\n        /* \"#utility.yul\":2326:2348   */\n      add\n        /* \"#utility.yul\":2305:2358   */\n      tag_126\n      jump\t// in\n    tag_173:\n        /* \"#utility.yul\":2295:2358   */\n      swap2\n      pop\n        /* \"#utility.yul\":2250:2368   */\n      pop\n        /* \"#utility.yul\":1901:2375   */\n      swap3\n      pop\n      swap3\n      swap1\n      pop\n      jump\t// out\n        /* \"#utility.yul\":2381:2710   */\n    tag_40:\n        /* \"#utility.yul\":2440:2446   */\n      0x00\n        /* \"#utility.yul\":2489:2491   */\n      0x20\n        /* \"#utility.yul\":2477:2486   */\n      dup3\n        /* \"#utility.yul\":2468:2475   */\n      dup5\n        /* \"#utility.yul\":2464:2487   */\n      sub\n        /* \"#utility.yul\":2460:2492   */\n      slt\n        /* \"#utility.yul\":2457:2576   */\n      iszero\n      tag_175\n      jumpi\n        /* \"#utility.yul\":2495:2574   */\n      tag_176\n      tag_121\n      jump\t// in\n    tag_176:\n        /* \"#utility.yul\":2457:2576   */\n    tag_175:\n        /* \"#utility.yul\":2615:2616   */\n      0x00\n        /* \"#utility.yul\":2640:2693   */\n      tag_177\n        /* \"#utility.yul\":2685:2692   */\n      dup5\n        /* \"#utility.yul\":2676:2682   */\n      dup3\n        /* \"#utility.yul\":2665:2674   */\n      dup6\n        /* \"#utility.yul\":2661:2683   */\n      add\n        /* \"#utility.yul\":2640:2693   */\n      tag_124\n      jump\t// in\n    tag_177:\n        /* \"#utility.yul\":2630:2693   */\n      swap2\n      pop\n        /* \"#utility.yul\":2586:2703   */\n      pop\n        /* \"#utility.yul\":2381:2710   */\n      swap3\n      swap2\n      pop\n      pop\n      jump\t// out\n        /* \"#utility.yul\":2716:3713   */\n    tag_43:\n        /* \"#utility.yul\":3005:3009   */\n      0x00\n        /* \"#utility.yul\":3043:3046   */\n      0x0100\n        /* \"#utility.yul\":3032:3041   */\n      dup3\n        /* \"#utility.yul\":3028:3047   */\n      add\n        /* \"#utility.yul\":3020:3047   */\n      swap1\n      pop\n        /* \"#utility.yul\":3057:3128   */\n      tag_179\n        /* \"#utility.yul\":3125:3126   */\n      0x00\n        /* \"#utility.yul\":3114:3123   */\n      dup4\n        /* \"#utility.yul\":3110:3127   */\n      add\n        /* \"#utility.yul\":3101:3107   */\n      dup12\n        /* \"#utility.yul\":3057:3128   */\n      tag_116\n      jump\t// in\n    tag_179:\n        /* \"#utility.yul\":3138:3210   */\n      tag_180\n        /* \"#utility.yul\":3206:3208   */\n      0x20\n        /* \"#utility.yul\":3195:3204   */\n      dup4\n        /* \"#utility.yul\":3191:3209   */\n      add\n        /* \"#utility.yul\":3182:3188   */\n      dup11\n        /* \"#utility.yul\":3138:3210   */\n      tag_116\n      jump\t// in\n    tag_180:\n        /* \"#utility.yul\":3220:3292   */\n      tag_181\n        /* \"#utility.yul\":3288:3290   */\n      0x40\n        /* \"#utility.yul\":3277:3286   */\n      dup4\n        /* \"#utility.yul\":3273:3291   */\n      add\n        /* \"#utility.yul\":3264:3270   */\n      dup10\n        /* \"#utility.yul\":3220:3292   */\n      tag_116\n      jump\t// in\n    tag_181:\n        /* \"#utility.yul\":3302:3374   */\n      tag_182\n        /* \"#utility.yul\":3370:3372   */\n      0x60\n        /* \"#utility.yul\":3359:3368   */\n      dup4\n        /* \"#utility.yul\":3355:3373   */\n      add\n        /* \"#utility.yul\":3346:3352   */\n      dup9\n        /* \"#utility.yul\":3302:3374   */\n      tag_116\n      jump\t// in\n    tag_182:\n        /* \"#utility.yul\":3384:3457   */\n      tag_183\n        /* \"#utility.yul\":3452:3455   */\n      0x80\n        /* \"#utility.yul\":3441:3450   */\n      dup4\n        /* \"#utility.yul\":3437:3456   */\n      add\n        /* \"#utility.yul\":3428:3434   */\n      dup8\n        /* \"#utility.yul\":3384:3457   */\n      tag_116\n      jump\t// in\n    tag_183:\n        /* \"#utility.yul\":3467:3540   */\n      tag_184\n        /* \"#utility.yul\":3535:3538   */\n      0xa0\n        /* \"#utility.yul\":3524:3533   */\n      dup4\n        /* \"#utility.yul\":3520:3539   */\n      add\n        /* \"#utility.yul\":3511:3517   */\n      dup7\n        /* \"#utility.yul\":3467:3540   */\n      tag_116\n      jump\t// in\n    tag_184:\n        /* \"#utility.yul\":3550:3623   */\n      tag_185\n        /* \"#utility.yul\":3618:3621   */\n      0xc0\n        /* \"#utility.yul\":3607:3616   */\n      dup4\n        /* \"#utility.yul\":3603:3622   */\n      add\n        /* \"#utility.yul\":3594:3600   */\n      dup6\n        /* \"#utility.yul\":3550:3623   */\n      tag_116\n      jump\t// in\n    tag_185:\n        /* \"#utility.yul\":3633:3706   */\n      tag_186\n        /* \"#utility.yul\":3701:3704   */\n      0xe0\n        /* \"#utility.yul\":3690:3699   */\n      dup4\n        /* \"#utility.yul\":3686:3705   */\n      add\n        /* \"#utility.yul\":3677:3683   */\n      dup5\n        /* \"#utility.yul\":3633:3706   */\n      tag_116\n      jump\t// in\n    tag_186:\n        /* \"#utility.yul\":2716:3713   */\n      swap10\n      swap9\n      pop\n      pop\n      pop\n      pop\n      pop\n      pop\n      pop\n      pop\n      pop\n      jump\t// out\n        /* \"#utility.yul\":3719:3779   */\n    tag_127:\n        /* \"#utility.yul\":3747:3750   */\n      0x00\n        /* \"#utility.yul\":3768:3773   */\n      dup2\n        /* \"#utility.yul\":3761:3773   */\n      swap1\n      pop\n        /* \"#utility.yul\":3719:3779   */\n      swap2\n      swap1\n      pop\n      jump\t// out\n        /* \"#utility.yul\":3785:3927   */\n    tag_128:\n        /* \"#utility.yul\":3835:3844   */\n      0x00\n        /* \"#utility.yul\":3868:3921   */\n      tag_189\n        /* \"#utility.yul\":3886:3920   */\n      tag_190\n        /* \"#utility.yul\":3895:3919   */\n      tag_191\n        /* \"#utility.yul\":3913:3918   */\n      dup5\n        /* \"#utility.yul\":3895:3919   */\n      tag_117\n      jump\t// in\n    tag_191:\n        /* \"#utility.yul\":3886:3920   */\n      tag_127\n      jump\t// in\n    tag_190:\n        /* \"#utility.yul\":3868:3921   */\n      tag_117\n      jump\t// in\n    tag_189:\n        /* \"#utility.yul\":3855:3921   */\n      swap1\n      pop\n        /* \"#utility.yul\":3785:3927   */\n      swap2\n      swap1\n      pop\n      jump\t// out\n        /* \"#utility.yul\":3933:4059   */\n    tag_129:\n        /* \"#utility.yul\":3983:3992   */\n      0x00\n        /* \"#utility.yul\":4016:4053   */\n      tag_193\n        /* \"#utility.yul\":4047:4052   */\n      dup3\n        /* \"#utility.yul\":4016:4053   */\n      tag_128\n      jump\t// in\n    tag_193:\n        /* \"#utility.yul\":4003:4053   */\n      swap1\n      pop\n        /* \"#utility.yul\":3933:4059   */\n      swap2\n      swap1\n      pop\n      jump\t// out\n        /* \"#utility.yul\":4065:4204   */\n    tag_130:\n        /* \"#utility.yul\":4128:4137   */\n      0x00\n        /* \"#utility.yul\":4161:4198   */\n      tag_195\n        /* \"#utility.yul\":4192:4197   */\n      dup3\n        /* \"#utility.yul\":4161:4198   */\n      tag_129\n      jump\t// in\n    tag_195:\n        /* \"#utility.yul\":4148:4198   */\n      swap1\n      pop\n        /* \"#utility.yul\":4065:4204   */\n      swap2\n      swap1\n      pop\n      jump\t// out\n        /* \"#utility.yul\":4210:4367   */\n    tag_131:\n        /* \"#utility.yul\":4310:4360   */\n      tag_197\n        /* \"#utility.yul\":4354:4359   */\n      dup2\n        /* \"#utility.yul\":4310:4360   */\n      tag_130\n      jump\t// in\n    tag_197:\n        /* \"#utility.yul\":4305:4308   */\n      dup3\n        /* \"#utility.yul\":4298:4361   */\n      mstore\n        /* \"#utility.yul\":4210:4367   */\n      pop\n      pop\n      jump\t// out\n        /* \"#utility.yul\":4373:4621   */\n    tag_55:\n        /* \"#utility.yul\":4479:4483   */\n      0x00\n        /* \"#utility.yul\":4517:4519   */\n      0x20\n        /* \"#utility.yul\":4506:4515   */\n      dup3\n        /* \"#utility.yul\":4502:4520   */\n      add\n        /* \"#utility.yul\":4494:4520   */\n      swap1\n      pop\n        /* \"#utility.yul\":4530:4614   */\n      tag_199\n        /* \"#utility.yul\":4611:4612   */\n      0x00\n        /* \"#utility.yul\":4600:4609   */\n      dup4\n        /* \"#utility.yul\":4596:4613   */\n      add\n        /* \"#utility.yul\":4587:4593   */\n      dup5\n        /* \"#utility.yul\":4530:4614   */\n      tag_131\n      jump\t// in\n    tag_199:\n        /* \"#utility.yul\":4373:4621   */\n      swap3\n      swap2\n      pop\n      pop\n      jump\t// out\n        /* \"#utility.yul\":4627:4807   */\n    tag_132:\n        /* \"#utility.yul\":4675:4752   */\n      0x4e487b7100000000000000000000000000000000000000000000000000000000\n        /* \"#utility.yul\":4672:4673   */\n      0x00\n        /* \"#utility.yul\":4665:4753   */\n      mstore\n        /* \"#utility.yul\":4772:4776   */\n      0x11\n        /* \"#utility.yul\":4769:4770   */\n      0x04\n        /* \"#utility.yul\":4762:4777   */\n      mstore\n        /* \"#utility.yul\":4796:4800   */\n      0x24\n        /* \"#utility.yul\":4793:4794   */\n      0x00\n        /* \"#utility.yul\":4786:4801   */\n      revert\n        /* \"#utility.yul\":4813:5007   */\n    tag_60:\n        /* \"#utility.yul\":4853:4857   */\n      0x00\n        /* \"#utility.yul\":4873:4893   */\n      tag_202\n        /* \"#utility.yul\":4891:4892   */\n      dup3\n        /* \"#utility.yul\":4873:4893   */\n      tag_115\n      jump\t// in\n    tag_202:\n        /* \"#utility.yul\":4868:4893   */\n      swap2\n      pop\n        /* \"#utility.yul\":4907:4927   */\n      tag_203\n        /* \"#utility.yul\":4925:4926   */\n      dup4\n        /* \"#utility.yul\":4907:4927   */\n      tag_115\n      jump\t// in\n    tag_203:\n        /* \"#utility.yul\":4902:4927   */\n      swap3\n      pop\n        /* \"#utility.yul\":4951:4952   */\n      dup3\n        /* \"#utility.yul\":4948:4949   */\n      dup3\n        /* \"#utility.yul\":4944:4953   */\n      sub\n        /* \"#utility.yul\":4936:4953   */\n      swap1\n      pop\n        /* \"#utility.yul\":4975:4976   */\n      dup2\n        /* \"#utility.yul\":4969:4973   */\n      dup2\n        /* \"#utility.yul\":4966:4977   */\n      gt\n        /* \"#utility.yul\":4963:5000   */\n      iszero\n      tag_204\n      jumpi\n        /* \"#utility.yul\":4980:4998   */\n      tag_205\n      tag_132\n      jump\t// in\n    tag_205:\n        /* \"#utility.yul\":4963:5000   */\n    tag_204:\n        /* \"#utility.yul\":4813:5007   */\n      swap3\n      swap2\n      pop\n      pop\n      jump\t// out\n        /* \"#utility.yul\":5013:5182   */\n    tag_133:\n        /* \"#utility.yul\":5097:5108   */\n      0x00\n        /* \"#utility.yul\":5131:5137   */\n      dup3\n        /* \"#utility.yul\":5126:5129   */\n      dup3\n        /* \"#utility.yul\":5119:5138   */\n      mstore\n        /* \"#utility.yul\":5171:5175   */\n      0x20\n        /* \"#utility.yul\":5166:5169   */\n      dup3\n        /* \"#utility.yul\":5162:5176   */\n      add\n        /* \"#utility.yul\":5147:5176   */\n      swap1\n      pop\n        /* \"#utility.yul\":5013:5182   */\n      swap3\n      swap2\n      pop\n      pop\n      jump\t// out\n        /* \"#utility.yul\":5188:5354   */\n    tag_134:\n        /* \"#utility.yul\":5328:5346   */\n      0x4e6f7468696e6720746f20636c61696d00000000000000000000000000000000\n        /* \"#utility.yul\":5324:5325   */\n      0x00\n        /* \"#utility.yul\":5316:5322   */\n      dup3\n        /* \"#utility.yul\":5312:5326   */\n      add\n        /* \"#utility.yul\":5305:5347   */\n      mstore\n        /* \"#utility.yul\":5188:5354   */\n      pop\n      jump\t// out\n        /* \"#utility.yul\":5360:5726   */\n    tag_135:\n        /* \"#utility.yul\":5502:5505   */\n      0x00\n        /* \"#utility.yul\":5523:5590   */\n      tag_209\n        /* \"#utility.yul\":5587:5589   */\n      0x10\n        /* \"#utility.yul\":5582:5585   */\n      dup4\n        /* \"#utility.yul\":5523:5590   */\n      tag_133\n      jump\t// in\n    tag_209:\n        /* \"#utility.yul\":5516:5590   */\n      swap2\n      pop\n        /* \"#utility.yul\":5599:5692   */\n      tag_210\n        /* \"#utility.yul\":5688:5691   */\n      dup3\n        /* \"#utility.yul\":5599:5692   */\n      tag_134\n      jump\t// in\n    tag_210:\n        /* \"#utility.yul\":5717:5719   */\n      0x20\n        /* \"#utility.yul\":5712:5715   */\n      dup3\n        /* \"#utility.yul\":5708:5720   */\n      add\n        /* \"#utility.yul\":5701:5720   */\n      swap1\n      pop\n        /* \"#utility.yul\":5360:5726   */\n      swap2\n      swap1\n      pop\n      jump\t// out\n        /* \"#utility.yul\":5732:6151   */\n    tag_63:\n        /* \"#utility.yul\":5898:5902   */\n      0x00\n        /* \"#utility.yul\":5936:5938   */\n      0x20\n        /* \"#utility.yul\":5925:5934   */\n      dup3\n        /* \"#utility.yul\":5921:5939   */\n      add\n        /* \"#utility.yul\":5913:5939   */\n      swap1\n      pop\n        /* \"#utility.yul\":5985:5994   */\n      dup2\n        /* \"#utility.yul\":5979:5983   */\n      dup2\n        /* \"#utility.yul\":5975:5995   */\n      sub\n        /* \"#utility.yul\":5971:5972   */\n      0x00\n        /* \"#utility.yul\":5960:5969   */\n      dup4\n        /* \"#utility.yul\":5956:5973   */\n      add\n        /* \"#utility.yul\":5949:5996   */\n      mstore\n        /* \"#utility.yul\":6013:6144   */\n      tag_212\n        /* \"#utility.yul\":6139:6143   */\n      dup2\n        /* \"#utility.yul\":6013:6144   */\n      tag_135\n      jump\t// in\n    tag_212:\n        /* \"#utility.yul\":6005:6144   */\n      swap1\n      pop\n        /* \"#utility.yul\":5732:6151   */\n      swap2\n      swap1\n      pop\n      jump\t// out\n        /* \"#utility.yul\":6157:6300   */\n    tag_136:\n        /* \"#utility.yul\":6214:6219   */\n      0x00\n        /* \"#utility.yul\":6245:6251   */\n      dup2\n        /* \"#utility.yul\":6239:6252   */\n      mload\n        /* \"#utility.yul\":6230:6252   */\n      swap1\n      pop\n        /* \"#utility.yul\":6261:6294   */\n      tag_214\n        /* \"#utility.yul\":6288:6293   */\n      dup2\n        /* \"#utility.yul\":6261:6294   */\n      tag_125\n      jump\t// in\n    tag_214:\n        /* \"#utility.yul\":6157:6300   */\n      swap3\n      swap2\n      pop\n      pop\n      jump\t// out\n        /* \"#utility.yul\":6306:6657   */\n    tag_68:\n        /* \"#utility.yul\":6376:6382   */\n      0x00\n        /* \"#utility.yul\":6425:6427   */\n      0x20\n        /* \"#utility.yul\":6413:6422   */\n      dup3\n        /* \"#utility.yul\":6404:6411   */\n      dup5\n        /* \"#utility.yul\":6400:6423   */\n      sub\n        /* \"#utility.yul\":6396:6428   */\n      slt\n        /* \"#utility.yul\":6393:6512   */\n      iszero\n      tag_216\n      jumpi\n        /* \"#utility.yul\":6431:6510   */\n      tag_217\n      tag_121\n      jump\t// in\n    tag_217:\n        /* \"#utility.yul\":6393:6512   */\n    tag_216:\n        /* \"#utility.yul\":6551:6552   */\n      0x00\n        /* \"#utility.yul\":6576:6640   */\n      tag_218\n        /* \"#utility.yul\":6632:6639   */\n      dup5\n        /* \"#utility.yul\":6623:6629   */\n      dup3\n        /* \"#utility.yul\":6612:6621   */\n      dup6\n        /* \"#utility.yul\":6608:6630   */\n      add\n        /* \"#utility.yul\":6576:6640   */\n      tag_136\n      jump\t// in\n    tag_218:\n        /* \"#utility.yul\":6566:6640   */\n      swap2\n      pop\n        /* \"#utility.yul\":6522:6650   */\n      pop\n        /* \"#utility.yul\":6306:6657   */\n      swap3\n      swap2\n      pop\n      pop\n      jump\t// out\n        /* \"#utility.yul\":6663:6854   */\n    tag_71:\n        /* \"#utility.yul\":6703:6706   */\n      0x00\n        /* \"#utility.yul\":6722:6742   */\n      tag_220\n        /* \"#utility.yul\":6740:6741   */\n      dup3\n        /* \"#utility.yul\":6722:6742   */\n      tag_115\n      jump\t// in\n    tag_220:\n        /* \"#utility.yul\":6717:6742   */\n      swap2\n      pop\n        /* \"#utility.yul\":6756:6776   */\n      tag_221\n        /* \"#utility.yul\":6774:6775   */\n      dup4\n        /* \"#utility.yul\":6756:6776   */\n      tag_115\n      jump\t// in\n    tag_221:\n        /* \"#utility.yul\":6751:6776   */\n      swap3\n      pop\n        /* \"#utility.yul\":6799:6800   */\n      dup3\n        /* \"#utility.yul\":6796:6797   */\n      dup3\n        /* \"#utility.yul\":6792:6801   */\n      add\n        /* \"#utility.yul\":6785:6801   */\n      swap1\n      pop\n        /* \"#utility.yul\":6820:6823   */\n      dup1\n        /* \"#utility.yul\":6817:6818   */\n      dup3\n        /* \"#utility.yul\":6814:6824   */\n      gt\n        /* \"#utility.yul\":6811:6847   */\n      iszero\n      tag_222\n      jumpi\n        /* \"#utility.yul\":6827:6845   */\n      tag_223\n      tag_132\n      jump\t// in\n    tag_223:\n        /* \"#utility.yul\":6811:6847   */\n    tag_222:\n        /* \"#utility.yul\":6663:6854   */\n      swap3\n      swap2\n      pop\n      pop\n      jump\t// out\n        /* \"#utility.yul\":6860:7192   */\n    tag_73:\n        /* \"#utility.yul\":6981:6985   */\n      0x00\n        /* \"#utility.yul\":7019:7021   */\n      0x40\n        /* \"#utility.yul\":7008:7017   */\n      dup3\n        /* \"#utility.yul\":7004:7022   */\n      add\n        /* \"#utility.yul\":6996:7022   */\n      swap1\n      pop\n        /* \"#utility.yul\":7032:7103   */\n      tag_225\n        /* \"#utility.yul\":7100:7101   */\n      0x00\n        /* \"#utility.yul\":7089:7098   */\n      dup4\n        /* \"#utility.yul\":7085:7102   */\n      add\n        /* \"#utility.yul\":7076:7082   */\n      dup6\n        /* \"#utility.yul\":7032:7103   */\n      tag_119\n      jump\t// in\n    tag_225:\n        /* \"#utility.yul\":7113:7185   */\n      tag_226\n        /* \"#utility.yul\":7181:7183   */\n      0x20\n        /* \"#utility.yul\":7170:7179   */\n      dup4\n        /* \"#utility.yul\":7166:7184   */\n      add\n        /* \"#utility.yul\":7157:7163   */\n      dup5\n        /* \"#utility.yul\":7113:7185   */\n      tag_116\n      jump\t// in\n    tag_226:\n        /* \"#utility.yul\":6860:7192   */\n      swap4\n      swap3\n      pop\n      pop\n      pop\n      jump\t// out\n        /* \"#utility.yul\":7198:7288   */\n    tag_137:\n        /* \"#utility.yul\":7232:7239   */\n      0x00\n        /* \"#utility.yul\":7275:7280   */\n      dup2\n        /* \"#utility.yul\":7268:7281   */\n      iszero\n        /* \"#utility.yul\":7261:7282   */\n      iszero\n        /* \"#utility.yul\":7250:7282   */\n      swap1\n      pop\n        /* \"#utility.yul\":7198:7288   */\n      swap2\n      swap1\n      pop\n      jump\t// out\n        /* \"#utility.yul\":7294:7410   */\n    tag_138:\n        /* \"#utility.yul\":7364:7385   */\n      tag_229\n        /* \"#utility.yul\":7379:7384   */\n      dup2\n        /* \"#utility.yul\":7364:7385   */\n      tag_137\n      jump\t// in\n    tag_229:\n        /* \"#utility.yul\":7357:7362   */\n      dup2\n        /* \"#utility.yul\":7354:7386   */\n      eq\n        /* \"#utility.yul\":7344:7404   */\n      tag_230\n      jumpi\n        /* \"#utility.yul\":7400:7401   */\n      0x00\n        /* \"#utility.yul\":7397:7398   */\n      0x00\n        /* \"#utility.yul\":7390:7402   */\n      revert\n        /* \"#utility.yul\":7344:7404   */\n    tag_230:\n        /* \"#utility.yul\":7294:7410   */\n      pop\n      jump\t// out\n        /* \"#utility.yul\":7416:7553   */\n    tag_139:\n        /* \"#utility.yul\":7470:7475   */\n      0x00\n        /* \"#utility.yul\":7501:7507   */\n      dup2\n        /* \"#utility.yul\":7495:7508   */\n      mload\n        /* \"#utility.yul\":7486:7508   */\n      swap1\n      pop\n        /* \"#utility.yul\":7517:7547   */\n      tag_232\n        /* \"#utility.yul\":7541:7546   */\n      dup2\n        /* \"#utility.yul\":7517:7547   */\n      tag_138\n      jump\t// in\n    tag_232:\n        /* \"#utility.yul\":7416:7553   */\n      swap3\n      swap2\n      pop\n      pop\n      jump\t// out\n        /* \"#utility.yul\":7559:7904   */\n    tag_77:\n        /* \"#utility.yul\":7626:7632   */\n      0x00\n        /* \"#utility.yul\":7675:7677   */\n      0x20\n        /* \"#utility.yul\":7663:7672   */\n      dup3\n        /* \"#utility.yul\":7654:7661   */\n      dup5\n        /* \"#utility.yul\":7650:7673   */\n      sub\n        /* \"#utility.yul\":7646:7678   */\n      slt\n        /* \"#utility.yul\":7643:7762   */\n      iszero\n      tag_234\n      jumpi\n        /* \"#utility.yul\":7681:7760   */\n      tag_235\n      tag_121\n      jump\t// in\n    tag_235:\n        /* \"#utility.yul\":7643:7762   */\n    tag_234:\n        /* \"#utility.yul\":7801:7802   */\n      0x00\n        /* \"#utility.yul\":7826:7887   */\n      tag_236\n        /* \"#utility.yul\":7879:7886   */\n      dup5\n        /* \"#utility.yul\":7870:7876   */\n      dup3\n        /* \"#utility.yul\":7859:7868   */\n      dup6\n        /* \"#utility.yul\":7855:7877   */\n      add\n        /* \"#utility.yul\":7826:7887   */\n      tag_139\n      jump\t// in\n    tag_236:\n        /* \"#utility.yul\":7816:7887   */\n      swap2\n      pop\n        /* \"#utility.yul\":7772:7897   */\n      pop\n        /* \"#utility.yul\":7559:7904   */\n      swap3\n      swap2\n      pop\n      pop\n      jump\t// out\n        /* \"#utility.yul\":7910:8069   */\n    tag_140:\n        /* \"#utility.yul\":8050:8061   */\n      0x4e6f74204f776e65720000000000000000000000000000000000000000000000\n        /* \"#utility.yul\":8046:8047   */\n      0x00\n        /* \"#utility.yul\":8038:8044   */\n      dup3\n        /* \"#utility.yul\":8034:8048   */\n      add\n        /* \"#utility.yul\":8027:8062   */\n      mstore\n        /* \"#utility.yul\":7910:8069   */\n      pop\n      jump\t// out\n        /* \"#utility.yul\":8075:8440   */\n    tag_141:\n        /* \"#utility.yul\":8217:8220   */\n      0x00\n        /* \"#utility.yul\":8238:8304   */\n      tag_239\n        /* \"#utility.yul\":8302:8303   */\n      0x09\n        /* \"#utility.yul\":8297:8300   */\n      dup4\n        /* \"#utility.yul\":8238:8304   */\n      tag_133\n      jump\t// in\n    tag_239:\n        /* \"#utility.yul\":8231:8304   */\n      swap2\n      pop\n        /* \"#utility.yul\":8313:8406   */\n      tag_240\n        /* \"#utility.yul\":8402:8405   */\n      dup3\n        /* \"#utility.yul\":8313:8406   */\n      tag_140\n      jump\t// in\n    tag_240:\n        /* \"#utility.yul\":8431:8433   */\n      0x20\n        /* \"#utility.yul\":8426:8429   */\n      dup3\n        /* \"#utility.yul\":8422:8434   */\n      add\n        /* \"#utility.yul\":8415:8434   */\n      swap1\n      pop\n        /* \"#utility.yul\":8075:8440   */\n      swap2\n      swap1\n      pop\n      jump\t// out\n        /* \"#utility.yul\":8446:8865   */\n    tag_81:\n        /* \"#utility.yul\":8612:8616   */\n      0x00\n        /* \"#utility.yul\":8650:8652   */\n      0x20\n        /* \"#utility.yul\":8639:8648   */\n      dup3\n        /* \"#utility.yul\":8635:8653   */\n      add\n        /* \"#utility.yul\":8627:8653   */\n      swap1\n      pop\n        /* \"#utility.yul\":8699:8708   */\n      dup2\n        /* \"#utility.yul\":8693:8697   */\n      dup2\n        /* \"#utility.yul\":8689:8709   */\n      sub\n        /* \"#utility.yul\":8685:8686   */\n      0x00\n        /* \"#utility.yul\":8674:8683   */\n      dup4\n        /* \"#utility.yul\":8670:8687   */\n      add\n        /* \"#utility.yul\":8663:8710   */\n      mstore\n        /* \"#utility.yul\":8727:8858   */\n      tag_242\n        /* \"#utility.yul\":8853:8857   */\n      dup2\n        /* \"#utility.yul\":8727:8858   */\n      tag_141\n      jump\t// in\n    tag_242:\n        /* \"#utility.yul\":8719:8858   */\n      swap1\n      pop\n        /* \"#utility.yul\":8446:8865   */\n      swap2\n      swap1\n      pop\n      jump\t// out\n        /* \"#utility.yul\":8871:9281   */\n    tag_84:\n        /* \"#utility.yul\":8911:8918   */\n      0x00\n        /* \"#utility.yul\":8934:8954   */\n      tag_244\n        /* \"#utility.yul\":8952:8953   */\n      dup3\n        /* \"#utility.yul\":8934:8954   */\n      tag_115\n      jump\t// in\n    tag_244:\n        /* \"#utility.yul\":8929:8954   */\n      swap2\n      pop\n        /* \"#utility.yul\":8968:8988   */\n      tag_245\n        /* \"#utility.yul\":8986:8987   */\n      dup4\n        /* \"#utility.yul\":8968:8988   */\n      tag_115\n      jump\t// in\n    tag_245:\n        /* \"#utility.yul\":8963:8988   */\n      swap3\n      pop\n        /* \"#utility.yul\":9023:9024   */\n      dup3\n        /* \"#utility.yul\":9020:9021   */\n      dup3\n        /* \"#utility.yul\":9016:9025   */\n      mul\n        /* \"#utility.yul\":9045:9075   */\n      tag_246\n        /* \"#utility.yul\":9063:9074   */\n      dup2\n        /* \"#utility.yul\":9045:9075   */\n      tag_115\n      jump\t// in\n    tag_246:\n        /* \"#utility.yul\":9034:9075   */\n      swap2\n      pop\n        /* \"#utility.yul\":9224:9225   */\n      dup3\n        /* \"#utility.yul\":9215:9222   */\n      dup3\n        /* \"#utility.yul\":9211:9226   */\n      div\n        /* \"#utility.yul\":9208:9209   */\n      dup5\n        /* \"#utility.yul\":9205:9227   */\n      eq\n        /* \"#utility.yul\":9185:9186   */\n      dup4\n        /* \"#utility.yul\":9178:9187   */\n      iszero\n        /* \"#utility.yul\":9158:9241   */\n      or\n        /* \"#utility.yul\":9135:9274   */\n      tag_247\n      jumpi\n        /* \"#utility.yul\":9254:9272   */\n      tag_248\n      tag_132\n      jump\t// in\n    tag_248:\n        /* \"#utility.yul\":9135:9274   */\n    tag_247:\n        /* \"#utility.yul\":8919:9281   */\n      pop\n        /* \"#utility.yul\":8871:9281   */\n      swap3\n      swap2\n      pop\n      pop\n      jump\t// out\n        /* \"#utility.yul\":9287:9467   */\n    tag_142:\n        /* \"#utility.yul\":9335:9412   */\n      0x4e487b7100000000000000000000000000000000000000000000000000000000\n        /* \"#utility.yul\":9332:9333   */\n      0x00\n        /* \"#utility.yul\":9325:9413   */\n      mstore\n        /* \"#utility.yul\":9432:9436   */\n      0x12\n        /* \"#utility.yul\":9429:9430   */\n      0x04\n        /* \"#utility.yul\":9422:9437   */\n      mstore\n        /* \"#utility.yul\":9456:9460   */\n      0x24\n        /* \"#utility.yul\":9453:9454   */\n      0x00\n        /* \"#utility.yul\":9446:9461   */\n      revert\n        /* \"#utility.yul\":9473:9658   */\n    tag_114:\n        /* \"#utility.yul\":9513:9514   */\n      0x00\n        /* \"#utility.yul\":9530:9550   */\n      tag_251\n        /* \"#utility.yul\":9548:9549   */\n      dup3\n        /* \"#utility.yul\":9530:9550   */\n      tag_115\n      jump\t// in\n    tag_251:\n        /* \"#utility.yul\":9525:9550   */\n      swap2\n      pop\n        /* \"#utility.yul\":9564:9584   */\n      tag_252\n        /* \"#utility.yul\":9582:9583   */\n      dup4\n        /* \"#utility.yul\":9564:9584   */\n      tag_115\n      jump\t// in\n    tag_252:\n        /* \"#utility.yul\":9559:9584   */\n      swap3\n      pop\n        /* \"#utility.yul\":9603:9604   */\n      dup3\n        /* \"#utility.yul\":9593:9628   */\n      tag_253\n      jumpi\n        /* \"#utility.yul\":9608:9626   */\n      tag_254\n      tag_142\n      jump\t// in\n    tag_254:\n        /* \"#utility.yul\":9593:9628   */\n    tag_253:\n        /* \"#utility.yul\":9650:9651   */\n      dup3\n        /* \"#utility.yul\":9647:9648   */\n      dup3\n        /* \"#utility.yul\":9643:9652   */\n      div\n        /* \"#utility.yul\":9638:9652   */\n      swap1\n      pop\n        /* \"#utility.yul\":9473:9658   */\n      swap3\n      swap2\n      pop\n      pop\n      jump\t// out\n\n    auxdata: 0xa2646970667358221220394d7f939488f14fe4acf2eeb33eeae35346c1a35f7397f338c625fd0f74737164736f6c634300081e0033\n}\n",
				"bytecode": {
					"linkReferences": {},
					"object": "610120604052348015610010575f5ffd5b50604051611573380380611573833981810160405281019061003291906102bc565b60018160ff161015801561004a575060048160ff1611155b610089576040517f08c379a00000000000000000000000000000000000000000000000000000000081526004016100809061037a565b60405180910390fd5b5f83116100cb576040517f08c379a00000000000000000000000000000000000000000000000000000000081526004016100c2906103e2565b60405180910390fd5b8282111561010e576040517f08c379a00000000000000000000000000000000000000000000000000000000081526004016101059061044a565b60405180910390fd5b8373ffffffffffffffffffffffffffffffffffffffff1660808173ffffffffffffffffffffffffffffffffffffffff16815250503373ffffffffffffffffffffffffffffffffffffffff1660a08173ffffffffffffffffffffffffffffffffffffffff16815250504260c081815250505f60018260ff16146101ba5760028260ff16146101b25760038260ff16146101a957620151806101ad565b610e105b6101b5565b603c5b6101bd565b60015b62ffffff16905080846101d09190610495565b60e0818152505080836101e39190610495565b610100818152505050505050506104d6565b5f5ffd5b5f73ffffffffffffffffffffffffffffffffffffffff82169050919050565b5f610222826101f9565b9050919050565b61023281610218565b811461023c575f5ffd5b50565b5f8151905061024d81610229565b92915050565b5f819050919050565b61026581610253565b811461026f575f5ffd5b50565b5f815190506102808161025c565b92915050565b5f60ff82169050919050565b61029b81610286565b81146102a5575f5ffd5b50565b5f815190506102b681610292565b92915050565b5f5f5f5f608085870312156102d4576102d36101f5565b5b5f6102e18782880161023f565b94505060206102f287828801610272565b935050604061030387828801610272565b9250506060610314878288016102a8565b91505092959194509250565b5f82825260208201905092915050565b7f496e76616c69642074696d6520756e69740000000000000000000000000000005f82015250565b5f610364601183610320565b915061036f82610330565b602082019050919050565b5f6020820190508181035f83015261039181610358565b9050919050565b7f4475726174696f6e206d7573742062652067726561746572207468616e2030005f82015250565b5f6103cc601f83610320565b91506103d782610398565b602082019050919050565b5f6020820190508181035f8301526103f9816103c0565b9050919050565b7f436c6966662063616e6e6f7420657863656564206475726174696f6e000000005f82015250565b5f610434601c83610320565b915061043f82610400565b602082019050919050565b5f6020820190508181035f83015261046181610428565b9050919050565b7f4e487b71000000000000000000000000000000000000000000000000000000005f52601160045260245ffd5b5f61049f82610253565b91506104aa83610253565b92508282026104b881610253565b915082820484148315176104cf576104ce610468565b5b5092915050565b60805160a05160c05160e05161010051610ff06105835f395f81816102420152818161076d015281816107bb01528181610814015261096e01525f818161021e01528181610a390152610a6a01525f818161049b0152818161078e015281816107dc015281816108350152818161098f0152610a0b01525f81816104c401526104e801525f8181610301015281816103fa0152818161058d015281816106d301526109490152610ff05ff3fe608060405234801561000f575f5ffd5b50600436106100a7575f3560e01c80638da5cb5b1161006f5780638da5cb5b1461012d57806396074e701461014b578063a1e3285c14610167578063b81b86301461019e578063c884ef83146101ce578063fc0c546a146101fe576100a7565b80630fb5a6b4146100ab57806313d033c0146100c95780634e71d92d146100e757806378e97925146100f157806379203dc41461010f575b5f5ffd5b6100b361021c565b6040516100c09190610ac1565b60405180910390f35b6100d1610240565b6040516100de9190610ac1565b60405180910390f35b6100ef610264565b005b6100f9610499565b6040516101069190610ac1565b60405180910390f35b6101176104bd565b6040516101249190610ac1565b60405180910390f35b6101356104c2565b6040516101429190610b19565b60405180910390f35b61016560048036038101906101609190610b8a565b6104e6565b005b610181600480360381019061017c9190610bc8565b6106c6565b604051610195989796959493929190610bf3565b60405180910390f35b6101b860048036038101906101b39190610bc8565b61091d565b6040516101c59190610ac1565b60405180910390f35b6101e860048036038101906101e39190610bc8565b610932565b6040516101f59190610ac1565b60405180910390f35b610206610947565b6040516102139190610cca565b60405180910390f35b7f000000000000000000000000000000000000000000000000000000000000000081565b7f000000000000000000000000000000000000000000000000000000000000000081565b5f61026e3361096b565b90505f60025f3373ffffffffffffffffffffffffffffffffffffffff1673ffffffffffffffffffffffffffffffffffffffff1681526020019081526020015f2054826102ba9190610d10565b90505f81116102fe576040517f08c379a00000000000000000000000000000000000000000000000000000000081526004016102f590610d9d565b60405180910390fd5b5f7f000000000000000000000000000000000000000000000000000000000000000073ffffffffffffffffffffffffffffffffffffffff166370a08231306040518263ffffffff1660e01b81526004016103589190610b19565b602060405180830381865afa158015610373573d5f5f3e3d5ffd5b505050506040513d601f19601f820116820180604052508101906103979190610dcf565b9050808211156103a5578091505b8160025f3373ffffffffffffffffffffffffffffffffffffffff1673ffffffffffffffffffffffffffffffffffffffff1681526020019081526020015f205f8282546103f19190610dfa565b925050819055507f000000000000000000000000000000000000000000000000000000000000000073ffffffffffffffffffffffffffffffffffffffff1663a9059cbb33846040518363ffffffff1660e01b8152600401610453929190610e2d565b6020604051808303815f875af115801561046f573d5f5f3e3d5ffd5b505050506040513d601f19601f820116820180604052508101906104939190610e89565b50505050565b7f000000000000000000000000000000000000000000000000000000000000000081565b5f5481565b7f000000000000000000000000000000000000000000000000000000000000000081565b7f000000000000000000000000000000000000000000000000000000000000000073ffffffffffffffffffffffffffffffffffffffff163373ffffffffffffffffffffffffffffffffffffffff1614610574576040517f08c379a000000000000000000000000000000000000000000000000000000000815260040161056b90610efe565b60405180910390fd5b5f670de0b6b3a7640000826105899190610f1c565b90507f000000000000000000000000000000000000000000000000000000000000000073ffffffffffffffffffffffffffffffffffffffff166370a08231306040518263ffffffff1660e01b81526004016105e49190610b19565b602060405180830381865afa1580156105ff573d5f5f3e3d5ffd5b505050506040513d601f19601f820116820180604052508101906106239190610dcf565b815f546106309190610dfa565b1115610668576040517fe2969e3100000000000000000000000000000000000000000000000000000000815260040160405180910390fd5b8060015f8573ffffffffffffffffffffffffffffffffffffffff1673ffffffffffffffffffffffffffffffffffffffff1681526020019081526020015f2081905550805f5f8282546106ba9190610dfa565b92505081905550505050565b5f5f5f5f5f5f5f5f4297507f000000000000000000000000000000000000000000000000000000000000000073ffffffffffffffffffffffffffffffffffffffff166370a08231306040518263ffffffff1660e01b815260040161072a9190610b19565b602060405180830381865afa158015610745573d5f5f3e3d5ffd5b505050506040513d601f19601f820116820180604052508101906107699190610dcf565b90507f00000000000000000000000000000000000000000000000000000000000000007f00000000000000000000000000000000000000000000000000000000000000006107b79190610dfa565b96507f00000000000000000000000000000000000000000000000000000000000000007f00000000000000000000000000000000000000000000000000000000000000006108059190610dfa565b4210610811575f610869565b427f00000000000000000000000000000000000000000000000000000000000000007f000000000000000000000000000000000000000000000000000000000000000061085e9190610dfa565b6108689190610d10565b5b955060015f8a73ffffffffffffffffffffffffffffffffffffffff1673ffffffffffffffffffffffffffffffffffffffff1681526020019081526020015f205494506108b48961096b565b935060025f8a73ffffffffffffffffffffffffffffffffffffffff1673ffffffffffffffffffffffffffffffffffffffff1681526020019081526020015f20549250828411610903575f610910565b828461090f9190610d10565b5b9150919395975091939597565b6001602052805f5260405f205f915090505481565b6002602052805f5260405f205f915090505481565b7f000000000000000000000000000000000000000000000000000000000000000081565b5f7f00000000000000000000000000000000000000000000000000000000000000007f00000000000000000000000000000000000000000000000000000000000000006109b89190610dfa565b4210156109c7575f9050610aa4565b5f60015f8473ffffffffffffffffffffffffffffffffffffffff1673ffffffffffffffffffffffffffffffffffffffff1681526020019081526020015f205490505f7f000000000000000000000000000000000000000000000000000000000000000042610a359190610d10565b90507f00000000000000000000000000000000000000000000000000000000000000008110610a68578192505050610aa4565b7f00000000000000000000000000000000000000000000000000000000000000008183610a959190610f1c565b610a9f9190610f8a565b925050505b919050565b5f819050919050565b610abb81610aa9565b82525050565b5f602082019050610ad45f830184610ab2565b92915050565b5f73ffffffffffffffffffffffffffffffffffffffff82169050919050565b5f610b0382610ada565b9050919050565b610b1381610af9565b82525050565b5f602082019050610b2c5f830184610b0a565b92915050565b5f5ffd5b610b3f81610af9565b8114610b49575f5ffd5b50565b5f81359050610b5a81610b36565b92915050565b610b6981610aa9565b8114610b73575f5ffd5b50565b5f81359050610b8481610b60565b92915050565b5f5f60408385031215610ba057610b9f610b32565b5b5f610bad85828601610b4c565b9250506020610bbe85828601610b76565b9150509250929050565b5f60208284031215610bdd57610bdc610b32565b5b5f610bea84828501610b4c565b91505092915050565b5f61010082019050610c075f83018b610ab2565b610c14602083018a610ab2565b610c216040830189610ab2565b610c2e6060830188610ab2565b610c3b6080830187610ab2565b610c4860a0830186610ab2565b610c5560c0830185610ab2565b610c6260e0830184610ab2565b9998505050505050505050565b5f819050919050565b5f610c92610c8d610c8884610ada565b610c6f565b610ada565b9050919050565b5f610ca382610c78565b9050919050565b5f610cb482610c99565b9050919050565b610cc481610caa565b82525050565b5f602082019050610cdd5f830184610cbb565b92915050565b7f4e487b71000000000000000000000000000000000000000000000000000000005f52601160045260245ffd5b5f610d1a82610aa9565b9150610d2583610aa9565b9250828203905081811115610d3d57610d3c610ce3565b5b92915050565b5f82825260208201905092915050565b7f4e6f7468696e6720746f20636c61696d000000000000000000000000000000005f82015250565b5f610d87601083610d43565b9150610d9282610d53565b602082019050919050565b5f6020820190508181035f830152610db481610d7b565b9050919050565b5f81519050610dc981610b60565b92915050565b5f60208284031215610de457610de3610b32565b5b5f610df184828501610dbb565b91505092915050565b5f610e0482610aa9565b9150610e0f83610aa9565b9250828201905080821115610e2757610e26610ce3565b5b92915050565b5f604082019050610e405f830185610b0a565b610e4d6020830184610ab2565b9392505050565b5f8115159050919050565b610e6881610e54565b8114610e72575f5ffd5b50565b5f81519050610e8381610e5f565b92915050565b5f60208284031215610e9e57610e9d610b32565b5b5f610eab84828501610e75565b91505092915050565b7f4e6f74204f776e657200000000000000000000000000000000000000000000005f82015250565b5f610ee8600983610d43565b9150610ef382610eb4565b602082019050919050565b5f6020820190508181035f830152610f1581610edc565b9050919050565b5f610f2682610aa9565b9150610f3183610aa9565b9250828202610f3f81610aa9565b91508282048414831517610f5657610f55610ce3565b5b5092915050565b7f4e487b71000000000000000000000000000000000000000000000000000000005f52601260045260245ffd5b5f610f9482610aa9565b9150610f9f83610aa9565b925082610faf57610fae610f5d565b5b82820490509291505056fea2646970667358221220394d7f939488f14fe4acf2eeb33eeae35346c1a35f7397f338c625fd0f74737164736f6c634300081e0033",
					"opcodes": "PUSH2 0x120 PUSH1 0x40 MSTORE CALLVALUE DUP1 ISZERO PUSH2 0x10 JUMPI PUSH0 PUSH0 REVERT JUMPDEST POP PUSH1 0x40 MLOAD PUSH2 0x1573 CODESIZE SUB DUP1 PUSH2 0x1573 DUP4 CODECOPY DUP2 DUP2 ADD PUSH1 0x40 MSTORE DUP2 ADD SWAP1 PUSH2 0x32 SWAP2 SWAP1 PUSH2 0x2BC JUMP JUMPDEST PUSH1 0x1 DUP2 PUSH1 0xFF AND LT ISZERO DUP1 ISZERO PUSH2 0x4A JUMPI POP PUSH1 0x4 DUP2 PUSH1 0xFF AND GT ISZERO JUMPDEST PUSH2 0x89 JUMPI PUSH1 0x40 MLOAD PUSH32 0x8C379A000000000000000000000000000000000000000000000000000000000 DUP2 MSTORE PUSH1 0x4 ADD PUSH2 0x80 SWAP1 PUSH2 0x37A JUMP JUMPDEST PUSH1 0x40 MLOAD DUP1 SWAP2 SUB SWAP1 REVERT JUMPDEST PUSH0 DUP4 GT PUSH2 0xCB JUMPI PUSH1 0x40 MLOAD PUSH32 0x8C379A000000000000000000000000000000000000000000000000000000000 DUP2 MSTORE PUSH1 0x4 ADD PUSH2 0xC2 SWAP1 PUSH2 0x3E2 JUMP JUMPDEST PUSH1 0x40 MLOAD DUP1 SWAP2 SUB SWAP1 REVERT JUMPDEST DUP3 DUP3 GT ISZERO PUSH2 0x10E JUMPI PUSH1 0x40 MLOAD PUSH32 0x8C379A000000000000000000000000000000000000000000000000000000000 DUP2 MSTORE PUSH1 0x4 ADD PUSH2 0x105 SWAP1 PUSH2 0x44A JUMP JUMPDEST PUSH1 0x40 MLOAD DUP1 SWAP2 SUB SWAP1 REVERT JUMPDEST DUP4 PUSH20 0xFFFFFFFFFFFFFFFFFFFFFFFFFFFFFFFFFFFFFFFF AND PUSH1 0x80 DUP2 PUSH20 0xFFFFFFFFFFFFFFFFFFFFFFFFFFFFFFFFFFFFFFFF AND DUP2 MSTORE POP POP CALLER PUSH20 0xFFFFFFFFFFFFFFFFFFFFFFFFFFFFFFFFFFFFFFFF AND PUSH1 0xA0 DUP2 PUSH20 0xFFFFFFFFFFFFFFFFFFFFFFFFFFFFFFFFFFFFFFFF AND DUP2 MSTORE POP POP TIMESTAMP PUSH1 0xC0 DUP2 DUP2 MSTORE POP POP PUSH0 PUSH1 0x1 DUP3 PUSH1 0xFF AND EQ PUSH2 0x1BA JUMPI PUSH1 0x2 DUP3 PUSH1 0xFF AND EQ PUSH2 0x1B2 JUMPI PUSH1 0x3 DUP3 PUSH1 0xFF AND EQ PUSH2 0x1A9 JUMPI PUSH3 0x15180 PUSH2 0x1AD JUMP JUMPDEST PUSH2 0xE10 JUMPDEST PUSH2 0x1B5 JUMP JUMPDEST PUSH1 0x3C JUMPDEST PUSH2 0x1BD JUMP JUMPDEST PUSH1 0x1 JUMPDEST PUSH3 0xFFFFFF AND SWAP1 POP DUP1 DUP5 PUSH2 0x1D0 SWAP2 SWAP1 PUSH2 0x495 JUMP JUMPDEST PUSH1 0xE0 DUP2 DUP2 MSTORE POP POP DUP1 DUP4 PUSH2 0x1E3 SWAP2 SWAP1 PUSH2 0x495 JUMP JUMPDEST PUSH2 0x100 DUP2 DUP2 MSTORE POP POP POP POP POP POP POP PUSH2 0x4D6 JUMP JUMPDEST PUSH0 PUSH0 REVERT JUMPDEST PUSH0 PUSH20 0xFFFFFFFFFFFFFFFFFFFFFFFFFFFFFFFFFFFFFFFF DUP3 AND SWAP1 POP SWAP2 SWAP1 POP JUMP JUMPDEST PUSH0 PUSH2 0x222 DUP3 PUSH2 0x1F9 JUMP JUMPDEST SWAP1 POP SWAP2 SWAP1 POP JUMP JUMPDEST PUSH2 0x232 DUP2 PUSH2 0x218 JUMP JUMPDEST DUP2 EQ PUSH2 0x23C JUMPI PUSH0 PUSH0 REVERT JUMPDEST POP JUMP JUMPDEST PUSH0 DUP2 MLOAD SWAP1 POP PUSH2 0x24D DUP2 PUSH2 0x229 JUMP JUMPDEST SWAP3 SWAP2 POP POP JUMP JUMPDEST PUSH0 DUP2 SWAP1 POP SWAP2 SWAP1 POP JUMP JUMPDEST PUSH2 0x265 DUP2 PUSH2 0x253 JUMP JUMPDEST DUP2 EQ PUSH2 0x26F JUMPI PUSH0 PUSH0 REVERT JUMPDEST POP JUMP JUMPDEST PUSH0 DUP2 MLOAD SWAP1 POP PUSH2 0x280 DUP2 PUSH2 0x25C JUMP JUMPDEST SWAP3 SWAP2 POP POP JUMP JUMPDEST PUSH0 PUSH1 0xFF DUP3 AND SWAP1 POP SWAP2 SWAP1 POP JUMP JUMPDEST PUSH2 0x29B DUP2 PUSH2 0x286 JUMP JUMPDEST DUP2 EQ PUSH2 0x2A5 JUMPI PUSH0 PUSH0 REVERT JUMPDEST POP JUMP JUMPDEST PUSH0 DUP2 MLOAD SWAP1 POP PUSH2 0x2B6 DUP2 PUSH2 0x292 JUMP JUMPDEST SWAP3 SWAP2 POP POP JUMP JUMPDEST PUSH0 PUSH0 PUSH0 PUSH0 PUSH1 0x80 DUP6 DUP8 SUB SLT ISZERO PUSH2 0x2D4 JUMPI PUSH2 0x2D3 PUSH2 0x1F5 JUMP JUMPDEST JUMPDEST PUSH0 PUSH2 0x2E1 DUP8 DUP3 DUP9 ADD PUSH2 0x23F JUMP JUMPDEST SWAP5 POP POP PUSH1 0x20 PUSH2 0x2F2 DUP8 DUP3 DUP9 ADD PUSH2 0x272 JUMP JUMPDEST SWAP4 POP POP PUSH1 0x40 PUSH2 0x303 DUP8 DUP3 DUP9 ADD PUSH2 0x272 JUMP JUMPDEST SWAP3 POP POP PUSH1 0x60 PUSH2 0x314 DUP8 DUP3 DUP9 ADD PUSH2 0x2A8 JUMP JUMPDEST SWAP2 POP POP SWAP3 SWAP6 SWAP2 SWAP5 POP SWAP3 POP JUMP JUMPDEST PUSH0 DUP3 DUP3 MSTORE PUSH1 0x20 DUP3 ADD SWAP1 POP SWAP3 SWAP2 POP POP JUMP JUMPDEST PUSH32 0x496E76616C69642074696D6520756E6974000000000000000000000000000000 PUSH0 DUP3 ADD MSTORE POP JUMP JUMPDEST PUSH0 PUSH2 0x364 PUSH1 0x11 DUP4 PUSH2 0x320 JUMP JUMPDEST SWAP2 POP PUSH2 0x36F DUP3 PUSH2 0x330 JUMP JUMPDEST PUSH1 0x20 DUP3 ADD SWAP1 POP SWAP2 SWAP1 POP JUMP JUMPDEST PUSH0 PUSH1 0x20 DUP3 ADD SWAP1 POP DUP2 DUP2 SUB PUSH0 DUP4 ADD MSTORE PUSH2 0x391 DUP2 PUSH2 0x358 JUMP JUMPDEST SWAP1 POP SWAP2 SWAP1 POP JUMP JUMPDEST PUSH32 0x4475726174696F6E206D7573742062652067726561746572207468616E203000 PUSH0 DUP3 ADD MSTORE POP JUMP JUMPDEST PUSH0 PUSH2 0x3CC PUSH1 0x1F DUP4 PUSH2 0x320 JUMP JUMPDEST SWAP2 POP PUSH2 0x3D7 DUP3 PUSH2 0x398 JUMP JUMPDEST PUSH1 0x20 DUP3 ADD SWAP1 POP SWAP2 SWAP1 POP JUMP JUMPDEST PUSH0 PUSH1 0x20 DUP3 ADD SWAP1 POP DUP2 DUP2 SUB PUSH0 DUP4 ADD MSTORE PUSH2 0x3F9 DUP2 PUSH2 0x3C0 JUMP JUMPDEST SWAP1 POP SWAP2 SWAP1 POP JUMP JUMPDEST PUSH32 0x436C6966662063616E6E6F7420657863656564206475726174696F6E00000000 PUSH0 DUP3 ADD MSTORE POP JUMP JUMPDEST PUSH0 PUSH2 0x434 PUSH1 0x1C DUP4 PUSH2 0x320 JUMP JUMPDEST SWAP2 POP PUSH2 0x43F DUP3 PUSH2 0x400 JUMP JUMPDEST PUSH1 0x20 DUP3 ADD SWAP1 POP SWAP2 SWAP1 POP JUMP JUMPDEST PUSH0 PUSH1 0x20 DUP3 ADD SWAP1 POP DUP2 DUP2 SUB PUSH0 DUP4 ADD MSTORE PUSH2 0x461 DUP2 PUSH2 0x428 JUMP JUMPDEST SWAP1 POP SWAP2 SWAP1 POP JUMP JUMPDEST PUSH32 0x4E487B7100000000000000000000000000000000000000000000000000000000 PUSH0 MSTORE PUSH1 0x11 PUSH1 0x4 MSTORE PUSH1 0x24 PUSH0 REVERT JUMPDEST PUSH0 PUSH2 0x49F DUP3 PUSH2 0x253 JUMP JUMPDEST SWAP2 POP PUSH2 0x4AA DUP4 PUSH2 0x253 JUMP JUMPDEST SWAP3 POP DUP3 DUP3 MUL PUSH2 0x4B8 DUP2 PUSH2 0x253 JUMP JUMPDEST SWAP2 POP DUP3 DUP3 DIV DUP5 EQ DUP4 ISZERO OR PUSH2 0x4CF JUMPI PUSH2 0x4CE PUSH2 0x468 JUMP JUMPDEST JUMPDEST POP SWAP3 SWAP2 POP POP JUMP JUMPDEST PUSH1 0x80 MLOAD PUSH1 0xA0 MLOAD PUSH1 0xC0 MLOAD PUSH1 0xE0 MLOAD PUSH2 0x100 MLOAD PUSH2 0xFF0 PUSH2 0x583 PUSH0 CODECOPY PUSH0 DUP2 DUP2 PUSH2 0x242 ADD MSTORE DUP2 DUP2 PUSH2 0x76D ADD MSTORE DUP2 DUP2 PUSH2 0x7BB ADD MSTORE DUP2 DUP2 PUSH2 0x814 ADD MSTORE PUSH2 0x96E ADD MSTORE PUSH0 DUP2 DUP2 PUSH2 0x21E ADD MSTORE DUP2 DUP2 PUSH2 0xA39 ADD MSTORE PUSH2 0xA6A ADD MSTORE PUSH0 DUP2 DUP2 PUSH2 0x49B ADD MSTORE DUP2 DUP2 PUSH2 0x78E ADD MSTORE DUP2 DUP2 PUSH2 0x7DC ADD MSTORE DUP2 DUP2 PUSH2 0x835 ADD MSTORE DUP2 DUP2 PUSH2 0x98F ADD MSTORE PUSH2 0xA0B ADD MSTORE PUSH0 DUP2 DUP2 PUSH2 0x4C4 ADD MSTORE PUSH2 0x4E8 ADD MSTORE PUSH0 DUP2 DUP2 PUSH2 0x301 ADD MSTORE DUP2 DUP2 PUSH2 0x3FA ADD MSTORE DUP2 DUP2 PUSH2 0x58D ADD MSTORE DUP2 DUP2 PUSH2 0x6D3 ADD MSTORE PUSH2 0x949 ADD MSTORE PUSH2 0xFF0 PUSH0 RETURN INVALID PUSH1 0x80 PUSH1 0x40 MSTORE CALLVALUE DUP1 ISZERO PUSH2 0xF JUMPI PUSH0 PUSH0 REVERT JUMPDEST POP PUSH1 0x4 CALLDATASIZE LT PUSH2 0xA7 JUMPI PUSH0 CALLDATALOAD PUSH1 0xE0 SHR DUP1 PUSH4 0x8DA5CB5B GT PUSH2 0x6F JUMPI DUP1 PUSH4 0x8DA5CB5B EQ PUSH2 0x12D JUMPI DUP1 PUSH4 0x96074E70 EQ PUSH2 0x14B JUMPI DUP1 PUSH4 0xA1E3285C EQ PUSH2 0x167 JUMPI DUP1 PUSH4 0xB81B8630 EQ PUSH2 0x19E JUMPI DUP1 PUSH4 0xC884EF83 EQ PUSH2 0x1CE JUMPI DUP1 PUSH4 0xFC0C546A EQ PUSH2 0x1FE JUMPI PUSH2 0xA7 JUMP JUMPDEST DUP1 PUSH4 0xFB5A6B4 EQ PUSH2 0xAB JUMPI DUP1 PUSH4 0x13D033C0 EQ PUSH2 0xC9 JUMPI DUP1 PUSH4 0x4E71D92D EQ PUSH2 0xE7 JUMPI DUP1 PUSH4 0x78E97925 EQ PUSH2 0xF1 JUMPI DUP1 PUSH4 0x79203DC4 EQ PUSH2 0x10F JUMPI JUMPDEST PUSH0 PUSH0 REVERT JUMPDEST PUSH2 0xB3 PUSH2 0x21C JUMP JUMPDEST PUSH1 0x40 MLOAD PUSH2 0xC0 SWAP2 SWAP1 PUSH2 0xAC1 JUMP JUMPDEST PUSH1 0x40 MLOAD DUP1 SWAP2 SUB SWAP1 RETURN JUMPDEST PUSH2 0xD1 PUSH2 0x240 JUMP JUMPDEST PUSH1 0x40 MLOAD PUSH2 0xDE SWAP2 SWAP1 PUSH2 0xAC1 JUMP JUMPDEST PUSH1 0x40 MLOAD DUP1 SWAP2 SUB SWAP1 RETURN JUMPDEST PUSH2 0xEF PUSH2 0x264 JUMP JUMPDEST STOP JUMPDEST PUSH2 0xF9 PUSH2 0x499 JUMP JUMPDEST PUSH1 0x40 MLOAD PUSH2 0x106 SWAP2 SWAP1 PUSH2 0xAC1 JUMP JUMPDEST PUSH1 0x40 MLOAD DUP1 SWAP2 SUB SWAP1 RETURN JUMPDEST PUSH2 0x117 PUSH2 0x4BD JUMP JUMPDEST PUSH1 0x40 MLOAD PUSH2 0x124 SWAP2 SWAP1 PUSH2 0xAC1 JUMP JUMPDEST PUSH1 0x40 MLOAD DUP1 SWAP2 SUB SWAP1 RETURN JUMPDEST PUSH2 0x135 PUSH2 0x4C2 JUMP JUMPDEST PUSH1 0x40 MLOAD PUSH2 0x142 SWAP2 SWAP1 PUSH2 0xB19 JUMP JUMPDEST PUSH1 0x40 MLOAD DUP1 SWAP2 SUB SWAP1 RETURN JUMPDEST PUSH2 0x165 PUSH1 0x4 DUP1 CALLDATASIZE SUB DUP2 ADD SWAP1 PUSH2 0x160 SWAP2 SWAP1 PUSH2 0xB8A JUMP JUMPDEST PUSH2 0x4E6 JUMP JUMPDEST STOP JUMPDEST PUSH2 0x181 PUSH1 0x4 DUP1 CALLDATASIZE SUB DUP2 ADD SWAP1 PUSH2 0x17C SWAP2 SWAP1 PUSH2 0xBC8 JUMP JUMPDEST PUSH2 0x6C6 JUMP JUMPDEST PUSH1 0x40 MLOAD PUSH2 0x195 SWAP9 SWAP8 SWAP7 SWAP6 SWAP5 SWAP4 SWAP3 SWAP2 SWAP1 PUSH2 0xBF3 JUMP JUMPDEST PUSH1 0x40 MLOAD DUP1 SWAP2 SUB SWAP1 RETURN JUMPDEST PUSH2 0x1B8 PUSH1 0x4 DUP1 CALLDATASIZE SUB DUP2 ADD SWAP1 PUSH2 0x1B3 SWAP2 SWAP1 PUSH2 0xBC8 JUMP JUMPDEST PUSH2 0x91D JUMP JUMPDEST PUSH1 0x40 MLOAD PUSH2 0x1C5 SWAP2 SWAP1 PUSH2 0xAC1 JUMP JUMPDEST PUSH1 0x40 MLOAD DUP1 SWAP2 SUB SWAP1 RETURN JUMPDEST PUSH2 0x1E8 PUSH1 0x4 DUP1 CALLDATASIZE SUB DUP2 ADD SWAP1 PUSH2 0x1E3 SWAP2 SWAP1 PUSH2 0xBC8 JUMP JUMPDEST PUSH2 0x932 JUMP JUMPDEST PUSH1 0x40 MLOAD PUSH2 0x1F5 SWAP2 SWAP1 PUSH2 0xAC1 JUMP JUMPDEST PUSH1 0x40 MLOAD DUP1 SWAP2 SUB SWAP1 RETURN JUMPDEST PUSH2 0x206 PUSH2 0x947 JUMP JUMPDEST PUSH1 0x40 MLOAD PUSH2 0x213 SWAP2 SWAP1 PUSH2 0xCCA JUMP JUMPDEST PUSH1 0x40 MLOAD DUP1 SWAP2 SUB SWAP1 RETURN JUMPDEST PUSH32 0x0 DUP2 JUMP JUMPDEST PUSH32 0x0 DUP2 JUMP JUMPDEST PUSH0 PUSH2 0x26E CALLER PUSH2 0x96B JUMP JUMPDEST SWAP1 POP PUSH0 PUSH1 0x2 PUSH0 CALLER PUSH20 0xFFFFFFFFFFFFFFFFFFFFFFFFFFFFFFFFFFFFFFFF AND PUSH20 0xFFFFFFFFFFFFFFFFFFFFFFFFFFFFFFFFFFFFFFFF AND DUP2 MSTORE PUSH1 0x20 ADD SWAP1 DUP2 MSTORE PUSH1 0x20 ADD PUSH0 KECCAK256 SLOAD DUP3 PUSH2 0x2BA SWAP2 SWAP1 PUSH2 0xD10 JUMP JUMPDEST SWAP1 POP PUSH0 DUP2 GT PUSH2 0x2FE JUMPI PUSH1 0x40 MLOAD PUSH32 0x8C379A000000000000000000000000000000000000000000000000000000000 DUP2 MSTORE PUSH1 0x4 ADD PUSH2 0x2F5 SWAP1 PUSH2 0xD9D JUMP JUMPDEST PUSH1 0x40 MLOAD DUP1 SWAP2 SUB SWAP1 REVERT JUMPDEST PUSH0 PUSH32 0x0 PUSH20 0xFFFFFFFFFFFFFFFFFFFFFFFFFFFFFFFFFFFFFFFF AND PUSH4 0x70A08231 ADDRESS PUSH1 0x40 MLOAD DUP3 PUSH4 0xFFFFFFFF AND PUSH1 0xE0 SHL DUP2 MSTORE PUSH1 0x4 ADD PUSH2 0x358 SWAP2 SWAP1 PUSH2 0xB19 JUMP JUMPDEST PUSH1 0x20 PUSH1 0x40 MLOAD DUP1 DUP4 SUB DUP2 DUP7 GAS STATICCALL ISZERO DUP1 ISZERO PUSH2 0x373 JUMPI RETURNDATASIZE PUSH0 PUSH0 RETURNDATACOPY RETURNDATASIZE PUSH0 REVERT JUMPDEST POP POP POP POP PUSH1 0x40 MLOAD RETURNDATASIZE PUSH1 0x1F NOT PUSH1 0x1F DUP3 ADD AND DUP3 ADD DUP1 PUSH1 0x40 MSTORE POP DUP2 ADD SWAP1 PUSH2 0x397 SWAP2 SWAP1 PUSH2 0xDCF JUMP JUMPDEST SWAP1 POP DUP1 DUP3 GT ISZERO PUSH2 0x3A5 JUMPI DUP1 SWAP2 POP JUMPDEST DUP2 PUSH1 0x2 PUSH0 CALLER PUSH20 0xFFFFFFFFFFFFFFFFFFFFFFFFFFFFFFFFFFFFFFFF AND PUSH20 0xFFFFFFFFFFFFFFFFFFFFFFFFFFFFFFFFFFFFFFFF AND DUP2 MSTORE PUSH1 0x20 ADD SWAP1 DUP2 MSTORE PUSH1 0x20 ADD PUSH0 KECCAK256 PUSH0 DUP3 DUP3 SLOAD PUSH2 0x3F1 SWAP2 SWAP1 PUSH2 0xDFA JUMP JUMPDEST SWAP3 POP POP DUP2 SWAP1 SSTORE POP PUSH32 0x0 PUSH20 0xFFFFFFFFFFFFFFFFFFFFFFFFFFFFFFFFFFFFFFFF AND PUSH4 0xA9059CBB CALLER DUP5 PUSH1 0x40 MLOAD DUP4 PUSH4 0xFFFFFFFF AND PUSH1 0xE0 SHL DUP2 MSTORE PUSH1 0x4 ADD PUSH2 0x453 SWAP3 SWAP2 SWAP1 PUSH2 0xE2D JUMP JUMPDEST PUSH1 0x20 PUSH1 0x40 MLOAD DUP1 DUP4 SUB DUP2 PUSH0 DUP8 GAS CALL ISZERO DUP1 ISZERO PUSH2 0x46F JUMPI RETURNDATASIZE PUSH0 PUSH0 RETURNDATACOPY RETURNDATASIZE PUSH0 REVERT JUMPDEST POP POP POP POP PUSH1 0x40 MLOAD RETURNDATASIZE PUSH1 0x1F NOT PUSH1 0x1F DUP3 ADD AND DUP3 ADD DUP1 PUSH1 0x40 MSTORE POP DUP2 ADD SWAP1 PUSH2 0x493 SWAP2 SWAP1 PUSH2 0xE89 JUMP JUMPDEST POP POP POP POP JUMP JUMPDEST PUSH32 0x0 DUP2 JUMP JUMPDEST PUSH0 SLOAD DUP2 JUMP JUMPDEST PUSH32 0x0 DUP2 JUMP JUMPDEST PUSH32 0x0 PUSH20 0xFFFFFFFFFFFFFFFFFFFFFFFFFFFFFFFFFFFFFFFF AND CALLER PUSH20 0xFFFFFFFFFFFFFFFFFFFFFFFFFFFFFFFFFFFFFFFF AND EQ PUSH2 0x574 JUMPI PUSH1 0x40 MLOAD PUSH32 0x8C379A000000000000000000000000000000000000000000000000000000000 DUP2 MSTORE PUSH1 0x4 ADD PUSH2 0x56B SWAP1 PUSH2 0xEFE JUMP JUMPDEST PUSH1 0x40 MLOAD DUP1 SWAP2 SUB SWAP1 REVERT JUMPDEST PUSH0 PUSH8 0xDE0B6B3A7640000 DUP3 PUSH2 0x589 SWAP2 SWAP1 PUSH2 0xF1C JUMP JUMPDEST SWAP1 POP PUSH32 0x0 PUSH20 0xFFFFFFFFFFFFFFFFFFFFFFFFFFFFFFFFFFFFFFFF AND PUSH4 0x70A08231 ADDRESS PUSH1 0x40 MLOAD DUP3 PUSH4 0xFFFFFFFF AND PUSH1 0xE0 SHL DUP2 MSTORE PUSH1 0x4 ADD PUSH2 0x5E4 SWAP2 SWAP1 PUSH2 0xB19 JUMP JUMPDEST PUSH1 0x20 PUSH1 0x40 MLOAD DUP1 DUP4 SUB DUP2 DUP7 GAS STATICCALL ISZERO DUP1 ISZERO PUSH2 0x5FF JUMPI RETURNDATASIZE PUSH0 PUSH0 RETURNDATACOPY RETURNDATASIZE PUSH0 REVERT JUMPDEST POP POP POP POP PUSH1 0x40 MLOAD RETURNDATASIZE PUSH1 0x1F NOT PUSH1 0x1F DUP3 ADD AND DUP3 ADD DUP1 PUSH1 0x40 MSTORE POP DUP2 ADD SWAP1 PUSH2 0x623 SWAP2 SWAP1 PUSH2 0xDCF JUMP JUMPDEST DUP2 PUSH0 SLOAD PUSH2 0x630 SWAP2 SWAP1 PUSH2 0xDFA JUMP JUMPDEST GT ISZERO PUSH2 0x668 JUMPI PUSH1 0x40 MLOAD PUSH32 0xE2969E3100000000000000000000000000000000000000000000000000000000 DUP2 MSTORE PUSH1 0x4 ADD PUSH1 0x40 MLOAD DUP1 SWAP2 SUB SWAP1 REVERT JUMPDEST DUP1 PUSH1 0x1 PUSH0 DUP6 PUSH20 0xFFFFFFFFFFFFFFFFFFFFFFFFFFFFFFFFFFFFFFFF AND PUSH20 0xFFFFFFFFFFFFFFFFFFFFFFFFFFFFFFFFFFFFFFFF AND DUP2 MSTORE PUSH1 0x20 ADD SWAP1 DUP2 MSTORE PUSH1 0x20 ADD PUSH0 KECCAK256 DUP2 SWAP1 SSTORE POP DUP1 PUSH0 PUSH0 DUP3 DUP3 SLOAD PUSH2 0x6BA SWAP2 SWAP1 PUSH2 0xDFA JUMP JUMPDEST SWAP3 POP POP DUP2 SWAP1 SSTORE POP POP POP POP JUMP JUMPDEST PUSH0 PUSH0 PUSH0 PUSH0 PUSH0 PUSH0 PUSH0 PUSH0 TIMESTAMP SWAP8 POP PUSH32 0x0 PUSH20 0xFFFFFFFFFFFFFFFFFFFFFFFFFFFFFFFFFFFFFFFF AND PUSH4 0x70A08231 ADDRESS PUSH1 0x40 MLOAD DUP3 PUSH4 0xFFFFFFFF AND PUSH1 0xE0 SHL DUP2 MSTORE PUSH1 0x4 ADD PUSH2 0x72A SWAP2 SWAP1 PUSH2 0xB19 JUMP JUMPDEST PUSH1 0x20 PUSH1 0x40 MLOAD DUP1 DUP4 SUB DUP2 DUP7 GAS STATICCALL ISZERO DUP1 ISZERO PUSH2 0x745 JUMPI RETURNDATASIZE PUSH0 PUSH0 RETURNDATACOPY RETURNDATASIZE PUSH0 REVERT JUMPDEST POP POP POP POP PUSH1 0x40 MLOAD RETURNDATASIZE PUSH1 0x1F NOT PUSH1 0x1F DUP3 ADD AND DUP3 ADD DUP1 PUSH1 0x40 MSTORE POP DUP2 ADD SWAP1 PUSH2 0x769 SWAP2 SWAP1 PUSH2 0xDCF JUMP JUMPDEST SWAP1 POP PUSH32 0x0 PUSH32 0x0 PUSH2 0x7B7 SWAP2 SWAP1 PUSH2 0xDFA JUMP JUMPDEST SWAP7 POP PUSH32 0x0 PUSH32 0x0 PUSH2 0x805 SWAP2 SWAP1 PUSH2 0xDFA JUMP JUMPDEST TIMESTAMP LT PUSH2 0x811 JUMPI PUSH0 PUSH2 0x869 JUMP JUMPDEST TIMESTAMP PUSH32 0x0 PUSH32 0x0 PUSH2 0x85E SWAP2 SWAP1 PUSH2 0xDFA JUMP JUMPDEST PUSH2 0x868 SWAP2 SWAP1 PUSH2 0xD10 JUMP JUMPDEST JUMPDEST SWAP6 POP PUSH1 0x1 PUSH0 DUP11 PUSH20 0xFFFFFFFFFFFFFFFFFFFFFFFFFFFFFFFFFFFFFFFF AND PUSH20 0xFFFFFFFFFFFFFFFFFFFFFFFFFFFFFFFFFFFFFFFF AND DUP2 MSTORE PUSH1 0x20 ADD SWAP1 DUP2 MSTORE PUSH1 0x20 ADD PUSH0 KECCAK256 SLOAD SWAP5 POP PUSH2 0x8B4 DUP10 PUSH2 0x96B JUMP JUMPDEST SWAP4 POP PUSH1 0x2 PUSH0 DUP11 PUSH20 0xFFFFFFFFFFFFFFFFFFFFFFFFFFFFFFFFFFFFFFFF AND PUSH20 0xFFFFFFFFFFFFFFFFFFFFFFFFFFFFFFFFFFFFFFFF AND DUP2 MSTORE PUSH1 0x20 ADD SWAP1 DUP2 MSTORE PUSH1 0x20 ADD PUSH0 KECCAK256 SLOAD SWAP3 POP DUP3 DUP5 GT PUSH2 0x903 JUMPI PUSH0 PUSH2 0x910 JUMP JUMPDEST DUP3 DUP5 PUSH2 0x90F SWAP2 SWAP1 PUSH2 0xD10 JUMP JUMPDEST JUMPDEST SWAP2 POP SWAP2 SWAP4 SWAP6 SWAP8 POP SWAP2 SWAP4 SWAP6 SWAP8 JUMP JUMPDEST PUSH1 0x1 PUSH1 0x20 MSTORE DUP1 PUSH0 MSTORE PUSH1 0x40 PUSH0 KECCAK256 PUSH0 SWAP2 POP SWAP1 POP SLOAD DUP2 JUMP JUMPDEST PUSH1 0x2 PUSH1 0x20 MSTORE DUP1 PUSH0 MSTORE PUSH1 0x40 PUSH0 KECCAK256 PUSH0 SWAP2 POP SWAP1 POP SLOAD DUP2 JUMP JUMPDEST PUSH32 0x0 DUP2 JUMP JUMPDEST PUSH0 PUSH32 0x0 PUSH32 0x0 PUSH2 0x9B8 SWAP2 SWAP1 PUSH2 0xDFA JUMP JUMPDEST TIMESTAMP LT ISZERO PUSH2 0x9C7 JUMPI PUSH0 SWAP1 POP PUSH2 0xAA4 JUMP JUMPDEST PUSH0 PUSH1 0x1 PUSH0 DUP5 PUSH20 0xFFFFFFFFFFFFFFFFFFFFFFFFFFFFFFFFFFFFFFFF AND PUSH20 0xFFFFFFFFFFFFFFFFFFFFFFFFFFFFFFFFFFFFFFFF AND DUP2 MSTORE PUSH1 0x20 ADD SWAP1 DUP2 MSTORE PUSH1 0x20 ADD PUSH0 KECCAK256 SLOAD SWAP1 POP PUSH0 PUSH32 0x0 TIMESTAMP PUSH2 0xA35 SWAP2 SWAP1 PUSH2 0xD10 JUMP JUMPDEST SWAP1 POP PUSH32 0x0 DUP2 LT PUSH2 0xA68 JUMPI DUP2 SWAP3 POP POP POP PUSH2 0xAA4 JUMP JUMPDEST PUSH32 0x0 DUP2 DUP4 PUSH2 0xA95 SWAP2 SWAP1 PUSH2 0xF1C JUMP JUMPDEST PUSH2 0xA9F SWAP2 SWAP1 PUSH2 0xF8A JUMP JUMPDEST SWAP3 POP POP POP JUMPDEST SWAP2 SWAP1 POP JUMP JUMPDEST PUSH0 DUP2 SWAP1 POP SWAP2 SWAP1 POP JUMP JUMPDEST PUSH2 0xABB DUP2 PUSH2 0xAA9 JUMP JUMPDEST DUP3 MSTORE POP POP JUMP JUMPDEST PUSH0 PUSH1 0x20 DUP3 ADD SWAP1 POP PUSH2 0xAD4 PUSH0 DUP4 ADD DUP5 PUSH2 0xAB2 JUMP JUMPDEST SWAP3 SWAP2 POP POP JUMP JUMPDEST PUSH0 PUSH20 0xFFFFFFFFFFFFFFFFFFFFFFFFFFFFFFFFFFFFFFFF DUP3 AND SWAP1 POP SWAP2 SWAP1 POP JUMP JUMPDEST PUSH0 PUSH2 0xB03 DUP3 PUSH2 0xADA JUMP JUMPDEST SWAP1 POP SWAP2 SWAP1 POP JUMP JUMPDEST PUSH2 0xB13 DUP2 PUSH2 0xAF9 JUMP JUMPDEST DUP3 MSTORE POP POP JUMP JUMPDEST PUSH0 PUSH1 0x20 DUP3 ADD SWAP1 POP PUSH2 0xB2C PUSH0 DUP4 ADD DUP5 PUSH2 0xB0A JUMP JUMPDEST SWAP3 SWAP2 POP POP JUMP JUMPDEST PUSH0 PUSH0 REVERT JUMPDEST PUSH2 0xB3F DUP2 PUSH2 0xAF9 JUMP JUMPDEST DUP2 EQ PUSH2 0xB49 JUMPI PUSH0 PUSH0 REVERT JUMPDEST POP JUMP JUMPDEST PUSH0 DUP2 CALLDATALOAD SWAP1 POP PUSH2 0xB5A DUP2 PUSH2 0xB36 JUMP JUMPDEST SWAP3 SWAP2 POP POP JUMP JUMPDEST PUSH2 0xB69 DUP2 PUSH2 0xAA9 JUMP JUMPDEST DUP2 EQ PUSH2 0xB73 JUMPI PUSH0 PUSH0 REVERT JUMPDEST POP JUMP JUMPDEST PUSH0 DUP2 CALLDATALOAD SWAP1 POP PUSH2 0xB84 DUP2 PUSH2 0xB60 JUMP JUMPDEST SWAP3 SWAP2 POP POP JUMP JUMPDEST PUSH0 PUSH0 PUSH1 0x40 DUP4 DUP6 SUB SLT ISZERO PUSH2 0xBA0 JUMPI PUSH2 0xB9F PUSH2 0xB32 JUMP JUMPDEST JUMPDEST PUSH0 PUSH2 0xBAD DUP6 DUP3 DUP7 ADD PUSH2 0xB4C JUMP JUMPDEST SWAP3 POP POP PUSH1 0x20 PUSH2 0xBBE DUP6 DUP3 DUP7 ADD PUSH2 0xB76 JUMP JUMPDEST SWAP2 POP POP SWAP3 POP SWAP3 SWAP1 POP JUMP JUMPDEST PUSH0 PUSH1 0x20 DUP3 DUP5 SUB SLT ISZERO PUSH2 0xBDD JUMPI PUSH2 0xBDC PUSH2 0xB32 JUMP JUMPDEST JUMPDEST PUSH0 PUSH2 0xBEA DUP5 DUP3 DUP6 ADD PUSH2 0xB4C JUMP JUMPDEST SWAP2 POP POP SWAP3 SWAP2 POP POP JUMP JUMPDEST PUSH0 PUSH2 0x100 DUP3 ADD SWAP1 POP PUSH2 0xC07 PUSH0 DUP4 ADD DUP12 PUSH2 0xAB2 JUMP JUMPDEST PUSH2 0xC14 PUSH1 0x20 DUP4 ADD DUP11 PUSH2 0xAB2 JUMP JUMPDEST PUSH2 0xC21 PUSH1 0x40 DUP4 ADD DUP10 PUSH2 0xAB2 JUMP JUMPDEST PUSH2 0xC2E PUSH1 0x60 DUP4 ADD DUP9 PUSH2 0xAB2 JUMP JUMPDEST PUSH2 0xC3B PUSH1 0x80 DUP4 ADD DUP8 PUSH2 0xAB2 JUMP JUMPDEST PUSH2 0xC48 PUSH1 0xA0 DUP4 ADD DUP7 PUSH2 0xAB2 JUMP JUMPDEST PUSH2 0xC55 PUSH1 0xC0 DUP4 ADD DUP6 PUSH2 0xAB2 JUMP JUMPDEST PUSH2 0xC62 PUSH1 0xE0 DUP4 ADD DUP5 PUSH2 0xAB2 JUMP JUMPDEST SWAP10 SWAP9 POP POP POP POP POP POP POP POP POP JUMP JUMPDEST PUSH0 DUP2 SWAP1 POP SWAP2 SWAP1 POP JUMP JUMPDEST PUSH0 PUSH2 0xC92 PUSH2 0xC8D PUSH2 0xC88 DUP5 PUSH2 0xADA JUMP JUMPDEST PUSH2 0xC6F JUMP JUMPDEST PUSH2 0xADA JUMP JUMPDEST SWAP1 POP SWAP2 SWAP1 POP JUMP JUMPDEST PUSH0 PUSH2 0xCA3 DUP3 PUSH2 0xC78 JUMP JUMPDEST SWAP1 POP SWAP2 SWAP1 POP JUMP JUMPDEST PUSH0 PUSH2 0xCB4 DUP3 PUSH2 0xC99 JUMP JUMPDEST SWAP1 POP SWAP2 SWAP1 POP JUMP JUMPDEST PUSH2 0xCC4 DUP2 PUSH2 0xCAA JUMP JUMPDEST DUP3 MSTORE POP POP JUMP JUMPDEST PUSH0 PUSH1 0x20 DUP3 ADD SWAP1 POP PUSH2 0xCDD PUSH0 DUP4 ADD DUP5 PUSH2 0xCBB JUMP JUMPDEST SWAP3 SWAP2 POP POP JUMP JUMPDEST PUSH32 0x4E487B7100000000000000000000000000000000000000000000000000000000 PUSH0 MSTORE PUSH1 0x11 PUSH1 0x4 MSTORE PUSH1 0x24 PUSH0 REVERT JUMPDEST PUSH0 PUSH2 0xD1A DUP3 PUSH2 0xAA9 JUMP JUMPDEST SWAP2 POP PUSH2 0xD25 DUP4 PUSH2 0xAA9 JUMP JUMPDEST SWAP3 POP DUP3 DUP3 SUB SWAP1 POP DUP2 DUP2 GT ISZERO PUSH2 0xD3D JUMPI PUSH2 0xD3C PUSH2 0xCE3 JUMP JUMPDEST JUMPDEST SWAP3 SWAP2 POP POP JUMP JUMPDEST PUSH0 DUP3 DUP3 MSTORE PUSH1 0x20 DUP3 ADD SWAP1 POP SWAP3 SWAP2 POP POP JUMP JUMPDEST PUSH32 0x4E6F7468696E6720746F20636C61696D00000000000000000000000000000000 PUSH0 DUP3 ADD MSTORE POP JUMP JUMPDEST PUSH0 PUSH2 0xD87 PUSH1 0x10 DUP4 PUSH2 0xD43 JUMP JUMPDEST SWAP2 POP PUSH2 0xD92 DUP3 PUSH2 0xD53 JUMP JUMPDEST PUSH1 0x20 DUP3 ADD SWAP1 POP SWAP2 SWAP1 POP JUMP JUMPDEST PUSH0 PUSH1 0x20 DUP3 ADD SWAP1 POP DUP2 DUP2 SUB PUSH0 DUP4 ADD MSTORE PUSH2 0xDB4 DUP2 PUSH2 0xD7B JUMP JUMPDEST SWAP1 POP SWAP2 SWAP1 POP JUMP JUMPDEST PUSH0 DUP2 MLOAD SWAP1 POP PUSH2 0xDC9 DUP2 PUSH2 0xB60 JUMP JUMPDEST SWAP3 SWAP2 POP POP JUMP JUMPDEST PUSH0 PUSH1 0x20 DUP3 DUP5 SUB SLT ISZERO PUSH2 0xDE4 JUMPI PUSH2 0xDE3 PUSH2 0xB32 JUMP JUMPDEST JUMPDEST PUSH0 PUSH2 0xDF1 DUP5 DUP3 DUP6 ADD PUSH2 0xDBB JUMP JUMPDEST SWAP2 POP POP SWAP3 SWAP2 POP POP JUMP JUMPDEST PUSH0 PUSH2 0xE04 DUP3 PUSH2 0xAA9 JUMP JUMPDEST SWAP2 POP PUSH2 0xE0F DUP4 PUSH2 0xAA9 JUMP JUMPDEST SWAP3 POP DUP3 DUP3 ADD SWAP1 POP DUP1 DUP3 GT ISZERO PUSH2 0xE27 JUMPI PUSH2 0xE26 PUSH2 0xCE3 JUMP JUMPDEST JUMPDEST SWAP3 SWAP2 POP POP JUMP JUMPDEST PUSH0 PUSH1 0x40 DUP3 ADD SWAP1 POP PUSH2 0xE40 PUSH0 DUP4 ADD DUP6 PUSH2 0xB0A JUMP JUMPDEST PUSH2 0xE4D PUSH1 0x20 DUP4 ADD DUP5 PUSH2 0xAB2 JUMP JUMPDEST SWAP4 SWAP3 POP POP POP JUMP JUMPDEST PUSH0 DUP2 ISZERO ISZERO SWAP1 POP SWAP2 SWAP1 POP JUMP JUMPDEST PUSH2 0xE68 DUP2 PUSH2 0xE54 JUMP JUMPDEST DUP2 EQ PUSH2 0xE72 JUMPI PUSH0 PUSH0 REVERT JUMPDEST POP JUMP JUMPDEST PUSH0 DUP2 MLOAD SWAP1 POP PUSH2 0xE83 DUP2 PUSH2 0xE5F JUMP JUMPDEST SWAP3 SWAP2 POP POP JUMP JUMPDEST PUSH0 PUSH1 0x20 DUP3 DUP5 SUB SLT ISZERO PUSH2 0xE9E JUMPI PUSH2 0xE9D PUSH2 0xB32 JUMP JUMPDEST JUMPDEST PUSH0 PUSH2 0xEAB DUP5 DUP3 DUP6 ADD PUSH2 0xE75 JUMP JUMPDEST SWAP2 POP POP SWAP3 SWAP2 POP POP JUMP JUMPDEST PUSH32 0x4E6F74204F776E65720000000000000000000000000000000000000000000000 PUSH0 DUP3 ADD MSTORE POP JUMP JUMPDEST PUSH0 PUSH2 0xEE8 PUSH1 0x9 DUP4 PUSH2 0xD43 JUMP JUMPDEST SWAP2 POP PUSH2 0xEF3 DUP3 PUSH2 0xEB4 JUMP JUMPDEST PUSH1 0x20 DUP3 ADD SWAP1 POP SWAP2 SWAP1 POP JUMP JUMPDEST PUSH0 PUSH1 0x20 DUP3 ADD SWAP1 POP DUP2 DUP2 SUB PUSH0 DUP4 ADD MSTORE PUSH2 0xF15 DUP2 PUSH2 0xEDC JUMP JUMPDEST SWAP1 POP SWAP2 SWAP1 POP JUMP JUMPDEST PUSH0 PUSH2 0xF26 DUP3 PUSH2 0xAA9 JUMP JUMPDEST SWAP2 POP PUSH2 0xF31 DUP4 PUSH2 0xAA9 JUMP JUMPDEST SWAP3 POP DUP3 DUP3 MUL PUSH2 0xF3F DUP2 PUSH2 0xAA9 JUMP JUMPDEST SWAP2 POP DUP3 DUP3 DIV DUP5 EQ DUP4 ISZERO OR PUSH2 0xF56 JUMPI PUSH2 0xF55 PUSH2 0xCE3 JUMP JUMPDEST JUMPDEST POP SWAP3 SWAP2 POP POP JUMP JUMPDEST PUSH32 0x4E487B7100000000000000000000000000000000000000000000000000000000 PUSH0 MSTORE PUSH1 0x12 PUSH1 0x4 MSTORE PUSH1 0x24 PUSH0 REVERT JUMPDEST PUSH0 PUSH2 0xF94 DUP3 PUSH2 0xAA9 JUMP JUMPDEST SWAP2 POP PUSH2 0xF9F DUP4 PUSH2 0xAA9 JUMP JUMPDEST SWAP3 POP DUP3 PUSH2 0xFAF JUMPI PUSH2 0xFAE PUSH2 0xF5D JUMP JUMPDEST JUMPDEST DUP3 DUP3 DIV SWAP1 POP SWAP3 SWAP2 POP POP JUMP INVALID LOG2 PUSH5 0x6970667358 0x22 SLT KECCAK256 CODECOPY 0x4D PUSH32 0x939488F14FE4ACF2EEB33EEAE35346C1A35F7397F338C625FD0F74737164736F PUSH13 0x634300081E0033000000000000 "
				},
				"gasEstimates": {
					"creation": {
						"codeDepositCost": "816000",
						"executionCost": "infinite",
						"totalCost": "infinite"
					},
					"external": {
						"addBeneficiary(address,uint256)": "infinite",
						"allocation(address)": "2868",
						"claim()": "infinite",
						"claimed(address)": "2890",
						"cliff()": "infinite",
						"diagnose(address)": "infinite",
						"duration()": "infinite",
						"owner()": "infinite",
						"startTime()": "infinite",
						"token()": "infinite",
						"totalAllocation()": "2513"
					},
					"internal": {
						"vestedAmount(address)": "infinite"
					}
				},
				"methodIdentifiers": {
					"addBeneficiary(address,uint256)": "96074e70",
					"allocation(address)": "b81b8630",
					"claim()": "4e71d92d",
					"claimed(address)": "c884ef83",
					"cliff()": "13d033c0",
					"diagnose(address)": "a1e3285c",
					"duration()": "0fb5a6b4",
					"owner()": "8da5cb5b",
					"startTime()": "78e97925",
					"token()": "fc0c546a",
					"totalAllocation()": "79203dc4"
				}
			},
			"storageLayout": {
				"storage": [
					{
						"astId": 104,
						"contract": "contracts/vesting.sol:VestingToken",
						"label": "totalAllocation",
						"offset": 0,
						"slot": "0",
						"type": "t_uint256"
					},
					{
						"astId": 108,
						"contract": "contracts/vesting.sol:VestingToken",
						"label": "allocation",
						"offset": 0,
						"slot": "1",
						"type": "t_mapping(t_address,t_uint256)"
					},
					{
						"astId": 112,
						"contract": "contracts/vesting.sol:VestingToken",
						"label": "claimed",
						"offset": 0,
						"slot": "2",
						"type": "t_mapping(t_address,t_uint256)"
					}
				],
				"types": {
					"t_address": {
						"encoding": "inplace",
						"label": "address",
						"numberOfBytes": "20"
					},
					"t_mapping(t_address,t_uint256)": {
						"encoding": "mapping",
						"key": "t_address",
						"label": "mapping(address => uint256)",
						"numberOfBytes": "32",
						"value": "t_uint256"
					},
					"t_uint256": {
						"encoding": "inplace",
						"label": "uint256",
						"numberOfBytes": "32"
					}
				}
			},
			"userdoc": {
				"kind": "user",
				"methods": {},
				"version": 1
			}
		}
	}
}