{
	"contracts/vesting.sol": {
		"VestingToken": {
			"abi": [
				{
					"inputs": [
						{
							"internalType": "address",
							"name": "_nxtAddress",
							"type": "address"
						},
						{
							"internalType": "uint256",
							"name": "_duration",
							"type": "uint256"
						},
						{
							"internalType": "uint256",
							"name": "_cliff",
							"type": "uint256"
						},
						{
							"internalType": "uint8",
							"name": "_unit",
							"type": "uint8"
						}
					],
					"stateMutability": "nonpayable",
					"type": "constructor"
				},
				{
					"inputs": [],
					"name": "BeneficiaryAlreadyExist",
					"type": "error"
				},
				{
					"inputs": [],
					"name": "BeneficiaryNotFound",
					"type": "error"
				},
				{
					"inputs": [],
					"name": "CliffMustExceedDuration",
					"type": "error"
				},
				{
					"inputs": [],
					"name": "DurationMustBeGreaterThanZero",
					"type": "error"
				},
				{
					"inputs": [],
					"name": "InvalidRole",
					"type": "error"
				},
				{
					"inputs": [],
					"name": "InvalidTimeUnit",
					"type": "error"
				},
				{
					"inputs": [],
					"name": "NoTokensToClaim",
					"type": "error"
				},
				{
					"inputs": [],
					"name": "ShareMustExceedZero",
					"type": "error"
				},
				{
					"inputs": [],
					"name": "TotalShareExceeded",
					"type": "error"
				},
				{
					"inputs": [],
					"name": "ZeroAddressError",
					"type": "error"
				},
				{
					"inputs": [
						{
							"internalType": "address",
							"name": "_addr",
							"type": "address"
						},
						{
							"internalType": "uint256",
							"name": "_percentShare",
							"type": "uint256"
						},
						{
							"internalType": "enum VestingToken.Role",
							"name": "_role",
							"type": "uint8"
						}
					],
					"name": "addBeneficiary",
					"outputs": [],
					"stateMutability": "nonpayable",
					"type": "function"
				},
				{
					"inputs": [
						{
							"internalType": "uint256",
							"name": "",
							"type": "uint256"
						}
					],
					"name": "allBeneficiaries",
					"outputs": [
						{
							"internalType": "address",
							"name": "",
							"type": "address"
						}
					],
					"stateMutability": "view",
					"type": "function"
				},
				{
					"inputs": [
						{
							"internalType": "address",
							"name": "",
							"type": "address"
						}
					],
					"name": "beneficiaries",
					"outputs": [
						{
							"internalType": "uint256",
							"name": "percentShare",
							"type": "uint256"
						},
						{
							"internalType": "uint256",
							"name": "allocation",
							"type": "uint256"
						},
						{
							"internalType": "enum VestingToken.Role",
							"name": "role",
							"type": "uint8"
						},
						{
							"internalType": "uint256",
							"name": "claimed",
							"type": "uint256"
						},
						{
							"internalType": "bool",
							"name": "exists",
							"type": "bool"
						}
					],
					"stateMutability": "view",
					"type": "function"
				},
				{
					"inputs": [],
					"name": "claim",
					"outputs": [],
					"stateMutability": "nonpayable",
					"type": "function"
				},
				{
					"inputs": [
						{
							"internalType": "address",
							"name": "_addr",
							"type": "address"
						}
					],
					"name": "getBeneficiary",
					"outputs": [
						{
							"internalType": "uint256",
							"name": "",
							"type": "uint256"
						},
						{
							"internalType": "enum VestingToken.Role",
							"name": "",
							"type": "uint8"
						},
						{
							"internalType": "uint256",
							"name": "",
							"type": "uint256"
						}
					],
					"stateMutability": "view",
					"type": "function"
				},
				{
					"inputs": [
						{
							"internalType": "address",
							"name": "_addr",
							"type": "address"
						}
					],
					"name": "getBeneficiaryTotalAllocation",
					"outputs": [
						{
							"internalType": "uint256",
							"name": "",
							"type": "uint256"
						}
					],
					"stateMutability": "view",
					"type": "function"
				},
				{
					"inputs": [],
					"name": "getTotalVestedPercent",
					"outputs": [
						{
							"internalType": "uint256",
							"name": "",
							"type": "uint256"
						}
					],
					"stateMutability": "view",
					"type": "function"
				},
				{
					"inputs": [],
					"name": "i_cliff",
					"outputs": [
						{
							"internalType": "uint256",
							"name": "",
							"type": "uint256"
						}
					],
					"stateMutability": "view",
					"type": "function"
				},
				{
					"inputs": [],
					"name": "i_duration",
					"outputs": [
						{
							"internalType": "uint256",
							"name": "",
							"type": "uint256"
						}
					],
					"stateMutability": "view",
					"type": "function"
				},
				{
					"inputs": [],
					"name": "i_owner",
					"outputs": [
						{
							"internalType": "address",
							"name": "",
							"type": "address"
						}
					],
					"stateMutability": "view",
					"type": "function"
				},
				{
					"inputs": [],
					"name": "i_startTime",
					"outputs": [
						{
							"internalType": "uint256",
							"name": "",
							"type": "uint256"
						}
					],
					"stateMutability": "view",
					"type": "function"
				},
				{
					"inputs": [],
					"name": "i_token",
					"outputs": [
						{
							"internalType": "contract IERC20",
							"name": "",
							"type": "address"
						}
					],
					"stateMutability": "view",
					"type": "function"
				},
				{
					"inputs": [],
					"name": "percentShareAssign",
					"outputs": [
						{
							"internalType": "uint256",
							"name": "",
							"type": "uint256"
						}
					],
					"stateMutability": "view",
					"type": "function"
				}
			],
			"devdoc": {
				"kind": "dev",
				"methods": {},
				"version": 1
			},
			"evm": {
				"assembly": "    /* \"contracts/vesting.sol\":147:5482  contract VestingToken{... */\n  mstore(0x40, 0x0120)\n    /* \"contracts/vesting.sol\":1079:1848  constructor(address _nxtAddress, uint256 _duration, uint256 _cliff, uint8 _unit){... */\n  callvalue\n  dup1\n  iszero\n  tag_1\n  jumpi\n  revert(0x00, 0x00)\ntag_1:\n  pop\n  mload(0x40)\n  sub(codesize, bytecodeSize)\n  dup1\n  bytecodeSize\n  dup4\n  codecopy\n  dup2\n  dup2\n  add\n  0x40\n  mstore\n  dup2\n  add\n  swap1\n  tag_2\n  swap2\n  swap1\n  tag_3\n  jump\t// in\ntag_2:\n    /* \"contracts/vesting.sol\":1196:1197  0 */\n  0x00\n    /* \"contracts/vesting.sol\":1183:1192  _duration */\n  dup4\n    /* \"contracts/vesting.sol\":1183:1197  _duration == 0 */\n  sub\n    /* \"contracts/vesting.sol\":1180:1237  if(_duration == 0) revert DurationMustBeGreaterThanZero() */\n  tag_6\n  jumpi\n    /* \"contracts/vesting.sol\":1206:1237  DurationMustBeGreaterThanZero() */\n  mload(0x40)\n  0xcf478f2300000000000000000000000000000000000000000000000000000000\n  dup2\n  mstore\n  0x04\n  add\n  mload(0x40)\n  dup1\n  swap2\n  sub\n  swap1\n  revert\n    /* \"contracts/vesting.sol\":1180:1237  if(_duration == 0) revert DurationMustBeGreaterThanZero() */\ntag_6:\n    /* \"contracts/vesting.sol\":1262:1263  1 */\n  0x01\n    /* \"contracts/vesting.sol\":1254:1259  _unit */\n  dup2\n    /* \"contracts/vesting.sol\":1254:1263  _unit < 1 */\n  0xff\n  and\n  lt\n    /* \"contracts/vesting.sol\":1254:1276  _unit < 1 || _unit > 4 */\n  dup1\n  tag_7\n  jumpi\n  pop\n    /* \"contracts/vesting.sol\":1275:1276  4 */\n  0x04\n    /* \"contracts/vesting.sol\":1267:1272  _unit */\n  dup2\n    /* \"contracts/vesting.sol\":1267:1276  _unit > 4 */\n  0xff\n  and\n  gt\n    /* \"contracts/vesting.sol\":1254:1276  _unit < 1 || _unit > 4 */\ntag_7:\n    /* \"contracts/vesting.sol\":1250:1303  if( _unit < 1 || _unit > 4)  revert InvalidTimeUnit() */\n  iszero\n  tag_8\n  jumpi\n    /* \"contracts/vesting.sol\":1286:1303  InvalidTimeUnit() */\n  mload(0x40)\n  0x2b3f1e6e00000000000000000000000000000000000000000000000000000000\n  dup2\n  mstore\n  0x04\n  add\n  mload(0x40)\n  dup1\n  swap2\n  sub\n  swap1\n  revert\n    /* \"contracts/vesting.sol\":1250:1303  if( _unit < 1 || _unit > 4)  revert InvalidTimeUnit() */\ntag_8:\n    /* \"contracts/vesting.sol\":1336:1345  _duration */\n  dup3\n    /* \"contracts/vesting.sol\":1327:1333  _cliff */\n  dup3\n    /* \"contracts/vesting.sol\":1327:1345  _cliff > _duration */\n  gt\n    /* \"contracts/vesting.sol\":1324:1379  if(_cliff > _duration) revert CliffMustExceedDuration() */\n  iszero\n  tag_9\n  jumpi\n    /* \"contracts/vesting.sol\":1354:1379  CliffMustExceedDuration() */\n  mload(0x40)\n  0x3be41dfe00000000000000000000000000000000000000000000000000000000\n  dup2\n  mstore\n  0x04\n  add\n  mload(0x40)\n  dup1\n  swap2\n  sub\n  swap1\n  revert\n    /* \"contracts/vesting.sol\":1324:1379  if(_cliff > _duration) revert CliffMustExceedDuration() */\ntag_9:\n    /* \"contracts/vesting.sol\":1412:1423  _nxtAddress */\n  dup4\n    /* \"contracts/vesting.sol\":1395:1424  i_token = IERC20(_nxtAddress) */\n  0xffffffffffffffffffffffffffffffffffffffff\n  and\n  0x80\n  dup2\n  0xffffffffffffffffffffffffffffffffffffffff\n  and\n  dup2\n  mstore\n  pop\n  pop\n    /* \"contracts/vesting.sol\":1445:1455  msg.sender */\n  caller\n    /* \"contracts/vesting.sol\":1435:1455  i_owner = msg.sender */\n  0xffffffffffffffffffffffffffffffffffffffff\n  and\n  0xa0\n  dup2\n  0xffffffffffffffffffffffffffffffffffffffff\n  and\n  dup2\n  mstore\n  pop\n  pop\n    /* \"contracts/vesting.sol\":1480:1495  block.timestamp */\n  timestamp\n    /* \"contracts/vesting.sol\":1466:1495  i_startTime = block.timestamp */\n  0xc0\n  dup2\n  dup2\n  mstore\n  pop\n  pop\n    /* \"contracts/vesting.sol\":1508:1526  uint256  mutiplier */\n  0x00\n    /* \"contracts/vesting.sol\":1552:1553  1 */\n  0x01\n    /* \"contracts/vesting.sol\":1543:1548  _unit */\n  dup3\n    /* \"contracts/vesting.sol\":1543:1553  _unit == 1 */\n  0xff\n  and\n  eq\n    /* \"contracts/vesting.sol\":1543:1691  _unit == 1 ? 1 :         //seconds... */\n  tag_10\n  jumpi\n    /* \"contracts/vesting.sol\":1600:1601  2 */\n  0x02\n    /* \"contracts/vesting.sol\":1591:1596  _unit */\n  dup3\n    /* \"contracts/vesting.sol\":1591:1601  _unit == 2 */\n  0xff\n  and\n  eq\n    /* \"contracts/vesting.sol\":1591:1691  _unit == 2 ? 60 :        //minutes... */\n  tag_11\n  jumpi\n    /* \"contracts/vesting.sol\":1648:1649  3 */\n  0x03\n    /* \"contracts/vesting.sol\":1639:1644  _unit */\n  dup3\n    /* \"contracts/vesting.sol\":1639:1649  _unit == 3 */\n  0xff\n  and\n  eq\n    /* \"contracts/vesting.sol\":1639:1691  _unit == 3 ? 3600 :      // hours... */\n  tag_12\n  jumpi\n    /* \"contracts/vesting.sol\":1686:1691  86400 */\n  0x015180\n    /* \"contracts/vesting.sol\":1639:1691  _unit == 3 ? 3600 :      // hours... */\n  jump(tag_13)\ntag_12:\n    /* \"contracts/vesting.sol\":1652:1656  3600 */\n  0x0e10\n    /* \"contracts/vesting.sol\":1639:1691  _unit == 3 ? 3600 :      // hours... */\ntag_13:\n    /* \"contracts/vesting.sol\":1591:1691  _unit == 2 ? 60 :        //minutes... */\n  jump(tag_14)\ntag_11:\n    /* \"contracts/vesting.sol\":1604:1606  60 */\n  0x3c\n    /* \"contracts/vesting.sol\":1591:1691  _unit == 2 ? 60 :        //minutes... */\ntag_14:\n    /* \"contracts/vesting.sol\":1543:1691  _unit == 1 ? 1 :         //seconds... */\n  jump(tag_15)\ntag_10:\n    /* \"contracts/vesting.sol\":1556:1557  1 */\n  0x01\n    /* \"contracts/vesting.sol\":1543:1691  _unit == 1 ? 1 :         //seconds... */\ntag_15:\n    /* \"contracts/vesting.sol\":1508:1691  uint256  mutiplier = ... */\n  0xffffff\n  and\n  swap1\n  pop\n    /* \"contracts/vesting.sol\":1782:1791  mutiplier */\n  dup1\n    /* \"contracts/vesting.sol\":1770:1779  _duration */\n  dup5\n    /* \"contracts/vesting.sol\":1770:1791  _duration * mutiplier */\n  tag_16\n  swap2\n  swap1\n  tag_17\n  jump\t// in\ntag_16:\n    /* \"contracts/vesting.sol\":1757:1791  i_duration = _duration * mutiplier */\n  0xe0\n  dup2\n  dup2\n  mstore\n  pop\n  pop\n    /* \"contracts/vesting.sol\":1821:1830  mutiplier */\n  dup1\n    /* \"contracts/vesting.sol\":1812:1818  _cliff */\n  dup4\n    /* \"contracts/vesting.sol\":1812:1830  _cliff * mutiplier */\n  tag_18\n  swap2\n  swap1\n  tag_17\n  jump\t// in\ntag_18:\n    /* \"contracts/vesting.sol\":1802:1830  i_cliff = _cliff * mutiplier */\n  0x0100\n  dup2\n  dup2\n  mstore\n  pop\n  pop\n    /* \"contracts/vesting.sol\":1159:1848  {... */\n  pop\n    /* \"contracts/vesting.sol\":1079:1848  constructor(address _nxtAddress, uint256 _duration, uint256 _cliff, uint8 _unit){... */\n  pop\n  pop\n  pop\n  pop\n    /* \"contracts/vesting.sol\":147:5482  contract VestingToken{... */\n  jump(tag_19)\n    /* \"#utility.yul\":88:205   */\ntag_21:\n    /* \"#utility.yul\":197:198   */\n  0x00\n    /* \"#utility.yul\":194:195   */\n  0x00\n    /* \"#utility.yul\":187:199   */\n  revert\n    /* \"#utility.yul\":334:460   */\ntag_23:\n    /* \"#utility.yul\":371:378   */\n  0x00\n    /* \"#utility.yul\":411:453   */\n  0xffffffffffffffffffffffffffffffffffffffff\n    /* \"#utility.yul\":404:409   */\n  dup3\n    /* \"#utility.yul\":400:454   */\n  and\n    /* \"#utility.yul\":389:454   */\n  swap1\n  pop\n    /* \"#utility.yul\":334:460   */\n  swap2\n  swap1\n  pop\n  jump\t// out\n    /* \"#utility.yul\":466:562   */\ntag_24:\n    /* \"#utility.yul\":503:510   */\n  0x00\n    /* \"#utility.yul\":532:556   */\n  tag_40\n    /* \"#utility.yul\":550:555   */\n  dup3\n    /* \"#utility.yul\":532:556   */\n  tag_23\n  jump\t// in\ntag_40:\n    /* \"#utility.yul\":521:556   */\n  swap1\n  pop\n    /* \"#utility.yul\":466:562   */\n  swap2\n  swap1\n  pop\n  jump\t// out\n    /* \"#utility.yul\":568:690   */\ntag_25:\n    /* \"#utility.yul\":641:665   */\n  tag_42\n    /* \"#utility.yul\":659:664   */\n  dup2\n    /* \"#utility.yul\":641:665   */\n  tag_24\n  jump\t// in\ntag_42:\n    /* \"#utility.yul\":634:639   */\n  dup2\n    /* \"#utility.yul\":631:666   */\n  eq\n    /* \"#utility.yul\":621:684   */\n  tag_43\n  jumpi\n    /* \"#utility.yul\":680:681   */\n  0x00\n    /* \"#utility.yul\":677:678   */\n  0x00\n    /* \"#utility.yul\":670:682   */\n  revert\n    /* \"#utility.yul\":621:684   */\ntag_43:\n    /* \"#utility.yul\":568:690   */\n  pop\n  jump\t// out\n    /* \"#utility.yul\":696:839   */\ntag_26:\n    /* \"#utility.yul\":753:758   */\n  0x00\n    /* \"#utility.yul\":784:790   */\n  dup2\n    /* \"#utility.yul\":778:791   */\n  mload\n    /* \"#utility.yul\":769:791   */\n  swap1\n  pop\n    /* \"#utility.yul\":800:833   */\n  tag_45\n    /* \"#utility.yul\":827:832   */\n  dup2\n    /* \"#utility.yul\":800:833   */\n  tag_25\n  jump\t// in\ntag_45:\n    /* \"#utility.yul\":696:839   */\n  swap3\n  swap2\n  pop\n  pop\n  jump\t// out\n    /* \"#utility.yul\":845:922   */\ntag_27:\n    /* \"#utility.yul\":882:889   */\n  0x00\n    /* \"#utility.yul\":911:916   */\n  dup2\n    /* \"#utility.yul\":900:916   */\n  swap1\n  pop\n    /* \"#utility.yul\":845:922   */\n  swap2\n  swap1\n  pop\n  jump\t// out\n    /* \"#utility.yul\":928:1050   */\ntag_28:\n    /* \"#utility.yul\":1001:1025   */\n  tag_48\n    /* \"#utility.yul\":1019:1024   */\n  dup2\n    /* \"#utility.yul\":1001:1025   */\n  tag_27\n  jump\t// in\ntag_48:\n    /* \"#utility.yul\":994:999   */\n  dup2\n    /* \"#utility.yul\":991:1026   */\n  eq\n    /* \"#utility.yul\":981:1044   */\n  tag_49\n  jumpi\n    /* \"#utility.yul\":1040:1041   */\n  0x00\n    /* \"#utility.yul\":1037:1038   */\n  0x00\n    /* \"#utility.yul\":1030:1042   */\n  revert\n    /* \"#utility.yul\":981:1044   */\ntag_49:\n    /* \"#utility.yul\":928:1050   */\n  pop\n  jump\t// out\n    /* \"#utility.yul\":1056:1199   */\ntag_29:\n    /* \"#utility.yul\":1113:1118   */\n  0x00\n    /* \"#utility.yul\":1144:1150   */\n  dup2\n    /* \"#utility.yul\":1138:1151   */\n  mload\n    /* \"#utility.yul\":1129:1151   */\n  swap1\n  pop\n    /* \"#utility.yul\":1160:1193   */\n  tag_51\n    /* \"#utility.yul\":1187:1192   */\n  dup2\n    /* \"#utility.yul\":1160:1193   */\n  tag_28\n  jump\t// in\ntag_51:\n    /* \"#utility.yul\":1056:1199   */\n  swap3\n  swap2\n  pop\n  pop\n  jump\t// out\n    /* \"#utility.yul\":1205:1291   */\ntag_30:\n    /* \"#utility.yul\":1240:1247   */\n  0x00\n    /* \"#utility.yul\":1280:1284   */\n  0xff\n    /* \"#utility.yul\":1273:1278   */\n  dup3\n    /* \"#utility.yul\":1269:1285   */\n  and\n    /* \"#utility.yul\":1258:1285   */\n  swap1\n  pop\n    /* \"#utility.yul\":1205:1291   */\n  swap2\n  swap1\n  pop\n  jump\t// out\n    /* \"#utility.yul\":1297:1415   */\ntag_31:\n    /* \"#utility.yul\":1368:1390   */\n  tag_54\n    /* \"#utility.yul\":1384:1389   */\n  dup2\n    /* \"#utility.yul\":1368:1390   */\n  tag_30\n  jump\t// in\ntag_54:\n    /* \"#utility.yul\":1361:1366   */\n  dup2\n    /* \"#utility.yul\":1358:1391   */\n  eq\n    /* \"#utility.yul\":1348:1409   */\n  tag_55\n  jumpi\n    /* \"#utility.yul\":1405:1406   */\n  0x00\n    /* \"#utility.yul\":1402:1403   */\n  0x00\n    /* \"#utility.yul\":1395:1407   */\n  revert\n    /* \"#utility.yul\":1348:1409   */\ntag_55:\n    /* \"#utility.yul\":1297:1415   */\n  pop\n  jump\t// out\n    /* \"#utility.yul\":1421:1560   */\ntag_32:\n    /* \"#utility.yul\":1476:1481   */\n  0x00\n    /* \"#utility.yul\":1507:1513   */\n  dup2\n    /* \"#utility.yul\":1501:1514   */\n  mload\n    /* \"#utility.yul\":1492:1514   */\n  swap1\n  pop\n    /* \"#utility.yul\":1523:1554   */\n  tag_57\n    /* \"#utility.yul\":1548:1553   */\n  dup2\n    /* \"#utility.yul\":1523:1554   */\n  tag_31\n  jump\t// in\ntag_57:\n    /* \"#utility.yul\":1421:1560   */\n  swap3\n  swap2\n  pop\n  pop\n  jump\t// out\n    /* \"#utility.yul\":1566:2382   */\ntag_3:\n    /* \"#utility.yul\":1661:1667   */\n  0x00\n    /* \"#utility.yul\":1669:1675   */\n  0x00\n    /* \"#utility.yul\":1677:1683   */\n  0x00\n    /* \"#utility.yul\":1685:1691   */\n  0x00\n    /* \"#utility.yul\":1734:1737   */\n  0x80\n    /* \"#utility.yul\":1722:1731   */\n  dup6\n    /* \"#utility.yul\":1713:1720   */\n  dup8\n    /* \"#utility.yul\":1709:1732   */\n  sub\n    /* \"#utility.yul\":1705:1738   */\n  slt\n    /* \"#utility.yul\":1702:1822   */\n  iszero\n  tag_59\n  jumpi\n    /* \"#utility.yul\":1741:1820   */\n  tag_60\n  tag_21\n  jump\t// in\ntag_60:\n    /* \"#utility.yul\":1702:1822   */\ntag_59:\n    /* \"#utility.yul\":1861:1862   */\n  0x00\n    /* \"#utility.yul\":1886:1950   */\n  tag_61\n    /* \"#utility.yul\":1942:1949   */\n  dup8\n    /* \"#utility.yul\":1933:1939   */\n  dup3\n    /* \"#utility.yul\":1922:1931   */\n  dup9\n    /* \"#utility.yul\":1918:1940   */\n  add\n    /* \"#utility.yul\":1886:1950   */\n  tag_26\n  jump\t// in\ntag_61:\n    /* \"#utility.yul\":1876:1950   */\n  swap5\n  pop\n    /* \"#utility.yul\":1832:1960   */\n  pop\n    /* \"#utility.yul\":1999:2001   */\n  0x20\n    /* \"#utility.yul\":2025:2089   */\n  tag_62\n    /* \"#utility.yul\":2081:2088   */\n  dup8\n    /* \"#utility.yul\":2072:2078   */\n  dup3\n    /* \"#utility.yul\":2061:2070   */\n  dup9\n    /* \"#utility.yul\":2057:2079   */\n  add\n    /* \"#utility.yul\":2025:2089   */\n  tag_29\n  jump\t// in\ntag_62:\n    /* \"#utility.yul\":2015:2089   */\n  swap4\n  pop\n    /* \"#utility.yul\":1970:2099   */\n  pop\n    /* \"#utility.yul\":2138:2140   */\n  0x40\n    /* \"#utility.yul\":2164:2228   */\n  tag_63\n    /* \"#utility.yul\":2220:2227   */\n  dup8\n    /* \"#utility.yul\":2211:2217   */\n  dup3\n    /* \"#utility.yul\":2200:2209   */\n  dup9\n    /* \"#utility.yul\":2196:2218   */\n  add\n    /* \"#utility.yul\":2164:2228   */\n  tag_29\n  jump\t// in\ntag_63:\n    /* \"#utility.yul\":2154:2228   */\n  swap3\n  pop\n    /* \"#utility.yul\":2109:2238   */\n  pop\n    /* \"#utility.yul\":2277:2279   */\n  0x60\n    /* \"#utility.yul\":2303:2365   */\n  tag_64\n    /* \"#utility.yul\":2357:2364   */\n  dup8\n    /* \"#utility.yul\":2348:2354   */\n  dup3\n    /* \"#utility.yul\":2337:2346   */\n  dup9\n    /* \"#utility.yul\":2333:2355   */\n  add\n    /* \"#utility.yul\":2303:2365   */\n  tag_32\n  jump\t// in\ntag_64:\n    /* \"#utility.yul\":2293:2365   */\n  swap2\n  pop\n    /* \"#utility.yul\":2248:2375   */\n  pop\n    /* \"#utility.yul\":1566:2382   */\n  swap3\n  swap6\n  swap2\n  swap5\n  pop\n  swap3\n  pop\n  jump\t// out\n    /* \"#utility.yul\":2388:2568   */\ntag_33:\n    /* \"#utility.yul\":2436:2513   */\n  0x4e487b7100000000000000000000000000000000000000000000000000000000\n    /* \"#utility.yul\":2433:2434   */\n  0x00\n    /* \"#utility.yul\":2426:2514   */\n  mstore\n    /* \"#utility.yul\":2533:2537   */\n  0x11\n    /* \"#utility.yul\":2530:2531   */\n  0x04\n    /* \"#utility.yul\":2523:2538   */\n  mstore\n    /* \"#utility.yul\":2557:2561   */\n  0x24\n    /* \"#utility.yul\":2554:2555   */\n  0x00\n    /* \"#utility.yul\":2547:2562   */\n  revert\n    /* \"#utility.yul\":2574:2984   */\ntag_17:\n    /* \"#utility.yul\":2614:2621   */\n  0x00\n    /* \"#utility.yul\":2637:2657   */\n  tag_67\n    /* \"#utility.yul\":2655:2656   */\n  dup3\n    /* \"#utility.yul\":2637:2657   */\n  tag_27\n  jump\t// in\ntag_67:\n    /* \"#utility.yul\":2632:2657   */\n  swap2\n  pop\n    /* \"#utility.yul\":2671:2691   */\n  tag_68\n    /* \"#utility.yul\":2689:2690   */\n  dup4\n    /* \"#utility.yul\":2671:2691   */\n  tag_27\n  jump\t// in\ntag_68:\n    /* \"#utility.yul\":2666:2691   */\n  swap3\n  pop\n    /* \"#utility.yul\":2726:2727   */\n  dup3\n    /* \"#utility.yul\":2723:2724   */\n  dup3\n    /* \"#utility.yul\":2719:2728   */\n  mul\n    /* \"#utility.yul\":2748:2778   */\n  tag_69\n    /* \"#utility.yul\":2766:2777   */\n  dup2\n    /* \"#utility.yul\":2748:2778   */\n  tag_27\n  jump\t// in\ntag_69:\n    /* \"#utility.yul\":2737:2778   */\n  swap2\n  pop\n    /* \"#utility.yul\":2927:2928   */\n  dup3\n    /* \"#utility.yul\":2918:2925   */\n  dup3\n    /* \"#utility.yul\":2914:2929   */\n  div\n    /* \"#utility.yul\":2911:2912   */\n  dup5\n    /* \"#utility.yul\":2908:2930   */\n  eq\n    /* \"#utility.yul\":2888:2889   */\n  dup4\n    /* \"#utility.yul\":2881:2890   */\n  iszero\n    /* \"#utility.yul\":2861:2944   */\n  or\n    /* \"#utility.yul\":2838:2977   */\n  tag_70\n  jumpi\n    /* \"#utility.yul\":2957:2975   */\n  tag_71\n  tag_33\n  jump\t// in\ntag_71:\n    /* \"#utility.yul\":2838:2977   */\ntag_70:\n    /* \"#utility.yul\":2622:2984   */\n  pop\n    /* \"#utility.yul\":2574:2984   */\n  swap3\n  swap2\n  pop\n  pop\n  jump\t// out\n    /* \"contracts/vesting.sol\":147:5482  contract VestingToken{... */\ntag_19:\n  mload(0x80)\n  mload(0xa0)\n  mload(0xc0)\n  mload(0xe0)\n  mload(0x0100)\n  codecopy(0x00, dataOffset(sub_0), dataSize(sub_0))\n  0x00\n  assignImmutable(\"0x9af6e0c6f9b8f572459f1957d56f01ba73ab5558fbad6cdb8b94d4ee7705c26c\")\n  0x00\n  assignImmutable(\"0x583f4f71b32721321fd0f20e674c3938142ce9f243e802c16cfc4def7d2dc523\")\n  0x00\n  assignImmutable(\"0xc792330a4f225cb27dfcf04335b51be24e1e574b19d83989f6006ef18804cbcb\")\n  0x00\n  assignImmutable(\"0x06cc276dcbd36fa8a4ad61c60dbe1da479204cba66678327f4ef951465234202\")\n  0x00\n  assignImmutable(\"0x6c16bd8c1487da703f7ab92e9636de903fad798d8f79b33ee17a640122eb3349\")\n  return(0x00, dataSize(sub_0))\nstop\n\nsub_0: assembly {\n        /* \"contracts/vesting.sol\":147:5482  contract VestingToken{... */\n      mstore(0x40, 0x80)\n      callvalue\n      dup1\n      iszero\n      tag_1\n      jumpi\n      revert(0x00, 0x00)\n    tag_1:\n      pop\n      jumpi(tag_2, lt(calldatasize, 0x04))\n      shr(0xe0, calldataload(0x00))\n      dup1\n      0x73863a3f\n      gt\n      tag_16\n      jumpi\n      dup1\n      0xdba6335f\n      gt\n      tag_17\n      jumpi\n      dup1\n      0xdba6335f\n      eq\n      tag_12\n      jumpi\n      dup1\n      0xec004cd0\n      eq\n      tag_13\n      jumpi\n      dup1\n      0xffd1360e\n      eq\n      tag_14\n      jumpi\n      dup1\n      0xffd161f1\n      eq\n      tag_15\n      jumpi\n      jump(tag_2)\n    tag_17:\n      dup1\n      0x73863a3f\n      eq\n      tag_9\n      jumpi\n      dup1\n      0x9608b232\n      eq\n      tag_10\n      jumpi\n      dup1\n      0xa8b5b942\n      eq\n      tag_11\n      jumpi\n      jump(tag_2)\n    tag_16:\n      dup1\n      0x01567739\n      eq\n      tag_3\n      jumpi\n      dup1\n      0x0b1665ae\n      eq\n      tag_4\n      jumpi\n      dup1\n      0x16bc8977\n      eq\n      tag_5\n      jumpi\n      dup1\n      0x4e71d92d\n      eq\n      tag_6\n      jumpi\n      dup1\n      0x4eafd241\n      eq\n      tag_7\n      jumpi\n      dup1\n      0x505a1b31\n      eq\n      tag_8\n      jumpi\n    tag_2:\n      revert(0x00, 0x00)\n        /* \"contracts/vesting.sol\":872:925  mapping (address => Beneficiary) public beneficiaries */\n    tag_3:\n      tag_18\n      0x04\n      dup1\n      calldatasize\n      sub\n      dup2\n      add\n      swap1\n      tag_19\n      swap2\n      swap1\n      tag_20\n      jump\t// in\n    tag_19:\n      tag_21\n      jump\t// in\n    tag_18:\n      mload(0x40)\n      tag_22\n      swap6\n      swap5\n      swap4\n      swap3\n      swap2\n      swap1\n      tag_23\n      jump\t// in\n    tag_22:\n      mload(0x40)\n      dup1\n      swap2\n      sub\n      swap1\n      return\n        /* \"contracts/vesting.sol\":3126:3505  function getBeneficiaryTotalAllocation(address _addr) public view returns (uint256){... */\n    tag_4:\n      tag_24\n      0x04\n      dup1\n      calldatasize\n      sub\n      dup2\n      add\n      swap1\n      tag_25\n      swap2\n      swap1\n      tag_20\n      jump\t// in\n    tag_25:\n      tag_26\n      jump\t// in\n    tag_24:\n      mload(0x40)\n      tag_27\n      swap2\n      swap1\n      tag_28\n      jump\t// in\n    tag_27:\n      mload(0x40)\n      dup1\n      swap2\n      sub\n      swap1\n      return\n        /* \"contracts/vesting.sol\":254:290  uint256 public immutable i_startTime */\n    tag_5:\n      tag_29\n      tag_30\n      jump\t// in\n    tag_29:\n      mload(0x40)\n      tag_31\n      swap2\n      swap1\n      tag_28\n      jump\t// in\n    tag_31:\n      mload(0x40)\n      dup1\n      swap2\n      sub\n      swap1\n      return\n        /* \"contracts/vesting.sol\":4760:5477  function claim() public  {... */\n    tag_6:\n      tag_32\n      tag_33\n      jump\t// in\n    tag_32:\n      stop\n        /* \"contracts/vesting.sol\":315:350  uint256 public immutable i_duration */\n    tag_7:\n      tag_34\n      tag_35\n      jump\t// in\n    tag_34:\n      mload(0x40)\n      tag_36\n      swap2\n      swap1\n      tag_28\n      jump\t// in\n    tag_36:\n      mload(0x40)\n      dup1\n      swap2\n      sub\n      swap1\n      return\n        /* \"contracts/vesting.sol\":2878:3118  function getBeneficiary(address _addr) public view returns ( uint256, Role, uint256){... */\n    tag_8:\n      tag_37\n      0x04\n      dup1\n      calldatasize\n      sub\n      dup2\n      add\n      swap1\n      tag_38\n      swap2\n      swap1\n      tag_20\n      jump\t// in\n    tag_38:\n      tag_39\n      jump\t// in\n    tag_37:\n      mload(0x40)\n      tag_40\n      swap4\n      swap3\n      swap2\n      swap1\n      tag_41\n      jump\t// in\n    tag_40:\n      mload(0x40)\n      dup1\n      swap2\n      sub\n      swap1\n      return\n        /* \"contracts/vesting.sol\":396:428  uint256 public immutable i_cliff */\n    tag_9:\n      tag_42\n      tag_43\n      jump\t// in\n    tag_42:\n      mload(0x40)\n      tag_44\n      swap2\n      swap1\n      tag_28\n      jump\t// in\n    tag_44:\n      mload(0x40)\n      dup1\n      swap2\n      sub\n      swap1\n      return\n        /* \"contracts/vesting.sol\":175:206  IERC20 public immutable i_token */\n    tag_10:\n      tag_45\n      tag_46\n      jump\t// in\n    tag_45:\n      mload(0x40)\n      tag_47\n      swap2\n      swap1\n      tag_48\n      jump\t// in\n    tag_47:\n      mload(0x40)\n      dup1\n      swap2\n      sub\n      swap1\n      return\n        /* \"contracts/vesting.sol\":474:507  uint256 public percentShareAssign */\n    tag_11:\n      tag_49\n      tag_50\n      jump\t// in\n    tag_49:\n      mload(0x40)\n      tag_51\n      swap2\n      swap1\n      tag_28\n      jump\t// in\n    tag_51:\n      mload(0x40)\n      dup1\n      swap2\n      sub\n      swap1\n      return\n        /* \"contracts/vesting.sol\":213:245  address public immutable i_owner */\n    tag_12:\n      tag_52\n      tag_53\n      jump\t// in\n    tag_52:\n      mload(0x40)\n      tag_54\n      swap2\n      swap1\n      tag_55\n      jump\t// in\n    tag_54:\n      mload(0x40)\n      dup1\n      swap2\n      sub\n      swap1\n      return\n        /* \"contracts/vesting.sol\":932:965  address[] public allBeneficiaries */\n    tag_13:\n      tag_56\n      0x04\n      dup1\n      calldatasize\n      sub\n      dup2\n      add\n      swap1\n      tag_57\n      swap2\n      swap1\n      tag_58\n      jump\t// in\n    tag_57:\n      tag_59\n      jump\t// in\n    tag_56:\n      mload(0x40)\n      tag_60\n      swap2\n      swap1\n      tag_55\n      jump\t// in\n    tag_60:\n      mload(0x40)\n      dup1\n      swap2\n      sub\n      swap1\n      return\n        /* \"contracts/vesting.sol\":3513:3618  function getTotalVestedPercent() public view returns(uint256){... */\n    tag_14:\n      tag_61\n      tag_62\n      jump\t// in\n    tag_61:\n      mload(0x40)\n      tag_63\n      swap2\n      swap1\n      tag_28\n      jump\t// in\n    tag_63:\n      mload(0x40)\n      dup1\n      swap2\n      sub\n      swap1\n      return\n        /* \"contracts/vesting.sol\":1905:2870  function addBeneficiary(address _addr, uint256 _percentShare, Role _role) public onlyOwner{... */\n    tag_15:\n      tag_64\n      0x04\n      dup1\n      calldatasize\n      sub\n      dup2\n      add\n      swap1\n      tag_65\n      swap2\n      swap1\n      tag_66\n      jump\t// in\n    tag_65:\n      tag_67\n      jump\t// in\n    tag_64:\n      stop\n        /* \"contracts/vesting.sol\":872:925  mapping (address => Beneficiary) public beneficiaries */\n    tag_21:\n      mstore(0x20, 0x01)\n      dup1\n      0x00\n      mstore\n      keccak256(0x00, 0x40)\n      0x00\n      swap2\n      pop\n      swap1\n      pop\n      dup1\n      0x00\n      add\n      sload\n      swap1\n      dup1\n      0x01\n      add\n      sload\n      swap1\n      dup1\n      0x02\n      add\n      0x00\n      swap1\n      sload\n      swap1\n      0x0100\n      exp\n      swap1\n      div\n      0xff\n      and\n      swap1\n      dup1\n      0x03\n      add\n      sload\n      swap1\n      dup1\n      0x04\n      add\n      0x00\n      swap1\n      sload\n      swap1\n      0x0100\n      exp\n      swap1\n      div\n      0xff\n      and\n      swap1\n      pop\n      dup6\n      jump\t// out\n        /* \"contracts/vesting.sol\":3126:3505  function getBeneficiaryTotalAllocation(address _addr) public view returns (uint256){... */\n    tag_26:\n        /* \"contracts/vesting.sol\":3201:3208  uint256 */\n      0x00\n        /* \"contracts/vesting.sol\":3224:3237  beneficiaries */\n      0x01\n        /* \"contracts/vesting.sol\":3224:3244  beneficiaries[_addr] */\n      0x00\n        /* \"contracts/vesting.sol\":3238:3243  _addr */\n      dup4\n        /* \"contracts/vesting.sol\":3224:3244  beneficiaries[_addr] */\n      0xffffffffffffffffffffffffffffffffffffffff\n      and\n      0xffffffffffffffffffffffffffffffffffffffff\n      and\n      dup2\n      mstore\n      0x20\n      add\n      swap1\n      dup2\n      mstore\n      0x20\n      add\n      0x00\n      keccak256\n        /* \"contracts/vesting.sol\":3224:3251  beneficiaries[_addr].exists */\n      0x04\n      add\n      0x00\n      swap1\n      sload\n      swap1\n      0x0100\n      exp\n      swap1\n      div\n      0xff\n      and\n        /* \"contracts/vesting.sol\":3220:3281  if(!beneficiaries[_addr].exists) revert BeneficiaryNotFound() */\n      tag_69\n      jumpi\n        /* \"contracts/vesting.sol\":3260:3281  BeneficiaryNotFound() */\n      mload(0x40)\n      0x694f351f00000000000000000000000000000000000000000000000000000000\n      dup2\n      mstore\n      0x04\n      add\n      mload(0x40)\n      dup1\n      swap2\n      sub\n      swap1\n      revert\n        /* \"contracts/vesting.sol\":3220:3281  if(!beneficiaries[_addr].exists) revert BeneficiaryNotFound() */\n    tag_69:\n        /* \"contracts/vesting.sol\":3294:3314  uint256 percentShare */\n      0x00\n        /* \"contracts/vesting.sol\":3319:3332  beneficiaries */\n      0x01\n        /* \"contracts/vesting.sol\":3319:3339  beneficiaries[_addr] */\n      0x00\n        /* \"contracts/vesting.sol\":3333:3338  _addr */\n      dup5\n        /* \"contracts/vesting.sol\":3319:3339  beneficiaries[_addr] */\n      0xffffffffffffffffffffffffffffffffffffffff\n      and\n      0xffffffffffffffffffffffffffffffffffffffff\n      and\n      dup2\n      mstore\n      0x20\n      add\n      swap1\n      dup2\n      mstore\n      0x20\n      add\n      0x00\n      keccak256\n        /* \"contracts/vesting.sol\":3319:3352  beneficiaries[_addr].percentShare */\n      0x00\n      add\n      sload\n        /* \"contracts/vesting.sol\":3294:3352  uint256 percentShare   = beneficiaries[_addr].percentShare */\n      swap1\n      pop\n        /* \"contracts/vesting.sol\":3363:3386  uint256 contractBalance */\n      0x00\n        /* \"contracts/vesting.sol\":3396:3403  i_token */\n      immutable(\"0x6c16bd8c1487da703f7ab92e9636de903fad798d8f79b33ee17a640122eb3349\")\n        /* \"contracts/vesting.sol\":3389:3414  IERC20(i_token).balanceOf */\n      0xffffffffffffffffffffffffffffffffffffffff\n      and\n      0x70a08231\n        /* \"contracts/vesting.sol\":3423:3427  this */\n      address\n        /* \"contracts/vesting.sol\":3389:3429  IERC20(i_token).balanceOf(address(this)) */\n      mload(0x40)\n      dup3\n      0xffffffff\n      and\n      0xe0\n      shl\n      dup2\n      mstore\n      0x04\n      add\n      tag_70\n      swap2\n      swap1\n      tag_55\n      jump\t// in\n    tag_70:\n      0x20\n      mload(0x40)\n      dup1\n      dup4\n      sub\n      dup2\n      dup7\n      gas\n      staticcall\n      iszero\n      dup1\n      iszero\n      tag_72\n      jumpi\n      returndatacopy(0x00, 0x00, returndatasize)\n      revert(0x00, returndatasize)\n    tag_72:\n      pop\n      pop\n      pop\n      pop\n      mload(0x40)\n      returndatasize\n      not(0x1f)\n      0x1f\n      dup3\n      add\n      and\n      dup3\n      add\n      dup1\n      0x40\n      mstore\n      pop\n      dup2\n      add\n      swap1\n      tag_73\n      swap2\n      swap1\n      tag_74\n      jump\t// in\n    tag_73:\n        /* \"contracts/vesting.sol\":3363:3429  uint256 contractBalance = IERC20(i_token).balanceOf(address(this)) */\n      swap1\n      pop\n        /* \"contracts/vesting.sol\":3484:3487  100 */\n      0x64\n        /* \"contracts/vesting.sol\":3468:3480  percentShare */\n      dup3\n        /* \"contracts/vesting.sol\":3450:3465  contractBalance */\n      dup3\n        /* \"contracts/vesting.sol\":3450:3480  contractBalance * percentShare */\n      tag_75\n      swap2\n      swap1\n      tag_76\n      jump\t// in\n    tag_75:\n        /* \"contracts/vesting.sol\":3449:3487  (contractBalance * percentShare) / 100 */\n      tag_77\n      swap2\n      swap1\n      tag_78\n      jump\t// in\n    tag_77:\n        /* \"contracts/vesting.sol\":3442:3487  return (contractBalance * percentShare) / 100 */\n      swap3\n      pop\n      pop\n      pop\n        /* \"contracts/vesting.sol\":3126:3505  function getBeneficiaryTotalAllocation(address _addr) public view returns (uint256){... */\n      swap2\n      swap1\n      pop\n      jump\t// out\n        /* \"contracts/vesting.sol\":254:290  uint256 public immutable i_startTime */\n    tag_30:\n      immutable(\"0xc792330a4f225cb27dfcf04335b51be24e1e574b19d83989f6006ef18804cbcb\")\n      dup2\n      jump\t// out\n        /* \"contracts/vesting.sol\":4760:5477  function claim() public  {... */\n    tag_33:\n        /* \"contracts/vesting.sol\":4796:4827  Beneficiary storage beneficiary */\n      0x00\n        /* \"contracts/vesting.sol\":4830:4843  beneficiaries */\n      0x01\n        /* \"contracts/vesting.sol\":4830:4855  beneficiaries[msg.sender] */\n      0x00\n        /* \"contracts/vesting.sol\":4844:4854  msg.sender */\n      caller\n        /* \"contracts/vesting.sol\":4830:4855  beneficiaries[msg.sender] */\n      0xffffffffffffffffffffffffffffffffffffffff\n      and\n      0xffffffffffffffffffffffffffffffffffffffff\n      and\n      dup2\n      mstore\n      0x20\n      add\n      swap1\n      dup2\n      mstore\n      0x20\n      add\n      0x00\n      keccak256\n        /* \"contracts/vesting.sol\":4796:4855  Beneficiary storage beneficiary = beneficiaries[msg.sender] */\n      swap1\n      pop\n        /* \"contracts/vesting.sol\":4872:4883  beneficiary */\n      dup1\n        /* \"contracts/vesting.sol\":4872:4890  beneficiary.exists */\n      0x04\n      add\n      0x00\n      swap1\n      sload\n      swap1\n      0x0100\n      exp\n      swap1\n      div\n      0xff\n      and\n        /* \"contracts/vesting.sol\":4868:4920  if(!beneficiary.exists) revert BeneficiaryNotFound() */\n      tag_80\n      jumpi\n        /* \"contracts/vesting.sol\":4899:4920  BeneficiaryNotFound() */\n      mload(0x40)\n      0x694f351f00000000000000000000000000000000000000000000000000000000\n      dup2\n      mstore\n      0x04\n      add\n      mload(0x40)\n      dup1\n      swap2\n      sub\n      swap1\n      revert\n        /* \"contracts/vesting.sol\":4868:4920  if(!beneficiary.exists) revert BeneficiaryNotFound() */\n    tag_80:\n        /* \"contracts/vesting.sol\":4960:4961  0 */\n      0x00\n        /* \"contracts/vesting.sol\":4934:4945  beneficiary */\n      dup2\n        /* \"contracts/vesting.sol\":4934:4956  beneficiary.allocation */\n      0x01\n      add\n      sload\n        /* \"contracts/vesting.sol\":4934:4961  beneficiary.allocation == 0 */\n      sub\n        /* \"contracts/vesting.sol\":4931:4991  if(beneficiary.allocation == 0) revert BeneficiaryNotFound() */\n      tag_81\n      jumpi\n        /* \"contracts/vesting.sol\":4970:4991  BeneficiaryNotFound() */\n      mload(0x40)\n      0x694f351f00000000000000000000000000000000000000000000000000000000\n      dup2\n      mstore\n      0x04\n      add\n      mload(0x40)\n      dup1\n      swap2\n      sub\n      swap1\n      revert\n        /* \"contracts/vesting.sol\":4931:4991  if(beneficiary.allocation == 0) revert BeneficiaryNotFound() */\n    tag_81:\n        /* \"contracts/vesting.sol\":5010:5024  uint256 vested */\n      0x00\n        /* \"contracts/vesting.sol\":5027:5054  getVestedAmount(msg.sender) */\n      tag_82\n        /* \"contracts/vesting.sol\":5043:5053  msg.sender */\n      caller\n        /* \"contracts/vesting.sol\":5027:5042  getVestedAmount */\n      tag_83\n        /* \"contracts/vesting.sol\":5027:5054  getVestedAmount(msg.sender) */\n      jump\t// in\n    tag_82:\n        /* \"contracts/vesting.sol\":5010:5054  uint256 vested = getVestedAmount(msg.sender) */\n      swap1\n      pop\n        /* \"contracts/vesting.sol\":5065:5087  uint256 alreadyClaimed */\n      0x00\n        /* \"contracts/vesting.sol\":5090:5101  beneficiary */\n      dup3\n        /* \"contracts/vesting.sol\":5090:5109  beneficiary.claimed */\n      0x03\n      add\n      sload\n        /* \"contracts/vesting.sol\":5065:5109  uint256 alreadyClaimed = beneficiary.claimed */\n      swap1\n      pop\n        /* \"contracts/vesting.sol\":5170:5184  alreadyClaimed */\n      dup1\n        /* \"contracts/vesting.sol\":5160:5166  vested */\n      dup3\n        /* \"contracts/vesting.sol\":5160:5184  vested <= alreadyClaimed */\n      gt\n        /* \"contracts/vesting.sol\":5157:5210  if(vested <= alreadyClaimed) revert NoTokensToClaim() */\n      tag_84\n      jumpi\n        /* \"contracts/vesting.sol\":5193:5210  NoTokensToClaim() */\n      mload(0x40)\n      0x0f3f861000000000000000000000000000000000000000000000000000000000\n      dup2\n      mstore\n      0x04\n      add\n      mload(0x40)\n      dup1\n      swap2\n      sub\n      swap1\n      revert\n        /* \"contracts/vesting.sol\":5157:5210  if(vested <= alreadyClaimed) revert NoTokensToClaim() */\n    tag_84:\n        /* \"contracts/vesting.sol\":5323:5340  uint256 claimable */\n      0x00\n        /* \"contracts/vesting.sol\":5352:5366  alreadyClaimed */\n      dup2\n        /* \"contracts/vesting.sol\":5343:5349  vested */\n      dup4\n        /* \"contracts/vesting.sol\":5343:5366  vested - alreadyClaimed */\n      tag_85\n      swap2\n      swap1\n      tag_86\n      jump\t// in\n    tag_85:\n        /* \"contracts/vesting.sol\":5323:5366  uint256 claimable = vested - alreadyClaimed */\n      swap1\n      pop\n        /* \"contracts/vesting.sol\":5400:5409  claimable */\n      dup1\n        /* \"contracts/vesting.sol\":5377:5388  beneficiary */\n      dup5\n        /* \"contracts/vesting.sol\":5377:5396  beneficiary.claimed */\n      0x03\n      add\n      0x00\n        /* \"contracts/vesting.sol\":5377:5409  beneficiary.claimed += claimable */\n      dup3\n      dup3\n      sload\n      tag_87\n      swap2\n      swap1\n      tag_88\n      jump\t// in\n    tag_87:\n      swap3\n      pop\n      pop\n      dup2\n      swap1\n      sstore\n      pop\n        /* \"contracts/vesting.sol\":5430:5437  i_token */\n      immutable(\"0x6c16bd8c1487da703f7ab92e9636de903fad798d8f79b33ee17a640122eb3349\")\n        /* \"contracts/vesting.sol\":5430:5446  i_token.transfer */\n      0xffffffffffffffffffffffffffffffffffffffff\n      and\n      0xa9059cbb\n        /* \"contracts/vesting.sol\":5447:5457  msg.sender */\n      caller\n        /* \"contracts/vesting.sol\":5459:5468  claimable */\n      dup4\n        /* \"contracts/vesting.sol\":5430:5469  i_token.transfer(msg.sender, claimable) */\n      mload(0x40)\n      dup4\n      0xffffffff\n      and\n      0xe0\n      shl\n      dup2\n      mstore\n      0x04\n      add\n      tag_89\n      swap3\n      swap2\n      swap1\n      tag_90\n      jump\t// in\n    tag_89:\n      0x20\n      mload(0x40)\n      dup1\n      dup4\n      sub\n      dup2\n      0x00\n      dup8\n      gas\n      call\n      iszero\n      dup1\n      iszero\n      tag_92\n      jumpi\n      returndatacopy(0x00, 0x00, returndatasize)\n      revert(0x00, returndatasize)\n    tag_92:\n      pop\n      pop\n      pop\n      pop\n      mload(0x40)\n      returndatasize\n      not(0x1f)\n      0x1f\n      dup3\n      add\n      and\n      dup3\n      add\n      dup1\n      0x40\n      mstore\n      pop\n      dup2\n      add\n      swap1\n      tag_93\n      swap2\n      swap1\n      tag_94\n      jump\t// in\n    tag_93:\n      pop\n        /* \"contracts/vesting.sol\":4785:5477  {... */\n      pop\n      pop\n      pop\n      pop\n        /* \"contracts/vesting.sol\":4760:5477  function claim() public  {... */\n      jump\t// out\n        /* \"contracts/vesting.sol\":315:350  uint256 public immutable i_duration */\n    tag_35:\n      immutable(\"0x583f4f71b32721321fd0f20e674c3938142ce9f243e802c16cfc4def7d2dc523\")\n      dup2\n      jump\t// out\n        /* \"contracts/vesting.sol\":2878:3118  function getBeneficiary(address _addr) public view returns ( uint256, Role, uint256){... */\n    tag_39:\n        /* \"contracts/vesting.sol\":2939:2946  uint256 */\n      0x00\n        /* \"contracts/vesting.sol\":2948:2952  Role */\n      0x00\n        /* \"contracts/vesting.sol\":2954:2961  uint256 */\n      0x00\n        /* \"contracts/vesting.sol\":2973:3004  Beneficiary storage beneficiary */\n      0x00\n        /* \"contracts/vesting.sol\":3007:3020  beneficiaries */\n      0x01\n        /* \"contracts/vesting.sol\":3007:3027  beneficiaries[_addr] */\n      0x00\n        /* \"contracts/vesting.sol\":3021:3026  _addr */\n      dup7\n        /* \"contracts/vesting.sol\":3007:3027  beneficiaries[_addr] */\n      0xffffffffffffffffffffffffffffffffffffffff\n      and\n      0xffffffffffffffffffffffffffffffffffffffff\n      and\n      dup2\n      mstore\n      0x20\n      add\n      swap1\n      dup2\n      mstore\n      0x20\n      add\n      0x00\n      keccak256\n        /* \"contracts/vesting.sol\":2973:3027  Beneficiary storage beneficiary = beneficiaries[_addr] */\n      swap1\n      pop\n        /* \"contracts/vesting.sol\":3046:3057  beneficiary */\n      dup1\n        /* \"contracts/vesting.sol\":3046:3068  beneficiary.allocation */\n      0x01\n      add\n      sload\n        /* \"contracts/vesting.sol\":3070:3081  beneficiary */\n      dup2\n        /* \"contracts/vesting.sol\":3070:3086  beneficiary.role */\n      0x02\n      add\n      0x00\n      swap1\n      sload\n      swap1\n      0x0100\n      exp\n      swap1\n      div\n      0xff\n      and\n        /* \"contracts/vesting.sol\":3088:3099  beneficiary */\n      dup3\n        /* \"contracts/vesting.sol\":3088:3107  beneficiary.claimed */\n      0x03\n      add\n      sload\n        /* \"contracts/vesting.sol\":3038:3108  return (beneficiary.allocation, beneficiary.role, beneficiary.claimed) */\n      swap4\n      pop\n      swap4\n      pop\n      swap4\n      pop\n      pop\n        /* \"contracts/vesting.sol\":2878:3118  function getBeneficiary(address _addr) public view returns ( uint256, Role, uint256){... */\n      swap2\n      swap4\n      swap1\n      swap3\n      pop\n      jump\t// out\n        /* \"contracts/vesting.sol\":396:428  uint256 public immutable i_cliff */\n    tag_43:\n      immutable(\"0x9af6e0c6f9b8f572459f1957d56f01ba73ab5558fbad6cdb8b94d4ee7705c26c\")\n      dup2\n      jump\t// out\n        /* \"contracts/vesting.sol\":175:206  IERC20 public immutable i_token */\n    tag_46:\n      immutable(\"0x6c16bd8c1487da703f7ab92e9636de903fad798d8f79b33ee17a640122eb3349\")\n      dup2\n      jump\t// out\n        /* \"contracts/vesting.sol\":474:507  uint256 public percentShareAssign */\n    tag_50:\n      sload(0x00)\n      dup2\n      jump\t// out\n        /* \"contracts/vesting.sol\":213:245  address public immutable i_owner */\n    tag_53:\n      immutable(\"0x06cc276dcbd36fa8a4ad61c60dbe1da479204cba66678327f4ef951465234202\")\n      dup2\n      jump\t// out\n        /* \"contracts/vesting.sol\":932:965  address[] public allBeneficiaries */\n    tag_59:\n      0x02\n      dup2\n      dup2\n      sload\n      dup2\n      lt\n      tag_96\n      jumpi\n      0x00\n      dup1\n      revert\n    tag_96:\n      swap1\n      0x00\n      mstore\n      keccak256(0x00, 0x20)\n      add\n      0x00\n      swap2\n      pop\n      sload\n      swap1\n      0x0100\n      exp\n      swap1\n      div\n      0xffffffffffffffffffffffffffffffffffffffff\n      and\n      dup2\n      jump\t// out\n        /* \"contracts/vesting.sol\":3513:3618  function getTotalVestedPercent() public view returns(uint256){... */\n    tag_62:\n        /* \"contracts/vesting.sol\":3566:3573  uint256 */\n      0x00\n        /* \"contracts/vesting.sol\":3592:3610  percentShareAssign */\n      sload(0x00)\n        /* \"contracts/vesting.sol\":3585:3610  return percentShareAssign */\n      swap1\n      pop\n        /* \"contracts/vesting.sol\":3513:3618  function getTotalVestedPercent() public view returns(uint256){... */\n      swap1\n      jump\t// out\n        /* \"contracts/vesting.sol\":1905:2870  function addBeneficiary(address _addr, uint256 _percentShare, Role _role) public onlyOwner{... */\n    tag_67:\n        /* \"contracts/vesting.sol\":1027:1034  i_owner */\n      immutable(\"0x06cc276dcbd36fa8a4ad61c60dbe1da479204cba66678327f4ef951465234202\")\n        /* \"contracts/vesting.sol\":1013:1034  msg.sender == i_owner */\n      0xffffffffffffffffffffffffffffffffffffffff\n      and\n        /* \"contracts/vesting.sol\":1013:1023  msg.sender */\n      caller\n        /* \"contracts/vesting.sol\":1013:1034  msg.sender == i_owner */\n      0xffffffffffffffffffffffffffffffffffffffff\n      and\n      eq\n        /* \"contracts/vesting.sol\":1005:1048  require(msg.sender == i_owner, 'Not Owner') */\n      tag_100\n      jumpi\n      mload(0x40)\n      0x08c379a000000000000000000000000000000000000000000000000000000000\n      dup2\n      mstore\n      0x04\n      add\n      tag_101\n      swap1\n      tag_102\n      jump\t// in\n    tag_101:\n      mload(0x40)\n      dup1\n      swap2\n      sub\n      swap1\n      revert\n    tag_100:\n        /* \"contracts/vesting.sol\":2026:2027  0 */\n      0x00\n        /* \"contracts/vesting.sol\":2009:2022  _percentShare */\n      dup3\n        /* \"contracts/vesting.sol\":2009:2027  _percentShare == 0 */\n      sub\n        /* \"contracts/vesting.sol\":2006:2057  if(_percentShare == 0) revert ShareMustExceedZero() */\n      tag_104\n      jumpi\n        /* \"contracts/vesting.sol\":2036:2057  ShareMustExceedZero() */\n      mload(0x40)\n      0x9ab1056100000000000000000000000000000000000000000000000000000000\n      dup2\n      mstore\n      0x04\n      add\n      mload(0x40)\n      dup1\n      swap2\n      sub\n      swap1\n      revert\n        /* \"contracts/vesting.sol\":2006:2057  if(_percentShare == 0) revert ShareMustExceedZero() */\n    tag_104:\n        /* \"contracts/vesting.sol\":2082:2091  Role.None */\n      0x00\n        /* \"contracts/vesting.sol\":2073:2091  _role == Role.None */\n      0x03\n      dup2\n      gt\n      iszero\n      tag_105\n      jumpi\n      tag_106\n      tag_107\n      jump\t// in\n    tag_106:\n    tag_105:\n        /* \"contracts/vesting.sol\":2073:2078  _role */\n      dup2\n        /* \"contracts/vesting.sol\":2073:2091  _role == Role.None */\n      0x03\n      dup2\n      gt\n      iszero\n      tag_108\n      jumpi\n      tag_109\n      tag_107\n      jump\t// in\n    tag_109:\n    tag_108:\n      sub\n        /* \"contracts/vesting.sol\":2070:2113  if(_role == Role.None) revert InvalidRole() */\n      tag_110\n      jumpi\n        /* \"contracts/vesting.sol\":2100:2113  InvalidRole() */\n      mload(0x40)\n      0xd954416a00000000000000000000000000000000000000000000000000000000\n      dup2\n      mstore\n      0x04\n      add\n      mload(0x40)\n      dup1\n      swap2\n      sub\n      swap1\n      revert\n        /* \"contracts/vesting.sol\":2070:2113  if(_role == Role.None) revert InvalidRole() */\n    tag_110:\n        /* \"contracts/vesting.sol\":2147:2148  0 */\n      0x00\n        /* \"contracts/vesting.sol\":2130:2149  _addr == address(0) */\n      0xffffffffffffffffffffffffffffffffffffffff\n      and\n        /* \"contracts/vesting.sol\":2130:2135  _addr */\n      dup4\n        /* \"contracts/vesting.sol\":2130:2149  _addr == address(0) */\n      0xffffffffffffffffffffffffffffffffffffffff\n      and\n      sub\n        /* \"contracts/vesting.sol\":2127:2184  if(_addr == address(0))         revert ZeroAddressError() */\n      tag_111\n      jumpi\n        /* \"contracts/vesting.sol\":2166:2184  ZeroAddressError() */\n      mload(0x40)\n      0x3efa09af00000000000000000000000000000000000000000000000000000000\n      dup2\n      mstore\n      0x04\n      add\n      mload(0x40)\n      dup1\n      swap2\n      sub\n      swap1\n      revert\n        /* \"contracts/vesting.sol\":2127:2184  if(_addr == address(0))         revert ZeroAddressError() */\n    tag_111:\n        /* \"contracts/vesting.sol\":2208:2221  beneficiaries */\n      0x01\n        /* \"contracts/vesting.sol\":2208:2228  beneficiaries[_addr] */\n      0x00\n        /* \"contracts/vesting.sol\":2222:2227  _addr */\n      dup5\n        /* \"contracts/vesting.sol\":2208:2228  beneficiaries[_addr] */\n      0xffffffffffffffffffffffffffffffffffffffff\n      and\n      0xffffffffffffffffffffffffffffffffffffffff\n      and\n      dup2\n      mstore\n      0x20\n      add\n      swap1\n      dup2\n      mstore\n      0x20\n      add\n      0x00\n      keccak256\n        /* \"contracts/vesting.sol\":2208:2235  beneficiaries[_addr].exists */\n      0x04\n      add\n      0x00\n      swap1\n      sload\n      swap1\n      0x0100\n      exp\n      swap1\n      div\n      0xff\n      and\n        /* \"contracts/vesting.sol\":2205:2269  if(beneficiaries[_addr].exists) revert BeneficiaryAlreadyExist() */\n      iszero\n      tag_112\n      jumpi\n        /* \"contracts/vesting.sol\":2244:2269  BeneficiaryAlreadyExist() */\n      mload(0x40)\n      0x3593535100000000000000000000000000000000000000000000000000000000\n      dup2\n      mstore\n      0x04\n      add\n      mload(0x40)\n      dup1\n      swap2\n      sub\n      swap1\n      revert\n        /* \"contracts/vesting.sol\":2205:2269  if(beneficiaries[_addr].exists) revert BeneficiaryAlreadyExist() */\n    tag_112:\n        /* \"contracts/vesting.sol\":2282:2303  uint256 newTotalShare */\n      0x00\n        /* \"contracts/vesting.sol\":2327:2340  _percentShare */\n      dup3\n        /* \"contracts/vesting.sol\":2306:2324  percentShareAssign */\n      sload(0x00)\n        /* \"contracts/vesting.sol\":2306:2340  percentShareAssign + _percentShare */\n      tag_113\n      swap2\n      swap1\n      tag_88\n      jump\t// in\n    tag_113:\n        /* \"contracts/vesting.sol\":2282:2340  uint256 newTotalShare = percentShareAssign + _percentShare */\n      swap1\n      pop\n        /* \"contracts/vesting.sol\":2370:2373  100 */\n      0x64\n        /* \"contracts/vesting.sol\":2354:2367  newTotalShare */\n      dup2\n        /* \"contracts/vesting.sol\":2354:2373  newTotalShare > 100 */\n      gt\n        /* \"contracts/vesting.sol\":2351:2403  if(newTotalShare > 100 ) revert TotalShareExceeded() */\n      iszero\n      tag_114\n      jumpi\n        /* \"contracts/vesting.sol\":2383:2403  TotalShareExceeded() */\n      mload(0x40)\n      0xa98128db00000000000000000000000000000000000000000000000000000000\n      dup2\n      mstore\n      0x04\n      add\n      mload(0x40)\n      dup1\n      swap2\n      sub\n      swap1\n      revert\n        /* \"contracts/vesting.sol\":2351:2403  if(newTotalShare > 100 ) revert TotalShareExceeded() */\n    tag_114:\n        /* \"contracts/vesting.sol\":2416:2439  uint256 contractBalance */\n      0x00\n        /* \"contracts/vesting.sol\":2449:2456  i_token */\n      immutable(\"0x6c16bd8c1487da703f7ab92e9636de903fad798d8f79b33ee17a640122eb3349\")\n        /* \"contracts/vesting.sol\":2442:2467  IERC20(i_token).balanceOf */\n      0xffffffffffffffffffffffffffffffffffffffff\n      and\n      0x70a08231\n        /* \"contracts/vesting.sol\":2476:2480  this */\n      address\n        /* \"contracts/vesting.sol\":2442:2482  IERC20(i_token).balanceOf(address(this)) */\n      mload(0x40)\n      dup3\n      0xffffffff\n      and\n      0xe0\n      shl\n      dup2\n      mstore\n      0x04\n      add\n      tag_115\n      swap2\n      swap1\n      tag_55\n      jump\t// in\n    tag_115:\n      0x20\n      mload(0x40)\n      dup1\n      dup4\n      sub\n      dup2\n      dup7\n      gas\n      staticcall\n      iszero\n      dup1\n      iszero\n      tag_117\n      jumpi\n      returndatacopy(0x00, 0x00, returndatasize)\n      revert(0x00, returndatasize)\n    tag_117:\n      pop\n      pop\n      pop\n      pop\n      mload(0x40)\n      returndatasize\n      not(0x1f)\n      0x1f\n      dup3\n      add\n      and\n      dup3\n      add\n      dup1\n      0x40\n      mstore\n      pop\n      dup2\n      add\n      swap1\n      tag_118\n      swap2\n      swap1\n      tag_74\n      jump\t// in\n    tag_118:\n        /* \"contracts/vesting.sol\":2416:2482  uint256 contractBalance = IERC20(i_token).balanceOf(address(this)) */\n      swap1\n      pop\n        /* \"contracts/vesting.sol\":2493:2512  uint256 _allocation */\n      0x00\n        /* \"contracts/vesting.sol\":2551:2554  100 */\n      0x64\n        /* \"contracts/vesting.sol\":2534:2547  _percentShare */\n      dup6\n        /* \"contracts/vesting.sol\":2516:2531  contractBalance */\n      dup4\n        /* \"contracts/vesting.sol\":2516:2547  contractBalance * _percentShare */\n      tag_119\n      swap2\n      swap1\n      tag_76\n      jump\t// in\n    tag_119:\n        /* \"contracts/vesting.sol\":2515:2554  (contractBalance * _percentShare) / 100 */\n      tag_120\n      swap2\n      swap1\n      tag_78\n      jump\t// in\n    tag_120:\n        /* \"contracts/vesting.sol\":2493:2554  uint256 _allocation = (contractBalance * _percentShare) / 100 */\n      swap1\n      pop\n        /* \"contracts/vesting.sol\":2590:2774  Beneficiary({... */\n      mload(0x40)\n      dup1\n      0xa0\n      add\n      0x40\n      mstore\n      dup1\n        /* \"contracts/vesting.sol\":2631:2644  _percentShare */\n      dup7\n        /* \"contracts/vesting.sol\":2590:2774  Beneficiary({... */\n      dup2\n      mstore\n      0x20\n      add\n        /* \"contracts/vesting.sol\":2671:2682  _allocation */\n      dup3\n        /* \"contracts/vesting.sol\":2590:2774  Beneficiary({... */\n      dup2\n      mstore\n      0x20\n      add\n        /* \"contracts/vesting.sol\":2703:2708  _role */\n      dup6\n        /* \"contracts/vesting.sol\":2590:2774  Beneficiary({... */\n      0x03\n      dup2\n      gt\n      iszero\n      tag_121\n      jumpi\n      tag_122\n      tag_107\n      jump\t// in\n    tag_122:\n    tag_121:\n      dup2\n      mstore\n      0x20\n      add\n        /* \"contracts/vesting.sol\":2732:2733  0 */\n      0x00\n        /* \"contracts/vesting.sol\":2590:2774  Beneficiary({... */\n      dup2\n      mstore\n      0x20\n      add\n        /* \"contracts/vesting.sol\":2756:2760  true */\n      0x01\n        /* \"contracts/vesting.sol\":2590:2774  Beneficiary({... */\n      iszero\n      iszero\n      dup2\n      mstore\n      pop\n        /* \"contracts/vesting.sol\":2567:2580  beneficiaries */\n      0x01\n        /* \"contracts/vesting.sol\":2567:2587  beneficiaries[_addr] */\n      0x00\n        /* \"contracts/vesting.sol\":2581:2586  _addr */\n      dup9\n        /* \"contracts/vesting.sol\":2567:2587  beneficiaries[_addr] */\n      0xffffffffffffffffffffffffffffffffffffffff\n      and\n      0xffffffffffffffffffffffffffffffffffffffff\n      and\n      dup2\n      mstore\n      0x20\n      add\n      swap1\n      dup2\n      mstore\n      0x20\n      add\n      0x00\n      keccak256\n        /* \"contracts/vesting.sol\":2567:2774  beneficiaries[_addr] = Beneficiary({... */\n      0x00\n      dup3\n      add\n      mload\n      dup2\n      0x00\n      add\n      sstore\n      0x20\n      dup3\n      add\n      mload\n      dup2\n      0x01\n      add\n      sstore\n      0x40\n      dup3\n      add\n      mload\n      dup2\n      0x02\n      add\n      exp(0x0100, 0x00)\n      dup2\n      sload\n      dup2\n      0xff\n      mul\n      not\n      and\n      swap1\n      dup4\n      0x03\n      dup2\n      gt\n      iszero\n      tag_123\n      jumpi\n      tag_124\n      tag_107\n      jump\t// in\n    tag_124:\n    tag_123:\n      mul\n      or\n      swap1\n      sstore\n      pop\n      0x60\n      dup3\n      add\n      mload\n      dup2\n      0x03\n      add\n      sstore\n      0x80\n      dup3\n      add\n      mload\n      dup2\n      0x04\n      add\n      exp(0x0100, 0x00)\n      dup2\n      sload\n      dup2\n      0xff\n      mul\n      not\n      and\n      swap1\n      dup4\n      iszero\n      iszero\n      mul\n      or\n      swap1\n      sstore\n      pop\n      swap1\n      pop\n      pop\n        /* \"contracts/vesting.sol\":2808:2821  newTotalShare */\n      dup3\n        /* \"contracts/vesting.sol\":2787:2805  percentShareAssign */\n      0x00\n        /* \"contracts/vesting.sol\":2787:2821  percentShareAssign = newTotalShare */\n      dup2\n      swap1\n      sstore\n      pop\n        /* \"contracts/vesting.sol\":2834:2850  allBeneficiaries */\n      0x02\n        /* \"contracts/vesting.sol\":2856:2861  _addr */\n      dup7\n        /* \"contracts/vesting.sol\":2834:2862  allBeneficiaries.push(_addr) */\n      swap1\n      dup1\n      0x01\n      dup2\n      sload\n      add\n      dup1\n      dup3\n      sstore\n      dup1\n      swap2\n      pop\n      pop\n      0x01\n      swap1\n      sub\n      swap1\n      0x00\n      mstore\n      keccak256(0x00, 0x20)\n      add\n      0x00\n      swap1\n      swap2\n      swap1\n      swap2\n      swap1\n      swap2\n      0x0100\n      exp\n      dup2\n      sload\n      dup2\n      0xffffffffffffffffffffffffffffffffffffffff\n      mul\n      not\n      and\n      swap1\n      dup4\n      0xffffffffffffffffffffffffffffffffffffffff\n      and\n      mul\n      or\n      swap1\n      sstore\n      pop\n        /* \"contracts/vesting.sol\":1995:2870  {... */\n      pop\n      pop\n      pop\n        /* \"contracts/vesting.sol\":1905:2870  function addBeneficiary(address _addr, uint256 _percentShare, Role _role) public onlyOwner{... */\n      pop\n      pop\n      pop\n      jump\t// out\n        /* \"contracts/vesting.sol\":3927:4752  function getVestedAmount(address _addr) internal  view returns (uint256){... */\n    tag_83:\n        /* \"contracts/vesting.sol\":3991:3998  uint256 */\n      0x00\n        /* \"contracts/vesting.sol\":4012:4028  uint256 cliffEnd */\n      0x00\n        /* \"contracts/vesting.sol\":4045:4052  i_cliff */\n      immutable(\"0x9af6e0c6f9b8f572459f1957d56f01ba73ab5558fbad6cdb8b94d4ee7705c26c\")\n        /* \"contracts/vesting.sol\":4031:4042  i_startTime */\n      immutable(\"0xc792330a4f225cb27dfcf04335b51be24e1e574b19d83989f6006ef18804cbcb\")\n        /* \"contracts/vesting.sol\":4031:4052  i_startTime + i_cliff */\n      tag_127\n      swap2\n      swap1\n      tag_88\n      jump\t// in\n    tag_127:\n        /* \"contracts/vesting.sol\":4012:4052  uint256 cliffEnd = i_startTime + i_cliff */\n      swap1\n      pop\n        /* \"contracts/vesting.sol\":4131:4139  cliffEnd */\n      dup1\n        /* \"contracts/vesting.sol\":4113:4128  block.timestamp */\n      timestamp\n        /* \"contracts/vesting.sol\":4113:4139  block.timestamp < cliffEnd */\n      lt\n        /* \"contracts/vesting.sol\":4110:4175  if(block.timestamp < cliffEnd){... */\n      iszero\n      tag_128\n      jumpi\n        /* \"contracts/vesting.sol\":4162:4163  0 */\n      0x00\n        /* \"contracts/vesting.sol\":4155:4163  return 0 */\n      swap2\n      pop\n      pop\n      jump(tag_126)\n        /* \"contracts/vesting.sol\":4110:4175  if(block.timestamp < cliffEnd){... */\n    tag_128:\n        /* \"contracts/vesting.sol\":4294:4315  uint256 vestingPeriod */\n      0x00\n        /* \"contracts/vesting.sol\":4331:4338  i_cliff */\n      immutable(\"0x9af6e0c6f9b8f572459f1957d56f01ba73ab5558fbad6cdb8b94d4ee7705c26c\")\n        /* \"contracts/vesting.sol\":4318:4328  i_duration */\n      immutable(\"0x583f4f71b32721321fd0f20e674c3938142ce9f243e802c16cfc4def7d2dc523\")\n        /* \"contracts/vesting.sol\":4318:4338  i_duration - i_cliff */\n      tag_129\n      swap2\n      swap1\n      tag_86\n      jump\t// in\n    tag_129:\n        /* \"contracts/vesting.sol\":4294:4338  uint256 vestingPeriod = i_duration - i_cliff */\n      swap1\n      pop\n        /* \"contracts/vesting.sol\":4351:4366  uint256 elapsed */\n      0x00\n        /* \"contracts/vesting.sol\":4387:4395  cliffEnd */\n      dup3\n        /* \"contracts/vesting.sol\":4369:4384  block.timestamp */\n      timestamp\n        /* \"contracts/vesting.sol\":4369:4395  block.timestamp - cliffEnd */\n      tag_130\n      swap2\n      swap1\n      tag_86\n      jump\t// in\n    tag_130:\n        /* \"contracts/vesting.sol\":4351:4395  uint256 elapsed = block.timestamp - cliffEnd */\n      swap1\n      pop\n        /* \"contracts/vesting.sol\":4406:4419  uint256 total */\n      0x00\n        /* \"contracts/vesting.sol\":4422:4435  beneficiaries */\n      0x01\n        /* \"contracts/vesting.sol\":4422:4442  beneficiaries[_addr] */\n      0x00\n        /* \"contracts/vesting.sol\":4436:4441  _addr */\n      dup8\n        /* \"contracts/vesting.sol\":4422:4442  beneficiaries[_addr] */\n      0xffffffffffffffffffffffffffffffffffffffff\n      and\n      0xffffffffffffffffffffffffffffffffffffffff\n      and\n      dup2\n      mstore\n      0x20\n      add\n      swap1\n      dup2\n      mstore\n      0x20\n      add\n      0x00\n      keccak256\n        /* \"contracts/vesting.sol\":4422:4453  beneficiaries[_addr].allocation */\n      0x01\n      add\n      sload\n        /* \"contracts/vesting.sol\":4406:4453  uint256 total = beneficiaries[_addr].allocation */\n      swap1\n      pop\n        /* \"contracts/vesting.sol\":4525:4538  vestingPeriod */\n      dup3\n        /* \"contracts/vesting.sol\":4514:4521  elapsed */\n      dup3\n        /* \"contracts/vesting.sol\":4514:4538  elapsed >= vestingPeriod */\n      lt\n        /* \"contracts/vesting.sol\":4511:4578  if(elapsed >= vestingPeriod){... */\n      tag_131\n      jumpi\n        /* \"contracts/vesting.sol\":4561:4566  total */\n      dup1\n        /* \"contracts/vesting.sol\":4554:4566  return total */\n      swap5\n      pop\n      pop\n      pop\n      pop\n      pop\n      jump(tag_126)\n        /* \"contracts/vesting.sol\":4511:4578  if(elapsed >= vestingPeriod){... */\n    tag_131:\n        /* \"contracts/vesting.sol\":4729:4742  vestingPeriod */\n      dup3\n        /* \"contracts/vesting.sol\":4718:4725  elapsed */\n      dup3\n        /* \"contracts/vesting.sol\":4710:4715  total */\n      dup3\n        /* \"contracts/vesting.sol\":4710:4725  total * elapsed */\n      tag_132\n      swap2\n      swap1\n      tag_76\n      jump\t// in\n    tag_132:\n        /* \"contracts/vesting.sol\":4709:4742  (total * elapsed) / vestingPeriod */\n      tag_133\n      swap2\n      swap1\n      tag_78\n      jump\t// in\n    tag_133:\n        /* \"contracts/vesting.sol\":4702:4742  return (total * elapsed) / vestingPeriod */\n      swap5\n      pop\n      pop\n      pop\n      pop\n      pop\n        /* \"contracts/vesting.sol\":3927:4752  function getVestedAmount(address _addr) internal  view returns (uint256){... */\n    tag_126:\n      swap2\n      swap1\n      pop\n      jump\t// out\n        /* \"#utility.yul\":88:205   */\n    tag_135:\n        /* \"#utility.yul\":197:198   */\n      0x00\n        /* \"#utility.yul\":194:195   */\n      0x00\n        /* \"#utility.yul\":187:199   */\n      revert\n        /* \"#utility.yul\":334:460   */\n    tag_137:\n        /* \"#utility.yul\":371:378   */\n      0x00\n        /* \"#utility.yul\":411:453   */\n      0xffffffffffffffffffffffffffffffffffffffff\n        /* \"#utility.yul\":404:409   */\n      dup3\n        /* \"#utility.yul\":400:454   */\n      and\n        /* \"#utility.yul\":389:454   */\n      swap1\n      pop\n        /* \"#utility.yul\":334:460   */\n      swap2\n      swap1\n      pop\n      jump\t// out\n        /* \"#utility.yul\":466:562   */\n    tag_138:\n        /* \"#utility.yul\":503:510   */\n      0x00\n        /* \"#utility.yul\":532:556   */\n      tag_173\n        /* \"#utility.yul\":550:555   */\n      dup3\n        /* \"#utility.yul\":532:556   */\n      tag_137\n      jump\t// in\n    tag_173:\n        /* \"#utility.yul\":521:556   */\n      swap1\n      pop\n        /* \"#utility.yul\":466:562   */\n      swap2\n      swap1\n      pop\n      jump\t// out\n        /* \"#utility.yul\":568:690   */\n    tag_139:\n        /* \"#utility.yul\":641:665   */\n      tag_175\n        /* \"#utility.yul\":659:664   */\n      dup2\n        /* \"#utility.yul\":641:665   */\n      tag_138\n      jump\t// in\n    tag_175:\n        /* \"#utility.yul\":634:639   */\n      dup2\n        /* \"#utility.yul\":631:666   */\n      eq\n        /* \"#utility.yul\":621:684   */\n      tag_176\n      jumpi\n        /* \"#utility.yul\":680:681   */\n      0x00\n        /* \"#utility.yul\":677:678   */\n      0x00\n        /* \"#utility.yul\":670:682   */\n      revert\n        /* \"#utility.yul\":621:684   */\n    tag_176:\n        /* \"#utility.yul\":568:690   */\n      pop\n      jump\t// out\n        /* \"#utility.yul\":696:835   */\n    tag_140:\n        /* \"#utility.yul\":742:747   */\n      0x00\n        /* \"#utility.yul\":780:786   */\n      dup2\n        /* \"#utility.yul\":767:787   */\n      calldataload\n        /* \"#utility.yul\":758:787   */\n      swap1\n      pop\n        /* \"#utility.yul\":796:829   */\n      tag_178\n        /* \"#utility.yul\":823:828   */\n      dup2\n        /* \"#utility.yul\":796:829   */\n      tag_139\n      jump\t// in\n    tag_178:\n        /* \"#utility.yul\":696:835   */\n      swap3\n      swap2\n      pop\n      pop\n      jump\t// out\n        /* \"#utility.yul\":841:1170   */\n    tag_20:\n        /* \"#utility.yul\":900:906   */\n      0x00\n        /* \"#utility.yul\":949:951   */\n      0x20\n        /* \"#utility.yul\":937:946   */\n      dup3\n        /* \"#utility.yul\":928:935   */\n      dup5\n        /* \"#utility.yul\":924:947   */\n      sub\n        /* \"#utility.yul\":920:952   */\n      slt\n        /* \"#utility.yul\":917:1036   */\n      iszero\n      tag_180\n      jumpi\n        /* \"#utility.yul\":955:1034   */\n      tag_181\n      tag_135\n      jump\t// in\n    tag_181:\n        /* \"#utility.yul\":917:1036   */\n    tag_180:\n        /* \"#utility.yul\":1075:1076   */\n      0x00\n        /* \"#utility.yul\":1100:1153   */\n      tag_182\n        /* \"#utility.yul\":1145:1152   */\n      dup5\n        /* \"#utility.yul\":1136:1142   */\n      dup3\n        /* \"#utility.yul\":1125:1134   */\n      dup6\n        /* \"#utility.yul\":1121:1143   */\n      add\n        /* \"#utility.yul\":1100:1153   */\n      tag_140\n      jump\t// in\n    tag_182:\n        /* \"#utility.yul\":1090:1153   */\n      swap2\n      pop\n        /* \"#utility.yul\":1046:1163   */\n      pop\n        /* \"#utility.yul\":841:1170   */\n      swap3\n      swap2\n      pop\n      pop\n      jump\t// out\n        /* \"#utility.yul\":1176:1253   */\n    tag_141:\n        /* \"#utility.yul\":1213:1220   */\n      0x00\n        /* \"#utility.yul\":1242:1247   */\n      dup2\n        /* \"#utility.yul\":1231:1247   */\n      swap1\n      pop\n        /* \"#utility.yul\":1176:1253   */\n      swap2\n      swap1\n      pop\n      jump\t// out\n        /* \"#utility.yul\":1259:1377   */\n    tag_142:\n        /* \"#utility.yul\":1346:1370   */\n      tag_185\n        /* \"#utility.yul\":1364:1369   */\n      dup2\n        /* \"#utility.yul\":1346:1370   */\n      tag_141\n      jump\t// in\n    tag_185:\n        /* \"#utility.yul\":1341:1344   */\n      dup3\n        /* \"#utility.yul\":1334:1371   */\n      mstore\n        /* \"#utility.yul\":1259:1377   */\n      pop\n      pop\n      jump\t// out\n        /* \"#utility.yul\":1383:1563   */\n    tag_107:\n        /* \"#utility.yul\":1431:1508   */\n      0x4e487b7100000000000000000000000000000000000000000000000000000000\n        /* \"#utility.yul\":1428:1429   */\n      0x00\n        /* \"#utility.yul\":1421:1509   */\n      mstore\n        /* \"#utility.yul\":1528:1532   */\n      0x21\n        /* \"#utility.yul\":1525:1526   */\n      0x04\n        /* \"#utility.yul\":1518:1533   */\n      mstore\n        /* \"#utility.yul\":1552:1556   */\n      0x24\n        /* \"#utility.yul\":1549:1550   */\n      0x00\n        /* \"#utility.yul\":1542:1557   */\n      revert\n        /* \"#utility.yul\":1569:1682   */\n    tag_143:\n        /* \"#utility.yul\":1650:1651   */\n      0x04\n        /* \"#utility.yul\":1643:1648   */\n      dup2\n        /* \"#utility.yul\":1640:1652   */\n      lt\n        /* \"#utility.yul\":1630:1676   */\n      tag_188\n      jumpi\n        /* \"#utility.yul\":1656:1674   */\n      tag_189\n      tag_107\n      jump\t// in\n    tag_189:\n        /* \"#utility.yul\":1630:1676   */\n    tag_188:\n        /* \"#utility.yul\":1569:1682   */\n      pop\n      jump\t// out\n        /* \"#utility.yul\":1688:1815   */\n    tag_144:\n        /* \"#utility.yul\":1733:1740   */\n      0x00\n        /* \"#utility.yul\":1762:1767   */\n      dup2\n        /* \"#utility.yul\":1751:1767   */\n      swap1\n      pop\n        /* \"#utility.yul\":1768:1809   */\n      tag_191\n        /* \"#utility.yul\":1803:1808   */\n      dup3\n        /* \"#utility.yul\":1768:1809   */\n      tag_143\n      jump\t// in\n    tag_191:\n        /* \"#utility.yul\":1688:1815   */\n      swap2\n      swap1\n      pop\n      jump\t// out\n        /* \"#utility.yul\":1821:1948   */\n    tag_145:\n        /* \"#utility.yul\":1877:1886   */\n      0x00\n        /* \"#utility.yul\":1910:1942   */\n      tag_193\n        /* \"#utility.yul\":1936:1941   */\n      dup3\n        /* \"#utility.yul\":1910:1942   */\n      tag_144\n      jump\t// in\n    tag_193:\n        /* \"#utility.yul\":1897:1942   */\n      swap1\n      pop\n        /* \"#utility.yul\":1821:1948   */\n      swap2\n      swap1\n      pop\n      jump\t// out\n        /* \"#utility.yul\":1954:2097   */\n    tag_146:\n        /* \"#utility.yul\":2047:2090   */\n      tag_195\n        /* \"#utility.yul\":2084:2089   */\n      dup2\n        /* \"#utility.yul\":2047:2090   */\n      tag_145\n      jump\t// in\n    tag_195:\n        /* \"#utility.yul\":2042:2045   */\n      dup3\n        /* \"#utility.yul\":2035:2091   */\n      mstore\n        /* \"#utility.yul\":1954:2097   */\n      pop\n      pop\n      jump\t// out\n        /* \"#utility.yul\":2103:2193   */\n    tag_147:\n        /* \"#utility.yul\":2137:2144   */\n      0x00\n        /* \"#utility.yul\":2180:2185   */\n      dup2\n        /* \"#utility.yul\":2173:2186   */\n      iszero\n        /* \"#utility.yul\":2166:2187   */\n      iszero\n        /* \"#utility.yul\":2155:2187   */\n      swap1\n      pop\n        /* \"#utility.yul\":2103:2193   */\n      swap2\n      swap1\n      pop\n      jump\t// out\n        /* \"#utility.yul\":2199:2308   */\n    tag_148:\n        /* \"#utility.yul\":2280:2301   */\n      tag_198\n        /* \"#utility.yul\":2295:2300   */\n      dup2\n        /* \"#utility.yul\":2280:2301   */\n      tag_147\n      jump\t// in\n    tag_198:\n        /* \"#utility.yul\":2275:2278   */\n      dup3\n        /* \"#utility.yul\":2268:2302   */\n      mstore\n        /* \"#utility.yul\":2199:2308   */\n      pop\n      pop\n      jump\t// out\n        /* \"#utility.yul\":2314:2978   */\n    tag_23:\n        /* \"#utility.yul\":2519:2523   */\n      0x00\n        /* \"#utility.yul\":2557:2560   */\n      0xa0\n        /* \"#utility.yul\":2546:2555   */\n      dup3\n        /* \"#utility.yul\":2542:2561   */\n      add\n        /* \"#utility.yul\":2534:2561   */\n      swap1\n      pop\n        /* \"#utility.yul\":2571:2642   */\n      tag_200\n        /* \"#utility.yul\":2639:2640   */\n      0x00\n        /* \"#utility.yul\":2628:2637   */\n      dup4\n        /* \"#utility.yul\":2624:2641   */\n      add\n        /* \"#utility.yul\":2615:2621   */\n      dup9\n        /* \"#utility.yul\":2571:2642   */\n      tag_142\n      jump\t// in\n    tag_200:\n        /* \"#utility.yul\":2652:2724   */\n      tag_201\n        /* \"#utility.yul\":2720:2722   */\n      0x20\n        /* \"#utility.yul\":2709:2718   */\n      dup4\n        /* \"#utility.yul\":2705:2723   */\n      add\n        /* \"#utility.yul\":2696:2702   */\n      dup8\n        /* \"#utility.yul\":2652:2724   */\n      tag_142\n      jump\t// in\n    tag_201:\n        /* \"#utility.yul\":2734:2812   */\n      tag_202\n        /* \"#utility.yul\":2808:2810   */\n      0x40\n        /* \"#utility.yul\":2797:2806   */\n      dup4\n        /* \"#utility.yul\":2793:2811   */\n      add\n        /* \"#utility.yul\":2784:2790   */\n      dup7\n        /* \"#utility.yul\":2734:2812   */\n      tag_146\n      jump\t// in\n    tag_202:\n        /* \"#utility.yul\":2822:2894   */\n      tag_203\n        /* \"#utility.yul\":2890:2892   */\n      0x60\n        /* \"#utility.yul\":2879:2888   */\n      dup4\n        /* \"#utility.yul\":2875:2893   */\n      add\n        /* \"#utility.yul\":2866:2872   */\n      dup6\n        /* \"#utility.yul\":2822:2894   */\n      tag_142\n      jump\t// in\n    tag_203:\n        /* \"#utility.yul\":2904:2971   */\n      tag_204\n        /* \"#utility.yul\":2966:2969   */\n      0x80\n        /* \"#utility.yul\":2955:2964   */\n      dup4\n        /* \"#utility.yul\":2951:2970   */\n      add\n        /* \"#utility.yul\":2942:2948   */\n      dup5\n        /* \"#utility.yul\":2904:2971   */\n      tag_148\n      jump\t// in\n    tag_204:\n        /* \"#utility.yul\":2314:2978   */\n      swap7\n      swap6\n      pop\n      pop\n      pop\n      pop\n      pop\n      pop\n      jump\t// out\n        /* \"#utility.yul\":2984:3206   */\n    tag_28:\n        /* \"#utility.yul\":3077:3081   */\n      0x00\n        /* \"#utility.yul\":3115:3117   */\n      0x20\n        /* \"#utility.yul\":3104:3113   */\n      dup3\n        /* \"#utility.yul\":3100:3118   */\n      add\n        /* \"#utility.yul\":3092:3118   */\n      swap1\n      pop\n        /* \"#utility.yul\":3128:3199   */\n      tag_206\n        /* \"#utility.yul\":3196:3197   */\n      0x00\n        /* \"#utility.yul\":3185:3194   */\n      dup4\n        /* \"#utility.yul\":3181:3198   */\n      add\n        /* \"#utility.yul\":3172:3178   */\n      dup5\n        /* \"#utility.yul\":3128:3199   */\n      tag_142\n      jump\t// in\n    tag_206:\n        /* \"#utility.yul\":2984:3206   */\n      swap3\n      swap2\n      pop\n      pop\n      jump\t// out\n        /* \"#utility.yul\":3212:3666   */\n    tag_41:\n        /* \"#utility.yul\":3367:3371   */\n      0x00\n        /* \"#utility.yul\":3405:3407   */\n      0x60\n        /* \"#utility.yul\":3394:3403   */\n      dup3\n        /* \"#utility.yul\":3390:3408   */\n      add\n        /* \"#utility.yul\":3382:3408   */\n      swap1\n      pop\n        /* \"#utility.yul\":3418:3489   */\n      tag_208\n        /* \"#utility.yul\":3486:3487   */\n      0x00\n        /* \"#utility.yul\":3475:3484   */\n      dup4\n        /* \"#utility.yul\":3471:3488   */\n      add\n        /* \"#utility.yul\":3462:3468   */\n      dup7\n        /* \"#utility.yul\":3418:3489   */\n      tag_142\n      jump\t// in\n    tag_208:\n        /* \"#utility.yul\":3499:3577   */\n      tag_209\n        /* \"#utility.yul\":3573:3575   */\n      0x20\n        /* \"#utility.yul\":3562:3571   */\n      dup4\n        /* \"#utility.yul\":3558:3576   */\n      add\n        /* \"#utility.yul\":3549:3555   */\n      dup6\n        /* \"#utility.yul\":3499:3577   */\n      tag_146\n      jump\t// in\n    tag_209:\n        /* \"#utility.yul\":3587:3659   */\n      tag_210\n        /* \"#utility.yul\":3655:3657   */\n      0x40\n        /* \"#utility.yul\":3644:3653   */\n      dup4\n        /* \"#utility.yul\":3640:3658   */\n      add\n        /* \"#utility.yul\":3631:3637   */\n      dup5\n        /* \"#utility.yul\":3587:3659   */\n      tag_142\n      jump\t// in\n    tag_210:\n        /* \"#utility.yul\":3212:3666   */\n      swap5\n      swap4\n      pop\n      pop\n      pop\n      pop\n      jump\t// out\n        /* \"#utility.yul\":3672:3732   */\n    tag_149:\n        /* \"#utility.yul\":3700:3703   */\n      0x00\n        /* \"#utility.yul\":3721:3726   */\n      dup2\n        /* \"#utility.yul\":3714:3726   */\n      swap1\n      pop\n        /* \"#utility.yul\":3672:3732   */\n      swap2\n      swap1\n      pop\n      jump\t// out\n        /* \"#utility.yul\":3738:3880   */\n    tag_150:\n        /* \"#utility.yul\":3788:3797   */\n      0x00\n        /* \"#utility.yul\":3821:3874   */\n      tag_213\n        /* \"#utility.yul\":3839:3873   */\n      tag_214\n        /* \"#utility.yul\":3848:3872   */\n      tag_215\n        /* \"#utility.yul\":3866:3871   */\n      dup5\n        /* \"#utility.yul\":3848:3872   */\n      tag_137\n      jump\t// in\n    tag_215:\n        /* \"#utility.yul\":3839:3873   */\n      tag_149\n      jump\t// in\n    tag_214:\n        /* \"#utility.yul\":3821:3874   */\n      tag_137\n      jump\t// in\n    tag_213:\n        /* \"#utility.yul\":3808:3874   */\n      swap1\n      pop\n        /* \"#utility.yul\":3738:3880   */\n      swap2\n      swap1\n      pop\n      jump\t// out\n        /* \"#utility.yul\":3886:4012   */\n    tag_151:\n        /* \"#utility.yul\":3936:3945   */\n      0x00\n        /* \"#utility.yul\":3969:4006   */\n      tag_217\n        /* \"#utility.yul\":4000:4005   */\n      dup3\n        /* \"#utility.yul\":3969:4006   */\n      tag_150\n      jump\t// in\n    tag_217:\n        /* \"#utility.yul\":3956:4006   */\n      swap1\n      pop\n        /* \"#utility.yul\":3886:4012   */\n      swap2\n      swap1\n      pop\n      jump\t// out\n        /* \"#utility.yul\":4018:4157   */\n    tag_152:\n        /* \"#utility.yul\":4081:4090   */\n      0x00\n        /* \"#utility.yul\":4114:4151   */\n      tag_219\n        /* \"#utility.yul\":4145:4150   */\n      dup3\n        /* \"#utility.yul\":4114:4151   */\n      tag_151\n      jump\t// in\n    tag_219:\n        /* \"#utility.yul\":4101:4151   */\n      swap1\n      pop\n        /* \"#utility.yul\":4018:4157   */\n      swap2\n      swap1\n      pop\n      jump\t// out\n        /* \"#utility.yul\":4163:4320   */\n    tag_153:\n        /* \"#utility.yul\":4263:4313   */\n      tag_221\n        /* \"#utility.yul\":4307:4312   */\n      dup2\n        /* \"#utility.yul\":4263:4313   */\n      tag_152\n      jump\t// in\n    tag_221:\n        /* \"#utility.yul\":4258:4261   */\n      dup3\n        /* \"#utility.yul\":4251:4314   */\n      mstore\n        /* \"#utility.yul\":4163:4320   */\n      pop\n      pop\n      jump\t// out\n        /* \"#utility.yul\":4326:4574   */\n    tag_48:\n        /* \"#utility.yul\":4432:4436   */\n      0x00\n        /* \"#utility.yul\":4470:4472   */\n      0x20\n        /* \"#utility.yul\":4459:4468   */\n      dup3\n        /* \"#utility.yul\":4455:4473   */\n      add\n        /* \"#utility.yul\":4447:4473   */\n      swap1\n      pop\n        /* \"#utility.yul\":4483:4567   */\n      tag_223\n        /* \"#utility.yul\":4564:4565   */\n      0x00\n        /* \"#utility.yul\":4553:4562   */\n      dup4\n        /* \"#utility.yul\":4549:4566   */\n      add\n        /* \"#utility.yul\":4540:4546   */\n      dup5\n        /* \"#utility.yul\":4483:4567   */\n      tag_153\n      jump\t// in\n    tag_223:\n        /* \"#utility.yul\":4326:4574   */\n      swap3\n      swap2\n      pop\n      pop\n      jump\t// out\n        /* \"#utility.yul\":4580:4698   */\n    tag_154:\n        /* \"#utility.yul\":4667:4691   */\n      tag_225\n        /* \"#utility.yul\":4685:4690   */\n      dup2\n        /* \"#utility.yul\":4667:4691   */\n      tag_138\n      jump\t// in\n    tag_225:\n        /* \"#utility.yul\":4662:4665   */\n      dup3\n        /* \"#utility.yul\":4655:4692   */\n      mstore\n        /* \"#utility.yul\":4580:4698   */\n      pop\n      pop\n      jump\t// out\n        /* \"#utility.yul\":4704:4926   */\n    tag_55:\n        /* \"#utility.yul\":4797:4801   */\n      0x00\n        /* \"#utility.yul\":4835:4837   */\n      0x20\n        /* \"#utility.yul\":4824:4833   */\n      dup3\n        /* \"#utility.yul\":4820:4838   */\n      add\n        /* \"#utility.yul\":4812:4838   */\n      swap1\n      pop\n        /* \"#utility.yul\":4848:4919   */\n      tag_227\n        /* \"#utility.yul\":4916:4917   */\n      0x00\n        /* \"#utility.yul\":4905:4914   */\n      dup4\n        /* \"#utility.yul\":4901:4918   */\n      add\n        /* \"#utility.yul\":4892:4898   */\n      dup5\n        /* \"#utility.yul\":4848:4919   */\n      tag_154\n      jump\t// in\n    tag_227:\n        /* \"#utility.yul\":4704:4926   */\n      swap3\n      swap2\n      pop\n      pop\n      jump\t// out\n        /* \"#utility.yul\":4932:5054   */\n    tag_155:\n        /* \"#utility.yul\":5005:5029   */\n      tag_229\n        /* \"#utility.yul\":5023:5028   */\n      dup2\n        /* \"#utility.yul\":5005:5029   */\n      tag_141\n      jump\t// in\n    tag_229:\n        /* \"#utility.yul\":4998:5003   */\n      dup2\n        /* \"#utility.yul\":4995:5030   */\n      eq\n        /* \"#utility.yul\":4985:5048   */\n      tag_230\n      jumpi\n        /* \"#utility.yul\":5044:5045   */\n      0x00\n        /* \"#utility.yul\":5041:5042   */\n      0x00\n        /* \"#utility.yul\":5034:5046   */\n      revert\n        /* \"#utility.yul\":4985:5048   */\n    tag_230:\n        /* \"#utility.yul\":4932:5054   */\n      pop\n      jump\t// out\n        /* \"#utility.yul\":5060:5199   */\n    tag_156:\n        /* \"#utility.yul\":5106:5111   */\n      0x00\n        /* \"#utility.yul\":5144:5150   */\n      dup2\n        /* \"#utility.yul\":5131:5151   */\n      calldataload\n        /* \"#utility.yul\":5122:5151   */\n      swap1\n      pop\n        /* \"#utility.yul\":5160:5193   */\n      tag_232\n        /* \"#utility.yul\":5187:5192   */\n      dup2\n        /* \"#utility.yul\":5160:5193   */\n      tag_155\n      jump\t// in\n    tag_232:\n        /* \"#utility.yul\":5060:5199   */\n      swap3\n      swap2\n      pop\n      pop\n      jump\t// out\n        /* \"#utility.yul\":5205:5534   */\n    tag_58:\n        /* \"#utility.yul\":5264:5270   */\n      0x00\n        /* \"#utility.yul\":5313:5315   */\n      0x20\n        /* \"#utility.yul\":5301:5310   */\n      dup3\n        /* \"#utility.yul\":5292:5299   */\n      dup5\n        /* \"#utility.yul\":5288:5311   */\n      sub\n        /* \"#utility.yul\":5284:5316   */\n      slt\n        /* \"#utility.yul\":5281:5400   */\n      iszero\n      tag_234\n      jumpi\n        /* \"#utility.yul\":5319:5398   */\n      tag_235\n      tag_135\n      jump\t// in\n    tag_235:\n        /* \"#utility.yul\":5281:5400   */\n    tag_234:\n        /* \"#utility.yul\":5439:5440   */\n      0x00\n        /* \"#utility.yul\":5464:5517   */\n      tag_236\n        /* \"#utility.yul\":5509:5516   */\n      dup5\n        /* \"#utility.yul\":5500:5506   */\n      dup3\n        /* \"#utility.yul\":5489:5498   */\n      dup6\n        /* \"#utility.yul\":5485:5507   */\n      add\n        /* \"#utility.yul\":5464:5517   */\n      tag_156\n      jump\t// in\n    tag_236:\n        /* \"#utility.yul\":5454:5517   */\n      swap2\n      pop\n        /* \"#utility.yul\":5410:5527   */\n      pop\n        /* \"#utility.yul\":5205:5534   */\n      swap3\n      swap2\n      pop\n      pop\n      jump\t// out\n        /* \"#utility.yul\":5540:5647   */\n    tag_157:\n        /* \"#utility.yul\":5621:5622   */\n      0x04\n        /* \"#utility.yul\":5614:5619   */\n      dup2\n        /* \"#utility.yul\":5611:5623   */\n      lt\n        /* \"#utility.yul\":5601:5641   */\n      tag_238\n      jumpi\n        /* \"#utility.yul\":5637:5638   */\n      0x00\n        /* \"#utility.yul\":5634:5635   */\n      0x00\n        /* \"#utility.yul\":5627:5639   */\n      revert\n        /* \"#utility.yul\":5601:5641   */\n    tag_238:\n        /* \"#utility.yul\":5540:5647   */\n      pop\n      jump\t// out\n        /* \"#utility.yul\":5653:5808   */\n    tag_158:\n        /* \"#utility.yul\":5707:5712   */\n      0x00\n        /* \"#utility.yul\":5745:5751   */\n      dup2\n        /* \"#utility.yul\":5732:5752   */\n      calldataload\n        /* \"#utility.yul\":5723:5752   */\n      swap1\n      pop\n        /* \"#utility.yul\":5761:5802   */\n      tag_240\n        /* \"#utility.yul\":5796:5801   */\n      dup2\n        /* \"#utility.yul\":5761:5802   */\n      tag_157\n      jump\t// in\n    tag_240:\n        /* \"#utility.yul\":5653:5808   */\n      swap3\n      swap2\n      pop\n      pop\n      jump\t// out\n        /* \"#utility.yul\":5814:6449   */\n    tag_66:\n        /* \"#utility.yul\":5899:5905   */\n      0x00\n        /* \"#utility.yul\":5907:5913   */\n      0x00\n        /* \"#utility.yul\":5915:5921   */\n      0x00\n        /* \"#utility.yul\":5964:5966   */\n      0x60\n        /* \"#utility.yul\":5952:5961   */\n      dup5\n        /* \"#utility.yul\":5943:5950   */\n      dup7\n        /* \"#utility.yul\":5939:5962   */\n      sub\n        /* \"#utility.yul\":5935:5967   */\n      slt\n        /* \"#utility.yul\":5932:6051   */\n      iszero\n      tag_242\n      jumpi\n        /* \"#utility.yul\":5970:6049   */\n      tag_243\n      tag_135\n      jump\t// in\n    tag_243:\n        /* \"#utility.yul\":5932:6051   */\n    tag_242:\n        /* \"#utility.yul\":6090:6091   */\n      0x00\n        /* \"#utility.yul\":6115:6168   */\n      tag_244\n        /* \"#utility.yul\":6160:6167   */\n      dup7\n        /* \"#utility.yul\":6151:6157   */\n      dup3\n        /* \"#utility.yul\":6140:6149   */\n      dup8\n        /* \"#utility.yul\":6136:6158   */\n      add\n        /* \"#utility.yul\":6115:6168   */\n      tag_140\n      jump\t// in\n    tag_244:\n        /* \"#utility.yul\":6105:6168   */\n      swap4\n      pop\n        /* \"#utility.yul\":6061:6178   */\n      pop\n        /* \"#utility.yul\":6217:6219   */\n      0x20\n        /* \"#utility.yul\":6243:6296   */\n      tag_245\n        /* \"#utility.yul\":6288:6295   */\n      dup7\n        /* \"#utility.yul\":6279:6285   */\n      dup3\n        /* \"#utility.yul\":6268:6277   */\n      dup8\n        /* \"#utility.yul\":6264:6286   */\n      add\n        /* \"#utility.yul\":6243:6296   */\n      tag_156\n      jump\t// in\n    tag_245:\n        /* \"#utility.yul\":6233:6296   */\n      swap3\n      pop\n        /* \"#utility.yul\":6188:6306   */\n      pop\n        /* \"#utility.yul\":6345:6347   */\n      0x40\n        /* \"#utility.yul\":6371:6432   */\n      tag_246\n        /* \"#utility.yul\":6424:6431   */\n      dup7\n        /* \"#utility.yul\":6415:6421   */\n      dup3\n        /* \"#utility.yul\":6404:6413   */\n      dup8\n        /* \"#utility.yul\":6400:6422   */\n      add\n        /* \"#utility.yul\":6371:6432   */\n      tag_158\n      jump\t// in\n    tag_246:\n        /* \"#utility.yul\":6361:6432   */\n      swap2\n      pop\n        /* \"#utility.yul\":6316:6442   */\n      pop\n        /* \"#utility.yul\":5814:6449   */\n      swap3\n      pop\n      swap3\n      pop\n      swap3\n      jump\t// out\n        /* \"#utility.yul\":6455:6598   */\n    tag_159:\n        /* \"#utility.yul\":6512:6517   */\n      0x00\n        /* \"#utility.yul\":6543:6549   */\n      dup2\n        /* \"#utility.yul\":6537:6550   */\n      mload\n        /* \"#utility.yul\":6528:6550   */\n      swap1\n      pop\n        /* \"#utility.yul\":6559:6592   */\n      tag_248\n        /* \"#utility.yul\":6586:6591   */\n      dup2\n        /* \"#utility.yul\":6559:6592   */\n      tag_155\n      jump\t// in\n    tag_248:\n        /* \"#utility.yul\":6455:6598   */\n      swap3\n      swap2\n      pop\n      pop\n      jump\t// out\n        /* \"#utility.yul\":6604:6955   */\n    tag_74:\n        /* \"#utility.yul\":6674:6680   */\n      0x00\n        /* \"#utility.yul\":6723:6725   */\n      0x20\n        /* \"#utility.yul\":6711:6720   */\n      dup3\n        /* \"#utility.yul\":6702:6709   */\n      dup5\n        /* \"#utility.yul\":6698:6721   */\n      sub\n        /* \"#utility.yul\":6694:6726   */\n      slt\n        /* \"#utility.yul\":6691:6810   */\n      iszero\n      tag_250\n      jumpi\n        /* \"#utility.yul\":6729:6808   */\n      tag_251\n      tag_135\n      jump\t// in\n    tag_251:\n        /* \"#utility.yul\":6691:6810   */\n    tag_250:\n        /* \"#utility.yul\":6849:6850   */\n      0x00\n        /* \"#utility.yul\":6874:6938   */\n      tag_252\n        /* \"#utility.yul\":6930:6937   */\n      dup5\n        /* \"#utility.yul\":6921:6927   */\n      dup3\n        /* \"#utility.yul\":6910:6919   */\n      dup6\n        /* \"#utility.yul\":6906:6928   */\n      add\n        /* \"#utility.yul\":6874:6938   */\n      tag_159\n      jump\t// in\n    tag_252:\n        /* \"#utility.yul\":6864:6938   */\n      swap2\n      pop\n        /* \"#utility.yul\":6820:6948   */\n      pop\n        /* \"#utility.yul\":6604:6955   */\n      swap3\n      swap2\n      pop\n      pop\n      jump\t// out\n        /* \"#utility.yul\":6961:7141   */\n    tag_160:\n        /* \"#utility.yul\":7009:7086   */\n      0x4e487b7100000000000000000000000000000000000000000000000000000000\n        /* \"#utility.yul\":7006:7007   */\n      0x00\n        /* \"#utility.yul\":6999:7087   */\n      mstore\n        /* \"#utility.yul\":7106:7110   */\n      0x11\n        /* \"#utility.yul\":7103:7104   */\n      0x04\n        /* \"#utility.yul\":7096:7111   */\n      mstore\n        /* \"#utility.yul\":7130:7134   */\n      0x24\n        /* \"#utility.yul\":7127:7128   */\n      0x00\n        /* \"#utility.yul\":7120:7135   */\n      revert\n        /* \"#utility.yul\":7147:7557   */\n    tag_76:\n        /* \"#utility.yul\":7187:7194   */\n      0x00\n        /* \"#utility.yul\":7210:7230   */\n      tag_255\n        /* \"#utility.yul\":7228:7229   */\n      dup3\n        /* \"#utility.yul\":7210:7230   */\n      tag_141\n      jump\t// in\n    tag_255:\n        /* \"#utility.yul\":7205:7230   */\n      swap2\n      pop\n        /* \"#utility.yul\":7244:7264   */\n      tag_256\n        /* \"#utility.yul\":7262:7263   */\n      dup4\n        /* \"#utility.yul\":7244:7264   */\n      tag_141\n      jump\t// in\n    tag_256:\n        /* \"#utility.yul\":7239:7264   */\n      swap3\n      pop\n        /* \"#utility.yul\":7299:7300   */\n      dup3\n        /* \"#utility.yul\":7296:7297   */\n      dup3\n        /* \"#utility.yul\":7292:7301   */\n      mul\n        /* \"#utility.yul\":7321:7351   */\n      tag_257\n        /* \"#utility.yul\":7339:7350   */\n      dup2\n        /* \"#utility.yul\":7321:7351   */\n      tag_141\n      jump\t// in\n    tag_257:\n        /* \"#utility.yul\":7310:7351   */\n      swap2\n      pop\n        /* \"#utility.yul\":7500:7501   */\n      dup3\n        /* \"#utility.yul\":7491:7498   */\n      dup3\n        /* \"#utility.yul\":7487:7502   */\n      div\n        /* \"#utility.yul\":7484:7485   */\n      dup5\n        /* \"#utility.yul\":7481:7503   */\n      eq\n        /* \"#utility.yul\":7461:7462   */\n      dup4\n        /* \"#utility.yul\":7454:7463   */\n      iszero\n        /* \"#utility.yul\":7434:7517   */\n      or\n        /* \"#utility.yul\":7411:7550   */\n      tag_258\n      jumpi\n        /* \"#utility.yul\":7530:7548   */\n      tag_259\n      tag_160\n      jump\t// in\n    tag_259:\n        /* \"#utility.yul\":7411:7550   */\n    tag_258:\n        /* \"#utility.yul\":7195:7557   */\n      pop\n        /* \"#utility.yul\":7147:7557   */\n      swap3\n      swap2\n      pop\n      pop\n      jump\t// out\n        /* \"#utility.yul\":7563:7743   */\n    tag_161:\n        /* \"#utility.yul\":7611:7688   */\n      0x4e487b7100000000000000000000000000000000000000000000000000000000\n        /* \"#utility.yul\":7608:7609   */\n      0x00\n        /* \"#utility.yul\":7601:7689   */\n      mstore\n        /* \"#utility.yul\":7708:7712   */\n      0x12\n        /* \"#utility.yul\":7705:7706   */\n      0x04\n        /* \"#utility.yul\":7698:7713   */\n      mstore\n        /* \"#utility.yul\":7732:7736   */\n      0x24\n        /* \"#utility.yul\":7729:7730   */\n      0x00\n        /* \"#utility.yul\":7722:7737   */\n      revert\n        /* \"#utility.yul\":7749:7934   */\n    tag_78:\n        /* \"#utility.yul\":7789:7790   */\n      0x00\n        /* \"#utility.yul\":7806:7826   */\n      tag_262\n        /* \"#utility.yul\":7824:7825   */\n      dup3\n        /* \"#utility.yul\":7806:7826   */\n      tag_141\n      jump\t// in\n    tag_262:\n        /* \"#utility.yul\":7801:7826   */\n      swap2\n      pop\n        /* \"#utility.yul\":7840:7860   */\n      tag_263\n        /* \"#utility.yul\":7858:7859   */\n      dup4\n        /* \"#utility.yul\":7840:7860   */\n      tag_141\n      jump\t// in\n    tag_263:\n        /* \"#utility.yul\":7835:7860   */\n      swap3\n      pop\n        /* \"#utility.yul\":7879:7880   */\n      dup3\n        /* \"#utility.yul\":7869:7904   */\n      tag_264\n      jumpi\n        /* \"#utility.yul\":7884:7902   */\n      tag_265\n      tag_161\n      jump\t// in\n    tag_265:\n        /* \"#utility.yul\":7869:7904   */\n    tag_264:\n        /* \"#utility.yul\":7926:7927   */\n      dup3\n        /* \"#utility.yul\":7923:7924   */\n      dup3\n        /* \"#utility.yul\":7919:7928   */\n      div\n        /* \"#utility.yul\":7914:7928   */\n      swap1\n      pop\n        /* \"#utility.yul\":7749:7934   */\n      swap3\n      swap2\n      pop\n      pop\n      jump\t// out\n        /* \"#utility.yul\":7940:8134   */\n    tag_86:\n        /* \"#utility.yul\":7980:7984   */\n      0x00\n        /* \"#utility.yul\":8000:8020   */\n      tag_267\n        /* \"#utility.yul\":8018:8019   */\n      dup3\n        /* \"#utility.yul\":8000:8020   */\n      tag_141\n      jump\t// in\n    tag_267:\n        /* \"#utility.yul\":7995:8020   */\n      swap2\n      pop\n        /* \"#utility.yul\":8034:8054   */\n      tag_268\n        /* \"#utility.yul\":8052:8053   */\n      dup4\n        /* \"#utility.yul\":8034:8054   */\n      tag_141\n      jump\t// in\n    tag_268:\n        /* \"#utility.yul\":8029:8054   */\n      swap3\n      pop\n        /* \"#utility.yul\":8078:8079   */\n      dup3\n        /* \"#utility.yul\":8075:8076   */\n      dup3\n        /* \"#utility.yul\":8071:8080   */\n      sub\n        /* \"#utility.yul\":8063:8080   */\n      swap1\n      pop\n        /* \"#utility.yul\":8102:8103   */\n      dup2\n        /* \"#utility.yul\":8096:8100   */\n      dup2\n        /* \"#utility.yul\":8093:8104   */\n      gt\n        /* \"#utility.yul\":8090:8127   */\n      iszero\n      tag_269\n      jumpi\n        /* \"#utility.yul\":8107:8125   */\n      tag_270\n      tag_160\n      jump\t// in\n    tag_270:\n        /* \"#utility.yul\":8090:8127   */\n    tag_269:\n        /* \"#utility.yul\":7940:8134   */\n      swap3\n      swap2\n      pop\n      pop\n      jump\t// out\n        /* \"#utility.yul\":8140:8331   */\n    tag_88:\n        /* \"#utility.yul\":8180:8183   */\n      0x00\n        /* \"#utility.yul\":8199:8219   */\n      tag_272\n        /* \"#utility.yul\":8217:8218   */\n      dup3\n        /* \"#utility.yul\":8199:8219   */\n      tag_141\n      jump\t// in\n    tag_272:\n        /* \"#utility.yul\":8194:8219   */\n      swap2\n      pop\n        /* \"#utility.yul\":8233:8253   */\n      tag_273\n        /* \"#utility.yul\":8251:8252   */\n      dup4\n        /* \"#utility.yul\":8233:8253   */\n      tag_141\n      jump\t// in\n    tag_273:\n        /* \"#utility.yul\":8228:8253   */\n      swap3\n      pop\n        /* \"#utility.yul\":8276:8277   */\n      dup3\n        /* \"#utility.yul\":8273:8274   */\n      dup3\n        /* \"#utility.yul\":8269:8278   */\n      add\n        /* \"#utility.yul\":8262:8278   */\n      swap1\n      pop\n        /* \"#utility.yul\":8297:8300   */\n      dup1\n        /* \"#utility.yul\":8294:8295   */\n      dup3\n        /* \"#utility.yul\":8291:8301   */\n      gt\n        /* \"#utility.yul\":8288:8324   */\n      iszero\n      tag_274\n      jumpi\n        /* \"#utility.yul\":8304:8322   */\n      tag_275\n      tag_160\n      jump\t// in\n    tag_275:\n        /* \"#utility.yul\":8288:8324   */\n    tag_274:\n        /* \"#utility.yul\":8140:8331   */\n      swap3\n      swap2\n      pop\n      pop\n      jump\t// out\n        /* \"#utility.yul\":8337:8669   */\n    tag_90:\n        /* \"#utility.yul\":8458:8462   */\n      0x00\n        /* \"#utility.yul\":8496:8498   */\n      0x40\n        /* \"#utility.yul\":8485:8494   */\n      dup3\n        /* \"#utility.yul\":8481:8499   */\n      add\n        /* \"#utility.yul\":8473:8499   */\n      swap1\n      pop\n        /* \"#utility.yul\":8509:8580   */\n      tag_277\n        /* \"#utility.yul\":8577:8578   */\n      0x00\n        /* \"#utility.yul\":8566:8575   */\n      dup4\n        /* \"#utility.yul\":8562:8579   */\n      add\n        /* \"#utility.yul\":8553:8559   */\n      dup6\n        /* \"#utility.yul\":8509:8580   */\n      tag_154\n      jump\t// in\n    tag_277:\n        /* \"#utility.yul\":8590:8662   */\n      tag_278\n        /* \"#utility.yul\":8658:8660   */\n      0x20\n        /* \"#utility.yul\":8647:8656   */\n      dup4\n        /* \"#utility.yul\":8643:8661   */\n      add\n        /* \"#utility.yul\":8634:8640   */\n      dup5\n        /* \"#utility.yul\":8590:8662   */\n      tag_142\n      jump\t// in\n    tag_278:\n        /* \"#utility.yul\":8337:8669   */\n      swap4\n      swap3\n      pop\n      pop\n      pop\n      jump\t// out\n        /* \"#utility.yul\":8675:8791   */\n    tag_162:\n        /* \"#utility.yul\":8745:8766   */\n      tag_280\n        /* \"#utility.yul\":8760:8765   */\n      dup2\n        /* \"#utility.yul\":8745:8766   */\n      tag_147\n      jump\t// in\n    tag_280:\n        /* \"#utility.yul\":8738:8743   */\n      dup2\n        /* \"#utility.yul\":8735:8767   */\n      eq\n        /* \"#utility.yul\":8725:8785   */\n      tag_281\n      jumpi\n        /* \"#utility.yul\":8781:8782   */\n      0x00\n        /* \"#utility.yul\":8778:8779   */\n      0x00\n        /* \"#utility.yul\":8771:8783   */\n      revert\n        /* \"#utility.yul\":8725:8785   */\n    tag_281:\n        /* \"#utility.yul\":8675:8791   */\n      pop\n      jump\t// out\n        /* \"#utility.yul\":8797:8934   */\n    tag_163:\n        /* \"#utility.yul\":8851:8856   */\n      0x00\n        /* \"#utility.yul\":8882:8888   */\n      dup2\n        /* \"#utility.yul\":8876:8889   */\n      mload\n        /* \"#utility.yul\":8867:8889   */\n      swap1\n      pop\n        /* \"#utility.yul\":8898:8928   */\n      tag_283\n        /* \"#utility.yul\":8922:8927   */\n      dup2\n        /* \"#utility.yul\":8898:8928   */\n      tag_162\n      jump\t// in\n    tag_283:\n        /* \"#utility.yul\":8797:8934   */\n      swap3\n      swap2\n      pop\n      pop\n      jump\t// out\n        /* \"#utility.yul\":8940:9285   */\n    tag_94:\n        /* \"#utility.yul\":9007:9013   */\n      0x00\n        /* \"#utility.yul\":9056:9058   */\n      0x20\n        /* \"#utility.yul\":9044:9053   */\n      dup3\n        /* \"#utility.yul\":9035:9042   */\n      dup5\n        /* \"#utility.yul\":9031:9054   */\n      sub\n        /* \"#utility.yul\":9027:9059   */\n      slt\n        /* \"#utility.yul\":9024:9143   */\n      iszero\n      tag_285\n      jumpi\n        /* \"#utility.yul\":9062:9141   */\n      tag_286\n      tag_135\n      jump\t// in\n    tag_286:\n        /* \"#utility.yul\":9024:9143   */\n    tag_285:\n        /* \"#utility.yul\":9182:9183   */\n      0x00\n        /* \"#utility.yul\":9207:9268   */\n      tag_287\n        /* \"#utility.yul\":9260:9267   */\n      dup5\n        /* \"#utility.yul\":9251:9257   */\n      dup3\n        /* \"#utility.yul\":9240:9249   */\n      dup6\n        /* \"#utility.yul\":9236:9258   */\n      add\n        /* \"#utility.yul\":9207:9268   */\n      tag_163\n      jump\t// in\n    tag_287:\n        /* \"#utility.yul\":9197:9268   */\n      swap2\n      pop\n        /* \"#utility.yul\":9153:9278   */\n      pop\n        /* \"#utility.yul\":8940:9285   */\n      swap3\n      swap2\n      pop\n      pop\n      jump\t// out\n        /* \"#utility.yul\":9291:9460   */\n    tag_164:\n        /* \"#utility.yul\":9375:9386   */\n      0x00\n        /* \"#utility.yul\":9409:9415   */\n      dup3\n        /* \"#utility.yul\":9404:9407   */\n      dup3\n        /* \"#utility.yul\":9397:9416   */\n      mstore\n        /* \"#utility.yul\":9449:9453   */\n      0x20\n        /* \"#utility.yul\":9444:9447   */\n      dup3\n        /* \"#utility.yul\":9440:9454   */\n      add\n        /* \"#utility.yul\":9425:9454   */\n      swap1\n      pop\n        /* \"#utility.yul\":9291:9460   */\n      swap3\n      swap2\n      pop\n      pop\n      jump\t// out\n        /* \"#utility.yul\":9466:9625   */\n    tag_165:\n        /* \"#utility.yul\":9606:9617   */\n      0x4e6f74204f776e65720000000000000000000000000000000000000000000000\n        /* \"#utility.yul\":9602:9603   */\n      0x00\n        /* \"#utility.yul\":9594:9600   */\n      dup3\n        /* \"#utility.yul\":9590:9604   */\n      add\n        /* \"#utility.yul\":9583:9618   */\n      mstore\n        /* \"#utility.yul\":9466:9625   */\n      pop\n      jump\t// out\n        /* \"#utility.yul\":9631:9996   */\n    tag_166:\n        /* \"#utility.yul\":9773:9776   */\n      0x00\n        /* \"#utility.yul\":9794:9860   */\n      tag_291\n        /* \"#utility.yul\":9858:9859   */\n      0x09\n        /* \"#utility.yul\":9853:9856   */\n      dup4\n        /* \"#utility.yul\":9794:9860   */\n      tag_164\n      jump\t// in\n    tag_291:\n        /* \"#utility.yul\":9787:9860   */\n      swap2\n      pop\n        /* \"#utility.yul\":9869:9962   */\n      tag_292\n        /* \"#utility.yul\":9958:9961   */\n      dup3\n        /* \"#utility.yul\":9869:9962   */\n      tag_165\n      jump\t// in\n    tag_292:\n        /* \"#utility.yul\":9987:9989   */\n      0x20\n        /* \"#utility.yul\":9982:9985   */\n      dup3\n        /* \"#utility.yul\":9978:9990   */\n      add\n        /* \"#utility.yul\":9971:9990   */\n      swap1\n      pop\n        /* \"#utility.yul\":9631:9996   */\n      swap2\n      swap1\n      pop\n      jump\t// out\n        /* \"#utility.yul\":10002:10421   */\n    tag_102:\n        /* \"#utility.yul\":10168:10172   */\n      0x00\n        /* \"#utility.yul\":10206:10208   */\n      0x20\n        /* \"#utility.yul\":10195:10204   */\n      dup3\n        /* \"#utility.yul\":10191:10209   */\n      add\n        /* \"#utility.yul\":10183:10209   */\n      swap1\n      pop\n        /* \"#utility.yul\":10255:10264   */\n      dup2\n        /* \"#utility.yul\":10249:10253   */\n      dup2\n        /* \"#utility.yul\":10245:10265   */\n      sub\n        /* \"#utility.yul\":10241:10242   */\n      0x00\n        /* \"#utility.yul\":10230:10239   */\n      dup4\n        /* \"#utility.yul\":10226:10243   */\n      add\n        /* \"#utility.yul\":10219:10266   */\n      mstore\n        /* \"#utility.yul\":10283:10414   */\n      tag_294\n        /* \"#utility.yul\":10409:10413   */\n      dup2\n        /* \"#utility.yul\":10283:10414   */\n      tag_166\n      jump\t// in\n    tag_294:\n        /* \"#utility.yul\":10275:10414   */\n      swap1\n      pop\n        /* \"#utility.yul\":10002:10421   */\n      swap2\n      swap1\n      pop\n      jump\t// out\n\n    auxdata: 0xa2646970667358221220eff32fc582edcae18d5399c5f07dcb3800312a206606527acebd509a204b2a7164736f6c634300081e0033\n}\n",
				"bytecode": {
					"linkReferences": {},
					"object": "610120604052348015610010575f5ffd5b506040516116ec3803806116ec8339818101604052810190610032919061029f565b5f830361006b576040517fcf478f2300000000000000000000000000000000000000000000000000000000815260040160405180910390fd5b60018160ff161080610080575060048160ff16115b156100b7576040517f2b3f1e6e00000000000000000000000000000000000000000000000000000000815260040160405180910390fd5b828211156100f1576040517f3be41dfe00000000000000000000000000000000000000000000000000000000815260040160405180910390fd5b8373ffffffffffffffffffffffffffffffffffffffff1660808173ffffffffffffffffffffffffffffffffffffffff16815250503373ffffffffffffffffffffffffffffffffffffffff1660a08173ffffffffffffffffffffffffffffffffffffffff16815250504260c081815250505f60018260ff161461019d5760028260ff16146101955760038260ff161461018c5762015180610190565b610e105b610198565b603c5b6101a0565b60015b62ffffff16905080846101b39190610330565b60e0818152505080836101c69190610330565b61010081815250505050505050610371565b5f5ffd5b5f73ffffffffffffffffffffffffffffffffffffffff82169050919050565b5f610205826101dc565b9050919050565b610215816101fb565b811461021f575f5ffd5b50565b5f815190506102308161020c565b92915050565b5f819050919050565b61024881610236565b8114610252575f5ffd5b50565b5f815190506102638161023f565b92915050565b5f60ff82169050919050565b61027e81610269565b8114610288575f5ffd5b50565b5f8151905061029981610275565b92915050565b5f5f5f5f608085870312156102b7576102b66101d8565b5b5f6102c487828801610222565b94505060206102d587828801610255565b93505060406102e687828801610255565b92505060606102f78782880161028b565b91505092959194509250565b7f4e487b71000000000000000000000000000000000000000000000000000000005f52601160045260245ffd5b5f61033a82610236565b915061034583610236565b925082820261035381610236565b9150828204841483151761036a57610369610303565b5b5092915050565b60805160a05160c05160e051610100516113066103e65f395f81816106ee01528181610c060152610c6601525f818161065e0152610c8701525f818161045e0152610c2701525f818161073b01526107a201525f81816103a3015281816105bc0152818161071201526109fb01526113065ff3fe608060405234801561000f575f5ffd5b50600436106100cd575f3560e01c806373863a3f1161008a578063dba6335f11610064578063dba6335f14610207578063ec004cd014610225578063ffd1360e14610255578063ffd161f114610273576100cd565b806373863a3f146101ad5780639608b232146101cb578063a8b5b942146101e9576100cd565b806301567739146100d15780630b1665ae1461010557806316bc8977146101355780634e71d92d146101535780634eafd2411461015d578063505a1b311461017b575b5f5ffd5b6100eb60048036038101906100e69190610d99565b61028f565b6040516100fc959493929190610e69565b60405180910390f35b61011f600480360381019061011a9190610d99565b6102d9565b60405161012c9190610eba565b60405180910390f35b61013d61045c565b60405161014a9190610eba565b60405180910390f35b61015b610480565b005b61016561065c565b6040516101729190610eba565b60405180910390f35b61019560048036038101906101909190610d99565b610680565b6040516101a493929190610ed3565b60405180910390f35b6101b56106ec565b6040516101c29190610eba565b60405180910390f35b6101d3610710565b6040516101e09190610f63565b60405180910390f35b6101f1610734565b6040516101fe9190610eba565b60405180910390f35b61020f610739565b60405161021c9190610f8b565b60405180910390f35b61023f600480360381019061023a9190610fce565b61075d565b60405161024c9190610f8b565b60405180910390f35b61025d610798565b60405161026a9190610eba565b60405180910390f35b61028d6004803603810190610288919061101c565b6107a0565b005b6001602052805f5260405f205f91509050805f015490806001015490806002015f9054906101000a900460ff1690806003015490806004015f9054906101000a900460ff16905085565b5f60015f8373ffffffffffffffffffffffffffffffffffffffff1673ffffffffffffffffffffffffffffffffffffffff1681526020019081526020015f206004015f9054906101000a900460ff1661035d576040517f694f351f00000000000000000000000000000000000000000000000000000000815260040160405180910390fd5b5f60015f8473ffffffffffffffffffffffffffffffffffffffff1673ffffffffffffffffffffffffffffffffffffffff1681526020019081526020015f205f015490505f7f000000000000000000000000000000000000000000000000000000000000000073ffffffffffffffffffffffffffffffffffffffff166370a08231306040518263ffffffff1660e01b81526004016103fa9190610f8b565b602060405180830381865afa158015610415573d5f5f3e3d5ffd5b505050506040513d601f19601f820116820180604052508101906104399190611080565b90506064828261044991906110d8565b6104539190611146565b92505050919050565b7f000000000000000000000000000000000000000000000000000000000000000081565b5f60015f3373ffffffffffffffffffffffffffffffffffffffff1673ffffffffffffffffffffffffffffffffffffffff1681526020019081526020015f209050806004015f9054906101000a900460ff16610507576040517f694f351f00000000000000000000000000000000000000000000000000000000815260040160405180910390fd5b5f816001015403610544576040517f694f351f00000000000000000000000000000000000000000000000000000000815260040160405180910390fd5b5f61054e33610c02565b90505f82600301549050808211610591576040517f0f3f861000000000000000000000000000000000000000000000000000000000815260040160405180910390fd5b5f818361059e9190611176565b905080846003015f8282546105b391906111a9565b925050819055507f000000000000000000000000000000000000000000000000000000000000000073ffffffffffffffffffffffffffffffffffffffff1663a9059cbb33836040518363ffffffff1660e01b81526004016106159291906111dc565b6020604051808303815f875af1158015610631573d5f5f3e3d5ffd5b505050506040513d601f19601f82011682018060405250810190610655919061122d565b5050505050565b7f000000000000000000000000000000000000000000000000000000000000000081565b5f5f5f5f60015f8673ffffffffffffffffffffffffffffffffffffffff1673ffffffffffffffffffffffffffffffffffffffff1681526020019081526020015f2090508060010154816002015f9054906101000a900460ff168260030154935093509350509193909250565b7f000000000000000000000000000000000000000000000000000000000000000081565b7f000000000000000000000000000000000000000000000000000000000000000081565b5f5481565b7f000000000000000000000000000000000000000000000000000000000000000081565b6002818154811061076c575f80fd5b905f5260205f20015f915054906101000a900473ffffffffffffffffffffffffffffffffffffffff1681565b5f5f54905090565b7f000000000000000000000000000000000000000000000000000000000000000073ffffffffffffffffffffffffffffffffffffffff163373ffffffffffffffffffffffffffffffffffffffff161461082e576040517f08c379a0000000000000000000000000000000000000000000000000000000008152600401610825906112b2565b60405180910390fd5b5f8203610867576040517f9ab1056100000000000000000000000000000000000000000000000000000000815260040160405180910390fd5b5f600381111561087a57610879610ddc565b5b81600381111561088d5761088c610ddc565b5b036108c4576040517fd954416a00000000000000000000000000000000000000000000000000000000815260040160405180910390fd5b5f73ffffffffffffffffffffffffffffffffffffffff168373ffffffffffffffffffffffffffffffffffffffff1603610929576040517f3efa09af00000000000000000000000000000000000000000000000000000000815260040160405180910390fd5b60015f8473ffffffffffffffffffffffffffffffffffffffff1673ffffffffffffffffffffffffffffffffffffffff1681526020019081526020015f206004015f9054906101000a900460ff16156109ad576040517f3593535100000000000000000000000000000000000000000000000000000000815260040160405180910390fd5b5f825f546109bb91906111a9565b905060648111156109f8576040517fa98128db00000000000000000000000000000000000000000000000000000000815260040160405180910390fd5b5f7f000000000000000000000000000000000000000000000000000000000000000073ffffffffffffffffffffffffffffffffffffffff166370a08231306040518263ffffffff1660e01b8152600401610a529190610f8b565b602060405180830381865afa158015610a6d573d5f5f3e3d5ffd5b505050506040513d601f19601f82011682018060405250810190610a919190611080565b90505f60648583610aa291906110d8565b610aac9190611146565b90506040518060a00160405280868152602001828152602001856003811115610ad857610ad7610ddc565b5b81526020015f81526020016001151581525060015f8873ffffffffffffffffffffffffffffffffffffffff1673ffffffffffffffffffffffffffffffffffffffff1681526020019081526020015f205f820151815f0155602082015181600101556040820151816002015f6101000a81548160ff02191690836003811115610b6357610b62610ddc565b5b0217905550606082015181600301556080820151816004015f6101000a81548160ff021916908315150217905550905050825f81905550600286908060018154018082558091505060019003905f5260205f20015f9091909190916101000a81548173ffffffffffffffffffffffffffffffffffffffff021916908373ffffffffffffffffffffffffffffffffffffffff160217905550505050505050565b5f5f7f00000000000000000000000000000000000000000000000000000000000000007f0000000000000000000000000000000000000000000000000000000000000000610c5091906111a9565b905080421015610c63575f915050610d36565b5f7f00000000000000000000000000000000000000000000000000000000000000007f0000000000000000000000000000000000000000000000000000000000000000610cb09190611176565b90505f8242610cbf9190611176565b90505f60015f8773ffffffffffffffffffffffffffffffffffffffff1673ffffffffffffffffffffffffffffffffffffffff1681526020019081526020015f20600101549050828210610d185780945050505050610d36565b828282610d2591906110d8565b610d2f9190611146565b9450505050505b919050565b5f5ffd5b5f73ffffffffffffffffffffffffffffffffffffffff82169050919050565b5f610d6882610d3f565b9050919050565b610d7881610d5e565b8114610d82575f5ffd5b50565b5f81359050610d9381610d6f565b92915050565b5f60208284031215610dae57610dad610d3b565b5b5f610dbb84828501610d85565b91505092915050565b5f819050919050565b610dd681610dc4565b82525050565b7f4e487b71000000000000000000000000000000000000000000000000000000005f52602160045260245ffd5b60048110610e1a57610e19610ddc565b5b50565b5f819050610e2a82610e09565b919050565b5f610e3982610e1d565b9050919050565b610e4981610e2f565b82525050565b5f8115159050919050565b610e6381610e4f565b82525050565b5f60a082019050610e7c5f830188610dcd565b610e896020830187610dcd565b610e966040830186610e40565b610ea36060830185610dcd565b610eb06080830184610e5a565b9695505050505050565b5f602082019050610ecd5f830184610dcd565b92915050565b5f606082019050610ee65f830186610dcd565b610ef36020830185610e40565b610f006040830184610dcd565b949350505050565b5f819050919050565b5f610f2b610f26610f2184610d3f565b610f08565b610d3f565b9050919050565b5f610f3c82610f11565b9050919050565b5f610f4d82610f32565b9050919050565b610f5d81610f43565b82525050565b5f602082019050610f765f830184610f54565b92915050565b610f8581610d5e565b82525050565b5f602082019050610f9e5f830184610f7c565b92915050565b610fad81610dc4565b8114610fb7575f5ffd5b50565b5f81359050610fc881610fa4565b92915050565b5f60208284031215610fe357610fe2610d3b565b5b5f610ff084828501610fba565b91505092915050565b60048110611005575f5ffd5b50565b5f8135905061101681610ff9565b92915050565b5f5f5f6060848603121561103357611032610d3b565b5b5f61104086828701610d85565b935050602061105186828701610fba565b925050604061106286828701611008565b9150509250925092565b5f8151905061107a81610fa4565b92915050565b5f6020828403121561109557611094610d3b565b5b5f6110a28482850161106c565b91505092915050565b7f4e487b71000000000000000000000000000000000000000000000000000000005f52601160045260245ffd5b5f6110e282610dc4565b91506110ed83610dc4565b92508282026110fb81610dc4565b91508282048414831517611112576111116110ab565b5b5092915050565b7f4e487b71000000000000000000000000000000000000000000000000000000005f52601260045260245ffd5b5f61115082610dc4565b915061115b83610dc4565b92508261116b5761116a611119565b5b828204905092915050565b5f61118082610dc4565b915061118b83610dc4565b92508282039050818111156111a3576111a26110ab565b5b92915050565b5f6111b382610dc4565b91506111be83610dc4565b92508282019050808211156111d6576111d56110ab565b5b92915050565b5f6040820190506111ef5f830185610f7c565b6111fc6020830184610dcd565b9392505050565b61120c81610e4f565b8114611216575f5ffd5b50565b5f8151905061122781611203565b92915050565b5f6020828403121561124257611241610d3b565b5b5f61124f84828501611219565b91505092915050565b5f82825260208201905092915050565b7f4e6f74204f776e657200000000000000000000000000000000000000000000005f82015250565b5f61129c600983611258565b91506112a782611268565b602082019050919050565b5f6020820190508181035f8301526112c981611290565b905091905056fea2646970667358221220eff32fc582edcae18d5399c5f07dcb3800312a206606527acebd509a204b2a7164736f6c634300081e0033",
					"opcodes": "PUSH2 0x120 PUSH1 0x40 MSTORE CALLVALUE DUP1 ISZERO PUSH2 0x10 JUMPI PUSH0 PUSH0 REVERT JUMPDEST POP PUSH1 0x40 MLOAD PUSH2 0x16EC CODESIZE SUB DUP1 PUSH2 0x16EC DUP4 CODECOPY DUP2 DUP2 ADD PUSH1 0x40 MSTORE DUP2 ADD SWAP1 PUSH2 0x32 SWAP2 SWAP1 PUSH2 0x29F JUMP JUMPDEST PUSH0 DUP4 SUB PUSH2 0x6B JUMPI PUSH1 0x40 MLOAD PUSH32 0xCF478F2300000000000000000000000000000000000000000000000000000000 DUP2 MSTORE PUSH1 0x4 ADD PUSH1 0x40 MLOAD DUP1 SWAP2 SUB SWAP1 REVERT JUMPDEST PUSH1 0x1 DUP2 PUSH1 0xFF AND LT DUP1 PUSH2 0x80 JUMPI POP PUSH1 0x4 DUP2 PUSH1 0xFF AND GT JUMPDEST ISZERO PUSH2 0xB7 JUMPI PUSH1 0x40 MLOAD PUSH32 0x2B3F1E6E00000000000000000000000000000000000000000000000000000000 DUP2 MSTORE PUSH1 0x4 ADD PUSH1 0x40 MLOAD DUP1 SWAP2 SUB SWAP1 REVERT JUMPDEST DUP3 DUP3 GT ISZERO PUSH2 0xF1 JUMPI PUSH1 0x40 MLOAD PUSH32 0x3BE41DFE00000000000000000000000000000000000000000000000000000000 DUP2 MSTORE PUSH1 0x4 ADD PUSH1 0x40 MLOAD DUP1 SWAP2 SUB SWAP1 REVERT JUMPDEST DUP4 PUSH20 0xFFFFFFFFFFFFFFFFFFFFFFFFFFFFFFFFFFFFFFFF AND PUSH1 0x80 DUP2 PUSH20 0xFFFFFFFFFFFFFFFFFFFFFFFFFFFFFFFFFFFFFFFF AND DUP2 MSTORE POP POP CALLER PUSH20 0xFFFFFFFFFFFFFFFFFFFFFFFFFFFFFFFFFFFFFFFF AND PUSH1 0xA0 DUP2 PUSH20 0xFFFFFFFFFFFFFFFFFFFFFFFFFFFFFFFFFFFFFFFF AND DUP2 MSTORE POP POP TIMESTAMP PUSH1 0xC0 DUP2 DUP2 MSTORE POP POP PUSH0 PUSH1 0x1 DUP3 PUSH1 0xFF AND EQ PUSH2 0x19D JUMPI PUSH1 0x2 DUP3 PUSH1 0xFF AND EQ PUSH2 0x195 JUMPI PUSH1 0x3 DUP3 PUSH1 0xFF AND EQ PUSH2 0x18C JUMPI PUSH3 0x15180 PUSH2 0x190 JUMP JUMPDEST PUSH2 0xE10 JUMPDEST PUSH2 0x198 JUMP JUMPDEST PUSH1 0x3C JUMPDEST PUSH2 0x1A0 JUMP JUMPDEST PUSH1 0x1 JUMPDEST PUSH3 0xFFFFFF AND SWAP1 POP DUP1 DUP5 PUSH2 0x1B3 SWAP2 SWAP1 PUSH2 0x330 JUMP JUMPDEST PUSH1 0xE0 DUP2 DUP2 MSTORE POP POP DUP1 DUP4 PUSH2 0x1C6 SWAP2 SWAP1 PUSH2 0x330 JUMP JUMPDEST PUSH2 0x100 DUP2 DUP2 MSTORE POP POP POP POP POP POP POP PUSH2 0x371 JUMP JUMPDEST PUSH0 PUSH0 REVERT JUMPDEST PUSH0 PUSH20 0xFFFFFFFFFFFFFFFFFFFFFFFFFFFFFFFFFFFFFFFF DUP3 AND SWAP1 POP SWAP2 SWAP1 POP JUMP JUMPDEST PUSH0 PUSH2 0x205 DUP3 PUSH2 0x1DC JUMP JUMPDEST SWAP1 POP SWAP2 SWAP1 POP JUMP JUMPDEST PUSH2 0x215 DUP2 PUSH2 0x1FB JUMP JUMPDEST DUP2 EQ PUSH2 0x21F JUMPI PUSH0 PUSH0 REVERT JUMPDEST POP JUMP JUMPDEST PUSH0 DUP2 MLOAD SWAP1 POP PUSH2 0x230 DUP2 PUSH2 0x20C JUMP JUMPDEST SWAP3 SWAP2 POP POP JUMP JUMPDEST PUSH0 DUP2 SWAP1 POP SWAP2 SWAP1 POP JUMP JUMPDEST PUSH2 0x248 DUP2 PUSH2 0x236 JUMP JUMPDEST DUP2 EQ PUSH2 0x252 JUMPI PUSH0 PUSH0 REVERT JUMPDEST POP JUMP JUMPDEST PUSH0 DUP2 MLOAD SWAP1 POP PUSH2 0x263 DUP2 PUSH2 0x23F JUMP JUMPDEST SWAP3 SWAP2 POP POP JUMP JUMPDEST PUSH0 PUSH1 0xFF DUP3 AND SWAP1 POP SWAP2 SWAP1 POP JUMP JUMPDEST PUSH2 0x27E DUP2 PUSH2 0x269 JUMP JUMPDEST DUP2 EQ PUSH2 0x288 JUMPI PUSH0 PUSH0 REVERT JUMPDEST POP JUMP JUMPDEST PUSH0 DUP2 MLOAD SWAP1 POP PUSH2 0x299 DUP2 PUSH2 0x275 JUMP JUMPDEST SWAP3 SWAP2 POP POP JUMP JUMPDEST PUSH0 PUSH0 PUSH0 PUSH0 PUSH1 0x80 DUP6 DUP8 SUB SLT ISZERO PUSH2 0x2B7 JUMPI PUSH2 0x2B6 PUSH2 0x1D8 JUMP JUMPDEST JUMPDEST PUSH0 PUSH2 0x2C4 DUP8 DUP3 DUP9 ADD PUSH2 0x222 JUMP JUMPDEST SWAP5 POP POP PUSH1 0x20 PUSH2 0x2D5 DUP8 DUP3 DUP9 ADD PUSH2 0x255 JUMP JUMPDEST SWAP4 POP POP PUSH1 0x40 PUSH2 0x2E6 DUP8 DUP3 DUP9 ADD PUSH2 0x255 JUMP JUMPDEST SWAP3 POP POP PUSH1 0x60 PUSH2 0x2F7 DUP8 DUP3 DUP9 ADD PUSH2 0x28B JUMP JUMPDEST SWAP2 POP POP SWAP3 SWAP6 SWAP2 SWAP5 POP SWAP3 POP JUMP JUMPDEST PUSH32 0x4E487B7100000000000000000000000000000000000000000000000000000000 PUSH0 MSTORE PUSH1 0x11 PUSH1 0x4 MSTORE PUSH1 0x24 PUSH0 REVERT JUMPDEST PUSH0 PUSH2 0x33A DUP3 PUSH2 0x236 JUMP JUMPDEST SWAP2 POP PUSH2 0x345 DUP4 PUSH2 0x236 JUMP JUMPDEST SWAP3 POP DUP3 DUP3 MUL PUSH2 0x353 DUP2 PUSH2 0x236 JUMP JUMPDEST SWAP2 POP DUP3 DUP3 DIV DUP5 EQ DUP4 ISZERO OR PUSH2 0x36A JUMPI PUSH2 0x369 PUSH2 0x303 JUMP JUMPDEST JUMPDEST POP SWAP3 SWAP2 POP POP JUMP JUMPDEST PUSH1 0x80 MLOAD PUSH1 0xA0 MLOAD PUSH1 0xC0 MLOAD PUSH1 0xE0 MLOAD PUSH2 0x100 MLOAD PUSH2 0x1306 PUSH2 0x3E6 PUSH0 CODECOPY PUSH0 DUP2 DUP2 PUSH2 0x6EE ADD MSTORE DUP2 DUP2 PUSH2 0xC06 ADD MSTORE PUSH2 0xC66 ADD MSTORE PUSH0 DUP2 DUP2 PUSH2 0x65E ADD MSTORE PUSH2 0xC87 ADD MSTORE PUSH0 DUP2 DUP2 PUSH2 0x45E ADD MSTORE PUSH2 0xC27 ADD MSTORE PUSH0 DUP2 DUP2 PUSH2 0x73B ADD MSTORE PUSH2 0x7A2 ADD MSTORE PUSH0 DUP2 DUP2 PUSH2 0x3A3 ADD MSTORE DUP2 DUP2 PUSH2 0x5BC ADD MSTORE DUP2 DUP2 PUSH2 0x712 ADD MSTORE PUSH2 0x9FB ADD MSTORE PUSH2 0x1306 PUSH0 RETURN INVALID PUSH1 0x80 PUSH1 0x40 MSTORE CALLVALUE DUP1 ISZERO PUSH2 0xF JUMPI PUSH0 PUSH0 REVERT JUMPDEST POP PUSH1 0x4 CALLDATASIZE LT PUSH2 0xCD JUMPI PUSH0 CALLDATALOAD PUSH1 0xE0 SHR DUP1 PUSH4 0x73863A3F GT PUSH2 0x8A JUMPI DUP1 PUSH4 0xDBA6335F GT PUSH2 0x64 JUMPI DUP1 PUSH4 0xDBA6335F EQ PUSH2 0x207 JUMPI DUP1 PUSH4 0xEC004CD0 EQ PUSH2 0x225 JUMPI DUP1 PUSH4 0xFFD1360E EQ PUSH2 0x255 JUMPI DUP1 PUSH4 0xFFD161F1 EQ PUSH2 0x273 JUMPI PUSH2 0xCD JUMP JUMPDEST DUP1 PUSH4 0x73863A3F EQ PUSH2 0x1AD JUMPI DUP1 PUSH4 0x9608B232 EQ PUSH2 0x1CB JUMPI DUP1 PUSH4 0xA8B5B942 EQ PUSH2 0x1E9 JUMPI PUSH2 0xCD JUMP JUMPDEST DUP1 PUSH4 0x1567739 EQ PUSH2 0xD1 JUMPI DUP1 PUSH4 0xB1665AE EQ PUSH2 0x105 JUMPI DUP1 PUSH4 0x16BC8977 EQ PUSH2 0x135 JUMPI DUP1 PUSH4 0x4E71D92D EQ PUSH2 0x153 JUMPI DUP1 PUSH4 0x4EAFD241 EQ PUSH2 0x15D JUMPI DUP1 PUSH4 0x505A1B31 EQ PUSH2 0x17B JUMPI JUMPDEST PUSH0 PUSH0 REVERT JUMPDEST PUSH2 0xEB PUSH1 0x4 DUP1 CALLDATASIZE SUB DUP2 ADD SWAP1 PUSH2 0xE6 SWAP2 SWAP1 PUSH2 0xD99 JUMP JUMPDEST PUSH2 0x28F JUMP JUMPDEST PUSH1 0x40 MLOAD PUSH2 0xFC SWAP6 SWAP5 SWAP4 SWAP3 SWAP2 SWAP1 PUSH2 0xE69 JUMP JUMPDEST PUSH1 0x40 MLOAD DUP1 SWAP2 SUB SWAP1 RETURN JUMPDEST PUSH2 0x11F PUSH1 0x4 DUP1 CALLDATASIZE SUB DUP2 ADD SWAP1 PUSH2 0x11A SWAP2 SWAP1 PUSH2 0xD99 JUMP JUMPDEST PUSH2 0x2D9 JUMP JUMPDEST PUSH1 0x40 MLOAD PUSH2 0x12C SWAP2 SWAP1 PUSH2 0xEBA JUMP JUMPDEST PUSH1 0x40 MLOAD DUP1 SWAP2 SUB SWAP1 RETURN JUMPDEST PUSH2 0x13D PUSH2 0x45C JUMP JUMPDEST PUSH1 0x40 MLOAD PUSH2 0x14A SWAP2 SWAP1 PUSH2 0xEBA JUMP JUMPDEST PUSH1 0x40 MLOAD DUP1 SWAP2 SUB SWAP1 RETURN JUMPDEST PUSH2 0x15B PUSH2 0x480 JUMP JUMPDEST STOP JUMPDEST PUSH2 0x165 PUSH2 0x65C JUMP JUMPDEST PUSH1 0x40 MLOAD PUSH2 0x172 SWAP2 SWAP1 PUSH2 0xEBA JUMP JUMPDEST PUSH1 0x40 MLOAD DUP1 SWAP2 SUB SWAP1 RETURN JUMPDEST PUSH2 0x195 PUSH1 0x4 DUP1 CALLDATASIZE SUB DUP2 ADD SWAP1 PUSH2 0x190 SWAP2 SWAP1 PUSH2 0xD99 JUMP JUMPDEST PUSH2 0x680 JUMP JUMPDEST PUSH1 0x40 MLOAD PUSH2 0x1A4 SWAP4 SWAP3 SWAP2 SWAP1 PUSH2 0xED3 JUMP JUMPDEST PUSH1 0x40 MLOAD DUP1 SWAP2 SUB SWAP1 RETURN JUMPDEST PUSH2 0x1B5 PUSH2 0x6EC JUMP JUMPDEST PUSH1 0x40 MLOAD PUSH2 0x1C2 SWAP2 SWAP1 PUSH2 0xEBA JUMP JUMPDEST PUSH1 0x40 MLOAD DUP1 SWAP2 SUB SWAP1 RETURN JUMPDEST PUSH2 0x1D3 PUSH2 0x710 JUMP JUMPDEST PUSH1 0x40 MLOAD PUSH2 0x1E0 SWAP2 SWAP1 PUSH2 0xF63 JUMP JUMPDEST PUSH1 0x40 MLOAD DUP1 SWAP2 SUB SWAP1 RETURN JUMPDEST PUSH2 0x1F1 PUSH2 0x734 JUMP JUMPDEST PUSH1 0x40 MLOAD PUSH2 0x1FE SWAP2 SWAP1 PUSH2 0xEBA JUMP JUMPDEST PUSH1 0x40 MLOAD DUP1 SWAP2 SUB SWAP1 RETURN JUMPDEST PUSH2 0x20F PUSH2 0x739 JUMP JUMPDEST PUSH1 0x40 MLOAD PUSH2 0x21C SWAP2 SWAP1 PUSH2 0xF8B JUMP JUMPDEST PUSH1 0x40 MLOAD DUP1 SWAP2 SUB SWAP1 RETURN JUMPDEST PUSH2 0x23F PUSH1 0x4 DUP1 CALLDATASIZE SUB DUP2 ADD SWAP1 PUSH2 0x23A SWAP2 SWAP1 PUSH2 0xFCE JUMP JUMPDEST PUSH2 0x75D JUMP JUMPDEST PUSH1 0x40 MLOAD PUSH2 0x24C SWAP2 SWAP1 PUSH2 0xF8B JUMP JUMPDEST PUSH1 0x40 MLOAD DUP1 SWAP2 SUB SWAP1 RETURN JUMPDEST PUSH2 0x25D PUSH2 0x798 JUMP JUMPDEST PUSH1 0x40 MLOAD PUSH2 0x26A SWAP2 SWAP1 PUSH2 0xEBA JUMP JUMPDEST PUSH1 0x40 MLOAD DUP1 SWAP2 SUB SWAP1 RETURN JUMPDEST PUSH2 0x28D PUSH1 0x4 DUP1 CALLDATASIZE SUB DUP2 ADD SWAP1 PUSH2 0x288 SWAP2 SWAP1 PUSH2 0x101C JUMP JUMPDEST PUSH2 0x7A0 JUMP JUMPDEST STOP JUMPDEST PUSH1 0x1 PUSH1 0x20 MSTORE DUP1 PUSH0 MSTORE PUSH1 0x40 PUSH0 KECCAK256 PUSH0 SWAP2 POP SWAP1 POP DUP1 PUSH0 ADD SLOAD SWAP1 DUP1 PUSH1 0x1 ADD SLOAD SWAP1 DUP1 PUSH1 0x2 ADD PUSH0 SWAP1 SLOAD SWAP1 PUSH2 0x100 EXP SWAP1 DIV PUSH1 0xFF AND SWAP1 DUP1 PUSH1 0x3 ADD SLOAD SWAP1 DUP1 PUSH1 0x4 ADD PUSH0 SWAP1 SLOAD SWAP1 PUSH2 0x100 EXP SWAP1 DIV PUSH1 0xFF AND SWAP1 POP DUP6 JUMP JUMPDEST PUSH0 PUSH1 0x1 PUSH0 DUP4 PUSH20 0xFFFFFFFFFFFFFFFFFFFFFFFFFFFFFFFFFFFFFFFF AND PUSH20 0xFFFFFFFFFFFFFFFFFFFFFFFFFFFFFFFFFFFFFFFF AND DUP2 MSTORE PUSH1 0x20 ADD SWAP1 DUP2 MSTORE PUSH1 0x20 ADD PUSH0 KECCAK256 PUSH1 0x4 ADD PUSH0 SWAP1 SLOAD SWAP1 PUSH2 0x100 EXP SWAP1 DIV PUSH1 0xFF AND PUSH2 0x35D JUMPI PUSH1 0x40 MLOAD PUSH32 0x694F351F00000000000000000000000000000000000000000000000000000000 DUP2 MSTORE PUSH1 0x4 ADD PUSH1 0x40 MLOAD DUP1 SWAP2 SUB SWAP1 REVERT JUMPDEST PUSH0 PUSH1 0x1 PUSH0 DUP5 PUSH20 0xFFFFFFFFFFFFFFFFFFFFFFFFFFFFFFFFFFFFFFFF AND PUSH20 0xFFFFFFFFFFFFFFFFFFFFFFFFFFFFFFFFFFFFFFFF AND DUP2 MSTORE PUSH1 0x20 ADD SWAP1 DUP2 MSTORE PUSH1 0x20 ADD PUSH0 KECCAK256 PUSH0 ADD SLOAD SWAP1 POP PUSH0 PUSH32 0x0 PUSH20 0xFFFFFFFFFFFFFFFFFFFFFFFFFFFFFFFFFFFFFFFF AND PUSH4 0x70A08231 ADDRESS PUSH1 0x40 MLOAD DUP3 PUSH4 0xFFFFFFFF AND PUSH1 0xE0 SHL DUP2 MSTORE PUSH1 0x4 ADD PUSH2 0x3FA SWAP2 SWAP1 PUSH2 0xF8B JUMP JUMPDEST PUSH1 0x20 PUSH1 0x40 MLOAD DUP1 DUP4 SUB DUP2 DUP7 GAS STATICCALL ISZERO DUP1 ISZERO PUSH2 0x415 JUMPI RETURNDATASIZE PUSH0 PUSH0 RETURNDATACOPY RETURNDATASIZE PUSH0 REVERT JUMPDEST POP POP POP POP PUSH1 0x40 MLOAD RETURNDATASIZE PUSH1 0x1F NOT PUSH1 0x1F DUP3 ADD AND DUP3 ADD DUP1 PUSH1 0x40 MSTORE POP DUP2 ADD SWAP1 PUSH2 0x439 SWAP2 SWAP1 PUSH2 0x1080 JUMP JUMPDEST SWAP1 POP PUSH1 0x64 DUP3 DUP3 PUSH2 0x449 SWAP2 SWAP1 PUSH2 0x10D8 JUMP JUMPDEST PUSH2 0x453 SWAP2 SWAP1 PUSH2 0x1146 JUMP JUMPDEST SWAP3 POP POP POP SWAP2 SWAP1 POP JUMP JUMPDEST PUSH32 0x0 DUP2 JUMP JUMPDEST PUSH0 PUSH1 0x1 PUSH0 CALLER PUSH20 0xFFFFFFFFFFFFFFFFFFFFFFFFFFFFFFFFFFFFFFFF AND PUSH20 0xFFFFFFFFFFFFFFFFFFFFFFFFFFFFFFFFFFFFFFFF AND DUP2 MSTORE PUSH1 0x20 ADD SWAP1 DUP2 MSTORE PUSH1 0x20 ADD PUSH0 KECCAK256 SWAP1 POP DUP1 PUSH1 0x4 ADD PUSH0 SWAP1 SLOAD SWAP1 PUSH2 0x100 EXP SWAP1 DIV PUSH1 0xFF AND PUSH2 0x507 JUMPI PUSH1 0x40 MLOAD PUSH32 0x694F351F00000000000000000000000000000000000000000000000000000000 DUP2 MSTORE PUSH1 0x4 ADD PUSH1 0x40 MLOAD DUP1 SWAP2 SUB SWAP1 REVERT JUMPDEST PUSH0 DUP2 PUSH1 0x1 ADD SLOAD SUB PUSH2 0x544 JUMPI PUSH1 0x40 MLOAD PUSH32 0x694F351F00000000000000000000000000000000000000000000000000000000 DUP2 MSTORE PUSH1 0x4 ADD PUSH1 0x40 MLOAD DUP1 SWAP2 SUB SWAP1 REVERT JUMPDEST PUSH0 PUSH2 0x54E CALLER PUSH2 0xC02 JUMP JUMPDEST SWAP1 POP PUSH0 DUP3 PUSH1 0x3 ADD SLOAD SWAP1 POP DUP1 DUP3 GT PUSH2 0x591 JUMPI PUSH1 0x40 MLOAD PUSH32 0xF3F861000000000000000000000000000000000000000000000000000000000 DUP2 MSTORE PUSH1 0x4 ADD PUSH1 0x40 MLOAD DUP1 SWAP2 SUB SWAP1 REVERT JUMPDEST PUSH0 DUP2 DUP4 PUSH2 0x59E SWAP2 SWAP1 PUSH2 0x1176 JUMP JUMPDEST SWAP1 POP DUP1 DUP5 PUSH1 0x3 ADD PUSH0 DUP3 DUP3 SLOAD PUSH2 0x5B3 SWAP2 SWAP1 PUSH2 0x11A9 JUMP JUMPDEST SWAP3 POP POP DUP2 SWAP1 SSTORE POP PUSH32 0x0 PUSH20 0xFFFFFFFFFFFFFFFFFFFFFFFFFFFFFFFFFFFFFFFF AND PUSH4 0xA9059CBB CALLER DUP4 PUSH1 0x40 MLOAD DUP4 PUSH4 0xFFFFFFFF AND PUSH1 0xE0 SHL DUP2 MSTORE PUSH1 0x4 ADD PUSH2 0x615 SWAP3 SWAP2 SWAP1 PUSH2 0x11DC JUMP JUMPDEST PUSH1 0x20 PUSH1 0x40 MLOAD DUP1 DUP4 SUB DUP2 PUSH0 DUP8 GAS CALL ISZERO DUP1 ISZERO PUSH2 0x631 JUMPI RETURNDATASIZE PUSH0 PUSH0 RETURNDATACOPY RETURNDATASIZE PUSH0 REVERT JUMPDEST POP POP POP POP PUSH1 0x40 MLOAD RETURNDATASIZE PUSH1 0x1F NOT PUSH1 0x1F DUP3 ADD AND DUP3 ADD DUP1 PUSH1 0x40 MSTORE POP DUP2 ADD SWAP1 PUSH2 0x655 SWAP2 SWAP1 PUSH2 0x122D JUMP JUMPDEST POP POP POP POP POP JUMP JUMPDEST PUSH32 0x0 DUP2 JUMP JUMPDEST PUSH0 PUSH0 PUSH0 PUSH0 PUSH1 0x1 PUSH0 DUP7 PUSH20 0xFFFFFFFFFFFFFFFFFFFFFFFFFFFFFFFFFFFFFFFF AND PUSH20 0xFFFFFFFFFFFFFFFFFFFFFFFFFFFFFFFFFFFFFFFF AND DUP2 MSTORE PUSH1 0x20 ADD SWAP1 DUP2 MSTORE PUSH1 0x20 ADD PUSH0 KECCAK256 SWAP1 POP DUP1 PUSH1 0x1 ADD SLOAD DUP2 PUSH1 0x2 ADD PUSH0 SWAP1 SLOAD SWAP1 PUSH2 0x100 EXP SWAP1 DIV PUSH1 0xFF AND DUP3 PUSH1 0x3 ADD SLOAD SWAP4 POP SWAP4 POP SWAP4 POP POP SWAP2 SWAP4 SWAP1 SWAP3 POP JUMP JUMPDEST PUSH32 0x0 DUP2 JUMP JUMPDEST PUSH32 0x0 DUP2 JUMP JUMPDEST PUSH0 SLOAD DUP2 JUMP JUMPDEST PUSH32 0x0 DUP2 JUMP JUMPDEST PUSH1 0x2 DUP2 DUP2 SLOAD DUP2 LT PUSH2 0x76C JUMPI PUSH0 DUP1 REVERT JUMPDEST SWAP1 PUSH0 MSTORE PUSH1 0x20 PUSH0 KECCAK256 ADD PUSH0 SWAP2 POP SLOAD SWAP1 PUSH2 0x100 EXP SWAP1 DIV PUSH20 0xFFFFFFFFFFFFFFFFFFFFFFFFFFFFFFFFFFFFFFFF AND DUP2 JUMP JUMPDEST PUSH0 PUSH0 SLOAD SWAP1 POP SWAP1 JUMP JUMPDEST PUSH32 0x0 PUSH20 0xFFFFFFFFFFFFFFFFFFFFFFFFFFFFFFFFFFFFFFFF AND CALLER PUSH20 0xFFFFFFFFFFFFFFFFFFFFFFFFFFFFFFFFFFFFFFFF AND EQ PUSH2 0x82E JUMPI PUSH1 0x40 MLOAD PUSH32 0x8C379A000000000000000000000000000000000000000000000000000000000 DUP2 MSTORE PUSH1 0x4 ADD PUSH2 0x825 SWAP1 PUSH2 0x12B2 JUMP JUMPDEST PUSH1 0x40 MLOAD DUP1 SWAP2 SUB SWAP1 REVERT JUMPDEST PUSH0 DUP3 SUB PUSH2 0x867 JUMPI PUSH1 0x40 MLOAD PUSH32 0x9AB1056100000000000000000000000000000000000000000000000000000000 DUP2 MSTORE PUSH1 0x4 ADD PUSH1 0x40 MLOAD DUP1 SWAP2 SUB SWAP1 REVERT JUMPDEST PUSH0 PUSH1 0x3 DUP2 GT ISZERO PUSH2 0x87A JUMPI PUSH2 0x879 PUSH2 0xDDC JUMP JUMPDEST JUMPDEST DUP2 PUSH1 0x3 DUP2 GT ISZERO PUSH2 0x88D JUMPI PUSH2 0x88C PUSH2 0xDDC JUMP JUMPDEST JUMPDEST SUB PUSH2 0x8C4 JUMPI PUSH1 0x40 MLOAD PUSH32 0xD954416A00000000000000000000000000000000000000000000000000000000 DUP2 MSTORE PUSH1 0x4 ADD PUSH1 0x40 MLOAD DUP1 SWAP2 SUB SWAP1 REVERT JUMPDEST PUSH0 PUSH20 0xFFFFFFFFFFFFFFFFFFFFFFFFFFFFFFFFFFFFFFFF AND DUP4 PUSH20 0xFFFFFFFFFFFFFFFFFFFFFFFFFFFFFFFFFFFFFFFF AND SUB PUSH2 0x929 JUMPI PUSH1 0x40 MLOAD PUSH32 0x3EFA09AF00000000000000000000000000000000000000000000000000000000 DUP2 MSTORE PUSH1 0x4 ADD PUSH1 0x40 MLOAD DUP1 SWAP2 SUB SWAP1 REVERT JUMPDEST PUSH1 0x1 PUSH0 DUP5 PUSH20 0xFFFFFFFFFFFFFFFFFFFFFFFFFFFFFFFFFFFFFFFF AND PUSH20 0xFFFFFFFFFFFFFFFFFFFFFFFFFFFFFFFFFFFFFFFF AND DUP2 MSTORE PUSH1 0x20 ADD SWAP1 DUP2 MSTORE PUSH1 0x20 ADD PUSH0 KECCAK256 PUSH1 0x4 ADD PUSH0 SWAP1 SLOAD SWAP1 PUSH2 0x100 EXP SWAP1 DIV PUSH1 0xFF AND ISZERO PUSH2 0x9AD JUMPI PUSH1 0x40 MLOAD PUSH32 0x3593535100000000000000000000000000000000000000000000000000000000 DUP2 MSTORE PUSH1 0x4 ADD PUSH1 0x40 MLOAD DUP1 SWAP2 SUB SWAP1 REVERT JUMPDEST PUSH0 DUP3 PUSH0 SLOAD PUSH2 0x9BB SWAP2 SWAP1 PUSH2 0x11A9 JUMP JUMPDEST SWAP1 POP PUSH1 0x64 DUP2 GT ISZERO PUSH2 0x9F8 JUMPI PUSH1 0x40 MLOAD PUSH32 0xA98128DB00000000000000000000000000000000000000000000000000000000 DUP2 MSTORE PUSH1 0x4 ADD PUSH1 0x40 MLOAD DUP1 SWAP2 SUB SWAP1 REVERT JUMPDEST PUSH0 PUSH32 0x0 PUSH20 0xFFFFFFFFFFFFFFFFFFFFFFFFFFFFFFFFFFFFFFFF AND PUSH4 0x70A08231 ADDRESS PUSH1 0x40 MLOAD DUP3 PUSH4 0xFFFFFFFF AND PUSH1 0xE0 SHL DUP2 MSTORE PUSH1 0x4 ADD PUSH2 0xA52 SWAP2 SWAP1 PUSH2 0xF8B JUMP JUMPDEST PUSH1 0x20 PUSH1 0x40 MLOAD DUP1 DUP4 SUB DUP2 DUP7 GAS STATICCALL ISZERO DUP1 ISZERO PUSH2 0xA6D JUMPI RETURNDATASIZE PUSH0 PUSH0 RETURNDATACOPY RETURNDATASIZE PUSH0 REVERT JUMPDEST POP POP POP POP PUSH1 0x40 MLOAD RETURNDATASIZE PUSH1 0x1F NOT PUSH1 0x1F DUP3 ADD AND DUP3 ADD DUP1 PUSH1 0x40 MSTORE POP DUP2 ADD SWAP1 PUSH2 0xA91 SWAP2 SWAP1 PUSH2 0x1080 JUMP JUMPDEST SWAP1 POP PUSH0 PUSH1 0x64 DUP6 DUP4 PUSH2 0xAA2 SWAP2 SWAP1 PUSH2 0x10D8 JUMP JUMPDEST PUSH2 0xAAC SWAP2 SWAP1 PUSH2 0x1146 JUMP JUMPDEST SWAP1 POP PUSH1 0x40 MLOAD DUP1 PUSH1 0xA0 ADD PUSH1 0x40 MSTORE DUP1 DUP7 DUP2 MSTORE PUSH1 0x20 ADD DUP3 DUP2 MSTORE PUSH1 0x20 ADD DUP6 PUSH1 0x3 DUP2 GT ISZERO PUSH2 0xAD8 JUMPI PUSH2 0xAD7 PUSH2 0xDDC JUMP JUMPDEST JUMPDEST DUP2 MSTORE PUSH1 0x20 ADD PUSH0 DUP2 MSTORE PUSH1 0x20 ADD PUSH1 0x1 ISZERO ISZERO DUP2 MSTORE POP PUSH1 0x1 PUSH0 DUP9 PUSH20 0xFFFFFFFFFFFFFFFFFFFFFFFFFFFFFFFFFFFFFFFF AND PUSH20 0xFFFFFFFFFFFFFFFFFFFFFFFFFFFFFFFFFFFFFFFF AND DUP2 MSTORE PUSH1 0x20 ADD SWAP1 DUP2 MSTORE PUSH1 0x20 ADD PUSH0 KECCAK256 PUSH0 DUP3 ADD MLOAD DUP2 PUSH0 ADD SSTORE PUSH1 0x20 DUP3 ADD MLOAD DUP2 PUSH1 0x1 ADD SSTORE PUSH1 0x40 DUP3 ADD MLOAD DUP2 PUSH1 0x2 ADD PUSH0 PUSH2 0x100 EXP DUP2 SLOAD DUP2 PUSH1 0xFF MUL NOT AND SWAP1 DUP4 PUSH1 0x3 DUP2 GT ISZERO PUSH2 0xB63 JUMPI PUSH2 0xB62 PUSH2 0xDDC JUMP JUMPDEST JUMPDEST MUL OR SWAP1 SSTORE POP PUSH1 0x60 DUP3 ADD MLOAD DUP2 PUSH1 0x3 ADD SSTORE PUSH1 0x80 DUP3 ADD MLOAD DUP2 PUSH1 0x4 ADD PUSH0 PUSH2 0x100 EXP DUP2 SLOAD DUP2 PUSH1 0xFF MUL NOT AND SWAP1 DUP4 ISZERO ISZERO MUL OR SWAP1 SSTORE POP SWAP1 POP POP DUP3 PUSH0 DUP2 SWAP1 SSTORE POP PUSH1 0x2 DUP7 SWAP1 DUP1 PUSH1 0x1 DUP2 SLOAD ADD DUP1 DUP3 SSTORE DUP1 SWAP2 POP POP PUSH1 0x1 SWAP1 SUB SWAP1 PUSH0 MSTORE PUSH1 0x20 PUSH0 KECCAK256 ADD PUSH0 SWAP1 SWAP2 SWAP1 SWAP2 SWAP1 SWAP2 PUSH2 0x100 EXP DUP2 SLOAD DUP2 PUSH20 0xFFFFFFFFFFFFFFFFFFFFFFFFFFFFFFFFFFFFFFFF MUL NOT AND SWAP1 DUP4 PUSH20 0xFFFFFFFFFFFFFFFFFFFFFFFFFFFFFFFFFFFFFFFF AND MUL OR SWAP1 SSTORE POP POP POP POP POP POP POP JUMP JUMPDEST PUSH0 PUSH0 PUSH32 0x0 PUSH32 0x0 PUSH2 0xC50 SWAP2 SWAP1 PUSH2 0x11A9 JUMP JUMPDEST SWAP1 POP DUP1 TIMESTAMP LT ISZERO PUSH2 0xC63 JUMPI PUSH0 SWAP2 POP POP PUSH2 0xD36 JUMP JUMPDEST PUSH0 PUSH32 0x0 PUSH32 0x0 PUSH2 0xCB0 SWAP2 SWAP1 PUSH2 0x1176 JUMP JUMPDEST SWAP1 POP PUSH0 DUP3 TIMESTAMP PUSH2 0xCBF SWAP2 SWAP1 PUSH2 0x1176 JUMP JUMPDEST SWAP1 POP PUSH0 PUSH1 0x1 PUSH0 DUP8 PUSH20 0xFFFFFFFFFFFFFFFFFFFFFFFFFFFFFFFFFFFFFFFF AND PUSH20 0xFFFFFFFFFFFFFFFFFFFFFFFFFFFFFFFFFFFFFFFF AND DUP2 MSTORE PUSH1 0x20 ADD SWAP1 DUP2 MSTORE PUSH1 0x20 ADD PUSH0 KECCAK256 PUSH1 0x1 ADD SLOAD SWAP1 POP DUP3 DUP3 LT PUSH2 0xD18 JUMPI DUP1 SWAP5 POP POP POP POP POP PUSH2 0xD36 JUMP JUMPDEST DUP3 DUP3 DUP3 PUSH2 0xD25 SWAP2 SWAP1 PUSH2 0x10D8 JUMP JUMPDEST PUSH2 0xD2F SWAP2 SWAP1 PUSH2 0x1146 JUMP JUMPDEST SWAP5 POP POP POP POP POP JUMPDEST SWAP2 SWAP1 POP JUMP JUMPDEST PUSH0 PUSH0 REVERT JUMPDEST PUSH0 PUSH20 0xFFFFFFFFFFFFFFFFFFFFFFFFFFFFFFFFFFFFFFFF DUP3 AND SWAP1 POP SWAP2 SWAP1 POP JUMP JUMPDEST PUSH0 PUSH2 0xD68 DUP3 PUSH2 0xD3F JUMP JUMPDEST SWAP1 POP SWAP2 SWAP1 POP JUMP JUMPDEST PUSH2 0xD78 DUP2 PUSH2 0xD5E JUMP JUMPDEST DUP2 EQ PUSH2 0xD82 JUMPI PUSH0 PUSH0 REVERT JUMPDEST POP JUMP JUMPDEST PUSH0 DUP2 CALLDATALOAD SWAP1 POP PUSH2 0xD93 DUP2 PUSH2 0xD6F JUMP JUMPDEST SWAP3 SWAP2 POP POP JUMP JUMPDEST PUSH0 PUSH1 0x20 DUP3 DUP5 SUB SLT ISZERO PUSH2 0xDAE JUMPI PUSH2 0xDAD PUSH2 0xD3B JUMP JUMPDEST JUMPDEST PUSH0 PUSH2 0xDBB DUP5 DUP3 DUP6 ADD PUSH2 0xD85 JUMP JUMPDEST SWAP2 POP POP SWAP3 SWAP2 POP POP JUMP JUMPDEST PUSH0 DUP2 SWAP1 POP SWAP2 SWAP1 POP JUMP JUMPDEST PUSH2 0xDD6 DUP2 PUSH2 0xDC4 JUMP JUMPDEST DUP3 MSTORE POP POP JUMP JUMPDEST PUSH32 0x4E487B7100000000000000000000000000000000000000000000000000000000 PUSH0 MSTORE PUSH1 0x21 PUSH1 0x4 MSTORE PUSH1 0x24 PUSH0 REVERT JUMPDEST PUSH1 0x4 DUP2 LT PUSH2 0xE1A JUMPI PUSH2 0xE19 PUSH2 0xDDC JUMP JUMPDEST JUMPDEST POP JUMP JUMPDEST PUSH0 DUP2 SWAP1 POP PUSH2 0xE2A DUP3 PUSH2 0xE09 JUMP JUMPDEST SWAP2 SWAP1 POP JUMP JUMPDEST PUSH0 PUSH2 0xE39 DUP3 PUSH2 0xE1D JUMP JUMPDEST SWAP1 POP SWAP2 SWAP1 POP JUMP JUMPDEST PUSH2 0xE49 DUP2 PUSH2 0xE2F JUMP JUMPDEST DUP3 MSTORE POP POP JUMP JUMPDEST PUSH0 DUP2 ISZERO ISZERO SWAP1 POP SWAP2 SWAP1 POP JUMP JUMPDEST PUSH2 0xE63 DUP2 PUSH2 0xE4F JUMP JUMPDEST DUP3 MSTORE POP POP JUMP JUMPDEST PUSH0 PUSH1 0xA0 DUP3 ADD SWAP1 POP PUSH2 0xE7C PUSH0 DUP4 ADD DUP9 PUSH2 0xDCD JUMP JUMPDEST PUSH2 0xE89 PUSH1 0x20 DUP4 ADD DUP8 PUSH2 0xDCD JUMP JUMPDEST PUSH2 0xE96 PUSH1 0x40 DUP4 ADD DUP7 PUSH2 0xE40 JUMP JUMPDEST PUSH2 0xEA3 PUSH1 0x60 DUP4 ADD DUP6 PUSH2 0xDCD JUMP JUMPDEST PUSH2 0xEB0 PUSH1 0x80 DUP4 ADD DUP5 PUSH2 0xE5A JUMP JUMPDEST SWAP7 SWAP6 POP POP POP POP POP POP JUMP JUMPDEST PUSH0 PUSH1 0x20 DUP3 ADD SWAP1 POP PUSH2 0xECD PUSH0 DUP4 ADD DUP5 PUSH2 0xDCD JUMP JUMPDEST SWAP3 SWAP2 POP POP JUMP JUMPDEST PUSH0 PUSH1 0x60 DUP3 ADD SWAP1 POP PUSH2 0xEE6 PUSH0 DUP4 ADD DUP7 PUSH2 0xDCD JUMP JUMPDEST PUSH2 0xEF3 PUSH1 0x20 DUP4 ADD DUP6 PUSH2 0xE40 JUMP JUMPDEST PUSH2 0xF00 PUSH1 0x40 DUP4 ADD DUP5 PUSH2 0xDCD JUMP JUMPDEST SWAP5 SWAP4 POP POP POP POP JUMP JUMPDEST PUSH0 DUP2 SWAP1 POP SWAP2 SWAP1 POP JUMP JUMPDEST PUSH0 PUSH2 0xF2B PUSH2 0xF26 PUSH2 0xF21 DUP5 PUSH2 0xD3F JUMP JUMPDEST PUSH2 0xF08 JUMP JUMPDEST PUSH2 0xD3F JUMP JUMPDEST SWAP1 POP SWAP2 SWAP1 POP JUMP JUMPDEST PUSH0 PUSH2 0xF3C DUP3 PUSH2 0xF11 JUMP JUMPDEST SWAP1 POP SWAP2 SWAP1 POP JUMP JUMPDEST PUSH0 PUSH2 0xF4D DUP3 PUSH2 0xF32 JUMP JUMPDEST SWAP1 POP SWAP2 SWAP1 POP JUMP JUMPDEST PUSH2 0xF5D DUP2 PUSH2 0xF43 JUMP JUMPDEST DUP3 MSTORE POP POP JUMP JUMPDEST PUSH0 PUSH1 0x20 DUP3 ADD SWAP1 POP PUSH2 0xF76 PUSH0 DUP4 ADD DUP5 PUSH2 0xF54 JUMP JUMPDEST SWAP3 SWAP2 POP POP JUMP JUMPDEST PUSH2 0xF85 DUP2 PUSH2 0xD5E JUMP JUMPDEST DUP3 MSTORE POP POP JUMP JUMPDEST PUSH0 PUSH1 0x20 DUP3 ADD SWAP1 POP PUSH2 0xF9E PUSH0 DUP4 ADD DUP5 PUSH2 0xF7C JUMP JUMPDEST SWAP3 SWAP2 POP POP JUMP JUMPDEST PUSH2 0xFAD DUP2 PUSH2 0xDC4 JUMP JUMPDEST DUP2 EQ PUSH2 0xFB7 JUMPI PUSH0 PUSH0 REVERT JUMPDEST POP JUMP JUMPDEST PUSH0 DUP2 CALLDATALOAD SWAP1 POP PUSH2 0xFC8 DUP2 PUSH2 0xFA4 JUMP JUMPDEST SWAP3 SWAP2 POP POP JUMP JUMPDEST PUSH0 PUSH1 0x20 DUP3 DUP5 SUB SLT ISZERO PUSH2 0xFE3 JUMPI PUSH2 0xFE2 PUSH2 0xD3B JUMP JUMPDEST JUMPDEST PUSH0 PUSH2 0xFF0 DUP5 DUP3 DUP6 ADD PUSH2 0xFBA JUMP JUMPDEST SWAP2 POP POP SWAP3 SWAP2 POP POP JUMP JUMPDEST PUSH1 0x4 DUP2 LT PUSH2 0x1005 JUMPI PUSH0 PUSH0 REVERT JUMPDEST POP JUMP JUMPDEST PUSH0 DUP2 CALLDATALOAD SWAP1 POP PUSH2 0x1016 DUP2 PUSH2 0xFF9 JUMP JUMPDEST SWAP3 SWAP2 POP POP JUMP JUMPDEST PUSH0 PUSH0 PUSH0 PUSH1 0x60 DUP5 DUP7 SUB SLT ISZERO PUSH2 0x1033 JUMPI PUSH2 0x1032 PUSH2 0xD3B JUMP JUMPDEST JUMPDEST PUSH0 PUSH2 0x1040 DUP7 DUP3 DUP8 ADD PUSH2 0xD85 JUMP JUMPDEST SWAP4 POP POP PUSH1 0x20 PUSH2 0x1051 DUP7 DUP3 DUP8 ADD PUSH2 0xFBA JUMP JUMPDEST SWAP3 POP POP PUSH1 0x40 PUSH2 0x1062 DUP7 DUP3 DUP8 ADD PUSH2 0x1008 JUMP JUMPDEST SWAP2 POP POP SWAP3 POP SWAP3 POP SWAP3 JUMP JUMPDEST PUSH0 DUP2 MLOAD SWAP1 POP PUSH2 0x107A DUP2 PUSH2 0xFA4 JUMP JUMPDEST SWAP3 SWAP2 POP POP JUMP JUMPDEST PUSH0 PUSH1 0x20 DUP3 DUP5 SUB SLT ISZERO PUSH2 0x1095 JUMPI PUSH2 0x1094 PUSH2 0xD3B JUMP JUMPDEST JUMPDEST PUSH0 PUSH2 0x10A2 DUP5 DUP3 DUP6 ADD PUSH2 0x106C JUMP JUMPDEST SWAP2 POP POP SWAP3 SWAP2 POP POP JUMP JUMPDEST PUSH32 0x4E487B7100000000000000000000000000000000000000000000000000000000 PUSH0 MSTORE PUSH1 0x11 PUSH1 0x4 MSTORE PUSH1 0x24 PUSH0 REVERT JUMPDEST PUSH0 PUSH2 0x10E2 DUP3 PUSH2 0xDC4 JUMP JUMPDEST SWAP2 POP PUSH2 0x10ED DUP4 PUSH2 0xDC4 JUMP JUMPDEST SWAP3 POP DUP3 DUP3 MUL PUSH2 0x10FB DUP2 PUSH2 0xDC4 JUMP JUMPDEST SWAP2 POP DUP3 DUP3 DIV DUP5 EQ DUP4 ISZERO OR PUSH2 0x1112 JUMPI PUSH2 0x1111 PUSH2 0x10AB JUMP JUMPDEST JUMPDEST POP SWAP3 SWAP2 POP POP JUMP JUMPDEST PUSH32 0x4E487B7100000000000000000000000000000000000000000000000000000000 PUSH0 MSTORE PUSH1 0x12 PUSH1 0x4 MSTORE PUSH1 0x24 PUSH0 REVERT JUMPDEST PUSH0 PUSH2 0x1150 DUP3 PUSH2 0xDC4 JUMP JUMPDEST SWAP2 POP PUSH2 0x115B DUP4 PUSH2 0xDC4 JUMP JUMPDEST SWAP3 POP DUP3 PUSH2 0x116B JUMPI PUSH2 0x116A PUSH2 0x1119 JUMP JUMPDEST JUMPDEST DUP3 DUP3 DIV SWAP1 POP SWAP3 SWAP2 POP POP JUMP JUMPDEST PUSH0 PUSH2 0x1180 DUP3 PUSH2 0xDC4 JUMP JUMPDEST SWAP2 POP PUSH2 0x118B DUP4 PUSH2 0xDC4 JUMP JUMPDEST SWAP3 POP DUP3 DUP3 SUB SWAP1 POP DUP2 DUP2 GT ISZERO PUSH2 0x11A3 JUMPI PUSH2 0x11A2 PUSH2 0x10AB JUMP JUMPDEST JUMPDEST SWAP3 SWAP2 POP POP JUMP JUMPDEST PUSH0 PUSH2 0x11B3 DUP3 PUSH2 0xDC4 JUMP JUMPDEST SWAP2 POP PUSH2 0x11BE DUP4 PUSH2 0xDC4 JUMP JUMPDEST SWAP3 POP DUP3 DUP3 ADD SWAP1 POP DUP1 DUP3 GT ISZERO PUSH2 0x11D6 JUMPI PUSH2 0x11D5 PUSH2 0x10AB JUMP JUMPDEST JUMPDEST SWAP3 SWAP2 POP POP JUMP JUMPDEST PUSH0 PUSH1 0x40 DUP3 ADD SWAP1 POP PUSH2 0x11EF PUSH0 DUP4 ADD DUP6 PUSH2 0xF7C JUMP JUMPDEST PUSH2 0x11FC PUSH1 0x20 DUP4 ADD DUP5 PUSH2 0xDCD JUMP JUMPDEST SWAP4 SWAP3 POP POP POP JUMP JUMPDEST PUSH2 0x120C DUP2 PUSH2 0xE4F JUMP JUMPDEST DUP2 EQ PUSH2 0x1216 JUMPI PUSH0 PUSH0 REVERT JUMPDEST POP JUMP JUMPDEST PUSH0 DUP2 MLOAD SWAP1 POP PUSH2 0x1227 DUP2 PUSH2 0x1203 JUMP JUMPDEST SWAP3 SWAP2 POP POP JUMP JUMPDEST PUSH0 PUSH1 0x20 DUP3 DUP5 SUB SLT ISZERO PUSH2 0x1242 JUMPI PUSH2 0x1241 PUSH2 0xD3B JUMP JUMPDEST JUMPDEST PUSH0 PUSH2 0x124F DUP5 DUP3 DUP6 ADD PUSH2 0x1219 JUMP JUMPDEST SWAP2 POP POP SWAP3 SWAP2 POP POP JUMP JUMPDEST PUSH0 DUP3 DUP3 MSTORE PUSH1 0x20 DUP3 ADD SWAP1 POP SWAP3 SWAP2 POP POP JUMP JUMPDEST PUSH32 0x4E6F74204F776E65720000000000000000000000000000000000000000000000 PUSH0 DUP3 ADD MSTORE POP JUMP JUMPDEST PUSH0 PUSH2 0x129C PUSH1 0x9 DUP4 PUSH2 0x1258 JUMP JUMPDEST SWAP2 POP PUSH2 0x12A7 DUP3 PUSH2 0x1268 JUMP JUMPDEST PUSH1 0x20 DUP3 ADD SWAP1 POP SWAP2 SWAP1 POP JUMP JUMPDEST PUSH0 PUSH1 0x20 DUP3 ADD SWAP1 POP DUP2 DUP2 SUB PUSH0 DUP4 ADD MSTORE PUSH2 0x12C9 DUP2 PUSH2 0x1290 JUMP JUMPDEST SWAP1 POP SWAP2 SWAP1 POP JUMP INVALID LOG2 PUSH5 0x6970667358 0x22 SLT KECCAK256 0xEF RETURN 0x2F 0xC5 DUP3 0xED 0xCA RJUMPI 0x8D53 SWAP10 0xC5 CREATE PUSH30 0xCB3800312A206606527ACEBD509A204B2A7164736F6C634300081E003300 "
				},
				"gasEstimates": {
					"creation": {
						"codeDepositCost": "974000",
						"executionCost": "infinite",
						"totalCost": "infinite"
					},
					"external": {
						"addBeneficiary(address,uint256,uint8)": "infinite",
						"allBeneficiaries(uint256)": "4988",
						"beneficiaries(address)": "infinite",
						"claim()": "infinite",
						"getBeneficiary(address)": "infinite",
						"getBeneficiaryTotalAllocation(address)": "infinite",
						"getTotalVestedPercent()": "2497",
						"i_cliff()": "infinite",
						"i_duration()": "infinite",
						"i_owner()": "infinite",
						"i_startTime()": "infinite",
						"i_token()": "infinite",
						"percentShareAssign()": "2491"
					},
					"internal": {
						"getVestedAmount(address)": "infinite"
					}
				},
				"methodIdentifiers": {
					"addBeneficiary(address,uint256,uint8)": "ffd161f1",
					"allBeneficiaries(uint256)": "ec004cd0",
					"beneficiaries(address)": "01567739",
					"claim()": "4e71d92d",
					"getBeneficiary(address)": "505a1b31",
					"getBeneficiaryTotalAllocation(address)": "0b1665ae",
					"getTotalVestedPercent()": "ffd1360e",
					"i_cliff()": "73863a3f",
					"i_duration()": "4eafd241",
					"i_owner()": "dba6335f",
					"i_startTime()": "16bc8977",
					"i_token()": "9608b232",
					"percentShareAssign()": "a8b5b942"
				}
			},
			"storageLayout": {
				"storage": [
					{
						"astId": 124,
						"contract": "contracts/vesting.sol:VestingToken",
						"label": "percentShareAssign",
						"offset": 0,
						"slot": "0",
						"type": "t_uint256"
					},
					{
						"astId": 146,
						"contract": "contracts/vesting.sol:VestingToken",
						"label": "beneficiaries",
						"offset": 0,
						"slot": "1",
						"type": "t_mapping(t_address,t_struct(Beneficiary)136_storage)"
					},
					{
						"astId": 149,
						"contract": "contracts/vesting.sol:VestingToken",
						"label": "allBeneficiaries",
						"offset": 0,
						"slot": "2",
						"type": "t_array(t_address)dyn_storage"
					}
				],
				"types": {
					"t_address": {
						"encoding": "inplace",
						"label": "address",
						"numberOfBytes": "20"
					},
					"t_array(t_address)dyn_storage": {
						"base": "t_address",
						"encoding": "dynamic_array",
						"label": "address[]",
						"numberOfBytes": "32"
					},
					"t_bool": {
						"encoding": "inplace",
						"label": "bool",
						"numberOfBytes": "1"
					},
					"t_enum(Role)141": {
						"encoding": "inplace",
						"label": "enum VestingToken.Role",
						"numberOfBytes": "1"
					},
					"t_mapping(t_address,t_struct(Beneficiary)136_storage)": {
						"encoding": "mapping",
						"key": "t_address",
						"label": "mapping(address => struct VestingToken.Beneficiary)",
						"numberOfBytes": "32",
						"value": "t_struct(Beneficiary)136_storage"
					},
					"t_struct(Beneficiary)136_storage": {
						"encoding": "inplace",
						"label": "struct VestingToken.Beneficiary",
						"members": [
							{
								"astId": 126,
								"contract": "contracts/vesting.sol:VestingToken",
								"label": "percentShare",
								"offset": 0,
								"slot": "0",
								"type": "t_uint256"
							},
							{
								"astId": 128,
								"contract": "contracts/vesting.sol:VestingToken",
								"label": "allocation",
								"offset": 0,
								"slot": "1",
								"type": "t_uint256"
							},
							{
								"astId": 131,
								"contract": "contracts/vesting.sol:VestingToken",
								"label": "role",
								"offset": 0,
								"slot": "2",
								"type": "t_enum(Role)141"
							},
							{
								"astId": 133,
								"contract": "contracts/vesting.sol:VestingToken",
								"label": "claimed",
								"offset": 0,
								"slot": "3",
								"type": "t_uint256"
							},
							{
								"astId": 135,
								"contract": "contracts/vesting.sol:VestingToken",
								"label": "exists",
								"offset": 0,
								"slot": "4",
								"type": "t_bool"
							}
						],
						"numberOfBytes": "160"
					},
					"t_uint256": {
						"encoding": "inplace",
						"label": "uint256",
						"numberOfBytes": "32"
					}
				}
			},
			"userdoc": {
				"kind": "user",
				"methods": {},
				"version": 1
			}
		}
	}
}