{
	"contracts/demo.sol": {
		"Demo": {
			"abi": [
				{
					"inputs": [],
					"name": "cann",
					"type": "error"
				},
				{
					"inputs": [],
					"name": "invalidlength",
					"type": "error"
				},
				{
					"inputs": [
						{
							"internalType": "uint256[]",
							"name": "_amount",
							"type": "uint256[]"
						}
					],
					"name": "add",
					"outputs": [],
					"stateMutability": "nonpayable",
					"type": "function"
				},
				{
					"inputs": [
						{
							"internalType": "uint256",
							"name": "_jobid",
							"type": "uint256"
						}
					],
					"name": "getjob",
					"outputs": [
						{
							"components": [
								{
									"internalType": "uint256",
									"name": "amount",
									"type": "uint256"
								},
								{
									"internalType": "bool",
									"name": "paid",
									"type": "bool"
								},
								{
									"internalType": "enum Demo.MileStatus",
									"name": "milesta",
									"type": "uint8"
								}
							],
							"internalType": "struct Demo.MileStone[]",
							"name": "",
							"type": "tuple[]"
						}
					],
					"stateMutability": "view",
					"type": "function"
				},
				{
					"inputs": [
						{
							"internalType": "uint256",
							"name": "",
							"type": "uint256"
						}
					],
					"name": "jobs",
					"outputs": [
						{
							"internalType": "uint256",
							"name": "id",
							"type": "uint256"
						}
					],
					"stateMutability": "view",
					"type": "function"
				},
				{
					"inputs": [
						{
							"internalType": "uint256",
							"name": "id",
							"type": "uint256"
						},
						{
							"internalType": "uint256",
							"name": "mileId",
							"type": "uint256"
						}
					],
					"name": "submitMilestone",
					"outputs": [],
					"stateMutability": "nonpayable",
					"type": "function"
				}
			],
			"devdoc": {
				"kind": "dev",
				"methods": {},
				"version": 1
			},
			"evm": {
				"assembly": "    /* \"contracts/demo.sol\":102:1469  contract Demo{... */\n  mstore(0x40, 0x80)\n  callvalue\n  dup1\n  iszero\n  tag_1\n  jumpi\n  revert(0x00, 0x00)\ntag_1:\n  pop\n  dataSize(sub_0)\n  dup1\n  dataOffset(sub_0)\n  0x00\n  codecopy\n  0x00\n  return\nstop\n\nsub_0: assembly {\n        /* \"contracts/demo.sol\":102:1469  contract Demo{... */\n      mstore(0x40, 0x80)\n      callvalue\n      dup1\n      iszero\n      tag_1\n      jumpi\n      revert(0x00, 0x00)\n    tag_1:\n      pop\n      jumpi(tag_2, lt(calldatasize, 0x04))\n      shr(0xe0, calldataload(0x00))\n      dup1\n      0x0875b784\n      eq\n      tag_3\n      jumpi\n      dup1\n      0x10b0b5d5\n      eq\n      tag_4\n      jumpi\n      dup1\n      0x180aedf3\n      eq\n      tag_5\n      jumpi\n      dup1\n      0x65c498ab\n      eq\n      tag_6\n      jumpi\n    tag_2:\n      revert(0x00, 0x00)\n        /* \"contracts/demo.sol\":586:929  function submitMilestone(uint256 id, uint256 mileId) external {... */\n    tag_3:\n      tag_7\n      0x04\n      dup1\n      calldatasize\n      sub\n      dup2\n      add\n      swap1\n      tag_8\n      swap2\n      swap1\n      tag_9\n      jump\t// in\n    tag_8:\n      tag_10\n      jump\t// in\n    tag_7:\n      stop\n        /* \"contracts/demo.sol\":939:1466  function add(uint256[] memory _amount) external {... */\n    tag_4:\n      tag_11\n      0x04\n      dup1\n      calldatasize\n      sub\n      dup2\n      add\n      swap1\n      tag_12\n      swap2\n      swap1\n      tag_13\n      jump\t// in\n    tag_12:\n      tag_14\n      jump\t// in\n    tag_11:\n      stop\n        /* \"contracts/demo.sol\":410:446  mapping (uint256 => Job) public jobs */\n    tag_5:\n      tag_15\n      0x04\n      dup1\n      calldatasize\n      sub\n      dup2\n      add\n      swap1\n      tag_16\n      swap2\n      swap1\n      tag_17\n      jump\t// in\n    tag_16:\n      tag_18\n      jump\t// in\n    tag_15:\n      mload(0x40)\n      tag_19\n      swap2\n      swap1\n      tag_20\n      jump\t// in\n    tag_19:\n      mload(0x40)\n      dup1\n      swap2\n      sub\n      swap1\n      return\n        /* \"contracts/demo.sol\":455:578  function getjob(uint256 _jobid) public view returns (MileStone [] memory){... */\n    tag_6:\n      tag_21\n      0x04\n      dup1\n      calldatasize\n      sub\n      dup2\n      add\n      swap1\n      tag_22\n      swap2\n      swap1\n      tag_17\n      jump\t// in\n    tag_22:\n      tag_23\n      jump\t// in\n    tag_21:\n      mload(0x40)\n      tag_24\n      swap2\n      swap1\n      tag_25\n      jump\t// in\n    tag_24:\n      mload(0x40)\n      dup1\n      swap2\n      sub\n      swap1\n      return\n        /* \"contracts/demo.sol\":586:929  function submitMilestone(uint256 id, uint256 mileId) external {... */\n    tag_10:\n        /* \"contracts/demo.sol\":659:675  Job storage _job */\n      0x00\n        /* \"contracts/demo.sol\":678:682  jobs */\n      0x01\n        /* \"contracts/demo.sol\":678:686  jobs[id] */\n      0x00\n        /* \"contracts/demo.sol\":683:685  id */\n      dup5\n        /* \"contracts/demo.sol\":678:686  jobs[id] */\n      dup2\n      mstore\n      0x20\n      add\n      swap1\n      dup2\n      mstore\n      0x20\n      add\n      0x00\n      keccak256\n        /* \"contracts/demo.sol\":659:686  Job storage _job = jobs[id] */\n      swap1\n      pop\n        /* \"contracts/demo.sol\":709:713  _job */\n      dup1\n        /* \"contracts/demo.sol\":709:724  _job.milestones */\n      0x01\n      add\n        /* \"contracts/demo.sol\":709:731  _job.milestones.length */\n      dup1\n      sload\n      swap1\n      pop\n        /* \"contracts/demo.sol\":700:706  mileId */\n      dup3\n        /* \"contracts/demo.sol\":700:731  mileId > _job.milestones.length */\n      gt\n        /* \"contracts/demo.sol\":697:755  if(mileId > _job.milestones.length) revert invalidlength() */\n      iszero\n      tag_27\n      jumpi\n        /* \"contracts/demo.sol\":740:755  invalidlength() */\n      mload(0x40)\n      0x25918a0e00000000000000000000000000000000000000000000000000000000\n      dup2\n      mstore\n      0x04\n      add\n      mload(0x40)\n      dup1\n      swap2\n      sub\n      swap1\n      revert\n        /* \"contracts/demo.sol\":697:755  if(mileId > _job.milestones.length) revert invalidlength() */\n    tag_27:\n        /* \"contracts/demo.sol\":768:788  MileStone storage _m */\n      0x00\n        /* \"contracts/demo.sol\":791:795  _job */\n      dup2\n        /* \"contracts/demo.sol\":791:806  _job.milestones */\n      0x01\n      add\n        /* \"contracts/demo.sol\":807:813  mileId */\n      dup4\n        /* \"contracts/demo.sol\":791:814  _job.milestones[mileId] */\n      dup2\n      sload\n      dup2\n      lt\n      tag_28\n      jumpi\n      tag_29\n      tag_30\n      jump\t// in\n    tag_29:\n    tag_28:\n      swap1\n      0x00\n      mstore\n      keccak256(0x00, 0x20)\n      swap1\n      0x02\n      mul\n      add\n        /* \"contracts/demo.sol\":768:814  MileStone storage _m = _job.milestones[mileId] */\n      swap1\n      pop\n        /* \"contracts/demo.sol\":844:859  MileStatus.OPen */\n      0x00\n        /* \"contracts/demo.sol\":830:859  _m.milesta != MileStatus.OPen */\n      0x02\n      dup2\n      gt\n      iszero\n      tag_32\n      jumpi\n      tag_33\n      tag_34\n      jump\t// in\n    tag_33:\n    tag_32:\n        /* \"contracts/demo.sol\":830:832  _m */\n      dup2\n        /* \"contracts/demo.sol\":830:840  _m.milesta */\n      0x01\n      add\n      0x01\n      swap1\n      sload\n      swap1\n      0x0100\n      exp\n      swap1\n      div\n      0xff\n      and\n        /* \"contracts/demo.sol\":830:859  _m.milesta != MileStatus.OPen */\n      0x02\n      dup2\n      gt\n      iszero\n      tag_35\n      jumpi\n      tag_36\n      tag_34\n      jump\t// in\n    tag_36:\n    tag_35:\n      eq\n        /* \"contracts/demo.sol\":827:874  if(_m.milesta != MileStatus.OPen) revert cann() */\n      tag_37\n      jumpi\n        /* \"contracts/demo.sol\":868:874  cann() */\n      mload(0x40)\n      0x2c8adbf400000000000000000000000000000000000000000000000000000000\n      dup2\n      mstore\n      0x04\n      add\n      mload(0x40)\n      dup1\n      swap2\n      sub\n      swap1\n      revert\n        /* \"contracts/demo.sol\":827:874  if(_m.milesta != MileStatus.OPen) revert cann() */\n    tag_37:\n        /* \"contracts/demo.sol\":900:919  MileStatus.progress */\n      0x02\n        /* \"contracts/demo.sol\":887:889  _m */\n      dup2\n        /* \"contracts/demo.sol\":887:897  _m.milesta */\n      0x01\n      add\n      0x01\n        /* \"contracts/demo.sol\":887:919  _m.milesta = MileStatus.progress */\n      0x0100\n      exp\n      dup2\n      sload\n      dup2\n      0xff\n      mul\n      not\n      and\n      swap1\n      dup4\n      0x02\n      dup2\n      gt\n      iszero\n      tag_38\n      jumpi\n      tag_39\n      tag_34\n      jump\t// in\n    tag_39:\n    tag_38:\n      mul\n      or\n      swap1\n      sstore\n      pop\n        /* \"contracts/demo.sol\":648:929  {... */\n      pop\n      pop\n        /* \"contracts/demo.sol\":586:929  function submitMilestone(uint256 id, uint256 mileId) external {... */\n      pop\n      pop\n      jump\t// out\n        /* \"contracts/demo.sol\":939:1466  function add(uint256[] memory _amount) external {... */\n    tag_14:\n        /* \"contracts/demo.sol\":999:1012  uint256 count */\n      0x00\n        /* \"contracts/demo.sol\":1015:1022  _amount */\n      dup2\n        /* \"contracts/demo.sol\":1015:1029  _amount.length */\n      mload\n        /* \"contracts/demo.sol\":999:1029  uint256 count = _amount.length */\n      swap1\n      pop\n        /* \"contracts/demo.sol\":1048:1064  Job storage _job */\n      0x00\n        /* \"contracts/demo.sol\":1067:1071  jobs */\n      0x01\n        /* \"contracts/demo.sol\":1067:1078  jobs[jobId] */\n      0x00\n        /* \"contracts/demo.sol\":1072:1077  jobId */\n      sload(0x00)\n        /* \"contracts/demo.sol\":1067:1078  jobs[jobId] */\n      dup2\n      mstore\n      0x20\n      add\n      swap1\n      dup2\n      mstore\n      0x20\n      add\n      0x00\n      keccak256\n        /* \"contracts/demo.sol\":1048:1078  Job storage _job = jobs[jobId] */\n      swap1\n      pop\n        /* \"contracts/demo.sol\":1101:1106  jobId */\n      sload(0x00)\n        /* \"contracts/demo.sol\":1091:1095  _job */\n      dup2\n        /* \"contracts/demo.sol\":1091:1098  _job.id */\n      0x00\n      add\n        /* \"contracts/demo.sol\":1091:1106  _job.id = jobId */\n      dup2\n      swap1\n      sstore\n      pop\n        /* \"contracts/demo.sol\":1132:1141  uint256 i */\n      0x00\n        /* \"contracts/demo.sol\":1143:1144  0 */\n      0x00\n        /* \"contracts/demo.sol\":1132:1144  uint256 i =0 */\n      swap1\n      pop\n        /* \"contracts/demo.sol\":1128:1457  for(uint256 i =0; i < count;){... */\n    tag_41:\n        /* \"contracts/demo.sol\":1150:1155  count */\n      dup3\n        /* \"contracts/demo.sol\":1146:1147  i */\n      dup2\n        /* \"contracts/demo.sol\":1146:1155  i < count */\n      lt\n        /* \"contracts/demo.sol\":1128:1457  for(uint256 i =0; i < count;){... */\n      iszero\n      tag_42\n      jumpi\n        /* \"contracts/demo.sol\":1187:1191  _job */\n      dup2\n        /* \"contracts/demo.sol\":1187:1202  _job.milestones */\n      0x01\n      add\n        /* \"contracts/demo.sol\":1208:1400  MileStone({... */\n      mload(0x40)\n      dup1\n      0x60\n      add\n      0x40\n      mstore\n      dup1\n        /* \"contracts/demo.sol\":1245:1252  _amount */\n      dup7\n        /* \"contracts/demo.sol\":1253:1254  i */\n      dup5\n        /* \"contracts/demo.sol\":1245:1255  _amount[i] */\n      dup2\n      mload\n      dup2\n      lt\n      tag_44\n      jumpi\n      tag_45\n      tag_30\n      jump\t// in\n    tag_45:\n    tag_44:\n      0x20\n      mul\n      0x20\n      add\n      add\n      mload\n        /* \"contracts/demo.sol\":1208:1400  MileStone({... */\n      dup2\n      mstore\n      0x20\n      add\n        /* \"contracts/demo.sol\":1318:1323  false */\n      0x00\n        /* \"contracts/demo.sol\":1208:1400  MileStone({... */\n      iszero\n      iszero\n      dup2\n      mstore\n      0x20\n      add\n        /* \"contracts/demo.sol\":1351:1366  MileStatus.OPen */\n      0x00\n        /* \"contracts/demo.sol\":1208:1400  MileStone({... */\n      0x02\n      dup2\n      gt\n      iszero\n      tag_46\n      jumpi\n      tag_47\n      tag_34\n      jump\t// in\n    tag_47:\n    tag_46:\n      dup2\n      mstore\n      pop\n        /* \"contracts/demo.sol\":1187:1401  _job.milestones.push(MileStone({... */\n      swap1\n      dup1\n      0x01\n      dup2\n      sload\n      add\n      dup1\n      dup3\n      sstore\n      dup1\n      swap2\n      pop\n      pop\n      0x01\n      swap1\n      sub\n      swap1\n      0x00\n      mstore\n      keccak256(0x00, 0x20)\n      swap1\n      0x02\n      mul\n      add\n      0x00\n      swap1\n      swap2\n      swap1\n      swap2\n      swap1\n      swap2\n      pop\n      0x00\n      dup3\n      add\n      mload\n      dup2\n      0x00\n      add\n      sstore\n      0x20\n      dup3\n      add\n      mload\n      dup2\n      0x01\n      add\n      exp(0x0100, 0x00)\n      dup2\n      sload\n      dup2\n      0xff\n      mul\n      not\n      and\n      swap1\n      dup4\n      iszero\n      iszero\n      mul\n      or\n      swap1\n      sstore\n      pop\n      0x40\n      dup3\n      add\n      mload\n      dup2\n      0x01\n      add\n      exp(0x0100, 0x01)\n      dup2\n      sload\n      dup2\n      0xff\n      mul\n      not\n      and\n      swap1\n      dup4\n      0x02\n      dup2\n      gt\n      iszero\n      tag_49\n      jumpi\n      tag_50\n      tag_34\n      jump\t// in\n    tag_50:\n    tag_49:\n      mul\n      or\n      swap1\n      sstore\n      pop\n      pop\n      pop\n        /* \"contracts/demo.sol\":1441:1444  i++ */\n      dup1\n      dup1\n      0x01\n      add\n      swap2\n      pop\n      pop\n        /* \"contracts/demo.sol\":1128:1457  for(uint256 i =0; i < count;){... */\n      jump(tag_41)\n    tag_42:\n      pop\n        /* \"contracts/demo.sol\":987:1466  {... */\n      pop\n      pop\n        /* \"contracts/demo.sol\":939:1466  function add(uint256[] memory _amount) external {... */\n      pop\n      jump\t// out\n        /* \"contracts/demo.sol\":410:446  mapping (uint256 => Job) public jobs */\n    tag_18:\n      mstore(0x20, 0x01)\n      dup1\n      0x00\n      mstore\n      keccak256(0x00, 0x40)\n      0x00\n      swap2\n      pop\n      swap1\n      pop\n      dup1\n      0x00\n      add\n      sload\n      swap1\n      pop\n      dup2\n      jump\t// out\n        /* \"contracts/demo.sol\":455:578  function getjob(uint256 _jobid) public view returns (MileStone [] memory){... */\n    tag_23:\n        /* \"contracts/demo.sol\":508:527  MileStone [] memory */\n      0x60\n        /* \"contracts/demo.sol\":547:551  jobs */\n      0x01\n        /* \"contracts/demo.sol\":547:559  jobs[_jobid] */\n      0x00\n        /* \"contracts/demo.sol\":552:558  _jobid */\n      dup4\n        /* \"contracts/demo.sol\":547:559  jobs[_jobid] */\n      dup2\n      mstore\n      0x20\n      add\n      swap1\n      dup2\n      mstore\n      0x20\n      add\n      0x00\n      keccak256\n        /* \"contracts/demo.sol\":547:570  jobs[_jobid].milestones */\n      0x01\n      add\n        /* \"contracts/demo.sol\":539:570  return  jobs[_jobid].milestones */\n      dup1\n      sload\n      dup1\n      0x20\n      mul\n      0x20\n      add\n      mload(0x40)\n      swap1\n      dup2\n      add\n      0x40\n      mstore\n      dup1\n      swap3\n      swap2\n      swap1\n      dup2\n      dup2\n      mstore\n      0x20\n      add\n      0x00\n      swap1\n    tag_52:\n      dup3\n      dup3\n      lt\n      iszero\n      tag_53\n      jumpi\n      dup4\n      dup3\n      swap1\n      0x00\n      mstore\n      keccak256(0x00, 0x20)\n      swap1\n      0x02\n      mul\n      add\n      mload(0x40)\n      dup1\n      0x60\n      add\n      0x40\n      mstore\n      swap1\n      dup2\n      0x00\n      dup3\n      add\n      sload\n      dup2\n      mstore\n      0x20\n      add\n      0x01\n      dup3\n      add\n      0x00\n      swap1\n      sload\n      swap1\n      0x0100\n      exp\n      swap1\n      div\n      0xff\n      and\n      iszero\n      iszero\n      iszero\n      iszero\n      dup2\n      mstore\n      0x20\n      add\n      0x01\n      dup3\n      add\n      0x01\n      swap1\n      sload\n      swap1\n      0x0100\n      exp\n      swap1\n      div\n      0xff\n      and\n      0x02\n      dup2\n      gt\n      iszero\n      tag_55\n      jumpi\n      tag_56\n      tag_34\n      jump\t// in\n    tag_56:\n    tag_55:\n      0x02\n      dup2\n      gt\n      iszero\n      tag_57\n      jumpi\n      tag_58\n      tag_34\n      jump\t// in\n    tag_58:\n    tag_57:\n      dup2\n      mstore\n      pop\n      pop\n      dup2\n      mstore\n      0x20\n      add\n      swap1\n      0x01\n      add\n      swap1\n      jump(tag_52)\n    tag_53:\n      pop\n      pop\n      pop\n      pop\n      swap1\n      pop\n        /* \"contracts/demo.sol\":455:578  function getjob(uint256 _jobid) public view returns (MileStone [] memory){... */\n      swap2\n      swap1\n      pop\n      jump\t// out\n        /* \"#utility.yul\":7:82   */\n    tag_59:\n        /* \"#utility.yul\":40:46   */\n      0x00\n        /* \"#utility.yul\":73:75   */\n      0x40\n        /* \"#utility.yul\":67:76   */\n      mload\n        /* \"#utility.yul\":57:76   */\n      swap1\n      pop\n        /* \"#utility.yul\":7:82   */\n      swap1\n      jump\t// out\n        /* \"#utility.yul\":88:205   */\n    tag_60:\n        /* \"#utility.yul\":197:198   */\n      0x00\n        /* \"#utility.yul\":194:195   */\n      0x00\n        /* \"#utility.yul\":187:199   */\n      revert\n        /* \"#utility.yul\":211:328   */\n    tag_61:\n        /* \"#utility.yul\":320:321   */\n      0x00\n        /* \"#utility.yul\":317:318   */\n      0x00\n        /* \"#utility.yul\":310:322   */\n      revert\n        /* \"#utility.yul\":334:411   */\n    tag_62:\n        /* \"#utility.yul\":371:378   */\n      0x00\n        /* \"#utility.yul\":400:405   */\n      dup2\n        /* \"#utility.yul\":389:405   */\n      swap1\n      pop\n        /* \"#utility.yul\":334:411   */\n      swap2\n      swap1\n      pop\n      jump\t// out\n        /* \"#utility.yul\":417:539   */\n    tag_63:\n        /* \"#utility.yul\":490:514   */\n      tag_95\n        /* \"#utility.yul\":508:513   */\n      dup2\n        /* \"#utility.yul\":490:514   */\n      tag_62\n      jump\t// in\n    tag_95:\n        /* \"#utility.yul\":483:488   */\n      dup2\n        /* \"#utility.yul\":480:515   */\n      eq\n        /* \"#utility.yul\":470:533   */\n      tag_96\n      jumpi\n        /* \"#utility.yul\":529:530   */\n      0x00\n        /* \"#utility.yul\":526:527   */\n      0x00\n        /* \"#utility.yul\":519:531   */\n      revert\n        /* \"#utility.yul\":470:533   */\n    tag_96:\n        /* \"#utility.yul\":417:539   */\n      pop\n      jump\t// out\n        /* \"#utility.yul\":545:684   */\n    tag_64:\n        /* \"#utility.yul\":591:596   */\n      0x00\n        /* \"#utility.yul\":629:635   */\n      dup2\n        /* \"#utility.yul\":616:636   */\n      calldataload\n        /* \"#utility.yul\":607:636   */\n      swap1\n      pop\n        /* \"#utility.yul\":645:678   */\n      tag_98\n        /* \"#utility.yul\":672:677   */\n      dup2\n        /* \"#utility.yul\":645:678   */\n      tag_63\n      jump\t// in\n    tag_98:\n        /* \"#utility.yul\":545:684   */\n      swap3\n      swap2\n      pop\n      pop\n      jump\t// out\n        /* \"#utility.yul\":690:1164   */\n    tag_9:\n        /* \"#utility.yul\":758:764   */\n      0x00\n        /* \"#utility.yul\":766:772   */\n      0x00\n        /* \"#utility.yul\":815:817   */\n      0x40\n        /* \"#utility.yul\":803:812   */\n      dup4\n        /* \"#utility.yul\":794:801   */\n      dup6\n        /* \"#utility.yul\":790:813   */\n      sub\n        /* \"#utility.yul\":786:818   */\n      slt\n        /* \"#utility.yul\":783:902   */\n      iszero\n      tag_100\n      jumpi\n        /* \"#utility.yul\":821:900   */\n      tag_101\n      tag_60\n      jump\t// in\n    tag_101:\n        /* \"#utility.yul\":783:902   */\n    tag_100:\n        /* \"#utility.yul\":941:942   */\n      0x00\n        /* \"#utility.yul\":966:1019   */\n      tag_102\n        /* \"#utility.yul\":1011:1018   */\n      dup6\n        /* \"#utility.yul\":1002:1008   */\n      dup3\n        /* \"#utility.yul\":991:1000   */\n      dup7\n        /* \"#utility.yul\":987:1009   */\n      add\n        /* \"#utility.yul\":966:1019   */\n      tag_64\n      jump\t// in\n    tag_102:\n        /* \"#utility.yul\":956:1019   */\n      swap3\n      pop\n        /* \"#utility.yul\":912:1029   */\n      pop\n        /* \"#utility.yul\":1068:1070   */\n      0x20\n        /* \"#utility.yul\":1094:1147   */\n      tag_103\n        /* \"#utility.yul\":1139:1146   */\n      dup6\n        /* \"#utility.yul\":1130:1136   */\n      dup3\n        /* \"#utility.yul\":1119:1128   */\n      dup7\n        /* \"#utility.yul\":1115:1137   */\n      add\n        /* \"#utility.yul\":1094:1147   */\n      tag_64\n      jump\t// in\n    tag_103:\n        /* \"#utility.yul\":1084:1147   */\n      swap2\n      pop\n        /* \"#utility.yul\":1039:1157   */\n      pop\n        /* \"#utility.yul\":690:1164   */\n      swap3\n      pop\n      swap3\n      swap1\n      pop\n      jump\t// out\n        /* \"#utility.yul\":1170:1287   */\n    tag_65:\n        /* \"#utility.yul\":1279:1280   */\n      0x00\n        /* \"#utility.yul\":1276:1277   */\n      0x00\n        /* \"#utility.yul\":1269:1281   */\n      revert\n        /* \"#utility.yul\":1293:1395   */\n    tag_66:\n        /* \"#utility.yul\":1334:1340   */\n      0x00\n        /* \"#utility.yul\":1385:1387   */\n      0x1f\n        /* \"#utility.yul\":1381:1388   */\n      not\n        /* \"#utility.yul\":1376:1378   */\n      0x1f\n        /* \"#utility.yul\":1369:1374   */\n      dup4\n        /* \"#utility.yul\":1365:1379   */\n      add\n        /* \"#utility.yul\":1361:1389   */\n      and\n        /* \"#utility.yul\":1351:1389   */\n      swap1\n      pop\n        /* \"#utility.yul\":1293:1395   */\n      swap2\n      swap1\n      pop\n      jump\t// out\n        /* \"#utility.yul\":1401:1581   */\n    tag_67:\n        /* \"#utility.yul\":1449:1526   */\n      0x4e487b7100000000000000000000000000000000000000000000000000000000\n        /* \"#utility.yul\":1446:1447   */\n      0x00\n        /* \"#utility.yul\":1439:1527   */\n      mstore\n        /* \"#utility.yul\":1546:1550   */\n      0x41\n        /* \"#utility.yul\":1543:1544   */\n      0x04\n        /* \"#utility.yul\":1536:1551   */\n      mstore\n        /* \"#utility.yul\":1570:1574   */\n      0x24\n        /* \"#utility.yul\":1567:1568   */\n      0x00\n        /* \"#utility.yul\":1560:1575   */\n      revert\n        /* \"#utility.yul\":1587:1868   */\n    tag_68:\n        /* \"#utility.yul\":1670:1697   */\n      tag_108\n        /* \"#utility.yul\":1692:1696   */\n      dup3\n        /* \"#utility.yul\":1670:1697   */\n      tag_66\n      jump\t// in\n    tag_108:\n        /* \"#utility.yul\":1662:1668   */\n      dup2\n        /* \"#utility.yul\":1658:1698   */\n      add\n        /* \"#utility.yul\":1800:1806   */\n      dup2\n        /* \"#utility.yul\":1788:1798   */\n      dup2\n        /* \"#utility.yul\":1785:1807   */\n      lt\n        /* \"#utility.yul\":1764:1782   */\n      0xffffffffffffffff\n        /* \"#utility.yul\":1752:1762   */\n      dup3\n        /* \"#utility.yul\":1749:1783   */\n      gt\n        /* \"#utility.yul\":1746:1808   */\n      or\n        /* \"#utility.yul\":1743:1831   */\n      iszero\n      tag_109\n      jumpi\n        /* \"#utility.yul\":1811:1829   */\n      tag_110\n      tag_67\n      jump\t// in\n    tag_110:\n        /* \"#utility.yul\":1743:1831   */\n    tag_109:\n        /* \"#utility.yul\":1851:1861   */\n      dup1\n        /* \"#utility.yul\":1847:1849   */\n      0x40\n        /* \"#utility.yul\":1840:1862   */\n      mstore\n        /* \"#utility.yul\":1630:1868   */\n      pop\n        /* \"#utility.yul\":1587:1868   */\n      pop\n      pop\n      jump\t// out\n        /* \"#utility.yul\":1874:2003   */\n    tag_69:\n        /* \"#utility.yul\":1908:1914   */\n      0x00\n        /* \"#utility.yul\":1935:1955   */\n      tag_112\n      tag_59\n      jump\t// in\n    tag_112:\n        /* \"#utility.yul\":1925:1955   */\n      swap1\n      pop\n        /* \"#utility.yul\":1964:1997   */\n      tag_113\n        /* \"#utility.yul\":1992:1996   */\n      dup3\n        /* \"#utility.yul\":1984:1990   */\n      dup3\n        /* \"#utility.yul\":1964:1997   */\n      tag_68\n      jump\t// in\n    tag_113:\n        /* \"#utility.yul\":1874:2003   */\n      swap2\n      swap1\n      pop\n      jump\t// out\n        /* \"#utility.yul\":2009:2320   */\n    tag_70:\n        /* \"#utility.yul\":2086:2090   */\n      0x00\n        /* \"#utility.yul\":2176:2194   */\n      0xffffffffffffffff\n        /* \"#utility.yul\":2168:2174   */\n      dup3\n        /* \"#utility.yul\":2165:2195   */\n      gt\n        /* \"#utility.yul\":2162:2218   */\n      iszero\n      tag_115\n      jumpi\n        /* \"#utility.yul\":2198:2216   */\n      tag_116\n      tag_67\n      jump\t// in\n    tag_116:\n        /* \"#utility.yul\":2162:2218   */\n    tag_115:\n        /* \"#utility.yul\":2248:2252   */\n      0x20\n        /* \"#utility.yul\":2240:2246   */\n      dup3\n        /* \"#utility.yul\":2236:2253   */\n      mul\n        /* \"#utility.yul\":2228:2253   */\n      swap1\n      pop\n        /* \"#utility.yul\":2308:2312   */\n      0x20\n        /* \"#utility.yul\":2302:2306   */\n      dup2\n        /* \"#utility.yul\":2298:2313   */\n      add\n        /* \"#utility.yul\":2290:2313   */\n      swap1\n      pop\n        /* \"#utility.yul\":2009:2320   */\n      swap2\n      swap1\n      pop\n      jump\t// out\n        /* \"#utility.yul\":2326:2443   */\n    tag_71:\n        /* \"#utility.yul\":2435:2436   */\n      0x00\n        /* \"#utility.yul\":2432:2433   */\n      0x00\n        /* \"#utility.yul\":2425:2437   */\n      revert\n        /* \"#utility.yul\":2466:3176   */\n    tag_72:\n        /* \"#utility.yul\":2562:2567   */\n      0x00\n        /* \"#utility.yul\":2587:2668   */\n      tag_119\n        /* \"#utility.yul\":2603:2667   */\n      tag_120\n        /* \"#utility.yul\":2660:2666   */\n      dup5\n        /* \"#utility.yul\":2603:2667   */\n      tag_70\n      jump\t// in\n    tag_120:\n        /* \"#utility.yul\":2587:2668   */\n      tag_69\n      jump\t// in\n    tag_119:\n        /* \"#utility.yul\":2578:2668   */\n      swap1\n      pop\n        /* \"#utility.yul\":2688:2693   */\n      dup1\n        /* \"#utility.yul\":2717:2723   */\n      dup4\n        /* \"#utility.yul\":2710:2715   */\n      dup3\n        /* \"#utility.yul\":2703:2724   */\n      mstore\n        /* \"#utility.yul\":2751:2755   */\n      0x20\n        /* \"#utility.yul\":2744:2749   */\n      dup3\n        /* \"#utility.yul\":2740:2756   */\n      add\n        /* \"#utility.yul\":2733:2756   */\n      swap1\n      pop\n        /* \"#utility.yul\":2804:2808   */\n      0x20\n        /* \"#utility.yul\":2796:2802   */\n      dup5\n        /* \"#utility.yul\":2792:2809   */\n      mul\n        /* \"#utility.yul\":2784:2790   */\n      dup4\n        /* \"#utility.yul\":2780:2810   */\n      add\n        /* \"#utility.yul\":2833:2836   */\n      dup6\n        /* \"#utility.yul\":2825:2831   */\n      dup2\n        /* \"#utility.yul\":2822:2837   */\n      gt\n        /* \"#utility.yul\":2819:2941   */\n      iszero\n      tag_121\n      jumpi\n        /* \"#utility.yul\":2852:2931   */\n      tag_122\n      tag_71\n      jump\t// in\n    tag_122:\n        /* \"#utility.yul\":2819:2941   */\n    tag_121:\n        /* \"#utility.yul\":2967:2973   */\n      dup4\n        /* \"#utility.yul\":2950:3170   */\n    tag_123:\n        /* \"#utility.yul\":2984:2990   */\n      dup2\n        /* \"#utility.yul\":2979:2982   */\n      dup2\n        /* \"#utility.yul\":2976:2991   */\n      lt\n        /* \"#utility.yul\":2950:3170   */\n      iszero\n      tag_125\n      jumpi\n        /* \"#utility.yul\":3059:3062   */\n      dup1\n        /* \"#utility.yul\":3088:3125   */\n      tag_126\n        /* \"#utility.yul\":3121:3124   */\n      dup9\n        /* \"#utility.yul\":3109:3119   */\n      dup3\n        /* \"#utility.yul\":3088:3125   */\n      tag_64\n      jump\t// in\n    tag_126:\n        /* \"#utility.yul\":3083:3086   */\n      dup5\n        /* \"#utility.yul\":3076:3126   */\n      mstore\n        /* \"#utility.yul\":3155:3159   */\n      0x20\n        /* \"#utility.yul\":3150:3153   */\n      dup5\n        /* \"#utility.yul\":3146:3160   */\n      add\n        /* \"#utility.yul\":3139:3160   */\n      swap4\n      pop\n        /* \"#utility.yul\":3026:3170   */\n      pop\n        /* \"#utility.yul\":3010:3014   */\n      0x20\n        /* \"#utility.yul\":3005:3008   */\n      dup2\n        /* \"#utility.yul\":3001:3015   */\n      add\n        /* \"#utility.yul\":2994:3015   */\n      swap1\n      pop\n        /* \"#utility.yul\":2950:3170   */\n      jump(tag_123)\n    tag_125:\n        /* \"#utility.yul\":2954:2975   */\n      pop\n        /* \"#utility.yul\":2568:3176   */\n      pop\n      pop\n        /* \"#utility.yul\":2466:3176   */\n      swap4\n      swap3\n      pop\n      pop\n      pop\n      jump\t// out\n        /* \"#utility.yul\":3199:3569   */\n    tag_73:\n        /* \"#utility.yul\":3270:3275   */\n      0x00\n        /* \"#utility.yul\":3319:3322   */\n      dup3\n        /* \"#utility.yul\":3312:3316   */\n      0x1f\n        /* \"#utility.yul\":3304:3310   */\n      dup4\n        /* \"#utility.yul\":3300:3317   */\n      add\n        /* \"#utility.yul\":3296:3323   */\n      slt\n        /* \"#utility.yul\":3286:3408   */\n      tag_128\n      jumpi\n        /* \"#utility.yul\":3327:3406   */\n      tag_129\n      tag_65\n      jump\t// in\n    tag_129:\n        /* \"#utility.yul\":3286:3408   */\n    tag_128:\n        /* \"#utility.yul\":3444:3450   */\n      dup2\n        /* \"#utility.yul\":3431:3451   */\n      calldataload\n        /* \"#utility.yul\":3469:3563   */\n      tag_130\n        /* \"#utility.yul\":3559:3562   */\n      dup5\n        /* \"#utility.yul\":3551:3557   */\n      dup3\n        /* \"#utility.yul\":3544:3548   */\n      0x20\n        /* \"#utility.yul\":3536:3542   */\n      dup7\n        /* \"#utility.yul\":3532:3549   */\n      add\n        /* \"#utility.yul\":3469:3563   */\n      tag_72\n      jump\t// in\n    tag_130:\n        /* \"#utility.yul\":3460:3563   */\n      swap2\n      pop\n        /* \"#utility.yul\":3276:3569   */\n      pop\n        /* \"#utility.yul\":3199:3569   */\n      swap3\n      swap2\n      pop\n      pop\n      jump\t// out\n        /* \"#utility.yul\":3575:4114   */\n    tag_13:\n        /* \"#utility.yul\":3659:3665   */\n      0x00\n        /* \"#utility.yul\":3708:3710   */\n      0x20\n        /* \"#utility.yul\":3696:3705   */\n      dup3\n        /* \"#utility.yul\":3687:3694   */\n      dup5\n        /* \"#utility.yul\":3683:3706   */\n      sub\n        /* \"#utility.yul\":3679:3711   */\n      slt\n        /* \"#utility.yul\":3676:3795   */\n      iszero\n      tag_132\n      jumpi\n        /* \"#utility.yul\":3714:3793   */\n      tag_133\n      tag_60\n      jump\t// in\n    tag_133:\n        /* \"#utility.yul\":3676:3795   */\n    tag_132:\n        /* \"#utility.yul\":3862:3863   */\n      0x00\n        /* \"#utility.yul\":3851:3860   */\n      dup3\n        /* \"#utility.yul\":3847:3864   */\n      add\n        /* \"#utility.yul\":3834:3865   */\n      calldataload\n        /* \"#utility.yul\":3892:3910   */\n      0xffffffffffffffff\n        /* \"#utility.yul\":3884:3890   */\n      dup2\n        /* \"#utility.yul\":3881:3911   */\n      gt\n        /* \"#utility.yul\":3878:3995   */\n      iszero\n      tag_134\n      jumpi\n        /* \"#utility.yul\":3914:3993   */\n      tag_135\n      tag_61\n      jump\t// in\n    tag_135:\n        /* \"#utility.yul\":3878:3995   */\n    tag_134:\n        /* \"#utility.yul\":4019:4097   */\n      tag_136\n        /* \"#utility.yul\":4089:4096   */\n      dup5\n        /* \"#utility.yul\":4080:4086   */\n      dup3\n        /* \"#utility.yul\":4069:4078   */\n      dup6\n        /* \"#utility.yul\":4065:4087   */\n      add\n        /* \"#utility.yul\":4019:4097   */\n      tag_73\n      jump\t// in\n    tag_136:\n        /* \"#utility.yul\":4009:4097   */\n      swap2\n      pop\n        /* \"#utility.yul\":3805:4107   */\n      pop\n        /* \"#utility.yul\":3575:4114   */\n      swap3\n      swap2\n      pop\n      pop\n      jump\t// out\n        /* \"#utility.yul\":4120:4449   */\n    tag_17:\n        /* \"#utility.yul\":4179:4185   */\n      0x00\n        /* \"#utility.yul\":4228:4230   */\n      0x20\n        /* \"#utility.yul\":4216:4225   */\n      dup3\n        /* \"#utility.yul\":4207:4214   */\n      dup5\n        /* \"#utility.yul\":4203:4226   */\n      sub\n        /* \"#utility.yul\":4199:4231   */\n      slt\n        /* \"#utility.yul\":4196:4315   */\n      iszero\n      tag_138\n      jumpi\n        /* \"#utility.yul\":4234:4313   */\n      tag_139\n      tag_60\n      jump\t// in\n    tag_139:\n        /* \"#utility.yul\":4196:4315   */\n    tag_138:\n        /* \"#utility.yul\":4354:4355   */\n      0x00\n        /* \"#utility.yul\":4379:4432   */\n      tag_140\n        /* \"#utility.yul\":4424:4431   */\n      dup5\n        /* \"#utility.yul\":4415:4421   */\n      dup3\n        /* \"#utility.yul\":4404:4413   */\n      dup6\n        /* \"#utility.yul\":4400:4422   */\n      add\n        /* \"#utility.yul\":4379:4432   */\n      tag_64\n      jump\t// in\n    tag_140:\n        /* \"#utility.yul\":4369:4432   */\n      swap2\n      pop\n        /* \"#utility.yul\":4325:4442   */\n      pop\n        /* \"#utility.yul\":4120:4449   */\n      swap3\n      swap2\n      pop\n      pop\n      jump\t// out\n        /* \"#utility.yul\":4455:4573   */\n    tag_74:\n        /* \"#utility.yul\":4542:4566   */\n      tag_142\n        /* \"#utility.yul\":4560:4565   */\n      dup2\n        /* \"#utility.yul\":4542:4566   */\n      tag_62\n      jump\t// in\n    tag_142:\n        /* \"#utility.yul\":4537:4540   */\n      dup3\n        /* \"#utility.yul\":4530:4567   */\n      mstore\n        /* \"#utility.yul\":4455:4573   */\n      pop\n      pop\n      jump\t// out\n        /* \"#utility.yul\":4579:4801   */\n    tag_20:\n        /* \"#utility.yul\":4672:4676   */\n      0x00\n        /* \"#utility.yul\":4710:4712   */\n      0x20\n        /* \"#utility.yul\":4699:4708   */\n      dup3\n        /* \"#utility.yul\":4695:4713   */\n      add\n        /* \"#utility.yul\":4687:4713   */\n      swap1\n      pop\n        /* \"#utility.yul\":4723:4794   */\n      tag_144\n        /* \"#utility.yul\":4791:4792   */\n      0x00\n        /* \"#utility.yul\":4780:4789   */\n      dup4\n        /* \"#utility.yul\":4776:4793   */\n      add\n        /* \"#utility.yul\":4767:4773   */\n      dup5\n        /* \"#utility.yul\":4723:4794   */\n      tag_74\n      jump\t// in\n    tag_144:\n        /* \"#utility.yul\":4579:4801   */\n      swap3\n      swap2\n      pop\n      pop\n      jump\t// out\n        /* \"#utility.yul\":4807:4946   */\n    tag_75:\n        /* \"#utility.yul\":4899:4905   */\n      0x00\n        /* \"#utility.yul\":4933:4938   */\n      dup2\n        /* \"#utility.yul\":4927:4939   */\n      mload\n        /* \"#utility.yul\":4917:4939   */\n      swap1\n      pop\n        /* \"#utility.yul\":4807:4946   */\n      swap2\n      swap1\n      pop\n      jump\t// out\n        /* \"#utility.yul\":4952:5161   */\n    tag_76:\n        /* \"#utility.yul\":5076:5087   */\n      0x00\n        /* \"#utility.yul\":5110:5116   */\n      dup3\n        /* \"#utility.yul\":5105:5108   */\n      dup3\n        /* \"#utility.yul\":5098:5117   */\n      mstore\n        /* \"#utility.yul\":5150:5154   */\n      0x20\n        /* \"#utility.yul\":5145:5148   */\n      dup3\n        /* \"#utility.yul\":5141:5155   */\n      add\n        /* \"#utility.yul\":5126:5155   */\n      swap1\n      pop\n        /* \"#utility.yul\":4952:5161   */\n      swap3\n      swap2\n      pop\n      pop\n      jump\t// out\n        /* \"#utility.yul\":5167:5324   */\n    tag_77:\n        /* \"#utility.yul\":5259:5263   */\n      0x00\n        /* \"#utility.yul\":5282:5285   */\n      dup2\n        /* \"#utility.yul\":5274:5285   */\n      swap1\n      pop\n        /* \"#utility.yul\":5312:5316   */\n      0x20\n        /* \"#utility.yul\":5307:5310   */\n      dup3\n        /* \"#utility.yul\":5303:5317   */\n      add\n        /* \"#utility.yul\":5295:5317   */\n      swap1\n      pop\n        /* \"#utility.yul\":5167:5324   */\n      swap2\n      swap1\n      pop\n      jump\t// out\n        /* \"#utility.yul\":5330:5438   */\n    tag_78:\n        /* \"#utility.yul\":5407:5431   */\n      tag_149\n        /* \"#utility.yul\":5425:5430   */\n      dup2\n        /* \"#utility.yul\":5407:5431   */\n      tag_62\n      jump\t// in\n    tag_149:\n        /* \"#utility.yul\":5402:5405   */\n      dup3\n        /* \"#utility.yul\":5395:5432   */\n      mstore\n        /* \"#utility.yul\":5330:5438   */\n      pop\n      pop\n      jump\t// out\n        /* \"#utility.yul\":5444:5534   */\n    tag_79:\n        /* \"#utility.yul\":5478:5485   */\n      0x00\n        /* \"#utility.yul\":5521:5526   */\n      dup2\n        /* \"#utility.yul\":5514:5527   */\n      iszero\n        /* \"#utility.yul\":5507:5528   */\n      iszero\n        /* \"#utility.yul\":5496:5528   */\n      swap1\n      pop\n        /* \"#utility.yul\":5444:5534   */\n      swap2\n      swap1\n      pop\n      jump\t// out\n        /* \"#utility.yul\":5540:5639   */\n    tag_80:\n        /* \"#utility.yul\":5611:5632   */\n      tag_152\n        /* \"#utility.yul\":5626:5631   */\n      dup2\n        /* \"#utility.yul\":5611:5632   */\n      tag_79\n      jump\t// in\n    tag_152:\n        /* \"#utility.yul\":5606:5609   */\n      dup3\n        /* \"#utility.yul\":5599:5633   */\n      mstore\n        /* \"#utility.yul\":5540:5639   */\n      pop\n      pop\n      jump\t// out\n        /* \"#utility.yul\":5645:5825   */\n    tag_34:\n        /* \"#utility.yul\":5693:5770   */\n      0x4e487b7100000000000000000000000000000000000000000000000000000000\n        /* \"#utility.yul\":5690:5691   */\n      0x00\n        /* \"#utility.yul\":5683:5771   */\n      mstore\n        /* \"#utility.yul\":5790:5794   */\n      0x21\n        /* \"#utility.yul\":5787:5788   */\n      0x04\n        /* \"#utility.yul\":5780:5795   */\n      mstore\n        /* \"#utility.yul\":5814:5818   */\n      0x24\n        /* \"#utility.yul\":5811:5812   */\n      0x00\n        /* \"#utility.yul\":5804:5819   */\n      revert\n        /* \"#utility.yul\":5831:5949   */\n    tag_81:\n        /* \"#utility.yul\":5917:5918   */\n      0x03\n        /* \"#utility.yul\":5910:5915   */\n      dup2\n        /* \"#utility.yul\":5907:5919   */\n      lt\n        /* \"#utility.yul\":5897:5943   */\n      tag_155\n      jumpi\n        /* \"#utility.yul\":5923:5941   */\n      tag_156\n      tag_34\n      jump\t// in\n    tag_156:\n        /* \"#utility.yul\":5897:5943   */\n    tag_155:\n        /* \"#utility.yul\":5831:5949   */\n      pop\n      jump\t// out\n        /* \"#utility.yul\":5955:6092   */\n    tag_82:\n        /* \"#utility.yul\":6005:6012   */\n      0x00\n        /* \"#utility.yul\":6034:6039   */\n      dup2\n        /* \"#utility.yul\":6023:6039   */\n      swap1\n      pop\n        /* \"#utility.yul\":6040:6086   */\n      tag_158\n        /* \"#utility.yul\":6080:6085   */\n      dup3\n        /* \"#utility.yul\":6040:6086   */\n      tag_81\n      jump\t// in\n    tag_158:\n        /* \"#utility.yul\":5955:6092   */\n      swap2\n      swap1\n      pop\n      jump\t// out\n        /* \"#utility.yul\":6098:6235   */\n    tag_83:\n        /* \"#utility.yul\":6159:6168   */\n      0x00\n        /* \"#utility.yul\":6192:6229   */\n      tag_160\n        /* \"#utility.yul\":6223:6228   */\n      dup3\n        /* \"#utility.yul\":6192:6229   */\n      tag_82\n      jump\t// in\n    tag_160:\n        /* \"#utility.yul\":6179:6229   */\n      swap1\n      pop\n        /* \"#utility.yul\":6098:6235   */\n      swap2\n      swap1\n      pop\n      jump\t// out\n        /* \"#utility.yul\":6241:6384   */\n    tag_84:\n        /* \"#utility.yul\":6329:6377   */\n      tag_162\n        /* \"#utility.yul\":6371:6376   */\n      dup2\n        /* \"#utility.yul\":6329:6377   */\n      tag_83\n      jump\t// in\n    tag_162:\n        /* \"#utility.yul\":6324:6327   */\n      dup3\n        /* \"#utility.yul\":6317:6378   */\n      mstore\n        /* \"#utility.yul\":6241:6384   */\n      pop\n      pop\n      jump\t// out\n        /* \"#utility.yul\":6444:7125   */\n    tag_85:\n        /* \"#utility.yul\":6581:6585   */\n      0x60\n        /* \"#utility.yul\":6576:6579   */\n      dup3\n        /* \"#utility.yul\":6572:6586   */\n      add\n        /* \"#utility.yul\":6670:6674   */\n      0x00\n        /* \"#utility.yul\":6663:6668   */\n      dup3\n        /* \"#utility.yul\":6659:6675   */\n      add\n        /* \"#utility.yul\":6653:6676   */\n      mload\n        /* \"#utility.yul\":6689:6752   */\n      tag_164\n        /* \"#utility.yul\":6746:6750   */\n      0x00\n        /* \"#utility.yul\":6741:6744   */\n      dup6\n        /* \"#utility.yul\":6737:6751   */\n      add\n        /* \"#utility.yul\":6723:6735   */\n      dup3\n        /* \"#utility.yul\":6689:6752   */\n      tag_78\n      jump\t// in\n    tag_164:\n        /* \"#utility.yul\":6596:6762   */\n      pop\n        /* \"#utility.yul\":6844:6848   */\n      0x20\n        /* \"#utility.yul\":6837:6842   */\n      dup3\n        /* \"#utility.yul\":6833:6849   */\n      add\n        /* \"#utility.yul\":6827:6850   */\n      mload\n        /* \"#utility.yul\":6863:6920   */\n      tag_165\n        /* \"#utility.yul\":6914:6918   */\n      0x20\n        /* \"#utility.yul\":6909:6912   */\n      dup6\n        /* \"#utility.yul\":6905:6919   */\n      add\n        /* \"#utility.yul\":6891:6903   */\n      dup3\n        /* \"#utility.yul\":6863:6920   */\n      tag_80\n      jump\t// in\n    tag_165:\n        /* \"#utility.yul\":6772:6930   */\n      pop\n        /* \"#utility.yul\":7015:7019   */\n      0x40\n        /* \"#utility.yul\":7008:7013   */\n      dup3\n        /* \"#utility.yul\":7004:7020   */\n      add\n        /* \"#utility.yul\":6998:7021   */\n      mload\n        /* \"#utility.yul\":7034:7108   */\n      tag_166\n        /* \"#utility.yul\":7102:7106   */\n      0x40\n        /* \"#utility.yul\":7097:7100   */\n      dup6\n        /* \"#utility.yul\":7093:7107   */\n      add\n        /* \"#utility.yul\":7079:7091   */\n      dup3\n        /* \"#utility.yul\":7034:7108   */\n      tag_84\n      jump\t// in\n    tag_166:\n        /* \"#utility.yul\":6940:7118   */\n      pop\n        /* \"#utility.yul\":6550:7125   */\n      pop\n        /* \"#utility.yul\":6444:7125   */\n      pop\n      pop\n      jump\t// out\n        /* \"#utility.yul\":7131:7410   */\n    tag_86:\n        /* \"#utility.yul\":7250:7260   */\n      0x00\n        /* \"#utility.yul\":7271:7367   */\n      tag_168\n        /* \"#utility.yul\":7363:7366   */\n      dup4\n        /* \"#utility.yul\":7355:7361   */\n      dup4\n        /* \"#utility.yul\":7271:7367   */\n      tag_85\n      jump\t// in\n    tag_168:\n        /* \"#utility.yul\":7399:7403   */\n      0x60\n        /* \"#utility.yul\":7394:7397   */\n      dup4\n        /* \"#utility.yul\":7390:7404   */\n      add\n        /* \"#utility.yul\":7376:7404   */\n      swap1\n      pop\n        /* \"#utility.yul\":7131:7410   */\n      swap3\n      swap2\n      pop\n      pop\n      jump\t// out\n        /* \"#utility.yul\":7416:7554   */\n    tag_87:\n        /* \"#utility.yul\":7511:7515   */\n      0x00\n        /* \"#utility.yul\":7543:7547   */\n      0x20\n        /* \"#utility.yul\":7538:7541   */\n      dup3\n        /* \"#utility.yul\":7534:7548   */\n      add\n        /* \"#utility.yul\":7526:7548   */\n      swap1\n      pop\n        /* \"#utility.yul\":7416:7554   */\n      swap2\n      swap1\n      pop\n      jump\t// out\n        /* \"#utility.yul\":7618:8550   */\n    tag_88:\n        /* \"#utility.yul\":7787:7790   */\n      0x00\n        /* \"#utility.yul\":7816:7895   */\n      tag_171\n        /* \"#utility.yul\":7889:7894   */\n      dup3\n        /* \"#utility.yul\":7816:7895   */\n      tag_75\n      jump\t// in\n    tag_171:\n        /* \"#utility.yul\":7911:8022   */\n      tag_172\n        /* \"#utility.yul\":8015:8021   */\n      dup2\n        /* \"#utility.yul\":8010:8013   */\n      dup6\n        /* \"#utility.yul\":7911:8022   */\n      tag_76\n      jump\t// in\n    tag_172:\n        /* \"#utility.yul\":7904:8022   */\n      swap4\n      pop\n        /* \"#utility.yul\":8046:8127   */\n      tag_173\n        /* \"#utility.yul\":8121:8126   */\n      dup4\n        /* \"#utility.yul\":8046:8127   */\n      tag_77\n      jump\t// in\n    tag_173:\n        /* \"#utility.yul\":8150:8157   */\n      dup1\n        /* \"#utility.yul\":8181:8182   */\n      0x00\n        /* \"#utility.yul\":8166:8525   */\n    tag_174:\n        /* \"#utility.yul\":8191:8197   */\n      dup4\n        /* \"#utility.yul\":8188:8189   */\n      dup2\n        /* \"#utility.yul\":8185:8198   */\n      lt\n        /* \"#utility.yul\":8166:8525   */\n      iszero\n      tag_176\n      jumpi\n        /* \"#utility.yul\":8267:8273   */\n      dup2\n        /* \"#utility.yul\":8261:8274   */\n      mload\n        /* \"#utility.yul\":8294:8407   */\n      tag_177\n        /* \"#utility.yul\":8403:8406   */\n      dup9\n        /* \"#utility.yul\":8388:8401   */\n      dup3\n        /* \"#utility.yul\":8294:8407   */\n      tag_86\n      jump\t// in\n    tag_177:\n        /* \"#utility.yul\":8287:8407   */\n      swap8\n      pop\n        /* \"#utility.yul\":8430:8515   */\n      tag_178\n        /* \"#utility.yul\":8508:8514   */\n      dup4\n        /* \"#utility.yul\":8430:8515   */\n      tag_87\n      jump\t// in\n    tag_178:\n        /* \"#utility.yul\":8420:8515   */\n      swap3\n      pop\n        /* \"#utility.yul\":8226:8525   */\n      pop\n        /* \"#utility.yul\":8213:8214   */\n      0x01\n        /* \"#utility.yul\":8210:8211   */\n      dup2\n        /* \"#utility.yul\":8206:8215   */\n      add\n        /* \"#utility.yul\":8201:8215   */\n      swap1\n      pop\n        /* \"#utility.yul\":8166:8525   */\n      jump(tag_174)\n    tag_176:\n        /* \"#utility.yul\":8170:8184   */\n      pop\n        /* \"#utility.yul\":8541:8544   */\n      dup6\n        /* \"#utility.yul\":8534:8544   */\n      swap4\n      pop\n        /* \"#utility.yul\":7792:8550   */\n      pop\n      pop\n      pop\n        /* \"#utility.yul\":7618:8550   */\n      swap3\n      swap2\n      pop\n      pop\n      jump\t// out\n        /* \"#utility.yul\":8556:9029   */\n    tag_25:\n        /* \"#utility.yul\":8749:8753   */\n      0x00\n        /* \"#utility.yul\":8787:8789   */\n      0x20\n        /* \"#utility.yul\":8776:8785   */\n      dup3\n        /* \"#utility.yul\":8772:8790   */\n      add\n        /* \"#utility.yul\":8764:8790   */\n      swap1\n      pop\n        /* \"#utility.yul\":8836:8845   */\n      dup2\n        /* \"#utility.yul\":8830:8834   */\n      dup2\n        /* \"#utility.yul\":8826:8846   */\n      sub\n        /* \"#utility.yul\":8822:8823   */\n      0x00\n        /* \"#utility.yul\":8811:8820   */\n      dup4\n        /* \"#utility.yul\":8807:8824   */\n      add\n        /* \"#utility.yul\":8800:8847   */\n      mstore\n        /* \"#utility.yul\":8864:9022   */\n      tag_180\n        /* \"#utility.yul\":9017:9021   */\n      dup2\n        /* \"#utility.yul\":9008:9014   */\n      dup5\n        /* \"#utility.yul\":8864:9022   */\n      tag_88\n      jump\t// in\n    tag_180:\n        /* \"#utility.yul\":8856:9022   */\n      swap1\n      pop\n        /* \"#utility.yul\":8556:9029   */\n      swap3\n      swap2\n      pop\n      pop\n      jump\t// out\n        /* \"#utility.yul\":9035:9215   */\n    tag_30:\n        /* \"#utility.yul\":9083:9160   */\n      0x4e487b7100000000000000000000000000000000000000000000000000000000\n        /* \"#utility.yul\":9080:9081   */\n      0x00\n        /* \"#utility.yul\":9073:9161   */\n      mstore\n        /* \"#utility.yul\":9180:9184   */\n      0x32\n        /* \"#utility.yul\":9177:9178   */\n      0x04\n        /* \"#utility.yul\":9170:9185   */\n      mstore\n        /* \"#utility.yul\":9204:9208   */\n      0x24\n        /* \"#utility.yul\":9201:9202   */\n      0x00\n        /* \"#utility.yul\":9194:9209   */\n      revert\n\n    auxdata: 0xa2646970667358221220310ced87beed4152301a4543ba5e577d084654c00072c20d2f787a9da8394b1164736f6c634300081e0033\n}\n",
				"bytecode": {
					"linkReferences": {},
					"object": "6080604052348015600e575f5ffd5b5061086b8061001c5f395ff3fe608060405234801561000f575f5ffd5b506004361061004a575f3560e01c80630875b7841461004e57806310b0b5d51461006a578063180aedf31461008657806365c498ab146100b6575b5f5ffd5b6100686004803603810190610063919061043c565b6100e6565b005b610084600480360381019061007f91906105ca565b610201565b005b6100a0600480360381019061009b9190610611565b610310565b6040516100ad919061064b565b60405180910390f35b6100d060048036038101906100cb9190610611565b61032a565b6040516100dd91906107e8565b60405180910390f35b5f60015f8481526020019081526020015f209050806001018054905082111561013b576040517f25918a0e00000000000000000000000000000000000000000000000000000000815260040160405180910390fd5b5f81600101838154811061015257610151610808565b5b905f5260205f20906002020190505f6002811115610173576101726106b6565b5b8160010160019054906101000a900460ff166002811115610197576101966106b6565b5b146101ce576040517f2c8adbf400000000000000000000000000000000000000000000000000000000815260040160405180910390fd5b60028160010160016101000a81548160ff021916908360028111156101f6576101f56106b6565b5b021790555050505050565b5f815190505f60015f5f5481526020019081526020015f2090505f54815f01819055505f5f90505b8281101561030a5781600101604051806060016040528086848151811061025357610252610808565b5b602002602001015181526020015f151581526020015f600281111561027b5761027a6106b6565b5b815250908060018154018082558091505060019003905f5260205f2090600202015f909190919091505f820151815f01556020820151816001015f6101000a81548160ff02191690831515021790555060408201518160010160016101000a81548160ff021916908360028111156102f6576102f56106b6565b5b021790555050508080600101915050610229565b50505050565b6001602052805f5260405f205f91509050805f0154905081565b606060015f8381526020019081526020015f20600101805480602002602001604051908101604052809291908181526020015f905b828210156103ed578382905f5260205f2090600202016040518060600160405290815f8201548152602001600182015f9054906101000a900460ff161515151581526020016001820160019054906101000a900460ff1660028111156103c8576103c76106b6565b5b60028111156103da576103d96106b6565b5b815250508152602001906001019061035f565b505050509050919050565b5f604051905090565b5f5ffd5b5f5ffd5b5f819050919050565b61041b81610409565b8114610425575f5ffd5b50565b5f8135905061043681610412565b92915050565b5f5f6040838503121561045257610451610401565b5b5f61045f85828601610428565b925050602061047085828601610428565b9150509250929050565b5f5ffd5b5f601f19601f8301169050919050565b7f4e487b71000000000000000000000000000000000000000000000000000000005f52604160045260245ffd5b6104c48261047e565b810181811067ffffffffffffffff821117156104e3576104e261048e565b5b80604052505050565b5f6104f56103f8565b905061050182826104bb565b919050565b5f67ffffffffffffffff8211156105205761051f61048e565b5b602082029050602081019050919050565b5f5ffd5b5f61054761054284610506565b6104ec565b9050808382526020820190506020840283018581111561056a57610569610531565b5b835b81811015610593578061057f8882610428565b84526020840193505060208101905061056c565b5050509392505050565b5f82601f8301126105b1576105b061047a565b5b81356105c1848260208601610535565b91505092915050565b5f602082840312156105df576105de610401565b5b5f82013567ffffffffffffffff8111156105fc576105fb610405565b5b6106088482850161059d565b91505092915050565b5f6020828403121561062657610625610401565b5b5f61063384828501610428565b91505092915050565b61064581610409565b82525050565b5f60208201905061065e5f83018461063c565b92915050565b5f81519050919050565b5f82825260208201905092915050565b5f819050602082019050919050565b61069681610409565b82525050565b5f8115159050919050565b6106b08161069c565b82525050565b7f4e487b71000000000000000000000000000000000000000000000000000000005f52602160045260245ffd5b600381106106f4576106f36106b6565b5b50565b5f819050610704826106e3565b919050565b5f610713826106f7565b9050919050565b61072381610709565b82525050565b606082015f82015161073d5f85018261068d565b50602082015161075060208501826106a7565b506040820151610763604085018261071a565b50505050565b5f6107748383610729565b60608301905092915050565b5f602082019050919050565b5f61079682610664565b6107a0818561066e565b93506107ab8361067e565b805f5b838110156107db5781516107c28882610769565b97506107cd83610780565b9250506001810190506107ae565b5085935050505092915050565b5f6020820190508181035f830152610800818461078c565b905092915050565b7f4e487b71000000000000000000000000000000000000000000000000000000005f52603260045260245ffdfea2646970667358221220310ced87beed4152301a4543ba5e577d084654c00072c20d2f787a9da8394b1164736f6c634300081e0033",
					"opcodes": "PUSH1 0x80 PUSH1 0x40 MSTORE CALLVALUE DUP1 ISZERO PUSH1 0xE JUMPI PUSH0 PUSH0 REVERT JUMPDEST POP PUSH2 0x86B DUP1 PUSH2 0x1C PUSH0 CODECOPY PUSH0 RETURN INVALID PUSH1 0x80 PUSH1 0x40 MSTORE CALLVALUE DUP1 ISZERO PUSH2 0xF JUMPI PUSH0 PUSH0 REVERT JUMPDEST POP PUSH1 0x4 CALLDATASIZE LT PUSH2 0x4A JUMPI PUSH0 CALLDATALOAD PUSH1 0xE0 SHR DUP1 PUSH4 0x875B784 EQ PUSH2 0x4E JUMPI DUP1 PUSH4 0x10B0B5D5 EQ PUSH2 0x6A JUMPI DUP1 PUSH4 0x180AEDF3 EQ PUSH2 0x86 JUMPI DUP1 PUSH4 0x65C498AB EQ PUSH2 0xB6 JUMPI JUMPDEST PUSH0 PUSH0 REVERT JUMPDEST PUSH2 0x68 PUSH1 0x4 DUP1 CALLDATASIZE SUB DUP2 ADD SWAP1 PUSH2 0x63 SWAP2 SWAP1 PUSH2 0x43C JUMP JUMPDEST PUSH2 0xE6 JUMP JUMPDEST STOP JUMPDEST PUSH2 0x84 PUSH1 0x4 DUP1 CALLDATASIZE SUB DUP2 ADD SWAP1 PUSH2 0x7F SWAP2 SWAP1 PUSH2 0x5CA JUMP JUMPDEST PUSH2 0x201 JUMP JUMPDEST STOP JUMPDEST PUSH2 0xA0 PUSH1 0x4 DUP1 CALLDATASIZE SUB DUP2 ADD SWAP1 PUSH2 0x9B SWAP2 SWAP1 PUSH2 0x611 JUMP JUMPDEST PUSH2 0x310 JUMP JUMPDEST PUSH1 0x40 MLOAD PUSH2 0xAD SWAP2 SWAP1 PUSH2 0x64B JUMP JUMPDEST PUSH1 0x40 MLOAD DUP1 SWAP2 SUB SWAP1 RETURN JUMPDEST PUSH2 0xD0 PUSH1 0x4 DUP1 CALLDATASIZE SUB DUP2 ADD SWAP1 PUSH2 0xCB SWAP2 SWAP1 PUSH2 0x611 JUMP JUMPDEST PUSH2 0x32A JUMP JUMPDEST PUSH1 0x40 MLOAD PUSH2 0xDD SWAP2 SWAP1 PUSH2 0x7E8 JUMP JUMPDEST PUSH1 0x40 MLOAD DUP1 SWAP2 SUB SWAP1 RETURN JUMPDEST PUSH0 PUSH1 0x1 PUSH0 DUP5 DUP2 MSTORE PUSH1 0x20 ADD SWAP1 DUP2 MSTORE PUSH1 0x20 ADD PUSH0 KECCAK256 SWAP1 POP DUP1 PUSH1 0x1 ADD DUP1 SLOAD SWAP1 POP DUP3 GT ISZERO PUSH2 0x13B JUMPI PUSH1 0x40 MLOAD PUSH32 0x25918A0E00000000000000000000000000000000000000000000000000000000 DUP2 MSTORE PUSH1 0x4 ADD PUSH1 0x40 MLOAD DUP1 SWAP2 SUB SWAP1 REVERT JUMPDEST PUSH0 DUP2 PUSH1 0x1 ADD DUP4 DUP2 SLOAD DUP2 LT PUSH2 0x152 JUMPI PUSH2 0x151 PUSH2 0x808 JUMP JUMPDEST JUMPDEST SWAP1 PUSH0 MSTORE PUSH1 0x20 PUSH0 KECCAK256 SWAP1 PUSH1 0x2 MUL ADD SWAP1 POP PUSH0 PUSH1 0x2 DUP2 GT ISZERO PUSH2 0x173 JUMPI PUSH2 0x172 PUSH2 0x6B6 JUMP JUMPDEST JUMPDEST DUP2 PUSH1 0x1 ADD PUSH1 0x1 SWAP1 SLOAD SWAP1 PUSH2 0x100 EXP SWAP1 DIV PUSH1 0xFF AND PUSH1 0x2 DUP2 GT ISZERO PUSH2 0x197 JUMPI PUSH2 0x196 PUSH2 0x6B6 JUMP JUMPDEST JUMPDEST EQ PUSH2 0x1CE JUMPI PUSH1 0x40 MLOAD PUSH32 0x2C8ADBF400000000000000000000000000000000000000000000000000000000 DUP2 MSTORE PUSH1 0x4 ADD PUSH1 0x40 MLOAD DUP1 SWAP2 SUB SWAP1 REVERT JUMPDEST PUSH1 0x2 DUP2 PUSH1 0x1 ADD PUSH1 0x1 PUSH2 0x100 EXP DUP2 SLOAD DUP2 PUSH1 0xFF MUL NOT AND SWAP1 DUP4 PUSH1 0x2 DUP2 GT ISZERO PUSH2 0x1F6 JUMPI PUSH2 0x1F5 PUSH2 0x6B6 JUMP JUMPDEST JUMPDEST MUL OR SWAP1 SSTORE POP POP POP POP POP JUMP JUMPDEST PUSH0 DUP2 MLOAD SWAP1 POP PUSH0 PUSH1 0x1 PUSH0 PUSH0 SLOAD DUP2 MSTORE PUSH1 0x20 ADD SWAP1 DUP2 MSTORE PUSH1 0x20 ADD PUSH0 KECCAK256 SWAP1 POP PUSH0 SLOAD DUP2 PUSH0 ADD DUP2 SWAP1 SSTORE POP PUSH0 PUSH0 SWAP1 POP JUMPDEST DUP3 DUP2 LT ISZERO PUSH2 0x30A JUMPI DUP2 PUSH1 0x1 ADD PUSH1 0x40 MLOAD DUP1 PUSH1 0x60 ADD PUSH1 0x40 MSTORE DUP1 DUP7 DUP5 DUP2 MLOAD DUP2 LT PUSH2 0x253 JUMPI PUSH2 0x252 PUSH2 0x808 JUMP JUMPDEST JUMPDEST PUSH1 0x20 MUL PUSH1 0x20 ADD ADD MLOAD DUP2 MSTORE PUSH1 0x20 ADD PUSH0 ISZERO ISZERO DUP2 MSTORE PUSH1 0x20 ADD PUSH0 PUSH1 0x2 DUP2 GT ISZERO PUSH2 0x27B JUMPI PUSH2 0x27A PUSH2 0x6B6 JUMP JUMPDEST JUMPDEST DUP2 MSTORE POP SWAP1 DUP1 PUSH1 0x1 DUP2 SLOAD ADD DUP1 DUP3 SSTORE DUP1 SWAP2 POP POP PUSH1 0x1 SWAP1 SUB SWAP1 PUSH0 MSTORE PUSH1 0x20 PUSH0 KECCAK256 SWAP1 PUSH1 0x2 MUL ADD PUSH0 SWAP1 SWAP2 SWAP1 SWAP2 SWAP1 SWAP2 POP PUSH0 DUP3 ADD MLOAD DUP2 PUSH0 ADD SSTORE PUSH1 0x20 DUP3 ADD MLOAD DUP2 PUSH1 0x1 ADD PUSH0 PUSH2 0x100 EXP DUP2 SLOAD DUP2 PUSH1 0xFF MUL NOT AND SWAP1 DUP4 ISZERO ISZERO MUL OR SWAP1 SSTORE POP PUSH1 0x40 DUP3 ADD MLOAD DUP2 PUSH1 0x1 ADD PUSH1 0x1 PUSH2 0x100 EXP DUP2 SLOAD DUP2 PUSH1 0xFF MUL NOT AND SWAP1 DUP4 PUSH1 0x2 DUP2 GT ISZERO PUSH2 0x2F6 JUMPI PUSH2 0x2F5 PUSH2 0x6B6 JUMP JUMPDEST JUMPDEST MUL OR SWAP1 SSTORE POP POP POP DUP1 DUP1 PUSH1 0x1 ADD SWAP2 POP POP PUSH2 0x229 JUMP JUMPDEST POP POP POP POP JUMP JUMPDEST PUSH1 0x1 PUSH1 0x20 MSTORE DUP1 PUSH0 MSTORE PUSH1 0x40 PUSH0 KECCAK256 PUSH0 SWAP2 POP SWAP1 POP DUP1 PUSH0 ADD SLOAD SWAP1 POP DUP2 JUMP JUMPDEST PUSH1 0x60 PUSH1 0x1 PUSH0 DUP4 DUP2 MSTORE PUSH1 0x20 ADD SWAP1 DUP2 MSTORE PUSH1 0x20 ADD PUSH0 KECCAK256 PUSH1 0x1 ADD DUP1 SLOAD DUP1 PUSH1 0x20 MUL PUSH1 0x20 ADD PUSH1 0x40 MLOAD SWAP1 DUP2 ADD PUSH1 0x40 MSTORE DUP1 SWAP3 SWAP2 SWAP1 DUP2 DUP2 MSTORE PUSH1 0x20 ADD PUSH0 SWAP1 JUMPDEST DUP3 DUP3 LT ISZERO PUSH2 0x3ED JUMPI DUP4 DUP3 SWAP1 PUSH0 MSTORE PUSH1 0x20 PUSH0 KECCAK256 SWAP1 PUSH1 0x2 MUL ADD PUSH1 0x40 MLOAD DUP1 PUSH1 0x60 ADD PUSH1 0x40 MSTORE SWAP1 DUP2 PUSH0 DUP3 ADD SLOAD DUP2 MSTORE PUSH1 0x20 ADD PUSH1 0x1 DUP3 ADD PUSH0 SWAP1 SLOAD SWAP1 PUSH2 0x100 EXP SWAP1 DIV PUSH1 0xFF AND ISZERO ISZERO ISZERO ISZERO DUP2 MSTORE PUSH1 0x20 ADD PUSH1 0x1 DUP3 ADD PUSH1 0x1 SWAP1 SLOAD SWAP1 PUSH2 0x100 EXP SWAP1 DIV PUSH1 0xFF AND PUSH1 0x2 DUP2 GT ISZERO PUSH2 0x3C8 JUMPI PUSH2 0x3C7 PUSH2 0x6B6 JUMP JUMPDEST JUMPDEST PUSH1 0x2 DUP2 GT ISZERO PUSH2 0x3DA JUMPI PUSH2 0x3D9 PUSH2 0x6B6 JUMP JUMPDEST JUMPDEST DUP2 MSTORE POP POP DUP2 MSTORE PUSH1 0x20 ADD SWAP1 PUSH1 0x1 ADD SWAP1 PUSH2 0x35F JUMP JUMPDEST POP POP POP POP SWAP1 POP SWAP2 SWAP1 POP JUMP JUMPDEST PUSH0 PUSH1 0x40 MLOAD SWAP1 POP SWAP1 JUMP JUMPDEST PUSH0 PUSH0 REVERT JUMPDEST PUSH0 PUSH0 REVERT JUMPDEST PUSH0 DUP2 SWAP1 POP SWAP2 SWAP1 POP JUMP JUMPDEST PUSH2 0x41B DUP2 PUSH2 0x409 JUMP JUMPDEST DUP2 EQ PUSH2 0x425 JUMPI PUSH0 PUSH0 REVERT JUMPDEST POP JUMP JUMPDEST PUSH0 DUP2 CALLDATALOAD SWAP1 POP PUSH2 0x436 DUP2 PUSH2 0x412 JUMP JUMPDEST SWAP3 SWAP2 POP POP JUMP JUMPDEST PUSH0 PUSH0 PUSH1 0x40 DUP4 DUP6 SUB SLT ISZERO PUSH2 0x452 JUMPI PUSH2 0x451 PUSH2 0x401 JUMP JUMPDEST JUMPDEST PUSH0 PUSH2 0x45F DUP6 DUP3 DUP7 ADD PUSH2 0x428 JUMP JUMPDEST SWAP3 POP POP PUSH1 0x20 PUSH2 0x470 DUP6 DUP3 DUP7 ADD PUSH2 0x428 JUMP JUMPDEST SWAP2 POP POP SWAP3 POP SWAP3 SWAP1 POP JUMP JUMPDEST PUSH0 PUSH0 REVERT JUMPDEST PUSH0 PUSH1 0x1F NOT PUSH1 0x1F DUP4 ADD AND SWAP1 POP SWAP2 SWAP1 POP JUMP JUMPDEST PUSH32 0x4E487B7100000000000000000000000000000000000000000000000000000000 PUSH0 MSTORE PUSH1 0x41 PUSH1 0x4 MSTORE PUSH1 0x24 PUSH0 REVERT JUMPDEST PUSH2 0x4C4 DUP3 PUSH2 0x47E JUMP JUMPDEST DUP2 ADD DUP2 DUP2 LT PUSH8 0xFFFFFFFFFFFFFFFF DUP3 GT OR ISZERO PUSH2 0x4E3 JUMPI PUSH2 0x4E2 PUSH2 0x48E JUMP JUMPDEST JUMPDEST DUP1 PUSH1 0x40 MSTORE POP POP POP JUMP JUMPDEST PUSH0 PUSH2 0x4F5 PUSH2 0x3F8 JUMP JUMPDEST SWAP1 POP PUSH2 0x501 DUP3 DUP3 PUSH2 0x4BB JUMP JUMPDEST SWAP2 SWAP1 POP JUMP JUMPDEST PUSH0 PUSH8 0xFFFFFFFFFFFFFFFF DUP3 GT ISZERO PUSH2 0x520 JUMPI PUSH2 0x51F PUSH2 0x48E JUMP JUMPDEST JUMPDEST PUSH1 0x20 DUP3 MUL SWAP1 POP PUSH1 0x20 DUP2 ADD SWAP1 POP SWAP2 SWAP1 POP JUMP JUMPDEST PUSH0 PUSH0 REVERT JUMPDEST PUSH0 PUSH2 0x547 PUSH2 0x542 DUP5 PUSH2 0x506 JUMP JUMPDEST PUSH2 0x4EC JUMP JUMPDEST SWAP1 POP DUP1 DUP4 DUP3 MSTORE PUSH1 0x20 DUP3 ADD SWAP1 POP PUSH1 0x20 DUP5 MUL DUP4 ADD DUP6 DUP2 GT ISZERO PUSH2 0x56A JUMPI PUSH2 0x569 PUSH2 0x531 JUMP JUMPDEST JUMPDEST DUP4 JUMPDEST DUP2 DUP2 LT ISZERO PUSH2 0x593 JUMPI DUP1 PUSH2 0x57F DUP9 DUP3 PUSH2 0x428 JUMP JUMPDEST DUP5 MSTORE PUSH1 0x20 DUP5 ADD SWAP4 POP POP PUSH1 0x20 DUP2 ADD SWAP1 POP PUSH2 0x56C JUMP JUMPDEST POP POP POP SWAP4 SWAP3 POP POP POP JUMP JUMPDEST PUSH0 DUP3 PUSH1 0x1F DUP4 ADD SLT PUSH2 0x5B1 JUMPI PUSH2 0x5B0 PUSH2 0x47A JUMP JUMPDEST JUMPDEST DUP2 CALLDATALOAD PUSH2 0x5C1 DUP5 DUP3 PUSH1 0x20 DUP7 ADD PUSH2 0x535 JUMP JUMPDEST SWAP2 POP POP SWAP3 SWAP2 POP POP JUMP JUMPDEST PUSH0 PUSH1 0x20 DUP3 DUP5 SUB SLT ISZERO PUSH2 0x5DF JUMPI PUSH2 0x5DE PUSH2 0x401 JUMP JUMPDEST JUMPDEST PUSH0 DUP3 ADD CALLDATALOAD PUSH8 0xFFFFFFFFFFFFFFFF DUP2 GT ISZERO PUSH2 0x5FC JUMPI PUSH2 0x5FB PUSH2 0x405 JUMP JUMPDEST JUMPDEST PUSH2 0x608 DUP5 DUP3 DUP6 ADD PUSH2 0x59D JUMP JUMPDEST SWAP2 POP POP SWAP3 SWAP2 POP POP JUMP JUMPDEST PUSH0 PUSH1 0x20 DUP3 DUP5 SUB SLT ISZERO PUSH2 0x626 JUMPI PUSH2 0x625 PUSH2 0x401 JUMP JUMPDEST JUMPDEST PUSH0 PUSH2 0x633 DUP5 DUP3 DUP6 ADD PUSH2 0x428 JUMP JUMPDEST SWAP2 POP POP SWAP3 SWAP2 POP POP JUMP JUMPDEST PUSH2 0x645 DUP2 PUSH2 0x409 JUMP JUMPDEST DUP3 MSTORE POP POP JUMP JUMPDEST PUSH0 PUSH1 0x20 DUP3 ADD SWAP1 POP PUSH2 0x65E PUSH0 DUP4 ADD DUP5 PUSH2 0x63C JUMP JUMPDEST SWAP3 SWAP2 POP POP JUMP JUMPDEST PUSH0 DUP2 MLOAD SWAP1 POP SWAP2 SWAP1 POP JUMP JUMPDEST PUSH0 DUP3 DUP3 MSTORE PUSH1 0x20 DUP3 ADD SWAP1 POP SWAP3 SWAP2 POP POP JUMP JUMPDEST PUSH0 DUP2 SWAP1 POP PUSH1 0x20 DUP3 ADD SWAP1 POP SWAP2 SWAP1 POP JUMP JUMPDEST PUSH2 0x696 DUP2 PUSH2 0x409 JUMP JUMPDEST DUP3 MSTORE POP POP JUMP JUMPDEST PUSH0 DUP2 ISZERO ISZERO SWAP1 POP SWAP2 SWAP1 POP JUMP JUMPDEST PUSH2 0x6B0 DUP2 PUSH2 0x69C JUMP JUMPDEST DUP3 MSTORE POP POP JUMP JUMPDEST PUSH32 0x4E487B7100000000000000000000000000000000000000000000000000000000 PUSH0 MSTORE PUSH1 0x21 PUSH1 0x4 MSTORE PUSH1 0x24 PUSH0 REVERT JUMPDEST PUSH1 0x3 DUP2 LT PUSH2 0x6F4 JUMPI PUSH2 0x6F3 PUSH2 0x6B6 JUMP JUMPDEST JUMPDEST POP JUMP JUMPDEST PUSH0 DUP2 SWAP1 POP PUSH2 0x704 DUP3 PUSH2 0x6E3 JUMP JUMPDEST SWAP2 SWAP1 POP JUMP JUMPDEST PUSH0 PUSH2 0x713 DUP3 PUSH2 0x6F7 JUMP JUMPDEST SWAP1 POP SWAP2 SWAP1 POP JUMP JUMPDEST PUSH2 0x723 DUP2 PUSH2 0x709 JUMP JUMPDEST DUP3 MSTORE POP POP JUMP JUMPDEST PUSH1 0x60 DUP3 ADD PUSH0 DUP3 ADD MLOAD PUSH2 0x73D PUSH0 DUP6 ADD DUP3 PUSH2 0x68D JUMP JUMPDEST POP PUSH1 0x20 DUP3 ADD MLOAD PUSH2 0x750 PUSH1 0x20 DUP6 ADD DUP3 PUSH2 0x6A7 JUMP JUMPDEST POP PUSH1 0x40 DUP3 ADD MLOAD PUSH2 0x763 PUSH1 0x40 DUP6 ADD DUP3 PUSH2 0x71A JUMP JUMPDEST POP POP POP POP JUMP JUMPDEST PUSH0 PUSH2 0x774 DUP4 DUP4 PUSH2 0x729 JUMP JUMPDEST PUSH1 0x60 DUP4 ADD SWAP1 POP SWAP3 SWAP2 POP POP JUMP JUMPDEST PUSH0 PUSH1 0x20 DUP3 ADD SWAP1 POP SWAP2 SWAP1 POP JUMP JUMPDEST PUSH0 PUSH2 0x796 DUP3 PUSH2 0x664 JUMP JUMPDEST PUSH2 0x7A0 DUP2 DUP6 PUSH2 0x66E JUMP JUMPDEST SWAP4 POP PUSH2 0x7AB DUP4 PUSH2 0x67E JUMP JUMPDEST DUP1 PUSH0 JUMPDEST DUP4 DUP2 LT ISZERO PUSH2 0x7DB JUMPI DUP2 MLOAD PUSH2 0x7C2 DUP9 DUP3 PUSH2 0x769 JUMP JUMPDEST SWAP8 POP PUSH2 0x7CD DUP4 PUSH2 0x780 JUMP JUMPDEST SWAP3 POP POP PUSH1 0x1 DUP2 ADD SWAP1 POP PUSH2 0x7AE JUMP JUMPDEST POP DUP6 SWAP4 POP POP POP POP SWAP3 SWAP2 POP POP JUMP JUMPDEST PUSH0 PUSH1 0x20 DUP3 ADD SWAP1 POP DUP2 DUP2 SUB PUSH0 DUP4 ADD MSTORE PUSH2 0x800 DUP2 DUP5 PUSH2 0x78C JUMP JUMPDEST SWAP1 POP SWAP3 SWAP2 POP POP JUMP JUMPDEST PUSH32 0x4E487B7100000000000000000000000000000000000000000000000000000000 PUSH0 MSTORE PUSH1 0x32 PUSH1 0x4 MSTORE PUSH1 0x24 PUSH0 REVERT INVALID LOG2 PUSH5 0x6970667358 0x22 SLT KECCAK256 BALANCE 0xC 0xED DUP8 0xBE 0xED COINBASE MSTORE ADDRESS BYTE GASLIMIT NUMBER 0xBA MCOPY JUMPI PUSH30 0x84654C00072C20D2F787A9DA8394B1164736F6C634300081E0033000000 "
				},
				"gasEstimates": {
					"creation": {
						"codeDepositCost": "431000",
						"executionCost": "466",
						"totalCost": "431466"
					},
					"external": {
						"add(uint256[])": "infinite",
						"getjob(uint256)": "infinite",
						"jobs(uint256)": "infinite",
						"submitMilestone(uint256,uint256)": "infinite"
					}
				},
				"methodIdentifiers": {
					"add(uint256[])": "10b0b5d5",
					"getjob(uint256)": "65c498ab",
					"jobs(uint256)": "180aedf3",
					"submitMilestone(uint256,uint256)": "0875b784"
				}
			},
			"storageLayout": {
				"storage": [
					{
						"astId": 19,
						"contract": "contracts/demo.sol:Demo",
						"label": "jobId",
						"offset": 0,
						"slot": "0",
						"type": "t_uint256"
					},
					{
						"astId": 31,
						"contract": "contracts/demo.sol:Demo",
						"label": "jobs",
						"offset": 0,
						"slot": "1",
						"type": "t_mapping(t_uint256,t_struct(Job)26_storage)"
					}
				],
				"types": {
					"t_array(t_struct(MileStone)13_storage)dyn_storage": {
						"base": "t_struct(MileStone)13_storage",
						"encoding": "dynamic_array",
						"label": "struct Demo.MileStone[]",
						"numberOfBytes": "32"
					},
					"t_bool": {
						"encoding": "inplace",
						"label": "bool",
						"numberOfBytes": "1"
					},
					"t_enum(MileStatus)17": {
						"encoding": "inplace",
						"label": "enum Demo.MileStatus",
						"numberOfBytes": "1"
					},
					"t_mapping(t_uint256,t_struct(Job)26_storage)": {
						"encoding": "mapping",
						"key": "t_uint256",
						"label": "mapping(uint256 => struct Demo.Job)",
						"numberOfBytes": "32",
						"value": "t_struct(Job)26_storage"
					},
					"t_struct(Job)26_storage": {
						"encoding": "inplace",
						"label": "struct Demo.Job",
						"members": [
							{
								"astId": 21,
								"contract": "contracts/demo.sol:Demo",
								"label": "id",
								"offset": 0,
								"slot": "0",
								"type": "t_uint256"
							},
							{
								"astId": 25,
								"contract": "contracts/demo.sol:Demo",
								"label": "milestones",
								"offset": 0,
								"slot": "1",
								"type": "t_array(t_struct(MileStone)13_storage)dyn_storage"
							}
						],
						"numberOfBytes": "64"
					},
					"t_struct(MileStone)13_storage": {
						"encoding": "inplace",
						"label": "struct Demo.MileStone",
						"members": [
							{
								"astId": 7,
								"contract": "contracts/demo.sol:Demo",
								"label": "amount",
								"offset": 0,
								"slot": "0",
								"type": "t_uint256"
							},
							{
								"astId": 9,
								"contract": "contracts/demo.sol:Demo",
								"label": "paid",
								"offset": 0,
								"slot": "1",
								"type": "t_bool"
							},
							{
								"astId": 12,
								"contract": "contracts/demo.sol:Demo",
								"label": "milesta",
								"offset": 1,
								"slot": "1",
								"type": "t_enum(MileStatus)17"
							}
						],
						"numberOfBytes": "64"
					},
					"t_uint256": {
						"encoding": "inplace",
						"label": "uint256",
						"numberOfBytes": "32"
					}
				}
			},
			"userdoc": {
				"kind": "user",
				"methods": {},
				"version": 1
			}
		}
	}
}