{
	"contracts/vesting.sol": {
		"VestingToken": {
			"abi": [
				{
					"inputs": [
						{
							"internalType": "address",
							"name": "_nxtAddress",
							"type": "address"
						},
						{
							"internalType": "uint256",
							"name": "_duration",
							"type": "uint256"
						},
						{
							"internalType": "uint256",
							"name": "_cliff",
							"type": "uint256"
						},
						{
							"internalType": "uint8",
							"name": "_unit",
							"type": "uint8"
						}
					],
					"stateMutability": "nonpayable",
					"type": "constructor"
				},
				{
					"inputs": [],
					"name": "CliffMustExceedDuration",
					"type": "error"
				},
				{
					"inputs": [],
					"name": "DurationMustBeGreaterThanZero",
					"type": "error"
				},
				{
					"inputs": [],
					"name": "InvalidTimeUnit",
					"type": "error"
				},
				{
					"inputs": [
						{
							"internalType": "address",
							"name": "",
							"type": "address"
						}
					],
					"name": "allocation",
					"outputs": [
						{
							"internalType": "uint256",
							"name": "",
							"type": "uint256"
						}
					],
					"stateMutability": "view",
					"type": "function"
				},
				{
					"inputs": [
						{
							"internalType": "address",
							"name": "",
							"type": "address"
						}
					],
					"name": "claimed",
					"outputs": [
						{
							"internalType": "uint256",
							"name": "",
							"type": "uint256"
						}
					],
					"stateMutability": "view",
					"type": "function"
				},
				{
					"inputs": [],
					"name": "i_cliff",
					"outputs": [
						{
							"internalType": "uint256",
							"name": "",
							"type": "uint256"
						}
					],
					"stateMutability": "view",
					"type": "function"
				},
				{
					"inputs": [],
					"name": "i_duration",
					"outputs": [
						{
							"internalType": "uint256",
							"name": "",
							"type": "uint256"
						}
					],
					"stateMutability": "view",
					"type": "function"
				},
				{
					"inputs": [],
					"name": "i_owner",
					"outputs": [
						{
							"internalType": "address",
							"name": "",
							"type": "address"
						}
					],
					"stateMutability": "view",
					"type": "function"
				},
				{
					"inputs": [],
					"name": "i_startTime",
					"outputs": [
						{
							"internalType": "uint256",
							"name": "",
							"type": "uint256"
						}
					],
					"stateMutability": "view",
					"type": "function"
				},
				{
					"inputs": [],
					"name": "i_token",
					"outputs": [
						{
							"internalType": "contract IERC20",
							"name": "",
							"type": "address"
						}
					],
					"stateMutability": "view",
					"type": "function"
				},
				{
					"inputs": [],
					"name": "totalAllocation",
					"outputs": [
						{
							"internalType": "uint256",
							"name": "",
							"type": "uint256"
						}
					],
					"stateMutability": "view",
					"type": "function"
				}
			],
			"devdoc": {
				"kind": "dev",
				"methods": {},
				"version": 1
			},
			"evm": {
				"assembly": "    /* \"contracts/vesting.sol\":147:4226  contract VestingToken{... */\n  mstore(0x40, 0x0120)\n    /* \"contracts/vesting.sol\":757:1525  constructor(address _nxtAddress, uint256 _duration, uint256 _cliff, uint8 _unit){... */\n  callvalue\n  dup1\n  iszero\n  tag_1\n  jumpi\n  revert(0x00, 0x00)\ntag_1:\n  pop\n  mload(0x40)\n  sub(codesize, bytecodeSize)\n  dup1\n  bytecodeSize\n  dup4\n  codecopy\n  dup2\n  dup2\n  add\n  0x40\n  mstore\n  dup2\n  add\n  swap1\n  tag_2\n  swap2\n  swap1\n  tag_3\n  jump\t// in\ntag_2:\n    /* \"contracts/vesting.sol\":874:875  0 */\n  0x00\n    /* \"contracts/vesting.sol\":861:870  _duration */\n  dup4\n    /* \"contracts/vesting.sol\":861:875  _duration == 0 */\n  sub\n    /* \"contracts/vesting.sol\":858:915  if(_duration == 0) revert DurationMustBeGreaterThanZero() */\n  tag_6\n  jumpi\n    /* \"contracts/vesting.sol\":884:915  DurationMustBeGreaterThanZero() */\n  mload(0x40)\n  0xcf478f2300000000000000000000000000000000000000000000000000000000\n  dup2\n  mstore\n  0x04\n  add\n  mload(0x40)\n  dup1\n  swap2\n  sub\n  swap1\n  revert\n    /* \"contracts/vesting.sol\":858:915  if(_duration == 0) revert DurationMustBeGreaterThanZero() */\ntag_6:\n    /* \"contracts/vesting.sol\":939:940  1 */\n  0x01\n    /* \"contracts/vesting.sol\":931:936  _unit */\n  dup2\n    /* \"contracts/vesting.sol\":931:940  _unit < 1 */\n  0xff\n  and\n  lt\n    /* \"contracts/vesting.sol\":931:953  _unit < 1 || _unit < 4 */\n  dup1\n  tag_7\n  jumpi\n  pop\n    /* \"contracts/vesting.sol\":952:953  4 */\n  0x04\n    /* \"contracts/vesting.sol\":944:949  _unit */\n  dup2\n    /* \"contracts/vesting.sol\":944:953  _unit < 4 */\n  0xff\n  and\n  lt\n    /* \"contracts/vesting.sol\":931:953  _unit < 1 || _unit < 4 */\ntag_7:\n    /* \"contracts/vesting.sol\":928:980  if(_unit < 1 || _unit < 4)  revert InvalidTimeUnit() */\n  iszero\n  tag_8\n  jumpi\n    /* \"contracts/vesting.sol\":963:980  InvalidTimeUnit() */\n  mload(0x40)\n  0x2b3f1e6e00000000000000000000000000000000000000000000000000000000\n  dup2\n  mstore\n  0x04\n  add\n  mload(0x40)\n  dup1\n  swap2\n  sub\n  swap1\n  revert\n    /* \"contracts/vesting.sol\":928:980  if(_unit < 1 || _unit < 4)  revert InvalidTimeUnit() */\ntag_8:\n    /* \"contracts/vesting.sol\":1013:1022  _duration */\n  dup3\n    /* \"contracts/vesting.sol\":1004:1010  _cliff */\n  dup3\n    /* \"contracts/vesting.sol\":1004:1022  _cliff > _duration */\n  gt\n    /* \"contracts/vesting.sol\":1001:1056  if(_cliff > _duration) revert CliffMustExceedDuration() */\n  iszero\n  tag_9\n  jumpi\n    /* \"contracts/vesting.sol\":1031:1056  CliffMustExceedDuration() */\n  mload(0x40)\n  0x3be41dfe00000000000000000000000000000000000000000000000000000000\n  dup2\n  mstore\n  0x04\n  add\n  mload(0x40)\n  dup1\n  swap2\n  sub\n  swap1\n  revert\n    /* \"contracts/vesting.sol\":1001:1056  if(_cliff > _duration) revert CliffMustExceedDuration() */\ntag_9:\n    /* \"contracts/vesting.sol\":1089:1100  _nxtAddress */\n  dup4\n    /* \"contracts/vesting.sol\":1072:1101  i_token = IERC20(_nxtAddress) */\n  0xffffffffffffffffffffffffffffffffffffffff\n  and\n  0x80\n  dup2\n  0xffffffffffffffffffffffffffffffffffffffff\n  and\n  dup2\n  mstore\n  pop\n  pop\n    /* \"contracts/vesting.sol\":1122:1132  msg.sender */\n  caller\n    /* \"contracts/vesting.sol\":1112:1132  i_owner = msg.sender */\n  0xffffffffffffffffffffffffffffffffffffffff\n  and\n  0xa0\n  dup2\n  0xffffffffffffffffffffffffffffffffffffffff\n  and\n  dup2\n  mstore\n  pop\n  pop\n    /* \"contracts/vesting.sol\":1157:1172  block.timestamp */\n  timestamp\n    /* \"contracts/vesting.sol\":1143:1172  i_startTime = block.timestamp */\n  0xc0\n  dup2\n  dup2\n  mstore\n  pop\n  pop\n    /* \"contracts/vesting.sol\":1185:1203  uint256  mutiplier */\n  0x00\n    /* \"contracts/vesting.sol\":1229:1230  1 */\n  0x01\n    /* \"contracts/vesting.sol\":1220:1225  _unit */\n  dup3\n    /* \"contracts/vesting.sol\":1220:1230  _unit == 1 */\n  0xff\n  and\n  eq\n    /* \"contracts/vesting.sol\":1220:1368  _unit == 1 ? 1 :         //seconds... */\n  tag_10\n  jumpi\n    /* \"contracts/vesting.sol\":1277:1278  2 */\n  0x02\n    /* \"contracts/vesting.sol\":1268:1273  _unit */\n  dup3\n    /* \"contracts/vesting.sol\":1268:1278  _unit == 2 */\n  0xff\n  and\n  eq\n    /* \"contracts/vesting.sol\":1268:1368  _unit == 2 ? 60 :        //minutes... */\n  tag_11\n  jumpi\n    /* \"contracts/vesting.sol\":1325:1326  3 */\n  0x03\n    /* \"contracts/vesting.sol\":1316:1321  _unit */\n  dup3\n    /* \"contracts/vesting.sol\":1316:1326  _unit == 3 */\n  0xff\n  and\n  eq\n    /* \"contracts/vesting.sol\":1316:1368  _unit == 3 ? 3600 :      // hours... */\n  tag_12\n  jumpi\n    /* \"contracts/vesting.sol\":1363:1368  86400 */\n  0x015180\n    /* \"contracts/vesting.sol\":1316:1368  _unit == 3 ? 3600 :      // hours... */\n  jump(tag_13)\ntag_12:\n    /* \"contracts/vesting.sol\":1329:1333  3600 */\n  0x0e10\n    /* \"contracts/vesting.sol\":1316:1368  _unit == 3 ? 3600 :      // hours... */\ntag_13:\n    /* \"contracts/vesting.sol\":1268:1368  _unit == 2 ? 60 :        //minutes... */\n  jump(tag_14)\ntag_11:\n    /* \"contracts/vesting.sol\":1281:1283  60 */\n  0x3c\n    /* \"contracts/vesting.sol\":1268:1368  _unit == 2 ? 60 :        //minutes... */\ntag_14:\n    /* \"contracts/vesting.sol\":1220:1368  _unit == 1 ? 1 :         //seconds... */\n  jump(tag_15)\ntag_10:\n    /* \"contracts/vesting.sol\":1233:1234  1 */\n  0x01\n    /* \"contracts/vesting.sol\":1220:1368  _unit == 1 ? 1 :         //seconds... */\ntag_15:\n    /* \"contracts/vesting.sol\":1185:1368  uint256  mutiplier = ... */\n  0xffffff\n  and\n  swap1\n  pop\n    /* \"contracts/vesting.sol\":1459:1468  mutiplier */\n  dup1\n    /* \"contracts/vesting.sol\":1447:1456  _duration */\n  dup5\n    /* \"contracts/vesting.sol\":1447:1468  _duration * mutiplier */\n  tag_16\n  swap2\n  swap1\n  tag_17\n  jump\t// in\ntag_16:\n    /* \"contracts/vesting.sol\":1434:1468  i_duration = _duration * mutiplier */\n  0xe0\n  dup2\n  dup2\n  mstore\n  pop\n  pop\n    /* \"contracts/vesting.sol\":1498:1507  mutiplier */\n  dup1\n    /* \"contracts/vesting.sol\":1489:1495  _cliff */\n  dup4\n    /* \"contracts/vesting.sol\":1489:1507  _cliff * mutiplier */\n  tag_18\n  swap2\n  swap1\n  tag_17\n  jump\t// in\ntag_18:\n    /* \"contracts/vesting.sol\":1479:1507  i_cliff = _cliff * mutiplier */\n  0x0100\n  dup2\n  dup2\n  mstore\n  pop\n  pop\n    /* \"contracts/vesting.sol\":837:1525  {... */\n  pop\n    /* \"contracts/vesting.sol\":757:1525  constructor(address _nxtAddress, uint256 _duration, uint256 _cliff, uint8 _unit){... */\n  pop\n  pop\n  pop\n  pop\n    /* \"contracts/vesting.sol\":147:4226  contract VestingToken{... */\n  jump(tag_19)\n    /* \"#utility.yul\":88:205   */\ntag_21:\n    /* \"#utility.yul\":197:198   */\n  0x00\n    /* \"#utility.yul\":194:195   */\n  0x00\n    /* \"#utility.yul\":187:199   */\n  revert\n    /* \"#utility.yul\":334:460   */\ntag_23:\n    /* \"#utility.yul\":371:378   */\n  0x00\n    /* \"#utility.yul\":411:453   */\n  0xffffffffffffffffffffffffffffffffffffffff\n    /* \"#utility.yul\":404:409   */\n  dup3\n    /* \"#utility.yul\":400:454   */\n  and\n    /* \"#utility.yul\":389:454   */\n  swap1\n  pop\n    /* \"#utility.yul\":334:460   */\n  swap2\n  swap1\n  pop\n  jump\t// out\n    /* \"#utility.yul\":466:562   */\ntag_24:\n    /* \"#utility.yul\":503:510   */\n  0x00\n    /* \"#utility.yul\":532:556   */\n  tag_40\n    /* \"#utility.yul\":550:555   */\n  dup3\n    /* \"#utility.yul\":532:556   */\n  tag_23\n  jump\t// in\ntag_40:\n    /* \"#utility.yul\":521:556   */\n  swap1\n  pop\n    /* \"#utility.yul\":466:562   */\n  swap2\n  swap1\n  pop\n  jump\t// out\n    /* \"#utility.yul\":568:690   */\ntag_25:\n    /* \"#utility.yul\":641:665   */\n  tag_42\n    /* \"#utility.yul\":659:664   */\n  dup2\n    /* \"#utility.yul\":641:665   */\n  tag_24\n  jump\t// in\ntag_42:\n    /* \"#utility.yul\":634:639   */\n  dup2\n    /* \"#utility.yul\":631:666   */\n  eq\n    /* \"#utility.yul\":621:684   */\n  tag_43\n  jumpi\n    /* \"#utility.yul\":680:681   */\n  0x00\n    /* \"#utility.yul\":677:678   */\n  0x00\n    /* \"#utility.yul\":670:682   */\n  revert\n    /* \"#utility.yul\":621:684   */\ntag_43:\n    /* \"#utility.yul\":568:690   */\n  pop\n  jump\t// out\n    /* \"#utility.yul\":696:839   */\ntag_26:\n    /* \"#utility.yul\":753:758   */\n  0x00\n    /* \"#utility.yul\":784:790   */\n  dup2\n    /* \"#utility.yul\":778:791   */\n  mload\n    /* \"#utility.yul\":769:791   */\n  swap1\n  pop\n    /* \"#utility.yul\":800:833   */\n  tag_45\n    /* \"#utility.yul\":827:832   */\n  dup2\n    /* \"#utility.yul\":800:833   */\n  tag_25\n  jump\t// in\ntag_45:\n    /* \"#utility.yul\":696:839   */\n  swap3\n  swap2\n  pop\n  pop\n  jump\t// out\n    /* \"#utility.yul\":845:922   */\ntag_27:\n    /* \"#utility.yul\":882:889   */\n  0x00\n    /* \"#utility.yul\":911:916   */\n  dup2\n    /* \"#utility.yul\":900:916   */\n  swap1\n  pop\n    /* \"#utility.yul\":845:922   */\n  swap2\n  swap1\n  pop\n  jump\t// out\n    /* \"#utility.yul\":928:1050   */\ntag_28:\n    /* \"#utility.yul\":1001:1025   */\n  tag_48\n    /* \"#utility.yul\":1019:1024   */\n  dup2\n    /* \"#utility.yul\":1001:1025   */\n  tag_27\n  jump\t// in\ntag_48:\n    /* \"#utility.yul\":994:999   */\n  dup2\n    /* \"#utility.yul\":991:1026   */\n  eq\n    /* \"#utility.yul\":981:1044   */\n  tag_49\n  jumpi\n    /* \"#utility.yul\":1040:1041   */\n  0x00\n    /* \"#utility.yul\":1037:1038   */\n  0x00\n    /* \"#utility.yul\":1030:1042   */\n  revert\n    /* \"#utility.yul\":981:1044   */\ntag_49:\n    /* \"#utility.yul\":928:1050   */\n  pop\n  jump\t// out\n    /* \"#utility.yul\":1056:1199   */\ntag_29:\n    /* \"#utility.yul\":1113:1118   */\n  0x00\n    /* \"#utility.yul\":1144:1150   */\n  dup2\n    /* \"#utility.yul\":1138:1151   */\n  mload\n    /* \"#utility.yul\":1129:1151   */\n  swap1\n  pop\n    /* \"#utility.yul\":1160:1193   */\n  tag_51\n    /* \"#utility.yul\":1187:1192   */\n  dup2\n    /* \"#utility.yul\":1160:1193   */\n  tag_28\n  jump\t// in\ntag_51:\n    /* \"#utility.yul\":1056:1199   */\n  swap3\n  swap2\n  pop\n  pop\n  jump\t// out\n    /* \"#utility.yul\":1205:1291   */\ntag_30:\n    /* \"#utility.yul\":1240:1247   */\n  0x00\n    /* \"#utility.yul\":1280:1284   */\n  0xff\n    /* \"#utility.yul\":1273:1278   */\n  dup3\n    /* \"#utility.yul\":1269:1285   */\n  and\n    /* \"#utility.yul\":1258:1285   */\n  swap1\n  pop\n    /* \"#utility.yul\":1205:1291   */\n  swap2\n  swap1\n  pop\n  jump\t// out\n    /* \"#utility.yul\":1297:1415   */\ntag_31:\n    /* \"#utility.yul\":1368:1390   */\n  tag_54\n    /* \"#utility.yul\":1384:1389   */\n  dup2\n    /* \"#utility.yul\":1368:1390   */\n  tag_30\n  jump\t// in\ntag_54:\n    /* \"#utility.yul\":1361:1366   */\n  dup2\n    /* \"#utility.yul\":1358:1391   */\n  eq\n    /* \"#utility.yul\":1348:1409   */\n  tag_55\n  jumpi\n    /* \"#utility.yul\":1405:1406   */\n  0x00\n    /* \"#utility.yul\":1402:1403   */\n  0x00\n    /* \"#utility.yul\":1395:1407   */\n  revert\n    /* \"#utility.yul\":1348:1409   */\ntag_55:\n    /* \"#utility.yul\":1297:1415   */\n  pop\n  jump\t// out\n    /* \"#utility.yul\":1421:1560   */\ntag_32:\n    /* \"#utility.yul\":1476:1481   */\n  0x00\n    /* \"#utility.yul\":1507:1513   */\n  dup2\n    /* \"#utility.yul\":1501:1514   */\n  mload\n    /* \"#utility.yul\":1492:1514   */\n  swap1\n  pop\n    /* \"#utility.yul\":1523:1554   */\n  tag_57\n    /* \"#utility.yul\":1548:1553   */\n  dup2\n    /* \"#utility.yul\":1523:1554   */\n  tag_31\n  jump\t// in\ntag_57:\n    /* \"#utility.yul\":1421:1560   */\n  swap3\n  swap2\n  pop\n  pop\n  jump\t// out\n    /* \"#utility.yul\":1566:2382   */\ntag_3:\n    /* \"#utility.yul\":1661:1667   */\n  0x00\n    /* \"#utility.yul\":1669:1675   */\n  0x00\n    /* \"#utility.yul\":1677:1683   */\n  0x00\n    /* \"#utility.yul\":1685:1691   */\n  0x00\n    /* \"#utility.yul\":1734:1737   */\n  0x80\n    /* \"#utility.yul\":1722:1731   */\n  dup6\n    /* \"#utility.yul\":1713:1720   */\n  dup8\n    /* \"#utility.yul\":1709:1732   */\n  sub\n    /* \"#utility.yul\":1705:1738   */\n  slt\n    /* \"#utility.yul\":1702:1822   */\n  iszero\n  tag_59\n  jumpi\n    /* \"#utility.yul\":1741:1820   */\n  tag_60\n  tag_21\n  jump\t// in\ntag_60:\n    /* \"#utility.yul\":1702:1822   */\ntag_59:\n    /* \"#utility.yul\":1861:1862   */\n  0x00\n    /* \"#utility.yul\":1886:1950   */\n  tag_61\n    /* \"#utility.yul\":1942:1949   */\n  dup8\n    /* \"#utility.yul\":1933:1939   */\n  dup3\n    /* \"#utility.yul\":1922:1931   */\n  dup9\n    /* \"#utility.yul\":1918:1940   */\n  add\n    /* \"#utility.yul\":1886:1950   */\n  tag_26\n  jump\t// in\ntag_61:\n    /* \"#utility.yul\":1876:1950   */\n  swap5\n  pop\n    /* \"#utility.yul\":1832:1960   */\n  pop\n    /* \"#utility.yul\":1999:2001   */\n  0x20\n    /* \"#utility.yul\":2025:2089   */\n  tag_62\n    /* \"#utility.yul\":2081:2088   */\n  dup8\n    /* \"#utility.yul\":2072:2078   */\n  dup3\n    /* \"#utility.yul\":2061:2070   */\n  dup9\n    /* \"#utility.yul\":2057:2079   */\n  add\n    /* \"#utility.yul\":2025:2089   */\n  tag_29\n  jump\t// in\ntag_62:\n    /* \"#utility.yul\":2015:2089   */\n  swap4\n  pop\n    /* \"#utility.yul\":1970:2099   */\n  pop\n    /* \"#utility.yul\":2138:2140   */\n  0x40\n    /* \"#utility.yul\":2164:2228   */\n  tag_63\n    /* \"#utility.yul\":2220:2227   */\n  dup8\n    /* \"#utility.yul\":2211:2217   */\n  dup3\n    /* \"#utility.yul\":2200:2209   */\n  dup9\n    /* \"#utility.yul\":2196:2218   */\n  add\n    /* \"#utility.yul\":2164:2228   */\n  tag_29\n  jump\t// in\ntag_63:\n    /* \"#utility.yul\":2154:2228   */\n  swap3\n  pop\n    /* \"#utility.yul\":2109:2238   */\n  pop\n    /* \"#utility.yul\":2277:2279   */\n  0x60\n    /* \"#utility.yul\":2303:2365   */\n  tag_64\n    /* \"#utility.yul\":2357:2364   */\n  dup8\n    /* \"#utility.yul\":2348:2354   */\n  dup3\n    /* \"#utility.yul\":2337:2346   */\n  dup9\n    /* \"#utility.yul\":2333:2355   */\n  add\n    /* \"#utility.yul\":2303:2365   */\n  tag_32\n  jump\t// in\ntag_64:\n    /* \"#utility.yul\":2293:2365   */\n  swap2\n  pop\n    /* \"#utility.yul\":2248:2375   */\n  pop\n    /* \"#utility.yul\":1566:2382   */\n  swap3\n  swap6\n  swap2\n  swap5\n  pop\n  swap3\n  pop\n  jump\t// out\n    /* \"#utility.yul\":2388:2568   */\ntag_33:\n    /* \"#utility.yul\":2436:2513   */\n  0x4e487b7100000000000000000000000000000000000000000000000000000000\n    /* \"#utility.yul\":2433:2434   */\n  0x00\n    /* \"#utility.yul\":2426:2514   */\n  mstore\n    /* \"#utility.yul\":2533:2537   */\n  0x11\n    /* \"#utility.yul\":2530:2531   */\n  0x04\n    /* \"#utility.yul\":2523:2538   */\n  mstore\n    /* \"#utility.yul\":2557:2561   */\n  0x24\n    /* \"#utility.yul\":2554:2555   */\n  0x00\n    /* \"#utility.yul\":2547:2562   */\n  revert\n    /* \"#utility.yul\":2574:2984   */\ntag_17:\n    /* \"#utility.yul\":2614:2621   */\n  0x00\n    /* \"#utility.yul\":2637:2657   */\n  tag_67\n    /* \"#utility.yul\":2655:2656   */\n  dup3\n    /* \"#utility.yul\":2637:2657   */\n  tag_27\n  jump\t// in\ntag_67:\n    /* \"#utility.yul\":2632:2657   */\n  swap2\n  pop\n    /* \"#utility.yul\":2671:2691   */\n  tag_68\n    /* \"#utility.yul\":2689:2690   */\n  dup4\n    /* \"#utility.yul\":2671:2691   */\n  tag_27\n  jump\t// in\ntag_68:\n    /* \"#utility.yul\":2666:2691   */\n  swap3\n  pop\n    /* \"#utility.yul\":2726:2727   */\n  dup3\n    /* \"#utility.yul\":2723:2724   */\n  dup3\n    /* \"#utility.yul\":2719:2728   */\n  mul\n    /* \"#utility.yul\":2748:2778   */\n  tag_69\n    /* \"#utility.yul\":2766:2777   */\n  dup2\n    /* \"#utility.yul\":2748:2778   */\n  tag_27\n  jump\t// in\ntag_69:\n    /* \"#utility.yul\":2737:2778   */\n  swap2\n  pop\n    /* \"#utility.yul\":2927:2928   */\n  dup3\n    /* \"#utility.yul\":2918:2925   */\n  dup3\n    /* \"#utility.yul\":2914:2929   */\n  div\n    /* \"#utility.yul\":2911:2912   */\n  dup5\n    /* \"#utility.yul\":2908:2930   */\n  eq\n    /* \"#utility.yul\":2888:2889   */\n  dup4\n    /* \"#utility.yul\":2881:2890   */\n  iszero\n    /* \"#utility.yul\":2861:2944   */\n  or\n    /* \"#utility.yul\":2838:2977   */\n  tag_70\n  jumpi\n    /* \"#utility.yul\":2957:2975   */\n  tag_71\n  tag_33\n  jump\t// in\ntag_71:\n    /* \"#utility.yul\":2838:2977   */\ntag_70:\n    /* \"#utility.yul\":2622:2984   */\n  pop\n    /* \"#utility.yul\":2574:2984   */\n  swap3\n  swap2\n  pop\n  pop\n  jump\t// out\n    /* \"contracts/vesting.sol\":147:4226  contract VestingToken{... */\ntag_19:\n  mload(0x80)\n  mload(0xa0)\n  mload(0xc0)\n  mload(0xe0)\n  mload(0x0100)\n  codecopy(0x00, dataOffset(sub_0), dataSize(sub_0))\n  0x00\n  assignImmutable(\"0x9fc1ee6eadd67a54527f8d0704f8da30e58e7e115f3c3a09267ee1b121a8cd57\")\n  0x00\n  assignImmutable(\"0xecb3d63bca2dac2f15cfd948f18f200abecc477e6036fc1499f13da50bed1ba1\")\n  0x00\n  assignImmutable(\"0x2e5129c19be59da29ff89133759e8d7e21d926bf22eda9cdfd27c0cd8774b8c2\")\n  0x00\n  assignImmutable(\"0x2a9063ed52b7d417e441f378325359c9ce274f5d6c3ecf11b7d42f24b9c90b7f\")\n  0x00\n  assignImmutable(\"0x8c18210df0d9514f2d2e5d8ca7c100978219ee80d3968ad850ab5ead208287b3\")\n  return(0x00, dataSize(sub_0))\nstop\n\nsub_0: assembly {\n        /* \"contracts/vesting.sol\":147:4226  contract VestingToken{... */\n      mstore(0x40, 0x80)\n      callvalue\n      dup1\n      iszero\n      tag_1\n      jumpi\n      revert(0x00, 0x00)\n    tag_1:\n      pop\n      jumpi(tag_2, lt(calldatasize, 0x04))\n      shr(0xe0, calldataload(0x00))\n      dup1\n      0x9608b232\n      gt\n      tag_11\n      jumpi\n      dup1\n      0x9608b232\n      eq\n      tag_7\n      jumpi\n      dup1\n      0xb81b8630\n      eq\n      tag_8\n      jumpi\n      dup1\n      0xc884ef83\n      eq\n      tag_9\n      jumpi\n      dup1\n      0xdba6335f\n      eq\n      tag_10\n      jumpi\n      jump(tag_2)\n    tag_11:\n      dup1\n      0x16bc8977\n      eq\n      tag_3\n      jumpi\n      dup1\n      0x4eafd241\n      eq\n      tag_4\n      jumpi\n      dup1\n      0x73863a3f\n      eq\n      tag_5\n      jumpi\n      dup1\n      0x79203dc4\n      eq\n      tag_6\n      jumpi\n    tag_2:\n      revert(0x00, 0x00)\n        /* \"contracts/vesting.sol\":254:290  uint256 public immutable i_startTime */\n    tag_3:\n      tag_12\n      tag_13\n      jump\t// in\n    tag_12:\n      mload(0x40)\n      tag_14\n      swap2\n      swap1\n      tag_15\n      jump\t// in\n    tag_14:\n      mload(0x40)\n      dup1\n      swap2\n      sub\n      swap1\n      return\n        /* \"contracts/vesting.sol\":315:350  uint256 public immutable i_duration */\n    tag_4:\n      tag_16\n      tag_17\n      jump\t// in\n    tag_16:\n      mload(0x40)\n      tag_18\n      swap2\n      swap1\n      tag_15\n      jump\t// in\n    tag_18:\n      mload(0x40)\n      dup1\n      swap2\n      sub\n      swap1\n      return\n        /* \"contracts/vesting.sol\":396:428  uint256 public immutable i_cliff */\n    tag_5:\n      tag_19\n      tag_20\n      jump\t// in\n    tag_19:\n      mload(0x40)\n      tag_21\n      swap2\n      swap1\n      tag_15\n      jump\t// in\n    tag_21:\n      mload(0x40)\n      dup1\n      swap2\n      sub\n      swap1\n      return\n        /* \"contracts/vesting.sol\":474:504  uint256 public totalAllocation */\n    tag_6:\n      tag_22\n      tag_23\n      jump\t// in\n    tag_22:\n      mload(0x40)\n      tag_24\n      swap2\n      swap1\n      tag_15\n      jump\t// in\n    tag_24:\n      mload(0x40)\n      dup1\n      swap2\n      sub\n      swap1\n      return\n        /* \"contracts/vesting.sol\":175:206  IERC20 public immutable i_token */\n    tag_7:\n      tag_25\n      tag_26\n      jump\t// in\n    tag_25:\n      mload(0x40)\n      tag_27\n      swap2\n      swap1\n      tag_28\n      jump\t// in\n    tag_27:\n      mload(0x40)\n      dup1\n      swap2\n      sub\n      swap1\n      return\n        /* \"contracts/vesting.sol\":542:587  mapping(address => uint256) public allocation */\n    tag_8:\n      tag_29\n      0x04\n      dup1\n      calldatasize\n      sub\n      dup2\n      add\n      swap1\n      tag_30\n      swap2\n      swap1\n      tag_31\n      jump\t// in\n    tag_30:\n      tag_32\n      jump\t// in\n    tag_29:\n      mload(0x40)\n      tag_33\n      swap2\n      swap1\n      tag_15\n      jump\t// in\n    tag_33:\n      mload(0x40)\n      dup1\n      swap2\n      sub\n      swap1\n      return\n        /* \"contracts/vesting.sol\":594:636  mapping(address => uint256) public claimed */\n    tag_9:\n      tag_34\n      0x04\n      dup1\n      calldatasize\n      sub\n      dup2\n      add\n      swap1\n      tag_35\n      swap2\n      swap1\n      tag_31\n      jump\t// in\n    tag_35:\n      tag_36\n      jump\t// in\n    tag_34:\n      mload(0x40)\n      tag_37\n      swap2\n      swap1\n      tag_15\n      jump\t// in\n    tag_37:\n      mload(0x40)\n      dup1\n      swap2\n      sub\n      swap1\n      return\n        /* \"contracts/vesting.sol\":213:245  address public immutable i_owner */\n    tag_10:\n      tag_38\n      tag_39\n      jump\t// in\n    tag_38:\n      mload(0x40)\n      tag_40\n      swap2\n      swap1\n      tag_41\n      jump\t// in\n    tag_40:\n      mload(0x40)\n      dup1\n      swap2\n      sub\n      swap1\n      return\n        /* \"contracts/vesting.sol\":254:290  uint256 public immutable i_startTime */\n    tag_13:\n      immutable(\"0x2e5129c19be59da29ff89133759e8d7e21d926bf22eda9cdfd27c0cd8774b8c2\")\n      dup2\n      jump\t// out\n        /* \"contracts/vesting.sol\":315:350  uint256 public immutable i_duration */\n    tag_17:\n      immutable(\"0xecb3d63bca2dac2f15cfd948f18f200abecc477e6036fc1499f13da50bed1ba1\")\n      dup2\n      jump\t// out\n        /* \"contracts/vesting.sol\":396:428  uint256 public immutable i_cliff */\n    tag_20:\n      immutable(\"0x9fc1ee6eadd67a54527f8d0704f8da30e58e7e115f3c3a09267ee1b121a8cd57\")\n      dup2\n      jump\t// out\n        /* \"contracts/vesting.sol\":474:504  uint256 public totalAllocation */\n    tag_23:\n      sload(0x00)\n      dup2\n      jump\t// out\n        /* \"contracts/vesting.sol\":175:206  IERC20 public immutable i_token */\n    tag_26:\n      immutable(\"0x8c18210df0d9514f2d2e5d8ca7c100978219ee80d3968ad850ab5ead208287b3\")\n      dup2\n      jump\t// out\n        /* \"contracts/vesting.sol\":542:587  mapping(address => uint256) public allocation */\n    tag_32:\n      mstore(0x20, 0x01)\n      dup1\n      0x00\n      mstore\n      keccak256(0x00, 0x40)\n      0x00\n      swap2\n      pop\n      swap1\n      pop\n      sload\n      dup2\n      jump\t// out\n        /* \"contracts/vesting.sol\":594:636  mapping(address => uint256) public claimed */\n    tag_36:\n      mstore(0x20, 0x02)\n      dup1\n      0x00\n      mstore\n      keccak256(0x00, 0x40)\n      0x00\n      swap2\n      pop\n      swap1\n      pop\n      sload\n      dup2\n      jump\t// out\n        /* \"contracts/vesting.sol\":213:245  address public immutable i_owner */\n    tag_39:\n      immutable(\"0x2a9063ed52b7d417e441f378325359c9ce274f5d6c3ecf11b7d42f24b9c90b7f\")\n      dup2\n      jump\t// out\n        /* \"#utility.yul\":7:84   */\n    tag_42:\n        /* \"#utility.yul\":44:51   */\n      0x00\n        /* \"#utility.yul\":73:78   */\n      dup2\n        /* \"#utility.yul\":62:78   */\n      swap1\n      pop\n        /* \"#utility.yul\":7:84   */\n      swap2\n      swap1\n      pop\n      jump\t// out\n        /* \"#utility.yul\":90:208   */\n    tag_43:\n        /* \"#utility.yul\":177:201   */\n      tag_60\n        /* \"#utility.yul\":195:200   */\n      dup2\n        /* \"#utility.yul\":177:201   */\n      tag_42\n      jump\t// in\n    tag_60:\n        /* \"#utility.yul\":172:175   */\n      dup3\n        /* \"#utility.yul\":165:202   */\n      mstore\n        /* \"#utility.yul\":90:208   */\n      pop\n      pop\n      jump\t// out\n        /* \"#utility.yul\":214:436   */\n    tag_15:\n        /* \"#utility.yul\":307:311   */\n      0x00\n        /* \"#utility.yul\":345:347   */\n      0x20\n        /* \"#utility.yul\":334:343   */\n      dup3\n        /* \"#utility.yul\":330:348   */\n      add\n        /* \"#utility.yul\":322:348   */\n      swap1\n      pop\n        /* \"#utility.yul\":358:429   */\n      tag_62\n        /* \"#utility.yul\":426:427   */\n      0x00\n        /* \"#utility.yul\":415:424   */\n      dup4\n        /* \"#utility.yul\":411:428   */\n      add\n        /* \"#utility.yul\":402:408   */\n      dup5\n        /* \"#utility.yul\":358:429   */\n      tag_43\n      jump\t// in\n    tag_62:\n        /* \"#utility.yul\":214:436   */\n      swap3\n      swap2\n      pop\n      pop\n      jump\t// out\n        /* \"#utility.yul\":442:568   */\n    tag_44:\n        /* \"#utility.yul\":479:486   */\n      0x00\n        /* \"#utility.yul\":519:561   */\n      0xffffffffffffffffffffffffffffffffffffffff\n        /* \"#utility.yul\":512:517   */\n      dup3\n        /* \"#utility.yul\":508:562   */\n      and\n        /* \"#utility.yul\":497:562   */\n      swap1\n      pop\n        /* \"#utility.yul\":442:568   */\n      swap2\n      swap1\n      pop\n      jump\t// out\n        /* \"#utility.yul\":574:634   */\n    tag_45:\n        /* \"#utility.yul\":602:605   */\n      0x00\n        /* \"#utility.yul\":623:628   */\n      dup2\n        /* \"#utility.yul\":616:628   */\n      swap1\n      pop\n        /* \"#utility.yul\":574:634   */\n      swap2\n      swap1\n      pop\n      jump\t// out\n        /* \"#utility.yul\":640:782   */\n    tag_46:\n        /* \"#utility.yul\":690:699   */\n      0x00\n        /* \"#utility.yul\":723:776   */\n      tag_66\n        /* \"#utility.yul\":741:775   */\n      tag_67\n        /* \"#utility.yul\":750:774   */\n      tag_68\n        /* \"#utility.yul\":768:773   */\n      dup5\n        /* \"#utility.yul\":750:774   */\n      tag_44\n      jump\t// in\n    tag_68:\n        /* \"#utility.yul\":741:775   */\n      tag_45\n      jump\t// in\n    tag_67:\n        /* \"#utility.yul\":723:776   */\n      tag_44\n      jump\t// in\n    tag_66:\n        /* \"#utility.yul\":710:776   */\n      swap1\n      pop\n        /* \"#utility.yul\":640:782   */\n      swap2\n      swap1\n      pop\n      jump\t// out\n        /* \"#utility.yul\":788:914   */\n    tag_47:\n        /* \"#utility.yul\":838:847   */\n      0x00\n        /* \"#utility.yul\":871:908   */\n      tag_70\n        /* \"#utility.yul\":902:907   */\n      dup3\n        /* \"#utility.yul\":871:908   */\n      tag_46\n      jump\t// in\n    tag_70:\n        /* \"#utility.yul\":858:908   */\n      swap1\n      pop\n        /* \"#utility.yul\":788:914   */\n      swap2\n      swap1\n      pop\n      jump\t// out\n        /* \"#utility.yul\":920:1059   */\n    tag_48:\n        /* \"#utility.yul\":983:992   */\n      0x00\n        /* \"#utility.yul\":1016:1053   */\n      tag_72\n        /* \"#utility.yul\":1047:1052   */\n      dup3\n        /* \"#utility.yul\":1016:1053   */\n      tag_47\n      jump\t// in\n    tag_72:\n        /* \"#utility.yul\":1003:1053   */\n      swap1\n      pop\n        /* \"#utility.yul\":920:1059   */\n      swap2\n      swap1\n      pop\n      jump\t// out\n        /* \"#utility.yul\":1065:1222   */\n    tag_49:\n        /* \"#utility.yul\":1165:1215   */\n      tag_74\n        /* \"#utility.yul\":1209:1214   */\n      dup2\n        /* \"#utility.yul\":1165:1215   */\n      tag_48\n      jump\t// in\n    tag_74:\n        /* \"#utility.yul\":1160:1163   */\n      dup3\n        /* \"#utility.yul\":1153:1216   */\n      mstore\n        /* \"#utility.yul\":1065:1222   */\n      pop\n      pop\n      jump\t// out\n        /* \"#utility.yul\":1228:1476   */\n    tag_28:\n        /* \"#utility.yul\":1334:1338   */\n      0x00\n        /* \"#utility.yul\":1372:1374   */\n      0x20\n        /* \"#utility.yul\":1361:1370   */\n      dup3\n        /* \"#utility.yul\":1357:1375   */\n      add\n        /* \"#utility.yul\":1349:1375   */\n      swap1\n      pop\n        /* \"#utility.yul\":1385:1469   */\n      tag_76\n        /* \"#utility.yul\":1466:1467   */\n      0x00\n        /* \"#utility.yul\":1455:1464   */\n      dup4\n        /* \"#utility.yul\":1451:1468   */\n      add\n        /* \"#utility.yul\":1442:1448   */\n      dup5\n        /* \"#utility.yul\":1385:1469   */\n      tag_49\n      jump\t// in\n    tag_76:\n        /* \"#utility.yul\":1228:1476   */\n      swap3\n      swap2\n      pop\n      pop\n      jump\t// out\n        /* \"#utility.yul\":1563:1680   */\n    tag_51:\n        /* \"#utility.yul\":1672:1673   */\n      0x00\n        /* \"#utility.yul\":1669:1670   */\n      0x00\n        /* \"#utility.yul\":1662:1674   */\n      revert\n        /* \"#utility.yul\":1809:1905   */\n    tag_53:\n        /* \"#utility.yul\":1846:1853   */\n      0x00\n        /* \"#utility.yul\":1875:1899   */\n      tag_81\n        /* \"#utility.yul\":1893:1898   */\n      dup3\n        /* \"#utility.yul\":1875:1899   */\n      tag_44\n      jump\t// in\n    tag_81:\n        /* \"#utility.yul\":1864:1899   */\n      swap1\n      pop\n        /* \"#utility.yul\":1809:1905   */\n      swap2\n      swap1\n      pop\n      jump\t// out\n        /* \"#utility.yul\":1911:2033   */\n    tag_54:\n        /* \"#utility.yul\":1984:2008   */\n      tag_83\n        /* \"#utility.yul\":2002:2007   */\n      dup2\n        /* \"#utility.yul\":1984:2008   */\n      tag_53\n      jump\t// in\n    tag_83:\n        /* \"#utility.yul\":1977:1982   */\n      dup2\n        /* \"#utility.yul\":1974:2009   */\n      eq\n        /* \"#utility.yul\":1964:2027   */\n      tag_84\n      jumpi\n        /* \"#utility.yul\":2023:2024   */\n      0x00\n        /* \"#utility.yul\":2020:2021   */\n      0x00\n        /* \"#utility.yul\":2013:2025   */\n      revert\n        /* \"#utility.yul\":1964:2027   */\n    tag_84:\n        /* \"#utility.yul\":1911:2033   */\n      pop\n      jump\t// out\n        /* \"#utility.yul\":2039:2178   */\n    tag_55:\n        /* \"#utility.yul\":2085:2090   */\n      0x00\n        /* \"#utility.yul\":2123:2129   */\n      dup2\n        /* \"#utility.yul\":2110:2130   */\n      calldataload\n        /* \"#utility.yul\":2101:2130   */\n      swap1\n      pop\n        /* \"#utility.yul\":2139:2172   */\n      tag_86\n        /* \"#utility.yul\":2166:2171   */\n      dup2\n        /* \"#utility.yul\":2139:2172   */\n      tag_54\n      jump\t// in\n    tag_86:\n        /* \"#utility.yul\":2039:2178   */\n      swap3\n      swap2\n      pop\n      pop\n      jump\t// out\n        /* \"#utility.yul\":2184:2513   */\n    tag_31:\n        /* \"#utility.yul\":2243:2249   */\n      0x00\n        /* \"#utility.yul\":2292:2294   */\n      0x20\n        /* \"#utility.yul\":2280:2289   */\n      dup3\n        /* \"#utility.yul\":2271:2278   */\n      dup5\n        /* \"#utility.yul\":2267:2290   */\n      sub\n        /* \"#utility.yul\":2263:2295   */\n      slt\n        /* \"#utility.yul\":2260:2379   */\n      iszero\n      tag_88\n      jumpi\n        /* \"#utility.yul\":2298:2377   */\n      tag_89\n      tag_51\n      jump\t// in\n    tag_89:\n        /* \"#utility.yul\":2260:2379   */\n    tag_88:\n        /* \"#utility.yul\":2418:2419   */\n      0x00\n        /* \"#utility.yul\":2443:2496   */\n      tag_90\n        /* \"#utility.yul\":2488:2495   */\n      dup5\n        /* \"#utility.yul\":2479:2485   */\n      dup3\n        /* \"#utility.yul\":2468:2477   */\n      dup6\n        /* \"#utility.yul\":2464:2486   */\n      add\n        /* \"#utility.yul\":2443:2496   */\n      tag_55\n      jump\t// in\n    tag_90:\n        /* \"#utility.yul\":2433:2496   */\n      swap2\n      pop\n        /* \"#utility.yul\":2389:2506   */\n      pop\n        /* \"#utility.yul\":2184:2513   */\n      swap3\n      swap2\n      pop\n      pop\n      jump\t// out\n        /* \"#utility.yul\":2519:2637   */\n    tag_56:\n        /* \"#utility.yul\":2606:2630   */\n      tag_92\n        /* \"#utility.yul\":2624:2629   */\n      dup2\n        /* \"#utility.yul\":2606:2630   */\n      tag_53\n      jump\t// in\n    tag_92:\n        /* \"#utility.yul\":2601:2604   */\n      dup3\n        /* \"#utility.yul\":2594:2631   */\n      mstore\n        /* \"#utility.yul\":2519:2637   */\n      pop\n      pop\n      jump\t// out\n        /* \"#utility.yul\":2643:2865   */\n    tag_41:\n        /* \"#utility.yul\":2736:2740   */\n      0x00\n        /* \"#utility.yul\":2774:2776   */\n      0x20\n        /* \"#utility.yul\":2763:2772   */\n      dup3\n        /* \"#utility.yul\":2759:2777   */\n      add\n        /* \"#utility.yul\":2751:2777   */\n      swap1\n      pop\n        /* \"#utility.yul\":2787:2858   */\n      tag_94\n        /* \"#utility.yul\":2855:2856   */\n      0x00\n        /* \"#utility.yul\":2844:2853   */\n      dup4\n        /* \"#utility.yul\":2840:2857   */\n      add\n        /* \"#utility.yul\":2831:2837   */\n      dup5\n        /* \"#utility.yul\":2787:2858   */\n      tag_56\n      jump\t// in\n    tag_94:\n        /* \"#utility.yul\":2643:2865   */\n      swap3\n      swap2\n      pop\n      pop\n      jump\t// out\n\n    auxdata: 0xa2646970667358221220f79046e1813d12948e942f77cf60239c77720afbd74a304b18c2d0f2c27ccf0464736f6c634300081e0033\n}\n",
				"bytecode": {
					"linkReferences": {},
					"object": "610120604052348015610010575f5ffd5b506040516107bb3803806107bb8339818101604052810190610032919061029f565b5f830361006b576040517fcf478f2300000000000000000000000000000000000000000000000000000000815260040160405180910390fd5b60018160ff161080610080575060048160ff16105b156100b7576040517f2b3f1e6e00000000000000000000000000000000000000000000000000000000815260040160405180910390fd5b828211156100f1576040517f3be41dfe00000000000000000000000000000000000000000000000000000000815260040160405180910390fd5b8373ffffffffffffffffffffffffffffffffffffffff1660808173ffffffffffffffffffffffffffffffffffffffff16815250503373ffffffffffffffffffffffffffffffffffffffff1660a08173ffffffffffffffffffffffffffffffffffffffff16815250504260c081815250505f60018260ff161461019d5760028260ff16146101955760038260ff161461018c5762015180610190565b610e105b610198565b603c5b6101a0565b60015b62ffffff16905080846101b39190610330565b60e0818152505080836101c69190610330565b61010081815250505050505050610371565b5f5ffd5b5f73ffffffffffffffffffffffffffffffffffffffff82169050919050565b5f610205826101dc565b9050919050565b610215816101fb565b811461021f575f5ffd5b50565b5f815190506102308161020c565b92915050565b5f819050919050565b61024881610236565b8114610252575f5ffd5b50565b5f815190506102638161023f565b92915050565b5f60ff82169050919050565b61027e81610269565b8114610288575f5ffd5b50565b5f8151905061029981610275565b92915050565b5f5f5f5f608085870312156102b7576102b66101d8565b5b5f6102c487828801610222565b94505060206102d587828801610255565b93505060406102e687828801610255565b92505060606102f78782880161028b565b91505092959194509250565b7f4e487b71000000000000000000000000000000000000000000000000000000005f52601160045260245ffd5b5f61033a82610236565b915061034583610236565b925082820261035381610236565b9150828204841483151761036a57610369610303565b5b5092915050565b60805160a05160c05160e0516101005161040d6103ae5f395f6101e801525f6101c401525f6101a001525f61025f01525f610211015261040d5ff3fe608060405234801561000f575f5ffd5b5060043610610086575f3560e01c80639608b232116100595780639608b23214610102578063b81b863014610120578063c884ef8314610150578063dba6335f1461018057610086565b806316bc89771461008a5780634eafd241146100a857806373863a3f146100c657806379203dc4146100e4575b5f5ffd5b61009261019e565b60405161009f9190610299565b60405180910390f35b6100b06101c2565b6040516100bd9190610299565b60405180910390f35b6100ce6101e6565b6040516100db9190610299565b60405180910390f35b6100ec61020a565b6040516100f99190610299565b60405180910390f35b61010a61020f565b604051610117919061032c565b60405180910390f35b61013a60048036038101906101359190610384565b610233565b6040516101479190610299565b60405180910390f35b61016a60048036038101906101659190610384565b610248565b6040516101779190610299565b60405180910390f35b61018861025d565b60405161019591906103be565b60405180910390f35b7f000000000000000000000000000000000000000000000000000000000000000081565b7f000000000000000000000000000000000000000000000000000000000000000081565b7f000000000000000000000000000000000000000000000000000000000000000081565b5f5481565b7f000000000000000000000000000000000000000000000000000000000000000081565b6001602052805f5260405f205f915090505481565b6002602052805f5260405f205f915090505481565b7f000000000000000000000000000000000000000000000000000000000000000081565b5f819050919050565b61029381610281565b82525050565b5f6020820190506102ac5f83018461028a565b92915050565b5f73ffffffffffffffffffffffffffffffffffffffff82169050919050565b5f819050919050565b5f6102f46102ef6102ea846102b2565b6102d1565b6102b2565b9050919050565b5f610305826102da565b9050919050565b5f610316826102fb565b9050919050565b6103268161030c565b82525050565b5f60208201905061033f5f83018461031d565b92915050565b5f5ffd5b5f610353826102b2565b9050919050565b61036381610349565b811461036d575f5ffd5b50565b5f8135905061037e8161035a565b92915050565b5f6020828403121561039957610398610345565b5b5f6103a684828501610370565b91505092915050565b6103b881610349565b82525050565b5f6020820190506103d15f8301846103af565b9291505056fea2646970667358221220f79046e1813d12948e942f77cf60239c77720afbd74a304b18c2d0f2c27ccf0464736f6c634300081e0033",
					"opcodes": "PUSH2 0x120 PUSH1 0x40 MSTORE CALLVALUE DUP1 ISZERO PUSH2 0x10 JUMPI PUSH0 PUSH0 REVERT JUMPDEST POP PUSH1 0x40 MLOAD PUSH2 0x7BB CODESIZE SUB DUP1 PUSH2 0x7BB DUP4 CODECOPY DUP2 DUP2 ADD PUSH1 0x40 MSTORE DUP2 ADD SWAP1 PUSH2 0x32 SWAP2 SWAP1 PUSH2 0x29F JUMP JUMPDEST PUSH0 DUP4 SUB PUSH2 0x6B JUMPI PUSH1 0x40 MLOAD PUSH32 0xCF478F2300000000000000000000000000000000000000000000000000000000 DUP2 MSTORE PUSH1 0x4 ADD PUSH1 0x40 MLOAD DUP1 SWAP2 SUB SWAP1 REVERT JUMPDEST PUSH1 0x1 DUP2 PUSH1 0xFF AND LT DUP1 PUSH2 0x80 JUMPI POP PUSH1 0x4 DUP2 PUSH1 0xFF AND LT JUMPDEST ISZERO PUSH2 0xB7 JUMPI PUSH1 0x40 MLOAD PUSH32 0x2B3F1E6E00000000000000000000000000000000000000000000000000000000 DUP2 MSTORE PUSH1 0x4 ADD PUSH1 0x40 MLOAD DUP1 SWAP2 SUB SWAP1 REVERT JUMPDEST DUP3 DUP3 GT ISZERO PUSH2 0xF1 JUMPI PUSH1 0x40 MLOAD PUSH32 0x3BE41DFE00000000000000000000000000000000000000000000000000000000 DUP2 MSTORE PUSH1 0x4 ADD PUSH1 0x40 MLOAD DUP1 SWAP2 SUB SWAP1 REVERT JUMPDEST DUP4 PUSH20 0xFFFFFFFFFFFFFFFFFFFFFFFFFFFFFFFFFFFFFFFF AND PUSH1 0x80 DUP2 PUSH20 0xFFFFFFFFFFFFFFFFFFFFFFFFFFFFFFFFFFFFFFFF AND DUP2 MSTORE POP POP CALLER PUSH20 0xFFFFFFFFFFFFFFFFFFFFFFFFFFFFFFFFFFFFFFFF AND PUSH1 0xA0 DUP2 PUSH20 0xFFFFFFFFFFFFFFFFFFFFFFFFFFFFFFFFFFFFFFFF AND DUP2 MSTORE POP POP TIMESTAMP PUSH1 0xC0 DUP2 DUP2 MSTORE POP POP PUSH0 PUSH1 0x1 DUP3 PUSH1 0xFF AND EQ PUSH2 0x19D JUMPI PUSH1 0x2 DUP3 PUSH1 0xFF AND EQ PUSH2 0x195 JUMPI PUSH1 0x3 DUP3 PUSH1 0xFF AND EQ PUSH2 0x18C JUMPI PUSH3 0x15180 PUSH2 0x190 JUMP JUMPDEST PUSH2 0xE10 JUMPDEST PUSH2 0x198 JUMP JUMPDEST PUSH1 0x3C JUMPDEST PUSH2 0x1A0 JUMP JUMPDEST PUSH1 0x1 JUMPDEST PUSH3 0xFFFFFF AND SWAP1 POP DUP1 DUP5 PUSH2 0x1B3 SWAP2 SWAP1 PUSH2 0x330 JUMP JUMPDEST PUSH1 0xE0 DUP2 DUP2 MSTORE POP POP DUP1 DUP4 PUSH2 0x1C6 SWAP2 SWAP1 PUSH2 0x330 JUMP JUMPDEST PUSH2 0x100 DUP2 DUP2 MSTORE POP POP POP POP POP POP POP PUSH2 0x371 JUMP JUMPDEST PUSH0 PUSH0 REVERT JUMPDEST PUSH0 PUSH20 0xFFFFFFFFFFFFFFFFFFFFFFFFFFFFFFFFFFFFFFFF DUP3 AND SWAP1 POP SWAP2 SWAP1 POP JUMP JUMPDEST PUSH0 PUSH2 0x205 DUP3 PUSH2 0x1DC JUMP JUMPDEST SWAP1 POP SWAP2 SWAP1 POP JUMP JUMPDEST PUSH2 0x215 DUP2 PUSH2 0x1FB JUMP JUMPDEST DUP2 EQ PUSH2 0x21F JUMPI PUSH0 PUSH0 REVERT JUMPDEST POP JUMP JUMPDEST PUSH0 DUP2 MLOAD SWAP1 POP PUSH2 0x230 DUP2 PUSH2 0x20C JUMP JUMPDEST SWAP3 SWAP2 POP POP JUMP JUMPDEST PUSH0 DUP2 SWAP1 POP SWAP2 SWAP1 POP JUMP JUMPDEST PUSH2 0x248 DUP2 PUSH2 0x236 JUMP JUMPDEST DUP2 EQ PUSH2 0x252 JUMPI PUSH0 PUSH0 REVERT JUMPDEST POP JUMP JUMPDEST PUSH0 DUP2 MLOAD SWAP1 POP PUSH2 0x263 DUP2 PUSH2 0x23F JUMP JUMPDEST SWAP3 SWAP2 POP POP JUMP JUMPDEST PUSH0 PUSH1 0xFF DUP3 AND SWAP1 POP SWAP2 SWAP1 POP JUMP JUMPDEST PUSH2 0x27E DUP2 PUSH2 0x269 JUMP JUMPDEST DUP2 EQ PUSH2 0x288 JUMPI PUSH0 PUSH0 REVERT JUMPDEST POP JUMP JUMPDEST PUSH0 DUP2 MLOAD SWAP1 POP PUSH2 0x299 DUP2 PUSH2 0x275 JUMP JUMPDEST SWAP3 SWAP2 POP POP JUMP JUMPDEST PUSH0 PUSH0 PUSH0 PUSH0 PUSH1 0x80 DUP6 DUP8 SUB SLT ISZERO PUSH2 0x2B7 JUMPI PUSH2 0x2B6 PUSH2 0x1D8 JUMP JUMPDEST JUMPDEST PUSH0 PUSH2 0x2C4 DUP8 DUP3 DUP9 ADD PUSH2 0x222 JUMP JUMPDEST SWAP5 POP POP PUSH1 0x20 PUSH2 0x2D5 DUP8 DUP3 DUP9 ADD PUSH2 0x255 JUMP JUMPDEST SWAP4 POP POP PUSH1 0x40 PUSH2 0x2E6 DUP8 DUP3 DUP9 ADD PUSH2 0x255 JUMP JUMPDEST SWAP3 POP POP PUSH1 0x60 PUSH2 0x2F7 DUP8 DUP3 DUP9 ADD PUSH2 0x28B JUMP JUMPDEST SWAP2 POP POP SWAP3 SWAP6 SWAP2 SWAP5 POP SWAP3 POP JUMP JUMPDEST PUSH32 0x4E487B7100000000000000000000000000000000000000000000000000000000 PUSH0 MSTORE PUSH1 0x11 PUSH1 0x4 MSTORE PUSH1 0x24 PUSH0 REVERT JUMPDEST PUSH0 PUSH2 0x33A DUP3 PUSH2 0x236 JUMP JUMPDEST SWAP2 POP PUSH2 0x345 DUP4 PUSH2 0x236 JUMP JUMPDEST SWAP3 POP DUP3 DUP3 MUL PUSH2 0x353 DUP2 PUSH2 0x236 JUMP JUMPDEST SWAP2 POP DUP3 DUP3 DIV DUP5 EQ DUP4 ISZERO OR PUSH2 0x36A JUMPI PUSH2 0x369 PUSH2 0x303 JUMP JUMPDEST JUMPDEST POP SWAP3 SWAP2 POP POP JUMP JUMPDEST PUSH1 0x80 MLOAD PUSH1 0xA0 MLOAD PUSH1 0xC0 MLOAD PUSH1 0xE0 MLOAD PUSH2 0x100 MLOAD PUSH2 0x40D PUSH2 0x3AE PUSH0 CODECOPY PUSH0 PUSH2 0x1E8 ADD MSTORE PUSH0 PUSH2 0x1C4 ADD MSTORE PUSH0 PUSH2 0x1A0 ADD MSTORE PUSH0 PUSH2 0x25F ADD MSTORE PUSH0 PUSH2 0x211 ADD MSTORE PUSH2 0x40D PUSH0 RETURN INVALID PUSH1 0x80 PUSH1 0x40 MSTORE CALLVALUE DUP1 ISZERO PUSH2 0xF JUMPI PUSH0 PUSH0 REVERT JUMPDEST POP PUSH1 0x4 CALLDATASIZE LT PUSH2 0x86 JUMPI PUSH0 CALLDATALOAD PUSH1 0xE0 SHR DUP1 PUSH4 0x9608B232 GT PUSH2 0x59 JUMPI DUP1 PUSH4 0x9608B232 EQ PUSH2 0x102 JUMPI DUP1 PUSH4 0xB81B8630 EQ PUSH2 0x120 JUMPI DUP1 PUSH4 0xC884EF83 EQ PUSH2 0x150 JUMPI DUP1 PUSH4 0xDBA6335F EQ PUSH2 0x180 JUMPI PUSH2 0x86 JUMP JUMPDEST DUP1 PUSH4 0x16BC8977 EQ PUSH2 0x8A JUMPI DUP1 PUSH4 0x4EAFD241 EQ PUSH2 0xA8 JUMPI DUP1 PUSH4 0x73863A3F EQ PUSH2 0xC6 JUMPI DUP1 PUSH4 0x79203DC4 EQ PUSH2 0xE4 JUMPI JUMPDEST PUSH0 PUSH0 REVERT JUMPDEST PUSH2 0x92 PUSH2 0x19E JUMP JUMPDEST PUSH1 0x40 MLOAD PUSH2 0x9F SWAP2 SWAP1 PUSH2 0x299 JUMP JUMPDEST PUSH1 0x40 MLOAD DUP1 SWAP2 SUB SWAP1 RETURN JUMPDEST PUSH2 0xB0 PUSH2 0x1C2 JUMP JUMPDEST PUSH1 0x40 MLOAD PUSH2 0xBD SWAP2 SWAP1 PUSH2 0x299 JUMP JUMPDEST PUSH1 0x40 MLOAD DUP1 SWAP2 SUB SWAP1 RETURN JUMPDEST PUSH2 0xCE PUSH2 0x1E6 JUMP JUMPDEST PUSH1 0x40 MLOAD PUSH2 0xDB SWAP2 SWAP1 PUSH2 0x299 JUMP JUMPDEST PUSH1 0x40 MLOAD DUP1 SWAP2 SUB SWAP1 RETURN JUMPDEST PUSH2 0xEC PUSH2 0x20A JUMP JUMPDEST PUSH1 0x40 MLOAD PUSH2 0xF9 SWAP2 SWAP1 PUSH2 0x299 JUMP JUMPDEST PUSH1 0x40 MLOAD DUP1 SWAP2 SUB SWAP1 RETURN JUMPDEST PUSH2 0x10A PUSH2 0x20F JUMP JUMPDEST PUSH1 0x40 MLOAD PUSH2 0x117 SWAP2 SWAP1 PUSH2 0x32C JUMP JUMPDEST PUSH1 0x40 MLOAD DUP1 SWAP2 SUB SWAP1 RETURN JUMPDEST PUSH2 0x13A PUSH1 0x4 DUP1 CALLDATASIZE SUB DUP2 ADD SWAP1 PUSH2 0x135 SWAP2 SWAP1 PUSH2 0x384 JUMP JUMPDEST PUSH2 0x233 JUMP JUMPDEST PUSH1 0x40 MLOAD PUSH2 0x147 SWAP2 SWAP1 PUSH2 0x299 JUMP JUMPDEST PUSH1 0x40 MLOAD DUP1 SWAP2 SUB SWAP1 RETURN JUMPDEST PUSH2 0x16A PUSH1 0x4 DUP1 CALLDATASIZE SUB DUP2 ADD SWAP1 PUSH2 0x165 SWAP2 SWAP1 PUSH2 0x384 JUMP JUMPDEST PUSH2 0x248 JUMP JUMPDEST PUSH1 0x40 MLOAD PUSH2 0x177 SWAP2 SWAP1 PUSH2 0x299 JUMP JUMPDEST PUSH1 0x40 MLOAD DUP1 SWAP2 SUB SWAP1 RETURN JUMPDEST PUSH2 0x188 PUSH2 0x25D JUMP JUMPDEST PUSH1 0x40 MLOAD PUSH2 0x195 SWAP2 SWAP1 PUSH2 0x3BE JUMP JUMPDEST PUSH1 0x40 MLOAD DUP1 SWAP2 SUB SWAP1 RETURN JUMPDEST PUSH32 0x0 DUP2 JUMP JUMPDEST PUSH32 0x0 DUP2 JUMP JUMPDEST PUSH32 0x0 DUP2 JUMP JUMPDEST PUSH0 SLOAD DUP2 JUMP JUMPDEST PUSH32 0x0 DUP2 JUMP JUMPDEST PUSH1 0x1 PUSH1 0x20 MSTORE DUP1 PUSH0 MSTORE PUSH1 0x40 PUSH0 KECCAK256 PUSH0 SWAP2 POP SWAP1 POP SLOAD DUP2 JUMP JUMPDEST PUSH1 0x2 PUSH1 0x20 MSTORE DUP1 PUSH0 MSTORE PUSH1 0x40 PUSH0 KECCAK256 PUSH0 SWAP2 POP SWAP1 POP SLOAD DUP2 JUMP JUMPDEST PUSH32 0x0 DUP2 JUMP JUMPDEST PUSH0 DUP2 SWAP1 POP SWAP2 SWAP1 POP JUMP JUMPDEST PUSH2 0x293 DUP2 PUSH2 0x281 JUMP JUMPDEST DUP3 MSTORE POP POP JUMP JUMPDEST PUSH0 PUSH1 0x20 DUP3 ADD SWAP1 POP PUSH2 0x2AC PUSH0 DUP4 ADD DUP5 PUSH2 0x28A JUMP JUMPDEST SWAP3 SWAP2 POP POP JUMP JUMPDEST PUSH0 PUSH20 0xFFFFFFFFFFFFFFFFFFFFFFFFFFFFFFFFFFFFFFFF DUP3 AND SWAP1 POP SWAP2 SWAP1 POP JUMP JUMPDEST PUSH0 DUP2 SWAP1 POP SWAP2 SWAP1 POP JUMP JUMPDEST PUSH0 PUSH2 0x2F4 PUSH2 0x2EF PUSH2 0x2EA DUP5 PUSH2 0x2B2 JUMP JUMPDEST PUSH2 0x2D1 JUMP JUMPDEST PUSH2 0x2B2 JUMP JUMPDEST SWAP1 POP SWAP2 SWAP1 POP JUMP JUMPDEST PUSH0 PUSH2 0x305 DUP3 PUSH2 0x2DA JUMP JUMPDEST SWAP1 POP SWAP2 SWAP1 POP JUMP JUMPDEST PUSH0 PUSH2 0x316 DUP3 PUSH2 0x2FB JUMP JUMPDEST SWAP1 POP SWAP2 SWAP1 POP JUMP JUMPDEST PUSH2 0x326 DUP2 PUSH2 0x30C JUMP JUMPDEST DUP3 MSTORE POP POP JUMP JUMPDEST PUSH0 PUSH1 0x20 DUP3 ADD SWAP1 POP PUSH2 0x33F PUSH0 DUP4 ADD DUP5 PUSH2 0x31D JUMP JUMPDEST SWAP3 SWAP2 POP POP JUMP JUMPDEST PUSH0 PUSH0 REVERT JUMPDEST PUSH0 PUSH2 0x353 DUP3 PUSH2 0x2B2 JUMP JUMPDEST SWAP1 POP SWAP2 SWAP1 POP JUMP JUMPDEST PUSH2 0x363 DUP2 PUSH2 0x349 JUMP JUMPDEST DUP2 EQ PUSH2 0x36D JUMPI PUSH0 PUSH0 REVERT JUMPDEST POP JUMP JUMPDEST PUSH0 DUP2 CALLDATALOAD SWAP1 POP PUSH2 0x37E DUP2 PUSH2 0x35A JUMP JUMPDEST SWAP3 SWAP2 POP POP JUMP JUMPDEST PUSH0 PUSH1 0x20 DUP3 DUP5 SUB SLT ISZERO PUSH2 0x399 JUMPI PUSH2 0x398 PUSH2 0x345 JUMP JUMPDEST JUMPDEST PUSH0 PUSH2 0x3A6 DUP5 DUP3 DUP6 ADD PUSH2 0x370 JUMP JUMPDEST SWAP2 POP POP SWAP3 SWAP2 POP POP JUMP JUMPDEST PUSH2 0x3B8 DUP2 PUSH2 0x349 JUMP JUMPDEST DUP3 MSTORE POP POP JUMP JUMPDEST PUSH0 PUSH1 0x20 DUP3 ADD SWAP1 POP PUSH2 0x3D1 PUSH0 DUP4 ADD DUP5 PUSH2 0x3AF JUMP JUMPDEST SWAP3 SWAP2 POP POP JUMP INVALID LOG2 PUSH5 0x6970667358 0x22 SLT KECCAK256 0xF7 SWAP1 CHAINID RJUMPI 0x813D SLT SWAP5 DUP15 SWAP5 0x2F PUSH24 0xCF60239C77720AFBD74A304B18C2D0F2C27CCF0464736F6C PUSH4 0x4300081E STOP CALLER "
				},
				"gasEstimates": {
					"creation": {
						"codeDepositCost": "207400",
						"executionCost": "infinite",
						"totalCost": "infinite"
					},
					"external": {
						"allocation(address)": "2824",
						"claimed(address)": "2846",
						"i_cliff()": "infinite",
						"i_duration()": "infinite",
						"i_owner()": "infinite",
						"i_startTime()": "infinite",
						"i_token()": "infinite",
						"totalAllocation()": "2491"
					}
				},
				"methodIdentifiers": {
					"allocation(address)": "b81b8630",
					"claimed(address)": "c884ef83",
					"i_cliff()": "73863a3f",
					"i_duration()": "4eafd241",
					"i_owner()": "dba6335f",
					"i_startTime()": "16bc8977",
					"i_token()": "9608b232",
					"totalAllocation()": "79203dc4"
				}
			},
			"storageLayout": {
				"storage": [
					{
						"astId": 110,
						"contract": "contracts/vesting.sol:VestingToken",
						"label": "totalAllocation",
						"offset": 0,
						"slot": "0",
						"type": "t_uint256"
					},
					{
						"astId": 114,
						"contract": "contracts/vesting.sol:VestingToken",
						"label": "allocation",
						"offset": 0,
						"slot": "1",
						"type": "t_mapping(t_address,t_uint256)"
					},
					{
						"astId": 118,
						"contract": "contracts/vesting.sol:VestingToken",
						"label": "claimed",
						"offset": 0,
						"slot": "2",
						"type": "t_mapping(t_address,t_uint256)"
					}
				],
				"types": {
					"t_address": {
						"encoding": "inplace",
						"label": "address",
						"numberOfBytes": "20"
					},
					"t_mapping(t_address,t_uint256)": {
						"encoding": "mapping",
						"key": "t_address",
						"label": "mapping(address => uint256)",
						"numberOfBytes": "32",
						"value": "t_uint256"
					},
					"t_uint256": {
						"encoding": "inplace",
						"label": "uint256",
						"numberOfBytes": "32"
					}
				}
			},
			"userdoc": {
				"kind": "user",
				"methods": {},
				"version": 1
			}
		}
	}
}