{
	"contracts/escrow.sol": {
		"Escrow": {
			"abi": [
				{
					"inputs": [
						{
							"internalType": "address",
							"name": "_token",
							"type": "address"
						}
					],
					"stateMutability": "nonpayable",
					"type": "constructor"
				},
				{
					"inputs": [],
					"name": "NoMilestonesProvided",
					"type": "error"
				},
				{
					"inputs": [],
					"name": "ZeroAddressError",
					"type": "error"
				},
				{
					"inputs": [
						{
							"internalType": "address",
							"name": "_freelancer",
							"type": "address"
						},
						{
							"internalType": "uint256[]",
							"name": "_amount",
							"type": "uint256[]"
						}
					],
					"name": "createJob",
					"outputs": [],
					"stateMutability": "nonpayable",
					"type": "function"
				},
				{
					"inputs": [
						{
							"internalType": "address",
							"name": "",
							"type": "address"
						},
						{
							"internalType": "uint256",
							"name": "",
							"type": "uint256"
						}
					],
					"name": "freelancerJobs",
					"outputs": [
						{
							"internalType": "uint256",
							"name": "",
							"type": "uint256"
						}
					],
					"stateMutability": "view",
					"type": "function"
				},
				{
					"inputs": [
						{
							"internalType": "uint256",
							"name": "_jobid",
							"type": "uint256"
						}
					],
					"name": "getjob",
					"outputs": [
						{
							"components": [
								{
									"internalType": "uint256",
									"name": "id",
									"type": "uint256"
								},
								{
									"internalType": "address",
									"name": "clients",
									"type": "address"
								},
								{
									"internalType": "address",
									"name": "freelancer",
									"type": "address"
								},
								{
									"components": [
										{
											"internalType": "uint256",
											"name": "amount",
											"type": "uint256"
										},
										{
											"internalType": "bool",
											"name": "completed",
											"type": "bool"
										},
										{
											"internalType": "bool",
											"name": "paid",
											"type": "bool"
										}
									],
									"internalType": "struct Escrow.MileStone[]",
									"name": "milestones",
									"type": "tuple[]"
								},
								{
									"internalType": "uint256",
									"name": "totalAmount",
									"type": "uint256"
								}
							],
							"internalType": "struct Escrow.Job",
							"name": "",
							"type": "tuple"
						}
					],
					"stateMutability": "view",
					"type": "function"
				},
				{
					"inputs": [],
					"name": "i_token",
					"outputs": [
						{
							"internalType": "contract IERC20",
							"name": "",
							"type": "address"
						}
					],
					"stateMutability": "view",
					"type": "function"
				},
				{
					"inputs": [],
					"name": "jobId",
					"outputs": [
						{
							"internalType": "uint256",
							"name": "",
							"type": "uint256"
						}
					],
					"stateMutability": "view",
					"type": "function"
				},
				{
					"inputs": [
						{
							"internalType": "uint256",
							"name": "",
							"type": "uint256"
						}
					],
					"name": "jobs",
					"outputs": [
						{
							"internalType": "uint256",
							"name": "id",
							"type": "uint256"
						},
						{
							"internalType": "address",
							"name": "clients",
							"type": "address"
						},
						{
							"internalType": "address",
							"name": "freelancer",
							"type": "address"
						},
						{
							"internalType": "uint256",
							"name": "totalAmount",
							"type": "uint256"
						}
					],
					"stateMutability": "view",
					"type": "function"
				}
			],
			"devdoc": {
				"kind": "dev",
				"methods": {},
				"version": 1
			},
			"evm": {
				"assembly": "    /* \"contracts/escrow.sol\":173:1831  contract Escrow{... */\n  mstore(0x40, 0xa0)\n    /* \"contracts/escrow.sol\":652:722  constructor(address _token){... */\n  callvalue\n  dup1\n  iszero\n  tag_1\n  jumpi\n  revert(0x00, 0x00)\ntag_1:\n  pop\n  mload(0x40)\n  sub(codesize, bytecodeSize)\n  dup1\n  bytecodeSize\n  dup4\n  codecopy\n  dup2\n  dup2\n  add\n  0x40\n  mstore\n  dup2\n  add\n  swap1\n  tag_2\n  swap2\n  swap1\n  tag_3\n  jump\t// in\ntag_2:\n    /* \"contracts/escrow.sol\":707:713  _token */\n  dup1\n    /* \"contracts/escrow.sol\":690:714  i_token = IERC20(_token) */\n  0xffffffffffffffffffffffffffffffffffffffff\n  and\n  0x80\n  dup2\n  0xffffffffffffffffffffffffffffffffffffffff\n  and\n  dup2\n  mstore\n  pop\n  pop\n    /* \"contracts/escrow.sol\":652:722  constructor(address _token){... */\n  pop\n    /* \"contracts/escrow.sol\":173:1831  contract Escrow{... */\n  jump(tag_6)\n    /* \"#utility.yul\":88:205   */\ntag_8:\n    /* \"#utility.yul\":197:198   */\n  0x00\n    /* \"#utility.yul\":194:195   */\n  0x00\n    /* \"#utility.yul\":187:199   */\n  revert\n    /* \"#utility.yul\":334:460   */\ntag_10:\n    /* \"#utility.yul\":371:378   */\n  0x00\n    /* \"#utility.yul\":411:453   */\n  0xffffffffffffffffffffffffffffffffffffffff\n    /* \"#utility.yul\":404:409   */\n  dup3\n    /* \"#utility.yul\":400:454   */\n  and\n    /* \"#utility.yul\":389:454   */\n  swap1\n  pop\n    /* \"#utility.yul\":334:460   */\n  swap2\n  swap1\n  pop\n  jump\t// out\n    /* \"#utility.yul\":466:562   */\ntag_11:\n    /* \"#utility.yul\":503:510   */\n  0x00\n    /* \"#utility.yul\":532:556   */\n  tag_20\n    /* \"#utility.yul\":550:555   */\n  dup3\n    /* \"#utility.yul\":532:556   */\n  tag_10\n  jump\t// in\ntag_20:\n    /* \"#utility.yul\":521:556   */\n  swap1\n  pop\n    /* \"#utility.yul\":466:562   */\n  swap2\n  swap1\n  pop\n  jump\t// out\n    /* \"#utility.yul\":568:690   */\ntag_12:\n    /* \"#utility.yul\":641:665   */\n  tag_22\n    /* \"#utility.yul\":659:664   */\n  dup2\n    /* \"#utility.yul\":641:665   */\n  tag_11\n  jump\t// in\ntag_22:\n    /* \"#utility.yul\":634:639   */\n  dup2\n    /* \"#utility.yul\":631:666   */\n  eq\n    /* \"#utility.yul\":621:684   */\n  tag_23\n  jumpi\n    /* \"#utility.yul\":680:681   */\n  0x00\n    /* \"#utility.yul\":677:678   */\n  0x00\n    /* \"#utility.yul\":670:682   */\n  revert\n    /* \"#utility.yul\":621:684   */\ntag_23:\n    /* \"#utility.yul\":568:690   */\n  pop\n  jump\t// out\n    /* \"#utility.yul\":696:839   */\ntag_13:\n    /* \"#utility.yul\":753:758   */\n  0x00\n    /* \"#utility.yul\":784:790   */\n  dup2\n    /* \"#utility.yul\":778:791   */\n  mload\n    /* \"#utility.yul\":769:791   */\n  swap1\n  pop\n    /* \"#utility.yul\":800:833   */\n  tag_25\n    /* \"#utility.yul\":827:832   */\n  dup2\n    /* \"#utility.yul\":800:833   */\n  tag_12\n  jump\t// in\ntag_25:\n    /* \"#utility.yul\":696:839   */\n  swap3\n  swap2\n  pop\n  pop\n  jump\t// out\n    /* \"#utility.yul\":845:1196   */\ntag_3:\n    /* \"#utility.yul\":915:921   */\n  0x00\n    /* \"#utility.yul\":964:966   */\n  0x20\n    /* \"#utility.yul\":952:961   */\n  dup3\n    /* \"#utility.yul\":943:950   */\n  dup5\n    /* \"#utility.yul\":939:962   */\n  sub\n    /* \"#utility.yul\":935:967   */\n  slt\n    /* \"#utility.yul\":932:1051   */\n  iszero\n  tag_27\n  jumpi\n    /* \"#utility.yul\":970:1049   */\n  tag_28\n  tag_8\n  jump\t// in\ntag_28:\n    /* \"#utility.yul\":932:1051   */\ntag_27:\n    /* \"#utility.yul\":1090:1091   */\n  0x00\n    /* \"#utility.yul\":1115:1179   */\n  tag_29\n    /* \"#utility.yul\":1171:1178   */\n  dup5\n    /* \"#utility.yul\":1162:1168   */\n  dup3\n    /* \"#utility.yul\":1151:1160   */\n  dup6\n    /* \"#utility.yul\":1147:1169   */\n  add\n    /* \"#utility.yul\":1115:1179   */\n  tag_13\n  jump\t// in\ntag_29:\n    /* \"#utility.yul\":1105:1179   */\n  swap2\n  pop\n    /* \"#utility.yul\":1061:1189   */\n  pop\n    /* \"#utility.yul\":845:1196   */\n  swap3\n  swap2\n  pop\n  pop\n  jump\t// out\n    /* \"contracts/escrow.sol\":173:1831  contract Escrow{... */\ntag_6:\n  mload(0x80)\n  codecopy(0x00, dataOffset(sub_0), dataSize(sub_0))\n  0x00\n  assignImmutable(\"0x7d4579ab3c781860520f730aa471b37a7366c1c6efb6e34470da23130f5149f7\")\n  return(0x00, dataSize(sub_0))\nstop\n\nsub_0: assembly {\n        /* \"contracts/escrow.sol\":173:1831  contract Escrow{... */\n      mstore(0x40, 0x80)\n      callvalue\n      dup1\n      iszero\n      tag_1\n      jumpi\n      revert(0x00, 0x00)\n    tag_1:\n      pop\n      jumpi(tag_2, lt(calldatasize, 0x04))\n      shr(0xe0, calldataload(0x00))\n      dup1\n      0x180aedf3\n      eq\n      tag_3\n      jumpi\n      dup1\n      0x1a424050\n      eq\n      tag_4\n      jumpi\n      dup1\n      0x442f5c88\n      eq\n      tag_5\n      jumpi\n      dup1\n      0x65c498ab\n      eq\n      tag_6\n      jumpi\n      dup1\n      0x9608b232\n      eq\n      tag_7\n      jumpi\n      dup1\n      0xc2939d97\n      eq\n      tag_8\n      jumpi\n    tag_2:\n      revert(0x00, 0x00)\n        /* \"contracts/escrow.sol\":545:581  mapping (uint256 => Job) public jobs */\n    tag_3:\n      tag_9\n      0x04\n      dup1\n      calldatasize\n      sub\n      dup2\n      add\n      swap1\n      tag_10\n      swap2\n      swap1\n      tag_11\n      jump\t// in\n    tag_10:\n      tag_12\n      jump\t// in\n    tag_9:\n      mload(0x40)\n      tag_13\n      swap5\n      swap4\n      swap3\n      swap2\n      swap1\n      tag_14\n      jump\t// in\n    tag_13:\n      mload(0x40)\n      dup1\n      swap2\n      sub\n      swap1\n      return\n        /* \"contracts/escrow.sol\":844:1824  function createJob(address _freelancer, uint256[] memory _amount) external {... */\n    tag_4:\n      tag_15\n      0x04\n      dup1\n      calldatasize\n      sub\n      dup2\n      add\n      swap1\n      tag_16\n      swap2\n      swap1\n      tag_17\n      jump\t// in\n    tag_16:\n      tag_18\n      jump\t// in\n    tag_15:\n      stop\n        /* \"contracts/escrow.sol\":590:642  mapping (address => uint256[]) public freelancerJobs */\n    tag_5:\n      tag_19\n      0x04\n      dup1\n      calldatasize\n      sub\n      dup2\n      add\n      swap1\n      tag_20\n      swap2\n      swap1\n      tag_21\n      jump\t// in\n    tag_20:\n      tag_22\n      jump\t// in\n    tag_19:\n      mload(0x40)\n      tag_23\n      swap2\n      swap1\n      tag_24\n      jump\t// in\n    tag_23:\n      mload(0x40)\n      dup1\n      swap2\n      sub\n      swap1\n      return\n        /* \"contracts/escrow.sol\":730:834  function getjob(uint256 _jobid) public view returns (Job  memory){... */\n    tag_6:\n      tag_25\n      0x04\n      dup1\n      calldatasize\n      sub\n      dup2\n      add\n      swap1\n      tag_26\n      swap2\n      swap1\n      tag_11\n      jump\t// in\n    tag_26:\n      tag_27\n      jump\t// in\n    tag_25:\n      mload(0x40)\n      tag_28\n      swap2\n      swap1\n      tag_29\n      jump\t// in\n    tag_28:\n      mload(0x40)\n      dup1\n      swap2\n      sub\n      swap1\n      return\n        /* \"contracts/escrow.sol\":197:228  IERC20 public immutable i_token */\n    tag_7:\n      tag_30\n      tag_31\n      jump\t// in\n    tag_30:\n      mload(0x40)\n      tag_32\n      swap2\n      swap1\n      tag_33\n      jump\t// in\n    tag_32:\n      mload(0x40)\n      dup1\n      swap2\n      sub\n      swap1\n      return\n        /* \"contracts/escrow.sol\":235:255  uint256 public jobId */\n    tag_8:\n      tag_34\n      tag_35\n      jump\t// in\n    tag_34:\n      mload(0x40)\n      tag_36\n      swap2\n      swap1\n      tag_24\n      jump\t// in\n    tag_36:\n      mload(0x40)\n      dup1\n      swap2\n      sub\n      swap1\n      return\n        /* \"contracts/escrow.sol\":545:581  mapping (uint256 => Job) public jobs */\n    tag_12:\n      mstore(0x20, 0x01)\n      dup1\n      0x00\n      mstore\n      keccak256(0x00, 0x40)\n      0x00\n      swap2\n      pop\n      swap1\n      pop\n      dup1\n      0x00\n      add\n      sload\n      swap1\n      dup1\n      0x01\n      add\n      0x00\n      swap1\n      sload\n      swap1\n      0x0100\n      exp\n      swap1\n      div\n      0xffffffffffffffffffffffffffffffffffffffff\n      and\n      swap1\n      dup1\n      0x02\n      add\n      0x00\n      swap1\n      sload\n      swap1\n      0x0100\n      exp\n      swap1\n      div\n      0xffffffffffffffffffffffffffffffffffffffff\n      and\n      swap1\n      dup1\n      0x04\n      add\n      sload\n      swap1\n      pop\n      dup5\n      jump\t// out\n        /* \"contracts/escrow.sol\":844:1824  function createJob(address _freelancer, uint256[] memory _amount) external {... */\n    tag_18:\n        /* \"contracts/escrow.sol\":956:957  0 */\n      0x00\n        /* \"contracts/escrow.sol\":933:958  _freelancer == address(0) */\n      0xffffffffffffffffffffffffffffffffffffffff\n      and\n        /* \"contracts/escrow.sol\":933:944  _freelancer */\n      dup3\n        /* \"contracts/escrow.sol\":933:958  _freelancer == address(0) */\n      0xffffffffffffffffffffffffffffffffffffffff\n      and\n      sub\n        /* \"contracts/escrow.sol\":930:985  if(_freelancer == address(0)) revert ZeroAddressError() */\n      tag_38\n      jumpi\n        /* \"contracts/escrow.sol\":967:985  ZeroAddressError() */\n      mload(0x40)\n      0x3efa09af00000000000000000000000000000000000000000000000000000000\n      dup2\n      mstore\n      0x04\n      add\n      mload(0x40)\n      dup1\n      swap2\n      sub\n      swap1\n      revert\n        /* \"contracts/escrow.sol\":930:985  if(_freelancer == address(0)) revert ZeroAddressError() */\n    tag_38:\n        /* \"contracts/escrow.sol\":1017:1018  0 */\n      0x00\n        /* \"contracts/escrow.sol\":999:1006  _amount */\n      dup2\n        /* \"contracts/escrow.sol\":999:1013  _amount.length */\n      mload\n        /* \"contracts/escrow.sol\":999:1018  _amount.length == 0 */\n      sub\n        /* \"contracts/escrow.sol\":996:1055  if(_amount.length == 0)       revert NoMilestonesProvided() */\n      tag_39\n      jumpi\n        /* \"contracts/escrow.sol\":1033:1055  NoMilestonesProvided() */\n      mload(0x40)\n      0x5dfece3f00000000000000000000000000000000000000000000000000000000\n      dup2\n      mstore\n      0x04\n      add\n      mload(0x40)\n      dup1\n      swap2\n      sub\n      swap1\n      revert\n        /* \"contracts/escrow.sol\":996:1055  if(_amount.length == 0)       revert NoMilestonesProvided() */\n    tag_39:\n        /* \"contracts/escrow.sol\":1076:1089  uint256 count */\n      0x00\n        /* \"contracts/escrow.sol\":1092:1099  _amount */\n      dup2\n        /* \"contracts/escrow.sol\":1092:1106  _amount.length */\n      mload\n        /* \"contracts/escrow.sol\":1076:1106  uint256 count = _amount.length */\n      swap1\n      pop\n        /* \"contracts/escrow.sol\":1117:1130  uint256 total */\n      0x00\n        /* \"contracts/escrow.sol\":1141:1156  Job storage job */\n      0x00\n        /* \"contracts/escrow.sol\":1159:1163  jobs */\n      0x01\n        /* \"contracts/escrow.sol\":1159:1170  jobs[jobId] */\n      0x00\n        /* \"contracts/escrow.sol\":1164:1169  jobId */\n      sload(0x00)\n        /* \"contracts/escrow.sol\":1159:1170  jobs[jobId] */\n      dup2\n      mstore\n      0x20\n      add\n      swap1\n      dup2\n      mstore\n      0x20\n      add\n      0x00\n      keccak256\n        /* \"contracts/escrow.sol\":1141:1170  Job storage job = jobs[jobId] */\n      swap1\n      pop\n        /* \"contracts/escrow.sol\":1192:1197  jobId */\n      sload(0x00)\n        /* \"contracts/escrow.sol\":1183:1186  job */\n      dup2\n        /* \"contracts/escrow.sol\":1183:1189  job.id */\n      0x00\n      add\n        /* \"contracts/escrow.sol\":1183:1197  job.id = jobId */\n      dup2\n      swap1\n      sstore\n      pop\n        /* \"contracts/escrow.sol\":1222:1232  msg.sender */\n      caller\n        /* \"contracts/escrow.sol\":1208:1211  job */\n      dup2\n        /* \"contracts/escrow.sol\":1208:1219  job.clients */\n      0x01\n      add\n      0x00\n        /* \"contracts/escrow.sol\":1208:1232  job.clients = msg.sender */\n      0x0100\n      exp\n      dup2\n      sload\n      dup2\n      0xffffffffffffffffffffffffffffffffffffffff\n      mul\n      not\n      and\n      swap1\n      dup4\n      0xffffffffffffffffffffffffffffffffffffffff\n      and\n      mul\n      or\n      swap1\n      sstore\n      pop\n        /* \"contracts/escrow.sol\":1260:1271  _freelancer */\n      dup5\n        /* \"contracts/escrow.sol\":1243:1246  job */\n      dup2\n        /* \"contracts/escrow.sol\":1243:1257  job.freelancer */\n      0x02\n      add\n      0x00\n        /* \"contracts/escrow.sol\":1243:1271  job.freelancer = _freelancer */\n      0x0100\n      exp\n      dup2\n      sload\n      dup2\n      0xffffffffffffffffffffffffffffffffffffffff\n      mul\n      not\n      and\n      swap1\n      dup4\n      0xffffffffffffffffffffffffffffffffffffffff\n      and\n      mul\n      or\n      swap1\n      sstore\n      pop\n        /* \"contracts/escrow.sol\":1288:1297  uint256 i */\n      0x00\n        /* \"contracts/escrow.sol\":1299:1300  0 */\n      0x00\n        /* \"contracts/escrow.sol\":1288:1300  uint256 i =0 */\n      swap1\n      pop\n        /* \"contracts/escrow.sol\":1284:1614  for(uint256 i =0; i < count;){... */\n    tag_40:\n        /* \"contracts/escrow.sol\":1306:1311  count */\n      dup4\n        /* \"contracts/escrow.sol\":1302:1303  i */\n      dup2\n        /* \"contracts/escrow.sol\":1302:1311  i < count */\n      lt\n        /* \"contracts/escrow.sol\":1284:1614  for(uint256 i =0; i < count;){... */\n      iszero\n      tag_41\n      jumpi\n        /* \"contracts/escrow.sol\":1328:1345  uint256 amountWei */\n      0x00\n        /* \"contracts/escrow.sol\":1348:1372  Helper.toWei(_amount[i]) */\n      tag_43\n        /* \"contracts/escrow.sol\":1361:1368  _amount */\n      dup7\n        /* \"contracts/escrow.sol\":1369:1370  i */\n      dup4\n        /* \"contracts/escrow.sol\":1361:1371  _amount[i] */\n      dup2\n      mload\n      dup2\n      lt\n      tag_44\n      jumpi\n      tag_45\n      tag_46\n      jump\t// in\n    tag_45:\n    tag_44:\n      0x20\n      mul\n      0x20\n      add\n      add\n      mload\n        /* \"contracts/escrow.sol\":1348:1360  Helper.toWei */\n      tag_47\n        /* \"contracts/escrow.sol\":1348:1372  Helper.toWei(_amount[i]) */\n      jump\t// in\n    tag_43:\n        /* \"contracts/escrow.sol\":1328:1372  uint256 amountWei = Helper.toWei(_amount[i]) */\n      swap1\n      pop\n        /* \"contracts/escrow.sol\":1389:1392  job */\n      dup3\n        /* \"contracts/escrow.sol\":1389:1403  job.milestones */\n      0x03\n      add\n        /* \"contracts/escrow.sol\":1409:1536  MileStone({... */\n      mload(0x40)\n      dup1\n      0x60\n      add\n      0x40\n      mstore\n      dup1\n        /* \"contracts/escrow.sol\":1446:1455  amountWei */\n      dup4\n        /* \"contracts/escrow.sol\":1409:1536  MileStone({... */\n      dup2\n      mstore\n      0x20\n      add\n        /* \"contracts/escrow.sol\":1485:1490  false */\n      0x00\n        /* \"contracts/escrow.sol\":1409:1536  MileStone({... */\n      iszero\n      iszero\n      dup2\n      mstore\n      0x20\n      add\n        /* \"contracts/escrow.sol\":1515:1520  false */\n      0x00\n        /* \"contracts/escrow.sol\":1409:1536  MileStone({... */\n      iszero\n      iszero\n      dup2\n      mstore\n      pop\n        /* \"contracts/escrow.sol\":1389:1537  job.milestones.push(MileStone({... */\n      swap1\n      dup1\n      0x01\n      dup2\n      sload\n      add\n      dup1\n      dup3\n      sstore\n      dup1\n      swap2\n      pop\n      pop\n      0x01\n      swap1\n      sub\n      swap1\n      0x00\n      mstore\n      keccak256(0x00, 0x20)\n      swap1\n      0x02\n      mul\n      add\n      0x00\n      swap1\n      swap2\n      swap1\n      swap2\n      swap1\n      swap2\n      pop\n      0x00\n      dup3\n      add\n      mload\n      dup2\n      0x00\n      add\n      sstore\n      0x20\n      dup3\n      add\n      mload\n      dup2\n      0x01\n      add\n      exp(0x0100, 0x00)\n      dup2\n      sload\n      dup2\n      0xff\n      mul\n      not\n      and\n      swap1\n      dup4\n      iszero\n      iszero\n      mul\n      or\n      swap1\n      sstore\n      pop\n      0x40\n      dup3\n      add\n      mload\n      dup2\n      0x01\n      add\n      exp(0x0100, 0x01)\n      dup2\n      sload\n      dup2\n      0xff\n      mul\n      not\n      and\n      swap1\n      dup4\n      iszero\n      iszero\n      mul\n      or\n      swap1\n      sstore\n      pop\n      pop\n      pop\n        /* \"contracts/escrow.sol\":1561:1570  amountWei */\n      dup1\n        /* \"contracts/escrow.sol\":1552:1570  total += amountWei */\n      dup5\n      tag_49\n      swap2\n      swap1\n      tag_50\n      jump\t// in\n    tag_49:\n      swap4\n      pop\n        /* \"contracts/escrow.sol\":1598:1601  i++ */\n      dup2\n      dup1\n      0x01\n      add\n      swap3\n      pop\n      pop\n        /* \"contracts/escrow.sol\":1313:1614  {... */\n      pop\n        /* \"contracts/escrow.sol\":1284:1614  for(uint256 i =0; i < count;){... */\n      jump(tag_40)\n    tag_41:\n      pop\n        /* \"contracts/escrow.sol\":1644:1649  total */\n      dup2\n        /* \"contracts/escrow.sol\":1626:1629  job */\n      dup2\n        /* \"contracts/escrow.sol\":1626:1641  job.totalAmount */\n      0x04\n      add\n        /* \"contracts/escrow.sol\":1626:1649  job.totalAmount = total */\n      dup2\n      swap1\n      sstore\n      pop\n        /* \"contracts/escrow.sol\":1670:1677  i_token */\n      immutable(\"0x7d4579ab3c781860520f730aa471b37a7366c1c6efb6e34470da23130f5149f7\")\n        /* \"contracts/escrow.sol\":1670:1690  i_token.transferFrom */\n      0xffffffffffffffffffffffffffffffffffffffff\n      and\n      0x23b872dd\n        /* \"contracts/escrow.sol\":1691:1701  msg.sender */\n      caller\n        /* \"contracts/escrow.sol\":1711:1715  this */\n      address\n        /* \"contracts/escrow.sol\":1718:1723  total */\n      dup6\n        /* \"contracts/escrow.sol\":1670:1724  i_token.transferFrom(msg.sender, address(this), total) */\n      mload(0x40)\n      dup5\n      0xffffffff\n      and\n      0xe0\n      shl\n      dup2\n      mstore\n      0x04\n      add\n      tag_51\n      swap4\n      swap3\n      swap2\n      swap1\n      tag_52\n      jump\t// in\n    tag_51:\n      0x20\n      mload(0x40)\n      dup1\n      dup4\n      sub\n      dup2\n      0x00\n      dup8\n      gas\n      call\n      iszero\n      dup1\n      iszero\n      tag_54\n      jumpi\n      returndatacopy(0x00, 0x00, returndatasize)\n      revert(0x00, returndatasize)\n    tag_54:\n      pop\n      pop\n      pop\n      pop\n      mload(0x40)\n      returndatasize\n      not(0x1f)\n      0x1f\n      dup3\n      add\n      and\n      dup3\n      add\n      dup1\n      0x40\n      mstore\n      pop\n      dup2\n      add\n      swap1\n      tag_55\n      swap2\n      swap1\n      tag_56\n      jump\t// in\n    tag_55:\n        /* \"contracts/escrow.sol\":1662:1744  require(i_token.transferFrom(msg.sender, address(this), total), 'Transfer failed') */\n      tag_57\n      jumpi\n      mload(0x40)\n      0x08c379a000000000000000000000000000000000000000000000000000000000\n      dup2\n      mstore\n      0x04\n      add\n      tag_58\n      swap1\n      tag_59\n      jump\t// in\n    tag_58:\n      mload(0x40)\n      dup1\n      swap2\n      sub\n      swap1\n      revert\n    tag_57:\n        /* \"contracts/escrow.sol\":1757:1771  freelancerJobs */\n      0x02\n        /* \"contracts/escrow.sol\":1757:1784  freelancerJobs[_freelancer] */\n      0x00\n        /* \"contracts/escrow.sol\":1772:1783  _freelancer */\n      dup7\n        /* \"contracts/escrow.sol\":1757:1784  freelancerJobs[_freelancer] */\n      0xffffffffffffffffffffffffffffffffffffffff\n      and\n      0xffffffffffffffffffffffffffffffffffffffff\n      and\n      dup2\n      mstore\n      0x20\n      add\n      swap1\n      dup2\n      mstore\n      0x20\n      add\n      0x00\n      keccak256\n        /* \"contracts/escrow.sol\":1790:1795  jobId */\n      sload(0x00)\n        /* \"contracts/escrow.sol\":1757:1796  freelancerJobs[_freelancer].push(jobId) */\n      swap1\n      dup1\n      0x01\n      dup2\n      sload\n      add\n      dup1\n      dup3\n      sstore\n      dup1\n      swap2\n      pop\n      pop\n      0x01\n      swap1\n      sub\n      swap1\n      0x00\n      mstore\n      keccak256(0x00, 0x20)\n      add\n      0x00\n      swap1\n      swap2\n      swap1\n      swap2\n      swap1\n      swap2\n      pop\n      sstore\n        /* \"contracts/escrow.sol\":1807:1812  jobId */\n      0x00\n      0x00\n        /* \"contracts/escrow.sol\":1807:1814  jobId++ */\n      dup2\n      sload\n      dup1\n      swap3\n      swap2\n      swap1\n      tag_61\n      swap1\n      tag_62\n      jump\t// in\n    tag_61:\n      swap2\n      swap1\n      pop\n      sstore\n      pop\n        /* \"contracts/escrow.sol\":919:1824  {... */\n      pop\n      pop\n      pop\n        /* \"contracts/escrow.sol\":844:1824  function createJob(address _freelancer, uint256[] memory _amount) external {... */\n      pop\n      pop\n      jump\t// out\n        /* \"contracts/escrow.sol\":590:642  mapping (address => uint256[]) public freelancerJobs */\n    tag_22:\n      mstore(0x20, 0x02)\n      dup2\n      0x00\n      mstore\n      keccak256(0x00, 0x40)\n      dup2\n      dup2\n      sload\n      dup2\n      lt\n      tag_63\n      jumpi\n      0x00\n      dup1\n      revert\n    tag_63:\n      swap1\n      0x00\n      mstore\n      keccak256(0x00, 0x20)\n      add\n      0x00\n      swap2\n      pop\n      swap2\n      pop\n      pop\n      sload\n      dup2\n      jump\t// out\n        /* \"contracts/escrow.sol\":730:834  function getjob(uint256 _jobid) public view returns (Job  memory){... */\n    tag_27:\n        /* \"contracts/escrow.sol\":783:794  Job  memory */\n      tag_65\n      tag_66\n      jump\t// in\n    tag_65:\n        /* \"contracts/escrow.sol\":814:818  jobs */\n      0x01\n        /* \"contracts/escrow.sol\":814:826  jobs[_jobid] */\n      0x00\n        /* \"contracts/escrow.sol\":819:825  _jobid */\n      dup4\n        /* \"contracts/escrow.sol\":814:826  jobs[_jobid] */\n      dup2\n      mstore\n      0x20\n      add\n      swap1\n      dup2\n      mstore\n      0x20\n      add\n      0x00\n      keccak256\n        /* \"contracts/escrow.sol\":806:826  return  jobs[_jobid] */\n      mload(0x40)\n      dup1\n      0xa0\n      add\n      0x40\n      mstore\n      swap1\n      dup2\n      0x00\n      dup3\n      add\n      sload\n      dup2\n      mstore\n      0x20\n      add\n      0x01\n      dup3\n      add\n      0x00\n      swap1\n      sload\n      swap1\n      0x0100\n      exp\n      swap1\n      div\n      0xffffffffffffffffffffffffffffffffffffffff\n      and\n      0xffffffffffffffffffffffffffffffffffffffff\n      and\n      0xffffffffffffffffffffffffffffffffffffffff\n      and\n      dup2\n      mstore\n      0x20\n      add\n      0x02\n      dup3\n      add\n      0x00\n      swap1\n      sload\n      swap1\n      0x0100\n      exp\n      swap1\n      div\n      0xffffffffffffffffffffffffffffffffffffffff\n      and\n      0xffffffffffffffffffffffffffffffffffffffff\n      and\n      0xffffffffffffffffffffffffffffffffffffffff\n      and\n      dup2\n      mstore\n      0x20\n      add\n      0x03\n      dup3\n      add\n      dup1\n      sload\n      dup1\n      0x20\n      mul\n      0x20\n      add\n      mload(0x40)\n      swap1\n      dup2\n      add\n      0x40\n      mstore\n      dup1\n      swap3\n      swap2\n      swap1\n      dup2\n      dup2\n      mstore\n      0x20\n      add\n      0x00\n      swap1\n    tag_68:\n      dup3\n      dup3\n      lt\n      iszero\n      tag_69\n      jumpi\n      dup4\n      dup3\n      swap1\n      0x00\n      mstore\n      keccak256(0x00, 0x20)\n      swap1\n      0x02\n      mul\n      add\n      mload(0x40)\n      dup1\n      0x60\n      add\n      0x40\n      mstore\n      swap1\n      dup2\n      0x00\n      dup3\n      add\n      sload\n      dup2\n      mstore\n      0x20\n      add\n      0x01\n      dup3\n      add\n      0x00\n      swap1\n      sload\n      swap1\n      0x0100\n      exp\n      swap1\n      div\n      0xff\n      and\n      iszero\n      iszero\n      iszero\n      iszero\n      dup2\n      mstore\n      0x20\n      add\n      0x01\n      dup3\n      add\n      0x01\n      swap1\n      sload\n      swap1\n      0x0100\n      exp\n      swap1\n      div\n      0xff\n      and\n      iszero\n      iszero\n      iszero\n      iszero\n      dup2\n      mstore\n      pop\n      pop\n      dup2\n      mstore\n      0x20\n      add\n      swap1\n      0x01\n      add\n      swap1\n      jump(tag_68)\n    tag_69:\n      pop\n      pop\n      pop\n      pop\n      dup2\n      mstore\n      0x20\n      add\n      0x04\n      dup3\n      add\n      sload\n      dup2\n      mstore\n      pop\n      pop\n      swap1\n      pop\n        /* \"contracts/escrow.sol\":730:834  function getjob(uint256 _jobid) public view returns (Job  memory){... */\n      swap2\n      swap1\n      pop\n      jump\t// out\n        /* \"contracts/escrow.sol\":197:228  IERC20 public immutable i_token */\n    tag_31:\n      immutable(\"0x7d4579ab3c781860520f730aa471b37a7366c1c6efb6e34470da23130f5149f7\")\n      dup2\n      jump\t// out\n        /* \"contracts/escrow.sol\":235:255  uint256 public jobId */\n    tag_35:\n      sload(0x00)\n      dup2\n      jump\t// out\n        /* \"contracts/helper.sol\":86:187  function toWei(uint256 amount) internal pure returns (uint256){... */\n    tag_47:\n        /* \"contracts/helper.sol\":140:147  uint256 */\n      0x00\n        /* \"contracts/helper.sol\":175:179  1e18 */\n      0x0de0b6b3a7640000\n        /* \"contracts/helper.sol\":166:172  amount */\n      dup3\n        /* \"contracts/helper.sol\":166:179  amount * 1e18 */\n      tag_72\n      swap2\n      swap1\n      tag_73\n      jump\t// in\n    tag_72:\n        /* \"contracts/helper.sol\":159:179  return amount * 1e18 */\n      swap1\n      pop\n        /* \"contracts/helper.sol\":86:187  function toWei(uint256 amount) internal pure returns (uint256){... */\n      swap2\n      swap1\n      pop\n      jump\t// out\n    tag_66:\n      mload(0x40)\n      dup1\n      0xa0\n      add\n      0x40\n      mstore\n      dup1\n      0x00\n      dup2\n      mstore\n      0x20\n      add\n      and(0xffffffffffffffffffffffffffffffffffffffff, 0x00)\n      dup2\n      mstore\n      0x20\n      add\n      and(0xffffffffffffffffffffffffffffffffffffffff, 0x00)\n      dup2\n      mstore\n      0x20\n      add\n      0x60\n      dup2\n      mstore\n      0x20\n      add\n      0x00\n      dup2\n      mstore\n      pop\n      swap1\n      jump\t// out\n        /* \"#utility.yul\":7:82   */\n    tag_74:\n        /* \"#utility.yul\":40:46   */\n      0x00\n        /* \"#utility.yul\":73:75   */\n      0x40\n        /* \"#utility.yul\":67:76   */\n      mload\n        /* \"#utility.yul\":57:76   */\n      swap1\n      pop\n        /* \"#utility.yul\":7:82   */\n      swap1\n      jump\t// out\n        /* \"#utility.yul\":88:205   */\n    tag_75:\n        /* \"#utility.yul\":197:198   */\n      0x00\n        /* \"#utility.yul\":194:195   */\n      0x00\n        /* \"#utility.yul\":187:199   */\n      revert\n        /* \"#utility.yul\":211:328   */\n    tag_76:\n        /* \"#utility.yul\":320:321   */\n      0x00\n        /* \"#utility.yul\":317:318   */\n      0x00\n        /* \"#utility.yul\":310:322   */\n      revert\n        /* \"#utility.yul\":334:411   */\n    tag_77:\n        /* \"#utility.yul\":371:378   */\n      0x00\n        /* \"#utility.yul\":400:405   */\n      dup2\n        /* \"#utility.yul\":389:405   */\n      swap1\n      pop\n        /* \"#utility.yul\":334:411   */\n      swap2\n      swap1\n      pop\n      jump\t// out\n        /* \"#utility.yul\":417:539   */\n    tag_78:\n        /* \"#utility.yul\":490:514   */\n      tag_124\n        /* \"#utility.yul\":508:513   */\n      dup2\n        /* \"#utility.yul\":490:514   */\n      tag_77\n      jump\t// in\n    tag_124:\n        /* \"#utility.yul\":483:488   */\n      dup2\n        /* \"#utility.yul\":480:515   */\n      eq\n        /* \"#utility.yul\":470:533   */\n      tag_125\n      jumpi\n        /* \"#utility.yul\":529:530   */\n      0x00\n        /* \"#utility.yul\":526:527   */\n      0x00\n        /* \"#utility.yul\":519:531   */\n      revert\n        /* \"#utility.yul\":470:533   */\n    tag_125:\n        /* \"#utility.yul\":417:539   */\n      pop\n      jump\t// out\n        /* \"#utility.yul\":545:684   */\n    tag_79:\n        /* \"#utility.yul\":591:596   */\n      0x00\n        /* \"#utility.yul\":629:635   */\n      dup2\n        /* \"#utility.yul\":616:636   */\n      calldataload\n        /* \"#utility.yul\":607:636   */\n      swap1\n      pop\n        /* \"#utility.yul\":645:678   */\n      tag_127\n        /* \"#utility.yul\":672:677   */\n      dup2\n        /* \"#utility.yul\":645:678   */\n      tag_78\n      jump\t// in\n    tag_127:\n        /* \"#utility.yul\":545:684   */\n      swap3\n      swap2\n      pop\n      pop\n      jump\t// out\n        /* \"#utility.yul\":690:1019   */\n    tag_11:\n        /* \"#utility.yul\":749:755   */\n      0x00\n        /* \"#utility.yul\":798:800   */\n      0x20\n        /* \"#utility.yul\":786:795   */\n      dup3\n        /* \"#utility.yul\":777:784   */\n      dup5\n        /* \"#utility.yul\":773:796   */\n      sub\n        /* \"#utility.yul\":769:801   */\n      slt\n        /* \"#utility.yul\":766:885   */\n      iszero\n      tag_129\n      jumpi\n        /* \"#utility.yul\":804:883   */\n      tag_130\n      tag_75\n      jump\t// in\n    tag_130:\n        /* \"#utility.yul\":766:885   */\n    tag_129:\n        /* \"#utility.yul\":924:925   */\n      0x00\n        /* \"#utility.yul\":949:1002   */\n      tag_131\n        /* \"#utility.yul\":994:1001   */\n      dup5\n        /* \"#utility.yul\":985:991   */\n      dup3\n        /* \"#utility.yul\":974:983   */\n      dup6\n        /* \"#utility.yul\":970:992   */\n      add\n        /* \"#utility.yul\":949:1002   */\n      tag_79\n      jump\t// in\n    tag_131:\n        /* \"#utility.yul\":939:1002   */\n      swap2\n      pop\n        /* \"#utility.yul\":895:1012   */\n      pop\n        /* \"#utility.yul\":690:1019   */\n      swap3\n      swap2\n      pop\n      pop\n      jump\t// out\n        /* \"#utility.yul\":1025:1143   */\n    tag_80:\n        /* \"#utility.yul\":1112:1136   */\n      tag_133\n        /* \"#utility.yul\":1130:1135   */\n      dup2\n        /* \"#utility.yul\":1112:1136   */\n      tag_77\n      jump\t// in\n    tag_133:\n        /* \"#utility.yul\":1107:1110   */\n      dup3\n        /* \"#utility.yul\":1100:1137   */\n      mstore\n        /* \"#utility.yul\":1025:1143   */\n      pop\n      pop\n      jump\t// out\n        /* \"#utility.yul\":1149:1275   */\n    tag_81:\n        /* \"#utility.yul\":1186:1193   */\n      0x00\n        /* \"#utility.yul\":1226:1268   */\n      0xffffffffffffffffffffffffffffffffffffffff\n        /* \"#utility.yul\":1219:1224   */\n      dup3\n        /* \"#utility.yul\":1215:1269   */\n      and\n        /* \"#utility.yul\":1204:1269   */\n      swap1\n      pop\n        /* \"#utility.yul\":1149:1275   */\n      swap2\n      swap1\n      pop\n      jump\t// out\n        /* \"#utility.yul\":1281:1377   */\n    tag_82:\n        /* \"#utility.yul\":1318:1325   */\n      0x00\n        /* \"#utility.yul\":1347:1371   */\n      tag_136\n        /* \"#utility.yul\":1365:1370   */\n      dup3\n        /* \"#utility.yul\":1347:1371   */\n      tag_81\n      jump\t// in\n    tag_136:\n        /* \"#utility.yul\":1336:1371   */\n      swap1\n      pop\n        /* \"#utility.yul\":1281:1377   */\n      swap2\n      swap1\n      pop\n      jump\t// out\n        /* \"#utility.yul\":1383:1501   */\n    tag_83:\n        /* \"#utility.yul\":1470:1494   */\n      tag_138\n        /* \"#utility.yul\":1488:1493   */\n      dup2\n        /* \"#utility.yul\":1470:1494   */\n      tag_82\n      jump\t// in\n    tag_138:\n        /* \"#utility.yul\":1465:1468   */\n      dup3\n        /* \"#utility.yul\":1458:1495   */\n      mstore\n        /* \"#utility.yul\":1383:1501   */\n      pop\n      pop\n      jump\t// out\n        /* \"#utility.yul\":1507:2060   */\n    tag_14:\n        /* \"#utility.yul\":1684:1688   */\n      0x00\n        /* \"#utility.yul\":1722:1725   */\n      0x80\n        /* \"#utility.yul\":1711:1720   */\n      dup3\n        /* \"#utility.yul\":1707:1726   */\n      add\n        /* \"#utility.yul\":1699:1726   */\n      swap1\n      pop\n        /* \"#utility.yul\":1736:1807   */\n      tag_140\n        /* \"#utility.yul\":1804:1805   */\n      0x00\n        /* \"#utility.yul\":1793:1802   */\n      dup4\n        /* \"#utility.yul\":1789:1806   */\n      add\n        /* \"#utility.yul\":1780:1786   */\n      dup8\n        /* \"#utility.yul\":1736:1807   */\n      tag_80\n      jump\t// in\n    tag_140:\n        /* \"#utility.yul\":1817:1889   */\n      tag_141\n        /* \"#utility.yul\":1885:1887   */\n      0x20\n        /* \"#utility.yul\":1874:1883   */\n      dup4\n        /* \"#utility.yul\":1870:1888   */\n      add\n        /* \"#utility.yul\":1861:1867   */\n      dup7\n        /* \"#utility.yul\":1817:1889   */\n      tag_83\n      jump\t// in\n    tag_141:\n        /* \"#utility.yul\":1899:1971   */\n      tag_142\n        /* \"#utility.yul\":1967:1969   */\n      0x40\n        /* \"#utility.yul\":1956:1965   */\n      dup4\n        /* \"#utility.yul\":1952:1970   */\n      add\n        /* \"#utility.yul\":1943:1949   */\n      dup6\n        /* \"#utility.yul\":1899:1971   */\n      tag_83\n      jump\t// in\n    tag_142:\n        /* \"#utility.yul\":1981:2053   */\n      tag_143\n        /* \"#utility.yul\":2049:2051   */\n      0x60\n        /* \"#utility.yul\":2038:2047   */\n      dup4\n        /* \"#utility.yul\":2034:2052   */\n      add\n        /* \"#utility.yul\":2025:2031   */\n      dup5\n        /* \"#utility.yul\":1981:2053   */\n      tag_80\n      jump\t// in\n    tag_143:\n        /* \"#utility.yul\":1507:2060   */\n      swap6\n      swap5\n      pop\n      pop\n      pop\n      pop\n      pop\n      jump\t// out\n        /* \"#utility.yul\":2066:2188   */\n    tag_84:\n        /* \"#utility.yul\":2139:2163   */\n      tag_145\n        /* \"#utility.yul\":2157:2162   */\n      dup2\n        /* \"#utility.yul\":2139:2163   */\n      tag_82\n      jump\t// in\n    tag_145:\n        /* \"#utility.yul\":2132:2137   */\n      dup2\n        /* \"#utility.yul\":2129:2164   */\n      eq\n        /* \"#utility.yul\":2119:2182   */\n      tag_146\n      jumpi\n        /* \"#utility.yul\":2178:2179   */\n      0x00\n        /* \"#utility.yul\":2175:2176   */\n      0x00\n        /* \"#utility.yul\":2168:2180   */\n      revert\n        /* \"#utility.yul\":2119:2182   */\n    tag_146:\n        /* \"#utility.yul\":2066:2188   */\n      pop\n      jump\t// out\n        /* \"#utility.yul\":2194:2333   */\n    tag_85:\n        /* \"#utility.yul\":2240:2245   */\n      0x00\n        /* \"#utility.yul\":2278:2284   */\n      dup2\n        /* \"#utility.yul\":2265:2285   */\n      calldataload\n        /* \"#utility.yul\":2256:2285   */\n      swap1\n      pop\n        /* \"#utility.yul\":2294:2327   */\n      tag_148\n        /* \"#utility.yul\":2321:2326   */\n      dup2\n        /* \"#utility.yul\":2294:2327   */\n      tag_84\n      jump\t// in\n    tag_148:\n        /* \"#utility.yul\":2194:2333   */\n      swap3\n      swap2\n      pop\n      pop\n      jump\t// out\n        /* \"#utility.yul\":2339:2456   */\n    tag_86:\n        /* \"#utility.yul\":2448:2449   */\n      0x00\n        /* \"#utility.yul\":2445:2446   */\n      0x00\n        /* \"#utility.yul\":2438:2450   */\n      revert\n        /* \"#utility.yul\":2462:2564   */\n    tag_87:\n        /* \"#utility.yul\":2503:2509   */\n      0x00\n        /* \"#utility.yul\":2554:2556   */\n      0x1f\n        /* \"#utility.yul\":2550:2557   */\n      not\n        /* \"#utility.yul\":2545:2547   */\n      0x1f\n        /* \"#utility.yul\":2538:2543   */\n      dup4\n        /* \"#utility.yul\":2534:2548   */\n      add\n        /* \"#utility.yul\":2530:2558   */\n      and\n        /* \"#utility.yul\":2520:2558   */\n      swap1\n      pop\n        /* \"#utility.yul\":2462:2564   */\n      swap2\n      swap1\n      pop\n      jump\t// out\n        /* \"#utility.yul\":2570:2750   */\n    tag_88:\n        /* \"#utility.yul\":2618:2695   */\n      0x4e487b7100000000000000000000000000000000000000000000000000000000\n        /* \"#utility.yul\":2615:2616   */\n      0x00\n        /* \"#utility.yul\":2608:2696   */\n      mstore\n        /* \"#utility.yul\":2715:2719   */\n      0x41\n        /* \"#utility.yul\":2712:2713   */\n      0x04\n        /* \"#utility.yul\":2705:2720   */\n      mstore\n        /* \"#utility.yul\":2739:2743   */\n      0x24\n        /* \"#utility.yul\":2736:2737   */\n      0x00\n        /* \"#utility.yul\":2729:2744   */\n      revert\n        /* \"#utility.yul\":2756:3037   */\n    tag_89:\n        /* \"#utility.yul\":2839:2866   */\n      tag_153\n        /* \"#utility.yul\":2861:2865   */\n      dup3\n        /* \"#utility.yul\":2839:2866   */\n      tag_87\n      jump\t// in\n    tag_153:\n        /* \"#utility.yul\":2831:2837   */\n      dup2\n        /* \"#utility.yul\":2827:2867   */\n      add\n        /* \"#utility.yul\":2969:2975   */\n      dup2\n        /* \"#utility.yul\":2957:2967   */\n      dup2\n        /* \"#utility.yul\":2954:2976   */\n      lt\n        /* \"#utility.yul\":2933:2951   */\n      0xffffffffffffffff\n        /* \"#utility.yul\":2921:2931   */\n      dup3\n        /* \"#utility.yul\":2918:2952   */\n      gt\n        /* \"#utility.yul\":2915:2977   */\n      or\n        /* \"#utility.yul\":2912:3000   */\n      iszero\n      tag_154\n      jumpi\n        /* \"#utility.yul\":2980:2998   */\n      tag_155\n      tag_88\n      jump\t// in\n    tag_155:\n        /* \"#utility.yul\":2912:3000   */\n    tag_154:\n        /* \"#utility.yul\":3020:3030   */\n      dup1\n        /* \"#utility.yul\":3016:3018   */\n      0x40\n        /* \"#utility.yul\":3009:3031   */\n      mstore\n        /* \"#utility.yul\":2799:3037   */\n      pop\n        /* \"#utility.yul\":2756:3037   */\n      pop\n      pop\n      jump\t// out\n        /* \"#utility.yul\":3043:3172   */\n    tag_90:\n        /* \"#utility.yul\":3077:3083   */\n      0x00\n        /* \"#utility.yul\":3104:3124   */\n      tag_157\n      tag_74\n      jump\t// in\n    tag_157:\n        /* \"#utility.yul\":3094:3124   */\n      swap1\n      pop\n        /* \"#utility.yul\":3133:3166   */\n      tag_158\n        /* \"#utility.yul\":3161:3165   */\n      dup3\n        /* \"#utility.yul\":3153:3159   */\n      dup3\n        /* \"#utility.yul\":3133:3166   */\n      tag_89\n      jump\t// in\n    tag_158:\n        /* \"#utility.yul\":3043:3172   */\n      swap2\n      swap1\n      pop\n      jump\t// out\n        /* \"#utility.yul\":3178:3489   */\n    tag_91:\n        /* \"#utility.yul\":3255:3259   */\n      0x00\n        /* \"#utility.yul\":3345:3363   */\n      0xffffffffffffffff\n        /* \"#utility.yul\":3337:3343   */\n      dup3\n        /* \"#utility.yul\":3334:3364   */\n      gt\n        /* \"#utility.yul\":3331:3387   */\n      iszero\n      tag_160\n      jumpi\n        /* \"#utility.yul\":3367:3385   */\n      tag_161\n      tag_88\n      jump\t// in\n    tag_161:\n        /* \"#utility.yul\":3331:3387   */\n    tag_160:\n        /* \"#utility.yul\":3417:3421   */\n      0x20\n        /* \"#utility.yul\":3409:3415   */\n      dup3\n        /* \"#utility.yul\":3405:3422   */\n      mul\n        /* \"#utility.yul\":3397:3422   */\n      swap1\n      pop\n        /* \"#utility.yul\":3477:3481   */\n      0x20\n        /* \"#utility.yul\":3471:3475   */\n      dup2\n        /* \"#utility.yul\":3467:3482   */\n      add\n        /* \"#utility.yul\":3459:3482   */\n      swap1\n      pop\n        /* \"#utility.yul\":3178:3489   */\n      swap2\n      swap1\n      pop\n      jump\t// out\n        /* \"#utility.yul\":3495:3612   */\n    tag_92:\n        /* \"#utility.yul\":3604:3605   */\n      0x00\n        /* \"#utility.yul\":3601:3602   */\n      0x00\n        /* \"#utility.yul\":3594:3606   */\n      revert\n        /* \"#utility.yul\":3635:4345   */\n    tag_93:\n        /* \"#utility.yul\":3731:3736   */\n      0x00\n        /* \"#utility.yul\":3756:3837   */\n      tag_164\n        /* \"#utility.yul\":3772:3836   */\n      tag_165\n        /* \"#utility.yul\":3829:3835   */\n      dup5\n        /* \"#utility.yul\":3772:3836   */\n      tag_91\n      jump\t// in\n    tag_165:\n        /* \"#utility.yul\":3756:3837   */\n      tag_90\n      jump\t// in\n    tag_164:\n        /* \"#utility.yul\":3747:3837   */\n      swap1\n      pop\n        /* \"#utility.yul\":3857:3862   */\n      dup1\n        /* \"#utility.yul\":3886:3892   */\n      dup4\n        /* \"#utility.yul\":3879:3884   */\n      dup3\n        /* \"#utility.yul\":3872:3893   */\n      mstore\n        /* \"#utility.yul\":3920:3924   */\n      0x20\n        /* \"#utility.yul\":3913:3918   */\n      dup3\n        /* \"#utility.yul\":3909:3925   */\n      add\n        /* \"#utility.yul\":3902:3925   */\n      swap1\n      pop\n        /* \"#utility.yul\":3973:3977   */\n      0x20\n        /* \"#utility.yul\":3965:3971   */\n      dup5\n        /* \"#utility.yul\":3961:3978   */\n      mul\n        /* \"#utility.yul\":3953:3959   */\n      dup4\n        /* \"#utility.yul\":3949:3979   */\n      add\n        /* \"#utility.yul\":4002:4005   */\n      dup6\n        /* \"#utility.yul\":3994:4000   */\n      dup2\n        /* \"#utility.yul\":3991:4006   */\n      gt\n        /* \"#utility.yul\":3988:4110   */\n      iszero\n      tag_166\n      jumpi\n        /* \"#utility.yul\":4021:4100   */\n      tag_167\n      tag_92\n      jump\t// in\n    tag_167:\n        /* \"#utility.yul\":3988:4110   */\n    tag_166:\n        /* \"#utility.yul\":4136:4142   */\n      dup4\n        /* \"#utility.yul\":4119:4339   */\n    tag_168:\n        /* \"#utility.yul\":4153:4159   */\n      dup2\n        /* \"#utility.yul\":4148:4151   */\n      dup2\n        /* \"#utility.yul\":4145:4160   */\n      lt\n        /* \"#utility.yul\":4119:4339   */\n      iszero\n      tag_170\n      jumpi\n        /* \"#utility.yul\":4228:4231   */\n      dup1\n        /* \"#utility.yul\":4257:4294   */\n      tag_171\n        /* \"#utility.yul\":4290:4293   */\n      dup9\n        /* \"#utility.yul\":4278:4288   */\n      dup3\n        /* \"#utility.yul\":4257:4294   */\n      tag_79\n      jump\t// in\n    tag_171:\n        /* \"#utility.yul\":4252:4255   */\n      dup5\n        /* \"#utility.yul\":4245:4295   */\n      mstore\n        /* \"#utility.yul\":4324:4328   */\n      0x20\n        /* \"#utility.yul\":4319:4322   */\n      dup5\n        /* \"#utility.yul\":4315:4329   */\n      add\n        /* \"#utility.yul\":4308:4329   */\n      swap4\n      pop\n        /* \"#utility.yul\":4195:4339   */\n      pop\n        /* \"#utility.yul\":4179:4183   */\n      0x20\n        /* \"#utility.yul\":4174:4177   */\n      dup2\n        /* \"#utility.yul\":4170:4184   */\n      add\n        /* \"#utility.yul\":4163:4184   */\n      swap1\n      pop\n        /* \"#utility.yul\":4119:4339   */\n      jump(tag_168)\n    tag_170:\n        /* \"#utility.yul\":4123:4144   */\n      pop\n        /* \"#utility.yul\":3737:4345   */\n      pop\n      pop\n        /* \"#utility.yul\":3635:4345   */\n      swap4\n      swap3\n      pop\n      pop\n      pop\n      jump\t// out\n        /* \"#utility.yul\":4368:4738   */\n    tag_94:\n        /* \"#utility.yul\":4439:4444   */\n      0x00\n        /* \"#utility.yul\":4488:4491   */\n      dup3\n        /* \"#utility.yul\":4481:4485   */\n      0x1f\n        /* \"#utility.yul\":4473:4479   */\n      dup4\n        /* \"#utility.yul\":4469:4486   */\n      add\n        /* \"#utility.yul\":4465:4492   */\n      slt\n        /* \"#utility.yul\":4455:4577   */\n      tag_173\n      jumpi\n        /* \"#utility.yul\":4496:4575   */\n      tag_174\n      tag_86\n      jump\t// in\n    tag_174:\n        /* \"#utility.yul\":4455:4577   */\n    tag_173:\n        /* \"#utility.yul\":4613:4619   */\n      dup2\n        /* \"#utility.yul\":4600:4620   */\n      calldataload\n        /* \"#utility.yul\":4638:4732   */\n      tag_175\n        /* \"#utility.yul\":4728:4731   */\n      dup5\n        /* \"#utility.yul\":4720:4726   */\n      dup3\n        /* \"#utility.yul\":4713:4717   */\n      0x20\n        /* \"#utility.yul\":4705:4711   */\n      dup7\n        /* \"#utility.yul\":4701:4718   */\n      add\n        /* \"#utility.yul\":4638:4732   */\n      tag_93\n      jump\t// in\n    tag_175:\n        /* \"#utility.yul\":4629:4732   */\n      swap2\n      pop\n        /* \"#utility.yul\":4445:4738   */\n      pop\n        /* \"#utility.yul\":4368:4738   */\n      swap3\n      swap2\n      pop\n      pop\n      jump\t// out\n        /* \"#utility.yul\":4744:5428   */\n    tag_17:\n        /* \"#utility.yul\":4837:4843   */\n      0x00\n        /* \"#utility.yul\":4845:4851   */\n      0x00\n        /* \"#utility.yul\":4894:4896   */\n      0x40\n        /* \"#utility.yul\":4882:4891   */\n      dup4\n        /* \"#utility.yul\":4873:4880   */\n      dup6\n        /* \"#utility.yul\":4869:4892   */\n      sub\n        /* \"#utility.yul\":4865:4897   */\n      slt\n        /* \"#utility.yul\":4862:4981   */\n      iszero\n      tag_177\n      jumpi\n        /* \"#utility.yul\":4900:4979   */\n      tag_178\n      tag_75\n      jump\t// in\n    tag_178:\n        /* \"#utility.yul\":4862:4981   */\n    tag_177:\n        /* \"#utility.yul\":5020:5021   */\n      0x00\n        /* \"#utility.yul\":5045:5098   */\n      tag_179\n        /* \"#utility.yul\":5090:5097   */\n      dup6\n        /* \"#utility.yul\":5081:5087   */\n      dup3\n        /* \"#utility.yul\":5070:5079   */\n      dup7\n        /* \"#utility.yul\":5066:5088   */\n      add\n        /* \"#utility.yul\":5045:5098   */\n      tag_85\n      jump\t// in\n    tag_179:\n        /* \"#utility.yul\":5035:5098   */\n      swap3\n      pop\n        /* \"#utility.yul\":4991:5108   */\n      pop\n        /* \"#utility.yul\":5175:5177   */\n      0x20\n        /* \"#utility.yul\":5164:5173   */\n      dup4\n        /* \"#utility.yul\":5160:5178   */\n      add\n        /* \"#utility.yul\":5147:5179   */\n      calldataload\n        /* \"#utility.yul\":5206:5224   */\n      0xffffffffffffffff\n        /* \"#utility.yul\":5198:5204   */\n      dup2\n        /* \"#utility.yul\":5195:5225   */\n      gt\n        /* \"#utility.yul\":5192:5309   */\n      iszero\n      tag_180\n      jumpi\n        /* \"#utility.yul\":5228:5307   */\n      tag_181\n      tag_76\n      jump\t// in\n    tag_181:\n        /* \"#utility.yul\":5192:5309   */\n    tag_180:\n        /* \"#utility.yul\":5333:5411   */\n      tag_182\n        /* \"#utility.yul\":5403:5410   */\n      dup6\n        /* \"#utility.yul\":5394:5400   */\n      dup3\n        /* \"#utility.yul\":5383:5392   */\n      dup7\n        /* \"#utility.yul\":5379:5401   */\n      add\n        /* \"#utility.yul\":5333:5411   */\n      tag_94\n      jump\t// in\n    tag_182:\n        /* \"#utility.yul\":5323:5411   */\n      swap2\n      pop\n        /* \"#utility.yul\":5118:5421   */\n      pop\n        /* \"#utility.yul\":4744:5428   */\n      swap3\n      pop\n      swap3\n      swap1\n      pop\n      jump\t// out\n        /* \"#utility.yul\":5434:5908   */\n    tag_21:\n        /* \"#utility.yul\":5502:5508   */\n      0x00\n        /* \"#utility.yul\":5510:5516   */\n      0x00\n        /* \"#utility.yul\":5559:5561   */\n      0x40\n        /* \"#utility.yul\":5547:5556   */\n      dup4\n        /* \"#utility.yul\":5538:5545   */\n      dup6\n        /* \"#utility.yul\":5534:5557   */\n      sub\n        /* \"#utility.yul\":5530:5562   */\n      slt\n        /* \"#utility.yul\":5527:5646   */\n      iszero\n      tag_184\n      jumpi\n        /* \"#utility.yul\":5565:5644   */\n      tag_185\n      tag_75\n      jump\t// in\n    tag_185:\n        /* \"#utility.yul\":5527:5646   */\n    tag_184:\n        /* \"#utility.yul\":5685:5686   */\n      0x00\n        /* \"#utility.yul\":5710:5763   */\n      tag_186\n        /* \"#utility.yul\":5755:5762   */\n      dup6\n        /* \"#utility.yul\":5746:5752   */\n      dup3\n        /* \"#utility.yul\":5735:5744   */\n      dup7\n        /* \"#utility.yul\":5731:5753   */\n      add\n        /* \"#utility.yul\":5710:5763   */\n      tag_85\n      jump\t// in\n    tag_186:\n        /* \"#utility.yul\":5700:5763   */\n      swap3\n      pop\n        /* \"#utility.yul\":5656:5773   */\n      pop\n        /* \"#utility.yul\":5812:5814   */\n      0x20\n        /* \"#utility.yul\":5838:5891   */\n      tag_187\n        /* \"#utility.yul\":5883:5890   */\n      dup6\n        /* \"#utility.yul\":5874:5880   */\n      dup3\n        /* \"#utility.yul\":5863:5872   */\n      dup7\n        /* \"#utility.yul\":5859:5881   */\n      add\n        /* \"#utility.yul\":5838:5891   */\n      tag_79\n      jump\t// in\n    tag_187:\n        /* \"#utility.yul\":5828:5891   */\n      swap2\n      pop\n        /* \"#utility.yul\":5783:5901   */\n      pop\n        /* \"#utility.yul\":5434:5908   */\n      swap3\n      pop\n      swap3\n      swap1\n      pop\n      jump\t// out\n        /* \"#utility.yul\":5914:6136   */\n    tag_24:\n        /* \"#utility.yul\":6007:6011   */\n      0x00\n        /* \"#utility.yul\":6045:6047   */\n      0x20\n        /* \"#utility.yul\":6034:6043   */\n      dup3\n        /* \"#utility.yul\":6030:6048   */\n      add\n        /* \"#utility.yul\":6022:6048   */\n      swap1\n      pop\n        /* \"#utility.yul\":6058:6129   */\n      tag_189\n        /* \"#utility.yul\":6126:6127   */\n      0x00\n        /* \"#utility.yul\":6115:6124   */\n      dup4\n        /* \"#utility.yul\":6111:6128   */\n      add\n        /* \"#utility.yul\":6102:6108   */\n      dup5\n        /* \"#utility.yul\":6058:6129   */\n      tag_80\n      jump\t// in\n    tag_189:\n        /* \"#utility.yul\":5914:6136   */\n      swap3\n      swap2\n      pop\n      pop\n      jump\t// out\n        /* \"#utility.yul\":6142:6250   */\n    tag_95:\n        /* \"#utility.yul\":6219:6243   */\n      tag_191\n        /* \"#utility.yul\":6237:6242   */\n      dup2\n        /* \"#utility.yul\":6219:6243   */\n      tag_77\n      jump\t// in\n    tag_191:\n        /* \"#utility.yul\":6214:6217   */\n      dup3\n        /* \"#utility.yul\":6207:6244   */\n      mstore\n        /* \"#utility.yul\":6142:6250   */\n      pop\n      pop\n      jump\t// out\n        /* \"#utility.yul\":6256:6364   */\n    tag_96:\n        /* \"#utility.yul\":6333:6357   */\n      tag_193\n        /* \"#utility.yul\":6351:6356   */\n      dup2\n        /* \"#utility.yul\":6333:6357   */\n      tag_82\n      jump\t// in\n    tag_193:\n        /* \"#utility.yul\":6328:6331   */\n      dup3\n        /* \"#utility.yul\":6321:6358   */\n      mstore\n        /* \"#utility.yul\":6256:6364   */\n      pop\n      pop\n      jump\t// out\n        /* \"#utility.yul\":6370:6510   */\n    tag_97:\n        /* \"#utility.yul\":6463:6469   */\n      0x00\n        /* \"#utility.yul\":6497:6502   */\n      dup2\n        /* \"#utility.yul\":6491:6503   */\n      mload\n        /* \"#utility.yul\":6481:6503   */\n      swap1\n      pop\n        /* \"#utility.yul\":6370:6510   */\n      swap2\n      swap1\n      pop\n      jump\t// out\n        /* \"#utility.yul\":6516:6716   */\n    tag_98:\n        /* \"#utility.yul\":6631:6642   */\n      0x00\n        /* \"#utility.yul\":6665:6671   */\n      dup3\n        /* \"#utility.yul\":6660:6663   */\n      dup3\n        /* \"#utility.yul\":6653:6672   */\n      mstore\n        /* \"#utility.yul\":6705:6709   */\n      0x20\n        /* \"#utility.yul\":6700:6703   */\n      dup3\n        /* \"#utility.yul\":6696:6710   */\n      add\n        /* \"#utility.yul\":6681:6710   */\n      swap1\n      pop\n        /* \"#utility.yul\":6516:6716   */\n      swap3\n      swap2\n      pop\n      pop\n      jump\t// out\n        /* \"#utility.yul\":6722:6880   */\n    tag_99:\n        /* \"#utility.yul\":6815:6819   */\n      0x00\n        /* \"#utility.yul\":6838:6841   */\n      dup2\n        /* \"#utility.yul\":6830:6841   */\n      swap1\n      pop\n        /* \"#utility.yul\":6868:6872   */\n      0x20\n        /* \"#utility.yul\":6863:6866   */\n      dup3\n        /* \"#utility.yul\":6859:6873   */\n      add\n        /* \"#utility.yul\":6851:6873   */\n      swap1\n      pop\n        /* \"#utility.yul\":6722:6880   */\n      swap2\n      swap1\n      pop\n      jump\t// out\n        /* \"#utility.yul\":6886:6976   */\n    tag_100:\n        /* \"#utility.yul\":6920:6927   */\n      0x00\n        /* \"#utility.yul\":6963:6968   */\n      dup2\n        /* \"#utility.yul\":6956:6969   */\n      iszero\n        /* \"#utility.yul\":6949:6970   */\n      iszero\n        /* \"#utility.yul\":6938:6970   */\n      swap1\n      pop\n        /* \"#utility.yul\":6886:6976   */\n      swap2\n      swap1\n      pop\n      jump\t// out\n        /* \"#utility.yul\":6982:7081   */\n    tag_101:\n        /* \"#utility.yul\":7053:7074   */\n      tag_199\n        /* \"#utility.yul\":7068:7073   */\n      dup2\n        /* \"#utility.yul\":7053:7074   */\n      tag_100\n      jump\t// in\n    tag_199:\n        /* \"#utility.yul\":7048:7051   */\n      dup3\n        /* \"#utility.yul\":7041:7075   */\n      mstore\n        /* \"#utility.yul\":6982:7081   */\n      pop\n      pop\n      jump\t// out\n        /* \"#utility.yul\":7145:7813   */\n    tag_102:\n        /* \"#utility.yul\":7284:7288   */\n      0x60\n        /* \"#utility.yul\":7279:7282   */\n      dup3\n        /* \"#utility.yul\":7275:7289   */\n      add\n        /* \"#utility.yul\":7373:7377   */\n      0x00\n        /* \"#utility.yul\":7366:7371   */\n      dup3\n        /* \"#utility.yul\":7362:7378   */\n      add\n        /* \"#utility.yul\":7356:7379   */\n      mload\n        /* \"#utility.yul\":7392:7455   */\n      tag_201\n        /* \"#utility.yul\":7449:7453   */\n      0x00\n        /* \"#utility.yul\":7444:7447   */\n      dup6\n        /* \"#utility.yul\":7440:7454   */\n      add\n        /* \"#utility.yul\":7426:7438   */\n      dup3\n        /* \"#utility.yul\":7392:7455   */\n      tag_95\n      jump\t// in\n    tag_201:\n        /* \"#utility.yul\":7299:7465   */\n      pop\n        /* \"#utility.yul\":7552:7556   */\n      0x20\n        /* \"#utility.yul\":7545:7550   */\n      dup3\n        /* \"#utility.yul\":7541:7557   */\n      add\n        /* \"#utility.yul\":7535:7558   */\n      mload\n        /* \"#utility.yul\":7571:7628   */\n      tag_202\n        /* \"#utility.yul\":7622:7626   */\n      0x20\n        /* \"#utility.yul\":7617:7620   */\n      dup6\n        /* \"#utility.yul\":7613:7627   */\n      add\n        /* \"#utility.yul\":7599:7611   */\n      dup3\n        /* \"#utility.yul\":7571:7628   */\n      tag_101\n      jump\t// in\n    tag_202:\n        /* \"#utility.yul\":7475:7638   */\n      pop\n        /* \"#utility.yul\":7720:7724   */\n      0x40\n        /* \"#utility.yul\":7713:7718   */\n      dup3\n        /* \"#utility.yul\":7709:7725   */\n      add\n        /* \"#utility.yul\":7703:7726   */\n      mload\n        /* \"#utility.yul\":7739:7796   */\n      tag_203\n        /* \"#utility.yul\":7790:7794   */\n      0x40\n        /* \"#utility.yul\":7785:7788   */\n      dup6\n        /* \"#utility.yul\":7781:7795   */\n      add\n        /* \"#utility.yul\":7767:7779   */\n      dup3\n        /* \"#utility.yul\":7739:7796   */\n      tag_101\n      jump\t// in\n    tag_203:\n        /* \"#utility.yul\":7648:7806   */\n      pop\n        /* \"#utility.yul\":7253:7813   */\n      pop\n        /* \"#utility.yul\":7145:7813   */\n      pop\n      pop\n      jump\t// out\n        /* \"#utility.yul\":7819:8102   */\n    tag_103:\n        /* \"#utility.yul\":7940:7950   */\n      0x00\n        /* \"#utility.yul\":7961:8059   */\n      tag_205\n        /* \"#utility.yul\":8055:8058   */\n      dup4\n        /* \"#utility.yul\":8047:8053   */\n      dup4\n        /* \"#utility.yul\":7961:8059   */\n      tag_102\n      jump\t// in\n    tag_205:\n        /* \"#utility.yul\":8091:8095   */\n      0x60\n        /* \"#utility.yul\":8086:8089   */\n      dup4\n        /* \"#utility.yul\":8082:8096   */\n      add\n        /* \"#utility.yul\":8068:8096   */\n      swap1\n      pop\n        /* \"#utility.yul\":7819:8102   */\n      swap3\n      swap2\n      pop\n      pop\n      jump\t// out\n        /* \"#utility.yul\":8108:8247   */\n    tag_104:\n        /* \"#utility.yul\":8204:8208   */\n      0x00\n        /* \"#utility.yul\":8236:8240   */\n      0x20\n        /* \"#utility.yul\":8231:8234   */\n      dup3\n        /* \"#utility.yul\":8227:8241   */\n      add\n        /* \"#utility.yul\":8219:8241   */\n      swap1\n      pop\n        /* \"#utility.yul\":8108:8247   */\n      swap2\n      swap1\n      pop\n      jump\t// out\n        /* \"#utility.yul\":8315:9235   */\n    tag_105:\n        /* \"#utility.yul\":8476:8479   */\n      0x00\n        /* \"#utility.yul\":8505:8585   */\n      tag_208\n        /* \"#utility.yul\":8579:8584   */\n      dup3\n        /* \"#utility.yul\":8505:8585   */\n      tag_97\n      jump\t// in\n    tag_208:\n        /* \"#utility.yul\":8601:8703   */\n      tag_209\n        /* \"#utility.yul\":8696:8702   */\n      dup2\n        /* \"#utility.yul\":8691:8694   */\n      dup6\n        /* \"#utility.yul\":8601:8703   */\n      tag_98\n      jump\t// in\n    tag_209:\n        /* \"#utility.yul\":8594:8703   */\n      swap4\n      pop\n        /* \"#utility.yul\":8727:8809   */\n      tag_210\n        /* \"#utility.yul\":8803:8808   */\n      dup4\n        /* \"#utility.yul\":8727:8809   */\n      tag_99\n      jump\t// in\n    tag_210:\n        /* \"#utility.yul\":8832:8839   */\n      dup1\n        /* \"#utility.yul\":8863:8864   */\n      0x00\n        /* \"#utility.yul\":8848:9210   */\n    tag_211:\n        /* \"#utility.yul\":8873:8879   */\n      dup4\n        /* \"#utility.yul\":8870:8871   */\n      dup2\n        /* \"#utility.yul\":8867:8880   */\n      lt\n        /* \"#utility.yul\":8848:9210   */\n      iszero\n      tag_213\n      jumpi\n        /* \"#utility.yul\":8949:8955   */\n      dup2\n        /* \"#utility.yul\":8943:8956   */\n      mload\n        /* \"#utility.yul\":8976:9091   */\n      tag_214\n        /* \"#utility.yul\":9087:9090   */\n      dup9\n        /* \"#utility.yul\":9072:9085   */\n      dup3\n        /* \"#utility.yul\":8976:9091   */\n      tag_103\n      jump\t// in\n    tag_214:\n        /* \"#utility.yul\":8969:9091   */\n      swap8\n      pop\n        /* \"#utility.yul\":9114:9200   */\n      tag_215\n        /* \"#utility.yul\":9193:9199   */\n      dup4\n        /* \"#utility.yul\":9114:9200   */\n      tag_104\n      jump\t// in\n    tag_215:\n        /* \"#utility.yul\":9104:9200   */\n      swap3\n      pop\n        /* \"#utility.yul\":8908:9210   */\n      pop\n        /* \"#utility.yul\":8895:8896   */\n      0x01\n        /* \"#utility.yul\":8892:8893   */\n      dup2\n        /* \"#utility.yul\":8888:8897   */\n      add\n        /* \"#utility.yul\":8883:8897   */\n      swap1\n      pop\n        /* \"#utility.yul\":8848:9210   */\n      jump(tag_211)\n    tag_213:\n        /* \"#utility.yul\":8852:8866   */\n      pop\n        /* \"#utility.yul\":9226:9229   */\n      dup6\n        /* \"#utility.yul\":9219:9229   */\n      swap4\n      pop\n        /* \"#utility.yul\":8481:9235   */\n      pop\n      pop\n      pop\n        /* \"#utility.yul\":8315:9235   */\n      swap3\n      swap2\n      pop\n      pop\n      jump\t// out\n        /* \"#utility.yul\":9287:10507   */\n    tag_106:\n        /* \"#utility.yul\":9396:9399   */\n      0x00\n        /* \"#utility.yul\":9432:9436   */\n      0xa0\n        /* \"#utility.yul\":9427:9430   */\n      dup4\n        /* \"#utility.yul\":9423:9437   */\n      add\n        /* \"#utility.yul\":9517:9521   */\n      0x00\n        /* \"#utility.yul\":9510:9515   */\n      dup4\n        /* \"#utility.yul\":9506:9522   */\n      add\n        /* \"#utility.yul\":9500:9523   */\n      mload\n        /* \"#utility.yul\":9536:9599   */\n      tag_217\n        /* \"#utility.yul\":9593:9597   */\n      0x00\n        /* \"#utility.yul\":9588:9591   */\n      dup7\n        /* \"#utility.yul\":9584:9598   */\n      add\n        /* \"#utility.yul\":9570:9582   */\n      dup3\n        /* \"#utility.yul\":9536:9599   */\n      tag_95\n      jump\t// in\n    tag_217:\n        /* \"#utility.yul\":9447:9609   */\n      pop\n        /* \"#utility.yul\":9694:9698   */\n      0x20\n        /* \"#utility.yul\":9687:9692   */\n      dup4\n        /* \"#utility.yul\":9683:9699   */\n      add\n        /* \"#utility.yul\":9677:9700   */\n      mload\n        /* \"#utility.yul\":9713:9776   */\n      tag_218\n        /* \"#utility.yul\":9770:9774   */\n      0x20\n        /* \"#utility.yul\":9765:9768   */\n      dup7\n        /* \"#utility.yul\":9761:9775   */\n      add\n        /* \"#utility.yul\":9747:9759   */\n      dup3\n        /* \"#utility.yul\":9713:9776   */\n      tag_96\n      jump\t// in\n    tag_218:\n        /* \"#utility.yul\":9619:9786   */\n      pop\n        /* \"#utility.yul\":9874:9878   */\n      0x40\n        /* \"#utility.yul\":9867:9872   */\n      dup4\n        /* \"#utility.yul\":9863:9879   */\n      add\n        /* \"#utility.yul\":9857:9880   */\n      mload\n        /* \"#utility.yul\":9893:9956   */\n      tag_219\n        /* \"#utility.yul\":9950:9954   */\n      0x40\n        /* \"#utility.yul\":9945:9948   */\n      dup7\n        /* \"#utility.yul\":9941:9955   */\n      add\n        /* \"#utility.yul\":9927:9939   */\n      dup3\n        /* \"#utility.yul\":9893:9956   */\n      tag_96\n      jump\t// in\n    tag_219:\n        /* \"#utility.yul\":9796:9966   */\n      pop\n        /* \"#utility.yul\":10054:10058   */\n      0x60\n        /* \"#utility.yul\":10047:10052   */\n      dup4\n        /* \"#utility.yul\":10043:10059   */\n      add\n        /* \"#utility.yul\":10037:10060   */\n      mload\n        /* \"#utility.yul\":10107:10110   */\n      dup5\n        /* \"#utility.yul\":10101:10105   */\n      dup3\n        /* \"#utility.yul\":10097:10111   */\n      sub\n        /* \"#utility.yul\":10090:10094   */\n      0x60\n        /* \"#utility.yul\":10085:10088   */\n      dup7\n        /* \"#utility.yul\":10081:10095   */\n      add\n        /* \"#utility.yul\":10074:10112   */\n      mstore\n        /* \"#utility.yul\":10133:10288   */\n      tag_220\n        /* \"#utility.yul\":10283:10287   */\n      dup3\n        /* \"#utility.yul\":10269:10281   */\n      dup3\n        /* \"#utility.yul\":10133:10288   */\n      tag_105\n      jump\t// in\n    tag_220:\n        /* \"#utility.yul\":10125:10288   */\n      swap2\n      pop\n        /* \"#utility.yul\":9976:10299   */\n      pop\n        /* \"#utility.yul\":10388:10392   */\n      0x80\n        /* \"#utility.yul\":10381:10386   */\n      dup4\n        /* \"#utility.yul\":10377:10393   */\n      add\n        /* \"#utility.yul\":10371:10394   */\n      mload\n        /* \"#utility.yul\":10407:10470   */\n      tag_221\n        /* \"#utility.yul\":10464:10468   */\n      0x80\n        /* \"#utility.yul\":10459:10462   */\n      dup7\n        /* \"#utility.yul\":10455:10469   */\n      add\n        /* \"#utility.yul\":10441:10453   */\n      dup3\n        /* \"#utility.yul\":10407:10470   */\n      tag_95\n      jump\t// in\n    tag_221:\n        /* \"#utility.yul\":10309:10480   */\n      pop\n        /* \"#utility.yul\":10497:10501   */\n      dup1\n        /* \"#utility.yul\":10490:10501   */\n      swap2\n      pop\n        /* \"#utility.yul\":9401:10507   */\n      pop\n        /* \"#utility.yul\":9287:10507   */\n      swap3\n      swap2\n      pop\n      pop\n      jump\t// out\n        /* \"#utility.yul\":10513:10866   */\n    tag_29:\n        /* \"#utility.yul\":10646:10650   */\n      0x00\n        /* \"#utility.yul\":10684:10686   */\n      0x20\n        /* \"#utility.yul\":10673:10682   */\n      dup3\n        /* \"#utility.yul\":10669:10687   */\n      add\n        /* \"#utility.yul\":10661:10687   */\n      swap1\n      pop\n        /* \"#utility.yul\":10733:10742   */\n      dup2\n        /* \"#utility.yul\":10727:10731   */\n      dup2\n        /* \"#utility.yul\":10723:10743   */\n      sub\n        /* \"#utility.yul\":10719:10720   */\n      0x00\n        /* \"#utility.yul\":10708:10717   */\n      dup4\n        /* \"#utility.yul\":10704:10721   */\n      add\n        /* \"#utility.yul\":10697:10744   */\n      mstore\n        /* \"#utility.yul\":10761:10859   */\n      tag_223\n        /* \"#utility.yul\":10854:10858   */\n      dup2\n        /* \"#utility.yul\":10845:10851   */\n      dup5\n        /* \"#utility.yul\":10761:10859   */\n      tag_106\n      jump\t// in\n    tag_223:\n        /* \"#utility.yul\":10753:10859   */\n      swap1\n      pop\n        /* \"#utility.yul\":10513:10866   */\n      swap3\n      swap2\n      pop\n      pop\n      jump\t// out\n        /* \"#utility.yul\":10872:10932   */\n    tag_107:\n        /* \"#utility.yul\":10900:10903   */\n      0x00\n        /* \"#utility.yul\":10921:10926   */\n      dup2\n        /* \"#utility.yul\":10914:10926   */\n      swap1\n      pop\n        /* \"#utility.yul\":10872:10932   */\n      swap2\n      swap1\n      pop\n      jump\t// out\n        /* \"#utility.yul\":10938:11080   */\n    tag_108:\n        /* \"#utility.yul\":10988:10997   */\n      0x00\n        /* \"#utility.yul\":11021:11074   */\n      tag_226\n        /* \"#utility.yul\":11039:11073   */\n      tag_227\n        /* \"#utility.yul\":11048:11072   */\n      tag_228\n        /* \"#utility.yul\":11066:11071   */\n      dup5\n        /* \"#utility.yul\":11048:11072   */\n      tag_81\n      jump\t// in\n    tag_228:\n        /* \"#utility.yul\":11039:11073   */\n      tag_107\n      jump\t// in\n    tag_227:\n        /* \"#utility.yul\":11021:11074   */\n      tag_81\n      jump\t// in\n    tag_226:\n        /* \"#utility.yul\":11008:11074   */\n      swap1\n      pop\n        /* \"#utility.yul\":10938:11080   */\n      swap2\n      swap1\n      pop\n      jump\t// out\n        /* \"#utility.yul\":11086:11212   */\n    tag_109:\n        /* \"#utility.yul\":11136:11145   */\n      0x00\n        /* \"#utility.yul\":11169:11206   */\n      tag_230\n        /* \"#utility.yul\":11200:11205   */\n      dup3\n        /* \"#utility.yul\":11169:11206   */\n      tag_108\n      jump\t// in\n    tag_230:\n        /* \"#utility.yul\":11156:11206   */\n      swap1\n      pop\n        /* \"#utility.yul\":11086:11212   */\n      swap2\n      swap1\n      pop\n      jump\t// out\n        /* \"#utility.yul\":11218:11357   */\n    tag_110:\n        /* \"#utility.yul\":11281:11290   */\n      0x00\n        /* \"#utility.yul\":11314:11351   */\n      tag_232\n        /* \"#utility.yul\":11345:11350   */\n      dup3\n        /* \"#utility.yul\":11314:11351   */\n      tag_109\n      jump\t// in\n    tag_232:\n        /* \"#utility.yul\":11301:11351   */\n      swap1\n      pop\n        /* \"#utility.yul\":11218:11357   */\n      swap2\n      swap1\n      pop\n      jump\t// out\n        /* \"#utility.yul\":11363:11520   */\n    tag_111:\n        /* \"#utility.yul\":11463:11513   */\n      tag_234\n        /* \"#utility.yul\":11507:11512   */\n      dup2\n        /* \"#utility.yul\":11463:11513   */\n      tag_110\n      jump\t// in\n    tag_234:\n        /* \"#utility.yul\":11458:11461   */\n      dup3\n        /* \"#utility.yul\":11451:11514   */\n      mstore\n        /* \"#utility.yul\":11363:11520   */\n      pop\n      pop\n      jump\t// out\n        /* \"#utility.yul\":11526:11774   */\n    tag_33:\n        /* \"#utility.yul\":11632:11636   */\n      0x00\n        /* \"#utility.yul\":11670:11672   */\n      0x20\n        /* \"#utility.yul\":11659:11668   */\n      dup3\n        /* \"#utility.yul\":11655:11673   */\n      add\n        /* \"#utility.yul\":11647:11673   */\n      swap1\n      pop\n        /* \"#utility.yul\":11683:11767   */\n      tag_236\n        /* \"#utility.yul\":11764:11765   */\n      0x00\n        /* \"#utility.yul\":11753:11762   */\n      dup4\n        /* \"#utility.yul\":11749:11766   */\n      add\n        /* \"#utility.yul\":11740:11746   */\n      dup5\n        /* \"#utility.yul\":11683:11767   */\n      tag_111\n      jump\t// in\n    tag_236:\n        /* \"#utility.yul\":11526:11774   */\n      swap3\n      swap2\n      pop\n      pop\n      jump\t// out\n        /* \"#utility.yul\":11780:11960   */\n    tag_46:\n        /* \"#utility.yul\":11828:11905   */\n      0x4e487b7100000000000000000000000000000000000000000000000000000000\n        /* \"#utility.yul\":11825:11826   */\n      0x00\n        /* \"#utility.yul\":11818:11906   */\n      mstore\n        /* \"#utility.yul\":11925:11929   */\n      0x32\n        /* \"#utility.yul\":11922:11923   */\n      0x04\n        /* \"#utility.yul\":11915:11930   */\n      mstore\n        /* \"#utility.yul\":11949:11953   */\n      0x24\n        /* \"#utility.yul\":11946:11947   */\n      0x00\n        /* \"#utility.yul\":11939:11954   */\n      revert\n        /* \"#utility.yul\":11966:12146   */\n    tag_112:\n        /* \"#utility.yul\":12014:12091   */\n      0x4e487b7100000000000000000000000000000000000000000000000000000000\n        /* \"#utility.yul\":12011:12012   */\n      0x00\n        /* \"#utility.yul\":12004:12092   */\n      mstore\n        /* \"#utility.yul\":12111:12115   */\n      0x11\n        /* \"#utility.yul\":12108:12109   */\n      0x04\n        /* \"#utility.yul\":12101:12116   */\n      mstore\n        /* \"#utility.yul\":12135:12139   */\n      0x24\n        /* \"#utility.yul\":12132:12133   */\n      0x00\n        /* \"#utility.yul\":12125:12140   */\n      revert\n        /* \"#utility.yul\":12152:12343   */\n    tag_50:\n        /* \"#utility.yul\":12192:12195   */\n      0x00\n        /* \"#utility.yul\":12211:12231   */\n      tag_240\n        /* \"#utility.yul\":12229:12230   */\n      dup3\n        /* \"#utility.yul\":12211:12231   */\n      tag_77\n      jump\t// in\n    tag_240:\n        /* \"#utility.yul\":12206:12231   */\n      swap2\n      pop\n        /* \"#utility.yul\":12245:12265   */\n      tag_241\n        /* \"#utility.yul\":12263:12264   */\n      dup4\n        /* \"#utility.yul\":12245:12265   */\n      tag_77\n      jump\t// in\n    tag_241:\n        /* \"#utility.yul\":12240:12265   */\n      swap3\n      pop\n        /* \"#utility.yul\":12288:12289   */\n      dup3\n        /* \"#utility.yul\":12285:12286   */\n      dup3\n        /* \"#utility.yul\":12281:12290   */\n      add\n        /* \"#utility.yul\":12274:12290   */\n      swap1\n      pop\n        /* \"#utility.yul\":12309:12312   */\n      dup1\n        /* \"#utility.yul\":12306:12307   */\n      dup3\n        /* \"#utility.yul\":12303:12313   */\n      gt\n        /* \"#utility.yul\":12300:12336   */\n      iszero\n      tag_242\n      jumpi\n        /* \"#utility.yul\":12316:12334   */\n      tag_243\n      tag_112\n      jump\t// in\n    tag_243:\n        /* \"#utility.yul\":12300:12336   */\n    tag_242:\n        /* \"#utility.yul\":12152:12343   */\n      swap3\n      swap2\n      pop\n      pop\n      jump\t// out\n        /* \"#utility.yul\":12349:12791   */\n    tag_52:\n        /* \"#utility.yul\":12498:12502   */\n      0x00\n        /* \"#utility.yul\":12536:12538   */\n      0x60\n        /* \"#utility.yul\":12525:12534   */\n      dup3\n        /* \"#utility.yul\":12521:12539   */\n      add\n        /* \"#utility.yul\":12513:12539   */\n      swap1\n      pop\n        /* \"#utility.yul\":12549:12620   */\n      tag_245\n        /* \"#utility.yul\":12617:12618   */\n      0x00\n        /* \"#utility.yul\":12606:12615   */\n      dup4\n        /* \"#utility.yul\":12602:12619   */\n      add\n        /* \"#utility.yul\":12593:12599   */\n      dup7\n        /* \"#utility.yul\":12549:12620   */\n      tag_83\n      jump\t// in\n    tag_245:\n        /* \"#utility.yul\":12630:12702   */\n      tag_246\n        /* \"#utility.yul\":12698:12700   */\n      0x20\n        /* \"#utility.yul\":12687:12696   */\n      dup4\n        /* \"#utility.yul\":12683:12701   */\n      add\n        /* \"#utility.yul\":12674:12680   */\n      dup6\n        /* \"#utility.yul\":12630:12702   */\n      tag_83\n      jump\t// in\n    tag_246:\n        /* \"#utility.yul\":12712:12784   */\n      tag_247\n        /* \"#utility.yul\":12780:12782   */\n      0x40\n        /* \"#utility.yul\":12769:12778   */\n      dup4\n        /* \"#utility.yul\":12765:12783   */\n      add\n        /* \"#utility.yul\":12756:12762   */\n      dup5\n        /* \"#utility.yul\":12712:12784   */\n      tag_80\n      jump\t// in\n    tag_247:\n        /* \"#utility.yul\":12349:12791   */\n      swap5\n      swap4\n      pop\n      pop\n      pop\n      pop\n      jump\t// out\n        /* \"#utility.yul\":12797:12913   */\n    tag_113:\n        /* \"#utility.yul\":12867:12888   */\n      tag_249\n        /* \"#utility.yul\":12882:12887   */\n      dup2\n        /* \"#utility.yul\":12867:12888   */\n      tag_100\n      jump\t// in\n    tag_249:\n        /* \"#utility.yul\":12860:12865   */\n      dup2\n        /* \"#utility.yul\":12857:12889   */\n      eq\n        /* \"#utility.yul\":12847:12907   */\n      tag_250\n      jumpi\n        /* \"#utility.yul\":12903:12904   */\n      0x00\n        /* \"#utility.yul\":12900:12901   */\n      0x00\n        /* \"#utility.yul\":12893:12905   */\n      revert\n        /* \"#utility.yul\":12847:12907   */\n    tag_250:\n        /* \"#utility.yul\":12797:12913   */\n      pop\n      jump\t// out\n        /* \"#utility.yul\":12919:13056   */\n    tag_114:\n        /* \"#utility.yul\":12973:12978   */\n      0x00\n        /* \"#utility.yul\":13004:13010   */\n      dup2\n        /* \"#utility.yul\":12998:13011   */\n      mload\n        /* \"#utility.yul\":12989:13011   */\n      swap1\n      pop\n        /* \"#utility.yul\":13020:13050   */\n      tag_252\n        /* \"#utility.yul\":13044:13049   */\n      dup2\n        /* \"#utility.yul\":13020:13050   */\n      tag_113\n      jump\t// in\n    tag_252:\n        /* \"#utility.yul\":12919:13056   */\n      swap3\n      swap2\n      pop\n      pop\n      jump\t// out\n        /* \"#utility.yul\":13062:13407   */\n    tag_56:\n        /* \"#utility.yul\":13129:13135   */\n      0x00\n        /* \"#utility.yul\":13178:13180   */\n      0x20\n        /* \"#utility.yul\":13166:13175   */\n      dup3\n        /* \"#utility.yul\":13157:13164   */\n      dup5\n        /* \"#utility.yul\":13153:13176   */\n      sub\n        /* \"#utility.yul\":13149:13181   */\n      slt\n        /* \"#utility.yul\":13146:13265   */\n      iszero\n      tag_254\n      jumpi\n        /* \"#utility.yul\":13184:13263   */\n      tag_255\n      tag_75\n      jump\t// in\n    tag_255:\n        /* \"#utility.yul\":13146:13265   */\n    tag_254:\n        /* \"#utility.yul\":13304:13305   */\n      0x00\n        /* \"#utility.yul\":13329:13390   */\n      tag_256\n        /* \"#utility.yul\":13382:13389   */\n      dup5\n        /* \"#utility.yul\":13373:13379   */\n      dup3\n        /* \"#utility.yul\":13362:13371   */\n      dup6\n        /* \"#utility.yul\":13358:13380   */\n      add\n        /* \"#utility.yul\":13329:13390   */\n      tag_114\n      jump\t// in\n    tag_256:\n        /* \"#utility.yul\":13319:13390   */\n      swap2\n      pop\n        /* \"#utility.yul\":13275:13400   */\n      pop\n        /* \"#utility.yul\":13062:13407   */\n      swap3\n      swap2\n      pop\n      pop\n      jump\t// out\n        /* \"#utility.yul\":13413:13582   */\n    tag_115:\n        /* \"#utility.yul\":13497:13508   */\n      0x00\n        /* \"#utility.yul\":13531:13537   */\n      dup3\n        /* \"#utility.yul\":13526:13529   */\n      dup3\n        /* \"#utility.yul\":13519:13538   */\n      mstore\n        /* \"#utility.yul\":13571:13575   */\n      0x20\n        /* \"#utility.yul\":13566:13569   */\n      dup3\n        /* \"#utility.yul\":13562:13576   */\n      add\n        /* \"#utility.yul\":13547:13576   */\n      swap1\n      pop\n        /* \"#utility.yul\":13413:13582   */\n      swap3\n      swap2\n      pop\n      pop\n      jump\t// out\n        /* \"#utility.yul\":13588:13753   */\n    tag_116:\n        /* \"#utility.yul\":13728:13745   */\n      0x5472616e73666572206661696c65640000000000000000000000000000000000\n        /* \"#utility.yul\":13724:13725   */\n      0x00\n        /* \"#utility.yul\":13716:13722   */\n      dup3\n        /* \"#utility.yul\":13712:13726   */\n      add\n        /* \"#utility.yul\":13705:13746   */\n      mstore\n        /* \"#utility.yul\":13588:13753   */\n      pop\n      jump\t// out\n        /* \"#utility.yul\":13759:14125   */\n    tag_117:\n        /* \"#utility.yul\":13901:13904   */\n      0x00\n        /* \"#utility.yul\":13922:13989   */\n      tag_260\n        /* \"#utility.yul\":13986:13988   */\n      0x0f\n        /* \"#utility.yul\":13981:13984   */\n      dup4\n        /* \"#utility.yul\":13922:13989   */\n      tag_115\n      jump\t// in\n    tag_260:\n        /* \"#utility.yul\":13915:13989   */\n      swap2\n      pop\n        /* \"#utility.yul\":13998:14091   */\n      tag_261\n        /* \"#utility.yul\":14087:14090   */\n      dup3\n        /* \"#utility.yul\":13998:14091   */\n      tag_116\n      jump\t// in\n    tag_261:\n        /* \"#utility.yul\":14116:14118   */\n      0x20\n        /* \"#utility.yul\":14111:14114   */\n      dup3\n        /* \"#utility.yul\":14107:14119   */\n      add\n        /* \"#utility.yul\":14100:14119   */\n      swap1\n      pop\n        /* \"#utility.yul\":13759:14125   */\n      swap2\n      swap1\n      pop\n      jump\t// out\n        /* \"#utility.yul\":14131:14550   */\n    tag_59:\n        /* \"#utility.yul\":14297:14301   */\n      0x00\n        /* \"#utility.yul\":14335:14337   */\n      0x20\n        /* \"#utility.yul\":14324:14333   */\n      dup3\n        /* \"#utility.yul\":14320:14338   */\n      add\n        /* \"#utility.yul\":14312:14338   */\n      swap1\n      pop\n        /* \"#utility.yul\":14384:14393   */\n      dup2\n        /* \"#utility.yul\":14378:14382   */\n      dup2\n        /* \"#utility.yul\":14374:14394   */\n      sub\n        /* \"#utility.yul\":14370:14371   */\n      0x00\n        /* \"#utility.yul\":14359:14368   */\n      dup4\n        /* \"#utility.yul\":14355:14372   */\n      add\n        /* \"#utility.yul\":14348:14395   */\n      mstore\n        /* \"#utility.yul\":14412:14543   */\n      tag_263\n        /* \"#utility.yul\":14538:14542   */\n      dup2\n        /* \"#utility.yul\":14412:14543   */\n      tag_117\n      jump\t// in\n    tag_263:\n        /* \"#utility.yul\":14404:14543   */\n      swap1\n      pop\n        /* \"#utility.yul\":14131:14550   */\n      swap2\n      swap1\n      pop\n      jump\t// out\n        /* \"#utility.yul\":14556:14789   */\n    tag_62:\n        /* \"#utility.yul\":14595:14598   */\n      0x00\n        /* \"#utility.yul\":14618:14642   */\n      tag_265\n        /* \"#utility.yul\":14636:14641   */\n      dup3\n        /* \"#utility.yul\":14618:14642   */\n      tag_77\n      jump\t// in\n    tag_265:\n        /* \"#utility.yul\":14609:14642   */\n      swap2\n      pop\n        /* \"#utility.yul\":14664:14730   */\n      0xffffffffffffffffffffffffffffffffffffffffffffffffffffffffffffffff\n        /* \"#utility.yul\":14657:14662   */\n      dup3\n        /* \"#utility.yul\":14654:14731   */\n      sub\n        /* \"#utility.yul\":14651:14754   */\n      tag_266\n      jumpi\n        /* \"#utility.yul\":14734:14752   */\n      tag_267\n      tag_112\n      jump\t// in\n    tag_267:\n        /* \"#utility.yul\":14651:14754   */\n    tag_266:\n        /* \"#utility.yul\":14781:14782   */\n      0x01\n        /* \"#utility.yul\":14774:14779   */\n      dup3\n        /* \"#utility.yul\":14770:14783   */\n      add\n        /* \"#utility.yul\":14763:14783   */\n      swap1\n      pop\n        /* \"#utility.yul\":14556:14789   */\n      swap2\n      swap1\n      pop\n      jump\t// out\n        /* \"#utility.yul\":14795:15205   */\n    tag_73:\n        /* \"#utility.yul\":14835:14842   */\n      0x00\n        /* \"#utility.yul\":14858:14878   */\n      tag_269\n        /* \"#utility.yul\":14876:14877   */\n      dup3\n        /* \"#utility.yul\":14858:14878   */\n      tag_77\n      jump\t// in\n    tag_269:\n        /* \"#utility.yul\":14853:14878   */\n      swap2\n      pop\n        /* \"#utility.yul\":14892:14912   */\n      tag_270\n        /* \"#utility.yul\":14910:14911   */\n      dup4\n        /* \"#utility.yul\":14892:14912   */\n      tag_77\n      jump\t// in\n    tag_270:\n        /* \"#utility.yul\":14887:14912   */\n      swap3\n      pop\n        /* \"#utility.yul\":14947:14948   */\n      dup3\n        /* \"#utility.yul\":14944:14945   */\n      dup3\n        /* \"#utility.yul\":14940:14949   */\n      mul\n        /* \"#utility.yul\":14969:14999   */\n      tag_271\n        /* \"#utility.yul\":14987:14998   */\n      dup2\n        /* \"#utility.yul\":14969:14999   */\n      tag_77\n      jump\t// in\n    tag_271:\n        /* \"#utility.yul\":14958:14999   */\n      swap2\n      pop\n        /* \"#utility.yul\":15148:15149   */\n      dup3\n        /* \"#utility.yul\":15139:15146   */\n      dup3\n        /* \"#utility.yul\":15135:15150   */\n      div\n        /* \"#utility.yul\":15132:15133   */\n      dup5\n        /* \"#utility.yul\":15129:15151   */\n      eq\n        /* \"#utility.yul\":15109:15110   */\n      dup4\n        /* \"#utility.yul\":15102:15111   */\n      iszero\n        /* \"#utility.yul\":15082:15165   */\n      or\n        /* \"#utility.yul\":15059:15198   */\n      tag_272\n      jumpi\n        /* \"#utility.yul\":15178:15196   */\n      tag_273\n      tag_112\n      jump\t// in\n    tag_273:\n        /* \"#utility.yul\":15059:15198   */\n    tag_272:\n        /* \"#utility.yul\":14843:15205   */\n      pop\n        /* \"#utility.yul\":14795:15205   */\n      swap3\n      swap2\n      pop\n      pop\n      jump\t// out\n\n    auxdata: 0xa2646970667358221220edaffb0ca5e4093f77c365e7fd79582942ea88e6e68ee585806f7033cac6cec464736f6c634300081e0033\n}\n",
				"bytecode": {
					"linkReferences": {},
					"object": "60a060405234801561000f575f5ffd5b50604051611041380380611041833981810160405281019061003191906100c9565b8073ffffffffffffffffffffffffffffffffffffffff1660808173ffffffffffffffffffffffffffffffffffffffff1681525050506100f4565b5f5ffd5b5f73ffffffffffffffffffffffffffffffffffffffff82169050919050565b5f6100988261006f565b9050919050565b6100a88161008e565b81146100b2575f5ffd5b50565b5f815190506100c38161009f565b92915050565b5f602082840312156100de576100dd61006b565b5b5f6100eb848285016100b5565b91505092915050565b608051610f2e6101135f395f81816103ed01526106f50152610f2e5ff3fe608060405234801561000f575f5ffd5b5060043610610060575f3560e01c8063180aedf3146100645780631a42405014610097578063442f5c88146100b357806365c498ab146100e35780639608b23214610113578063c2939d9714610131575b5f5ffd5b61007e600480360381019061007991906107d3565b61014f565b60405161008e949392919061084c565b60405180910390f35b6100b160048036038101906100ac9190610a09565b6101b9565b005b6100cd60048036038101906100c89190610a63565b610546565b6040516100da9190610aa1565b60405180910390f35b6100fd60048036038101906100f891906107d3565b610571565b60405161010a9190610c4d565b60405180910390f35b61011b6106f3565b6040516101289190610cc8565b60405180910390f35b610139610717565b6040516101469190610aa1565b60405180910390f35b6001602052805f5260405f205f91509050805f015490806001015f9054906101000a900473ffffffffffffffffffffffffffffffffffffffff1690806002015f9054906101000a900473ffffffffffffffffffffffffffffffffffffffff16908060040154905084565b5f73ffffffffffffffffffffffffffffffffffffffff168273ffffffffffffffffffffffffffffffffffffffff160361021e576040517f3efa09af00000000000000000000000000000000000000000000000000000000815260040160405180910390fd5b5f815103610258576040517f5dfece3f00000000000000000000000000000000000000000000000000000000815260040160405180910390fd5b5f815190505f5f60015f5f5481526020019081526020015f2090505f54815f018190555033816001015f6101000a81548173ffffffffffffffffffffffffffffffffffffffff021916908373ffffffffffffffffffffffffffffffffffffffff16021790555084816002015f6101000a81548173ffffffffffffffffffffffffffffffffffffffff021916908373ffffffffffffffffffffffffffffffffffffffff1602179055505f5f90505b838110156103e1575f61033186838151811061032457610323610ce1565b5b602002602001015161071c565b90508260030160405180606001604052808381526020015f151581526020015f1515815250908060018154018082558091505060019003905f5260205f2090600202015f909190919091505f820151815f01556020820151816001015f6101000a81548160ff02191690831515021790555060408201518160010160016101000a81548160ff021916908315150217905550505080846103d19190610d3b565b9350818060010192505050610305565b508181600401819055507f000000000000000000000000000000000000000000000000000000000000000073ffffffffffffffffffffffffffffffffffffffff166323b872dd3330856040518463ffffffff1660e01b815260040161044893929190610d6e565b6020604051808303815f875af1158015610464573d5f5f3e3d5ffd5b505050506040513d601f19601f820116820180604052508101906104889190610dcd565b6104c7576040517f08c379a00000000000000000000000000000000000000000000000000000000081526004016104be90610e52565b60405180910390fd5b60025f8673ffffffffffffffffffffffffffffffffffffffff1673ffffffffffffffffffffffffffffffffffffffff1681526020019081526020015f205f54908060018154018082558091505060019003905f5260205f20015f90919091909150555f5f81548092919061053a90610e70565b91905055505050505050565b6002602052815f5260405f20818154811061055f575f80fd5b905f5260205f20015f91509150505481565b610579610738565b60015f8381526020019081526020015f206040518060a00160405290815f8201548152602001600182015f9054906101000a900473ffffffffffffffffffffffffffffffffffffffff1673ffffffffffffffffffffffffffffffffffffffff1673ffffffffffffffffffffffffffffffffffffffff168152602001600282015f9054906101000a900473ffffffffffffffffffffffffffffffffffffffff1673ffffffffffffffffffffffffffffffffffffffff1673ffffffffffffffffffffffffffffffffffffffff16815260200160038201805480602002602001604051908101604052809291908181526020015f905b828210156106da578382905f5260205f2090600202016040518060600160405290815f8201548152602001600182015f9054906101000a900460ff161515151581526020016001820160019054906101000a900460ff1615151515815250508152602001906001019061066c565b5050505081526020016004820154815250509050919050565b7f000000000000000000000000000000000000000000000000000000000000000081565b5f5481565b5f670de0b6b3a7640000826107319190610eb7565b9050919050565b6040518060a001604052805f81526020015f73ffffffffffffffffffffffffffffffffffffffff1681526020015f73ffffffffffffffffffffffffffffffffffffffff168152602001606081526020015f81525090565b5f604051905090565b5f5ffd5b5f5ffd5b5f819050919050565b6107b2816107a0565b81146107bc575f5ffd5b50565b5f813590506107cd816107a9565b92915050565b5f602082840312156107e8576107e7610798565b5b5f6107f5848285016107bf565b91505092915050565b610807816107a0565b82525050565b5f73ffffffffffffffffffffffffffffffffffffffff82169050919050565b5f6108368261080d565b9050919050565b6108468161082c565b82525050565b5f60808201905061085f5f8301876107fe565b61086c602083018661083d565b610879604083018561083d565b61088660608301846107fe565b95945050505050565b6108988161082c565b81146108a2575f5ffd5b50565b5f813590506108b38161088f565b92915050565b5f5ffd5b5f601f19601f8301169050919050565b7f4e487b71000000000000000000000000000000000000000000000000000000005f52604160045260245ffd5b610903826108bd565b810181811067ffffffffffffffff82111715610922576109216108cd565b5b80604052505050565b5f61093461078f565b905061094082826108fa565b919050565b5f67ffffffffffffffff82111561095f5761095e6108cd565b5b602082029050602081019050919050565b5f5ffd5b5f61098661098184610945565b61092b565b905080838252602082019050602084028301858111156109a9576109a8610970565b5b835b818110156109d257806109be88826107bf565b8452602084019350506020810190506109ab565b5050509392505050565b5f82601f8301126109f0576109ef6108b9565b5b8135610a00848260208601610974565b91505092915050565b5f5f60408385031215610a1f57610a1e610798565b5b5f610a2c858286016108a5565b925050602083013567ffffffffffffffff811115610a4d57610a4c61079c565b5b610a59858286016109dc565b9150509250929050565b5f5f60408385031215610a7957610a78610798565b5b5f610a86858286016108a5565b9250506020610a97858286016107bf565b9150509250929050565b5f602082019050610ab45f8301846107fe565b92915050565b610ac3816107a0565b82525050565b610ad28161082c565b82525050565b5f81519050919050565b5f82825260208201905092915050565b5f819050602082019050919050565b5f8115159050919050565b610b1581610b01565b82525050565b606082015f820151610b2f5f850182610aba565b506020820151610b426020850182610b0c565b506040820151610b556040850182610b0c565b50505050565b5f610b668383610b1b565b60608301905092915050565b5f602082019050919050565b5f610b8882610ad8565b610b928185610ae2565b9350610b9d83610af2565b805f5b83811015610bcd578151610bb48882610b5b565b9750610bbf83610b72565b925050600181019050610ba0565b5085935050505092915050565b5f60a083015f830151610bef5f860182610aba565b506020830151610c026020860182610ac9565b506040830151610c156040860182610ac9565b5060608301518482036060860152610c2d8282610b7e565b9150506080830151610c426080860182610aba565b508091505092915050565b5f6020820190508181035f830152610c658184610bda565b905092915050565b5f819050919050565b5f610c90610c8b610c868461080d565b610c6d565b61080d565b9050919050565b5f610ca182610c76565b9050919050565b5f610cb282610c97565b9050919050565b610cc281610ca8565b82525050565b5f602082019050610cdb5f830184610cb9565b92915050565b7f4e487b71000000000000000000000000000000000000000000000000000000005f52603260045260245ffd5b7f4e487b71000000000000000000000000000000000000000000000000000000005f52601160045260245ffd5b5f610d45826107a0565b9150610d50836107a0565b9250828201905080821115610d6857610d67610d0e565b5b92915050565b5f606082019050610d815f83018661083d565b610d8e602083018561083d565b610d9b60408301846107fe565b949350505050565b610dac81610b01565b8114610db6575f5ffd5b50565b5f81519050610dc781610da3565b92915050565b5f60208284031215610de257610de1610798565b5b5f610def84828501610db9565b91505092915050565b5f82825260208201905092915050565b7f5472616e73666572206661696c656400000000000000000000000000000000005f82015250565b5f610e3c600f83610df8565b9150610e4782610e08565b602082019050919050565b5f6020820190508181035f830152610e6981610e30565b9050919050565b5f610e7a826107a0565b91507fffffffffffffffffffffffffffffffffffffffffffffffffffffffffffffffff8203610eac57610eab610d0e565b5b600182019050919050565b5f610ec1826107a0565b9150610ecc836107a0565b9250828202610eda816107a0565b91508282048414831517610ef157610ef0610d0e565b5b509291505056fea2646970667358221220edaffb0ca5e4093f77c365e7fd79582942ea88e6e68ee585806f7033cac6cec464736f6c634300081e0033",
					"opcodes": "PUSH1 0xA0 PUSH1 0x40 MSTORE CALLVALUE DUP1 ISZERO PUSH2 0xF JUMPI PUSH0 PUSH0 REVERT JUMPDEST POP PUSH1 0x40 MLOAD PUSH2 0x1041 CODESIZE SUB DUP1 PUSH2 0x1041 DUP4 CODECOPY DUP2 DUP2 ADD PUSH1 0x40 MSTORE DUP2 ADD SWAP1 PUSH2 0x31 SWAP2 SWAP1 PUSH2 0xC9 JUMP JUMPDEST DUP1 PUSH20 0xFFFFFFFFFFFFFFFFFFFFFFFFFFFFFFFFFFFFFFFF AND PUSH1 0x80 DUP2 PUSH20 0xFFFFFFFFFFFFFFFFFFFFFFFFFFFFFFFFFFFFFFFF AND DUP2 MSTORE POP POP POP PUSH2 0xF4 JUMP JUMPDEST PUSH0 PUSH0 REVERT JUMPDEST PUSH0 PUSH20 0xFFFFFFFFFFFFFFFFFFFFFFFFFFFFFFFFFFFFFFFF DUP3 AND SWAP1 POP SWAP2 SWAP1 POP JUMP JUMPDEST PUSH0 PUSH2 0x98 DUP3 PUSH2 0x6F JUMP JUMPDEST SWAP1 POP SWAP2 SWAP1 POP JUMP JUMPDEST PUSH2 0xA8 DUP2 PUSH2 0x8E JUMP JUMPDEST DUP2 EQ PUSH2 0xB2 JUMPI PUSH0 PUSH0 REVERT JUMPDEST POP JUMP JUMPDEST PUSH0 DUP2 MLOAD SWAP1 POP PUSH2 0xC3 DUP2 PUSH2 0x9F JUMP JUMPDEST SWAP3 SWAP2 POP POP JUMP JUMPDEST PUSH0 PUSH1 0x20 DUP3 DUP5 SUB SLT ISZERO PUSH2 0xDE JUMPI PUSH2 0xDD PUSH2 0x6B JUMP JUMPDEST JUMPDEST PUSH0 PUSH2 0xEB DUP5 DUP3 DUP6 ADD PUSH2 0xB5 JUMP JUMPDEST SWAP2 POP POP SWAP3 SWAP2 POP POP JUMP JUMPDEST PUSH1 0x80 MLOAD PUSH2 0xF2E PUSH2 0x113 PUSH0 CODECOPY PUSH0 DUP2 DUP2 PUSH2 0x3ED ADD MSTORE PUSH2 0x6F5 ADD MSTORE PUSH2 0xF2E PUSH0 RETURN INVALID PUSH1 0x80 PUSH1 0x40 MSTORE CALLVALUE DUP1 ISZERO PUSH2 0xF JUMPI PUSH0 PUSH0 REVERT JUMPDEST POP PUSH1 0x4 CALLDATASIZE LT PUSH2 0x60 JUMPI PUSH0 CALLDATALOAD PUSH1 0xE0 SHR DUP1 PUSH4 0x180AEDF3 EQ PUSH2 0x64 JUMPI DUP1 PUSH4 0x1A424050 EQ PUSH2 0x97 JUMPI DUP1 PUSH4 0x442F5C88 EQ PUSH2 0xB3 JUMPI DUP1 PUSH4 0x65C498AB EQ PUSH2 0xE3 JUMPI DUP1 PUSH4 0x9608B232 EQ PUSH2 0x113 JUMPI DUP1 PUSH4 0xC2939D97 EQ PUSH2 0x131 JUMPI JUMPDEST PUSH0 PUSH0 REVERT JUMPDEST PUSH2 0x7E PUSH1 0x4 DUP1 CALLDATASIZE SUB DUP2 ADD SWAP1 PUSH2 0x79 SWAP2 SWAP1 PUSH2 0x7D3 JUMP JUMPDEST PUSH2 0x14F JUMP JUMPDEST PUSH1 0x40 MLOAD PUSH2 0x8E SWAP5 SWAP4 SWAP3 SWAP2 SWAP1 PUSH2 0x84C JUMP JUMPDEST PUSH1 0x40 MLOAD DUP1 SWAP2 SUB SWAP1 RETURN JUMPDEST PUSH2 0xB1 PUSH1 0x4 DUP1 CALLDATASIZE SUB DUP2 ADD SWAP1 PUSH2 0xAC SWAP2 SWAP1 PUSH2 0xA09 JUMP JUMPDEST PUSH2 0x1B9 JUMP JUMPDEST STOP JUMPDEST PUSH2 0xCD PUSH1 0x4 DUP1 CALLDATASIZE SUB DUP2 ADD SWAP1 PUSH2 0xC8 SWAP2 SWAP1 PUSH2 0xA63 JUMP JUMPDEST PUSH2 0x546 JUMP JUMPDEST PUSH1 0x40 MLOAD PUSH2 0xDA SWAP2 SWAP1 PUSH2 0xAA1 JUMP JUMPDEST PUSH1 0x40 MLOAD DUP1 SWAP2 SUB SWAP1 RETURN JUMPDEST PUSH2 0xFD PUSH1 0x4 DUP1 CALLDATASIZE SUB DUP2 ADD SWAP1 PUSH2 0xF8 SWAP2 SWAP1 PUSH2 0x7D3 JUMP JUMPDEST PUSH2 0x571 JUMP JUMPDEST PUSH1 0x40 MLOAD PUSH2 0x10A SWAP2 SWAP1 PUSH2 0xC4D JUMP JUMPDEST PUSH1 0x40 MLOAD DUP1 SWAP2 SUB SWAP1 RETURN JUMPDEST PUSH2 0x11B PUSH2 0x6F3 JUMP JUMPDEST PUSH1 0x40 MLOAD PUSH2 0x128 SWAP2 SWAP1 PUSH2 0xCC8 JUMP JUMPDEST PUSH1 0x40 MLOAD DUP1 SWAP2 SUB SWAP1 RETURN JUMPDEST PUSH2 0x139 PUSH2 0x717 JUMP JUMPDEST PUSH1 0x40 MLOAD PUSH2 0x146 SWAP2 SWAP1 PUSH2 0xAA1 JUMP JUMPDEST PUSH1 0x40 MLOAD DUP1 SWAP2 SUB SWAP1 RETURN JUMPDEST PUSH1 0x1 PUSH1 0x20 MSTORE DUP1 PUSH0 MSTORE PUSH1 0x40 PUSH0 KECCAK256 PUSH0 SWAP2 POP SWAP1 POP DUP1 PUSH0 ADD SLOAD SWAP1 DUP1 PUSH1 0x1 ADD PUSH0 SWAP1 SLOAD SWAP1 PUSH2 0x100 EXP SWAP1 DIV PUSH20 0xFFFFFFFFFFFFFFFFFFFFFFFFFFFFFFFFFFFFFFFF AND SWAP1 DUP1 PUSH1 0x2 ADD PUSH0 SWAP1 SLOAD SWAP1 PUSH2 0x100 EXP SWAP1 DIV PUSH20 0xFFFFFFFFFFFFFFFFFFFFFFFFFFFFFFFFFFFFFFFF AND SWAP1 DUP1 PUSH1 0x4 ADD SLOAD SWAP1 POP DUP5 JUMP JUMPDEST PUSH0 PUSH20 0xFFFFFFFFFFFFFFFFFFFFFFFFFFFFFFFFFFFFFFFF AND DUP3 PUSH20 0xFFFFFFFFFFFFFFFFFFFFFFFFFFFFFFFFFFFFFFFF AND SUB PUSH2 0x21E JUMPI PUSH1 0x40 MLOAD PUSH32 0x3EFA09AF00000000000000000000000000000000000000000000000000000000 DUP2 MSTORE PUSH1 0x4 ADD PUSH1 0x40 MLOAD DUP1 SWAP2 SUB SWAP1 REVERT JUMPDEST PUSH0 DUP2 MLOAD SUB PUSH2 0x258 JUMPI PUSH1 0x40 MLOAD PUSH32 0x5DFECE3F00000000000000000000000000000000000000000000000000000000 DUP2 MSTORE PUSH1 0x4 ADD PUSH1 0x40 MLOAD DUP1 SWAP2 SUB SWAP1 REVERT JUMPDEST PUSH0 DUP2 MLOAD SWAP1 POP PUSH0 PUSH0 PUSH1 0x1 PUSH0 PUSH0 SLOAD DUP2 MSTORE PUSH1 0x20 ADD SWAP1 DUP2 MSTORE PUSH1 0x20 ADD PUSH0 KECCAK256 SWAP1 POP PUSH0 SLOAD DUP2 PUSH0 ADD DUP2 SWAP1 SSTORE POP CALLER DUP2 PUSH1 0x1 ADD PUSH0 PUSH2 0x100 EXP DUP2 SLOAD DUP2 PUSH20 0xFFFFFFFFFFFFFFFFFFFFFFFFFFFFFFFFFFFFFFFF MUL NOT AND SWAP1 DUP4 PUSH20 0xFFFFFFFFFFFFFFFFFFFFFFFFFFFFFFFFFFFFFFFF AND MUL OR SWAP1 SSTORE POP DUP5 DUP2 PUSH1 0x2 ADD PUSH0 PUSH2 0x100 EXP DUP2 SLOAD DUP2 PUSH20 0xFFFFFFFFFFFFFFFFFFFFFFFFFFFFFFFFFFFFFFFF MUL NOT AND SWAP1 DUP4 PUSH20 0xFFFFFFFFFFFFFFFFFFFFFFFFFFFFFFFFFFFFFFFF AND MUL OR SWAP1 SSTORE POP PUSH0 PUSH0 SWAP1 POP JUMPDEST DUP4 DUP2 LT ISZERO PUSH2 0x3E1 JUMPI PUSH0 PUSH2 0x331 DUP7 DUP4 DUP2 MLOAD DUP2 LT PUSH2 0x324 JUMPI PUSH2 0x323 PUSH2 0xCE1 JUMP JUMPDEST JUMPDEST PUSH1 0x20 MUL PUSH1 0x20 ADD ADD MLOAD PUSH2 0x71C JUMP JUMPDEST SWAP1 POP DUP3 PUSH1 0x3 ADD PUSH1 0x40 MLOAD DUP1 PUSH1 0x60 ADD PUSH1 0x40 MSTORE DUP1 DUP4 DUP2 MSTORE PUSH1 0x20 ADD PUSH0 ISZERO ISZERO DUP2 MSTORE PUSH1 0x20 ADD PUSH0 ISZERO ISZERO DUP2 MSTORE POP SWAP1 DUP1 PUSH1 0x1 DUP2 SLOAD ADD DUP1 DUP3 SSTORE DUP1 SWAP2 POP POP PUSH1 0x1 SWAP1 SUB SWAP1 PUSH0 MSTORE PUSH1 0x20 PUSH0 KECCAK256 SWAP1 PUSH1 0x2 MUL ADD PUSH0 SWAP1 SWAP2 SWAP1 SWAP2 SWAP1 SWAP2 POP PUSH0 DUP3 ADD MLOAD DUP2 PUSH0 ADD SSTORE PUSH1 0x20 DUP3 ADD MLOAD DUP2 PUSH1 0x1 ADD PUSH0 PUSH2 0x100 EXP DUP2 SLOAD DUP2 PUSH1 0xFF MUL NOT AND SWAP1 DUP4 ISZERO ISZERO MUL OR SWAP1 SSTORE POP PUSH1 0x40 DUP3 ADD MLOAD DUP2 PUSH1 0x1 ADD PUSH1 0x1 PUSH2 0x100 EXP DUP2 SLOAD DUP2 PUSH1 0xFF MUL NOT AND SWAP1 DUP4 ISZERO ISZERO MUL OR SWAP1 SSTORE POP POP POP DUP1 DUP5 PUSH2 0x3D1 SWAP2 SWAP1 PUSH2 0xD3B JUMP JUMPDEST SWAP4 POP DUP2 DUP1 PUSH1 0x1 ADD SWAP3 POP POP POP PUSH2 0x305 JUMP JUMPDEST POP DUP2 DUP2 PUSH1 0x4 ADD DUP2 SWAP1 SSTORE POP PUSH32 0x0 PUSH20 0xFFFFFFFFFFFFFFFFFFFFFFFFFFFFFFFFFFFFFFFF AND PUSH4 0x23B872DD CALLER ADDRESS DUP6 PUSH1 0x40 MLOAD DUP5 PUSH4 0xFFFFFFFF AND PUSH1 0xE0 SHL DUP2 MSTORE PUSH1 0x4 ADD PUSH2 0x448 SWAP4 SWAP3 SWAP2 SWAP1 PUSH2 0xD6E JUMP JUMPDEST PUSH1 0x20 PUSH1 0x40 MLOAD DUP1 DUP4 SUB DUP2 PUSH0 DUP8 GAS CALL ISZERO DUP1 ISZERO PUSH2 0x464 JUMPI RETURNDATASIZE PUSH0 PUSH0 RETURNDATACOPY RETURNDATASIZE PUSH0 REVERT JUMPDEST POP POP POP POP PUSH1 0x40 MLOAD RETURNDATASIZE PUSH1 0x1F NOT PUSH1 0x1F DUP3 ADD AND DUP3 ADD DUP1 PUSH1 0x40 MSTORE POP DUP2 ADD SWAP1 PUSH2 0x488 SWAP2 SWAP1 PUSH2 0xDCD JUMP JUMPDEST PUSH2 0x4C7 JUMPI PUSH1 0x40 MLOAD PUSH32 0x8C379A000000000000000000000000000000000000000000000000000000000 DUP2 MSTORE PUSH1 0x4 ADD PUSH2 0x4BE SWAP1 PUSH2 0xE52 JUMP JUMPDEST PUSH1 0x40 MLOAD DUP1 SWAP2 SUB SWAP1 REVERT JUMPDEST PUSH1 0x2 PUSH0 DUP7 PUSH20 0xFFFFFFFFFFFFFFFFFFFFFFFFFFFFFFFFFFFFFFFF AND PUSH20 0xFFFFFFFFFFFFFFFFFFFFFFFFFFFFFFFFFFFFFFFF AND DUP2 MSTORE PUSH1 0x20 ADD SWAP1 DUP2 MSTORE PUSH1 0x20 ADD PUSH0 KECCAK256 PUSH0 SLOAD SWAP1 DUP1 PUSH1 0x1 DUP2 SLOAD ADD DUP1 DUP3 SSTORE DUP1 SWAP2 POP POP PUSH1 0x1 SWAP1 SUB SWAP1 PUSH0 MSTORE PUSH1 0x20 PUSH0 KECCAK256 ADD PUSH0 SWAP1 SWAP2 SWAP1 SWAP2 SWAP1 SWAP2 POP SSTORE PUSH0 PUSH0 DUP2 SLOAD DUP1 SWAP3 SWAP2 SWAP1 PUSH2 0x53A SWAP1 PUSH2 0xE70 JUMP JUMPDEST SWAP2 SWAP1 POP SSTORE POP POP POP POP POP POP JUMP JUMPDEST PUSH1 0x2 PUSH1 0x20 MSTORE DUP2 PUSH0 MSTORE PUSH1 0x40 PUSH0 KECCAK256 DUP2 DUP2 SLOAD DUP2 LT PUSH2 0x55F JUMPI PUSH0 DUP1 REVERT JUMPDEST SWAP1 PUSH0 MSTORE PUSH1 0x20 PUSH0 KECCAK256 ADD PUSH0 SWAP2 POP SWAP2 POP POP SLOAD DUP2 JUMP JUMPDEST PUSH2 0x579 PUSH2 0x738 JUMP JUMPDEST PUSH1 0x1 PUSH0 DUP4 DUP2 MSTORE PUSH1 0x20 ADD SWAP1 DUP2 MSTORE PUSH1 0x20 ADD PUSH0 KECCAK256 PUSH1 0x40 MLOAD DUP1 PUSH1 0xA0 ADD PUSH1 0x40 MSTORE SWAP1 DUP2 PUSH0 DUP3 ADD SLOAD DUP2 MSTORE PUSH1 0x20 ADD PUSH1 0x1 DUP3 ADD PUSH0 SWAP1 SLOAD SWAP1 PUSH2 0x100 EXP SWAP1 DIV PUSH20 0xFFFFFFFFFFFFFFFFFFFFFFFFFFFFFFFFFFFFFFFF AND PUSH20 0xFFFFFFFFFFFFFFFFFFFFFFFFFFFFFFFFFFFFFFFF AND PUSH20 0xFFFFFFFFFFFFFFFFFFFFFFFFFFFFFFFFFFFFFFFF AND DUP2 MSTORE PUSH1 0x20 ADD PUSH1 0x2 DUP3 ADD PUSH0 SWAP1 SLOAD SWAP1 PUSH2 0x100 EXP SWAP1 DIV PUSH20 0xFFFFFFFFFFFFFFFFFFFFFFFFFFFFFFFFFFFFFFFF AND PUSH20 0xFFFFFFFFFFFFFFFFFFFFFFFFFFFFFFFFFFFFFFFF AND PUSH20 0xFFFFFFFFFFFFFFFFFFFFFFFFFFFFFFFFFFFFFFFF AND DUP2 MSTORE PUSH1 0x20 ADD PUSH1 0x3 DUP3 ADD DUP1 SLOAD DUP1 PUSH1 0x20 MUL PUSH1 0x20 ADD PUSH1 0x40 MLOAD SWAP1 DUP2 ADD PUSH1 0x40 MSTORE DUP1 SWAP3 SWAP2 SWAP1 DUP2 DUP2 MSTORE PUSH1 0x20 ADD PUSH0 SWAP1 JUMPDEST DUP3 DUP3 LT ISZERO PUSH2 0x6DA JUMPI DUP4 DUP3 SWAP1 PUSH0 MSTORE PUSH1 0x20 PUSH0 KECCAK256 SWAP1 PUSH1 0x2 MUL ADD PUSH1 0x40 MLOAD DUP1 PUSH1 0x60 ADD PUSH1 0x40 MSTORE SWAP1 DUP2 PUSH0 DUP3 ADD SLOAD DUP2 MSTORE PUSH1 0x20 ADD PUSH1 0x1 DUP3 ADD PUSH0 SWAP1 SLOAD SWAP1 PUSH2 0x100 EXP SWAP1 DIV PUSH1 0xFF AND ISZERO ISZERO ISZERO ISZERO DUP2 MSTORE PUSH1 0x20 ADD PUSH1 0x1 DUP3 ADD PUSH1 0x1 SWAP1 SLOAD SWAP1 PUSH2 0x100 EXP SWAP1 DIV PUSH1 0xFF AND ISZERO ISZERO ISZERO ISZERO DUP2 MSTORE POP POP DUP2 MSTORE PUSH1 0x20 ADD SWAP1 PUSH1 0x1 ADD SWAP1 PUSH2 0x66C JUMP JUMPDEST POP POP POP POP DUP2 MSTORE PUSH1 0x20 ADD PUSH1 0x4 DUP3 ADD SLOAD DUP2 MSTORE POP POP SWAP1 POP SWAP2 SWAP1 POP JUMP JUMPDEST PUSH32 0x0 DUP2 JUMP JUMPDEST PUSH0 SLOAD DUP2 JUMP JUMPDEST PUSH0 PUSH8 0xDE0B6B3A7640000 DUP3 PUSH2 0x731 SWAP2 SWAP1 PUSH2 0xEB7 JUMP JUMPDEST SWAP1 POP SWAP2 SWAP1 POP JUMP JUMPDEST PUSH1 0x40 MLOAD DUP1 PUSH1 0xA0 ADD PUSH1 0x40 MSTORE DUP1 PUSH0 DUP2 MSTORE PUSH1 0x20 ADD PUSH0 PUSH20 0xFFFFFFFFFFFFFFFFFFFFFFFFFFFFFFFFFFFFFFFF AND DUP2 MSTORE PUSH1 0x20 ADD PUSH0 PUSH20 0xFFFFFFFFFFFFFFFFFFFFFFFFFFFFFFFFFFFFFFFF AND DUP2 MSTORE PUSH1 0x20 ADD PUSH1 0x60 DUP2 MSTORE PUSH1 0x20 ADD PUSH0 DUP2 MSTORE POP SWAP1 JUMP JUMPDEST PUSH0 PUSH1 0x40 MLOAD SWAP1 POP SWAP1 JUMP JUMPDEST PUSH0 PUSH0 REVERT JUMPDEST PUSH0 PUSH0 REVERT JUMPDEST PUSH0 DUP2 SWAP1 POP SWAP2 SWAP1 POP JUMP JUMPDEST PUSH2 0x7B2 DUP2 PUSH2 0x7A0 JUMP JUMPDEST DUP2 EQ PUSH2 0x7BC JUMPI PUSH0 PUSH0 REVERT JUMPDEST POP JUMP JUMPDEST PUSH0 DUP2 CALLDATALOAD SWAP1 POP PUSH2 0x7CD DUP2 PUSH2 0x7A9 JUMP JUMPDEST SWAP3 SWAP2 POP POP JUMP JUMPDEST PUSH0 PUSH1 0x20 DUP3 DUP5 SUB SLT ISZERO PUSH2 0x7E8 JUMPI PUSH2 0x7E7 PUSH2 0x798 JUMP JUMPDEST JUMPDEST PUSH0 PUSH2 0x7F5 DUP5 DUP3 DUP6 ADD PUSH2 0x7BF JUMP JUMPDEST SWAP2 POP POP SWAP3 SWAP2 POP POP JUMP JUMPDEST PUSH2 0x807 DUP2 PUSH2 0x7A0 JUMP JUMPDEST DUP3 MSTORE POP POP JUMP JUMPDEST PUSH0 PUSH20 0xFFFFFFFFFFFFFFFFFFFFFFFFFFFFFFFFFFFFFFFF DUP3 AND SWAP1 POP SWAP2 SWAP1 POP JUMP JUMPDEST PUSH0 PUSH2 0x836 DUP3 PUSH2 0x80D JUMP JUMPDEST SWAP1 POP SWAP2 SWAP1 POP JUMP JUMPDEST PUSH2 0x846 DUP2 PUSH2 0x82C JUMP JUMPDEST DUP3 MSTORE POP POP JUMP JUMPDEST PUSH0 PUSH1 0x80 DUP3 ADD SWAP1 POP PUSH2 0x85F PUSH0 DUP4 ADD DUP8 PUSH2 0x7FE JUMP JUMPDEST PUSH2 0x86C PUSH1 0x20 DUP4 ADD DUP7 PUSH2 0x83D JUMP JUMPDEST PUSH2 0x879 PUSH1 0x40 DUP4 ADD DUP6 PUSH2 0x83D JUMP JUMPDEST PUSH2 0x886 PUSH1 0x60 DUP4 ADD DUP5 PUSH2 0x7FE JUMP JUMPDEST SWAP6 SWAP5 POP POP POP POP POP JUMP JUMPDEST PUSH2 0x898 DUP2 PUSH2 0x82C JUMP JUMPDEST DUP2 EQ PUSH2 0x8A2 JUMPI PUSH0 PUSH0 REVERT JUMPDEST POP JUMP JUMPDEST PUSH0 DUP2 CALLDATALOAD SWAP1 POP PUSH2 0x8B3 DUP2 PUSH2 0x88F JUMP JUMPDEST SWAP3 SWAP2 POP POP JUMP JUMPDEST PUSH0 PUSH0 REVERT JUMPDEST PUSH0 PUSH1 0x1F NOT PUSH1 0x1F DUP4 ADD AND SWAP1 POP SWAP2 SWAP1 POP JUMP JUMPDEST PUSH32 0x4E487B7100000000000000000000000000000000000000000000000000000000 PUSH0 MSTORE PUSH1 0x41 PUSH1 0x4 MSTORE PUSH1 0x24 PUSH0 REVERT JUMPDEST PUSH2 0x903 DUP3 PUSH2 0x8BD JUMP JUMPDEST DUP2 ADD DUP2 DUP2 LT PUSH8 0xFFFFFFFFFFFFFFFF DUP3 GT OR ISZERO PUSH2 0x922 JUMPI PUSH2 0x921 PUSH2 0x8CD JUMP JUMPDEST JUMPDEST DUP1 PUSH1 0x40 MSTORE POP POP POP JUMP JUMPDEST PUSH0 PUSH2 0x934 PUSH2 0x78F JUMP JUMPDEST SWAP1 POP PUSH2 0x940 DUP3 DUP3 PUSH2 0x8FA JUMP JUMPDEST SWAP2 SWAP1 POP JUMP JUMPDEST PUSH0 PUSH8 0xFFFFFFFFFFFFFFFF DUP3 GT ISZERO PUSH2 0x95F JUMPI PUSH2 0x95E PUSH2 0x8CD JUMP JUMPDEST JUMPDEST PUSH1 0x20 DUP3 MUL SWAP1 POP PUSH1 0x20 DUP2 ADD SWAP1 POP SWAP2 SWAP1 POP JUMP JUMPDEST PUSH0 PUSH0 REVERT JUMPDEST PUSH0 PUSH2 0x986 PUSH2 0x981 DUP5 PUSH2 0x945 JUMP JUMPDEST PUSH2 0x92B JUMP JUMPDEST SWAP1 POP DUP1 DUP4 DUP3 MSTORE PUSH1 0x20 DUP3 ADD SWAP1 POP PUSH1 0x20 DUP5 MUL DUP4 ADD DUP6 DUP2 GT ISZERO PUSH2 0x9A9 JUMPI PUSH2 0x9A8 PUSH2 0x970 JUMP JUMPDEST JUMPDEST DUP4 JUMPDEST DUP2 DUP2 LT ISZERO PUSH2 0x9D2 JUMPI DUP1 PUSH2 0x9BE DUP9 DUP3 PUSH2 0x7BF JUMP JUMPDEST DUP5 MSTORE PUSH1 0x20 DUP5 ADD SWAP4 POP POP PUSH1 0x20 DUP2 ADD SWAP1 POP PUSH2 0x9AB JUMP JUMPDEST POP POP POP SWAP4 SWAP3 POP POP POP JUMP JUMPDEST PUSH0 DUP3 PUSH1 0x1F DUP4 ADD SLT PUSH2 0x9F0 JUMPI PUSH2 0x9EF PUSH2 0x8B9 JUMP JUMPDEST JUMPDEST DUP2 CALLDATALOAD PUSH2 0xA00 DUP5 DUP3 PUSH1 0x20 DUP7 ADD PUSH2 0x974 JUMP JUMPDEST SWAP2 POP POP SWAP3 SWAP2 POP POP JUMP JUMPDEST PUSH0 PUSH0 PUSH1 0x40 DUP4 DUP6 SUB SLT ISZERO PUSH2 0xA1F JUMPI PUSH2 0xA1E PUSH2 0x798 JUMP JUMPDEST JUMPDEST PUSH0 PUSH2 0xA2C DUP6 DUP3 DUP7 ADD PUSH2 0x8A5 JUMP JUMPDEST SWAP3 POP POP PUSH1 0x20 DUP4 ADD CALLDATALOAD PUSH8 0xFFFFFFFFFFFFFFFF DUP2 GT ISZERO PUSH2 0xA4D JUMPI PUSH2 0xA4C PUSH2 0x79C JUMP JUMPDEST JUMPDEST PUSH2 0xA59 DUP6 DUP3 DUP7 ADD PUSH2 0x9DC JUMP JUMPDEST SWAP2 POP POP SWAP3 POP SWAP3 SWAP1 POP JUMP JUMPDEST PUSH0 PUSH0 PUSH1 0x40 DUP4 DUP6 SUB SLT ISZERO PUSH2 0xA79 JUMPI PUSH2 0xA78 PUSH2 0x798 JUMP JUMPDEST JUMPDEST PUSH0 PUSH2 0xA86 DUP6 DUP3 DUP7 ADD PUSH2 0x8A5 JUMP JUMPDEST SWAP3 POP POP PUSH1 0x20 PUSH2 0xA97 DUP6 DUP3 DUP7 ADD PUSH2 0x7BF JUMP JUMPDEST SWAP2 POP POP SWAP3 POP SWAP3 SWAP1 POP JUMP JUMPDEST PUSH0 PUSH1 0x20 DUP3 ADD SWAP1 POP PUSH2 0xAB4 PUSH0 DUP4 ADD DUP5 PUSH2 0x7FE JUMP JUMPDEST SWAP3 SWAP2 POP POP JUMP JUMPDEST PUSH2 0xAC3 DUP2 PUSH2 0x7A0 JUMP JUMPDEST DUP3 MSTORE POP POP JUMP JUMPDEST PUSH2 0xAD2 DUP2 PUSH2 0x82C JUMP JUMPDEST DUP3 MSTORE POP POP JUMP JUMPDEST PUSH0 DUP2 MLOAD SWAP1 POP SWAP2 SWAP1 POP JUMP JUMPDEST PUSH0 DUP3 DUP3 MSTORE PUSH1 0x20 DUP3 ADD SWAP1 POP SWAP3 SWAP2 POP POP JUMP JUMPDEST PUSH0 DUP2 SWAP1 POP PUSH1 0x20 DUP3 ADD SWAP1 POP SWAP2 SWAP1 POP JUMP JUMPDEST PUSH0 DUP2 ISZERO ISZERO SWAP1 POP SWAP2 SWAP1 POP JUMP JUMPDEST PUSH2 0xB15 DUP2 PUSH2 0xB01 JUMP JUMPDEST DUP3 MSTORE POP POP JUMP JUMPDEST PUSH1 0x60 DUP3 ADD PUSH0 DUP3 ADD MLOAD PUSH2 0xB2F PUSH0 DUP6 ADD DUP3 PUSH2 0xABA JUMP JUMPDEST POP PUSH1 0x20 DUP3 ADD MLOAD PUSH2 0xB42 PUSH1 0x20 DUP6 ADD DUP3 PUSH2 0xB0C JUMP JUMPDEST POP PUSH1 0x40 DUP3 ADD MLOAD PUSH2 0xB55 PUSH1 0x40 DUP6 ADD DUP3 PUSH2 0xB0C JUMP JUMPDEST POP POP POP POP JUMP JUMPDEST PUSH0 PUSH2 0xB66 DUP4 DUP4 PUSH2 0xB1B JUMP JUMPDEST PUSH1 0x60 DUP4 ADD SWAP1 POP SWAP3 SWAP2 POP POP JUMP JUMPDEST PUSH0 PUSH1 0x20 DUP3 ADD SWAP1 POP SWAP2 SWAP1 POP JUMP JUMPDEST PUSH0 PUSH2 0xB88 DUP3 PUSH2 0xAD8 JUMP JUMPDEST PUSH2 0xB92 DUP2 DUP6 PUSH2 0xAE2 JUMP JUMPDEST SWAP4 POP PUSH2 0xB9D DUP4 PUSH2 0xAF2 JUMP JUMPDEST DUP1 PUSH0 JUMPDEST DUP4 DUP2 LT ISZERO PUSH2 0xBCD JUMPI DUP2 MLOAD PUSH2 0xBB4 DUP9 DUP3 PUSH2 0xB5B JUMP JUMPDEST SWAP8 POP PUSH2 0xBBF DUP4 PUSH2 0xB72 JUMP JUMPDEST SWAP3 POP POP PUSH1 0x1 DUP2 ADD SWAP1 POP PUSH2 0xBA0 JUMP JUMPDEST POP DUP6 SWAP4 POP POP POP POP SWAP3 SWAP2 POP POP JUMP JUMPDEST PUSH0 PUSH1 0xA0 DUP4 ADD PUSH0 DUP4 ADD MLOAD PUSH2 0xBEF PUSH0 DUP7 ADD DUP3 PUSH2 0xABA JUMP JUMPDEST POP PUSH1 0x20 DUP4 ADD MLOAD PUSH2 0xC02 PUSH1 0x20 DUP7 ADD DUP3 PUSH2 0xAC9 JUMP JUMPDEST POP PUSH1 0x40 DUP4 ADD MLOAD PUSH2 0xC15 PUSH1 0x40 DUP7 ADD DUP3 PUSH2 0xAC9 JUMP JUMPDEST POP PUSH1 0x60 DUP4 ADD MLOAD DUP5 DUP3 SUB PUSH1 0x60 DUP7 ADD MSTORE PUSH2 0xC2D DUP3 DUP3 PUSH2 0xB7E JUMP JUMPDEST SWAP2 POP POP PUSH1 0x80 DUP4 ADD MLOAD PUSH2 0xC42 PUSH1 0x80 DUP7 ADD DUP3 PUSH2 0xABA JUMP JUMPDEST POP DUP1 SWAP2 POP POP SWAP3 SWAP2 POP POP JUMP JUMPDEST PUSH0 PUSH1 0x20 DUP3 ADD SWAP1 POP DUP2 DUP2 SUB PUSH0 DUP4 ADD MSTORE PUSH2 0xC65 DUP2 DUP5 PUSH2 0xBDA JUMP JUMPDEST SWAP1 POP SWAP3 SWAP2 POP POP JUMP JUMPDEST PUSH0 DUP2 SWAP1 POP SWAP2 SWAP1 POP JUMP JUMPDEST PUSH0 PUSH2 0xC90 PUSH2 0xC8B PUSH2 0xC86 DUP5 PUSH2 0x80D JUMP JUMPDEST PUSH2 0xC6D JUMP JUMPDEST PUSH2 0x80D JUMP JUMPDEST SWAP1 POP SWAP2 SWAP1 POP JUMP JUMPDEST PUSH0 PUSH2 0xCA1 DUP3 PUSH2 0xC76 JUMP JUMPDEST SWAP1 POP SWAP2 SWAP1 POP JUMP JUMPDEST PUSH0 PUSH2 0xCB2 DUP3 PUSH2 0xC97 JUMP JUMPDEST SWAP1 POP SWAP2 SWAP1 POP JUMP JUMPDEST PUSH2 0xCC2 DUP2 PUSH2 0xCA8 JUMP JUMPDEST DUP3 MSTORE POP POP JUMP JUMPDEST PUSH0 PUSH1 0x20 DUP3 ADD SWAP1 POP PUSH2 0xCDB PUSH0 DUP4 ADD DUP5 PUSH2 0xCB9 JUMP JUMPDEST SWAP3 SWAP2 POP POP JUMP JUMPDEST PUSH32 0x4E487B7100000000000000000000000000000000000000000000000000000000 PUSH0 MSTORE PUSH1 0x32 PUSH1 0x4 MSTORE PUSH1 0x24 PUSH0 REVERT JUMPDEST PUSH32 0x4E487B7100000000000000000000000000000000000000000000000000000000 PUSH0 MSTORE PUSH1 0x11 PUSH1 0x4 MSTORE PUSH1 0x24 PUSH0 REVERT JUMPDEST PUSH0 PUSH2 0xD45 DUP3 PUSH2 0x7A0 JUMP JUMPDEST SWAP2 POP PUSH2 0xD50 DUP4 PUSH2 0x7A0 JUMP JUMPDEST SWAP3 POP DUP3 DUP3 ADD SWAP1 POP DUP1 DUP3 GT ISZERO PUSH2 0xD68 JUMPI PUSH2 0xD67 PUSH2 0xD0E JUMP JUMPDEST JUMPDEST SWAP3 SWAP2 POP POP JUMP JUMPDEST PUSH0 PUSH1 0x60 DUP3 ADD SWAP1 POP PUSH2 0xD81 PUSH0 DUP4 ADD DUP7 PUSH2 0x83D JUMP JUMPDEST PUSH2 0xD8E PUSH1 0x20 DUP4 ADD DUP6 PUSH2 0x83D JUMP JUMPDEST PUSH2 0xD9B PUSH1 0x40 DUP4 ADD DUP5 PUSH2 0x7FE JUMP JUMPDEST SWAP5 SWAP4 POP POP POP POP JUMP JUMPDEST PUSH2 0xDAC DUP2 PUSH2 0xB01 JUMP JUMPDEST DUP2 EQ PUSH2 0xDB6 JUMPI PUSH0 PUSH0 REVERT JUMPDEST POP JUMP JUMPDEST PUSH0 DUP2 MLOAD SWAP1 POP PUSH2 0xDC7 DUP2 PUSH2 0xDA3 JUMP JUMPDEST SWAP3 SWAP2 POP POP JUMP JUMPDEST PUSH0 PUSH1 0x20 DUP3 DUP5 SUB SLT ISZERO PUSH2 0xDE2 JUMPI PUSH2 0xDE1 PUSH2 0x798 JUMP JUMPDEST JUMPDEST PUSH0 PUSH2 0xDEF DUP5 DUP3 DUP6 ADD PUSH2 0xDB9 JUMP JUMPDEST SWAP2 POP POP SWAP3 SWAP2 POP POP JUMP JUMPDEST PUSH0 DUP3 DUP3 MSTORE PUSH1 0x20 DUP3 ADD SWAP1 POP SWAP3 SWAP2 POP POP JUMP JUMPDEST PUSH32 0x5472616E73666572206661696C65640000000000000000000000000000000000 PUSH0 DUP3 ADD MSTORE POP JUMP JUMPDEST PUSH0 PUSH2 0xE3C PUSH1 0xF DUP4 PUSH2 0xDF8 JUMP JUMPDEST SWAP2 POP PUSH2 0xE47 DUP3 PUSH2 0xE08 JUMP JUMPDEST PUSH1 0x20 DUP3 ADD SWAP1 POP SWAP2 SWAP1 POP JUMP JUMPDEST PUSH0 PUSH1 0x20 DUP3 ADD SWAP1 POP DUP2 DUP2 SUB PUSH0 DUP4 ADD MSTORE PUSH2 0xE69 DUP2 PUSH2 0xE30 JUMP JUMPDEST SWAP1 POP SWAP2 SWAP1 POP JUMP JUMPDEST PUSH0 PUSH2 0xE7A DUP3 PUSH2 0x7A0 JUMP JUMPDEST SWAP2 POP PUSH32 0xFFFFFFFFFFFFFFFFFFFFFFFFFFFFFFFFFFFFFFFFFFFFFFFFFFFFFFFFFFFFFFFF DUP3 SUB PUSH2 0xEAC JUMPI PUSH2 0xEAB PUSH2 0xD0E JUMP JUMPDEST JUMPDEST PUSH1 0x1 DUP3 ADD SWAP1 POP SWAP2 SWAP1 POP JUMP JUMPDEST PUSH0 PUSH2 0xEC1 DUP3 PUSH2 0x7A0 JUMP JUMPDEST SWAP2 POP PUSH2 0xECC DUP4 PUSH2 0x7A0 JUMP JUMPDEST SWAP3 POP DUP3 DUP3 MUL PUSH2 0xEDA DUP2 PUSH2 0x7A0 JUMP JUMPDEST SWAP2 POP DUP3 DUP3 DIV DUP5 EQ DUP4 ISZERO OR PUSH2 0xEF1 JUMPI PUSH2 0xEF0 PUSH2 0xD0E JUMP JUMPDEST JUMPDEST POP SWAP3 SWAP2 POP POP JUMP INVALID LOG2 PUSH5 0x6970667358 0x22 SLT KECCAK256 0xED 0xAF EXTSTATICCALL 0xC 0xA5 RETF MULMOD EXTCODEHASH PUSH24 0xC365E7FD79582942EA88E6E68EE585806F7033CAC6CEC464 PUSH20 0x6F6C634300081E00330000000000000000000000 "
				},
				"gasEstimates": {
					"creation": {
						"codeDepositCost": "777200",
						"executionCost": "infinite",
						"totalCost": "infinite"
					},
					"external": {
						"createJob(address,uint256[])": "infinite",
						"freelancerJobs(address,uint256)": "infinite",
						"getjob(uint256)": "infinite",
						"i_token()": "infinite",
						"jobId()": "2512",
						"jobs(uint256)": "infinite"
					}
				},
				"methodIdentifiers": {
					"createJob(address,uint256[])": "1a424050",
					"freelancerJobs(address,uint256)": "442f5c88",
					"getjob(uint256)": "65c498ab",
					"i_token()": "9608b232",
					"jobId()": "c2939d97",
					"jobs(uint256)": "180aedf3"
				}
			},
			"storageLayout": {
				"storage": [
					{
						"astId": 119,
						"contract": "contracts/escrow.sol:Escrow",
						"label": "jobId",
						"offset": 0,
						"slot": "0",
						"type": "t_uint256"
					},
					{
						"astId": 144,
						"contract": "contracts/escrow.sol:Escrow",
						"label": "jobs",
						"offset": 0,
						"slot": "1",
						"type": "t_mapping(t_uint256,t_struct(Job)132_storage)"
					},
					{
						"astId": 149,
						"contract": "contracts/escrow.sol:Escrow",
						"label": "freelancerJobs",
						"offset": 0,
						"slot": "2",
						"type": "t_mapping(t_address,t_array(t_uint256)dyn_storage)"
					}
				],
				"types": {
					"t_address": {
						"encoding": "inplace",
						"label": "address",
						"numberOfBytes": "20"
					},
					"t_array(t_struct(MileStone)139_storage)dyn_storage": {
						"base": "t_struct(MileStone)139_storage",
						"encoding": "dynamic_array",
						"label": "struct Escrow.MileStone[]",
						"numberOfBytes": "32"
					},
					"t_array(t_uint256)dyn_storage": {
						"base": "t_uint256",
						"encoding": "dynamic_array",
						"label": "uint256[]",
						"numberOfBytes": "32"
					},
					"t_bool": {
						"encoding": "inplace",
						"label": "bool",
						"numberOfBytes": "1"
					},
					"t_mapping(t_address,t_array(t_uint256)dyn_storage)": {
						"encoding": "mapping",
						"key": "t_address",
						"label": "mapping(address => uint256[])",
						"numberOfBytes": "32",
						"value": "t_array(t_uint256)dyn_storage"
					},
					"t_mapping(t_uint256,t_struct(Job)132_storage)": {
						"encoding": "mapping",
						"key": "t_uint256",
						"label": "mapping(uint256 => struct Escrow.Job)",
						"numberOfBytes": "32",
						"value": "t_struct(Job)132_storage"
					},
					"t_struct(Job)132_storage": {
						"encoding": "inplace",
						"label": "struct Escrow.Job",
						"members": [
							{
								"astId": 121,
								"contract": "contracts/escrow.sol:Escrow",
								"label": "id",
								"offset": 0,
								"slot": "0",
								"type": "t_uint256"
							},
							{
								"astId": 123,
								"contract": "contracts/escrow.sol:Escrow",
								"label": "clients",
								"offset": 0,
								"slot": "1",
								"type": "t_address"
							},
							{
								"astId": 125,
								"contract": "contracts/escrow.sol:Escrow",
								"label": "freelancer",
								"offset": 0,
								"slot": "2",
								"type": "t_address"
							},
							{
								"astId": 129,
								"contract": "contracts/escrow.sol:Escrow",
								"label": "milestones",
								"offset": 0,
								"slot": "3",
								"type": "t_array(t_struct(MileStone)139_storage)dyn_storage"
							},
							{
								"astId": 131,
								"contract": "contracts/escrow.sol:Escrow",
								"label": "totalAmount",
								"offset": 0,
								"slot": "4",
								"type": "t_uint256"
							}
						],
						"numberOfBytes": "160"
					},
					"t_struct(MileStone)139_storage": {
						"encoding": "inplace",
						"label": "struct Escrow.MileStone",
						"members": [
							{
								"astId": 134,
								"contract": "contracts/escrow.sol:Escrow",
								"label": "amount",
								"offset": 0,
								"slot": "0",
								"type": "t_uint256"
							},
							{
								"astId": 136,
								"contract": "contracts/escrow.sol:Escrow",
								"label": "completed",
								"offset": 0,
								"slot": "1",
								"type": "t_bool"
							},
							{
								"astId": 138,
								"contract": "contracts/escrow.sol:Escrow",
								"label": "paid",
								"offset": 1,
								"slot": "1",
								"type": "t_bool"
							}
						],
						"numberOfBytes": "64"
					},
					"t_uint256": {
						"encoding": "inplace",
						"label": "uint256",
						"numberOfBytes": "32"
					}
				}
			},
			"userdoc": {
				"kind": "user",
				"methods": {},
				"version": 1
			}
		}
	}
}