{
	"data": {
		"bytecode": {
			"linkReferences": {},
			"object": "60a060405234801561000f575f5ffd5b50604051611b2f380380611b2f8339818101604052810190610031919061020b565b325f73ffffffffffffffffffffffffffffffffffffffff168173ffffffffffffffffffffffffffffffffffffffff16036100a2575f6040517f1e4fbdf70000000000000000000000000000000000000000000000000000000081526004016100999190610245565b60405180910390fd5b6100b1816100ec60201b60201c565b508073ffffffffffffffffffffffffffffffffffffffff1660808173ffffffffffffffffffffffffffffffffffffffff16815250505061025e565b5f5f5f9054906101000a900473ffffffffffffffffffffffffffffffffffffffff169050815f5f6101000a81548173ffffffffffffffffffffffffffffffffffffffff021916908373ffffffffffffffffffffffffffffffffffffffff1602179055508173ffffffffffffffffffffffffffffffffffffffff168173ffffffffffffffffffffffffffffffffffffffff167f8be0079c531659141344cd1fd0a4f28419497f9722a3daafe3b4186f6b6457e060405160405180910390a35050565b5f5ffd5b5f73ffffffffffffffffffffffffffffffffffffffff82169050919050565b5f6101da826101b1565b9050919050565b6101ea816101d0565b81146101f4575f5ffd5b50565b5f81519050610205816101e1565b92915050565b5f602082840312156102205761021f6101ad565b5b5f61022d848285016101f7565b91505092915050565b61023f816101d0565b82525050565b5f6020820190506102585f830184610236565b92915050565b6080516118ab6102845f395f818161053f015281816107cf0152610d4301526118ab5ff3fe608060405234801561000f575f5ffd5b50600436106100b2575f3560e01c80639608b2321161006f5780639608b2321461018e578063b728775b146101ac578063c2939d97146101c8578063d7d86727146101e6578063f2fde38b14610202578063fb63f8f91461021e576100b2565b8063180aedf3146100b65780631a424050146100ea578063442f5c881461010657806365c498ab14610136578063715018a6146101665780638da5cb5b14610170575b5f5ffd5b6100d060048036038101906100cb9190610fd4565b61023a565b6040516100e19594939291906110c0565b60405180910390f35b61010460048036038101906100ff919061128b565b6102b6565b005b610120600480360381019061011b91906112e5565b61069a565b60405161012d9190611323565b60405180910390f35b610150600480360381019061014b9190610fd4565b6106c5565b60405161015d9190611493565b60405180910390f35b61016e610793565b005b6101786107a6565b60405161018591906114b3565b60405180910390f35b6101966107cd565b6040516101a39190611527565b60405180910390f35b6101c660048036038101906101c19190611540565b6107f1565b005b6101d06109fa565b6040516101dd9190611323565b60405180910390f35b61020060048036038101906101fb9190611590565b610a00565b005b61021c600480360381019061021791906115ce565b610b9f565b005b610238600480360381019061023391906115f9565b610c23565b005b6002602052805f5260405f205f91509050805f015490806001015f9054906101000a900473ffffffffffffffffffffffffffffffffffffffff1690806002015f9054906101000a900473ffffffffffffffffffffffffffffffffffffffff1690806004015490806005015f9054906101000a900460ff16905085565b6102be610e25565b5f73ffffffffffffffffffffffffffffffffffffffff168273ffffffffffffffffffffffffffffffffffffffff1603610323576040517f3efa09af00000000000000000000000000000000000000000000000000000000815260040160405180910390fd5b5f81510361035d576040517f5dfece3f00000000000000000000000000000000000000000000000000000000815260040160405180910390fd5b5f815190505f5f60025f60015481526020019081526020015f209050600154815f018190555033816001015f6101000a81548173ffffffffffffffffffffffffffffffffffffffff021916908373ffffffffffffffffffffffffffffffffffffffff16021790555084816002015f6101000a81548173ffffffffffffffffffffffffffffffffffffffff021916908373ffffffffffffffffffffffffffffffffffffffff1602179055505f5f90505b83811015610508575f61043886838151811061042b5761042a611637565b5b6020026020010151610eac565b90508260030160405180606001604052808381526020015f151581526020015f600281111561046a5761046961104d565b5b815250908060018154018082558091505060019003905f5260205f2090600202015f909190919091505f820151815f01556020820151816001015f6101000a81548160ff02191690831515021790555060408201518160010160016101000a81548160ff021916908360028111156104e5576104e461104d565b5b0217905550505080846104f89190611691565b935081806001019250505061040c565b508181600401819055505f816005015f6101000a81548160ff021916908360038111156105385761053761104d565b5b02179055507f000000000000000000000000000000000000000000000000000000000000000073ffffffffffffffffffffffffffffffffffffffff166323b872dd3330856040518463ffffffff1660e01b815260040161059a939291906116c4565b6020604051808303815f875af11580156105b6573d5f5f3e3d5ffd5b505050506040513d601f19601f820116820180604052508101906105da9190611723565b610619576040517f08c379a0000000000000000000000000000000000000000000000000000000008152600401610610906117a8565b60405180910390fd5b60035f8673ffffffffffffffffffffffffffffffffffffffff1673ffffffffffffffffffffffffffffffffffffffff1681526020019081526020015f20600154908060018154018082558091505060019003905f5260205f20015f909190919091505560015f81548092919061068e906117c6565b91905055505050505050565b6003602052815f5260405f2081815481106106b3575f80fd5b905f5260205f20015f91509150505481565b606060025f8381526020019081526020015f20600301805480602002602001604051908101604052809291908181526020015f905b82821015610788578382905f5260205f2090600202016040518060600160405290815f8201548152602001600182015f9054906101000a900460ff161515151581526020016001820160019054906101000a900460ff1660028111156107635761076261104d565b5b60028111156107755761077461104d565b5b81525050815260200190600101906106fa565b505050509050919050565b61079b610e25565b6107a45f610ec8565b565b5f5f5f9054906101000a900473ffffffffffffffffffffffffffffffffffffffff16905090565b7f000000000000000000000000000000000000000000000000000000000000000081565b5f60025f8581526020019081526020015f2090505f73ffffffffffffffffffffffffffffffffffffffff168273ffffffffffffffffffffffffffffffffffffffff160361086a576040517f3efa09af00000000000000000000000000000000000000000000000000000000815260040160405180910390fd5b8173ffffffffffffffffffffffffffffffffffffffff16816002015f9054906101000a900473ffffffffffffffffffffffffffffffffffffffff1673ffffffffffffffffffffffffffffffffffffffff16146108f2576040517f75aee32600000000000000000000000000000000000000000000000000000000815260040160405180910390fd5b8060030180549050831115610933576040517f63df817100000000000000000000000000000000000000000000000000000000815260040160405180910390fd5b5f81600301848154811061094a57610949611637565b5b905f5260205f20906002020190505f600281111561096b5761096a61104d565b5b8160010160019054906101000a900460ff16600281111561098f5761098e61104d565b5b146109c6576040517f50da79dd00000000000000000000000000000000000000000000000000000000815260040160405180910390fd5b60018160010160016101000a81548160ff021916908360028111156109ee576109ed61104d565b5b02179055505050505050565b60015481565b5f60025f8481526020019081526020015f2090505f73ffffffffffffffffffffffffffffffffffffffff168273ffffffffffffffffffffffffffffffffffffffff1603610a79576040517f3efa09af00000000000000000000000000000000000000000000000000000000815260040160405180910390fd5b8173ffffffffffffffffffffffffffffffffffffffff16816002015f9054906101000a900473ffffffffffffffffffffffffffffffffffffffff1673ffffffffffffffffffffffffffffffffffffffff1614610b01576040517f75aee32600000000000000000000000000000000000000000000000000000000815260040160405180910390fd5b5f6003811115610b1457610b1361104d565b5b816005015f9054906101000a900460ff166003811115610b3757610b3661104d565b5b14610b6e576040517fd76ebd0f00000000000000000000000000000000000000000000000000000000815260040160405180910390fd5b6001816005015f6101000a81548160ff02191690836003811115610b9557610b9461104d565b5b0217905550505050565b610ba7610e25565b5f73ffffffffffffffffffffffffffffffffffffffff168173ffffffffffffffffffffffffffffffffffffffff1603610c17575f6040517f1e4fbdf7000000000000000000000000000000000000000000000000000000008152600401610c0e91906114b3565b60405180910390fd5b610c2081610ec8565b50565b610c2b610e25565b5f60025f8481526020019081526020015f2090508060030180549050821115610c80576040517f63df817100000000000000000000000000000000000000000000000000000000815260040160405180910390fd5b5f816003018381548110610c9757610c96611637565b5b905f5260205f209060020201905060016002811115610cb957610cb861104d565b5b8160010160019054906101000a900460ff166002811115610cdd57610cdc61104d565b5b14610d14576040517f50da79dd00000000000000000000000000000000000000000000000000000000815260040160405180910390fd5b60028160010160016101000a81548160ff02191690836002811115610d3c57610d3b61104d565b5b02179055507f000000000000000000000000000000000000000000000000000000000000000073ffffffffffffffffffffffffffffffffffffffff1663a9059cbb836002015f9054906101000a900473ffffffffffffffffffffffffffffffffffffffff16835f01546040518363ffffffff1660e01b8152600401610dc292919061180d565b6020604051808303815f875af1158015610dde573d5f5f3e3d5ffd5b505050506040513d601f19601f82011682018060405250810190610e029190611723565b506001816001015f6101000a81548160ff02191690831515021790555050505050565b610e2d610f89565b73ffffffffffffffffffffffffffffffffffffffff16610e4b6107a6565b73ffffffffffffffffffffffffffffffffffffffff1614610eaa57610e6e610f89565b6040517f118cdaa7000000000000000000000000000000000000000000000000000000008152600401610ea191906114b3565b60405180910390fd5b565b5f670de0b6b3a764000082610ec19190611834565b9050919050565b5f5f5f9054906101000a900473ffffffffffffffffffffffffffffffffffffffff169050815f5f6101000a81548173ffffffffffffffffffffffffffffffffffffffff021916908373ffffffffffffffffffffffffffffffffffffffff1602179055508173ffffffffffffffffffffffffffffffffffffffff168173ffffffffffffffffffffffffffffffffffffffff167f8be0079c531659141344cd1fd0a4f28419497f9722a3daafe3b4186f6b6457e060405160405180910390a35050565b5f33905090565b5f604051905090565b5f5ffd5b5f5ffd5b5f819050919050565b610fb381610fa1565b8114610fbd575f5ffd5b50565b5f81359050610fce81610faa565b92915050565b5f60208284031215610fe957610fe8610f99565b5b5f610ff684828501610fc0565b91505092915050565b61100881610fa1565b82525050565b5f73ffffffffffffffffffffffffffffffffffffffff82169050919050565b5f6110378261100e565b9050919050565b6110478161102d565b82525050565b7f4e487b71000000000000000000000000000000000000000000000000000000005f52602160045260245ffd5b6004811061108b5761108a61104d565b5b50565b5f81905061109b8261107a565b919050565b5f6110aa8261108e565b9050919050565b6110ba816110a0565b82525050565b5f60a0820190506110d35f830188610fff565b6110e0602083018761103e565b6110ed604083018661103e565b6110fa6060830185610fff565b61110760808301846110b1565b9695505050505050565b61111a8161102d565b8114611124575f5ffd5b50565b5f8135905061113581611111565b92915050565b5f5ffd5b5f601f19601f8301169050919050565b7f4e487b71000000000000000000000000000000000000000000000000000000005f52604160045260245ffd5b6111858261113f565b810181811067ffffffffffffffff821117156111a4576111a361114f565b5b80604052505050565b5f6111b6610f90565b90506111c2828261117c565b919050565b5f67ffffffffffffffff8211156111e1576111e061114f565b5b602082029050602081019050919050565b5f5ffd5b5f611208611203846111c7565b6111ad565b9050808382526020820190506020840283018581111561122b5761122a6111f2565b5b835b8181101561125457806112408882610fc0565b84526020840193505060208101905061122d565b5050509392505050565b5f82601f8301126112725761127161113b565b5b81356112828482602086016111f6565b91505092915050565b5f5f604083850312156112a1576112a0610f99565b5b5f6112ae85828601611127565b925050602083013567ffffffffffffffff8111156112cf576112ce610f9d565b5b6112db8582860161125e565b9150509250929050565b5f5f604083850312156112fb576112fa610f99565b5b5f61130885828601611127565b925050602061131985828601610fc0565b9150509250929050565b5f6020820190506113365f830184610fff565b92915050565b5f81519050919050565b5f82825260208201905092915050565b5f819050602082019050919050565b61136e81610fa1565b82525050565b5f8115159050919050565b61138881611374565b82525050565b6003811061139f5761139e61104d565b5b50565b5f8190506113af8261138e565b919050565b5f6113be826113a2565b9050919050565b6113ce816113b4565b82525050565b606082015f8201516113e85f850182611365565b5060208201516113fb602085018261137f565b50604082015161140e60408501826113c5565b50505050565b5f61141f83836113d4565b60608301905092915050565b5f602082019050919050565b5f6114418261133c565b61144b8185611346565b935061145683611356565b805f5b8381101561148657815161146d8882611414565b97506114788361142b565b925050600181019050611459565b5085935050505092915050565b5f6020820190508181035f8301526114ab8184611437565b905092915050565b5f6020820190506114c65f83018461103e565b92915050565b5f819050919050565b5f6114ef6114ea6114e58461100e565b6114cc565b61100e565b9050919050565b5f611500826114d5565b9050919050565b5f611511826114f6565b9050919050565b61152181611507565b82525050565b5f60208201905061153a5f830184611518565b92915050565b5f5f5f6060848603121561155757611556610f99565b5b5f61156486828701610fc0565b935050602061157586828701610fc0565b925050604061158686828701611127565b9150509250925092565b5f5f604083850312156115a6576115a5610f99565b5b5f6115b385828601610fc0565b92505060206115c485828601611127565b9150509250929050565b5f602082840312156115e3576115e2610f99565b5b5f6115f084828501611127565b91505092915050565b5f5f6040838503121561160f5761160e610f99565b5b5f61161c85828601610fc0565b925050602061162d85828601610fc0565b9150509250929050565b7f4e487b71000000000000000000000000000000000000000000000000000000005f52603260045260245ffd5b7f4e487b71000000000000000000000000000000000000000000000000000000005f52601160045260245ffd5b5f61169b82610fa1565b91506116a683610fa1565b92508282019050808211156116be576116bd611664565b5b92915050565b5f6060820190506116d75f83018661103e565b6116e4602083018561103e565b6116f16040830184610fff565b949350505050565b61170281611374565b811461170c575f5ffd5b50565b5f8151905061171d816116f9565b92915050565b5f6020828403121561173857611737610f99565b5b5f6117458482850161170f565b91505092915050565b5f82825260208201905092915050565b7f5472616e73666572206661696c656400000000000000000000000000000000005f82015250565b5f611792600f8361174e565b915061179d8261175e565b602082019050919050565b5f6020820190508181035f8301526117bf81611786565b9050919050565b5f6117d082610fa1565b91507fffffffffffffffffffffffffffffffffffffffffffffffffffffffffffffffff820361180257611801611664565b5b600182019050919050565b5f6040820190506118205f83018561103e565b61182d6020830184610fff565b9392505050565b5f61183e82610fa1565b915061184983610fa1565b925082820261185781610fa1565b9150828204841483151761186e5761186d611664565b5b509291505056fea26469706673582212207c8e146e71f5f8bfe3805a5eb53604623dc40aee57cbc9b24d3b504c68a1d03b64736f6c634300081e0033",
			"opcodes": "PUSH1 0xA0 PUSH1 0x40 MSTORE CALLVALUE DUP1 ISZERO PUSH2 0xF JUMPI PUSH0 PUSH0 REVERT JUMPDEST POP PUSH1 0x40 MLOAD PUSH2 0x1B2F CODESIZE SUB DUP1 PUSH2 0x1B2F DUP4 CODECOPY DUP2 DUP2 ADD PUSH1 0x40 MSTORE DUP2 ADD SWAP1 PUSH2 0x31 SWAP2 SWAP1 PUSH2 0x20B JUMP JUMPDEST ORIGIN PUSH0 PUSH20 0xFFFFFFFFFFFFFFFFFFFFFFFFFFFFFFFFFFFFFFFF AND DUP2 PUSH20 0xFFFFFFFFFFFFFFFFFFFFFFFFFFFFFFFFFFFFFFFF AND SUB PUSH2 0xA2 JUMPI PUSH0 PUSH1 0x40 MLOAD PUSH32 0x1E4FBDF700000000000000000000000000000000000000000000000000000000 DUP2 MSTORE PUSH1 0x4 ADD PUSH2 0x99 SWAP2 SWAP1 PUSH2 0x245 JUMP JUMPDEST PUSH1 0x40 MLOAD DUP1 SWAP2 SUB SWAP1 REVERT JUMPDEST PUSH2 0xB1 DUP2 PUSH2 0xEC PUSH1 0x20 SHL PUSH1 0x20 SHR JUMP JUMPDEST POP DUP1 PUSH20 0xFFFFFFFFFFFFFFFFFFFFFFFFFFFFFFFFFFFFFFFF AND PUSH1 0x80 DUP2 PUSH20 0xFFFFFFFFFFFFFFFFFFFFFFFFFFFFFFFFFFFFFFFF AND DUP2 MSTORE POP POP POP PUSH2 0x25E JUMP JUMPDEST PUSH0 PUSH0 PUSH0 SWAP1 SLOAD SWAP1 PUSH2 0x100 EXP SWAP1 DIV PUSH20 0xFFFFFFFFFFFFFFFFFFFFFFFFFFFFFFFFFFFFFFFF AND SWAP1 POP DUP2 PUSH0 PUSH0 PUSH2 0x100 EXP DUP2 SLOAD DUP2 PUSH20 0xFFFFFFFFFFFFFFFFFFFFFFFFFFFFFFFFFFFFFFFF MUL NOT AND SWAP1 DUP4 PUSH20 0xFFFFFFFFFFFFFFFFFFFFFFFFFFFFFFFFFFFFFFFF AND MUL OR SWAP1 SSTORE POP DUP2 PUSH20 0xFFFFFFFFFFFFFFFFFFFFFFFFFFFFFFFFFFFFFFFF AND DUP2 PUSH20 0xFFFFFFFFFFFFFFFFFFFFFFFFFFFFFFFFFFFFFFFF AND PUSH32 0x8BE0079C531659141344CD1FD0A4F28419497F9722A3DAAFE3B4186F6B6457E0 PUSH1 0x40 MLOAD PUSH1 0x40 MLOAD DUP1 SWAP2 SUB SWAP1 LOG3 POP POP JUMP JUMPDEST PUSH0 PUSH0 REVERT JUMPDEST PUSH0 PUSH20 0xFFFFFFFFFFFFFFFFFFFFFFFFFFFFFFFFFFFFFFFF DUP3 AND SWAP1 POP SWAP2 SWAP1 POP JUMP JUMPDEST PUSH0 PUSH2 0x1DA DUP3 PUSH2 0x1B1 JUMP JUMPDEST SWAP1 POP SWAP2 SWAP1 POP JUMP JUMPDEST PUSH2 0x1EA DUP2 PUSH2 0x1D0 JUMP JUMPDEST DUP2 EQ PUSH2 0x1F4 JUMPI PUSH0 PUSH0 REVERT JUMPDEST POP JUMP JUMPDEST PUSH0 DUP2 MLOAD SWAP1 POP PUSH2 0x205 DUP2 PUSH2 0x1E1 JUMP JUMPDEST SWAP3 SWAP2 POP POP JUMP JUMPDEST PUSH0 PUSH1 0x20 DUP3 DUP5 SUB SLT ISZERO PUSH2 0x220 JUMPI PUSH2 0x21F PUSH2 0x1AD JUMP JUMPDEST JUMPDEST PUSH0 PUSH2 0x22D DUP5 DUP3 DUP6 ADD PUSH2 0x1F7 JUMP JUMPDEST SWAP2 POP POP SWAP3 SWAP2 POP POP JUMP JUMPDEST PUSH2 0x23F DUP2 PUSH2 0x1D0 JUMP JUMPDEST DUP3 MSTORE POP POP JUMP JUMPDEST PUSH0 PUSH1 0x20 DUP3 ADD SWAP1 POP PUSH2 0x258 PUSH0 DUP4 ADD DUP5 PUSH2 0x236 JUMP JUMPDEST SWAP3 SWAP2 POP POP JUMP JUMPDEST PUSH1 0x80 MLOAD PUSH2 0x18AB PUSH2 0x284 PUSH0 CODECOPY PUSH0 DUP2 DUP2 PUSH2 0x53F ADD MSTORE DUP2 DUP2 PUSH2 0x7CF ADD MSTORE PUSH2 0xD43 ADD MSTORE PUSH2 0x18AB PUSH0 RETURN INVALID PUSH1 0x80 PUSH1 0x40 MSTORE CALLVALUE DUP1 ISZERO PUSH2 0xF JUMPI PUSH0 PUSH0 REVERT JUMPDEST POP PUSH1 0x4 CALLDATASIZE LT PUSH2 0xB2 JUMPI PUSH0 CALLDATALOAD PUSH1 0xE0 SHR DUP1 PUSH4 0x9608B232 GT PUSH2 0x6F JUMPI DUP1 PUSH4 0x9608B232 EQ PUSH2 0x18E JUMPI DUP1 PUSH4 0xB728775B EQ PUSH2 0x1AC JUMPI DUP1 PUSH4 0xC2939D97 EQ PUSH2 0x1C8 JUMPI DUP1 PUSH4 0xD7D86727 EQ PUSH2 0x1E6 JUMPI DUP1 PUSH4 0xF2FDE38B EQ PUSH2 0x202 JUMPI DUP1 PUSH4 0xFB63F8F9 EQ PUSH2 0x21E JUMPI PUSH2 0xB2 JUMP JUMPDEST DUP1 PUSH4 0x180AEDF3 EQ PUSH2 0xB6 JUMPI DUP1 PUSH4 0x1A424050 EQ PUSH2 0xEA JUMPI DUP1 PUSH4 0x442F5C88 EQ PUSH2 0x106 JUMPI DUP1 PUSH4 0x65C498AB EQ PUSH2 0x136 JUMPI DUP1 PUSH4 0x715018A6 EQ PUSH2 0x166 JUMPI DUP1 PUSH4 0x8DA5CB5B EQ PUSH2 0x170 JUMPI JUMPDEST PUSH0 PUSH0 REVERT JUMPDEST PUSH2 0xD0 PUSH1 0x4 DUP1 CALLDATASIZE SUB DUP2 ADD SWAP1 PUSH2 0xCB SWAP2 SWAP1 PUSH2 0xFD4 JUMP JUMPDEST PUSH2 0x23A JUMP JUMPDEST PUSH1 0x40 MLOAD PUSH2 0xE1 SWAP6 SWAP5 SWAP4 SWAP3 SWAP2 SWAP1 PUSH2 0x10C0 JUMP JUMPDEST PUSH1 0x40 MLOAD DUP1 SWAP2 SUB SWAP1 RETURN JUMPDEST PUSH2 0x104 PUSH1 0x4 DUP1 CALLDATASIZE SUB DUP2 ADD SWAP1 PUSH2 0xFF SWAP2 SWAP1 PUSH2 0x128B JUMP JUMPDEST PUSH2 0x2B6 JUMP JUMPDEST STOP JUMPDEST PUSH2 0x120 PUSH1 0x4 DUP1 CALLDATASIZE SUB DUP2 ADD SWAP1 PUSH2 0x11B SWAP2 SWAP1 PUSH2 0x12E5 JUMP JUMPDEST PUSH2 0x69A JUMP JUMPDEST PUSH1 0x40 MLOAD PUSH2 0x12D SWAP2 SWAP1 PUSH2 0x1323 JUMP JUMPDEST PUSH1 0x40 MLOAD DUP1 SWAP2 SUB SWAP1 RETURN JUMPDEST PUSH2 0x150 PUSH1 0x4 DUP1 CALLDATASIZE SUB DUP2 ADD SWAP1 PUSH2 0x14B SWAP2 SWAP1 PUSH2 0xFD4 JUMP JUMPDEST PUSH2 0x6C5 JUMP JUMPDEST PUSH1 0x40 MLOAD PUSH2 0x15D SWAP2 SWAP1 PUSH2 0x1493 JUMP JUMPDEST PUSH1 0x40 MLOAD DUP1 SWAP2 SUB SWAP1 RETURN JUMPDEST PUSH2 0x16E PUSH2 0x793 JUMP JUMPDEST STOP JUMPDEST PUSH2 0x178 PUSH2 0x7A6 JUMP JUMPDEST PUSH1 0x40 MLOAD PUSH2 0x185 SWAP2 SWAP1 PUSH2 0x14B3 JUMP JUMPDEST PUSH1 0x40 MLOAD DUP1 SWAP2 SUB SWAP1 RETURN JUMPDEST PUSH2 0x196 PUSH2 0x7CD JUMP JUMPDEST PUSH1 0x40 MLOAD PUSH2 0x1A3 SWAP2 SWAP1 PUSH2 0x1527 JUMP JUMPDEST PUSH1 0x40 MLOAD DUP1 SWAP2 SUB SWAP1 RETURN JUMPDEST PUSH2 0x1C6 PUSH1 0x4 DUP1 CALLDATASIZE SUB DUP2 ADD SWAP1 PUSH2 0x1C1 SWAP2 SWAP1 PUSH2 0x1540 JUMP JUMPDEST PUSH2 0x7F1 JUMP JUMPDEST STOP JUMPDEST PUSH2 0x1D0 PUSH2 0x9FA JUMP JUMPDEST PUSH1 0x40 MLOAD PUSH2 0x1DD SWAP2 SWAP1 PUSH2 0x1323 JUMP JUMPDEST PUSH1 0x40 MLOAD DUP1 SWAP2 SUB SWAP1 RETURN JUMPDEST PUSH2 0x200 PUSH1 0x4 DUP1 CALLDATASIZE SUB DUP2 ADD SWAP1 PUSH2 0x1FB SWAP2 SWAP1 PUSH2 0x1590 JUMP JUMPDEST PUSH2 0xA00 JUMP JUMPDEST STOP JUMPDEST PUSH2 0x21C PUSH1 0x4 DUP1 CALLDATASIZE SUB DUP2 ADD SWAP1 PUSH2 0x217 SWAP2 SWAP1 PUSH2 0x15CE JUMP JUMPDEST PUSH2 0xB9F JUMP JUMPDEST STOP JUMPDEST PUSH2 0x238 PUSH1 0x4 DUP1 CALLDATASIZE SUB DUP2 ADD SWAP1 PUSH2 0x233 SWAP2 SWAP1 PUSH2 0x15F9 JUMP JUMPDEST PUSH2 0xC23 JUMP JUMPDEST STOP JUMPDEST PUSH1 0x2 PUSH1 0x20 MSTORE DUP1 PUSH0 MSTORE PUSH1 0x40 PUSH0 KECCAK256 PUSH0 SWAP2 POP SWAP1 POP DUP1 PUSH0 ADD SLOAD SWAP1 DUP1 PUSH1 0x1 ADD PUSH0 SWAP1 SLOAD SWAP1 PUSH2 0x100 EXP SWAP1 DIV PUSH20 0xFFFFFFFFFFFFFFFFFFFFFFFFFFFFFFFFFFFFFFFF AND SWAP1 DUP1 PUSH1 0x2 ADD PUSH0 SWAP1 SLOAD SWAP1 PUSH2 0x100 EXP SWAP1 DIV PUSH20 0xFFFFFFFFFFFFFFFFFFFFFFFFFFFFFFFFFFFFFFFF AND SWAP1 DUP1 PUSH1 0x4 ADD SLOAD SWAP1 DUP1 PUSH1 0x5 ADD PUSH0 SWAP1 SLOAD SWAP1 PUSH2 0x100 EXP SWAP1 DIV PUSH1 0xFF AND SWAP1 POP DUP6 JUMP JUMPDEST PUSH2 0x2BE PUSH2 0xE25 JUMP JUMPDEST PUSH0 PUSH20 0xFFFFFFFFFFFFFFFFFFFFFFFFFFFFFFFFFFFFFFFF AND DUP3 PUSH20 0xFFFFFFFFFFFFFFFFFFFFFFFFFFFFFFFFFFFFFFFF AND SUB PUSH2 0x323 JUMPI PUSH1 0x40 MLOAD PUSH32 0x3EFA09AF00000000000000000000000000000000000000000000000000000000 DUP2 MSTORE PUSH1 0x4 ADD PUSH1 0x40 MLOAD DUP1 SWAP2 SUB SWAP1 REVERT JUMPDEST PUSH0 DUP2 MLOAD SUB PUSH2 0x35D JUMPI PUSH1 0x40 MLOAD PUSH32 0x5DFECE3F00000000000000000000000000000000000000000000000000000000 DUP2 MSTORE PUSH1 0x4 ADD PUSH1 0x40 MLOAD DUP1 SWAP2 SUB SWAP1 REVERT JUMPDEST PUSH0 DUP2 MLOAD SWAP1 POP PUSH0 PUSH0 PUSH1 0x2 PUSH0 PUSH1 0x1 SLOAD DUP2 MSTORE PUSH1 0x20 ADD SWAP1 DUP2 MSTORE PUSH1 0x20 ADD PUSH0 KECCAK256 SWAP1 POP PUSH1 0x1 SLOAD DUP2 PUSH0 ADD DUP2 SWAP1 SSTORE POP CALLER DUP2 PUSH1 0x1 ADD PUSH0 PUSH2 0x100 EXP DUP2 SLOAD DUP2 PUSH20 0xFFFFFFFFFFFFFFFFFFFFFFFFFFFFFFFFFFFFFFFF MUL NOT AND SWAP1 DUP4 PUSH20 0xFFFFFFFFFFFFFFFFFFFFFFFFFFFFFFFFFFFFFFFF AND MUL OR SWAP1 SSTORE POP DUP5 DUP2 PUSH1 0x2 ADD PUSH0 PUSH2 0x100 EXP DUP2 SLOAD DUP2 PUSH20 0xFFFFFFFFFFFFFFFFFFFFFFFFFFFFFFFFFFFFFFFF MUL NOT AND SWAP1 DUP4 PUSH20 0xFFFFFFFFFFFFFFFFFFFFFFFFFFFFFFFFFFFFFFFF AND MUL OR SWAP1 SSTORE POP PUSH0 PUSH0 SWAP1 POP JUMPDEST DUP4 DUP2 LT ISZERO PUSH2 0x508 JUMPI PUSH0 PUSH2 0x438 DUP7 DUP4 DUP2 MLOAD DUP2 LT PUSH2 0x42B JUMPI PUSH2 0x42A PUSH2 0x1637 JUMP JUMPDEST JUMPDEST PUSH1 0x20 MUL PUSH1 0x20 ADD ADD MLOAD PUSH2 0xEAC JUMP JUMPDEST SWAP1 POP DUP3 PUSH1 0x3 ADD PUSH1 0x40 MLOAD DUP1 PUSH1 0x60 ADD PUSH1 0x40 MSTORE DUP1 DUP4 DUP2 MSTORE PUSH1 0x20 ADD PUSH0 ISZERO ISZERO DUP2 MSTORE PUSH1 0x20 ADD PUSH0 PUSH1 0x2 DUP2 GT ISZERO PUSH2 0x46A JUMPI PUSH2 0x469 PUSH2 0x104D JUMP JUMPDEST JUMPDEST DUP2 MSTORE POP SWAP1 DUP1 PUSH1 0x1 DUP2 SLOAD ADD DUP1 DUP3 SSTORE DUP1 SWAP2 POP POP PUSH1 0x1 SWAP1 SUB SWAP1 PUSH0 MSTORE PUSH1 0x20 PUSH0 KECCAK256 SWAP1 PUSH1 0x2 MUL ADD PUSH0 SWAP1 SWAP2 SWAP1 SWAP2 SWAP1 SWAP2 POP PUSH0 DUP3 ADD MLOAD DUP2 PUSH0 ADD SSTORE PUSH1 0x20 DUP3 ADD MLOAD DUP2 PUSH1 0x1 ADD PUSH0 PUSH2 0x100 EXP DUP2 SLOAD DUP2 PUSH1 0xFF MUL NOT AND SWAP1 DUP4 ISZERO ISZERO MUL OR SWAP1 SSTORE POP PUSH1 0x40 DUP3 ADD MLOAD DUP2 PUSH1 0x1 ADD PUSH1 0x1 PUSH2 0x100 EXP DUP2 SLOAD DUP2 PUSH1 0xFF MUL NOT AND SWAP1 DUP4 PUSH1 0x2 DUP2 GT ISZERO PUSH2 0x4E5 JUMPI PUSH2 0x4E4 PUSH2 0x104D JUMP JUMPDEST JUMPDEST MUL OR SWAP1 SSTORE POP POP POP DUP1 DUP5 PUSH2 0x4F8 SWAP2 SWAP1 PUSH2 0x1691 JUMP JUMPDEST SWAP4 POP DUP2 DUP1 PUSH1 0x1 ADD SWAP3 POP POP POP PUSH2 0x40C JUMP JUMPDEST POP DUP2 DUP2 PUSH1 0x4 ADD DUP2 SWAP1 SSTORE POP PUSH0 DUP2 PUSH1 0x5 ADD PUSH0 PUSH2 0x100 EXP DUP2 SLOAD DUP2 PUSH1 0xFF MUL NOT AND SWAP1 DUP4 PUSH1 0x3 DUP2 GT ISZERO PUSH2 0x538 JUMPI PUSH2 0x537 PUSH2 0x104D JUMP JUMPDEST JUMPDEST MUL OR SWAP1 SSTORE POP PUSH32 0x0 PUSH20 0xFFFFFFFFFFFFFFFFFFFFFFFFFFFFFFFFFFFFFFFF AND PUSH4 0x23B872DD CALLER ADDRESS DUP6 PUSH1 0x40 MLOAD DUP5 PUSH4 0xFFFFFFFF AND PUSH1 0xE0 SHL DUP2 MSTORE PUSH1 0x4 ADD PUSH2 0x59A SWAP4 SWAP3 SWAP2 SWAP1 PUSH2 0x16C4 JUMP JUMPDEST PUSH1 0x20 PUSH1 0x40 MLOAD DUP1 DUP4 SUB DUP2 PUSH0 DUP8 GAS CALL ISZERO DUP1 ISZERO PUSH2 0x5B6 JUMPI RETURNDATASIZE PUSH0 PUSH0 RETURNDATACOPY RETURNDATASIZE PUSH0 REVERT JUMPDEST POP POP POP POP PUSH1 0x40 MLOAD RETURNDATASIZE PUSH1 0x1F NOT PUSH1 0x1F DUP3 ADD AND DUP3 ADD DUP1 PUSH1 0x40 MSTORE POP DUP2 ADD SWAP1 PUSH2 0x5DA SWAP2 SWAP1 PUSH2 0x1723 JUMP JUMPDEST PUSH2 0x619 JUMPI PUSH1 0x40 MLOAD PUSH32 0x8C379A000000000000000000000000000000000000000000000000000000000 DUP2 MSTORE PUSH1 0x4 ADD PUSH2 0x610 SWAP1 PUSH2 0x17A8 JUMP JUMPDEST PUSH1 0x40 MLOAD DUP1 SWAP2 SUB SWAP1 REVERT JUMPDEST PUSH1 0x3 PUSH0 DUP7 PUSH20 0xFFFFFFFFFFFFFFFFFFFFFFFFFFFFFFFFFFFFFFFF AND PUSH20 0xFFFFFFFFFFFFFFFFFFFFFFFFFFFFFFFFFFFFFFFF AND DUP2 MSTORE PUSH1 0x20 ADD SWAP1 DUP2 MSTORE PUSH1 0x20 ADD PUSH0 KECCAK256 PUSH1 0x1 SLOAD SWAP1 DUP1 PUSH1 0x1 DUP2 SLOAD ADD DUP1 DUP3 SSTORE DUP1 SWAP2 POP POP PUSH1 0x1 SWAP1 SUB SWAP1 PUSH0 MSTORE PUSH1 0x20 PUSH0 KECCAK256 ADD PUSH0 SWAP1 SWAP2 SWAP1 SWAP2 SWAP1 SWAP2 POP SSTORE PUSH1 0x1 PUSH0 DUP2 SLOAD DUP1 SWAP3 SWAP2 SWAP1 PUSH2 0x68E SWAP1 PUSH2 0x17C6 JUMP JUMPDEST SWAP2 SWAP1 POP SSTORE POP POP POP POP POP POP JUMP JUMPDEST PUSH1 0x3 PUSH1 0x20 MSTORE DUP2 PUSH0 MSTORE PUSH1 0x40 PUSH0 KECCAK256 DUP2 DUP2 SLOAD DUP2 LT PUSH2 0x6B3 JUMPI PUSH0 DUP1 REVERT JUMPDEST SWAP1 PUSH0 MSTORE PUSH1 0x20 PUSH0 KECCAK256 ADD PUSH0 SWAP2 POP SWAP2 POP POP SLOAD DUP2 JUMP JUMPDEST PUSH1 0x60 PUSH1 0x2 PUSH0 DUP4 DUP2 MSTORE PUSH1 0x20 ADD SWAP1 DUP2 MSTORE PUSH1 0x20 ADD PUSH0 KECCAK256 PUSH1 0x3 ADD DUP1 SLOAD DUP1 PUSH1 0x20 MUL PUSH1 0x20 ADD PUSH1 0x40 MLOAD SWAP1 DUP2 ADD PUSH1 0x40 MSTORE DUP1 SWAP3 SWAP2 SWAP1 DUP2 DUP2 MSTORE PUSH1 0x20 ADD PUSH0 SWAP1 JUMPDEST DUP3 DUP3 LT ISZERO PUSH2 0x788 JUMPI DUP4 DUP3 SWAP1 PUSH0 MSTORE PUSH1 0x20 PUSH0 KECCAK256 SWAP1 PUSH1 0x2 MUL ADD PUSH1 0x40 MLOAD DUP1 PUSH1 0x60 ADD PUSH1 0x40 MSTORE SWAP1 DUP2 PUSH0 DUP3 ADD SLOAD DUP2 MSTORE PUSH1 0x20 ADD PUSH1 0x1 DUP3 ADD PUSH0 SWAP1 SLOAD SWAP1 PUSH2 0x100 EXP SWAP1 DIV PUSH1 0xFF AND ISZERO ISZERO ISZERO ISZERO DUP2 MSTORE PUSH1 0x20 ADD PUSH1 0x1 DUP3 ADD PUSH1 0x1 SWAP1 SLOAD SWAP1 PUSH2 0x100 EXP SWAP1 DIV PUSH1 0xFF AND PUSH1 0x2 DUP2 GT ISZERO PUSH2 0x763 JUMPI PUSH2 0x762 PUSH2 0x104D JUMP JUMPDEST JUMPDEST PUSH1 0x2 DUP2 GT ISZERO PUSH2 0x775 JUMPI PUSH2 0x774 PUSH2 0x104D JUMP JUMPDEST JUMPDEST DUP2 MSTORE POP POP DUP2 MSTORE PUSH1 0x20 ADD SWAP1 PUSH1 0x1 ADD SWAP1 PUSH2 0x6FA JUMP JUMPDEST POP POP POP POP SWAP1 POP SWAP2 SWAP1 POP JUMP JUMPDEST PUSH2 0x79B PUSH2 0xE25 JUMP JUMPDEST PUSH2 0x7A4 PUSH0 PUSH2 0xEC8 JUMP JUMPDEST JUMP JUMPDEST PUSH0 PUSH0 PUSH0 SWAP1 SLOAD SWAP1 PUSH2 0x100 EXP SWAP1 DIV PUSH20 0xFFFFFFFFFFFFFFFFFFFFFFFFFFFFFFFFFFFFFFFF AND SWAP1 POP SWAP1 JUMP JUMPDEST PUSH32 0x0 DUP2 JUMP JUMPDEST PUSH0 PUSH1 0x2 PUSH0 DUP6 DUP2 MSTORE PUSH1 0x20 ADD SWAP1 DUP2 MSTORE PUSH1 0x20 ADD PUSH0 KECCAK256 SWAP1 POP PUSH0 PUSH20 0xFFFFFFFFFFFFFFFFFFFFFFFFFFFFFFFFFFFFFFFF AND DUP3 PUSH20 0xFFFFFFFFFFFFFFFFFFFFFFFFFFFFFFFFFFFFFFFF AND SUB PUSH2 0x86A JUMPI PUSH1 0x40 MLOAD PUSH32 0x3EFA09AF00000000000000000000000000000000000000000000000000000000 DUP2 MSTORE PUSH1 0x4 ADD PUSH1 0x40 MLOAD DUP1 SWAP2 SUB SWAP1 REVERT JUMPDEST DUP2 PUSH20 0xFFFFFFFFFFFFFFFFFFFFFFFFFFFFFFFFFFFFFFFF AND DUP2 PUSH1 0x2 ADD PUSH0 SWAP1 SLOAD SWAP1 PUSH2 0x100 EXP SWAP1 DIV PUSH20 0xFFFFFFFFFFFFFFFFFFFFFFFFFFFFFFFFFFFFFFFF AND PUSH20 0xFFFFFFFFFFFFFFFFFFFFFFFFFFFFFFFFFFFFFFFF AND EQ PUSH2 0x8F2 JUMPI PUSH1 0x40 MLOAD PUSH32 0x75AEE32600000000000000000000000000000000000000000000000000000000 DUP2 MSTORE PUSH1 0x4 ADD PUSH1 0x40 MLOAD DUP1 SWAP2 SUB SWAP1 REVERT JUMPDEST DUP1 PUSH1 0x3 ADD DUP1 SLOAD SWAP1 POP DUP4 GT ISZERO PUSH2 0x933 JUMPI PUSH1 0x40 MLOAD PUSH32 0x63DF817100000000000000000000000000000000000000000000000000000000 DUP2 MSTORE PUSH1 0x4 ADD PUSH1 0x40 MLOAD DUP1 SWAP2 SUB SWAP1 REVERT JUMPDEST PUSH0 DUP2 PUSH1 0x3 ADD DUP5 DUP2 SLOAD DUP2 LT PUSH2 0x94A JUMPI PUSH2 0x949 PUSH2 0x1637 JUMP JUMPDEST JUMPDEST SWAP1 PUSH0 MSTORE PUSH1 0x20 PUSH0 KECCAK256 SWAP1 PUSH1 0x2 MUL ADD SWAP1 POP PUSH0 PUSH1 0x2 DUP2 GT ISZERO PUSH2 0x96B JUMPI PUSH2 0x96A PUSH2 0x104D JUMP JUMPDEST JUMPDEST DUP2 PUSH1 0x1 ADD PUSH1 0x1 SWAP1 SLOAD SWAP1 PUSH2 0x100 EXP SWAP1 DIV PUSH1 0xFF AND PUSH1 0x2 DUP2 GT ISZERO PUSH2 0x98F JUMPI PUSH2 0x98E PUSH2 0x104D JUMP JUMPDEST JUMPDEST EQ PUSH2 0x9C6 JUMPI PUSH1 0x40 MLOAD PUSH32 0x50DA79DD00000000000000000000000000000000000000000000000000000000 DUP2 MSTORE PUSH1 0x4 ADD PUSH1 0x40 MLOAD DUP1 SWAP2 SUB SWAP1 REVERT JUMPDEST PUSH1 0x1 DUP2 PUSH1 0x1 ADD PUSH1 0x1 PUSH2 0x100 EXP DUP2 SLOAD DUP2 PUSH1 0xFF MUL NOT AND SWAP1 DUP4 PUSH1 0x2 DUP2 GT ISZERO PUSH2 0x9EE JUMPI PUSH2 0x9ED PUSH2 0x104D JUMP JUMPDEST JUMPDEST MUL OR SWAP1 SSTORE POP POP POP POP POP POP JUMP JUMPDEST PUSH1 0x1 SLOAD DUP2 JUMP JUMPDEST PUSH0 PUSH1 0x2 PUSH0 DUP5 DUP2 MSTORE PUSH1 0x20 ADD SWAP1 DUP2 MSTORE PUSH1 0x20 ADD PUSH0 KECCAK256 SWAP1 POP PUSH0 PUSH20 0xFFFFFFFFFFFFFFFFFFFFFFFFFFFFFFFFFFFFFFFF AND DUP3 PUSH20 0xFFFFFFFFFFFFFFFFFFFFFFFFFFFFFFFFFFFFFFFF AND SUB PUSH2 0xA79 JUMPI PUSH1 0x40 MLOAD PUSH32 0x3EFA09AF00000000000000000000000000000000000000000000000000000000 DUP2 MSTORE PUSH1 0x4 ADD PUSH1 0x40 MLOAD DUP1 SWAP2 SUB SWAP1 REVERT JUMPDEST DUP2 PUSH20 0xFFFFFFFFFFFFFFFFFFFFFFFFFFFFFFFFFFFFFFFF AND DUP2 PUSH1 0x2 ADD PUSH0 SWAP1 SLOAD SWAP1 PUSH2 0x100 EXP SWAP1 DIV PUSH20 0xFFFFFFFFFFFFFFFFFFFFFFFFFFFFFFFFFFFFFFFF AND PUSH20 0xFFFFFFFFFFFFFFFFFFFFFFFFFFFFFFFFFFFFFFFF AND EQ PUSH2 0xB01 JUMPI PUSH1 0x40 MLOAD PUSH32 0x75AEE32600000000000000000000000000000000000000000000000000000000 DUP2 MSTORE PUSH1 0x4 ADD PUSH1 0x40 MLOAD DUP1 SWAP2 SUB SWAP1 REVERT JUMPDEST PUSH0 PUSH1 0x3 DUP2 GT ISZERO PUSH2 0xB14 JUMPI PUSH2 0xB13 PUSH2 0x104D JUMP JUMPDEST JUMPDEST DUP2 PUSH1 0x5 ADD PUSH0 SWAP1 SLOAD SWAP1 PUSH2 0x100 EXP SWAP1 DIV PUSH1 0xFF AND PUSH1 0x3 DUP2 GT ISZERO PUSH2 0xB37 JUMPI PUSH2 0xB36 PUSH2 0x104D JUMP JUMPDEST JUMPDEST EQ PUSH2 0xB6E JUMPI PUSH1 0x40 MLOAD PUSH32 0xD76EBD0F00000000000000000000000000000000000000000000000000000000 DUP2 MSTORE PUSH1 0x4 ADD PUSH1 0x40 MLOAD DUP1 SWAP2 SUB SWAP1 REVERT JUMPDEST PUSH1 0x1 DUP2 PUSH1 0x5 ADD PUSH0 PUSH2 0x100 EXP DUP2 SLOAD DUP2 PUSH1 0xFF MUL NOT AND SWAP1 DUP4 PUSH1 0x3 DUP2 GT ISZERO PUSH2 0xB95 JUMPI PUSH2 0xB94 PUSH2 0x104D JUMP JUMPDEST JUMPDEST MUL OR SWAP1 SSTORE POP POP POP POP JUMP JUMPDEST PUSH2 0xBA7 PUSH2 0xE25 JUMP JUMPDEST PUSH0 PUSH20 0xFFFFFFFFFFFFFFFFFFFFFFFFFFFFFFFFFFFFFFFF AND DUP2 PUSH20 0xFFFFFFFFFFFFFFFFFFFFFFFFFFFFFFFFFFFFFFFF AND SUB PUSH2 0xC17 JUMPI PUSH0 PUSH1 0x40 MLOAD PUSH32 0x1E4FBDF700000000000000000000000000000000000000000000000000000000 DUP2 MSTORE PUSH1 0x4 ADD PUSH2 0xC0E SWAP2 SWAP1 PUSH2 0x14B3 JUMP JUMPDEST PUSH1 0x40 MLOAD DUP1 SWAP2 SUB SWAP1 REVERT JUMPDEST PUSH2 0xC20 DUP2 PUSH2 0xEC8 JUMP JUMPDEST POP JUMP JUMPDEST PUSH2 0xC2B PUSH2 0xE25 JUMP JUMPDEST PUSH0 PUSH1 0x2 PUSH0 DUP5 DUP2 MSTORE PUSH1 0x20 ADD SWAP1 DUP2 MSTORE PUSH1 0x20 ADD PUSH0 KECCAK256 SWAP1 POP DUP1 PUSH1 0x3 ADD DUP1 SLOAD SWAP1 POP DUP3 GT ISZERO PUSH2 0xC80 JUMPI PUSH1 0x40 MLOAD PUSH32 0x63DF817100000000000000000000000000000000000000000000000000000000 DUP2 MSTORE PUSH1 0x4 ADD PUSH1 0x40 MLOAD DUP1 SWAP2 SUB SWAP1 REVERT JUMPDEST PUSH0 DUP2 PUSH1 0x3 ADD DUP4 DUP2 SLOAD DUP2 LT PUSH2 0xC97 JUMPI PUSH2 0xC96 PUSH2 0x1637 JUMP JUMPDEST JUMPDEST SWAP1 PUSH0 MSTORE PUSH1 0x20 PUSH0 KECCAK256 SWAP1 PUSH1 0x2 MUL ADD SWAP1 POP PUSH1 0x1 PUSH1 0x2 DUP2 GT ISZERO PUSH2 0xCB9 JUMPI PUSH2 0xCB8 PUSH2 0x104D JUMP JUMPDEST JUMPDEST DUP2 PUSH1 0x1 ADD PUSH1 0x1 SWAP1 SLOAD SWAP1 PUSH2 0x100 EXP SWAP1 DIV PUSH1 0xFF AND PUSH1 0x2 DUP2 GT ISZERO PUSH2 0xCDD JUMPI PUSH2 0xCDC PUSH2 0x104D JUMP JUMPDEST JUMPDEST EQ PUSH2 0xD14 JUMPI PUSH1 0x40 MLOAD PUSH32 0x50DA79DD00000000000000000000000000000000000000000000000000000000 DUP2 MSTORE PUSH1 0x4 ADD PUSH1 0x40 MLOAD DUP1 SWAP2 SUB SWAP1 REVERT JUMPDEST PUSH1 0x2 DUP2 PUSH1 0x1 ADD PUSH1 0x1 PUSH2 0x100 EXP DUP2 SLOAD DUP2 PUSH1 0xFF MUL NOT AND SWAP1 DUP4 PUSH1 0x2 DUP2 GT ISZERO PUSH2 0xD3C JUMPI PUSH2 0xD3B PUSH2 0x104D JUMP JUMPDEST JUMPDEST MUL OR SWAP1 SSTORE POP PUSH32 0x0 PUSH20 0xFFFFFFFFFFFFFFFFFFFFFFFFFFFFFFFFFFFFFFFF AND PUSH4 0xA9059CBB DUP4 PUSH1 0x2 ADD PUSH0 SWAP1 SLOAD SWAP1 PUSH2 0x100 EXP SWAP1 DIV PUSH20 0xFFFFFFFFFFFFFFFFFFFFFFFFFFFFFFFFFFFFFFFF AND DUP4 PUSH0 ADD SLOAD PUSH1 0x40 MLOAD DUP4 PUSH4 0xFFFFFFFF AND PUSH1 0xE0 SHL DUP2 MSTORE PUSH1 0x4 ADD PUSH2 0xDC2 SWAP3 SWAP2 SWAP1 PUSH2 0x180D JUMP JUMPDEST PUSH1 0x20 PUSH1 0x40 MLOAD DUP1 DUP4 SUB DUP2 PUSH0 DUP8 GAS CALL ISZERO DUP1 ISZERO PUSH2 0xDDE JUMPI RETURNDATASIZE PUSH0 PUSH0 RETURNDATACOPY RETURNDATASIZE PUSH0 REVERT JUMPDEST POP POP POP POP PUSH1 0x40 MLOAD RETURNDATASIZE PUSH1 0x1F NOT PUSH1 0x1F DUP3 ADD AND DUP3 ADD DUP1 PUSH1 0x40 MSTORE POP DUP2 ADD SWAP1 PUSH2 0xE02 SWAP2 SWAP1 PUSH2 0x1723 JUMP JUMPDEST POP PUSH1 0x1 DUP2 PUSH1 0x1 ADD PUSH0 PUSH2 0x100 EXP DUP2 SLOAD DUP2 PUSH1 0xFF MUL NOT AND SWAP1 DUP4 ISZERO ISZERO MUL OR SWAP1 SSTORE POP POP POP POP POP JUMP JUMPDEST PUSH2 0xE2D PUSH2 0xF89 JUMP JUMPDEST PUSH20 0xFFFFFFFFFFFFFFFFFFFFFFFFFFFFFFFFFFFFFFFF AND PUSH2 0xE4B PUSH2 0x7A6 JUMP JUMPDEST PUSH20 0xFFFFFFFFFFFFFFFFFFFFFFFFFFFFFFFFFFFFFFFF AND EQ PUSH2 0xEAA JUMPI PUSH2 0xE6E PUSH2 0xF89 JUMP JUMPDEST PUSH1 0x40 MLOAD PUSH32 0x118CDAA700000000000000000000000000000000000000000000000000000000 DUP2 MSTORE PUSH1 0x4 ADD PUSH2 0xEA1 SWAP2 SWAP1 PUSH2 0x14B3 JUMP JUMPDEST PUSH1 0x40 MLOAD DUP1 SWAP2 SUB SWAP1 REVERT JUMPDEST JUMP JUMPDEST PUSH0 PUSH8 0xDE0B6B3A7640000 DUP3 PUSH2 0xEC1 SWAP2 SWAP1 PUSH2 0x1834 JUMP JUMPDEST SWAP1 POP SWAP2 SWAP1 POP JUMP JUMPDEST PUSH0 PUSH0 PUSH0 SWAP1 SLOAD SWAP1 PUSH2 0x100 EXP SWAP1 DIV PUSH20 0xFFFFFFFFFFFFFFFFFFFFFFFFFFFFFFFFFFFFFFFF AND SWAP1 POP DUP2 PUSH0 PUSH0 PUSH2 0x100 EXP DUP2 SLOAD DUP2 PUSH20 0xFFFFFFFFFFFFFFFFFFFFFFFFFFFFFFFFFFFFFFFF MUL NOT AND SWAP1 DUP4 PUSH20 0xFFFFFFFFFFFFFFFFFFFFFFFFFFFFFFFFFFFFFFFF AND MUL OR SWAP1 SSTORE POP DUP2 PUSH20 0xFFFFFFFFFFFFFFFFFFFFFFFFFFFFFFFFFFFFFFFF AND DUP2 PUSH20 0xFFFFFFFFFFFFFFFFFFFFFFFFFFFFFFFFFFFFFFFF AND PUSH32 0x8BE0079C531659141344CD1FD0A4F28419497F9722A3DAAFE3B4186F6B6457E0 PUSH1 0x40 MLOAD PUSH1 0x40 MLOAD DUP1 SWAP2 SUB SWAP1 LOG3 POP POP JUMP JUMPDEST PUSH0 CALLER SWAP1 POP SWAP1 JUMP JUMPDEST PUSH0 PUSH1 0x40 MLOAD SWAP1 POP SWAP1 JUMP JUMPDEST PUSH0 PUSH0 REVERT JUMPDEST PUSH0 PUSH0 REVERT JUMPDEST PUSH0 DUP2 SWAP1 POP SWAP2 SWAP1 POP JUMP JUMPDEST PUSH2 0xFB3 DUP2 PUSH2 0xFA1 JUMP JUMPDEST DUP2 EQ PUSH2 0xFBD JUMPI PUSH0 PUSH0 REVERT JUMPDEST POP JUMP JUMPDEST PUSH0 DUP2 CALLDATALOAD SWAP1 POP PUSH2 0xFCE DUP2 PUSH2 0xFAA JUMP JUMPDEST SWAP3 SWAP2 POP POP JUMP JUMPDEST PUSH0 PUSH1 0x20 DUP3 DUP5 SUB SLT ISZERO PUSH2 0xFE9 JUMPI PUSH2 0xFE8 PUSH2 0xF99 JUMP JUMPDEST JUMPDEST PUSH0 PUSH2 0xFF6 DUP5 DUP3 DUP6 ADD PUSH2 0xFC0 JUMP JUMPDEST SWAP2 POP POP SWAP3 SWAP2 POP POP JUMP JUMPDEST PUSH2 0x1008 DUP2 PUSH2 0xFA1 JUMP JUMPDEST DUP3 MSTORE POP POP JUMP JUMPDEST PUSH0 PUSH20 0xFFFFFFFFFFFFFFFFFFFFFFFFFFFFFFFFFFFFFFFF DUP3 AND SWAP1 POP SWAP2 SWAP1 POP JUMP JUMPDEST PUSH0 PUSH2 0x1037 DUP3 PUSH2 0x100E JUMP JUMPDEST SWAP1 POP SWAP2 SWAP1 POP JUMP JUMPDEST PUSH2 0x1047 DUP2 PUSH2 0x102D JUMP JUMPDEST DUP3 MSTORE POP POP JUMP JUMPDEST PUSH32 0x4E487B7100000000000000000000000000000000000000000000000000000000 PUSH0 MSTORE PUSH1 0x21 PUSH1 0x4 MSTORE PUSH1 0x24 PUSH0 REVERT JUMPDEST PUSH1 0x4 DUP2 LT PUSH2 0x108B JUMPI PUSH2 0x108A PUSH2 0x104D JUMP JUMPDEST JUMPDEST POP JUMP JUMPDEST PUSH0 DUP2 SWAP1 POP PUSH2 0x109B DUP3 PUSH2 0x107A JUMP JUMPDEST SWAP2 SWAP1 POP JUMP JUMPDEST PUSH0 PUSH2 0x10AA DUP3 PUSH2 0x108E JUMP JUMPDEST SWAP1 POP SWAP2 SWAP1 POP JUMP JUMPDEST PUSH2 0x10BA DUP2 PUSH2 0x10A0 JUMP JUMPDEST DUP3 MSTORE POP POP JUMP JUMPDEST PUSH0 PUSH1 0xA0 DUP3 ADD SWAP1 POP PUSH2 0x10D3 PUSH0 DUP4 ADD DUP9 PUSH2 0xFFF JUMP JUMPDEST PUSH2 0x10E0 PUSH1 0x20 DUP4 ADD DUP8 PUSH2 0x103E JUMP JUMPDEST PUSH2 0x10ED PUSH1 0x40 DUP4 ADD DUP7 PUSH2 0x103E JUMP JUMPDEST PUSH2 0x10FA PUSH1 0x60 DUP4 ADD DUP6 PUSH2 0xFFF JUMP JUMPDEST PUSH2 0x1107 PUSH1 0x80 DUP4 ADD DUP5 PUSH2 0x10B1 JUMP JUMPDEST SWAP7 SWAP6 POP POP POP POP POP POP JUMP JUMPDEST PUSH2 0x111A DUP2 PUSH2 0x102D JUMP JUMPDEST DUP2 EQ PUSH2 0x1124 JUMPI PUSH0 PUSH0 REVERT JUMPDEST POP JUMP JUMPDEST PUSH0 DUP2 CALLDATALOAD SWAP1 POP PUSH2 0x1135 DUP2 PUSH2 0x1111 JUMP JUMPDEST SWAP3 SWAP2 POP POP JUMP JUMPDEST PUSH0 PUSH0 REVERT JUMPDEST PUSH0 PUSH1 0x1F NOT PUSH1 0x1F DUP4 ADD AND SWAP1 POP SWAP2 SWAP1 POP JUMP JUMPDEST PUSH32 0x4E487B7100000000000000000000000000000000000000000000000000000000 PUSH0 MSTORE PUSH1 0x41 PUSH1 0x4 MSTORE PUSH1 0x24 PUSH0 REVERT JUMPDEST PUSH2 0x1185 DUP3 PUSH2 0x113F JUMP JUMPDEST DUP2 ADD DUP2 DUP2 LT PUSH8 0xFFFFFFFFFFFFFFFF DUP3 GT OR ISZERO PUSH2 0x11A4 JUMPI PUSH2 0x11A3 PUSH2 0x114F JUMP JUMPDEST JUMPDEST DUP1 PUSH1 0x40 MSTORE POP POP POP JUMP JUMPDEST PUSH0 PUSH2 0x11B6 PUSH2 0xF90 JUMP JUMPDEST SWAP1 POP PUSH2 0x11C2 DUP3 DUP3 PUSH2 0x117C JUMP JUMPDEST SWAP2 SWAP1 POP JUMP JUMPDEST PUSH0 PUSH8 0xFFFFFFFFFFFFFFFF DUP3 GT ISZERO PUSH2 0x11E1 JUMPI PUSH2 0x11E0 PUSH2 0x114F JUMP JUMPDEST JUMPDEST PUSH1 0x20 DUP3 MUL SWAP1 POP PUSH1 0x20 DUP2 ADD SWAP1 POP SWAP2 SWAP1 POP JUMP JUMPDEST PUSH0 PUSH0 REVERT JUMPDEST PUSH0 PUSH2 0x1208 PUSH2 0x1203 DUP5 PUSH2 0x11C7 JUMP JUMPDEST PUSH2 0x11AD JUMP JUMPDEST SWAP1 POP DUP1 DUP4 DUP3 MSTORE PUSH1 0x20 DUP3 ADD SWAP1 POP PUSH1 0x20 DUP5 MUL DUP4 ADD DUP6 DUP2 GT ISZERO PUSH2 0x122B JUMPI PUSH2 0x122A PUSH2 0x11F2 JUMP JUMPDEST JUMPDEST DUP4 JUMPDEST DUP2 DUP2 LT ISZERO PUSH2 0x1254 JUMPI DUP1 PUSH2 0x1240 DUP9 DUP3 PUSH2 0xFC0 JUMP JUMPDEST DUP5 MSTORE PUSH1 0x20 DUP5 ADD SWAP4 POP POP PUSH1 0x20 DUP2 ADD SWAP1 POP PUSH2 0x122D JUMP JUMPDEST POP POP POP SWAP4 SWAP3 POP POP POP JUMP JUMPDEST PUSH0 DUP3 PUSH1 0x1F DUP4 ADD SLT PUSH2 0x1272 JUMPI PUSH2 0x1271 PUSH2 0x113B JUMP JUMPDEST JUMPDEST DUP2 CALLDATALOAD PUSH2 0x1282 DUP5 DUP3 PUSH1 0x20 DUP7 ADD PUSH2 0x11F6 JUMP JUMPDEST SWAP2 POP POP SWAP3 SWAP2 POP POP JUMP JUMPDEST PUSH0 PUSH0 PUSH1 0x40 DUP4 DUP6 SUB SLT ISZERO PUSH2 0x12A1 JUMPI PUSH2 0x12A0 PUSH2 0xF99 JUMP JUMPDEST JUMPDEST PUSH0 PUSH2 0x12AE DUP6 DUP3 DUP7 ADD PUSH2 0x1127 JUMP JUMPDEST SWAP3 POP POP PUSH1 0x20 DUP4 ADD CALLDATALOAD PUSH8 0xFFFFFFFFFFFFFFFF DUP2 GT ISZERO PUSH2 0x12CF JUMPI PUSH2 0x12CE PUSH2 0xF9D JUMP JUMPDEST JUMPDEST PUSH2 0x12DB DUP6 DUP3 DUP7 ADD PUSH2 0x125E JUMP JUMPDEST SWAP2 POP POP SWAP3 POP SWAP3 SWAP1 POP JUMP JUMPDEST PUSH0 PUSH0 PUSH1 0x40 DUP4 DUP6 SUB SLT ISZERO PUSH2 0x12FB JUMPI PUSH2 0x12FA PUSH2 0xF99 JUMP JUMPDEST JUMPDEST PUSH0 PUSH2 0x1308 DUP6 DUP3 DUP7 ADD PUSH2 0x1127 JUMP JUMPDEST SWAP3 POP POP PUSH1 0x20 PUSH2 0x1319 DUP6 DUP3 DUP7 ADD PUSH2 0xFC0 JUMP JUMPDEST SWAP2 POP POP SWAP3 POP SWAP3 SWAP1 POP JUMP JUMPDEST PUSH0 PUSH1 0x20 DUP3 ADD SWAP1 POP PUSH2 0x1336 PUSH0 DUP4 ADD DUP5 PUSH2 0xFFF JUMP JUMPDEST SWAP3 SWAP2 POP POP JUMP JUMPDEST PUSH0 DUP2 MLOAD SWAP1 POP SWAP2 SWAP1 POP JUMP JUMPDEST PUSH0 DUP3 DUP3 MSTORE PUSH1 0x20 DUP3 ADD SWAP1 POP SWAP3 SWAP2 POP POP JUMP JUMPDEST PUSH0 DUP2 SWAP1 POP PUSH1 0x20 DUP3 ADD SWAP1 POP SWAP2 SWAP1 POP JUMP JUMPDEST PUSH2 0x136E DUP2 PUSH2 0xFA1 JUMP JUMPDEST DUP3 MSTORE POP POP JUMP JUMPDEST PUSH0 DUP2 ISZERO ISZERO SWAP1 POP SWAP2 SWAP1 POP JUMP JUMPDEST PUSH2 0x1388 DUP2 PUSH2 0x1374 JUMP JUMPDEST DUP3 MSTORE POP POP JUMP JUMPDEST PUSH1 0x3 DUP2 LT PUSH2 0x139F JUMPI PUSH2 0x139E PUSH2 0x104D JUMP JUMPDEST JUMPDEST POP JUMP JUMPDEST PUSH0 DUP2 SWAP1 POP PUSH2 0x13AF DUP3 PUSH2 0x138E JUMP JUMPDEST SWAP2 SWAP1 POP JUMP JUMPDEST PUSH0 PUSH2 0x13BE DUP3 PUSH2 0x13A2 JUMP JUMPDEST SWAP1 POP SWAP2 SWAP1 POP JUMP JUMPDEST PUSH2 0x13CE DUP2 PUSH2 0x13B4 JUMP JUMPDEST DUP3 MSTORE POP POP JUMP JUMPDEST PUSH1 0x60 DUP3 ADD PUSH0 DUP3 ADD MLOAD PUSH2 0x13E8 PUSH0 DUP6 ADD DUP3 PUSH2 0x1365 JUMP JUMPDEST POP PUSH1 0x20 DUP3 ADD MLOAD PUSH2 0x13FB PUSH1 0x20 DUP6 ADD DUP3 PUSH2 0x137F JUMP JUMPDEST POP PUSH1 0x40 DUP3 ADD MLOAD PUSH2 0x140E PUSH1 0x40 DUP6 ADD DUP3 PUSH2 0x13C5 JUMP JUMPDEST POP POP POP POP JUMP JUMPDEST PUSH0 PUSH2 0x141F DUP4 DUP4 PUSH2 0x13D4 JUMP JUMPDEST PUSH1 0x60 DUP4 ADD SWAP1 POP SWAP3 SWAP2 POP POP JUMP JUMPDEST PUSH0 PUSH1 0x20 DUP3 ADD SWAP1 POP SWAP2 SWAP1 POP JUMP JUMPDEST PUSH0 PUSH2 0x1441 DUP3 PUSH2 0x133C JUMP JUMPDEST PUSH2 0x144B DUP2 DUP6 PUSH2 0x1346 JUMP JUMPDEST SWAP4 POP PUSH2 0x1456 DUP4 PUSH2 0x1356 JUMP JUMPDEST DUP1 PUSH0 JUMPDEST DUP4 DUP2 LT ISZERO PUSH2 0x1486 JUMPI DUP2 MLOAD PUSH2 0x146D DUP9 DUP3 PUSH2 0x1414 JUMP JUMPDEST SWAP8 POP PUSH2 0x1478 DUP4 PUSH2 0x142B JUMP JUMPDEST SWAP3 POP POP PUSH1 0x1 DUP2 ADD SWAP1 POP PUSH2 0x1459 JUMP JUMPDEST POP DUP6 SWAP4 POP POP POP POP SWAP3 SWAP2 POP POP JUMP JUMPDEST PUSH0 PUSH1 0x20 DUP3 ADD SWAP1 POP DUP2 DUP2 SUB PUSH0 DUP4 ADD MSTORE PUSH2 0x14AB DUP2 DUP5 PUSH2 0x1437 JUMP JUMPDEST SWAP1 POP SWAP3 SWAP2 POP POP JUMP JUMPDEST PUSH0 PUSH1 0x20 DUP3 ADD SWAP1 POP PUSH2 0x14C6 PUSH0 DUP4 ADD DUP5 PUSH2 0x103E JUMP JUMPDEST SWAP3 SWAP2 POP POP JUMP JUMPDEST PUSH0 DUP2 SWAP1 POP SWAP2 SWAP1 POP JUMP JUMPDEST PUSH0 PUSH2 0x14EF PUSH2 0x14EA PUSH2 0x14E5 DUP5 PUSH2 0x100E JUMP JUMPDEST PUSH2 0x14CC JUMP JUMPDEST PUSH2 0x100E JUMP JUMPDEST SWAP1 POP SWAP2 SWAP1 POP JUMP JUMPDEST PUSH0 PUSH2 0x1500 DUP3 PUSH2 0x14D5 JUMP JUMPDEST SWAP1 POP SWAP2 SWAP1 POP JUMP JUMPDEST PUSH0 PUSH2 0x1511 DUP3 PUSH2 0x14F6 JUMP JUMPDEST SWAP1 POP SWAP2 SWAP1 POP JUMP JUMPDEST PUSH2 0x1521 DUP2 PUSH2 0x1507 JUMP JUMPDEST DUP3 MSTORE POP POP JUMP JUMPDEST PUSH0 PUSH1 0x20 DUP3 ADD SWAP1 POP PUSH2 0x153A PUSH0 DUP4 ADD DUP5 PUSH2 0x1518 JUMP JUMPDEST SWAP3 SWAP2 POP POP JUMP JUMPDEST PUSH0 PUSH0 PUSH0 PUSH1 0x60 DUP5 DUP7 SUB SLT ISZERO PUSH2 0x1557 JUMPI PUSH2 0x1556 PUSH2 0xF99 JUMP JUMPDEST JUMPDEST PUSH0 PUSH2 0x1564 DUP7 DUP3 DUP8 ADD PUSH2 0xFC0 JUMP JUMPDEST SWAP4 POP POP PUSH1 0x20 PUSH2 0x1575 DUP7 DUP3 DUP8 ADD PUSH2 0xFC0 JUMP JUMPDEST SWAP3 POP POP PUSH1 0x40 PUSH2 0x1586 DUP7 DUP3 DUP8 ADD PUSH2 0x1127 JUMP JUMPDEST SWAP2 POP POP SWAP3 POP SWAP3 POP SWAP3 JUMP JUMPDEST PUSH0 PUSH0 PUSH1 0x40 DUP4 DUP6 SUB SLT ISZERO PUSH2 0x15A6 JUMPI PUSH2 0x15A5 PUSH2 0xF99 JUMP JUMPDEST JUMPDEST PUSH0 PUSH2 0x15B3 DUP6 DUP3 DUP7 ADD PUSH2 0xFC0 JUMP JUMPDEST SWAP3 POP POP PUSH1 0x20 PUSH2 0x15C4 DUP6 DUP3 DUP7 ADD PUSH2 0x1127 JUMP JUMPDEST SWAP2 POP POP SWAP3 POP SWAP3 SWAP1 POP JUMP JUMPDEST PUSH0 PUSH1 0x20 DUP3 DUP5 SUB SLT ISZERO PUSH2 0x15E3 JUMPI PUSH2 0x15E2 PUSH2 0xF99 JUMP JUMPDEST JUMPDEST PUSH0 PUSH2 0x15F0 DUP5 DUP3 DUP6 ADD PUSH2 0x1127 JUMP JUMPDEST SWAP2 POP POP SWAP3 SWAP2 POP POP JUMP JUMPDEST PUSH0 PUSH0 PUSH1 0x40 DUP4 DUP6 SUB SLT ISZERO PUSH2 0x160F JUMPI PUSH2 0x160E PUSH2 0xF99 JUMP JUMPDEST JUMPDEST PUSH0 PUSH2 0x161C DUP6 DUP3 DUP7 ADD PUSH2 0xFC0 JUMP JUMPDEST SWAP3 POP POP PUSH1 0x20 PUSH2 0x162D DUP6 DUP3 DUP7 ADD PUSH2 0xFC0 JUMP JUMPDEST SWAP2 POP POP SWAP3 POP SWAP3 SWAP1 POP JUMP JUMPDEST PUSH32 0x4E487B7100000000000000000000000000000000000000000000000000000000 PUSH0 MSTORE PUSH1 0x32 PUSH1 0x4 MSTORE PUSH1 0x24 PUSH0 REVERT JUMPDEST PUSH32 0x4E487B7100000000000000000000000000000000000000000000000000000000 PUSH0 MSTORE PUSH1 0x11 PUSH1 0x4 MSTORE PUSH1 0x24 PUSH0 REVERT JUMPDEST PUSH0 PUSH2 0x169B DUP3 PUSH2 0xFA1 JUMP JUMPDEST SWAP2 POP PUSH2 0x16A6 DUP4 PUSH2 0xFA1 JUMP JUMPDEST SWAP3 POP DUP3 DUP3 ADD SWAP1 POP DUP1 DUP3 GT ISZERO PUSH2 0x16BE JUMPI PUSH2 0x16BD PUSH2 0x1664 JUMP JUMPDEST JUMPDEST SWAP3 SWAP2 POP POP JUMP JUMPDEST PUSH0 PUSH1 0x60 DUP3 ADD SWAP1 POP PUSH2 0x16D7 PUSH0 DUP4 ADD DUP7 PUSH2 0x103E JUMP JUMPDEST PUSH2 0x16E4 PUSH1 0x20 DUP4 ADD DUP6 PUSH2 0x103E JUMP JUMPDEST PUSH2 0x16F1 PUSH1 0x40 DUP4 ADD DUP5 PUSH2 0xFFF JUMP JUMPDEST SWAP5 SWAP4 POP POP POP POP JUMP JUMPDEST PUSH2 0x1702 DUP2 PUSH2 0x1374 JUMP JUMPDEST DUP2 EQ PUSH2 0x170C JUMPI PUSH0 PUSH0 REVERT JUMPDEST POP JUMP JUMPDEST PUSH0 DUP2 MLOAD SWAP1 POP PUSH2 0x171D DUP2 PUSH2 0x16F9 JUMP JUMPDEST SWAP3 SWAP2 POP POP JUMP JUMPDEST PUSH0 PUSH1 0x20 DUP3 DUP5 SUB SLT ISZERO PUSH2 0x1738 JUMPI PUSH2 0x1737 PUSH2 0xF99 JUMP JUMPDEST JUMPDEST PUSH0 PUSH2 0x1745 DUP5 DUP3 DUP6 ADD PUSH2 0x170F JUMP JUMPDEST SWAP2 POP POP SWAP3 SWAP2 POP POP JUMP JUMPDEST PUSH0 DUP3 DUP3 MSTORE PUSH1 0x20 DUP3 ADD SWAP1 POP SWAP3 SWAP2 POP POP JUMP JUMPDEST PUSH32 0x5472616E73666572206661696C65640000000000000000000000000000000000 PUSH0 DUP3 ADD MSTORE POP JUMP JUMPDEST PUSH0 PUSH2 0x1792 PUSH1 0xF DUP4 PUSH2 0x174E JUMP JUMPDEST SWAP2 POP PUSH2 0x179D DUP3 PUSH2 0x175E JUMP JUMPDEST PUSH1 0x20 DUP3 ADD SWAP1 POP SWAP2 SWAP1 POP JUMP JUMPDEST PUSH0 PUSH1 0x20 DUP3 ADD SWAP1 POP DUP2 DUP2 SUB PUSH0 DUP4 ADD MSTORE PUSH2 0x17BF DUP2 PUSH2 0x1786 JUMP JUMPDEST SWAP1 POP SWAP2 SWAP1 POP JUMP JUMPDEST PUSH0 PUSH2 0x17D0 DUP3 PUSH2 0xFA1 JUMP JUMPDEST SWAP2 POP PUSH32 0xFFFFFFFFFFFFFFFFFFFFFFFFFFFFFFFFFFFFFFFFFFFFFFFFFFFFFFFFFFFFFFFF DUP3 SUB PUSH2 0x1802 JUMPI PUSH2 0x1801 PUSH2 0x1664 JUMP JUMPDEST JUMPDEST PUSH1 0x1 DUP3 ADD SWAP1 POP SWAP2 SWAP1 POP JUMP JUMPDEST PUSH0 PUSH1 0x40 DUP3 ADD SWAP1 POP PUSH2 0x1820 PUSH0 DUP4 ADD DUP6 PUSH2 0x103E JUMP JUMPDEST PUSH2 0x182D PUSH1 0x20 DUP4 ADD DUP5 PUSH2 0xFFF JUMP JUMPDEST SWAP4 SWAP3 POP POP POP JUMP JUMPDEST PUSH0 PUSH2 0x183E DUP3 PUSH2 0xFA1 JUMP JUMPDEST SWAP2 POP PUSH2 0x1849 DUP4 PUSH2 0xFA1 JUMP JUMPDEST SWAP3 POP DUP3 DUP3 MUL PUSH2 0x1857 DUP2 PUSH2 0xFA1 JUMP JUMPDEST SWAP2 POP DUP3 DUP3 DIV DUP5 EQ DUP4 ISZERO OR PUSH2 0x186E JUMPI PUSH2 0x186D PUSH2 0x1664 JUMP JUMPDEST JUMPDEST POP SWAP3 SWAP2 POP POP JUMP INVALID LOG2 PUSH5 0x6970667358 0x22 SLT KECCAK256 PUSH29 0x8E146E71F5F8BFE3805A5EB53604623DC40AEE57CBC9B24D3B504C68A1 0xD0 EXTCODESIZE PUSH5 0x736F6C6343 STOP ADDMOD 0x1E STOP CALLER "
		},
		"gasEstimates": {
			"creation": {
				"codeDepositCost": "1263000",
				"executionCost": "infinite",
				"totalCost": "infinite"
			},
			"external": {
				"acceptJob(uint256,address)": "29490",
				"approveJob(uint256,uint256)": "infinite",
				"createJob(address,uint256[])": "infinite",
				"freelancerJobs(address,uint256)": "infinite",
				"getjob(uint256)": "infinite",
				"i_token()": "infinite",
				"jobId()": "2469",
				"jobs(uint256)": "infinite",
				"owner()": "2625",
				"renounceOwnership()": "infinite",
				"submitMilestone(uint256,uint256,address)": "infinite",
				"transferOwnership(address)": "infinite"
			}
		},
		"methodIdentifiers": {
			"acceptJob(uint256,address)": "d7d86727",
			"approveJob(uint256,uint256)": "fb63f8f9",
			"createJob(address,uint256[])": "1a424050",
			"freelancerJobs(address,uint256)": "442f5c88",
			"getjob(uint256)": "65c498ab",
			"i_token()": "9608b232",
			"jobId()": "c2939d97",
			"jobs(uint256)": "180aedf3",
			"owner()": "8da5cb5b",
			"renounceOwnership()": "715018a6",
			"submitMilestone(uint256,uint256,address)": "b728775b",
			"transferOwnership(address)": "f2fde38b"
		}
	},
	"abi": [
		{
			"inputs": [
				{
					"internalType": "address",
					"name": "_token",
					"type": "address"
				}
			],
			"stateMutability": "nonpayable",
			"type": "constructor"
		},
		{
			"inputs": [],
			"name": "InvalidFreelancer",
			"type": "error"
		},
		{
			"inputs": [],
			"name": "InvalidIndex",
			"type": "error"
		},
		{
			"inputs": [],
			"name": "InvalidMileStoneStatus",
			"type": "error"
		},
		{
			"inputs": [],
			"name": "JobNotOpen",
			"type": "error"
		},
		{
			"inputs": [],
			"name": "NoMilestonesProvided",
			"type": "error"
		},
		{
			"inputs": [
				{
					"internalType": "address",
					"name": "owner",
					"type": "address"
				}
			],
			"name": "OwnableInvalidOwner",
			"type": "error"
		},
		{
			"inputs": [
				{
					"internalType": "address",
					"name": "account",
					"type": "address"
				}
			],
			"name": "OwnableUnauthorizedAccount",
			"type": "error"
		},
		{
			"inputs": [],
			"name": "ZeroAddressError",
			"type": "error"
		},
		{
			"anonymous": false,
			"inputs": [
				{
					"indexed": true,
					"internalType": "address",
					"name": "previousOwner",
					"type": "address"
				},
				{
					"indexed": true,
					"internalType": "address",
					"name": "newOwner",
					"type": "address"
				}
			],
			"name": "OwnershipTransferred",
			"type": "event"
		},
		{
			"inputs": [
				{
					"internalType": "uint256",
					"name": "id",
					"type": "uint256"
				},
				{
					"internalType": "address",
					"name": "_freelancer",
					"type": "address"
				}
			],
			"name": "acceptJob",
			"outputs": [],
			"stateMutability": "nonpayable",
			"type": "function"
		},
		{
			"inputs": [
				{
					"internalType": "uint256",
					"name": "_jobId",
					"type": "uint256"
				},
				{
					"internalType": "uint256",
					"name": "_milestoneId",
					"type": "uint256"
				}
			],
			"name": "approveJob",
			"outputs": [],
			"stateMutability": "nonpayable",
			"type": "function"
		},
		{
			"inputs": [
				{
					"internalType": "address",
					"name": "_freelancer",
					"type": "address"
				},
				{
					"internalType": "uint256[]",
					"name": "_amount",
					"type": "uint256[]"
				}
			],
			"name": "createJob",
			"outputs": [],
			"stateMutability": "nonpayable",
			"type": "function"
		},
		{
			"inputs": [
				{
					"internalType": "address",
					"name": "",
					"type": "address"
				},
				{
					"internalType": "uint256",
					"name": "",
					"type": "uint256"
				}
			],
			"name": "freelancerJobs",
			"outputs": [
				{
					"internalType": "uint256",
					"name": "",
					"type": "uint256"
				}
			],
			"stateMutability": "view",
			"type": "function"
		},
		{
			"inputs": [
				{
					"internalType": "uint256",
					"name": "_jobid",
					"type": "uint256"
				}
			],
			"name": "getjob",
			"outputs": [
				{
					"components": [
						{
							"internalType": "uint256",
							"name": "amount",
							"type": "uint256"
						},
						{
							"internalType": "bool",
							"name": "paid",
							"type": "bool"
						},
						{
							"internalType": "enum Escrow.MileStoneStatus",
							"name": "mileStoneStatus",
							"type": "uint8"
						}
					],
					"internalType": "struct Escrow.MileStone[]",
					"name": "",
					"type": "tuple[]"
				}
			],
			"stateMutability": "view",
			"type": "function"
		},
		{
			"inputs": [],
			"name": "i_token",
			"outputs": [
				{
					"internalType": "contract IERC20",
					"name": "",
					"type": "address"
				}
			],
			"stateMutability": "view",
			"type": "function"
		},
		{
			"inputs": [],
			"name": "jobId",
			"outputs": [
				{
					"internalType": "uint256",
					"name": "",
					"type": "uint256"
				}
			],
			"stateMutability": "view",
			"type": "function"
		},
		{
			"inputs": [
				{
					"internalType": "uint256",
					"name": "",
					"type": "uint256"
				}
			],
			"name": "jobs",
			"outputs": [
				{
					"internalType": "uint256",
					"name": "id",
					"type": "uint256"
				},
				{
					"internalType": "address",
					"name": "clients",
					"type": "address"
				},
				{
					"internalType": "address",
					"name": "freelancer",
					"type": "address"
				},
				{
					"internalType": "uint256",
					"name": "totalAmount",
					"type": "uint256"
				},
				{
					"internalType": "enum Escrow.Status",
					"name": "status",
					"type": "uint8"
				}
			],
			"stateMutability": "view",
			"type": "function"
		},
		{
			"inputs": [],
			"name": "owner",
			"outputs": [
				{
					"internalType": "address",
					"name": "",
					"type": "address"
				}
			],
			"stateMutability": "view",
			"type": "function"
		},
		{
			"inputs": [],
			"name": "renounceOwnership",
			"outputs": [],
			"stateMutability": "nonpayable",
			"type": "function"
		},
		{
			"inputs": [
				{
					"internalType": "uint256",
					"name": "_jobId",
					"type": "uint256"
				},
				{
					"internalType": "uint256",
					"name": "_milestoneId",
					"type": "uint256"
				},
				{
					"internalType": "address",
					"name": "_freelancer",
					"type": "address"
				}
			],
			"name": "submitMilestone",
			"outputs": [],
			"stateMutability": "nonpayable",
			"type": "function"
		},
		{
			"inputs": [
				{
					"internalType": "address",
					"name": "newOwner",
					"type": "address"
				}
			],
			"name": "transferOwnership",
			"outputs": [],
			"stateMutability": "nonpayable",
			"type": "function"
		}
	]
}