{
	"data": {
		"bytecode": {
			"linkReferences": {},
			"object": "60a060405234801561000f575f5ffd5b50604051613496380380613496833981810160405281019061003191906103b0565b325f73ffffffffffffffffffffffffffffffffffffffff168173ffffffffffffffffffffffffffffffffffffffff16036100a2575f6040517f1e4fbdf700000000000000000000000000000000000000000000000000000000815260040161009991906103fd565b60405180910390fd5b6100b18161013160201b60201c565b508173ffffffffffffffffffffffffffffffffffffffff1660808173ffffffffffffffffffffffffffffffffffffffff16815250506100f85f5f1b336101f260201b60201c565b506101297f17a55417373800620b4c2ceaa9f76c02df2e2dd329b9cb9a7cf849712c108f6f826101f260201b60201c565b505050610416565b5f5f5f9054906101000a900473ffffffffffffffffffffffffffffffffffffffff169050815f5f6101000a81548173ffffffffffffffffffffffffffffffffffffffff021916908373ffffffffffffffffffffffffffffffffffffffff1602179055508173ffffffffffffffffffffffffffffffffffffffff168173ffffffffffffffffffffffffffffffffffffffff167f8be0079c531659141344cd1fd0a4f28419497f9722a3daafe3b4186f6b6457e060405160405180910390a35050565b5f61020383836102e760201b60201c565b6102dd576001805f8581526020019081526020015f205f015f8473ffffffffffffffffffffffffffffffffffffffff1673ffffffffffffffffffffffffffffffffffffffff1681526020019081526020015f205f6101000a81548160ff02191690831515021790555061027a61034b60201b60201c565b73ffffffffffffffffffffffffffffffffffffffff168273ffffffffffffffffffffffffffffffffffffffff16847f2f8788117e7eff1d82e926ec794901d17c78024a50270940304540a733656f0d60405160405180910390a4600190506102e1565b5f90505b92915050565b5f60015f8481526020019081526020015f205f015f8373ffffffffffffffffffffffffffffffffffffffff1673ffffffffffffffffffffffffffffffffffffffff1681526020019081526020015f205f9054906101000a900460ff16905092915050565b5f33905090565b5f5ffd5b5f73ffffffffffffffffffffffffffffffffffffffff82169050919050565b5f61037f82610356565b9050919050565b61038f81610375565b8114610399575f5ffd5b50565b5f815190506103aa81610386565b92915050565b5f5f604083850312156103c6576103c5610352565b5b5f6103d38582860161039c565b92505060206103e48582860161039c565b9150509250929050565b6103f781610375565b82525050565b5f6020820190506104105f8301846103ee565b92915050565b60805161304c61044a5f395f81816107b501528181610a300152818161100b0152818161110f0152611277015261304c5ff3fe608060405234801561000f575f5ffd5b5060043610610140575f3560e01c8063870d364d116100b6578063b728775b1161007a578063b728775b1461038d578063c290dd71146103a9578063c2939d97146103c5578063d547741f146103e3578063d7d86727146103ff578063f2fde38b1461041b57610140565b8063870d364d146102e75780638da5cb5b1461030357806391d14854146103215780639608b23214610351578063a217fddf1461036f57610140565b806325e436521161010857806325e43652146102105780632f2ff15d1461024557806336568abe14610261578063442f5c881461027d57806365c498ab146102ad578063715018a6146102dd57610140565b806301ffc9a714610144578063180aedf3146101745780631a424050146101a857806320913da5146101c4578063248a9ca3146101e0575b5f5ffd5b61015e6004803603810190610159919061204b565b610437565b60405161016b9190612090565b60405180910390f35b61018e600480360381019061018991906120dc565b6104b0565b60405161019f9594939291906121c8565b60405180910390f35b6101c260048036038101906101bd9190612393565b61052c565b005b6101de60048036038101906101d991906123ed565b610910565b005b6101fa60048036038101906101f5919061245e565b610b12565b6040516102079190612498565b60405180910390f35b61022a600480360381019061022591906123ed565b610b2f565b60405161023c96959493929190612511565b60405180910390f35b61025f600480360381019061025a919061257e565b610cc9565b005b61027b6004803603810190610276919061257e565b610ceb565b005b610297600480360381019061029291906125bc565b610d66565b6040516102a491906125fa565b60405180910390f35b6102c760048036038101906102c291906120dc565b610d91565b6040516102d4919061275f565b60405180910390f35b6102e5610e5f565b005b61030160048036038101906102fc9190612802565b610e72565b005b61030b6111ea565b6040516103189190612886565b60405180910390f35b61033b6004803603810190610336919061257e565b611211565b6040516103489190612090565b60405180910390f35b610359611275565b60405161036691906128fa565b60405180910390f35b610377611299565b6040516103849190612498565b60405180910390f35b6103a760048036038101906103a29190612913565b61129f565b005b6103c360048036038101906103be9190612963565b611542565b005b6103cd6118f4565b6040516103da91906125fa565b60405180910390f35b6103fd60048036038101906103f8919061257e565b6118fa565b005b610419600480360381019061041491906129d4565b61191c565b005b61043560048036038101906104309190612a12565b611b55565b005b5f7f7965db0b000000000000000000000000000000000000000000000000000000007bffffffffffffffffffffffffffffffffffffffffffffffffffffffff1916827bffffffffffffffffffffffffffffffffffffffffffffffffffffffff191614806104a957506104a882611bd9565b5b9050919050565b6003602052805f5260405f205f91509050805f015490806001015f9054906101000a900473ffffffffffffffffffffffffffffffffffffffff1690806002015f9054906101000a900473ffffffffffffffffffffffffffffffffffffffff1690806004015490806005015f9054906101000a900460ff16905085565b610534611c42565b5f73ffffffffffffffffffffffffffffffffffffffff168273ffffffffffffffffffffffffffffffffffffffff1603610599576040517f3efa09af00000000000000000000000000000000000000000000000000000000815260040160405180910390fd5b5f8151036105d3576040517f5dfece3f00000000000000000000000000000000000000000000000000000000815260040160405180910390fd5b5f815190505f5f60035f60025481526020019081526020015f209050600254815f018190555033816001015f6101000a81548173ffffffffffffffffffffffffffffffffffffffff021916908373ffffffffffffffffffffffffffffffffffffffff16021790555084816002015f6101000a81548173ffffffffffffffffffffffffffffffffffffffff021916908373ffffffffffffffffffffffffffffffffffffffff1602179055505f5f90505b8381101561077e575f6106ae8683815181106106a1576106a0612a3d565b5b6020026020010151611cc9565b90508260030160405180606001604052808381526020015f151581526020015f60048111156106e0576106df612155565b5b815250908060018154018082558091505060019003905f5260205f2090600202015f909190919091505f820151815f01556020820151816001015f6101000a81548160ff02191690831515021790555060408201518160010160016101000a81548160ff0219169083600481111561075b5761075a612155565b5b02179055505050808461076e9190612a97565b9350818060010192505050610682565b508181600401819055505f816005015f6101000a81548160ff021916908360038111156107ae576107ad612155565b5b02179055507f000000000000000000000000000000000000000000000000000000000000000073ffffffffffffffffffffffffffffffffffffffff166323b872dd3330856040518463ffffffff1660e01b815260040161081093929190612aca565b6020604051808303815f875af115801561082c573d5f5f3e3d5ffd5b505050506040513d601f19601f820116820180604052508101906108509190612b13565b61088f576040517f08c379a000000000000000000000000000000000000000000000000000000000815260040161088690612b88565b60405180910390fd5b60045f8673ffffffffffffffffffffffffffffffffffffffff1673ffffffffffffffffffffffffffffffffffffffff1681526020019081526020015f20600254908060018154018082558091505060019003905f5260205f20015f909190919091505560025f81548092919061090490612ba6565b91905055505050505050565b610918611c42565b5f60035f8481526020019081526020015f209050806003018054905082111561096d576040517f63df817100000000000000000000000000000000000000000000000000000000815260040160405180910390fd5b5f81600301838154811061098457610983612a3d565b5b905f5260205f2090600202019050600160048111156109a6576109a5612155565b5b8160010160019054906101000a900460ff1660048111156109ca576109c9612155565b5b14610a01576040517f50da79dd00000000000000000000000000000000000000000000000000000000815260040160405180910390fd5b60028160010160016101000a81548160ff02191690836004811115610a2957610a28612155565b5b02179055507f000000000000000000000000000000000000000000000000000000000000000073ffffffffffffffffffffffffffffffffffffffff1663a9059cbb836002015f9054906101000a900473ffffffffffffffffffffffffffffffffffffffff16835f01546040518363ffffffff1660e01b8152600401610aaf929190612bed565b6020604051808303815f875af1158015610acb573d5f5f3e3d5ffd5b505050506040513d601f19601f82011682018060405250810190610aef9190612b13565b506001816001015f6101000a81548160ff02191690831515021790555050505050565b5f60015f8381526020019081526020015f20600101549050919050565b6005602052815f5260405f20602052805f5260405f205f9150915050805f015490806001015f9054906101000a900473ffffffffffffffffffffffffffffffffffffffff1690806002018054610b8490612c41565b80601f0160208091040260200160405190810160405280929190818152602001828054610bb090612c41565b8015610bfb5780601f10610bd257610100808354040283529160200191610bfb565b820191905f5260205f20905b815481529060010190602001808311610bde57829003601f168201915b505050505090806003015f9054906101000a900473ffffffffffffffffffffffffffffffffffffffff16908060030160149054906101000a900460ff1690806004018054610c4890612c41565b80601f0160208091040260200160405190810160405280929190818152602001828054610c7490612c41565b8015610cbf5780601f10610c9657610100808354040283529160200191610cbf565b820191905f5260205f20905b815481529060010190602001808311610ca257829003601f168201915b5050505050905086565b610cd282610b12565b610cdb81611ce5565b610ce58383611cf9565b50505050565b610cf3611de2565b73ffffffffffffffffffffffffffffffffffffffff168173ffffffffffffffffffffffffffffffffffffffff1614610d57576040517f6697b23200000000000000000000000000000000000000000000000000000000815260040160405180910390fd5b610d618282611de9565b505050565b6004602052815f5260405f208181548110610d7f575f80fd5b905f5260205f20015f91509150505481565b606060035f8381526020019081526020015f20600301805480602002602001604051908101604052809291908181526020015f905b82821015610e54578382905f5260205f2090600202016040518060600160405290815f8201548152602001600182015f9054906101000a900460ff161515151581526020016001820160019054906101000a900460ff166004811115610e2f57610e2e612155565b5b6004811115610e4157610e40612155565b5b8152505081526020019060010190610dc6565b505050509050919050565b610e67611c42565b610e705f611ed3565b565b7f17a55417373800620b4c2ceaa9f76c02df2e2dd329b9cb9a7cf849712c108f6f610e9c81611ce5565b5f60035f8881526020019081526020015f206003018681548110610ec357610ec2612a3d565b5b905f5260205f20906002020190505f60055f8981526020019081526020015f205f8881526020019081526020015f20905060036004811115610f0857610f07612155565b5b8260010160019054906101000a900460ff166004811115610f2c57610f2b612155565b5b14610f63576040517f261bc65a00000000000000000000000000000000000000000000000000000000815260040160405180910390fd5b60018160030160146101000a81548160ff02191690831515021790555033816003015f6101000a81548173ffffffffffffffffffffffffffffffffffffffff021916908373ffffffffffffffffffffffffffffffffffffffff1602179055508484826004019182610fd5929190612e12565b5085156110e05760028260010160016101000a81548160ff0219169083600481111561100457611003612155565b5b02179055507f000000000000000000000000000000000000000000000000000000000000000073ffffffffffffffffffffffffffffffffffffffff1663a9059cbb60035f8b81526020019081526020015f206002015f9054906101000a900473ffffffffffffffffffffffffffffffffffffffff16845f01546040518363ffffffff1660e01b815260040161109a929190612bed565b6020604051808303815f875af11580156110b6573d5f5f3e3d5ffd5b505050506040513d601f19601f820116820180604052508101906110da9190612b13565b506111e0565b60048260010160016101000a81548160ff0219169083600481111561110857611107612155565b5b02179055507f000000000000000000000000000000000000000000000000000000000000000073ffffffffffffffffffffffffffffffffffffffff1663a9059cbb60035f8b81526020019081526020015f206001015f9054906101000a900473ffffffffffffffffffffffffffffffffffffffff16845f01546040518363ffffffff1660e01b815260040161119e929190612bed565b6020604051808303815f875af11580156111ba573d5f5f3e3d5ffd5b505050506040513d601f19601f820116820180604052508101906111de9190612b13565b505b5050505050505050565b5f5f5f9054906101000a900473ffffffffffffffffffffffffffffffffffffffff16905090565b5f60015f8481526020019081526020015f205f015f8373ffffffffffffffffffffffffffffffffffffffff1673ffffffffffffffffffffffffffffffffffffffff1681526020019081526020015f205f9054906101000a900460ff16905092915050565b7f000000000000000000000000000000000000000000000000000000000000000081565b5f5f1b81565b8260035f8281526020019081526020015f206002015f9054906101000a900473ffffffffffffffffffffffffffffffffffffffff1673ffffffffffffffffffffffffffffffffffffffff163373ffffffffffffffffffffffffffffffffffffffff1614611338576040517f706470d200000000000000000000000000000000000000000000000000000000815260040160405180910390fd5b5f60035f8681526020019081526020015f2090505f73ffffffffffffffffffffffffffffffffffffffff168373ffffffffffffffffffffffffffffffffffffffff16036113b1576040517f3efa09af00000000000000000000000000000000000000000000000000000000815260040160405180910390fd5b8273ffffffffffffffffffffffffffffffffffffffff16816002015f9054906101000a900473ffffffffffffffffffffffffffffffffffffffff1673ffffffffffffffffffffffffffffffffffffffff1614611439576040517f75aee32600000000000000000000000000000000000000000000000000000000815260040160405180910390fd5b806003018054905084111561147a576040517f63df817100000000000000000000000000000000000000000000000000000000815260040160405180910390fd5b5f81600301858154811061149157611490612a3d565b5b905f5260205f20906002020190505f60048111156114b2576114b1612155565b5b8160010160019054906101000a900460ff1660048111156114d6576114d5612155565b5b1461150d576040517f50da79dd00000000000000000000000000000000000000000000000000000000815260040160405180910390fd5b60018160010160016101000a81548160ff0219169083600481111561153557611534612155565b5b0217905550505050505050565b5f60035f8681526020019081526020015f2090508060030180549050841115611597576040517f63df817100000000000000000000000000000000000000000000000000000000815260040160405180910390fd5b5f8160030185815481106115ae576115ad612a3d565b5b905f5260205f2090600202019050816001015f9054906101000a900473ffffffffffffffffffffffffffffffffffffffff1673ffffffffffffffffffffffffffffffffffffffff163373ffffffffffffffffffffffffffffffffffffffff161415801561166a5750816002015f9054906101000a900473ffffffffffffffffffffffffffffffffffffffff1673ffffffffffffffffffffffffffffffffffffffff163373ffffffffffffffffffffffffffffffffffffffff1614155b156116a1576040517fe438f8ce00000000000000000000000000000000000000000000000000000000815260040160405180910390fd5b600160048111156116b5576116b4612155565b5b8160010160019054906101000a900460ff1660048111156116d9576116d8612155565b5b14611710576040517fccd90cc400000000000000000000000000000000000000000000000000000000815260040160405180910390fd5b60038160010160016101000a81548160ff0219169083600481111561173857611737612155565b5b02179055506040518060c001604052808681526020013373ffffffffffffffffffffffffffffffffffffffff16815260200185858080601f0160208091040260200160405190810160405280939291908181526020018383808284375f81840152601f19601f8201169050808301925050505050505081526020015f73ffffffffffffffffffffffffffffffffffffffff1681526020015f1515815260200160405180602001604052805f81525081525060055f8881526020019081526020015f205f8781526020019081526020015f205f820151815f01556020820151816001015f6101000a81548173ffffffffffffffffffffffffffffffffffffffff021916908373ffffffffffffffffffffffffffffffffffffffff160217905550604082015181600201908161186c9190612edf565b506060820151816003015f6101000a81548173ffffffffffffffffffffffffffffffffffffffff021916908373ffffffffffffffffffffffffffffffffffffffff16021790555060808201518160030160146101000a81548160ff02191690831515021790555060a08201518160040190816118e89190612edf565b50905050505050505050565b60025481565b61190382610b12565b61190c81611ce5565b6119168383611de9565b50505050565b8160035f8281526020019081526020015f206002015f9054906101000a900473ffffffffffffffffffffffffffffffffffffffff1673ffffffffffffffffffffffffffffffffffffffff163373ffffffffffffffffffffffffffffffffffffffff16146119b5576040517f706470d200000000000000000000000000000000000000000000000000000000815260040160405180910390fd5b5f60035f8581526020019081526020015f2090505f73ffffffffffffffffffffffffffffffffffffffff168373ffffffffffffffffffffffffffffffffffffffff1603611a2e576040517f3efa09af00000000000000000000000000000000000000000000000000000000815260040160405180910390fd5b8273ffffffffffffffffffffffffffffffffffffffff16816002015f9054906101000a900473ffffffffffffffffffffffffffffffffffffffff1673ffffffffffffffffffffffffffffffffffffffff1614611ab6576040517f75aee32600000000000000000000000000000000000000000000000000000000815260040160405180910390fd5b5f6003811115611ac957611ac8612155565b5b816005015f9054906101000a900460ff166003811115611aec57611aeb612155565b5b14611b23576040517fd76ebd0f00000000000000000000000000000000000000000000000000000000815260040160405180910390fd5b6001816005015f6101000a81548160ff02191690836003811115611b4a57611b49612155565b5b021790555050505050565b611b5d611c42565b5f73ffffffffffffffffffffffffffffffffffffffff168173ffffffffffffffffffffffffffffffffffffffff1603611bcd575f6040517f1e4fbdf7000000000000000000000000000000000000000000000000000000008152600401611bc49190612886565b60405180910390fd5b611bd681611ed3565b50565b5f7f01ffc9a7000000000000000000000000000000000000000000000000000000007bffffffffffffffffffffffffffffffffffffffffffffffffffffffff1916827bffffffffffffffffffffffffffffffffffffffffffffffffffffffff1916149050919050565b611c4a611de2565b73ffffffffffffffffffffffffffffffffffffffff16611c686111ea565b73ffffffffffffffffffffffffffffffffffffffff1614611cc757611c8b611de2565b6040517f118cdaa7000000000000000000000000000000000000000000000000000000008152600401611cbe9190612886565b60405180910390fd5b565b5f670de0b6b3a764000082611cde9190612fae565b9050919050565b611cf681611cf1611de2565b611f94565b50565b5f611d048383611211565b611dd8576001805f8581526020019081526020015f205f015f8473ffffffffffffffffffffffffffffffffffffffff1673ffffffffffffffffffffffffffffffffffffffff1681526020019081526020015f205f6101000a81548160ff021916908315150217905550611d75611de2565b73ffffffffffffffffffffffffffffffffffffffff168273ffffffffffffffffffffffffffffffffffffffff16847f2f8788117e7eff1d82e926ec794901d17c78024a50270940304540a733656f0d60405160405180910390a460019050611ddc565b5f90505b92915050565b5f33905090565b5f611df48383611211565b15611ec9575f60015f8581526020019081526020015f205f015f8473ffffffffffffffffffffffffffffffffffffffff1673ffffffffffffffffffffffffffffffffffffffff1681526020019081526020015f205f6101000a81548160ff021916908315150217905550611e66611de2565b73ffffffffffffffffffffffffffffffffffffffff168273ffffffffffffffffffffffffffffffffffffffff16847ff6391f5c32d9c69d2a47ea670b442974b53935d1edc7fd64eb21e047a839171b60405160405180910390a460019050611ecd565b5f90505b92915050565b5f5f5f9054906101000a900473ffffffffffffffffffffffffffffffffffffffff169050815f5f6101000a81548173ffffffffffffffffffffffffffffffffffffffff021916908373ffffffffffffffffffffffffffffffffffffffff1602179055508173ffffffffffffffffffffffffffffffffffffffff168173ffffffffffffffffffffffffffffffffffffffff167f8be0079c531659141344cd1fd0a4f28419497f9722a3daafe3b4186f6b6457e060405160405180910390a35050565b611f9e8282611211565b611fe15780826040517fe2517d3f000000000000000000000000000000000000000000000000000000008152600401611fd8929190612fef565b60405180910390fd5b5050565b5f604051905090565b5f5ffd5b5f5ffd5b5f7fffffffff0000000000000000000000000000000000000000000000000000000082169050919050565b61202a81611ff6565b8114612034575f5ffd5b50565b5f8135905061204581612021565b92915050565b5f602082840312156120605761205f611fee565b5b5f61206d84828501612037565b91505092915050565b5f8115159050919050565b61208a81612076565b82525050565b5f6020820190506120a35f830184612081565b92915050565b5f819050919050565b6120bb816120a9565b81146120c5575f5ffd5b50565b5f813590506120d6816120b2565b92915050565b5f602082840312156120f1576120f0611fee565b5b5f6120fe848285016120c8565b91505092915050565b612110816120a9565b82525050565b5f73ffffffffffffffffffffffffffffffffffffffff82169050919050565b5f61213f82612116565b9050919050565b61214f81612135565b82525050565b7f4e487b71000000000000000000000000000000000000000000000000000000005f52602160045260245ffd5b6004811061219357612192612155565b5b50565b5f8190506121a382612182565b919050565b5f6121b282612196565b9050919050565b6121c2816121a8565b82525050565b5f60a0820190506121db5f830188612107565b6121e86020830187612146565b6121f56040830186612146565b6122026060830185612107565b61220f60808301846121b9565b9695505050505050565b61222281612135565b811461222c575f5ffd5b50565b5f8135905061223d81612219565b92915050565b5f5ffd5b5f601f19601f8301169050919050565b7f4e487b71000000000000000000000000000000000000000000000000000000005f52604160045260245ffd5b61228d82612247565b810181811067ffffffffffffffff821117156122ac576122ab612257565b5b80604052505050565b5f6122be611fe5565b90506122ca8282612284565b919050565b5f67ffffffffffffffff8211156122e9576122e8612257565b5b602082029050602081019050919050565b5f5ffd5b5f61231061230b846122cf565b6122b5565b90508083825260208201905060208402830185811115612333576123326122fa565b5b835b8181101561235c578061234888826120c8565b845260208401935050602081019050612335565b5050509392505050565b5f82601f83011261237a57612379612243565b5b813561238a8482602086016122fe565b91505092915050565b5f5f604083850312156123a9576123a8611fee565b5b5f6123b68582860161222f565b925050602083013567ffffffffffffffff8111156123d7576123d6611ff2565b5b6123e385828601612366565b9150509250929050565b5f5f6040838503121561240357612402611fee565b5b5f612410858286016120c8565b9250506020612421858286016120c8565b9150509250929050565b5f819050919050565b61243d8161242b565b8114612447575f5ffd5b50565b5f8135905061245881612434565b92915050565b5f6020828403121561247357612472611fee565b5b5f6124808482850161244a565b91505092915050565b6124928161242b565b82525050565b5f6020820190506124ab5f830184612489565b92915050565b5f81519050919050565b5f82825260208201905092915050565b8281835e5f83830152505050565b5f6124e3826124b1565b6124ed81856124bb565b93506124fd8185602086016124cb565b61250681612247565b840191505092915050565b5f60c0820190506125245f830189612107565b6125316020830188612146565b818103604083015261254381876124d9565b90506125526060830186612146565b61255f6080830185612081565b81810360a083015261257181846124d9565b9050979650505050505050565b5f5f6040838503121561259457612593611fee565b5b5f6125a18582860161244a565b92505060206125b28582860161222f565b9150509250929050565b5f5f604083850312156125d2576125d1611fee565b5b5f6125df8582860161222f565b92505060206125f0858286016120c8565b9150509250929050565b5f60208201905061260d5f830184612107565b92915050565b5f81519050919050565b5f82825260208201905092915050565b5f819050602082019050919050565b612645816120a9565b82525050565b61265481612076565b82525050565b6005811061266b5761266a612155565b5b50565b5f81905061267b8261265a565b919050565b5f61268a8261266e565b9050919050565b61269a81612680565b82525050565b606082015f8201516126b45f85018261263c565b5060208201516126c7602085018261264b565b5060408201516126da6040850182612691565b50505050565b5f6126eb83836126a0565b60608301905092915050565b5f602082019050919050565b5f61270d82612613565b612717818561261d565b93506127228361262d565b805f5b8381101561275257815161273988826126e0565b9750612744836126f7565b925050600181019050612725565b5085935050505092915050565b5f6020820190508181035f8301526127778184612703565b905092915050565b61278881612076565b8114612792575f5ffd5b50565b5f813590506127a38161277f565b92915050565b5f5ffd5b5f5f83601f8401126127c2576127c1612243565b5b8235905067ffffffffffffffff8111156127df576127de6127a9565b5b6020830191508360018202830111156127fb576127fa6122fa565b5b9250929050565b5f5f5f5f5f6080868803121561281b5761281a611fee565b5b5f612828888289016120c8565b9550506020612839888289016120c8565b945050604061284a88828901612795565b935050606086013567ffffffffffffffff81111561286b5761286a611ff2565b5b612877888289016127ad565b92509250509295509295909350565b5f6020820190506128995f830184612146565b92915050565b5f819050919050565b5f6128c26128bd6128b884612116565b61289f565b612116565b9050919050565b5f6128d3826128a8565b9050919050565b5f6128e4826128c9565b9050919050565b6128f4816128da565b82525050565b5f60208201905061290d5f8301846128eb565b92915050565b5f5f5f6060848603121561292a57612929611fee565b5b5f612937868287016120c8565b9350506020612948868287016120c8565b92505060406129598682870161222f565b9150509250925092565b5f5f5f5f6060858703121561297b5761297a611fee565b5b5f612988878288016120c8565b9450506020612999878288016120c8565b935050604085013567ffffffffffffffff8111156129ba576129b9611ff2565b5b6129c6878288016127ad565b925092505092959194509250565b5f5f604083850312156129ea576129e9611fee565b5b5f6129f7858286016120c8565b9250506020612a088582860161222f565b9150509250929050565b5f60208284031215612a2757612a26611fee565b5b5f612a348482850161222f565b91505092915050565b7f4e487b71000000000000000000000000000000000000000000000000000000005f52603260045260245ffd5b7f4e487b71000000000000000000000000000000000000000000000000000000005f52601160045260245ffd5b5f612aa1826120a9565b9150612aac836120a9565b9250828201905080821115612ac457612ac3612a6a565b5b92915050565b5f606082019050612add5f830186612146565b612aea6020830185612146565b612af76040830184612107565b949350505050565b5f81519050612b0d8161277f565b92915050565b5f60208284031215612b2857612b27611fee565b5b5f612b3584828501612aff565b91505092915050565b7f5472616e73666572206661696c656400000000000000000000000000000000005f82015250565b5f612b72600f836124bb565b9150612b7d82612b3e565b602082019050919050565b5f6020820190508181035f830152612b9f81612b66565b9050919050565b5f612bb0826120a9565b91507fffffffffffffffffffffffffffffffffffffffffffffffffffffffffffffffff8203612be257612be1612a6a565b5b600182019050919050565b5f604082019050612c005f830185612146565b612c0d6020830184612107565b9392505050565b7f4e487b71000000000000000000000000000000000000000000000000000000005f52602260045260245ffd5b5f6002820490506001821680612c5857607f821691505b602082108103612c6b57612c6a612c14565b5b50919050565b5f82905092915050565b5f819050815f5260205f209050919050565b5f6020601f8301049050919050565b5f82821b905092915050565b5f60088302612cd77fffffffffffffffffffffffffffffffffffffffffffffffffffffffffffffffff82612c9c565b612ce18683612c9c565b95508019841693508086168417925050509392505050565b5f612d13612d0e612d09846120a9565b61289f565b6120a9565b9050919050565b5f819050919050565b612d2c83612cf9565b612d40612d3882612d1a565b848454612ca8565b825550505050565b5f5f905090565b612d57612d48565b612d62818484612d23565b505050565b5b81811015612d8557612d7a5f82612d4f565b600181019050612d68565b5050565b601f821115612dca57612d9b81612c7b565b612da484612c8d565b81016020851015612db3578190505b612dc7612dbf85612c8d565b830182612d67565b50505b505050565b5f82821c905092915050565b5f612dea5f1984600802612dcf565b1980831691505092915050565b5f612e028383612ddb565b9150826002028217905092915050565b612e1c8383612c71565b67ffffffffffffffff811115612e3557612e34612257565b5b612e3f8254612c41565b612e4a828285612d89565b5f601f831160018114612e77575f8415612e65578287013590505b612e6f8582612df7565b865550612ed6565b601f198416612e8586612c7b565b5f5b82811015612eac57848901358255600182019150602085019450602081019050612e87565b86831015612ec95784890135612ec5601f891682612ddb565b8355505b6001600288020188555050505b50505050505050565b612ee8826124b1565b67ffffffffffffffff811115612f0157612f00612257565b5b612f0b8254612c41565b612f16828285612d89565b5f60209050601f831160018114612f47575f8415612f35578287015190505b612f3f8582612df7565b865550612fa6565b601f198416612f5586612c7b565b5f5b82811015612f7c57848901518255600182019150602085019450602081019050612f57565b86831015612f995784890151612f95601f891682612ddb565b8355505b6001600288020188555050505b505050505050565b5f612fb8826120a9565b9150612fc3836120a9565b9250828202612fd1816120a9565b91508282048414831517612fe857612fe7612a6a565b5b5092915050565b5f6040820190506130025f830185612146565b61300f6020830184612489565b939250505056fea26469706673582212207016429a6a1eab954229f98ec8dab289996f3aca01905c7d575b087d035df7c064736f6c634300081e0033",
			"opcodes": "PUSH1 0xA0 PUSH1 0x40 MSTORE CALLVALUE DUP1 ISZERO PUSH2 0xF JUMPI PUSH0 PUSH0 REVERT JUMPDEST POP PUSH1 0x40 MLOAD PUSH2 0x3496 CODESIZE SUB DUP1 PUSH2 0x3496 DUP4 CODECOPY DUP2 DUP2 ADD PUSH1 0x40 MSTORE DUP2 ADD SWAP1 PUSH2 0x31 SWAP2 SWAP1 PUSH2 0x3B0 JUMP JUMPDEST ORIGIN PUSH0 PUSH20 0xFFFFFFFFFFFFFFFFFFFFFFFFFFFFFFFFFFFFFFFF AND DUP2 PUSH20 0xFFFFFFFFFFFFFFFFFFFFFFFFFFFFFFFFFFFFFFFF AND SUB PUSH2 0xA2 JUMPI PUSH0 PUSH1 0x40 MLOAD PUSH32 0x1E4FBDF700000000000000000000000000000000000000000000000000000000 DUP2 MSTORE PUSH1 0x4 ADD PUSH2 0x99 SWAP2 SWAP1 PUSH2 0x3FD JUMP JUMPDEST PUSH1 0x40 MLOAD DUP1 SWAP2 SUB SWAP1 REVERT JUMPDEST PUSH2 0xB1 DUP2 PUSH2 0x131 PUSH1 0x20 SHL PUSH1 0x20 SHR JUMP JUMPDEST POP DUP2 PUSH20 0xFFFFFFFFFFFFFFFFFFFFFFFFFFFFFFFFFFFFFFFF AND PUSH1 0x80 DUP2 PUSH20 0xFFFFFFFFFFFFFFFFFFFFFFFFFFFFFFFFFFFFFFFF AND DUP2 MSTORE POP POP PUSH2 0xF8 PUSH0 PUSH0 SHL CALLER PUSH2 0x1F2 PUSH1 0x20 SHL PUSH1 0x20 SHR JUMP JUMPDEST POP PUSH2 0x129 PUSH32 0x17A55417373800620B4C2CEAA9F76C02DF2E2DD329B9CB9A7CF849712C108F6F DUP3 PUSH2 0x1F2 PUSH1 0x20 SHL PUSH1 0x20 SHR JUMP JUMPDEST POP POP POP PUSH2 0x416 JUMP JUMPDEST PUSH0 PUSH0 PUSH0 SWAP1 SLOAD SWAP1 PUSH2 0x100 EXP SWAP1 DIV PUSH20 0xFFFFFFFFFFFFFFFFFFFFFFFFFFFFFFFFFFFFFFFF AND SWAP1 POP DUP2 PUSH0 PUSH0 PUSH2 0x100 EXP DUP2 SLOAD DUP2 PUSH20 0xFFFFFFFFFFFFFFFFFFFFFFFFFFFFFFFFFFFFFFFF MUL NOT AND SWAP1 DUP4 PUSH20 0xFFFFFFFFFFFFFFFFFFFFFFFFFFFFFFFFFFFFFFFF AND MUL OR SWAP1 SSTORE POP DUP2 PUSH20 0xFFFFFFFFFFFFFFFFFFFFFFFFFFFFFFFFFFFFFFFF AND DUP2 PUSH20 0xFFFFFFFFFFFFFFFFFFFFFFFFFFFFFFFFFFFFFFFF AND PUSH32 0x8BE0079C531659141344CD1FD0A4F28419497F9722A3DAAFE3B4186F6B6457E0 PUSH1 0x40 MLOAD PUSH1 0x40 MLOAD DUP1 SWAP2 SUB SWAP1 LOG3 POP POP JUMP JUMPDEST PUSH0 PUSH2 0x203 DUP4 DUP4 PUSH2 0x2E7 PUSH1 0x20 SHL PUSH1 0x20 SHR JUMP JUMPDEST PUSH2 0x2DD JUMPI PUSH1 0x1 DUP1 PUSH0 DUP6 DUP2 MSTORE PUSH1 0x20 ADD SWAP1 DUP2 MSTORE PUSH1 0x20 ADD PUSH0 KECCAK256 PUSH0 ADD PUSH0 DUP5 PUSH20 0xFFFFFFFFFFFFFFFFFFFFFFFFFFFFFFFFFFFFFFFF AND PUSH20 0xFFFFFFFFFFFFFFFFFFFFFFFFFFFFFFFFFFFFFFFF AND DUP2 MSTORE PUSH1 0x20 ADD SWAP1 DUP2 MSTORE PUSH1 0x20 ADD PUSH0 KECCAK256 PUSH0 PUSH2 0x100 EXP DUP2 SLOAD DUP2 PUSH1 0xFF MUL NOT AND SWAP1 DUP4 ISZERO ISZERO MUL OR SWAP1 SSTORE POP PUSH2 0x27A PUSH2 0x34B PUSH1 0x20 SHL PUSH1 0x20 SHR JUMP JUMPDEST PUSH20 0xFFFFFFFFFFFFFFFFFFFFFFFFFFFFFFFFFFFFFFFF AND DUP3 PUSH20 0xFFFFFFFFFFFFFFFFFFFFFFFFFFFFFFFFFFFFFFFF AND DUP5 PUSH32 0x2F8788117E7EFF1D82E926EC794901D17C78024A50270940304540A733656F0D PUSH1 0x40 MLOAD PUSH1 0x40 MLOAD DUP1 SWAP2 SUB SWAP1 LOG4 PUSH1 0x1 SWAP1 POP PUSH2 0x2E1 JUMP JUMPDEST PUSH0 SWAP1 POP JUMPDEST SWAP3 SWAP2 POP POP JUMP JUMPDEST PUSH0 PUSH1 0x1 PUSH0 DUP5 DUP2 MSTORE PUSH1 0x20 ADD SWAP1 DUP2 MSTORE PUSH1 0x20 ADD PUSH0 KECCAK256 PUSH0 ADD PUSH0 DUP4 PUSH20 0xFFFFFFFFFFFFFFFFFFFFFFFFFFFFFFFFFFFFFFFF AND PUSH20 0xFFFFFFFFFFFFFFFFFFFFFFFFFFFFFFFFFFFFFFFF AND DUP2 MSTORE PUSH1 0x20 ADD SWAP1 DUP2 MSTORE PUSH1 0x20 ADD PUSH0 KECCAK256 PUSH0 SWAP1 SLOAD SWAP1 PUSH2 0x100 EXP SWAP1 DIV PUSH1 0xFF AND SWAP1 POP SWAP3 SWAP2 POP POP JUMP JUMPDEST PUSH0 CALLER SWAP1 POP SWAP1 JUMP JUMPDEST PUSH0 PUSH0 REVERT JUMPDEST PUSH0 PUSH20 0xFFFFFFFFFFFFFFFFFFFFFFFFFFFFFFFFFFFFFFFF DUP3 AND SWAP1 POP SWAP2 SWAP1 POP JUMP JUMPDEST PUSH0 PUSH2 0x37F DUP3 PUSH2 0x356 JUMP JUMPDEST SWAP1 POP SWAP2 SWAP1 POP JUMP JUMPDEST PUSH2 0x38F DUP2 PUSH2 0x375 JUMP JUMPDEST DUP2 EQ PUSH2 0x399 JUMPI PUSH0 PUSH0 REVERT JUMPDEST POP JUMP JUMPDEST PUSH0 DUP2 MLOAD SWAP1 POP PUSH2 0x3AA DUP2 PUSH2 0x386 JUMP JUMPDEST SWAP3 SWAP2 POP POP JUMP JUMPDEST PUSH0 PUSH0 PUSH1 0x40 DUP4 DUP6 SUB SLT ISZERO PUSH2 0x3C6 JUMPI PUSH2 0x3C5 PUSH2 0x352 JUMP JUMPDEST JUMPDEST PUSH0 PUSH2 0x3D3 DUP6 DUP3 DUP7 ADD PUSH2 0x39C JUMP JUMPDEST SWAP3 POP POP PUSH1 0x20 PUSH2 0x3E4 DUP6 DUP3 DUP7 ADD PUSH2 0x39C JUMP JUMPDEST SWAP2 POP POP SWAP3 POP SWAP3 SWAP1 POP JUMP JUMPDEST PUSH2 0x3F7 DUP2 PUSH2 0x375 JUMP JUMPDEST DUP3 MSTORE POP POP JUMP JUMPDEST PUSH0 PUSH1 0x20 DUP3 ADD SWAP1 POP PUSH2 0x410 PUSH0 DUP4 ADD DUP5 PUSH2 0x3EE JUMP JUMPDEST SWAP3 SWAP2 POP POP JUMP JUMPDEST PUSH1 0x80 MLOAD PUSH2 0x304C PUSH2 0x44A PUSH0 CODECOPY PUSH0 DUP2 DUP2 PUSH2 0x7B5 ADD MSTORE DUP2 DUP2 PUSH2 0xA30 ADD MSTORE DUP2 DUP2 PUSH2 0x100B ADD MSTORE DUP2 DUP2 PUSH2 0x110F ADD MSTORE PUSH2 0x1277 ADD MSTORE PUSH2 0x304C PUSH0 RETURN INVALID PUSH1 0x80 PUSH1 0x40 MSTORE CALLVALUE DUP1 ISZERO PUSH2 0xF JUMPI PUSH0 PUSH0 REVERT JUMPDEST POP PUSH1 0x4 CALLDATASIZE LT PUSH2 0x140 JUMPI PUSH0 CALLDATALOAD PUSH1 0xE0 SHR DUP1 PUSH4 0x870D364D GT PUSH2 0xB6 JUMPI DUP1 PUSH4 0xB728775B GT PUSH2 0x7A JUMPI DUP1 PUSH4 0xB728775B EQ PUSH2 0x38D JUMPI DUP1 PUSH4 0xC290DD71 EQ PUSH2 0x3A9 JUMPI DUP1 PUSH4 0xC2939D97 EQ PUSH2 0x3C5 JUMPI DUP1 PUSH4 0xD547741F EQ PUSH2 0x3E3 JUMPI DUP1 PUSH4 0xD7D86727 EQ PUSH2 0x3FF JUMPI DUP1 PUSH4 0xF2FDE38B EQ PUSH2 0x41B JUMPI PUSH2 0x140 JUMP JUMPDEST DUP1 PUSH4 0x870D364D EQ PUSH2 0x2E7 JUMPI DUP1 PUSH4 0x8DA5CB5B EQ PUSH2 0x303 JUMPI DUP1 PUSH4 0x91D14854 EQ PUSH2 0x321 JUMPI DUP1 PUSH4 0x9608B232 EQ PUSH2 0x351 JUMPI DUP1 PUSH4 0xA217FDDF EQ PUSH2 0x36F JUMPI PUSH2 0x140 JUMP JUMPDEST DUP1 PUSH4 0x25E43652 GT PUSH2 0x108 JUMPI DUP1 PUSH4 0x25E43652 EQ PUSH2 0x210 JUMPI DUP1 PUSH4 0x2F2FF15D EQ PUSH2 0x245 JUMPI DUP1 PUSH4 0x36568ABE EQ PUSH2 0x261 JUMPI DUP1 PUSH4 0x442F5C88 EQ PUSH2 0x27D JUMPI DUP1 PUSH4 0x65C498AB EQ PUSH2 0x2AD JUMPI DUP1 PUSH4 0x715018A6 EQ PUSH2 0x2DD JUMPI PUSH2 0x140 JUMP JUMPDEST DUP1 PUSH4 0x1FFC9A7 EQ PUSH2 0x144 JUMPI DUP1 PUSH4 0x180AEDF3 EQ PUSH2 0x174 JUMPI DUP1 PUSH4 0x1A424050 EQ PUSH2 0x1A8 JUMPI DUP1 PUSH4 0x20913DA5 EQ PUSH2 0x1C4 JUMPI DUP1 PUSH4 0x248A9CA3 EQ PUSH2 0x1E0 JUMPI JUMPDEST PUSH0 PUSH0 REVERT JUMPDEST PUSH2 0x15E PUSH1 0x4 DUP1 CALLDATASIZE SUB DUP2 ADD SWAP1 PUSH2 0x159 SWAP2 SWAP1 PUSH2 0x204B JUMP JUMPDEST PUSH2 0x437 JUMP JUMPDEST PUSH1 0x40 MLOAD PUSH2 0x16B SWAP2 SWAP1 PUSH2 0x2090 JUMP JUMPDEST PUSH1 0x40 MLOAD DUP1 SWAP2 SUB SWAP1 RETURN JUMPDEST PUSH2 0x18E PUSH1 0x4 DUP1 CALLDATASIZE SUB DUP2 ADD SWAP1 PUSH2 0x189 SWAP2 SWAP1 PUSH2 0x20DC JUMP JUMPDEST PUSH2 0x4B0 JUMP JUMPDEST PUSH1 0x40 MLOAD PUSH2 0x19F SWAP6 SWAP5 SWAP4 SWAP3 SWAP2 SWAP1 PUSH2 0x21C8 JUMP JUMPDEST PUSH1 0x40 MLOAD DUP1 SWAP2 SUB SWAP1 RETURN JUMPDEST PUSH2 0x1C2 PUSH1 0x4 DUP1 CALLDATASIZE SUB DUP2 ADD SWAP1 PUSH2 0x1BD SWAP2 SWAP1 PUSH2 0x2393 JUMP JUMPDEST PUSH2 0x52C JUMP JUMPDEST STOP JUMPDEST PUSH2 0x1DE PUSH1 0x4 DUP1 CALLDATASIZE SUB DUP2 ADD SWAP1 PUSH2 0x1D9 SWAP2 SWAP1 PUSH2 0x23ED JUMP JUMPDEST PUSH2 0x910 JUMP JUMPDEST STOP JUMPDEST PUSH2 0x1FA PUSH1 0x4 DUP1 CALLDATASIZE SUB DUP2 ADD SWAP1 PUSH2 0x1F5 SWAP2 SWAP1 PUSH2 0x245E JUMP JUMPDEST PUSH2 0xB12 JUMP JUMPDEST PUSH1 0x40 MLOAD PUSH2 0x207 SWAP2 SWAP1 PUSH2 0x2498 JUMP JUMPDEST PUSH1 0x40 MLOAD DUP1 SWAP2 SUB SWAP1 RETURN JUMPDEST PUSH2 0x22A PUSH1 0x4 DUP1 CALLDATASIZE SUB DUP2 ADD SWAP1 PUSH2 0x225 SWAP2 SWAP1 PUSH2 0x23ED JUMP JUMPDEST PUSH2 0xB2F JUMP JUMPDEST PUSH1 0x40 MLOAD PUSH2 0x23C SWAP7 SWAP6 SWAP5 SWAP4 SWAP3 SWAP2 SWAP1 PUSH2 0x2511 JUMP JUMPDEST PUSH1 0x40 MLOAD DUP1 SWAP2 SUB SWAP1 RETURN JUMPDEST PUSH2 0x25F PUSH1 0x4 DUP1 CALLDATASIZE SUB DUP2 ADD SWAP1 PUSH2 0x25A SWAP2 SWAP1 PUSH2 0x257E JUMP JUMPDEST PUSH2 0xCC9 JUMP JUMPDEST STOP JUMPDEST PUSH2 0x27B PUSH1 0x4 DUP1 CALLDATASIZE SUB DUP2 ADD SWAP1 PUSH2 0x276 SWAP2 SWAP1 PUSH2 0x257E JUMP JUMPDEST PUSH2 0xCEB JUMP JUMPDEST STOP JUMPDEST PUSH2 0x297 PUSH1 0x4 DUP1 CALLDATASIZE SUB DUP2 ADD SWAP1 PUSH2 0x292 SWAP2 SWAP1 PUSH2 0x25BC JUMP JUMPDEST PUSH2 0xD66 JUMP JUMPDEST PUSH1 0x40 MLOAD PUSH2 0x2A4 SWAP2 SWAP1 PUSH2 0x25FA JUMP JUMPDEST PUSH1 0x40 MLOAD DUP1 SWAP2 SUB SWAP1 RETURN JUMPDEST PUSH2 0x2C7 PUSH1 0x4 DUP1 CALLDATASIZE SUB DUP2 ADD SWAP1 PUSH2 0x2C2 SWAP2 SWAP1 PUSH2 0x20DC JUMP JUMPDEST PUSH2 0xD91 JUMP JUMPDEST PUSH1 0x40 MLOAD PUSH2 0x2D4 SWAP2 SWAP1 PUSH2 0x275F JUMP JUMPDEST PUSH1 0x40 MLOAD DUP1 SWAP2 SUB SWAP1 RETURN JUMPDEST PUSH2 0x2E5 PUSH2 0xE5F JUMP JUMPDEST STOP JUMPDEST PUSH2 0x301 PUSH1 0x4 DUP1 CALLDATASIZE SUB DUP2 ADD SWAP1 PUSH2 0x2FC SWAP2 SWAP1 PUSH2 0x2802 JUMP JUMPDEST PUSH2 0xE72 JUMP JUMPDEST STOP JUMPDEST PUSH2 0x30B PUSH2 0x11EA JUMP JUMPDEST PUSH1 0x40 MLOAD PUSH2 0x318 SWAP2 SWAP1 PUSH2 0x2886 JUMP JUMPDEST PUSH1 0x40 MLOAD DUP1 SWAP2 SUB SWAP1 RETURN JUMPDEST PUSH2 0x33B PUSH1 0x4 DUP1 CALLDATASIZE SUB DUP2 ADD SWAP1 PUSH2 0x336 SWAP2 SWAP1 PUSH2 0x257E JUMP JUMPDEST PUSH2 0x1211 JUMP JUMPDEST PUSH1 0x40 MLOAD PUSH2 0x348 SWAP2 SWAP1 PUSH2 0x2090 JUMP JUMPDEST PUSH1 0x40 MLOAD DUP1 SWAP2 SUB SWAP1 RETURN JUMPDEST PUSH2 0x359 PUSH2 0x1275 JUMP JUMPDEST PUSH1 0x40 MLOAD PUSH2 0x366 SWAP2 SWAP1 PUSH2 0x28FA JUMP JUMPDEST PUSH1 0x40 MLOAD DUP1 SWAP2 SUB SWAP1 RETURN JUMPDEST PUSH2 0x377 PUSH2 0x1299 JUMP JUMPDEST PUSH1 0x40 MLOAD PUSH2 0x384 SWAP2 SWAP1 PUSH2 0x2498 JUMP JUMPDEST PUSH1 0x40 MLOAD DUP1 SWAP2 SUB SWAP1 RETURN JUMPDEST PUSH2 0x3A7 PUSH1 0x4 DUP1 CALLDATASIZE SUB DUP2 ADD SWAP1 PUSH2 0x3A2 SWAP2 SWAP1 PUSH2 0x2913 JUMP JUMPDEST PUSH2 0x129F JUMP JUMPDEST STOP JUMPDEST PUSH2 0x3C3 PUSH1 0x4 DUP1 CALLDATASIZE SUB DUP2 ADD SWAP1 PUSH2 0x3BE SWAP2 SWAP1 PUSH2 0x2963 JUMP JUMPDEST PUSH2 0x1542 JUMP JUMPDEST STOP JUMPDEST PUSH2 0x3CD PUSH2 0x18F4 JUMP JUMPDEST PUSH1 0x40 MLOAD PUSH2 0x3DA SWAP2 SWAP1 PUSH2 0x25FA JUMP JUMPDEST PUSH1 0x40 MLOAD DUP1 SWAP2 SUB SWAP1 RETURN JUMPDEST PUSH2 0x3FD PUSH1 0x4 DUP1 CALLDATASIZE SUB DUP2 ADD SWAP1 PUSH2 0x3F8 SWAP2 SWAP1 PUSH2 0x257E JUMP JUMPDEST PUSH2 0x18FA JUMP JUMPDEST STOP JUMPDEST PUSH2 0x419 PUSH1 0x4 DUP1 CALLDATASIZE SUB DUP2 ADD SWAP1 PUSH2 0x414 SWAP2 SWAP1 PUSH2 0x29D4 JUMP JUMPDEST PUSH2 0x191C JUMP JUMPDEST STOP JUMPDEST PUSH2 0x435 PUSH1 0x4 DUP1 CALLDATASIZE SUB DUP2 ADD SWAP1 PUSH2 0x430 SWAP2 SWAP1 PUSH2 0x2A12 JUMP JUMPDEST PUSH2 0x1B55 JUMP JUMPDEST STOP JUMPDEST PUSH0 PUSH32 0x7965DB0B00000000000000000000000000000000000000000000000000000000 PUSH28 0xFFFFFFFFFFFFFFFFFFFFFFFFFFFFFFFFFFFFFFFFFFFFFFFFFFFFFFFF NOT AND DUP3 PUSH28 0xFFFFFFFFFFFFFFFFFFFFFFFFFFFFFFFFFFFFFFFFFFFFFFFFFFFFFFFF NOT AND EQ DUP1 PUSH2 0x4A9 JUMPI POP PUSH2 0x4A8 DUP3 PUSH2 0x1BD9 JUMP JUMPDEST JUMPDEST SWAP1 POP SWAP2 SWAP1 POP JUMP JUMPDEST PUSH1 0x3 PUSH1 0x20 MSTORE DUP1 PUSH0 MSTORE PUSH1 0x40 PUSH0 KECCAK256 PUSH0 SWAP2 POP SWAP1 POP DUP1 PUSH0 ADD SLOAD SWAP1 DUP1 PUSH1 0x1 ADD PUSH0 SWAP1 SLOAD SWAP1 PUSH2 0x100 EXP SWAP1 DIV PUSH20 0xFFFFFFFFFFFFFFFFFFFFFFFFFFFFFFFFFFFFFFFF AND SWAP1 DUP1 PUSH1 0x2 ADD PUSH0 SWAP1 SLOAD SWAP1 PUSH2 0x100 EXP SWAP1 DIV PUSH20 0xFFFFFFFFFFFFFFFFFFFFFFFFFFFFFFFFFFFFFFFF AND SWAP1 DUP1 PUSH1 0x4 ADD SLOAD SWAP1 DUP1 PUSH1 0x5 ADD PUSH0 SWAP1 SLOAD SWAP1 PUSH2 0x100 EXP SWAP1 DIV PUSH1 0xFF AND SWAP1 POP DUP6 JUMP JUMPDEST PUSH2 0x534 PUSH2 0x1C42 JUMP JUMPDEST PUSH0 PUSH20 0xFFFFFFFFFFFFFFFFFFFFFFFFFFFFFFFFFFFFFFFF AND DUP3 PUSH20 0xFFFFFFFFFFFFFFFFFFFFFFFFFFFFFFFFFFFFFFFF AND SUB PUSH2 0x599 JUMPI PUSH1 0x40 MLOAD PUSH32 0x3EFA09AF00000000000000000000000000000000000000000000000000000000 DUP2 MSTORE PUSH1 0x4 ADD PUSH1 0x40 MLOAD DUP1 SWAP2 SUB SWAP1 REVERT JUMPDEST PUSH0 DUP2 MLOAD SUB PUSH2 0x5D3 JUMPI PUSH1 0x40 MLOAD PUSH32 0x5DFECE3F00000000000000000000000000000000000000000000000000000000 DUP2 MSTORE PUSH1 0x4 ADD PUSH1 0x40 MLOAD DUP1 SWAP2 SUB SWAP1 REVERT JUMPDEST PUSH0 DUP2 MLOAD SWAP1 POP PUSH0 PUSH0 PUSH1 0x3 PUSH0 PUSH1 0x2 SLOAD DUP2 MSTORE PUSH1 0x20 ADD SWAP1 DUP2 MSTORE PUSH1 0x20 ADD PUSH0 KECCAK256 SWAP1 POP PUSH1 0x2 SLOAD DUP2 PUSH0 ADD DUP2 SWAP1 SSTORE POP CALLER DUP2 PUSH1 0x1 ADD PUSH0 PUSH2 0x100 EXP DUP2 SLOAD DUP2 PUSH20 0xFFFFFFFFFFFFFFFFFFFFFFFFFFFFFFFFFFFFFFFF MUL NOT AND SWAP1 DUP4 PUSH20 0xFFFFFFFFFFFFFFFFFFFFFFFFFFFFFFFFFFFFFFFF AND MUL OR SWAP1 SSTORE POP DUP5 DUP2 PUSH1 0x2 ADD PUSH0 PUSH2 0x100 EXP DUP2 SLOAD DUP2 PUSH20 0xFFFFFFFFFFFFFFFFFFFFFFFFFFFFFFFFFFFFFFFF MUL NOT AND SWAP1 DUP4 PUSH20 0xFFFFFFFFFFFFFFFFFFFFFFFFFFFFFFFFFFFFFFFF AND MUL OR SWAP1 SSTORE POP PUSH0 PUSH0 SWAP1 POP JUMPDEST DUP4 DUP2 LT ISZERO PUSH2 0x77E JUMPI PUSH0 PUSH2 0x6AE DUP7 DUP4 DUP2 MLOAD DUP2 LT PUSH2 0x6A1 JUMPI PUSH2 0x6A0 PUSH2 0x2A3D JUMP JUMPDEST JUMPDEST PUSH1 0x20 MUL PUSH1 0x20 ADD ADD MLOAD PUSH2 0x1CC9 JUMP JUMPDEST SWAP1 POP DUP3 PUSH1 0x3 ADD PUSH1 0x40 MLOAD DUP1 PUSH1 0x60 ADD PUSH1 0x40 MSTORE DUP1 DUP4 DUP2 MSTORE PUSH1 0x20 ADD PUSH0 ISZERO ISZERO DUP2 MSTORE PUSH1 0x20 ADD PUSH0 PUSH1 0x4 DUP2 GT ISZERO PUSH2 0x6E0 JUMPI PUSH2 0x6DF PUSH2 0x2155 JUMP JUMPDEST JUMPDEST DUP2 MSTORE POP SWAP1 DUP1 PUSH1 0x1 DUP2 SLOAD ADD DUP1 DUP3 SSTORE DUP1 SWAP2 POP POP PUSH1 0x1 SWAP1 SUB SWAP1 PUSH0 MSTORE PUSH1 0x20 PUSH0 KECCAK256 SWAP1 PUSH1 0x2 MUL ADD PUSH0 SWAP1 SWAP2 SWAP1 SWAP2 SWAP1 SWAP2 POP PUSH0 DUP3 ADD MLOAD DUP2 PUSH0 ADD SSTORE PUSH1 0x20 DUP3 ADD MLOAD DUP2 PUSH1 0x1 ADD PUSH0 PUSH2 0x100 EXP DUP2 SLOAD DUP2 PUSH1 0xFF MUL NOT AND SWAP1 DUP4 ISZERO ISZERO MUL OR SWAP1 SSTORE POP PUSH1 0x40 DUP3 ADD MLOAD DUP2 PUSH1 0x1 ADD PUSH1 0x1 PUSH2 0x100 EXP DUP2 SLOAD DUP2 PUSH1 0xFF MUL NOT AND SWAP1 DUP4 PUSH1 0x4 DUP2 GT ISZERO PUSH2 0x75B JUMPI PUSH2 0x75A PUSH2 0x2155 JUMP JUMPDEST JUMPDEST MUL OR SWAP1 SSTORE POP POP POP DUP1 DUP5 PUSH2 0x76E SWAP2 SWAP1 PUSH2 0x2A97 JUMP JUMPDEST SWAP4 POP DUP2 DUP1 PUSH1 0x1 ADD SWAP3 POP POP POP PUSH2 0x682 JUMP JUMPDEST POP DUP2 DUP2 PUSH1 0x4 ADD DUP2 SWAP1 SSTORE POP PUSH0 DUP2 PUSH1 0x5 ADD PUSH0 PUSH2 0x100 EXP DUP2 SLOAD DUP2 PUSH1 0xFF MUL NOT AND SWAP1 DUP4 PUSH1 0x3 DUP2 GT ISZERO PUSH2 0x7AE JUMPI PUSH2 0x7AD PUSH2 0x2155 JUMP JUMPDEST JUMPDEST MUL OR SWAP1 SSTORE POP PUSH32 0x0 PUSH20 0xFFFFFFFFFFFFFFFFFFFFFFFFFFFFFFFFFFFFFFFF AND PUSH4 0x23B872DD CALLER ADDRESS DUP6 PUSH1 0x40 MLOAD DUP5 PUSH4 0xFFFFFFFF AND PUSH1 0xE0 SHL DUP2 MSTORE PUSH1 0x4 ADD PUSH2 0x810 SWAP4 SWAP3 SWAP2 SWAP1 PUSH2 0x2ACA JUMP JUMPDEST PUSH1 0x20 PUSH1 0x40 MLOAD DUP1 DUP4 SUB DUP2 PUSH0 DUP8 GAS CALL ISZERO DUP1 ISZERO PUSH2 0x82C JUMPI RETURNDATASIZE PUSH0 PUSH0 RETURNDATACOPY RETURNDATASIZE PUSH0 REVERT JUMPDEST POP POP POP POP PUSH1 0x40 MLOAD RETURNDATASIZE PUSH1 0x1F NOT PUSH1 0x1F DUP3 ADD AND DUP3 ADD DUP1 PUSH1 0x40 MSTORE POP DUP2 ADD SWAP1 PUSH2 0x850 SWAP2 SWAP1 PUSH2 0x2B13 JUMP JUMPDEST PUSH2 0x88F JUMPI PUSH1 0x40 MLOAD PUSH32 0x8C379A000000000000000000000000000000000000000000000000000000000 DUP2 MSTORE PUSH1 0x4 ADD PUSH2 0x886 SWAP1 PUSH2 0x2B88 JUMP JUMPDEST PUSH1 0x40 MLOAD DUP1 SWAP2 SUB SWAP1 REVERT JUMPDEST PUSH1 0x4 PUSH0 DUP7 PUSH20 0xFFFFFFFFFFFFFFFFFFFFFFFFFFFFFFFFFFFFFFFF AND PUSH20 0xFFFFFFFFFFFFFFFFFFFFFFFFFFFFFFFFFFFFFFFF AND DUP2 MSTORE PUSH1 0x20 ADD SWAP1 DUP2 MSTORE PUSH1 0x20 ADD PUSH0 KECCAK256 PUSH1 0x2 SLOAD SWAP1 DUP1 PUSH1 0x1 DUP2 SLOAD ADD DUP1 DUP3 SSTORE DUP1 SWAP2 POP POP PUSH1 0x1 SWAP1 SUB SWAP1 PUSH0 MSTORE PUSH1 0x20 PUSH0 KECCAK256 ADD PUSH0 SWAP1 SWAP2 SWAP1 SWAP2 SWAP1 SWAP2 POP SSTORE PUSH1 0x2 PUSH0 DUP2 SLOAD DUP1 SWAP3 SWAP2 SWAP1 PUSH2 0x904 SWAP1 PUSH2 0x2BA6 JUMP JUMPDEST SWAP2 SWAP1 POP SSTORE POP POP POP POP POP POP JUMP JUMPDEST PUSH2 0x918 PUSH2 0x1C42 JUMP JUMPDEST PUSH0 PUSH1 0x3 PUSH0 DUP5 DUP2 MSTORE PUSH1 0x20 ADD SWAP1 DUP2 MSTORE PUSH1 0x20 ADD PUSH0 KECCAK256 SWAP1 POP DUP1 PUSH1 0x3 ADD DUP1 SLOAD SWAP1 POP DUP3 GT ISZERO PUSH2 0x96D JUMPI PUSH1 0x40 MLOAD PUSH32 0x63DF817100000000000000000000000000000000000000000000000000000000 DUP2 MSTORE PUSH1 0x4 ADD PUSH1 0x40 MLOAD DUP1 SWAP2 SUB SWAP1 REVERT JUMPDEST PUSH0 DUP2 PUSH1 0x3 ADD DUP4 DUP2 SLOAD DUP2 LT PUSH2 0x984 JUMPI PUSH2 0x983 PUSH2 0x2A3D JUMP JUMPDEST JUMPDEST SWAP1 PUSH0 MSTORE PUSH1 0x20 PUSH0 KECCAK256 SWAP1 PUSH1 0x2 MUL ADD SWAP1 POP PUSH1 0x1 PUSH1 0x4 DUP2 GT ISZERO PUSH2 0x9A6 JUMPI PUSH2 0x9A5 PUSH2 0x2155 JUMP JUMPDEST JUMPDEST DUP2 PUSH1 0x1 ADD PUSH1 0x1 SWAP1 SLOAD SWAP1 PUSH2 0x100 EXP SWAP1 DIV PUSH1 0xFF AND PUSH1 0x4 DUP2 GT ISZERO PUSH2 0x9CA JUMPI PUSH2 0x9C9 PUSH2 0x2155 JUMP JUMPDEST JUMPDEST EQ PUSH2 0xA01 JUMPI PUSH1 0x40 MLOAD PUSH32 0x50DA79DD00000000000000000000000000000000000000000000000000000000 DUP2 MSTORE PUSH1 0x4 ADD PUSH1 0x40 MLOAD DUP1 SWAP2 SUB SWAP1 REVERT JUMPDEST PUSH1 0x2 DUP2 PUSH1 0x1 ADD PUSH1 0x1 PUSH2 0x100 EXP DUP2 SLOAD DUP2 PUSH1 0xFF MUL NOT AND SWAP1 DUP4 PUSH1 0x4 DUP2 GT ISZERO PUSH2 0xA29 JUMPI PUSH2 0xA28 PUSH2 0x2155 JUMP JUMPDEST JUMPDEST MUL OR SWAP1 SSTORE POP PUSH32 0x0 PUSH20 0xFFFFFFFFFFFFFFFFFFFFFFFFFFFFFFFFFFFFFFFF AND PUSH4 0xA9059CBB DUP4 PUSH1 0x2 ADD PUSH0 SWAP1 SLOAD SWAP1 PUSH2 0x100 EXP SWAP1 DIV PUSH20 0xFFFFFFFFFFFFFFFFFFFFFFFFFFFFFFFFFFFFFFFF AND DUP4 PUSH0 ADD SLOAD PUSH1 0x40 MLOAD DUP4 PUSH4 0xFFFFFFFF AND PUSH1 0xE0 SHL DUP2 MSTORE PUSH1 0x4 ADD PUSH2 0xAAF SWAP3 SWAP2 SWAP1 PUSH2 0x2BED JUMP JUMPDEST PUSH1 0x20 PUSH1 0x40 MLOAD DUP1 DUP4 SUB DUP2 PUSH0 DUP8 GAS CALL ISZERO DUP1 ISZERO PUSH2 0xACB JUMPI RETURNDATASIZE PUSH0 PUSH0 RETURNDATACOPY RETURNDATASIZE PUSH0 REVERT JUMPDEST POP POP POP POP PUSH1 0x40 MLOAD RETURNDATASIZE PUSH1 0x1F NOT PUSH1 0x1F DUP3 ADD AND DUP3 ADD DUP1 PUSH1 0x40 MSTORE POP DUP2 ADD SWAP1 PUSH2 0xAEF SWAP2 SWAP1 PUSH2 0x2B13 JUMP JUMPDEST POP PUSH1 0x1 DUP2 PUSH1 0x1 ADD PUSH0 PUSH2 0x100 EXP DUP2 SLOAD DUP2 PUSH1 0xFF MUL NOT AND SWAP1 DUP4 ISZERO ISZERO MUL OR SWAP1 SSTORE POP POP POP POP POP JUMP JUMPDEST PUSH0 PUSH1 0x1 PUSH0 DUP4 DUP2 MSTORE PUSH1 0x20 ADD SWAP1 DUP2 MSTORE PUSH1 0x20 ADD PUSH0 KECCAK256 PUSH1 0x1 ADD SLOAD SWAP1 POP SWAP2 SWAP1 POP JUMP JUMPDEST PUSH1 0x5 PUSH1 0x20 MSTORE DUP2 PUSH0 MSTORE PUSH1 0x40 PUSH0 KECCAK256 PUSH1 0x20 MSTORE DUP1 PUSH0 MSTORE PUSH1 0x40 PUSH0 KECCAK256 PUSH0 SWAP2 POP SWAP2 POP POP DUP1 PUSH0 ADD SLOAD SWAP1 DUP1 PUSH1 0x1 ADD PUSH0 SWAP1 SLOAD SWAP1 PUSH2 0x100 EXP SWAP1 DIV PUSH20 0xFFFFFFFFFFFFFFFFFFFFFFFFFFFFFFFFFFFFFFFF AND SWAP1 DUP1 PUSH1 0x2 ADD DUP1 SLOAD PUSH2 0xB84 SWAP1 PUSH2 0x2C41 JUMP JUMPDEST DUP1 PUSH1 0x1F ADD PUSH1 0x20 DUP1 SWAP2 DIV MUL PUSH1 0x20 ADD PUSH1 0x40 MLOAD SWAP1 DUP2 ADD PUSH1 0x40 MSTORE DUP1 SWAP3 SWAP2 SWAP1 DUP2 DUP2 MSTORE PUSH1 0x20 ADD DUP3 DUP1 SLOAD PUSH2 0xBB0 SWAP1 PUSH2 0x2C41 JUMP JUMPDEST DUP1 ISZERO PUSH2 0xBFB JUMPI DUP1 PUSH1 0x1F LT PUSH2 0xBD2 JUMPI PUSH2 0x100 DUP1 DUP4 SLOAD DIV MUL DUP4 MSTORE SWAP2 PUSH1 0x20 ADD SWAP2 PUSH2 0xBFB JUMP JUMPDEST DUP3 ADD SWAP2 SWAP1 PUSH0 MSTORE PUSH1 0x20 PUSH0 KECCAK256 SWAP1 JUMPDEST DUP2 SLOAD DUP2 MSTORE SWAP1 PUSH1 0x1 ADD SWAP1 PUSH1 0x20 ADD DUP1 DUP4 GT PUSH2 0xBDE JUMPI DUP3 SWAP1 SUB PUSH1 0x1F AND DUP3 ADD SWAP2 JUMPDEST POP POP POP POP POP SWAP1 DUP1 PUSH1 0x3 ADD PUSH0 SWAP1 SLOAD SWAP1 PUSH2 0x100 EXP SWAP1 DIV PUSH20 0xFFFFFFFFFFFFFFFFFFFFFFFFFFFFFFFFFFFFFFFF AND SWAP1 DUP1 PUSH1 0x3 ADD PUSH1 0x14 SWAP1 SLOAD SWAP1 PUSH2 0x100 EXP SWAP1 DIV PUSH1 0xFF AND SWAP1 DUP1 PUSH1 0x4 ADD DUP1 SLOAD PUSH2 0xC48 SWAP1 PUSH2 0x2C41 JUMP JUMPDEST DUP1 PUSH1 0x1F ADD PUSH1 0x20 DUP1 SWAP2 DIV MUL PUSH1 0x20 ADD PUSH1 0x40 MLOAD SWAP1 DUP2 ADD PUSH1 0x40 MSTORE DUP1 SWAP3 SWAP2 SWAP1 DUP2 DUP2 MSTORE PUSH1 0x20 ADD DUP3 DUP1 SLOAD PUSH2 0xC74 SWAP1 PUSH2 0x2C41 JUMP JUMPDEST DUP1 ISZERO PUSH2 0xCBF JUMPI DUP1 PUSH1 0x1F LT PUSH2 0xC96 JUMPI PUSH2 0x100 DUP1 DUP4 SLOAD DIV MUL DUP4 MSTORE SWAP2 PUSH1 0x20 ADD SWAP2 PUSH2 0xCBF JUMP JUMPDEST DUP3 ADD SWAP2 SWAP1 PUSH0 MSTORE PUSH1 0x20 PUSH0 KECCAK256 SWAP1 JUMPDEST DUP2 SLOAD DUP2 MSTORE SWAP1 PUSH1 0x1 ADD SWAP1 PUSH1 0x20 ADD DUP1 DUP4 GT PUSH2 0xCA2 JUMPI DUP3 SWAP1 SUB PUSH1 0x1F AND DUP3 ADD SWAP2 JUMPDEST POP POP POP POP POP SWAP1 POP DUP7 JUMP JUMPDEST PUSH2 0xCD2 DUP3 PUSH2 0xB12 JUMP JUMPDEST PUSH2 0xCDB DUP2 PUSH2 0x1CE5 JUMP JUMPDEST PUSH2 0xCE5 DUP4 DUP4 PUSH2 0x1CF9 JUMP JUMPDEST POP POP POP POP JUMP JUMPDEST PUSH2 0xCF3 PUSH2 0x1DE2 JUMP JUMPDEST PUSH20 0xFFFFFFFFFFFFFFFFFFFFFFFFFFFFFFFFFFFFFFFF AND DUP2 PUSH20 0xFFFFFFFFFFFFFFFFFFFFFFFFFFFFFFFFFFFFFFFF AND EQ PUSH2 0xD57 JUMPI PUSH1 0x40 MLOAD PUSH32 0x6697B23200000000000000000000000000000000000000000000000000000000 DUP2 MSTORE PUSH1 0x4 ADD PUSH1 0x40 MLOAD DUP1 SWAP2 SUB SWAP1 REVERT JUMPDEST PUSH2 0xD61 DUP3 DUP3 PUSH2 0x1DE9 JUMP JUMPDEST POP POP POP JUMP JUMPDEST PUSH1 0x4 PUSH1 0x20 MSTORE DUP2 PUSH0 MSTORE PUSH1 0x40 PUSH0 KECCAK256 DUP2 DUP2 SLOAD DUP2 LT PUSH2 0xD7F JUMPI PUSH0 DUP1 REVERT JUMPDEST SWAP1 PUSH0 MSTORE PUSH1 0x20 PUSH0 KECCAK256 ADD PUSH0 SWAP2 POP SWAP2 POP POP SLOAD DUP2 JUMP JUMPDEST PUSH1 0x60 PUSH1 0x3 PUSH0 DUP4 DUP2 MSTORE PUSH1 0x20 ADD SWAP1 DUP2 MSTORE PUSH1 0x20 ADD PUSH0 KECCAK256 PUSH1 0x3 ADD DUP1 SLOAD DUP1 PUSH1 0x20 MUL PUSH1 0x20 ADD PUSH1 0x40 MLOAD SWAP1 DUP2 ADD PUSH1 0x40 MSTORE DUP1 SWAP3 SWAP2 SWAP1 DUP2 DUP2 MSTORE PUSH1 0x20 ADD PUSH0 SWAP1 JUMPDEST DUP3 DUP3 LT ISZERO PUSH2 0xE54 JUMPI DUP4 DUP3 SWAP1 PUSH0 MSTORE PUSH1 0x20 PUSH0 KECCAK256 SWAP1 PUSH1 0x2 MUL ADD PUSH1 0x40 MLOAD DUP1 PUSH1 0x60 ADD PUSH1 0x40 MSTORE SWAP1 DUP2 PUSH0 DUP3 ADD SLOAD DUP2 MSTORE PUSH1 0x20 ADD PUSH1 0x1 DUP3 ADD PUSH0 SWAP1 SLOAD SWAP1 PUSH2 0x100 EXP SWAP1 DIV PUSH1 0xFF AND ISZERO ISZERO ISZERO ISZERO DUP2 MSTORE PUSH1 0x20 ADD PUSH1 0x1 DUP3 ADD PUSH1 0x1 SWAP1 SLOAD SWAP1 PUSH2 0x100 EXP SWAP1 DIV PUSH1 0xFF AND PUSH1 0x4 DUP2 GT ISZERO PUSH2 0xE2F JUMPI PUSH2 0xE2E PUSH2 0x2155 JUMP JUMPDEST JUMPDEST PUSH1 0x4 DUP2 GT ISZERO PUSH2 0xE41 JUMPI PUSH2 0xE40 PUSH2 0x2155 JUMP JUMPDEST JUMPDEST DUP2 MSTORE POP POP DUP2 MSTORE PUSH1 0x20 ADD SWAP1 PUSH1 0x1 ADD SWAP1 PUSH2 0xDC6 JUMP JUMPDEST POP POP POP POP SWAP1 POP SWAP2 SWAP1 POP JUMP JUMPDEST PUSH2 0xE67 PUSH2 0x1C42 JUMP JUMPDEST PUSH2 0xE70 PUSH0 PUSH2 0x1ED3 JUMP JUMPDEST JUMP JUMPDEST PUSH32 0x17A55417373800620B4C2CEAA9F76C02DF2E2DD329B9CB9A7CF849712C108F6F PUSH2 0xE9C DUP2 PUSH2 0x1CE5 JUMP JUMPDEST PUSH0 PUSH1 0x3 PUSH0 DUP9 DUP2 MSTORE PUSH1 0x20 ADD SWAP1 DUP2 MSTORE PUSH1 0x20 ADD PUSH0 KECCAK256 PUSH1 0x3 ADD DUP7 DUP2 SLOAD DUP2 LT PUSH2 0xEC3 JUMPI PUSH2 0xEC2 PUSH2 0x2A3D JUMP JUMPDEST JUMPDEST SWAP1 PUSH0 MSTORE PUSH1 0x20 PUSH0 KECCAK256 SWAP1 PUSH1 0x2 MUL ADD SWAP1 POP PUSH0 PUSH1 0x5 PUSH0 DUP10 DUP2 MSTORE PUSH1 0x20 ADD SWAP1 DUP2 MSTORE PUSH1 0x20 ADD PUSH0 KECCAK256 PUSH0 DUP9 DUP2 MSTORE PUSH1 0x20 ADD SWAP1 DUP2 MSTORE PUSH1 0x20 ADD PUSH0 KECCAK256 SWAP1 POP PUSH1 0x3 PUSH1 0x4 DUP2 GT ISZERO PUSH2 0xF08 JUMPI PUSH2 0xF07 PUSH2 0x2155 JUMP JUMPDEST JUMPDEST DUP3 PUSH1 0x1 ADD PUSH1 0x1 SWAP1 SLOAD SWAP1 PUSH2 0x100 EXP SWAP1 DIV PUSH1 0xFF AND PUSH1 0x4 DUP2 GT ISZERO PUSH2 0xF2C JUMPI PUSH2 0xF2B PUSH2 0x2155 JUMP JUMPDEST JUMPDEST EQ PUSH2 0xF63 JUMPI PUSH1 0x40 MLOAD PUSH32 0x261BC65A00000000000000000000000000000000000000000000000000000000 DUP2 MSTORE PUSH1 0x4 ADD PUSH1 0x40 MLOAD DUP1 SWAP2 SUB SWAP1 REVERT JUMPDEST PUSH1 0x1 DUP2 PUSH1 0x3 ADD PUSH1 0x14 PUSH2 0x100 EXP DUP2 SLOAD DUP2 PUSH1 0xFF MUL NOT AND SWAP1 DUP4 ISZERO ISZERO MUL OR SWAP1 SSTORE POP CALLER DUP2 PUSH1 0x3 ADD PUSH0 PUSH2 0x100 EXP DUP2 SLOAD DUP2 PUSH20 0xFFFFFFFFFFFFFFFFFFFFFFFFFFFFFFFFFFFFFFFF MUL NOT AND SWAP1 DUP4 PUSH20 0xFFFFFFFFFFFFFFFFFFFFFFFFFFFFFFFFFFFFFFFF AND MUL OR SWAP1 SSTORE POP DUP5 DUP5 DUP3 PUSH1 0x4 ADD SWAP2 DUP3 PUSH2 0xFD5 SWAP3 SWAP2 SWAP1 PUSH2 0x2E12 JUMP JUMPDEST POP DUP6 ISZERO PUSH2 0x10E0 JUMPI PUSH1 0x2 DUP3 PUSH1 0x1 ADD PUSH1 0x1 PUSH2 0x100 EXP DUP2 SLOAD DUP2 PUSH1 0xFF MUL NOT AND SWAP1 DUP4 PUSH1 0x4 DUP2 GT ISZERO PUSH2 0x1004 JUMPI PUSH2 0x1003 PUSH2 0x2155 JUMP JUMPDEST JUMPDEST MUL OR SWAP1 SSTORE POP PUSH32 0x0 PUSH20 0xFFFFFFFFFFFFFFFFFFFFFFFFFFFFFFFFFFFFFFFF AND PUSH4 0xA9059CBB PUSH1 0x3 PUSH0 DUP12 DUP2 MSTORE PUSH1 0x20 ADD SWAP1 DUP2 MSTORE PUSH1 0x20 ADD PUSH0 KECCAK256 PUSH1 0x2 ADD PUSH0 SWAP1 SLOAD SWAP1 PUSH2 0x100 EXP SWAP1 DIV PUSH20 0xFFFFFFFFFFFFFFFFFFFFFFFFFFFFFFFFFFFFFFFF AND DUP5 PUSH0 ADD SLOAD PUSH1 0x40 MLOAD DUP4 PUSH4 0xFFFFFFFF AND PUSH1 0xE0 SHL DUP2 MSTORE PUSH1 0x4 ADD PUSH2 0x109A SWAP3 SWAP2 SWAP1 PUSH2 0x2BED JUMP JUMPDEST PUSH1 0x20 PUSH1 0x40 MLOAD DUP1 DUP4 SUB DUP2 PUSH0 DUP8 GAS CALL ISZERO DUP1 ISZERO PUSH2 0x10B6 JUMPI RETURNDATASIZE PUSH0 PUSH0 RETURNDATACOPY RETURNDATASIZE PUSH0 REVERT JUMPDEST POP POP POP POP PUSH1 0x40 MLOAD RETURNDATASIZE PUSH1 0x1F NOT PUSH1 0x1F DUP3 ADD AND DUP3 ADD DUP1 PUSH1 0x40 MSTORE POP DUP2 ADD SWAP1 PUSH2 0x10DA SWAP2 SWAP1 PUSH2 0x2B13 JUMP JUMPDEST POP PUSH2 0x11E0 JUMP JUMPDEST PUSH1 0x4 DUP3 PUSH1 0x1 ADD PUSH1 0x1 PUSH2 0x100 EXP DUP2 SLOAD DUP2 PUSH1 0xFF MUL NOT AND SWAP1 DUP4 PUSH1 0x4 DUP2 GT ISZERO PUSH2 0x1108 JUMPI PUSH2 0x1107 PUSH2 0x2155 JUMP JUMPDEST JUMPDEST MUL OR SWAP1 SSTORE POP PUSH32 0x0 PUSH20 0xFFFFFFFFFFFFFFFFFFFFFFFFFFFFFFFFFFFFFFFF AND PUSH4 0xA9059CBB PUSH1 0x3 PUSH0 DUP12 DUP2 MSTORE PUSH1 0x20 ADD SWAP1 DUP2 MSTORE PUSH1 0x20 ADD PUSH0 KECCAK256 PUSH1 0x1 ADD PUSH0 SWAP1 SLOAD SWAP1 PUSH2 0x100 EXP SWAP1 DIV PUSH20 0xFFFFFFFFFFFFFFFFFFFFFFFFFFFFFFFFFFFFFFFF AND DUP5 PUSH0 ADD SLOAD PUSH1 0x40 MLOAD DUP4 PUSH4 0xFFFFFFFF AND PUSH1 0xE0 SHL DUP2 MSTORE PUSH1 0x4 ADD PUSH2 0x119E SWAP3 SWAP2 SWAP1 PUSH2 0x2BED JUMP JUMPDEST PUSH1 0x20 PUSH1 0x40 MLOAD DUP1 DUP4 SUB DUP2 PUSH0 DUP8 GAS CALL ISZERO DUP1 ISZERO PUSH2 0x11BA JUMPI RETURNDATASIZE PUSH0 PUSH0 RETURNDATACOPY RETURNDATASIZE PUSH0 REVERT JUMPDEST POP POP POP POP PUSH1 0x40 MLOAD RETURNDATASIZE PUSH1 0x1F NOT PUSH1 0x1F DUP3 ADD AND DUP3 ADD DUP1 PUSH1 0x40 MSTORE POP DUP2 ADD SWAP1 PUSH2 0x11DE SWAP2 SWAP1 PUSH2 0x2B13 JUMP JUMPDEST POP JUMPDEST POP POP POP POP POP POP POP POP JUMP JUMPDEST PUSH0 PUSH0 PUSH0 SWAP1 SLOAD SWAP1 PUSH2 0x100 EXP SWAP1 DIV PUSH20 0xFFFFFFFFFFFFFFFFFFFFFFFFFFFFFFFFFFFFFFFF AND SWAP1 POP SWAP1 JUMP JUMPDEST PUSH0 PUSH1 0x1 PUSH0 DUP5 DUP2 MSTORE PUSH1 0x20 ADD SWAP1 DUP2 MSTORE PUSH1 0x20 ADD PUSH0 KECCAK256 PUSH0 ADD PUSH0 DUP4 PUSH20 0xFFFFFFFFFFFFFFFFFFFFFFFFFFFFFFFFFFFFFFFF AND PUSH20 0xFFFFFFFFFFFFFFFFFFFFFFFFFFFFFFFFFFFFFFFF AND DUP2 MSTORE PUSH1 0x20 ADD SWAP1 DUP2 MSTORE PUSH1 0x20 ADD PUSH0 KECCAK256 PUSH0 SWAP1 SLOAD SWAP1 PUSH2 0x100 EXP SWAP1 DIV PUSH1 0xFF AND SWAP1 POP SWAP3 SWAP2 POP POP JUMP JUMPDEST PUSH32 0x0 DUP2 JUMP JUMPDEST PUSH0 PUSH0 SHL DUP2 JUMP JUMPDEST DUP3 PUSH1 0x3 PUSH0 DUP3 DUP2 MSTORE PUSH1 0x20 ADD SWAP1 DUP2 MSTORE PUSH1 0x20 ADD PUSH0 KECCAK256 PUSH1 0x2 ADD PUSH0 SWAP1 SLOAD SWAP1 PUSH2 0x100 EXP SWAP1 DIV PUSH20 0xFFFFFFFFFFFFFFFFFFFFFFFFFFFFFFFFFFFFFFFF AND PUSH20 0xFFFFFFFFFFFFFFFFFFFFFFFFFFFFFFFFFFFFFFFF AND CALLER PUSH20 0xFFFFFFFFFFFFFFFFFFFFFFFFFFFFFFFFFFFFFFFF AND EQ PUSH2 0x1338 JUMPI PUSH1 0x40 MLOAD PUSH32 0x706470D200000000000000000000000000000000000000000000000000000000 DUP2 MSTORE PUSH1 0x4 ADD PUSH1 0x40 MLOAD DUP1 SWAP2 SUB SWAP1 REVERT JUMPDEST PUSH0 PUSH1 0x3 PUSH0 DUP7 DUP2 MSTORE PUSH1 0x20 ADD SWAP1 DUP2 MSTORE PUSH1 0x20 ADD PUSH0 KECCAK256 SWAP1 POP PUSH0 PUSH20 0xFFFFFFFFFFFFFFFFFFFFFFFFFFFFFFFFFFFFFFFF AND DUP4 PUSH20 0xFFFFFFFFFFFFFFFFFFFFFFFFFFFFFFFFFFFFFFFF AND SUB PUSH2 0x13B1 JUMPI PUSH1 0x40 MLOAD PUSH32 0x3EFA09AF00000000000000000000000000000000000000000000000000000000 DUP2 MSTORE PUSH1 0x4 ADD PUSH1 0x40 MLOAD DUP1 SWAP2 SUB SWAP1 REVERT JUMPDEST DUP3 PUSH20 0xFFFFFFFFFFFFFFFFFFFFFFFFFFFFFFFFFFFFFFFF AND DUP2 PUSH1 0x2 ADD PUSH0 SWAP1 SLOAD SWAP1 PUSH2 0x100 EXP SWAP1 DIV PUSH20 0xFFFFFFFFFFFFFFFFFFFFFFFFFFFFFFFFFFFFFFFF AND PUSH20 0xFFFFFFFFFFFFFFFFFFFFFFFFFFFFFFFFFFFFFFFF AND EQ PUSH2 0x1439 JUMPI PUSH1 0x40 MLOAD PUSH32 0x75AEE32600000000000000000000000000000000000000000000000000000000 DUP2 MSTORE PUSH1 0x4 ADD PUSH1 0x40 MLOAD DUP1 SWAP2 SUB SWAP1 REVERT JUMPDEST DUP1 PUSH1 0x3 ADD DUP1 SLOAD SWAP1 POP DUP5 GT ISZERO PUSH2 0x147A JUMPI PUSH1 0x40 MLOAD PUSH32 0x63DF817100000000000000000000000000000000000000000000000000000000 DUP2 MSTORE PUSH1 0x4 ADD PUSH1 0x40 MLOAD DUP1 SWAP2 SUB SWAP1 REVERT JUMPDEST PUSH0 DUP2 PUSH1 0x3 ADD DUP6 DUP2 SLOAD DUP2 LT PUSH2 0x1491 JUMPI PUSH2 0x1490 PUSH2 0x2A3D JUMP JUMPDEST JUMPDEST SWAP1 PUSH0 MSTORE PUSH1 0x20 PUSH0 KECCAK256 SWAP1 PUSH1 0x2 MUL ADD SWAP1 POP PUSH0 PUSH1 0x4 DUP2 GT ISZERO PUSH2 0x14B2 JUMPI PUSH2 0x14B1 PUSH2 0x2155 JUMP JUMPDEST JUMPDEST DUP2 PUSH1 0x1 ADD PUSH1 0x1 SWAP1 SLOAD SWAP1 PUSH2 0x100 EXP SWAP1 DIV PUSH1 0xFF AND PUSH1 0x4 DUP2 GT ISZERO PUSH2 0x14D6 JUMPI PUSH2 0x14D5 PUSH2 0x2155 JUMP JUMPDEST JUMPDEST EQ PUSH2 0x150D JUMPI PUSH1 0x40 MLOAD PUSH32 0x50DA79DD00000000000000000000000000000000000000000000000000000000 DUP2 MSTORE PUSH1 0x4 ADD PUSH1 0x40 MLOAD DUP1 SWAP2 SUB SWAP1 REVERT JUMPDEST PUSH1 0x1 DUP2 PUSH1 0x1 ADD PUSH1 0x1 PUSH2 0x100 EXP DUP2 SLOAD DUP2 PUSH1 0xFF MUL NOT AND SWAP1 DUP4 PUSH1 0x4 DUP2 GT ISZERO PUSH2 0x1535 JUMPI PUSH2 0x1534 PUSH2 0x2155 JUMP JUMPDEST JUMPDEST MUL OR SWAP1 SSTORE POP POP POP POP POP POP POP JUMP JUMPDEST PUSH0 PUSH1 0x3 PUSH0 DUP7 DUP2 MSTORE PUSH1 0x20 ADD SWAP1 DUP2 MSTORE PUSH1 0x20 ADD PUSH0 KECCAK256 SWAP1 POP DUP1 PUSH1 0x3 ADD DUP1 SLOAD SWAP1 POP DUP5 GT ISZERO PUSH2 0x1597 JUMPI PUSH1 0x40 MLOAD PUSH32 0x63DF817100000000000000000000000000000000000000000000000000000000 DUP2 MSTORE PUSH1 0x4 ADD PUSH1 0x40 MLOAD DUP1 SWAP2 SUB SWAP1 REVERT JUMPDEST PUSH0 DUP2 PUSH1 0x3 ADD DUP6 DUP2 SLOAD DUP2 LT PUSH2 0x15AE JUMPI PUSH2 0x15AD PUSH2 0x2A3D JUMP JUMPDEST JUMPDEST SWAP1 PUSH0 MSTORE PUSH1 0x20 PUSH0 KECCAK256 SWAP1 PUSH1 0x2 MUL ADD SWAP1 POP DUP2 PUSH1 0x1 ADD PUSH0 SWAP1 SLOAD SWAP1 PUSH2 0x100 EXP SWAP1 DIV PUSH20 0xFFFFFFFFFFFFFFFFFFFFFFFFFFFFFFFFFFFFFFFF AND PUSH20 0xFFFFFFFFFFFFFFFFFFFFFFFFFFFFFFFFFFFFFFFF AND CALLER PUSH20 0xFFFFFFFFFFFFFFFFFFFFFFFFFFFFFFFFFFFFFFFF AND EQ ISZERO DUP1 ISZERO PUSH2 0x166A JUMPI POP DUP2 PUSH1 0x2 ADD PUSH0 SWAP1 SLOAD SWAP1 PUSH2 0x100 EXP SWAP1 DIV PUSH20 0xFFFFFFFFFFFFFFFFFFFFFFFFFFFFFFFFFFFFFFFF AND PUSH20 0xFFFFFFFFFFFFFFFFFFFFFFFFFFFFFFFFFFFFFFFF AND CALLER PUSH20 0xFFFFFFFFFFFFFFFFFFFFFFFFFFFFFFFFFFFFFFFF AND EQ ISZERO JUMPDEST ISZERO PUSH2 0x16A1 JUMPI PUSH1 0x40 MLOAD PUSH32 0xE438F8CE00000000000000000000000000000000000000000000000000000000 DUP2 MSTORE PUSH1 0x4 ADD PUSH1 0x40 MLOAD DUP1 SWAP2 SUB SWAP1 REVERT JUMPDEST PUSH1 0x1 PUSH1 0x4 DUP2 GT ISZERO PUSH2 0x16B5 JUMPI PUSH2 0x16B4 PUSH2 0x2155 JUMP JUMPDEST JUMPDEST DUP2 PUSH1 0x1 ADD PUSH1 0x1 SWAP1 SLOAD SWAP1 PUSH2 0x100 EXP SWAP1 DIV PUSH1 0xFF AND PUSH1 0x4 DUP2 GT ISZERO PUSH2 0x16D9 JUMPI PUSH2 0x16D8 PUSH2 0x2155 JUMP JUMPDEST JUMPDEST EQ PUSH2 0x1710 JUMPI PUSH1 0x40 MLOAD PUSH32 0xCCD90CC400000000000000000000000000000000000000000000000000000000 DUP2 MSTORE PUSH1 0x4 ADD PUSH1 0x40 MLOAD DUP1 SWAP2 SUB SWAP1 REVERT JUMPDEST PUSH1 0x3 DUP2 PUSH1 0x1 ADD PUSH1 0x1 PUSH2 0x100 EXP DUP2 SLOAD DUP2 PUSH1 0xFF MUL NOT AND SWAP1 DUP4 PUSH1 0x4 DUP2 GT ISZERO PUSH2 0x1738 JUMPI PUSH2 0x1737 PUSH2 0x2155 JUMP JUMPDEST JUMPDEST MUL OR SWAP1 SSTORE POP PUSH1 0x40 MLOAD DUP1 PUSH1 0xC0 ADD PUSH1 0x40 MSTORE DUP1 DUP7 DUP2 MSTORE PUSH1 0x20 ADD CALLER PUSH20 0xFFFFFFFFFFFFFFFFFFFFFFFFFFFFFFFFFFFFFFFF AND DUP2 MSTORE PUSH1 0x20 ADD DUP6 DUP6 DUP1 DUP1 PUSH1 0x1F ADD PUSH1 0x20 DUP1 SWAP2 DIV MUL PUSH1 0x20 ADD PUSH1 0x40 MLOAD SWAP1 DUP2 ADD PUSH1 0x40 MSTORE DUP1 SWAP4 SWAP3 SWAP2 SWAP1 DUP2 DUP2 MSTORE PUSH1 0x20 ADD DUP4 DUP4 DUP1 DUP3 DUP5 CALLDATACOPY PUSH0 DUP2 DUP5 ADD MSTORE PUSH1 0x1F NOT PUSH1 0x1F DUP3 ADD AND SWAP1 POP DUP1 DUP4 ADD SWAP3 POP POP POP POP POP POP POP DUP2 MSTORE PUSH1 0x20 ADD PUSH0 PUSH20 0xFFFFFFFFFFFFFFFFFFFFFFFFFFFFFFFFFFFFFFFF AND DUP2 MSTORE PUSH1 0x20 ADD PUSH0 ISZERO ISZERO DUP2 MSTORE PUSH1 0x20 ADD PUSH1 0x40 MLOAD DUP1 PUSH1 0x20 ADD PUSH1 0x40 MSTORE DUP1 PUSH0 DUP2 MSTORE POP DUP2 MSTORE POP PUSH1 0x5 PUSH0 DUP9 DUP2 MSTORE PUSH1 0x20 ADD SWAP1 DUP2 MSTORE PUSH1 0x20 ADD PUSH0 KECCAK256 PUSH0 DUP8 DUP2 MSTORE PUSH1 0x20 ADD SWAP1 DUP2 MSTORE PUSH1 0x20 ADD PUSH0 KECCAK256 PUSH0 DUP3 ADD MLOAD DUP2 PUSH0 ADD SSTORE PUSH1 0x20 DUP3 ADD MLOAD DUP2 PUSH1 0x1 ADD PUSH0 PUSH2 0x100 EXP DUP2 SLOAD DUP2 PUSH20 0xFFFFFFFFFFFFFFFFFFFFFFFFFFFFFFFFFFFFFFFF MUL NOT AND SWAP1 DUP4 PUSH20 0xFFFFFFFFFFFFFFFFFFFFFFFFFFFFFFFFFFFFFFFF AND MUL OR SWAP1 SSTORE POP PUSH1 0x40 DUP3 ADD MLOAD DUP2 PUSH1 0x2 ADD SWAP1 DUP2 PUSH2 0x186C SWAP2 SWAP1 PUSH2 0x2EDF JUMP JUMPDEST POP PUSH1 0x60 DUP3 ADD MLOAD DUP2 PUSH1 0x3 ADD PUSH0 PUSH2 0x100 EXP DUP2 SLOAD DUP2 PUSH20 0xFFFFFFFFFFFFFFFFFFFFFFFFFFFFFFFFFFFFFFFF MUL NOT AND SWAP1 DUP4 PUSH20 0xFFFFFFFFFFFFFFFFFFFFFFFFFFFFFFFFFFFFFFFF AND MUL OR SWAP1 SSTORE POP PUSH1 0x80 DUP3 ADD MLOAD DUP2 PUSH1 0x3 ADD PUSH1 0x14 PUSH2 0x100 EXP DUP2 SLOAD DUP2 PUSH1 0xFF MUL NOT AND SWAP1 DUP4 ISZERO ISZERO MUL OR SWAP1 SSTORE POP PUSH1 0xA0 DUP3 ADD MLOAD DUP2 PUSH1 0x4 ADD SWAP1 DUP2 PUSH2 0x18E8 SWAP2 SWAP1 PUSH2 0x2EDF JUMP JUMPDEST POP SWAP1 POP POP POP POP POP POP POP POP JUMP JUMPDEST PUSH1 0x2 SLOAD DUP2 JUMP JUMPDEST PUSH2 0x1903 DUP3 PUSH2 0xB12 JUMP JUMPDEST PUSH2 0x190C DUP2 PUSH2 0x1CE5 JUMP JUMPDEST PUSH2 0x1916 DUP4 DUP4 PUSH2 0x1DE9 JUMP JUMPDEST POP POP POP POP JUMP JUMPDEST DUP2 PUSH1 0x3 PUSH0 DUP3 DUP2 MSTORE PUSH1 0x20 ADD SWAP1 DUP2 MSTORE PUSH1 0x20 ADD PUSH0 KECCAK256 PUSH1 0x2 ADD PUSH0 SWAP1 SLOAD SWAP1 PUSH2 0x100 EXP SWAP1 DIV PUSH20 0xFFFFFFFFFFFFFFFFFFFFFFFFFFFFFFFFFFFFFFFF AND PUSH20 0xFFFFFFFFFFFFFFFFFFFFFFFFFFFFFFFFFFFFFFFF AND CALLER PUSH20 0xFFFFFFFFFFFFFFFFFFFFFFFFFFFFFFFFFFFFFFFF AND EQ PUSH2 0x19B5 JUMPI PUSH1 0x40 MLOAD PUSH32 0x706470D200000000000000000000000000000000000000000000000000000000 DUP2 MSTORE PUSH1 0x4 ADD PUSH1 0x40 MLOAD DUP1 SWAP2 SUB SWAP1 REVERT JUMPDEST PUSH0 PUSH1 0x3 PUSH0 DUP6 DUP2 MSTORE PUSH1 0x20 ADD SWAP1 DUP2 MSTORE PUSH1 0x20 ADD PUSH0 KECCAK256 SWAP1 POP PUSH0 PUSH20 0xFFFFFFFFFFFFFFFFFFFFFFFFFFFFFFFFFFFFFFFF AND DUP4 PUSH20 0xFFFFFFFFFFFFFFFFFFFFFFFFFFFFFFFFFFFFFFFF AND SUB PUSH2 0x1A2E JUMPI PUSH1 0x40 MLOAD PUSH32 0x3EFA09AF00000000000000000000000000000000000000000000000000000000 DUP2 MSTORE PUSH1 0x4 ADD PUSH1 0x40 MLOAD DUP1 SWAP2 SUB SWAP1 REVERT JUMPDEST DUP3 PUSH20 0xFFFFFFFFFFFFFFFFFFFFFFFFFFFFFFFFFFFFFFFF AND DUP2 PUSH1 0x2 ADD PUSH0 SWAP1 SLOAD SWAP1 PUSH2 0x100 EXP SWAP1 DIV PUSH20 0xFFFFFFFFFFFFFFFFFFFFFFFFFFFFFFFFFFFFFFFF AND PUSH20 0xFFFFFFFFFFFFFFFFFFFFFFFFFFFFFFFFFFFFFFFF AND EQ PUSH2 0x1AB6 JUMPI PUSH1 0x40 MLOAD PUSH32 0x75AEE32600000000000000000000000000000000000000000000000000000000 DUP2 MSTORE PUSH1 0x4 ADD PUSH1 0x40 MLOAD DUP1 SWAP2 SUB SWAP1 REVERT JUMPDEST PUSH0 PUSH1 0x3 DUP2 GT ISZERO PUSH2 0x1AC9 JUMPI PUSH2 0x1AC8 PUSH2 0x2155 JUMP JUMPDEST JUMPDEST DUP2 PUSH1 0x5 ADD PUSH0 SWAP1 SLOAD SWAP1 PUSH2 0x100 EXP SWAP1 DIV PUSH1 0xFF AND PUSH1 0x3 DUP2 GT ISZERO PUSH2 0x1AEC JUMPI PUSH2 0x1AEB PUSH2 0x2155 JUMP JUMPDEST JUMPDEST EQ PUSH2 0x1B23 JUMPI PUSH1 0x40 MLOAD PUSH32 0xD76EBD0F00000000000000000000000000000000000000000000000000000000 DUP2 MSTORE PUSH1 0x4 ADD PUSH1 0x40 MLOAD DUP1 SWAP2 SUB SWAP1 REVERT JUMPDEST PUSH1 0x1 DUP2 PUSH1 0x5 ADD PUSH0 PUSH2 0x100 EXP DUP2 SLOAD DUP2 PUSH1 0xFF MUL NOT AND SWAP1 DUP4 PUSH1 0x3 DUP2 GT ISZERO PUSH2 0x1B4A JUMPI PUSH2 0x1B49 PUSH2 0x2155 JUMP JUMPDEST JUMPDEST MUL OR SWAP1 SSTORE POP POP POP POP POP JUMP JUMPDEST PUSH2 0x1B5D PUSH2 0x1C42 JUMP JUMPDEST PUSH0 PUSH20 0xFFFFFFFFFFFFFFFFFFFFFFFFFFFFFFFFFFFFFFFF AND DUP2 PUSH20 0xFFFFFFFFFFFFFFFFFFFFFFFFFFFFFFFFFFFFFFFF AND SUB PUSH2 0x1BCD JUMPI PUSH0 PUSH1 0x40 MLOAD PUSH32 0x1E4FBDF700000000000000000000000000000000000000000000000000000000 DUP2 MSTORE PUSH1 0x4 ADD PUSH2 0x1BC4 SWAP2 SWAP1 PUSH2 0x2886 JUMP JUMPDEST PUSH1 0x40 MLOAD DUP1 SWAP2 SUB SWAP1 REVERT JUMPDEST PUSH2 0x1BD6 DUP2 PUSH2 0x1ED3 JUMP JUMPDEST POP JUMP JUMPDEST PUSH0 PUSH32 0x1FFC9A700000000000000000000000000000000000000000000000000000000 PUSH28 0xFFFFFFFFFFFFFFFFFFFFFFFFFFFFFFFFFFFFFFFFFFFFFFFFFFFFFFFF NOT AND DUP3 PUSH28 0xFFFFFFFFFFFFFFFFFFFFFFFFFFFFFFFFFFFFFFFFFFFFFFFFFFFFFFFF NOT AND EQ SWAP1 POP SWAP2 SWAP1 POP JUMP JUMPDEST PUSH2 0x1C4A PUSH2 0x1DE2 JUMP JUMPDEST PUSH20 0xFFFFFFFFFFFFFFFFFFFFFFFFFFFFFFFFFFFFFFFF AND PUSH2 0x1C68 PUSH2 0x11EA JUMP JUMPDEST PUSH20 0xFFFFFFFFFFFFFFFFFFFFFFFFFFFFFFFFFFFFFFFF AND EQ PUSH2 0x1CC7 JUMPI PUSH2 0x1C8B PUSH2 0x1DE2 JUMP JUMPDEST PUSH1 0x40 MLOAD PUSH32 0x118CDAA700000000000000000000000000000000000000000000000000000000 DUP2 MSTORE PUSH1 0x4 ADD PUSH2 0x1CBE SWAP2 SWAP1 PUSH2 0x2886 JUMP JUMPDEST PUSH1 0x40 MLOAD DUP1 SWAP2 SUB SWAP1 REVERT JUMPDEST JUMP JUMPDEST PUSH0 PUSH8 0xDE0B6B3A7640000 DUP3 PUSH2 0x1CDE SWAP2 SWAP1 PUSH2 0x2FAE JUMP JUMPDEST SWAP1 POP SWAP2 SWAP1 POP JUMP JUMPDEST PUSH2 0x1CF6 DUP2 PUSH2 0x1CF1 PUSH2 0x1DE2 JUMP JUMPDEST PUSH2 0x1F94 JUMP JUMPDEST POP JUMP JUMPDEST PUSH0 PUSH2 0x1D04 DUP4 DUP4 PUSH2 0x1211 JUMP JUMPDEST PUSH2 0x1DD8 JUMPI PUSH1 0x1 DUP1 PUSH0 DUP6 DUP2 MSTORE PUSH1 0x20 ADD SWAP1 DUP2 MSTORE PUSH1 0x20 ADD PUSH0 KECCAK256 PUSH0 ADD PUSH0 DUP5 PUSH20 0xFFFFFFFFFFFFFFFFFFFFFFFFFFFFFFFFFFFFFFFF AND PUSH20 0xFFFFFFFFFFFFFFFFFFFFFFFFFFFFFFFFFFFFFFFF AND DUP2 MSTORE PUSH1 0x20 ADD SWAP1 DUP2 MSTORE PUSH1 0x20 ADD PUSH0 KECCAK256 PUSH0 PUSH2 0x100 EXP DUP2 SLOAD DUP2 PUSH1 0xFF MUL NOT AND SWAP1 DUP4 ISZERO ISZERO MUL OR SWAP1 SSTORE POP PUSH2 0x1D75 PUSH2 0x1DE2 JUMP JUMPDEST PUSH20 0xFFFFFFFFFFFFFFFFFFFFFFFFFFFFFFFFFFFFFFFF AND DUP3 PUSH20 0xFFFFFFFFFFFFFFFFFFFFFFFFFFFFFFFFFFFFFFFF AND DUP5 PUSH32 0x2F8788117E7EFF1D82E926EC794901D17C78024A50270940304540A733656F0D PUSH1 0x40 MLOAD PUSH1 0x40 MLOAD DUP1 SWAP2 SUB SWAP1 LOG4 PUSH1 0x1 SWAP1 POP PUSH2 0x1DDC JUMP JUMPDEST PUSH0 SWAP1 POP JUMPDEST SWAP3 SWAP2 POP POP JUMP JUMPDEST PUSH0 CALLER SWAP1 POP SWAP1 JUMP JUMPDEST PUSH0 PUSH2 0x1DF4 DUP4 DUP4 PUSH2 0x1211 JUMP JUMPDEST ISZERO PUSH2 0x1EC9 JUMPI PUSH0 PUSH1 0x1 PUSH0 DUP6 DUP2 MSTORE PUSH1 0x20 ADD SWAP1 DUP2 MSTORE PUSH1 0x20 ADD PUSH0 KECCAK256 PUSH0 ADD PUSH0 DUP5 PUSH20 0xFFFFFFFFFFFFFFFFFFFFFFFFFFFFFFFFFFFFFFFF AND PUSH20 0xFFFFFFFFFFFFFFFFFFFFFFFFFFFFFFFFFFFFFFFF AND DUP2 MSTORE PUSH1 0x20 ADD SWAP1 DUP2 MSTORE PUSH1 0x20 ADD PUSH0 KECCAK256 PUSH0 PUSH2 0x100 EXP DUP2 SLOAD DUP2 PUSH1 0xFF MUL NOT AND SWAP1 DUP4 ISZERO ISZERO MUL OR SWAP1 SSTORE POP PUSH2 0x1E66 PUSH2 0x1DE2 JUMP JUMPDEST PUSH20 0xFFFFFFFFFFFFFFFFFFFFFFFFFFFFFFFFFFFFFFFF AND DUP3 PUSH20 0xFFFFFFFFFFFFFFFFFFFFFFFFFFFFFFFFFFFFFFFF AND DUP5 PUSH32 0xF6391F5C32D9C69D2A47EA670B442974B53935D1EDC7FD64EB21E047A839171B PUSH1 0x40 MLOAD PUSH1 0x40 MLOAD DUP1 SWAP2 SUB SWAP1 LOG4 PUSH1 0x1 SWAP1 POP PUSH2 0x1ECD JUMP JUMPDEST PUSH0 SWAP1 POP JUMPDEST SWAP3 SWAP2 POP POP JUMP JUMPDEST PUSH0 PUSH0 PUSH0 SWAP1 SLOAD SWAP1 PUSH2 0x100 EXP SWAP1 DIV PUSH20 0xFFFFFFFFFFFFFFFFFFFFFFFFFFFFFFFFFFFFFFFF AND SWAP1 POP DUP2 PUSH0 PUSH0 PUSH2 0x100 EXP DUP2 SLOAD DUP2 PUSH20 0xFFFFFFFFFFFFFFFFFFFFFFFFFFFFFFFFFFFFFFFF MUL NOT AND SWAP1 DUP4 PUSH20 0xFFFFFFFFFFFFFFFFFFFFFFFFFFFFFFFFFFFFFFFF AND MUL OR SWAP1 SSTORE POP DUP2 PUSH20 0xFFFFFFFFFFFFFFFFFFFFFFFFFFFFFFFFFFFFFFFF AND DUP2 PUSH20 0xFFFFFFFFFFFFFFFFFFFFFFFFFFFFFFFFFFFFFFFF AND PUSH32 0x8BE0079C531659141344CD1FD0A4F28419497F9722A3DAAFE3B4186F6B6457E0 PUSH1 0x40 MLOAD PUSH1 0x40 MLOAD DUP1 SWAP2 SUB SWAP1 LOG3 POP POP JUMP JUMPDEST PUSH2 0x1F9E DUP3 DUP3 PUSH2 0x1211 JUMP JUMPDEST PUSH2 0x1FE1 JUMPI DUP1 DUP3 PUSH1 0x40 MLOAD PUSH32 0xE2517D3F00000000000000000000000000000000000000000000000000000000 DUP2 MSTORE PUSH1 0x4 ADD PUSH2 0x1FD8 SWAP3 SWAP2 SWAP1 PUSH2 0x2FEF JUMP JUMPDEST PUSH1 0x40 MLOAD DUP1 SWAP2 SUB SWAP1 REVERT JUMPDEST POP POP JUMP JUMPDEST PUSH0 PUSH1 0x40 MLOAD SWAP1 POP SWAP1 JUMP JUMPDEST PUSH0 PUSH0 REVERT JUMPDEST PUSH0 PUSH0 REVERT JUMPDEST PUSH0 PUSH32 0xFFFFFFFF00000000000000000000000000000000000000000000000000000000 DUP3 AND SWAP1 POP SWAP2 SWAP1 POP JUMP JUMPDEST PUSH2 0x202A DUP2 PUSH2 0x1FF6 JUMP JUMPDEST DUP2 EQ PUSH2 0x2034 JUMPI PUSH0 PUSH0 REVERT JUMPDEST POP JUMP JUMPDEST PUSH0 DUP2 CALLDATALOAD SWAP1 POP PUSH2 0x2045 DUP2 PUSH2 0x2021 JUMP JUMPDEST SWAP3 SWAP2 POP POP JUMP JUMPDEST PUSH0 PUSH1 0x20 DUP3 DUP5 SUB SLT ISZERO PUSH2 0x2060 JUMPI PUSH2 0x205F PUSH2 0x1FEE JUMP JUMPDEST JUMPDEST PUSH0 PUSH2 0x206D DUP5 DUP3 DUP6 ADD PUSH2 0x2037 JUMP JUMPDEST SWAP2 POP POP SWAP3 SWAP2 POP POP JUMP JUMPDEST PUSH0 DUP2 ISZERO ISZERO SWAP1 POP SWAP2 SWAP1 POP JUMP JUMPDEST PUSH2 0x208A DUP2 PUSH2 0x2076 JUMP JUMPDEST DUP3 MSTORE POP POP JUMP JUMPDEST PUSH0 PUSH1 0x20 DUP3 ADD SWAP1 POP PUSH2 0x20A3 PUSH0 DUP4 ADD DUP5 PUSH2 0x2081 JUMP JUMPDEST SWAP3 SWAP2 POP POP JUMP JUMPDEST PUSH0 DUP2 SWAP1 POP SWAP2 SWAP1 POP JUMP JUMPDEST PUSH2 0x20BB DUP2 PUSH2 0x20A9 JUMP JUMPDEST DUP2 EQ PUSH2 0x20C5 JUMPI PUSH0 PUSH0 REVERT JUMPDEST POP JUMP JUMPDEST PUSH0 DUP2 CALLDATALOAD SWAP1 POP PUSH2 0x20D6 DUP2 PUSH2 0x20B2 JUMP JUMPDEST SWAP3 SWAP2 POP POP JUMP JUMPDEST PUSH0 PUSH1 0x20 DUP3 DUP5 SUB SLT ISZERO PUSH2 0x20F1 JUMPI PUSH2 0x20F0 PUSH2 0x1FEE JUMP JUMPDEST JUMPDEST PUSH0 PUSH2 0x20FE DUP5 DUP3 DUP6 ADD PUSH2 0x20C8 JUMP JUMPDEST SWAP2 POP POP SWAP3 SWAP2 POP POP JUMP JUMPDEST PUSH2 0x2110 DUP2 PUSH2 0x20A9 JUMP JUMPDEST DUP3 MSTORE POP POP JUMP JUMPDEST PUSH0 PUSH20 0xFFFFFFFFFFFFFFFFFFFFFFFFFFFFFFFFFFFFFFFF DUP3 AND SWAP1 POP SWAP2 SWAP1 POP JUMP JUMPDEST PUSH0 PUSH2 0x213F DUP3 PUSH2 0x2116 JUMP JUMPDEST SWAP1 POP SWAP2 SWAP1 POP JUMP JUMPDEST PUSH2 0x214F DUP2 PUSH2 0x2135 JUMP JUMPDEST DUP3 MSTORE POP POP JUMP JUMPDEST PUSH32 0x4E487B7100000000000000000000000000000000000000000000000000000000 PUSH0 MSTORE PUSH1 0x21 PUSH1 0x4 MSTORE PUSH1 0x24 PUSH0 REVERT JUMPDEST PUSH1 0x4 DUP2 LT PUSH2 0x2193 JUMPI PUSH2 0x2192 PUSH2 0x2155 JUMP JUMPDEST JUMPDEST POP JUMP JUMPDEST PUSH0 DUP2 SWAP1 POP PUSH2 0x21A3 DUP3 PUSH2 0x2182 JUMP JUMPDEST SWAP2 SWAP1 POP JUMP JUMPDEST PUSH0 PUSH2 0x21B2 DUP3 PUSH2 0x2196 JUMP JUMPDEST SWAP1 POP SWAP2 SWAP1 POP JUMP JUMPDEST PUSH2 0x21C2 DUP2 PUSH2 0x21A8 JUMP JUMPDEST DUP3 MSTORE POP POP JUMP JUMPDEST PUSH0 PUSH1 0xA0 DUP3 ADD SWAP1 POP PUSH2 0x21DB PUSH0 DUP4 ADD DUP9 PUSH2 0x2107 JUMP JUMPDEST PUSH2 0x21E8 PUSH1 0x20 DUP4 ADD DUP8 PUSH2 0x2146 JUMP JUMPDEST PUSH2 0x21F5 PUSH1 0x40 DUP4 ADD DUP7 PUSH2 0x2146 JUMP JUMPDEST PUSH2 0x2202 PUSH1 0x60 DUP4 ADD DUP6 PUSH2 0x2107 JUMP JUMPDEST PUSH2 0x220F PUSH1 0x80 DUP4 ADD DUP5 PUSH2 0x21B9 JUMP JUMPDEST SWAP7 SWAP6 POP POP POP POP POP POP JUMP JUMPDEST PUSH2 0x2222 DUP2 PUSH2 0x2135 JUMP JUMPDEST DUP2 EQ PUSH2 0x222C JUMPI PUSH0 PUSH0 REVERT JUMPDEST POP JUMP JUMPDEST PUSH0 DUP2 CALLDATALOAD SWAP1 POP PUSH2 0x223D DUP2 PUSH2 0x2219 JUMP JUMPDEST SWAP3 SWAP2 POP POP JUMP JUMPDEST PUSH0 PUSH0 REVERT JUMPDEST PUSH0 PUSH1 0x1F NOT PUSH1 0x1F DUP4 ADD AND SWAP1 POP SWAP2 SWAP1 POP JUMP JUMPDEST PUSH32 0x4E487B7100000000000000000000000000000000000000000000000000000000 PUSH0 MSTORE PUSH1 0x41 PUSH1 0x4 MSTORE PUSH1 0x24 PUSH0 REVERT JUMPDEST PUSH2 0x228D DUP3 PUSH2 0x2247 JUMP JUMPDEST DUP2 ADD DUP2 DUP2 LT PUSH8 0xFFFFFFFFFFFFFFFF DUP3 GT OR ISZERO PUSH2 0x22AC JUMPI PUSH2 0x22AB PUSH2 0x2257 JUMP JUMPDEST JUMPDEST DUP1 PUSH1 0x40 MSTORE POP POP POP JUMP JUMPDEST PUSH0 PUSH2 0x22BE PUSH2 0x1FE5 JUMP JUMPDEST SWAP1 POP PUSH2 0x22CA DUP3 DUP3 PUSH2 0x2284 JUMP JUMPDEST SWAP2 SWAP1 POP JUMP JUMPDEST PUSH0 PUSH8 0xFFFFFFFFFFFFFFFF DUP3 GT ISZERO PUSH2 0x22E9 JUMPI PUSH2 0x22E8 PUSH2 0x2257 JUMP JUMPDEST JUMPDEST PUSH1 0x20 DUP3 MUL SWAP1 POP PUSH1 0x20 DUP2 ADD SWAP1 POP SWAP2 SWAP1 POP JUMP JUMPDEST PUSH0 PUSH0 REVERT JUMPDEST PUSH0 PUSH2 0x2310 PUSH2 0x230B DUP5 PUSH2 0x22CF JUMP JUMPDEST PUSH2 0x22B5 JUMP JUMPDEST SWAP1 POP DUP1 DUP4 DUP3 MSTORE PUSH1 0x20 DUP3 ADD SWAP1 POP PUSH1 0x20 DUP5 MUL DUP4 ADD DUP6 DUP2 GT ISZERO PUSH2 0x2333 JUMPI PUSH2 0x2332 PUSH2 0x22FA JUMP JUMPDEST JUMPDEST DUP4 JUMPDEST DUP2 DUP2 LT ISZERO PUSH2 0x235C JUMPI DUP1 PUSH2 0x2348 DUP9 DUP3 PUSH2 0x20C8 JUMP JUMPDEST DUP5 MSTORE PUSH1 0x20 DUP5 ADD SWAP4 POP POP PUSH1 0x20 DUP2 ADD SWAP1 POP PUSH2 0x2335 JUMP JUMPDEST POP POP POP SWAP4 SWAP3 POP POP POP JUMP JUMPDEST PUSH0 DUP3 PUSH1 0x1F DUP4 ADD SLT PUSH2 0x237A JUMPI PUSH2 0x2379 PUSH2 0x2243 JUMP JUMPDEST JUMPDEST DUP2 CALLDATALOAD PUSH2 0x238A DUP5 DUP3 PUSH1 0x20 DUP7 ADD PUSH2 0x22FE JUMP JUMPDEST SWAP2 POP POP SWAP3 SWAP2 POP POP JUMP JUMPDEST PUSH0 PUSH0 PUSH1 0x40 DUP4 DUP6 SUB SLT ISZERO PUSH2 0x23A9 JUMPI PUSH2 0x23A8 PUSH2 0x1FEE JUMP JUMPDEST JUMPDEST PUSH0 PUSH2 0x23B6 DUP6 DUP3 DUP7 ADD PUSH2 0x222F JUMP JUMPDEST SWAP3 POP POP PUSH1 0x20 DUP4 ADD CALLDATALOAD PUSH8 0xFFFFFFFFFFFFFFFF DUP2 GT ISZERO PUSH2 0x23D7 JUMPI PUSH2 0x23D6 PUSH2 0x1FF2 JUMP JUMPDEST JUMPDEST PUSH2 0x23E3 DUP6 DUP3 DUP7 ADD PUSH2 0x2366 JUMP JUMPDEST SWAP2 POP POP SWAP3 POP SWAP3 SWAP1 POP JUMP JUMPDEST PUSH0 PUSH0 PUSH1 0x40 DUP4 DUP6 SUB SLT ISZERO PUSH2 0x2403 JUMPI PUSH2 0x2402 PUSH2 0x1FEE JUMP JUMPDEST JUMPDEST PUSH0 PUSH2 0x2410 DUP6 DUP3 DUP7 ADD PUSH2 0x20C8 JUMP JUMPDEST SWAP3 POP POP PUSH1 0x20 PUSH2 0x2421 DUP6 DUP3 DUP7 ADD PUSH2 0x20C8 JUMP JUMPDEST SWAP2 POP POP SWAP3 POP SWAP3 SWAP1 POP JUMP JUMPDEST PUSH0 DUP2 SWAP1 POP SWAP2 SWAP1 POP JUMP JUMPDEST PUSH2 0x243D DUP2 PUSH2 0x242B JUMP JUMPDEST DUP2 EQ PUSH2 0x2447 JUMPI PUSH0 PUSH0 REVERT JUMPDEST POP JUMP JUMPDEST PUSH0 DUP2 CALLDATALOAD SWAP1 POP PUSH2 0x2458 DUP2 PUSH2 0x2434 JUMP JUMPDEST SWAP3 SWAP2 POP POP JUMP JUMPDEST PUSH0 PUSH1 0x20 DUP3 DUP5 SUB SLT ISZERO PUSH2 0x2473 JUMPI PUSH2 0x2472 PUSH2 0x1FEE JUMP JUMPDEST JUMPDEST PUSH0 PUSH2 0x2480 DUP5 DUP3 DUP6 ADD PUSH2 0x244A JUMP JUMPDEST SWAP2 POP POP SWAP3 SWAP2 POP POP JUMP JUMPDEST PUSH2 0x2492 DUP2 PUSH2 0x242B JUMP JUMPDEST DUP3 MSTORE POP POP JUMP JUMPDEST PUSH0 PUSH1 0x20 DUP3 ADD SWAP1 POP PUSH2 0x24AB PUSH0 DUP4 ADD DUP5 PUSH2 0x2489 JUMP JUMPDEST SWAP3 SWAP2 POP POP JUMP JUMPDEST PUSH0 DUP2 MLOAD SWAP1 POP SWAP2 SWAP1 POP JUMP JUMPDEST PUSH0 DUP3 DUP3 MSTORE PUSH1 0x20 DUP3 ADD SWAP1 POP SWAP3 SWAP2 POP POP JUMP JUMPDEST DUP3 DUP2 DUP4 MCOPY PUSH0 DUP4 DUP4 ADD MSTORE POP POP POP JUMP JUMPDEST PUSH0 PUSH2 0x24E3 DUP3 PUSH2 0x24B1 JUMP JUMPDEST PUSH2 0x24ED DUP2 DUP6 PUSH2 0x24BB JUMP JUMPDEST SWAP4 POP PUSH2 0x24FD DUP2 DUP6 PUSH1 0x20 DUP7 ADD PUSH2 0x24CB JUMP JUMPDEST PUSH2 0x2506 DUP2 PUSH2 0x2247 JUMP JUMPDEST DUP5 ADD SWAP2 POP POP SWAP3 SWAP2 POP POP JUMP JUMPDEST PUSH0 PUSH1 0xC0 DUP3 ADD SWAP1 POP PUSH2 0x2524 PUSH0 DUP4 ADD DUP10 PUSH2 0x2107 JUMP JUMPDEST PUSH2 0x2531 PUSH1 0x20 DUP4 ADD DUP9 PUSH2 0x2146 JUMP JUMPDEST DUP2 DUP2 SUB PUSH1 0x40 DUP4 ADD MSTORE PUSH2 0x2543 DUP2 DUP8 PUSH2 0x24D9 JUMP JUMPDEST SWAP1 POP PUSH2 0x2552 PUSH1 0x60 DUP4 ADD DUP7 PUSH2 0x2146 JUMP JUMPDEST PUSH2 0x255F PUSH1 0x80 DUP4 ADD DUP6 PUSH2 0x2081 JUMP JUMPDEST DUP2 DUP2 SUB PUSH1 0xA0 DUP4 ADD MSTORE PUSH2 0x2571 DUP2 DUP5 PUSH2 0x24D9 JUMP JUMPDEST SWAP1 POP SWAP8 SWAP7 POP POP POP POP POP POP POP JUMP JUMPDEST PUSH0 PUSH0 PUSH1 0x40 DUP4 DUP6 SUB SLT ISZERO PUSH2 0x2594 JUMPI PUSH2 0x2593 PUSH2 0x1FEE JUMP JUMPDEST JUMPDEST PUSH0 PUSH2 0x25A1 DUP6 DUP3 DUP7 ADD PUSH2 0x244A JUMP JUMPDEST SWAP3 POP POP PUSH1 0x20 PUSH2 0x25B2 DUP6 DUP3 DUP7 ADD PUSH2 0x222F JUMP JUMPDEST SWAP2 POP POP SWAP3 POP SWAP3 SWAP1 POP JUMP JUMPDEST PUSH0 PUSH0 PUSH1 0x40 DUP4 DUP6 SUB SLT ISZERO PUSH2 0x25D2 JUMPI PUSH2 0x25D1 PUSH2 0x1FEE JUMP JUMPDEST JUMPDEST PUSH0 PUSH2 0x25DF DUP6 DUP3 DUP7 ADD PUSH2 0x222F JUMP JUMPDEST SWAP3 POP POP PUSH1 0x20 PUSH2 0x25F0 DUP6 DUP3 DUP7 ADD PUSH2 0x20C8 JUMP JUMPDEST SWAP2 POP POP SWAP3 POP SWAP3 SWAP1 POP JUMP JUMPDEST PUSH0 PUSH1 0x20 DUP3 ADD SWAP1 POP PUSH2 0x260D PUSH0 DUP4 ADD DUP5 PUSH2 0x2107 JUMP JUMPDEST SWAP3 SWAP2 POP POP JUMP JUMPDEST PUSH0 DUP2 MLOAD SWAP1 POP SWAP2 SWAP1 POP JUMP JUMPDEST PUSH0 DUP3 DUP3 MSTORE PUSH1 0x20 DUP3 ADD SWAP1 POP SWAP3 SWAP2 POP POP JUMP JUMPDEST PUSH0 DUP2 SWAP1 POP PUSH1 0x20 DUP3 ADD SWAP1 POP SWAP2 SWAP1 POP JUMP JUMPDEST PUSH2 0x2645 DUP2 PUSH2 0x20A9 JUMP JUMPDEST DUP3 MSTORE POP POP JUMP JUMPDEST PUSH2 0x2654 DUP2 PUSH2 0x2076 JUMP JUMPDEST DUP3 MSTORE POP POP JUMP JUMPDEST PUSH1 0x5 DUP2 LT PUSH2 0x266B JUMPI PUSH2 0x266A PUSH2 0x2155 JUMP JUMPDEST JUMPDEST POP JUMP JUMPDEST PUSH0 DUP2 SWAP1 POP PUSH2 0x267B DUP3 PUSH2 0x265A JUMP JUMPDEST SWAP2 SWAP1 POP JUMP JUMPDEST PUSH0 PUSH2 0x268A DUP3 PUSH2 0x266E JUMP JUMPDEST SWAP1 POP SWAP2 SWAP1 POP JUMP JUMPDEST PUSH2 0x269A DUP2 PUSH2 0x2680 JUMP JUMPDEST DUP3 MSTORE POP POP JUMP JUMPDEST PUSH1 0x60 DUP3 ADD PUSH0 DUP3 ADD MLOAD PUSH2 0x26B4 PUSH0 DUP6 ADD DUP3 PUSH2 0x263C JUMP JUMPDEST POP PUSH1 0x20 DUP3 ADD MLOAD PUSH2 0x26C7 PUSH1 0x20 DUP6 ADD DUP3 PUSH2 0x264B JUMP JUMPDEST POP PUSH1 0x40 DUP3 ADD MLOAD PUSH2 0x26DA PUSH1 0x40 DUP6 ADD DUP3 PUSH2 0x2691 JUMP JUMPDEST POP POP POP POP JUMP JUMPDEST PUSH0 PUSH2 0x26EB DUP4 DUP4 PUSH2 0x26A0 JUMP JUMPDEST PUSH1 0x60 DUP4 ADD SWAP1 POP SWAP3 SWAP2 POP POP JUMP JUMPDEST PUSH0 PUSH1 0x20 DUP3 ADD SWAP1 POP SWAP2 SWAP1 POP JUMP JUMPDEST PUSH0 PUSH2 0x270D DUP3 PUSH2 0x2613 JUMP JUMPDEST PUSH2 0x2717 DUP2 DUP6 PUSH2 0x261D JUMP JUMPDEST SWAP4 POP PUSH2 0x2722 DUP4 PUSH2 0x262D JUMP JUMPDEST DUP1 PUSH0 JUMPDEST DUP4 DUP2 LT ISZERO PUSH2 0x2752 JUMPI DUP2 MLOAD PUSH2 0x2739 DUP9 DUP3 PUSH2 0x26E0 JUMP JUMPDEST SWAP8 POP PUSH2 0x2744 DUP4 PUSH2 0x26F7 JUMP JUMPDEST SWAP3 POP POP PUSH1 0x1 DUP2 ADD SWAP1 POP PUSH2 0x2725 JUMP JUMPDEST POP DUP6 SWAP4 POP POP POP POP SWAP3 SWAP2 POP POP JUMP JUMPDEST PUSH0 PUSH1 0x20 DUP3 ADD SWAP1 POP DUP2 DUP2 SUB PUSH0 DUP4 ADD MSTORE PUSH2 0x2777 DUP2 DUP5 PUSH2 0x2703 JUMP JUMPDEST SWAP1 POP SWAP3 SWAP2 POP POP JUMP JUMPDEST PUSH2 0x2788 DUP2 PUSH2 0x2076 JUMP JUMPDEST DUP2 EQ PUSH2 0x2792 JUMPI PUSH0 PUSH0 REVERT JUMPDEST POP JUMP JUMPDEST PUSH0 DUP2 CALLDATALOAD SWAP1 POP PUSH2 0x27A3 DUP2 PUSH2 0x277F JUMP JUMPDEST SWAP3 SWAP2 POP POP JUMP JUMPDEST PUSH0 PUSH0 REVERT JUMPDEST PUSH0 PUSH0 DUP4 PUSH1 0x1F DUP5 ADD SLT PUSH2 0x27C2 JUMPI PUSH2 0x27C1 PUSH2 0x2243 JUMP JUMPDEST JUMPDEST DUP3 CALLDATALOAD SWAP1 POP PUSH8 0xFFFFFFFFFFFFFFFF DUP2 GT ISZERO PUSH2 0x27DF JUMPI PUSH2 0x27DE PUSH2 0x27A9 JUMP JUMPDEST JUMPDEST PUSH1 0x20 DUP4 ADD SWAP2 POP DUP4 PUSH1 0x1 DUP3 MUL DUP4 ADD GT ISZERO PUSH2 0x27FB JUMPI PUSH2 0x27FA PUSH2 0x22FA JUMP JUMPDEST JUMPDEST SWAP3 POP SWAP3 SWAP1 POP JUMP JUMPDEST PUSH0 PUSH0 PUSH0 PUSH0 PUSH0 PUSH1 0x80 DUP7 DUP9 SUB SLT ISZERO PUSH2 0x281B JUMPI PUSH2 0x281A PUSH2 0x1FEE JUMP JUMPDEST JUMPDEST PUSH0 PUSH2 0x2828 DUP9 DUP3 DUP10 ADD PUSH2 0x20C8 JUMP JUMPDEST SWAP6 POP POP PUSH1 0x20 PUSH2 0x2839 DUP9 DUP3 DUP10 ADD PUSH2 0x20C8 JUMP JUMPDEST SWAP5 POP POP PUSH1 0x40 PUSH2 0x284A DUP9 DUP3 DUP10 ADD PUSH2 0x2795 JUMP JUMPDEST SWAP4 POP POP PUSH1 0x60 DUP7 ADD CALLDATALOAD PUSH8 0xFFFFFFFFFFFFFFFF DUP2 GT ISZERO PUSH2 0x286B JUMPI PUSH2 0x286A PUSH2 0x1FF2 JUMP JUMPDEST JUMPDEST PUSH2 0x2877 DUP9 DUP3 DUP10 ADD PUSH2 0x27AD JUMP JUMPDEST SWAP3 POP SWAP3 POP POP SWAP3 SWAP6 POP SWAP3 SWAP6 SWAP1 SWAP4 POP JUMP JUMPDEST PUSH0 PUSH1 0x20 DUP3 ADD SWAP1 POP PUSH2 0x2899 PUSH0 DUP4 ADD DUP5 PUSH2 0x2146 JUMP JUMPDEST SWAP3 SWAP2 POP POP JUMP JUMPDEST PUSH0 DUP2 SWAP1 POP SWAP2 SWAP1 POP JUMP JUMPDEST PUSH0 PUSH2 0x28C2 PUSH2 0x28BD PUSH2 0x28B8 DUP5 PUSH2 0x2116 JUMP JUMPDEST PUSH2 0x289F JUMP JUMPDEST PUSH2 0x2116 JUMP JUMPDEST SWAP1 POP SWAP2 SWAP1 POP JUMP JUMPDEST PUSH0 PUSH2 0x28D3 DUP3 PUSH2 0x28A8 JUMP JUMPDEST SWAP1 POP SWAP2 SWAP1 POP JUMP JUMPDEST PUSH0 PUSH2 0x28E4 DUP3 PUSH2 0x28C9 JUMP JUMPDEST SWAP1 POP SWAP2 SWAP1 POP JUMP JUMPDEST PUSH2 0x28F4 DUP2 PUSH2 0x28DA JUMP JUMPDEST DUP3 MSTORE POP POP JUMP JUMPDEST PUSH0 PUSH1 0x20 DUP3 ADD SWAP1 POP PUSH2 0x290D PUSH0 DUP4 ADD DUP5 PUSH2 0x28EB JUMP JUMPDEST SWAP3 SWAP2 POP POP JUMP JUMPDEST PUSH0 PUSH0 PUSH0 PUSH1 0x60 DUP5 DUP7 SUB SLT ISZERO PUSH2 0x292A JUMPI PUSH2 0x2929 PUSH2 0x1FEE JUMP JUMPDEST JUMPDEST PUSH0 PUSH2 0x2937 DUP7 DUP3 DUP8 ADD PUSH2 0x20C8 JUMP JUMPDEST SWAP4 POP POP PUSH1 0x20 PUSH2 0x2948 DUP7 DUP3 DUP8 ADD PUSH2 0x20C8 JUMP JUMPDEST SWAP3 POP POP PUSH1 0x40 PUSH2 0x2959 DUP7 DUP3 DUP8 ADD PUSH2 0x222F JUMP JUMPDEST SWAP2 POP POP SWAP3 POP SWAP3 POP SWAP3 JUMP JUMPDEST PUSH0 PUSH0 PUSH0 PUSH0 PUSH1 0x60 DUP6 DUP8 SUB SLT ISZERO PUSH2 0x297B JUMPI PUSH2 0x297A PUSH2 0x1FEE JUMP JUMPDEST JUMPDEST PUSH0 PUSH2 0x2988 DUP8 DUP3 DUP9 ADD PUSH2 0x20C8 JUMP JUMPDEST SWAP5 POP POP PUSH1 0x20 PUSH2 0x2999 DUP8 DUP3 DUP9 ADD PUSH2 0x20C8 JUMP JUMPDEST SWAP4 POP POP PUSH1 0x40 DUP6 ADD CALLDATALOAD PUSH8 0xFFFFFFFFFFFFFFFF DUP2 GT ISZERO PUSH2 0x29BA JUMPI PUSH2 0x29B9 PUSH2 0x1FF2 JUMP JUMPDEST JUMPDEST PUSH2 0x29C6 DUP8 DUP3 DUP9 ADD PUSH2 0x27AD JUMP JUMPDEST SWAP3 POP SWAP3 POP POP SWAP3 SWAP6 SWAP2 SWAP5 POP SWAP3 POP JUMP JUMPDEST PUSH0 PUSH0 PUSH1 0x40 DUP4 DUP6 SUB SLT ISZERO PUSH2 0x29EA JUMPI PUSH2 0x29E9 PUSH2 0x1FEE JUMP JUMPDEST JUMPDEST PUSH0 PUSH2 0x29F7 DUP6 DUP3 DUP7 ADD PUSH2 0x20C8 JUMP JUMPDEST SWAP3 POP POP PUSH1 0x20 PUSH2 0x2A08 DUP6 DUP3 DUP7 ADD PUSH2 0x222F JUMP JUMPDEST SWAP2 POP POP SWAP3 POP SWAP3 SWAP1 POP JUMP JUMPDEST PUSH0 PUSH1 0x20 DUP3 DUP5 SUB SLT ISZERO PUSH2 0x2A27 JUMPI PUSH2 0x2A26 PUSH2 0x1FEE JUMP JUMPDEST JUMPDEST PUSH0 PUSH2 0x2A34 DUP5 DUP3 DUP6 ADD PUSH2 0x222F JUMP JUMPDEST SWAP2 POP POP SWAP3 SWAP2 POP POP JUMP JUMPDEST PUSH32 0x4E487B7100000000000000000000000000000000000000000000000000000000 PUSH0 MSTORE PUSH1 0x32 PUSH1 0x4 MSTORE PUSH1 0x24 PUSH0 REVERT JUMPDEST PUSH32 0x4E487B7100000000000000000000000000000000000000000000000000000000 PUSH0 MSTORE PUSH1 0x11 PUSH1 0x4 MSTORE PUSH1 0x24 PUSH0 REVERT JUMPDEST PUSH0 PUSH2 0x2AA1 DUP3 PUSH2 0x20A9 JUMP JUMPDEST SWAP2 POP PUSH2 0x2AAC DUP4 PUSH2 0x20A9 JUMP JUMPDEST SWAP3 POP DUP3 DUP3 ADD SWAP1 POP DUP1 DUP3 GT ISZERO PUSH2 0x2AC4 JUMPI PUSH2 0x2AC3 PUSH2 0x2A6A JUMP JUMPDEST JUMPDEST SWAP3 SWAP2 POP POP JUMP JUMPDEST PUSH0 PUSH1 0x60 DUP3 ADD SWAP1 POP PUSH2 0x2ADD PUSH0 DUP4 ADD DUP7 PUSH2 0x2146 JUMP JUMPDEST PUSH2 0x2AEA PUSH1 0x20 DUP4 ADD DUP6 PUSH2 0x2146 JUMP JUMPDEST PUSH2 0x2AF7 PUSH1 0x40 DUP4 ADD DUP5 PUSH2 0x2107 JUMP JUMPDEST SWAP5 SWAP4 POP POP POP POP JUMP JUMPDEST PUSH0 DUP2 MLOAD SWAP1 POP PUSH2 0x2B0D DUP2 PUSH2 0x277F JUMP JUMPDEST SWAP3 SWAP2 POP POP JUMP JUMPDEST PUSH0 PUSH1 0x20 DUP3 DUP5 SUB SLT ISZERO PUSH2 0x2B28 JUMPI PUSH2 0x2B27 PUSH2 0x1FEE JUMP JUMPDEST JUMPDEST PUSH0 PUSH2 0x2B35 DUP5 DUP3 DUP6 ADD PUSH2 0x2AFF JUMP JUMPDEST SWAP2 POP POP SWAP3 SWAP2 POP POP JUMP JUMPDEST PUSH32 0x5472616E73666572206661696C65640000000000000000000000000000000000 PUSH0 DUP3 ADD MSTORE POP JUMP JUMPDEST PUSH0 PUSH2 0x2B72 PUSH1 0xF DUP4 PUSH2 0x24BB JUMP JUMPDEST SWAP2 POP PUSH2 0x2B7D DUP3 PUSH2 0x2B3E JUMP JUMPDEST PUSH1 0x20 DUP3 ADD SWAP1 POP SWAP2 SWAP1 POP JUMP JUMPDEST PUSH0 PUSH1 0x20 DUP3 ADD SWAP1 POP DUP2 DUP2 SUB PUSH0 DUP4 ADD MSTORE PUSH2 0x2B9F DUP2 PUSH2 0x2B66 JUMP JUMPDEST SWAP1 POP SWAP2 SWAP1 POP JUMP JUMPDEST PUSH0 PUSH2 0x2BB0 DUP3 PUSH2 0x20A9 JUMP JUMPDEST SWAP2 POP PUSH32 0xFFFFFFFFFFFFFFFFFFFFFFFFFFFFFFFFFFFFFFFFFFFFFFFFFFFFFFFFFFFFFFFF DUP3 SUB PUSH2 0x2BE2 JUMPI PUSH2 0x2BE1 PUSH2 0x2A6A JUMP JUMPDEST JUMPDEST PUSH1 0x1 DUP3 ADD SWAP1 POP SWAP2 SWAP1 POP JUMP JUMPDEST PUSH0 PUSH1 0x40 DUP3 ADD SWAP1 POP PUSH2 0x2C00 PUSH0 DUP4 ADD DUP6 PUSH2 0x2146 JUMP JUMPDEST PUSH2 0x2C0D PUSH1 0x20 DUP4 ADD DUP5 PUSH2 0x2107 JUMP JUMPDEST SWAP4 SWAP3 POP POP POP JUMP JUMPDEST PUSH32 0x4E487B7100000000000000000000000000000000000000000000000000000000 PUSH0 MSTORE PUSH1 0x22 PUSH1 0x4 MSTORE PUSH1 0x24 PUSH0 REVERT JUMPDEST PUSH0 PUSH1 0x2 DUP3 DIV SWAP1 POP PUSH1 0x1 DUP3 AND DUP1 PUSH2 0x2C58 JUMPI PUSH1 0x7F DUP3 AND SWAP2 POP JUMPDEST PUSH1 0x20 DUP3 LT DUP2 SUB PUSH2 0x2C6B JUMPI PUSH2 0x2C6A PUSH2 0x2C14 JUMP JUMPDEST JUMPDEST POP SWAP2 SWAP1 POP JUMP JUMPDEST PUSH0 DUP3 SWAP1 POP SWAP3 SWAP2 POP POP JUMP JUMPDEST PUSH0 DUP2 SWAP1 POP DUP2 PUSH0 MSTORE PUSH1 0x20 PUSH0 KECCAK256 SWAP1 POP SWAP2 SWAP1 POP JUMP JUMPDEST PUSH0 PUSH1 0x20 PUSH1 0x1F DUP4 ADD DIV SWAP1 POP SWAP2 SWAP1 POP JUMP JUMPDEST PUSH0 DUP3 DUP3 SHL SWAP1 POP SWAP3 SWAP2 POP POP JUMP JUMPDEST PUSH0 PUSH1 0x8 DUP4 MUL PUSH2 0x2CD7 PUSH32 0xFFFFFFFFFFFFFFFFFFFFFFFFFFFFFFFFFFFFFFFFFFFFFFFFFFFFFFFFFFFFFFFF DUP3 PUSH2 0x2C9C JUMP JUMPDEST PUSH2 0x2CE1 DUP7 DUP4 PUSH2 0x2C9C JUMP JUMPDEST SWAP6 POP DUP1 NOT DUP5 AND SWAP4 POP DUP1 DUP7 AND DUP5 OR SWAP3 POP POP POP SWAP4 SWAP3 POP POP POP JUMP JUMPDEST PUSH0 PUSH2 0x2D13 PUSH2 0x2D0E PUSH2 0x2D09 DUP5 PUSH2 0x20A9 JUMP JUMPDEST PUSH2 0x289F JUMP JUMPDEST PUSH2 0x20A9 JUMP JUMPDEST SWAP1 POP SWAP2 SWAP1 POP JUMP JUMPDEST PUSH0 DUP2 SWAP1 POP SWAP2 SWAP1 POP JUMP JUMPDEST PUSH2 0x2D2C DUP4 PUSH2 0x2CF9 JUMP JUMPDEST PUSH2 0x2D40 PUSH2 0x2D38 DUP3 PUSH2 0x2D1A JUMP JUMPDEST DUP5 DUP5 SLOAD PUSH2 0x2CA8 JUMP JUMPDEST DUP3 SSTORE POP POP POP POP JUMP JUMPDEST PUSH0 PUSH0 SWAP1 POP SWAP1 JUMP JUMPDEST PUSH2 0x2D57 PUSH2 0x2D48 JUMP JUMPDEST PUSH2 0x2D62 DUP2 DUP5 DUP5 PUSH2 0x2D23 JUMP JUMPDEST POP POP POP JUMP JUMPDEST JUMPDEST DUP2 DUP2 LT ISZERO PUSH2 0x2D85 JUMPI PUSH2 0x2D7A PUSH0 DUP3 PUSH2 0x2D4F JUMP JUMPDEST PUSH1 0x1 DUP2 ADD SWAP1 POP PUSH2 0x2D68 JUMP JUMPDEST POP POP JUMP JUMPDEST PUSH1 0x1F DUP3 GT ISZERO PUSH2 0x2DCA JUMPI PUSH2 0x2D9B DUP2 PUSH2 0x2C7B JUMP JUMPDEST PUSH2 0x2DA4 DUP5 PUSH2 0x2C8D JUMP JUMPDEST DUP2 ADD PUSH1 0x20 DUP6 LT ISZERO PUSH2 0x2DB3 JUMPI DUP2 SWAP1 POP JUMPDEST PUSH2 0x2DC7 PUSH2 0x2DBF DUP6 PUSH2 0x2C8D JUMP JUMPDEST DUP4 ADD DUP3 PUSH2 0x2D67 JUMP JUMPDEST POP POP JUMPDEST POP POP POP JUMP JUMPDEST PUSH0 DUP3 DUP3 SHR SWAP1 POP SWAP3 SWAP2 POP POP JUMP JUMPDEST PUSH0 PUSH2 0x2DEA PUSH0 NOT DUP5 PUSH1 0x8 MUL PUSH2 0x2DCF JUMP JUMPDEST NOT DUP1 DUP4 AND SWAP2 POP POP SWAP3 SWAP2 POP POP JUMP JUMPDEST PUSH0 PUSH2 0x2E02 DUP4 DUP4 PUSH2 0x2DDB JUMP JUMPDEST SWAP2 POP DUP3 PUSH1 0x2 MUL DUP3 OR SWAP1 POP SWAP3 SWAP2 POP POP JUMP JUMPDEST PUSH2 0x2E1C DUP4 DUP4 PUSH2 0x2C71 JUMP JUMPDEST PUSH8 0xFFFFFFFFFFFFFFFF DUP2 GT ISZERO PUSH2 0x2E35 JUMPI PUSH2 0x2E34 PUSH2 0x2257 JUMP JUMPDEST JUMPDEST PUSH2 0x2E3F DUP3 SLOAD PUSH2 0x2C41 JUMP JUMPDEST PUSH2 0x2E4A DUP3 DUP3 DUP6 PUSH2 0x2D89 JUMP JUMPDEST PUSH0 PUSH1 0x1F DUP4 GT PUSH1 0x1 DUP2 EQ PUSH2 0x2E77 JUMPI PUSH0 DUP5 ISZERO PUSH2 0x2E65 JUMPI DUP3 DUP8 ADD CALLDATALOAD SWAP1 POP JUMPDEST PUSH2 0x2E6F DUP6 DUP3 PUSH2 0x2DF7 JUMP JUMPDEST DUP7 SSTORE POP PUSH2 0x2ED6 JUMP JUMPDEST PUSH1 0x1F NOT DUP5 AND PUSH2 0x2E85 DUP7 PUSH2 0x2C7B JUMP JUMPDEST PUSH0 JUMPDEST DUP3 DUP2 LT ISZERO PUSH2 0x2EAC JUMPI DUP5 DUP10 ADD CALLDATALOAD DUP3 SSTORE PUSH1 0x1 DUP3 ADD SWAP2 POP PUSH1 0x20 DUP6 ADD SWAP5 POP PUSH1 0x20 DUP2 ADD SWAP1 POP PUSH2 0x2E87 JUMP JUMPDEST DUP7 DUP4 LT ISZERO PUSH2 0x2EC9 JUMPI DUP5 DUP10 ADD CALLDATALOAD PUSH2 0x2EC5 PUSH1 0x1F DUP10 AND DUP3 PUSH2 0x2DDB JUMP JUMPDEST DUP4 SSTORE POP JUMPDEST PUSH1 0x1 PUSH1 0x2 DUP9 MUL ADD DUP9 SSTORE POP POP POP JUMPDEST POP POP POP POP POP POP POP JUMP JUMPDEST PUSH2 0x2EE8 DUP3 PUSH2 0x24B1 JUMP JUMPDEST PUSH8 0xFFFFFFFFFFFFFFFF DUP2 GT ISZERO PUSH2 0x2F01 JUMPI PUSH2 0x2F00 PUSH2 0x2257 JUMP JUMPDEST JUMPDEST PUSH2 0x2F0B DUP3 SLOAD PUSH2 0x2C41 JUMP JUMPDEST PUSH2 0x2F16 DUP3 DUP3 DUP6 PUSH2 0x2D89 JUMP JUMPDEST PUSH0 PUSH1 0x20 SWAP1 POP PUSH1 0x1F DUP4 GT PUSH1 0x1 DUP2 EQ PUSH2 0x2F47 JUMPI PUSH0 DUP5 ISZERO PUSH2 0x2F35 JUMPI DUP3 DUP8 ADD MLOAD SWAP1 POP JUMPDEST PUSH2 0x2F3F DUP6 DUP3 PUSH2 0x2DF7 JUMP JUMPDEST DUP7 SSTORE POP PUSH2 0x2FA6 JUMP JUMPDEST PUSH1 0x1F NOT DUP5 AND PUSH2 0x2F55 DUP7 PUSH2 0x2C7B JUMP JUMPDEST PUSH0 JUMPDEST DUP3 DUP2 LT ISZERO PUSH2 0x2F7C JUMPI DUP5 DUP10 ADD MLOAD DUP3 SSTORE PUSH1 0x1 DUP3 ADD SWAP2 POP PUSH1 0x20 DUP6 ADD SWAP5 POP PUSH1 0x20 DUP2 ADD SWAP1 POP PUSH2 0x2F57 JUMP JUMPDEST DUP7 DUP4 LT ISZERO PUSH2 0x2F99 JUMPI DUP5 DUP10 ADD MLOAD PUSH2 0x2F95 PUSH1 0x1F DUP10 AND DUP3 PUSH2 0x2DDB JUMP JUMPDEST DUP4 SSTORE POP JUMPDEST PUSH1 0x1 PUSH1 0x2 DUP9 MUL ADD DUP9 SSTORE POP POP POP JUMPDEST POP POP POP POP POP POP JUMP JUMPDEST PUSH0 PUSH2 0x2FB8 DUP3 PUSH2 0x20A9 JUMP JUMPDEST SWAP2 POP PUSH2 0x2FC3 DUP4 PUSH2 0x20A9 JUMP JUMPDEST SWAP3 POP DUP3 DUP3 MUL PUSH2 0x2FD1 DUP2 PUSH2 0x20A9 JUMP JUMPDEST SWAP2 POP DUP3 DUP3 DIV DUP5 EQ DUP4 ISZERO OR PUSH2 0x2FE8 JUMPI PUSH2 0x2FE7 PUSH2 0x2A6A JUMP JUMPDEST JUMPDEST POP SWAP3 SWAP2 POP POP JUMP JUMPDEST PUSH0 PUSH1 0x40 DUP3 ADD SWAP1 POP PUSH2 0x3002 PUSH0 DUP4 ADD DUP6 PUSH2 0x2146 JUMP JUMPDEST PUSH2 0x300F PUSH1 0x20 DUP4 ADD DUP5 PUSH2 0x2489 JUMP JUMPDEST SWAP4 SWAP3 POP POP POP JUMP INVALID LOG2 PUSH5 0x6970667358 0x22 SLT KECCAK256 PUSH17 0x16429A6A1EAB954229F98EC8DAB289996F GASPRICE 0xCA ADD SWAP1 TLOAD PUSH30 0x575B087D035DF7C064736F6C634300081E00330000000000000000000000 "
		},
		"gasEstimates": {
			"creation": {
				"codeDepositCost": "2472800",
				"executionCost": "infinite",
				"totalCost": "infinite"
			},
			"external": {
				"DEFAULT_ADMIN_ROLE()": "440",
				"acceptJob(uint256,address)": "31790",
				"approveMilestone(uint256,uint256)": "infinite",
				"createJob(address,uint256[])": "infinite",
				"disputes(uint256,uint256)": "infinite",
				"freelancerJobs(address,uint256)": "infinite",
				"getRoleAdmin(bytes32)": "infinite",
				"getjob(uint256)": "infinite",
				"grantRole(bytes32,address)": "infinite",
				"hasRole(bytes32,address)": "3188",
				"i_token()": "infinite",
				"jobId()": "2491",
				"jobs(uint256)": "infinite",
				"owner()": "2559",
				"raiseDispute(uint256,uint256,string)": "infinite",
				"renounceOwnership()": "infinite",
				"renounceRole(bytes32,address)": "infinite",
				"resolveDispute(uint256,uint256,bool,string)": "infinite",
				"revokeRole(bytes32,address)": "infinite",
				"submitMilestone(uint256,uint256,address)": "infinite",
				"supportsInterface(bytes4)": "741",
				"transferOwnership(address)": "infinite"
			}
		},
		"methodIdentifiers": {
			"DEFAULT_ADMIN_ROLE()": "a217fddf",
			"acceptJob(uint256,address)": "d7d86727",
			"approveMilestone(uint256,uint256)": "20913da5",
			"createJob(address,uint256[])": "1a424050",
			"disputes(uint256,uint256)": "25e43652",
			"freelancerJobs(address,uint256)": "442f5c88",
			"getRoleAdmin(bytes32)": "248a9ca3",
			"getjob(uint256)": "65c498ab",
			"grantRole(bytes32,address)": "2f2ff15d",
			"hasRole(bytes32,address)": "91d14854",
			"i_token()": "9608b232",
			"jobId()": "c2939d97",
			"jobs(uint256)": "180aedf3",
			"owner()": "8da5cb5b",
			"raiseDispute(uint256,uint256,string)": "c290dd71",
			"renounceOwnership()": "715018a6",
			"renounceRole(bytes32,address)": "36568abe",
			"resolveDispute(uint256,uint256,bool,string)": "870d364d",
			"revokeRole(bytes32,address)": "d547741f",
			"submitMilestone(uint256,uint256,address)": "b728775b",
			"supportsInterface(bytes4)": "01ffc9a7",
			"transferOwnership(address)": "f2fde38b"
		}
	},
	"abi": [
		{
			"inputs": [
				{
					"internalType": "address",
					"name": "_token",
					"type": "address"
				},
				{
					"internalType": "address",
					"name": "_resolver",
					"type": "address"
				}
			],
			"stateMutability": "nonpayable",
			"type": "constructor"
		},
		{
			"inputs": [],
			"name": "AccessControlBadConfirmation",
			"type": "error"
		},
		{
			"inputs": [
				{
					"internalType": "address",
					"name": "account",
					"type": "address"
				},
				{
					"internalType": "bytes32",
					"name": "neededRole",
					"type": "bytes32"
				}
			],
			"name": "AccessControlUnauthorizedAccount",
			"type": "error"
		},
		{
			"inputs": [],
			"name": "InvalidFreelancer",
			"type": "error"
		},
		{
			"inputs": [],
			"name": "InvalidIndex",
			"type": "error"
		},
		{
			"inputs": [],
			"name": "InvalidMileStoneStatus",
			"type": "error"
		},
		{
			"inputs": [],
			"name": "JobNotOpen",
			"type": "error"
		},
		{
			"inputs": [],
			"name": "MileStoneNotDisputed",
			"type": "error"
		},
		{
			"inputs": [],
			"name": "MileStoneNotInReview",
			"type": "error"
		},
		{
			"inputs": [],
			"name": "NoMilestonesProvided",
			"type": "error"
		},
		{
			"inputs": [],
			"name": "NotFreelancer",
			"type": "error"
		},
		{
			"inputs": [],
			"name": "NotParticipant",
			"type": "error"
		},
		{
			"inputs": [
				{
					"internalType": "address",
					"name": "owner",
					"type": "address"
				}
			],
			"name": "OwnableInvalidOwner",
			"type": "error"
		},
		{
			"inputs": [
				{
					"internalType": "address",
					"name": "account",
					"type": "address"
				}
			],
			"name": "OwnableUnauthorizedAccount",
			"type": "error"
		},
		{
			"inputs": [],
			"name": "ZeroAddressError",
			"type": "error"
		},
		{
			"anonymous": false,
			"inputs": [
				{
					"indexed": true,
					"internalType": "address",
					"name": "previousOwner",
					"type": "address"
				},
				{
					"indexed": true,
					"internalType": "address",
					"name": "newOwner",
					"type": "address"
				}
			],
			"name": "OwnershipTransferred",
			"type": "event"
		},
		{
			"anonymous": false,
			"inputs": [
				{
					"indexed": true,
					"internalType": "bytes32",
					"name": "role",
					"type": "bytes32"
				},
				{
					"indexed": true,
					"internalType": "bytes32",
					"name": "previousAdminRole",
					"type": "bytes32"
				},
				{
					"indexed": true,
					"internalType": "bytes32",
					"name": "newAdminRole",
					"type": "bytes32"
				}
			],
			"name": "RoleAdminChanged",
			"type": "event"
		},
		{
			"anonymous": false,
			"inputs": [
				{
					"indexed": true,
					"internalType": "bytes32",
					"name": "role",
					"type": "bytes32"
				},
				{
					"indexed": true,
					"internalType": "address",
					"name": "account",
					"type": "address"
				},
				{
					"indexed": true,
					"internalType": "address",
					"name": "sender",
					"type": "address"
				}
			],
			"name": "RoleGranted",
			"type": "event"
		},
		{
			"anonymous": false,
			"inputs": [
				{
					"indexed": true,
					"internalType": "bytes32",
					"name": "role",
					"type": "bytes32"
				},
				{
					"indexed": true,
					"internalType": "address",
					"name": "account",
					"type": "address"
				},
				{
					"indexed": true,
					"internalType": "address",
					"name": "sender",
					"type": "address"
				}
			],
			"name": "RoleRevoked",
			"type": "event"
		},
		{
			"inputs": [],
			"name": "DEFAULT_ADMIN_ROLE",
			"outputs": [
				{
					"internalType": "bytes32",
					"name": "",
					"type": "bytes32"
				}
			],
			"stateMutability": "view",
			"type": "function"
		},
		{
			"inputs": [
				{
					"internalType": "uint256",
					"name": "id",
					"type": "uint256"
				},
				{
					"internalType": "address",
					"name": "_freelancer",
					"type": "address"
				}
			],
			"name": "acceptJob",
			"outputs": [],
			"stateMutability": "nonpayable",
			"type": "function"
		},
		{
			"inputs": [
				{
					"internalType": "uint256",
					"name": "_jobId",
					"type": "uint256"
				},
				{
					"internalType": "uint256",
					"name": "_milestoneId",
					"type": "uint256"
				}
			],
			"name": "approveMilestone",
			"outputs": [],
			"stateMutability": "nonpayable",
			"type": "function"
		},
		{
			"inputs": [
				{
					"internalType": "address",
					"name": "_freelancer",
					"type": "address"
				},
				{
					"internalType": "uint256[]",
					"name": "_amount",
					"type": "uint256[]"
				}
			],
			"name": "createJob",
			"outputs": [],
			"stateMutability": "nonpayable",
			"type": "function"
		},
		{
			"inputs": [
				{
					"internalType": "uint256",
					"name": "",
					"type": "uint256"
				},
				{
					"internalType": "uint256",
					"name": "",
					"type": "uint256"
				}
			],
			"name": "disputes",
			"outputs": [
				{
					"internalType": "uint256",
					"name": "milestoneId",
					"type": "uint256"
				},
				{
					"internalType": "address",
					"name": "raisedBy",
					"type": "address"
				},
				{
					"internalType": "string",
					"name": "reason",
					"type": "string"
				},
				{
					"internalType": "address",
					"name": "resolver",
					"type": "address"
				},
				{
					"internalType": "bool",
					"name": "resolved",
					"type": "bool"
				},
				{
					"internalType": "string",
					"name": "outcome",
					"type": "string"
				}
			],
			"stateMutability": "view",
			"type": "function"
		},
		{
			"inputs": [
				{
					"internalType": "address",
					"name": "",
					"type": "address"
				},
				{
					"internalType": "uint256",
					"name": "",
					"type": "uint256"
				}
			],
			"name": "freelancerJobs",
			"outputs": [
				{
					"internalType": "uint256",
					"name": "",
					"type": "uint256"
				}
			],
			"stateMutability": "view",
			"type": "function"
		},
		{
			"inputs": [
				{
					"internalType": "bytes32",
					"name": "role",
					"type": "bytes32"
				}
			],
			"name": "getRoleAdmin",
			"outputs": [
				{
					"internalType": "bytes32",
					"name": "",
					"type": "bytes32"
				}
			],
			"stateMutability": "view",
			"type": "function"
		},
		{
			"inputs": [
				{
					"internalType": "uint256",
					"name": "_jobid",
					"type": "uint256"
				}
			],
			"name": "getjob",
			"outputs": [
				{
					"components": [
						{
							"internalType": "uint256",
							"name": "amount",
							"type": "uint256"
						},
						{
							"internalType": "bool",
							"name": "paid",
							"type": "bool"
						},
						{
							"internalType": "enum Escrow.MileStoneStatus",
							"name": "mileStoneStatus",
							"type": "uint8"
						}
					],
					"internalType": "struct Escrow.MileStone[]",
					"name": "",
					"type": "tuple[]"
				}
			],
			"stateMutability": "view",
			"type": "function"
		},
		{
			"inputs": [
				{
					"internalType": "bytes32",
					"name": "role",
					"type": "bytes32"
				},
				{
					"internalType": "address",
					"name": "account",
					"type": "address"
				}
			],
			"name": "grantRole",
			"outputs": [],
			"stateMutability": "nonpayable",
			"type": "function"
		},
		{
			"inputs": [
				{
					"internalType": "bytes32",
					"name": "role",
					"type": "bytes32"
				},
				{
					"internalType": "address",
					"name": "account",
					"type": "address"
				}
			],
			"name": "hasRole",
			"outputs": [
				{
					"internalType": "bool",
					"name": "",
					"type": "bool"
				}
			],
			"stateMutability": "view",
			"type": "function"
		},
		{
			"inputs": [],
			"name": "i_token",
			"outputs": [
				{
					"internalType": "contract IERC20",
					"name": "",
					"type": "address"
				}
			],
			"stateMutability": "view",
			"type": "function"
		},
		{
			"inputs": [],
			"name": "jobId",
			"outputs": [
				{
					"internalType": "uint256",
					"name": "",
					"type": "uint256"
				}
			],
			"stateMutability": "view",
			"type": "function"
		},
		{
			"inputs": [
				{
					"internalType": "uint256",
					"name": "",
					"type": "uint256"
				}
			],
			"name": "jobs",
			"outputs": [
				{
					"internalType": "uint256",
					"name": "id",
					"type": "uint256"
				},
				{
					"internalType": "address",
					"name": "clients",
					"type": "address"
				},
				{
					"internalType": "address",
					"name": "freelancer",
					"type": "address"
				},
				{
					"internalType": "uint256",
					"name": "totalAmount",
					"type": "uint256"
				},
				{
					"internalType": "enum Escrow.Status",
					"name": "status",
					"type": "uint8"
				}
			],
			"stateMutability": "view",
			"type": "function"
		},
		{
			"inputs": [],
			"name": "owner",
			"outputs": [
				{
					"internalType": "address",
					"name": "",
					"type": "address"
				}
			],
			"stateMutability": "view",
			"type": "function"
		},
		{
			"inputs": [
				{
					"internalType": "uint256",
					"name": "_jobId",
					"type": "uint256"
				},
				{
					"internalType": "uint256",
					"name": "_milestoneId",
					"type": "uint256"
				},
				{
					"internalType": "string",
					"name": "_reason",
					"type": "string"
				}
			],
			"name": "raiseDispute",
			"outputs": [],
			"stateMutability": "nonpayable",
			"type": "function"
		},
		{
			"inputs": [],
			"name": "renounceOwnership",
			"outputs": [],
			"stateMutability": "nonpayable",
			"type": "function"
		},
		{
			"inputs": [
				{
					"internalType": "bytes32",
					"name": "role",
					"type": "bytes32"
				},
				{
					"internalType": "address",
					"name": "callerConfirmation",
					"type": "address"
				}
			],
			"name": "renounceRole",
			"outputs": [],
			"stateMutability": "nonpayable",
			"type": "function"
		},
		{
			"inputs": [
				{
					"internalType": "uint256",
					"name": "_jobId",
					"type": "uint256"
				},
				{
					"internalType": "uint256",
					"name": "_milestoneId",
					"type": "uint256"
				},
				{
					"internalType": "bool",
					"name": "approve",
					"type": "bool"
				},
				{
					"internalType": "string",
					"name": "_outcome",
					"type": "string"
				}
			],
			"name": "resolveDispute",
			"outputs": [],
			"stateMutability": "nonpayable",
			"type": "function"
		},
		{
			"inputs": [
				{
					"internalType": "bytes32",
					"name": "role",
					"type": "bytes32"
				},
				{
					"internalType": "address",
					"name": "account",
					"type": "address"
				}
			],
			"name": "revokeRole",
			"outputs": [],
			"stateMutability": "nonpayable",
			"type": "function"
		},
		{
			"inputs": [
				{
					"internalType": "uint256",
					"name": "_jobId",
					"type": "uint256"
				},
				{
					"internalType": "uint256",
					"name": "_milestoneId",
					"type": "uint256"
				},
				{
					"internalType": "address",
					"name": "_freelancer",
					"type": "address"
				}
			],
			"name": "submitMilestone",
			"outputs": [],
			"stateMutability": "nonpayable",
			"type": "function"
		},
		{
			"inputs": [
				{
					"internalType": "bytes4",
					"name": "interfaceId",
					"type": "bytes4"
				}
			],
			"name": "supportsInterface",
			"outputs": [
				{
					"internalType": "bool",
					"name": "",
					"type": "bool"
				}
			],
			"stateMutability": "view",
			"type": "function"
		},
		{
			"inputs": [
				{
					"internalType": "address",
					"name": "newOwner",
					"type": "address"
				}
			],
			"name": "transferOwnership",
			"outputs": [],
			"stateMutability": "nonpayable",
			"type": "function"
		}
	]
}