{
	"data": {
		"bytecode": {
			"linkReferences": {},
			"object": "60a060405234801561000f575f5ffd5b506040518060400160405280600881526020017f4e6578546f6b656e0000000000000000000000000000000000000000000000008152506040518060400160405280600381526020017f4e58540000000000000000000000000000000000000000000000000000000000815250816003908161008b91906109d3565b50806004908161009b91906109d3565b5050506a115eec47f6cf7e35000000608081815250506100c33060805161016e60201b60201c565b6100d55f5f1b336101f360201b60201c565b506101067f77f9891d56176eda73ec2c03ceb0e5841f866a13623e6e8c5f3371e4dd628571336101f360201b60201c565b506101377f65d7a28e3265b37a6474929f336521b332c1681b933f6cb9f3376673440d862a336101f360201b60201c565b506101687f3c11d16cbaffd01df69ce1c404f6340ee057498f5f00246190ea54220576a848336101f360201b60201c565b50610c88565b5f73ffffffffffffffffffffffffffffffffffffffff168273ffffffffffffffffffffffffffffffffffffffff16036101de575f6040517fec442f050000000000000000000000000000000000000000000000000000000081526004016101d59190610ae1565b60405180910390fd5b6101ef5f83836102e960201b60201c565b5050565b5f610204838361049260201b60201c565b6102df57600160055f8581526020019081526020015f205f015f8473ffffffffffffffffffffffffffffffffffffffff1673ffffffffffffffffffffffffffffffffffffffff1681526020019081526020015f205f6101000a81548160ff02191690831515021790555061027c6104f660201b60201c565b73ffffffffffffffffffffffffffffffffffffffff168273ffffffffffffffffffffffffffffffffffffffff16847f2f8788117e7eff1d82e926ec794901d17c78024a50270940304540a733656f0d60405160405180910390a4600190506102e3565b5f90505b92915050565b5f670de0b6b3a7640000826102fe9190610b27565b905061030e6104fd60201b60201c565b801561034557505f73ffffffffffffffffffffffffffffffffffffffff168373ffffffffffffffffffffffffffffffffffffffff16145b801561037c57503073ffffffffffffffffffffffffffffffffffffffff168473ffffffffffffffffffffffffffffffffffffffff16145b80156103b457506103b37f3c11d16cbaffd01df69ce1c404f6340ee057498f5f00246190ea54220576a8483361049260201b60201c565b5b156103d0576103ca84848361051260201b60201c565b5061048d565b5f73ffffffffffffffffffffffffffffffffffffffff168373ffffffffffffffffffffffffffffffffffffffff16148061043557503073ffffffffffffffffffffffffffffffffffffffff168473ffffffffffffffffffffffffffffffffffffffff16145b1561044c5761044b84848361072b60201b60201c565b5b5f6103e860c88361045d9190610b27565b6104679190610b95565b90505f81836104769190610bc5565b905061048986868361072b60201b60201c565b5050505b505050565b5f60055f8481526020019081526020015f205f015f8373ffffffffffffffffffffffffffffffffffffffff1673ffffffffffffffffffffffffffffffffffffffff1681526020019081526020015f205f9054906101000a900460ff16905092915050565b5f33905090565b5f60065f9054906101000a900460ff16905090565b5f73ffffffffffffffffffffffffffffffffffffffff168373ffffffffffffffffffffffffffffffffffffffff1603610562578060025f8282546105569190610bf8565b92505081905550610630565b5f5f5f8573ffffffffffffffffffffffffffffffffffffffff1673ffffffffffffffffffffffffffffffffffffffff1681526020019081526020015f20549050818110156105eb578381836040517fe450d38c0000000000000000000000000000000000000000000000000000000081526004016105e293929190610c3a565b60405180910390fd5b8181035f5f8673ffffffffffffffffffffffffffffffffffffffff1673ffffffffffffffffffffffffffffffffffffffff1681526020019081526020015f2081905550505b5f73ffffffffffffffffffffffffffffffffffffffff168273ffffffffffffffffffffffffffffffffffffffff1603610677578060025f82825403925050819055506106c1565b805f5f8473ffffffffffffffffffffffffffffffffffffffff1673ffffffffffffffffffffffffffffffffffffffff1681526020019081526020015f205f82825401925050819055505b8173ffffffffffffffffffffffffffffffffffffffff168373ffffffffffffffffffffffffffffffffffffffff167fddf252ad1be2c89b69c2b068fc378daa952ba7f163c4a11628f55a4df523b3ef8360405161071e9190610c6f565b60405180910390a3505050565b61073961074f60201b60201c565b61074a83838361051260201b60201c565b505050565b61075d6104fd60201b60201c565b15610794576040517fd93c066500000000000000000000000000000000000000000000000000000000815260040160405180910390fd5b565b5f81519050919050565b7f4e487b71000000000000000000000000000000000000000000000000000000005f52604160045260245ffd5b7f4e487b71000000000000000000000000000000000000000000000000000000005f52602260045260245ffd5b5f600282049050600182168061081157607f821691505b602082108103610824576108236107cd565b5b50919050565b5f819050815f5260205f209050919050565b5f6020601f8301049050919050565b5f82821b905092915050565b5f600883026108867fffffffffffffffffffffffffffffffffffffffffffffffffffffffffffffffff8261084b565b610890868361084b565b95508019841693508086168417925050509392505050565b5f819050919050565b5f819050919050565b5f6108d46108cf6108ca846108a8565b6108b1565b6108a8565b9050919050565b5f819050919050565b6108ed836108ba565b6109016108f9826108db565b848454610857565b825550505050565b5f5f905090565b610918610909565b6109238184846108e4565b505050565b5b818110156109465761093b5f82610910565b600181019050610929565b5050565b601f82111561098b5761095c8161082a565b6109658461083c565b81016020851015610974578190505b6109886109808561083c565b830182610928565b50505b505050565b5f82821c905092915050565b5f6109ab5f1984600802610990565b1980831691505092915050565b5f6109c3838361099c565b9150826002028217905092915050565b6109dc82610796565b67ffffffffffffffff8111156109f5576109f46107a0565b5b6109ff82546107fa565b610a0a82828561094a565b5f60209050601f831160018114610a3b575f8415610a29578287015190505b610a3385826109b8565b865550610a9a565b601f198416610a498661082a565b5f5b82811015610a7057848901518255600182019150602085019450602081019050610a4b565b86831015610a8d5784890151610a89601f89168261099c565b8355505b6001600288020188555050505b505050505050565b5f73ffffffffffffffffffffffffffffffffffffffff82169050919050565b5f610acb82610aa2565b9050919050565b610adb81610ac1565b82525050565b5f602082019050610af45f830184610ad2565b92915050565b7f4e487b71000000000000000000000000000000000000000000000000000000005f52601160045260245ffd5b5f610b31826108a8565b9150610b3c836108a8565b9250828202610b4a816108a8565b91508282048414831517610b6157610b60610afa565b5b5092915050565b7f4e487b71000000000000000000000000000000000000000000000000000000005f52601260045260245ffd5b5f610b9f826108a8565b9150610baa836108a8565b925082610bba57610bb9610b68565b5b828204905092915050565b5f610bcf826108a8565b9150610bda836108a8565b9250828203905081811115610bf257610bf1610afa565b5b92915050565b5f610c02826108a8565b9150610c0d836108a8565b9250828201905080821115610c2557610c24610afa565b5b92915050565b610c34816108a8565b82525050565b5f606082019050610c4d5f830186610ad2565b610c5a6020830185610c2b565b610c676040830184610c2b565b949350505050565b5f602082019050610c825f830184610c2b565b92915050565b608051611f6a610c9d5f395f5050611f6a5ff3fe608060405234801561000f575f5ffd5b506004361061014b575f3560e01c806370a08231116100c1578063c204642c1161007a578063c204642c146103b1578063d547741f146103cd578063dd62ed3e146103e9578063dfff856814610419578063f7b188a514610435578063fb9321081461043f5761014b565b806370a08231146102db5780638456cb591461030b57806391d148541461031557806395d89b4114610345578063a217fddf14610363578063a9059cbb146103815761014b565b8063248a9ca311610113578063248a9ca31461021b5780632f2ff15d1461024b578063313ce5671461026757806336568abe14610285578063426e04b6146102a15780635c975abb146102bd5761014b565b806301ffc9a71461014f57806306fdde031461017f578063095ea7b31461019d57806318160ddd146101cd57806323b872dd146101eb575b5f5ffd5b61016960048036038101906101649190611812565b61045b565b6040516101769190611857565b60405180910390f35b6101876104d4565b60405161019491906118e0565b60405180910390f35b6101b760048036038101906101b2919061198d565b610564565b6040516101c49190611857565b60405180910390f35b6101d5610586565b6040516101e291906119da565b60405180910390f35b610205600480360381019061020091906119f3565b61058f565b6040516102129190611857565b60405180910390f35b61023560048036038101906102309190611a76565b6105bd565b6040516102429190611ab0565b60405180910390f35b61026560048036038101906102609190611ac9565b6105da565b005b61026f6105fc565b60405161027c9190611b22565b60405180910390f35b61029f600480360381019061029a9190611ac9565b610604565b005b6102bb60048036038101906102b6919061198d565b61067f565b005b6102c56106cc565b6040516102d29190611857565b60405180910390f35b6102f560048036038101906102f09190611b3b565b6106e1565b60405161030291906119da565b60405180910390f35b610313610726565b005b61032f600480360381019061032a9190611ac9565b61075b565b60405161033c9190611857565b60405180910390f35b61034d6107bf565b60405161035a91906118e0565b60405180910390f35b61036b61084f565b6040516103789190611ab0565b60405180910390f35b61039b6004803603810190610396919061198d565b610855565b6040516103a89190611857565b60405180910390f35b6103cb60048036038101906103c69190611bc7565b610877565b005b6103e760048036038101906103e29190611ac9565b610968565b005b61040360048036038101906103fe9190611c24565b61098a565b60405161041091906119da565b60405180910390f35b610433600480360381019061042e9190611c62565b610a0c565b005b61043d610aed565b005b6104596004803603810190610454919061198d565b610b22565b005b5f7f7965db0b000000000000000000000000000000000000000000000000000000007bffffffffffffffffffffffffffffffffffffffffffffffffffffffff1916827bffffffffffffffffffffffffffffffffffffffffffffffffffffffff191614806104cd57506104cc82610c29565b5b9050919050565b6060600380546104e390611cba565b80601f016020809104026020016040519081016040528092919081815260200182805461050f90611cba565b801561055a5780601f106105315761010080835404028352916020019161055a565b820191905f5260205f20905b81548152906001019060200180831161053d57829003601f168201915b5050505050905090565b5f5f61056e610c92565b905061057b818585610c99565b600191505092915050565b5f600254905090565b5f5f610599610c92565b90506105a6858285610cab565b6105b1858585610d3e565b60019150509392505050565b5f60055f8381526020019081526020015f20600101549050919050565b6105e3826105bd565b6105ec81610e2e565b6105f68383610e42565b50505050565b5f6012905090565b61060c610c92565b73ffffffffffffffffffffffffffffffffffffffff168173ffffffffffffffffffffffffffffffffffffffff1614610670576040517f6697b23200000000000000000000000000000000000000000000000000000000815260040160405180910390fd5b61067a8282610f2c565b505050565b7f77f9891d56176eda73ec2c03ceb0e5841f866a13623e6e8c5f3371e4dd6285716106a981610e2e565b6106c73084670de0b6b3a7640000856106c29190611d17565b610d3e565b505050565b5f60065f9054906101000a900460ff16905090565b5f5f5f8373ffffffffffffffffffffffffffffffffffffffff1673ffffffffffffffffffffffffffffffffffffffff1681526020019081526020015f20549050919050565b7f65d7a28e3265b37a6474929f336521b332c1681b933f6cb9f3376673440d862a61075081610e2e565b610758611016565b50565b5f60055f8481526020019081526020015f205f015f8373ffffffffffffffffffffffffffffffffffffffff1673ffffffffffffffffffffffffffffffffffffffff1681526020019081526020015f205f9054906101000a900460ff16905092915050565b6060600480546107ce90611cba565b80601f01602080910402602001604051908101604052809291908181526020018280546107fa90611cba565b80156108455780601f1061081c57610100808354040283529160200191610845565b820191905f5260205f20905b81548152906001019060200180831161082857829003601f168201915b5050505050905090565b5f5f1b81565b5f5f61085f610c92565b905061086c818585610d3e565b600191505092915050565b7f77f9891d56176eda73ec2c03ceb0e5841f866a13623e6e8c5f3371e4dd6285716108a181610e2e565b5f670de0b6b3a7640000836108b69190611d17565b905084849050816108c79190611d17565b6108d0306106e1565b1015610911576040517f08c379a000000000000000000000000000000000000000000000000000000000815260040161090890611da2565b60405180910390fd5b5f5f90505b85859050811015610960576109533087878481811061093857610937611dc0565b5b905060200201602081019061094d9190611b3b565b84610d3e565b8080600101915050610916565b505050505050565b610971826105bd565b61097a81610e2e565b6109848383610f2c565b50505050565b5f60015f8473ffffffffffffffffffffffffffffffffffffffff1673ffffffffffffffffffffffffffffffffffffffff1681526020019081526020015f205f8373ffffffffffffffffffffffffffffffffffffffff1673ffffffffffffffffffffffffffffffffffffffff1681526020019081526020015f2054905092915050565b7f3c11d16cbaffd01df69ce1c404f6340ee057498f5f00246190ea54220576a848610a3681610e2e565b610a3e611078565b5f670de0b6b3a764000083610a539190611d17565b03610a8a576040517f6e0ccc0700000000000000000000000000000000000000000000000000000000815260040160405180910390fd5b81610a94306106e1565b1015610acc576040517f6e0ccc0700000000000000000000000000000000000000000000000000000000815260040160405180910390fd5b610ae930670de0b6b3a764000084610ae49190611d17565b6110b8565b5050565b7f65d7a28e3265b37a6474929f336521b332c1681b933f6cb9f3376673440d862a610b1781610e2e565b610b1f611137565b50565b7f77f9891d56176eda73ec2c03ceb0e5841f866a13623e6e8c5f3371e4dd628571610b4c81610e2e565b5f73ffffffffffffffffffffffffffffffffffffffff168373ffffffffffffffffffffffffffffffffffffffff1603610bb1576040517f3efa09af00000000000000000000000000000000000000000000000000000000815260040160405180910390fd5b610bba306106e1565b670de0b6b3a764000083610bce9190611d17565b1115610c06576040517fe2969e3100000000000000000000000000000000000000000000000000000000815260040160405180910390fd5b610c243084670de0b6b3a764000085610c1f9190611d17565b610d3e565b505050565b5f7f01ffc9a7000000000000000000000000000000000000000000000000000000007bffffffffffffffffffffffffffffffffffffffffffffffffffffffff1916827bffffffffffffffffffffffffffffffffffffffffffffffffffffffff1916149050919050565b5f33905090565b610ca68383836001611198565b505050565b5f610cb6848461098a565b90507fffffffffffffffffffffffffffffffffffffffffffffffffffffffffffffffff811015610d385781811015610d29578281836040517ffb8f41b2000000000000000000000000000000000000000000000000000000008152600401610d2093929190611dfc565b60405180910390fd5b610d3784848484035f611198565b5b50505050565b5f73ffffffffffffffffffffffffffffffffffffffff168373ffffffffffffffffffffffffffffffffffffffff1603610dae575f6040517f96c6fd1e000000000000000000000000000000000000000000000000000000008152600401610da59190611e31565b60405180910390fd5b5f73ffffffffffffffffffffffffffffffffffffffff168273ffffffffffffffffffffffffffffffffffffffff1603610e1e575f6040517fec442f05000000000000000000000000000000000000000000000000000000008152600401610e159190611e31565b60405180910390fd5b610e29838383611367565b505050565b610e3f81610e3a610c92565b6114f2565b50565b5f610e4d838361075b565b610f2257600160055f8581526020019081526020015f205f015f8473ffffffffffffffffffffffffffffffffffffffff1673ffffffffffffffffffffffffffffffffffffffff1681526020019081526020015f205f6101000a81548160ff021916908315150217905550610ebf610c92565b73ffffffffffffffffffffffffffffffffffffffff168273ffffffffffffffffffffffffffffffffffffffff16847f2f8788117e7eff1d82e926ec794901d17c78024a50270940304540a733656f0d60405160405180910390a460019050610f26565b5f90505b92915050565b5f610f37838361075b565b1561100c575f60055f8581526020019081526020015f205f015f8473ffffffffffffffffffffffffffffffffffffffff1673ffffffffffffffffffffffffffffffffffffffff1681526020019081526020015f205f6101000a81548160ff021916908315150217905550610fa9610c92565b73ffffffffffffffffffffffffffffffffffffffff168273ffffffffffffffffffffffffffffffffffffffff16847ff6391f5c32d9c69d2a47ea670b442974b53935d1edc7fd64eb21e047a839171b60405160405180910390a460019050611010565b5f90505b92915050565b61101e611543565b600160065f6101000a81548160ff0219169083151502179055507f62e78cea01bee320cd4e420270b5ea74000d11b0c9f74754ebdbfc544b05a258611061610c92565b60405161106e9190611e31565b60405180910390a1565b6110806106cc565b6110b6576040517f8dfc202b00000000000000000000000000000000000000000000000000000000815260040160405180910390fd5b565b5f73ffffffffffffffffffffffffffffffffffffffff168273ffffffffffffffffffffffffffffffffffffffff1603611128575f6040517f96c6fd1e00000000000000000000000000000000000000000000000000000000815260040161111f9190611e31565b60405180910390fd5b611133825f83611367565b5050565b61113f611078565b5f60065f6101000a81548160ff0219169083151502179055507f5db9ee0a495bf2e6ff9c91a7834c1ba4fdd244a5e8aa4e537bd38aeae4b073aa611181610c92565b60405161118e9190611e31565b60405180910390a1565b5f73ffffffffffffffffffffffffffffffffffffffff168473ffffffffffffffffffffffffffffffffffffffff1603611208575f6040517fe602df050000000000000000000000000000000000000000000000000000000081526004016111ff9190611e31565b60405180910390fd5b5f73ffffffffffffffffffffffffffffffffffffffff168373ffffffffffffffffffffffffffffffffffffffff1603611278575f6040517f94280d6200000000000000000000000000000000000000000000000000000000815260040161126f9190611e31565b60405180910390fd5b8160015f8673ffffffffffffffffffffffffffffffffffffffff1673ffffffffffffffffffffffffffffffffffffffff1681526020019081526020015f205f8573ffffffffffffffffffffffffffffffffffffffff1673ffffffffffffffffffffffffffffffffffffffff1681526020019081526020015f20819055508015611361578273ffffffffffffffffffffffffffffffffffffffff168473ffffffffffffffffffffffffffffffffffffffff167f8c5be1e5ebec7d5bd14f71427d1e84f3dd0314c0f7b2291e5b200ac8c7c3b9258460405161135891906119da565b60405180910390a35b50505050565b5f670de0b6b3a76400008261137c9190611d17565b90506113866106cc565b80156113bd57505f73ffffffffffffffffffffffffffffffffffffffff168373ffffffffffffffffffffffffffffffffffffffff16145b80156113f457503073ffffffffffffffffffffffffffffffffffffffff168473ffffffffffffffffffffffffffffffffffffffff16145b801561142657506114257f3c11d16cbaffd01df69ce1c404f6340ee057498f5f00246190ea54220576a8483361075b565b5b1561143c57611436848483611584565b506114ed565b5f73ffffffffffffffffffffffffffffffffffffffff168373ffffffffffffffffffffffffffffffffffffffff1614806114a157503073ffffffffffffffffffffffffffffffffffffffff168473ffffffffffffffffffffffffffffffffffffffff16145b156114b2576114b184848361179d565b5b5f6103e860c8836114c39190611d17565b6114cd9190611e77565b90505f81836114dc9190611ea7565b90506114e986868361179d565b5050505b505050565b6114fc828261075b565b61153f5780826040517fe2517d3f000000000000000000000000000000000000000000000000000000008152600401611536929190611eda565b60405180910390fd5b5050565b61154b6106cc565b15611582576040517fd93c066500000000000000000000000000000000000000000000000000000000815260040160405180910390fd5b565b5f73ffffffffffffffffffffffffffffffffffffffff168373ffffffffffffffffffffffffffffffffffffffff16036115d4578060025f8282546115c89190611f01565b925050819055506116a2565b5f5f5f8573ffffffffffffffffffffffffffffffffffffffff1673ffffffffffffffffffffffffffffffffffffffff1681526020019081526020015f205490508181101561165d578381836040517fe450d38c00000000000000000000000000000000000000000000000000000000815260040161165493929190611dfc565b60405180910390fd5b8181035f5f8673ffffffffffffffffffffffffffffffffffffffff1673ffffffffffffffffffffffffffffffffffffffff1681526020019081526020015f2081905550505b5f73ffffffffffffffffffffffffffffffffffffffff168273ffffffffffffffffffffffffffffffffffffffff16036116e9578060025f8282540392505081905550611733565b805f5f8473ffffffffffffffffffffffffffffffffffffffff1673ffffffffffffffffffffffffffffffffffffffff1681526020019081526020015f205f82825401925050819055505b8173ffffffffffffffffffffffffffffffffffffffff168373ffffffffffffffffffffffffffffffffffffffff167fddf252ad1be2c89b69c2b068fc378daa952ba7f163c4a11628f55a4df523b3ef8360405161179091906119da565b60405180910390a3505050565b6117a5611543565b6117b0838383611584565b505050565b5f5ffd5b5f5ffd5b5f7fffffffff0000000000000000000000000000000000000000000000000000000082169050919050565b6117f1816117bd565b81146117fb575f5ffd5b50565b5f8135905061180c816117e8565b92915050565b5f60208284031215611827576118266117b5565b5b5f611834848285016117fe565b91505092915050565b5f8115159050919050565b6118518161183d565b82525050565b5f60208201905061186a5f830184611848565b92915050565b5f81519050919050565b5f82825260208201905092915050565b8281835e5f83830152505050565b5f601f19601f8301169050919050565b5f6118b282611870565b6118bc818561187a565b93506118cc81856020860161188a565b6118d581611898565b840191505092915050565b5f6020820190508181035f8301526118f881846118a8565b905092915050565b5f73ffffffffffffffffffffffffffffffffffffffff82169050919050565b5f61192982611900565b9050919050565b6119398161191f565b8114611943575f5ffd5b50565b5f8135905061195481611930565b92915050565b5f819050919050565b61196c8161195a565b8114611976575f5ffd5b50565b5f8135905061198781611963565b92915050565b5f5f604083850312156119a3576119a26117b5565b5b5f6119b085828601611946565b92505060206119c185828601611979565b9150509250929050565b6119d48161195a565b82525050565b5f6020820190506119ed5f8301846119cb565b92915050565b5f5f5f60608486031215611a0a57611a096117b5565b5b5f611a1786828701611946565b9350506020611a2886828701611946565b9250506040611a3986828701611979565b9150509250925092565b5f819050919050565b611a5581611a43565b8114611a5f575f5ffd5b50565b5f81359050611a7081611a4c565b92915050565b5f60208284031215611a8b57611a8a6117b5565b5b5f611a9884828501611a62565b91505092915050565b611aaa81611a43565b82525050565b5f602082019050611ac35f830184611aa1565b92915050565b5f5f60408385031215611adf57611ade6117b5565b5b5f611aec85828601611a62565b9250506020611afd85828601611946565b9150509250929050565b5f60ff82169050919050565b611b1c81611b07565b82525050565b5f602082019050611b355f830184611b13565b92915050565b5f60208284031215611b5057611b4f6117b5565b5b5f611b5d84828501611946565b91505092915050565b5f5ffd5b5f5ffd5b5f5ffd5b5f5f83601f840112611b8757611b86611b66565b5b8235905067ffffffffffffffff811115611ba457611ba3611b6a565b5b602083019150836020820283011115611bc057611bbf611b6e565b5b9250929050565b5f5f5f60408486031215611bde57611bdd6117b5565b5b5f84013567ffffffffffffffff811115611bfb57611bfa6117b9565b5b611c0786828701611b72565b93509350506020611c1a86828701611979565b9150509250925092565b5f5f60408385031215611c3a57611c396117b5565b5b5f611c4785828601611946565b9250506020611c5885828601611946565b9150509250929050565b5f60208284031215611c7757611c766117b5565b5b5f611c8484828501611979565b91505092915050565b7f4e487b71000000000000000000000000000000000000000000000000000000005f52602260045260245ffd5b5f6002820490506001821680611cd157607f821691505b602082108103611ce457611ce3611c8d565b5b50919050565b7f4e487b71000000000000000000000000000000000000000000000000000000005f52601160045260245ffd5b5f611d218261195a565b9150611d2c8361195a565b9250828202611d3a8161195a565b91508282048414831517611d5157611d50611cea565b5b5092915050565b7f4e6f7420456e6f75676820546f6b656e20696e20436f6e7472616374000000005f82015250565b5f611d8c601c8361187a565b9150611d9782611d58565b602082019050919050565b5f6020820190508181035f830152611db981611d80565b9050919050565b7f4e487b71000000000000000000000000000000000000000000000000000000005f52603260045260245ffd5b611df68161191f565b82525050565b5f606082019050611e0f5f830186611ded565b611e1c60208301856119cb565b611e2960408301846119cb565b949350505050565b5f602082019050611e445f830184611ded565b92915050565b7f4e487b71000000000000000000000000000000000000000000000000000000005f52601260045260245ffd5b5f611e818261195a565b9150611e8c8361195a565b925082611e9c57611e9b611e4a565b5b828204905092915050565b5f611eb18261195a565b9150611ebc8361195a565b9250828203905081811115611ed457611ed3611cea565b5b92915050565b5f604082019050611eed5f830185611ded565b611efa6020830184611aa1565b9392505050565b5f611f0b8261195a565b9150611f168361195a565b9250828201905080821115611f2e57611f2d611cea565b5b9291505056fea2646970667358221220f22c7fb3ba4f59ba85cf2709e7108a4e99e754c45fde57341aeb2e6e96b270c564736f6c634300081e0033",
			"opcodes": "PUSH1 0xA0 PUSH1 0x40 MSTORE CALLVALUE DUP1 ISZERO PUSH2 0xF JUMPI PUSH0 PUSH0 REVERT JUMPDEST POP PUSH1 0x40 MLOAD DUP1 PUSH1 0x40 ADD PUSH1 0x40 MSTORE DUP1 PUSH1 0x8 DUP2 MSTORE PUSH1 0x20 ADD PUSH32 0x4E6578546F6B656E000000000000000000000000000000000000000000000000 DUP2 MSTORE POP PUSH1 0x40 MLOAD DUP1 PUSH1 0x40 ADD PUSH1 0x40 MSTORE DUP1 PUSH1 0x3 DUP2 MSTORE PUSH1 0x20 ADD PUSH32 0x4E58540000000000000000000000000000000000000000000000000000000000 DUP2 MSTORE POP DUP2 PUSH1 0x3 SWAP1 DUP2 PUSH2 0x8B SWAP2 SWAP1 PUSH2 0x9D3 JUMP JUMPDEST POP DUP1 PUSH1 0x4 SWAP1 DUP2 PUSH2 0x9B SWAP2 SWAP1 PUSH2 0x9D3 JUMP JUMPDEST POP POP POP PUSH11 0x115EEC47F6CF7E35000000 PUSH1 0x80 DUP2 DUP2 MSTORE POP POP PUSH2 0xC3 ADDRESS PUSH1 0x80 MLOAD PUSH2 0x16E PUSH1 0x20 SHL PUSH1 0x20 SHR JUMP JUMPDEST PUSH2 0xD5 PUSH0 PUSH0 SHL CALLER PUSH2 0x1F3 PUSH1 0x20 SHL PUSH1 0x20 SHR JUMP JUMPDEST POP PUSH2 0x106 PUSH32 0x77F9891D56176EDA73EC2C03CEB0E5841F866A13623E6E8C5F3371E4DD628571 CALLER PUSH2 0x1F3 PUSH1 0x20 SHL PUSH1 0x20 SHR JUMP JUMPDEST POP PUSH2 0x137 PUSH32 0x65D7A28E3265B37A6474929F336521B332C1681B933F6CB9F3376673440D862A CALLER PUSH2 0x1F3 PUSH1 0x20 SHL PUSH1 0x20 SHR JUMP JUMPDEST POP PUSH2 0x168 PUSH32 0x3C11D16CBAFFD01DF69CE1C404F6340EE057498F5F00246190EA54220576A848 CALLER PUSH2 0x1F3 PUSH1 0x20 SHL PUSH1 0x20 SHR JUMP JUMPDEST POP PUSH2 0xC88 JUMP JUMPDEST PUSH0 PUSH20 0xFFFFFFFFFFFFFFFFFFFFFFFFFFFFFFFFFFFFFFFF AND DUP3 PUSH20 0xFFFFFFFFFFFFFFFFFFFFFFFFFFFFFFFFFFFFFFFF AND SUB PUSH2 0x1DE JUMPI PUSH0 PUSH1 0x40 MLOAD PUSH32 0xEC442F0500000000000000000000000000000000000000000000000000000000 DUP2 MSTORE PUSH1 0x4 ADD PUSH2 0x1D5 SWAP2 SWAP1 PUSH2 0xAE1 JUMP JUMPDEST PUSH1 0x40 MLOAD DUP1 SWAP2 SUB SWAP1 REVERT JUMPDEST PUSH2 0x1EF PUSH0 DUP4 DUP4 PUSH2 0x2E9 PUSH1 0x20 SHL PUSH1 0x20 SHR JUMP JUMPDEST POP POP JUMP JUMPDEST PUSH0 PUSH2 0x204 DUP4 DUP4 PUSH2 0x492 PUSH1 0x20 SHL PUSH1 0x20 SHR JUMP JUMPDEST PUSH2 0x2DF JUMPI PUSH1 0x1 PUSH1 0x5 PUSH0 DUP6 DUP2 MSTORE PUSH1 0x20 ADD SWAP1 DUP2 MSTORE PUSH1 0x20 ADD PUSH0 KECCAK256 PUSH0 ADD PUSH0 DUP5 PUSH20 0xFFFFFFFFFFFFFFFFFFFFFFFFFFFFFFFFFFFFFFFF AND PUSH20 0xFFFFFFFFFFFFFFFFFFFFFFFFFFFFFFFFFFFFFFFF AND DUP2 MSTORE PUSH1 0x20 ADD SWAP1 DUP2 MSTORE PUSH1 0x20 ADD PUSH0 KECCAK256 PUSH0 PUSH2 0x100 EXP DUP2 SLOAD DUP2 PUSH1 0xFF MUL NOT AND SWAP1 DUP4 ISZERO ISZERO MUL OR SWAP1 SSTORE POP PUSH2 0x27C PUSH2 0x4F6 PUSH1 0x20 SHL PUSH1 0x20 SHR JUMP JUMPDEST PUSH20 0xFFFFFFFFFFFFFFFFFFFFFFFFFFFFFFFFFFFFFFFF AND DUP3 PUSH20 0xFFFFFFFFFFFFFFFFFFFFFFFFFFFFFFFFFFFFFFFF AND DUP5 PUSH32 0x2F8788117E7EFF1D82E926EC794901D17C78024A50270940304540A733656F0D PUSH1 0x40 MLOAD PUSH1 0x40 MLOAD DUP1 SWAP2 SUB SWAP1 LOG4 PUSH1 0x1 SWAP1 POP PUSH2 0x2E3 JUMP JUMPDEST PUSH0 SWAP1 POP JUMPDEST SWAP3 SWAP2 POP POP JUMP JUMPDEST PUSH0 PUSH8 0xDE0B6B3A7640000 DUP3 PUSH2 0x2FE SWAP2 SWAP1 PUSH2 0xB27 JUMP JUMPDEST SWAP1 POP PUSH2 0x30E PUSH2 0x4FD PUSH1 0x20 SHL PUSH1 0x20 SHR JUMP JUMPDEST DUP1 ISZERO PUSH2 0x345 JUMPI POP PUSH0 PUSH20 0xFFFFFFFFFFFFFFFFFFFFFFFFFFFFFFFFFFFFFFFF AND DUP4 PUSH20 0xFFFFFFFFFFFFFFFFFFFFFFFFFFFFFFFFFFFFFFFF AND EQ JUMPDEST DUP1 ISZERO PUSH2 0x37C JUMPI POP ADDRESS PUSH20 0xFFFFFFFFFFFFFFFFFFFFFFFFFFFFFFFFFFFFFFFF AND DUP5 PUSH20 0xFFFFFFFFFFFFFFFFFFFFFFFFFFFFFFFFFFFFFFFF AND EQ JUMPDEST DUP1 ISZERO PUSH2 0x3B4 JUMPI POP PUSH2 0x3B3 PUSH32 0x3C11D16CBAFFD01DF69CE1C404F6340EE057498F5F00246190EA54220576A848 CALLER PUSH2 0x492 PUSH1 0x20 SHL PUSH1 0x20 SHR JUMP JUMPDEST JUMPDEST ISZERO PUSH2 0x3D0 JUMPI PUSH2 0x3CA DUP5 DUP5 DUP4 PUSH2 0x512 PUSH1 0x20 SHL PUSH1 0x20 SHR JUMP JUMPDEST POP PUSH2 0x48D JUMP JUMPDEST PUSH0 PUSH20 0xFFFFFFFFFFFFFFFFFFFFFFFFFFFFFFFFFFFFFFFF AND DUP4 PUSH20 0xFFFFFFFFFFFFFFFFFFFFFFFFFFFFFFFFFFFFFFFF AND EQ DUP1 PUSH2 0x435 JUMPI POP ADDRESS PUSH20 0xFFFFFFFFFFFFFFFFFFFFFFFFFFFFFFFFFFFFFFFF AND DUP5 PUSH20 0xFFFFFFFFFFFFFFFFFFFFFFFFFFFFFFFFFFFFFFFF AND EQ JUMPDEST ISZERO PUSH2 0x44C JUMPI PUSH2 0x44B DUP5 DUP5 DUP4 PUSH2 0x72B PUSH1 0x20 SHL PUSH1 0x20 SHR JUMP JUMPDEST JUMPDEST PUSH0 PUSH2 0x3E8 PUSH1 0xC8 DUP4 PUSH2 0x45D SWAP2 SWAP1 PUSH2 0xB27 JUMP JUMPDEST PUSH2 0x467 SWAP2 SWAP1 PUSH2 0xB95 JUMP JUMPDEST SWAP1 POP PUSH0 DUP2 DUP4 PUSH2 0x476 SWAP2 SWAP1 PUSH2 0xBC5 JUMP JUMPDEST SWAP1 POP PUSH2 0x489 DUP7 DUP7 DUP4 PUSH2 0x72B PUSH1 0x20 SHL PUSH1 0x20 SHR JUMP JUMPDEST POP POP POP JUMPDEST POP POP POP JUMP JUMPDEST PUSH0 PUSH1 0x5 PUSH0 DUP5 DUP2 MSTORE PUSH1 0x20 ADD SWAP1 DUP2 MSTORE PUSH1 0x20 ADD PUSH0 KECCAK256 PUSH0 ADD PUSH0 DUP4 PUSH20 0xFFFFFFFFFFFFFFFFFFFFFFFFFFFFFFFFFFFFFFFF AND PUSH20 0xFFFFFFFFFFFFFFFFFFFFFFFFFFFFFFFFFFFFFFFF AND DUP2 MSTORE PUSH1 0x20 ADD SWAP1 DUP2 MSTORE PUSH1 0x20 ADD PUSH0 KECCAK256 PUSH0 SWAP1 SLOAD SWAP1 PUSH2 0x100 EXP SWAP1 DIV PUSH1 0xFF AND SWAP1 POP SWAP3 SWAP2 POP POP JUMP JUMPDEST PUSH0 CALLER SWAP1 POP SWAP1 JUMP JUMPDEST PUSH0 PUSH1 0x6 PUSH0 SWAP1 SLOAD SWAP1 PUSH2 0x100 EXP SWAP1 DIV PUSH1 0xFF AND SWAP1 POP SWAP1 JUMP JUMPDEST PUSH0 PUSH20 0xFFFFFFFFFFFFFFFFFFFFFFFFFFFFFFFFFFFFFFFF AND DUP4 PUSH20 0xFFFFFFFFFFFFFFFFFFFFFFFFFFFFFFFFFFFFFFFF AND SUB PUSH2 0x562 JUMPI DUP1 PUSH1 0x2 PUSH0 DUP3 DUP3 SLOAD PUSH2 0x556 SWAP2 SWAP1 PUSH2 0xBF8 JUMP JUMPDEST SWAP3 POP POP DUP2 SWAP1 SSTORE POP PUSH2 0x630 JUMP JUMPDEST PUSH0 PUSH0 PUSH0 DUP6 PUSH20 0xFFFFFFFFFFFFFFFFFFFFFFFFFFFFFFFFFFFFFFFF AND PUSH20 0xFFFFFFFFFFFFFFFFFFFFFFFFFFFFFFFFFFFFFFFF AND DUP2 MSTORE PUSH1 0x20 ADD SWAP1 DUP2 MSTORE PUSH1 0x20 ADD PUSH0 KECCAK256 SLOAD SWAP1 POP DUP2 DUP2 LT ISZERO PUSH2 0x5EB JUMPI DUP4 DUP2 DUP4 PUSH1 0x40 MLOAD PUSH32 0xE450D38C00000000000000000000000000000000000000000000000000000000 DUP2 MSTORE PUSH1 0x4 ADD PUSH2 0x5E2 SWAP4 SWAP3 SWAP2 SWAP1 PUSH2 0xC3A JUMP JUMPDEST PUSH1 0x40 MLOAD DUP1 SWAP2 SUB SWAP1 REVERT JUMPDEST DUP2 DUP2 SUB PUSH0 PUSH0 DUP7 PUSH20 0xFFFFFFFFFFFFFFFFFFFFFFFFFFFFFFFFFFFFFFFF AND PUSH20 0xFFFFFFFFFFFFFFFFFFFFFFFFFFFFFFFFFFFFFFFF AND DUP2 MSTORE PUSH1 0x20 ADD SWAP1 DUP2 MSTORE PUSH1 0x20 ADD PUSH0 KECCAK256 DUP2 SWAP1 SSTORE POP POP JUMPDEST PUSH0 PUSH20 0xFFFFFFFFFFFFFFFFFFFFFFFFFFFFFFFFFFFFFFFF AND DUP3 PUSH20 0xFFFFFFFFFFFFFFFFFFFFFFFFFFFFFFFFFFFFFFFF AND SUB PUSH2 0x677 JUMPI DUP1 PUSH1 0x2 PUSH0 DUP3 DUP3 SLOAD SUB SWAP3 POP POP DUP2 SWAP1 SSTORE POP PUSH2 0x6C1 JUMP JUMPDEST DUP1 PUSH0 PUSH0 DUP5 PUSH20 0xFFFFFFFFFFFFFFFFFFFFFFFFFFFFFFFFFFFFFFFF AND PUSH20 0xFFFFFFFFFFFFFFFFFFFFFFFFFFFFFFFFFFFFFFFF AND DUP2 MSTORE PUSH1 0x20 ADD SWAP1 DUP2 MSTORE PUSH1 0x20 ADD PUSH0 KECCAK256 PUSH0 DUP3 DUP3 SLOAD ADD SWAP3 POP POP DUP2 SWAP1 SSTORE POP JUMPDEST DUP2 PUSH20 0xFFFFFFFFFFFFFFFFFFFFFFFFFFFFFFFFFFFFFFFF AND DUP4 PUSH20 0xFFFFFFFFFFFFFFFFFFFFFFFFFFFFFFFFFFFFFFFF AND PUSH32 0xDDF252AD1BE2C89B69C2B068FC378DAA952BA7F163C4A11628F55A4DF523B3EF DUP4 PUSH1 0x40 MLOAD PUSH2 0x71E SWAP2 SWAP1 PUSH2 0xC6F JUMP JUMPDEST PUSH1 0x40 MLOAD DUP1 SWAP2 SUB SWAP1 LOG3 POP POP POP JUMP JUMPDEST PUSH2 0x739 PUSH2 0x74F PUSH1 0x20 SHL PUSH1 0x20 SHR JUMP JUMPDEST PUSH2 0x74A DUP4 DUP4 DUP4 PUSH2 0x512 PUSH1 0x20 SHL PUSH1 0x20 SHR JUMP JUMPDEST POP POP POP JUMP JUMPDEST PUSH2 0x75D PUSH2 0x4FD PUSH1 0x20 SHL PUSH1 0x20 SHR JUMP JUMPDEST ISZERO PUSH2 0x794 JUMPI PUSH1 0x40 MLOAD PUSH32 0xD93C066500000000000000000000000000000000000000000000000000000000 DUP2 MSTORE PUSH1 0x4 ADD PUSH1 0x40 MLOAD DUP1 SWAP2 SUB SWAP1 REVERT JUMPDEST JUMP JUMPDEST PUSH0 DUP2 MLOAD SWAP1 POP SWAP2 SWAP1 POP JUMP JUMPDEST PUSH32 0x4E487B7100000000000000000000000000000000000000000000000000000000 PUSH0 MSTORE PUSH1 0x41 PUSH1 0x4 MSTORE PUSH1 0x24 PUSH0 REVERT JUMPDEST PUSH32 0x4E487B7100000000000000000000000000000000000000000000000000000000 PUSH0 MSTORE PUSH1 0x22 PUSH1 0x4 MSTORE PUSH1 0x24 PUSH0 REVERT JUMPDEST PUSH0 PUSH1 0x2 DUP3 DIV SWAP1 POP PUSH1 0x1 DUP3 AND DUP1 PUSH2 0x811 JUMPI PUSH1 0x7F DUP3 AND SWAP2 POP JUMPDEST PUSH1 0x20 DUP3 LT DUP2 SUB PUSH2 0x824 JUMPI PUSH2 0x823 PUSH2 0x7CD JUMP JUMPDEST JUMPDEST POP SWAP2 SWAP1 POP JUMP JUMPDEST PUSH0 DUP2 SWAP1 POP DUP2 PUSH0 MSTORE PUSH1 0x20 PUSH0 KECCAK256 SWAP1 POP SWAP2 SWAP1 POP JUMP JUMPDEST PUSH0 PUSH1 0x20 PUSH1 0x1F DUP4 ADD DIV SWAP1 POP SWAP2 SWAP1 POP JUMP JUMPDEST PUSH0 DUP3 DUP3 SHL SWAP1 POP SWAP3 SWAP2 POP POP JUMP JUMPDEST PUSH0 PUSH1 0x8 DUP4 MUL PUSH2 0x886 PUSH32 0xFFFFFFFFFFFFFFFFFFFFFFFFFFFFFFFFFFFFFFFFFFFFFFFFFFFFFFFFFFFFFFFF DUP3 PUSH2 0x84B JUMP JUMPDEST PUSH2 0x890 DUP7 DUP4 PUSH2 0x84B JUMP JUMPDEST SWAP6 POP DUP1 NOT DUP5 AND SWAP4 POP DUP1 DUP7 AND DUP5 OR SWAP3 POP POP POP SWAP4 SWAP3 POP POP POP JUMP JUMPDEST PUSH0 DUP2 SWAP1 POP SWAP2 SWAP1 POP JUMP JUMPDEST PUSH0 DUP2 SWAP1 POP SWAP2 SWAP1 POP JUMP JUMPDEST PUSH0 PUSH2 0x8D4 PUSH2 0x8CF PUSH2 0x8CA DUP5 PUSH2 0x8A8 JUMP JUMPDEST PUSH2 0x8B1 JUMP JUMPDEST PUSH2 0x8A8 JUMP JUMPDEST SWAP1 POP SWAP2 SWAP1 POP JUMP JUMPDEST PUSH0 DUP2 SWAP1 POP SWAP2 SWAP1 POP JUMP JUMPDEST PUSH2 0x8ED DUP4 PUSH2 0x8BA JUMP JUMPDEST PUSH2 0x901 PUSH2 0x8F9 DUP3 PUSH2 0x8DB JUMP JUMPDEST DUP5 DUP5 SLOAD PUSH2 0x857 JUMP JUMPDEST DUP3 SSTORE POP POP POP POP JUMP JUMPDEST PUSH0 PUSH0 SWAP1 POP SWAP1 JUMP JUMPDEST PUSH2 0x918 PUSH2 0x909 JUMP JUMPDEST PUSH2 0x923 DUP2 DUP5 DUP5 PUSH2 0x8E4 JUMP JUMPDEST POP POP POP JUMP JUMPDEST JUMPDEST DUP2 DUP2 LT ISZERO PUSH2 0x946 JUMPI PUSH2 0x93B PUSH0 DUP3 PUSH2 0x910 JUMP JUMPDEST PUSH1 0x1 DUP2 ADD SWAP1 POP PUSH2 0x929 JUMP JUMPDEST POP POP JUMP JUMPDEST PUSH1 0x1F DUP3 GT ISZERO PUSH2 0x98B JUMPI PUSH2 0x95C DUP2 PUSH2 0x82A JUMP JUMPDEST PUSH2 0x965 DUP5 PUSH2 0x83C JUMP JUMPDEST DUP2 ADD PUSH1 0x20 DUP6 LT ISZERO PUSH2 0x974 JUMPI DUP2 SWAP1 POP JUMPDEST PUSH2 0x988 PUSH2 0x980 DUP6 PUSH2 0x83C JUMP JUMPDEST DUP4 ADD DUP3 PUSH2 0x928 JUMP JUMPDEST POP POP JUMPDEST POP POP POP JUMP JUMPDEST PUSH0 DUP3 DUP3 SHR SWAP1 POP SWAP3 SWAP2 POP POP JUMP JUMPDEST PUSH0 PUSH2 0x9AB PUSH0 NOT DUP5 PUSH1 0x8 MUL PUSH2 0x990 JUMP JUMPDEST NOT DUP1 DUP4 AND SWAP2 POP POP SWAP3 SWAP2 POP POP JUMP JUMPDEST PUSH0 PUSH2 0x9C3 DUP4 DUP4 PUSH2 0x99C JUMP JUMPDEST SWAP2 POP DUP3 PUSH1 0x2 MUL DUP3 OR SWAP1 POP SWAP3 SWAP2 POP POP JUMP JUMPDEST PUSH2 0x9DC DUP3 PUSH2 0x796 JUMP JUMPDEST PUSH8 0xFFFFFFFFFFFFFFFF DUP2 GT ISZERO PUSH2 0x9F5 JUMPI PUSH2 0x9F4 PUSH2 0x7A0 JUMP JUMPDEST JUMPDEST PUSH2 0x9FF DUP3 SLOAD PUSH2 0x7FA JUMP JUMPDEST PUSH2 0xA0A DUP3 DUP3 DUP6 PUSH2 0x94A JUMP JUMPDEST PUSH0 PUSH1 0x20 SWAP1 POP PUSH1 0x1F DUP4 GT PUSH1 0x1 DUP2 EQ PUSH2 0xA3B JUMPI PUSH0 DUP5 ISZERO PUSH2 0xA29 JUMPI DUP3 DUP8 ADD MLOAD SWAP1 POP JUMPDEST PUSH2 0xA33 DUP6 DUP3 PUSH2 0x9B8 JUMP JUMPDEST DUP7 SSTORE POP PUSH2 0xA9A JUMP JUMPDEST PUSH1 0x1F NOT DUP5 AND PUSH2 0xA49 DUP7 PUSH2 0x82A JUMP JUMPDEST PUSH0 JUMPDEST DUP3 DUP2 LT ISZERO PUSH2 0xA70 JUMPI DUP5 DUP10 ADD MLOAD DUP3 SSTORE PUSH1 0x1 DUP3 ADD SWAP2 POP PUSH1 0x20 DUP6 ADD SWAP5 POP PUSH1 0x20 DUP2 ADD SWAP1 POP PUSH2 0xA4B JUMP JUMPDEST DUP7 DUP4 LT ISZERO PUSH2 0xA8D JUMPI DUP5 DUP10 ADD MLOAD PUSH2 0xA89 PUSH1 0x1F DUP10 AND DUP3 PUSH2 0x99C JUMP JUMPDEST DUP4 SSTORE POP JUMPDEST PUSH1 0x1 PUSH1 0x2 DUP9 MUL ADD DUP9 SSTORE POP POP POP JUMPDEST POP POP POP POP POP POP JUMP JUMPDEST PUSH0 PUSH20 0xFFFFFFFFFFFFFFFFFFFFFFFFFFFFFFFFFFFFFFFF DUP3 AND SWAP1 POP SWAP2 SWAP1 POP JUMP JUMPDEST PUSH0 PUSH2 0xACB DUP3 PUSH2 0xAA2 JUMP JUMPDEST SWAP1 POP SWAP2 SWAP1 POP JUMP JUMPDEST PUSH2 0xADB DUP2 PUSH2 0xAC1 JUMP JUMPDEST DUP3 MSTORE POP POP JUMP JUMPDEST PUSH0 PUSH1 0x20 DUP3 ADD SWAP1 POP PUSH2 0xAF4 PUSH0 DUP4 ADD DUP5 PUSH2 0xAD2 JUMP JUMPDEST SWAP3 SWAP2 POP POP JUMP JUMPDEST PUSH32 0x4E487B7100000000000000000000000000000000000000000000000000000000 PUSH0 MSTORE PUSH1 0x11 PUSH1 0x4 MSTORE PUSH1 0x24 PUSH0 REVERT JUMPDEST PUSH0 PUSH2 0xB31 DUP3 PUSH2 0x8A8 JUMP JUMPDEST SWAP2 POP PUSH2 0xB3C DUP4 PUSH2 0x8A8 JUMP JUMPDEST SWAP3 POP DUP3 DUP3 MUL PUSH2 0xB4A DUP2 PUSH2 0x8A8 JUMP JUMPDEST SWAP2 POP DUP3 DUP3 DIV DUP5 EQ DUP4 ISZERO OR PUSH2 0xB61 JUMPI PUSH2 0xB60 PUSH2 0xAFA JUMP JUMPDEST JUMPDEST POP SWAP3 SWAP2 POP POP JUMP JUMPDEST PUSH32 0x4E487B7100000000000000000000000000000000000000000000000000000000 PUSH0 MSTORE PUSH1 0x12 PUSH1 0x4 MSTORE PUSH1 0x24 PUSH0 REVERT JUMPDEST PUSH0 PUSH2 0xB9F DUP3 PUSH2 0x8A8 JUMP JUMPDEST SWAP2 POP PUSH2 0xBAA DUP4 PUSH2 0x8A8 JUMP JUMPDEST SWAP3 POP DUP3 PUSH2 0xBBA JUMPI PUSH2 0xBB9 PUSH2 0xB68 JUMP JUMPDEST JUMPDEST DUP3 DUP3 DIV SWAP1 POP SWAP3 SWAP2 POP POP JUMP JUMPDEST PUSH0 PUSH2 0xBCF DUP3 PUSH2 0x8A8 JUMP JUMPDEST SWAP2 POP PUSH2 0xBDA DUP4 PUSH2 0x8A8 JUMP JUMPDEST SWAP3 POP DUP3 DUP3 SUB SWAP1 POP DUP2 DUP2 GT ISZERO PUSH2 0xBF2 JUMPI PUSH2 0xBF1 PUSH2 0xAFA JUMP JUMPDEST JUMPDEST SWAP3 SWAP2 POP POP JUMP JUMPDEST PUSH0 PUSH2 0xC02 DUP3 PUSH2 0x8A8 JUMP JUMPDEST SWAP2 POP PUSH2 0xC0D DUP4 PUSH2 0x8A8 JUMP JUMPDEST SWAP3 POP DUP3 DUP3 ADD SWAP1 POP DUP1 DUP3 GT ISZERO PUSH2 0xC25 JUMPI PUSH2 0xC24 PUSH2 0xAFA JUMP JUMPDEST JUMPDEST SWAP3 SWAP2 POP POP JUMP JUMPDEST PUSH2 0xC34 DUP2 PUSH2 0x8A8 JUMP JUMPDEST DUP3 MSTORE POP POP JUMP JUMPDEST PUSH0 PUSH1 0x60 DUP3 ADD SWAP1 POP PUSH2 0xC4D PUSH0 DUP4 ADD DUP7 PUSH2 0xAD2 JUMP JUMPDEST PUSH2 0xC5A PUSH1 0x20 DUP4 ADD DUP6 PUSH2 0xC2B JUMP JUMPDEST PUSH2 0xC67 PUSH1 0x40 DUP4 ADD DUP5 PUSH2 0xC2B JUMP JUMPDEST SWAP5 SWAP4 POP POP POP POP JUMP JUMPDEST PUSH0 PUSH1 0x20 DUP3 ADD SWAP1 POP PUSH2 0xC82 PUSH0 DUP4 ADD DUP5 PUSH2 0xC2B JUMP JUMPDEST SWAP3 SWAP2 POP POP JUMP JUMPDEST PUSH1 0x80 MLOAD PUSH2 0x1F6A PUSH2 0xC9D PUSH0 CODECOPY PUSH0 POP POP PUSH2 0x1F6A PUSH0 RETURN INVALID PUSH1 0x80 PUSH1 0x40 MSTORE CALLVALUE DUP1 ISZERO PUSH2 0xF JUMPI PUSH0 PUSH0 REVERT JUMPDEST POP PUSH1 0x4 CALLDATASIZE LT PUSH2 0x14B JUMPI PUSH0 CALLDATALOAD PUSH1 0xE0 SHR DUP1 PUSH4 0x70A08231 GT PUSH2 0xC1 JUMPI DUP1 PUSH4 0xC204642C GT PUSH2 0x7A JUMPI DUP1 PUSH4 0xC204642C EQ PUSH2 0x3B1 JUMPI DUP1 PUSH4 0xD547741F EQ PUSH2 0x3CD JUMPI DUP1 PUSH4 0xDD62ED3E EQ PUSH2 0x3E9 JUMPI DUP1 PUSH4 0xDFFF8568 EQ PUSH2 0x419 JUMPI DUP1 PUSH4 0xF7B188A5 EQ PUSH2 0x435 JUMPI DUP1 PUSH4 0xFB932108 EQ PUSH2 0x43F JUMPI PUSH2 0x14B JUMP JUMPDEST DUP1 PUSH4 0x70A08231 EQ PUSH2 0x2DB JUMPI DUP1 PUSH4 0x8456CB59 EQ PUSH2 0x30B JUMPI DUP1 PUSH4 0x91D14854 EQ PUSH2 0x315 JUMPI DUP1 PUSH4 0x95D89B41 EQ PUSH2 0x345 JUMPI DUP1 PUSH4 0xA217FDDF EQ PUSH2 0x363 JUMPI DUP1 PUSH4 0xA9059CBB EQ PUSH2 0x381 JUMPI PUSH2 0x14B JUMP JUMPDEST DUP1 PUSH4 0x248A9CA3 GT PUSH2 0x113 JUMPI DUP1 PUSH4 0x248A9CA3 EQ PUSH2 0x21B JUMPI DUP1 PUSH4 0x2F2FF15D EQ PUSH2 0x24B JUMPI DUP1 PUSH4 0x313CE567 EQ PUSH2 0x267 JUMPI DUP1 PUSH4 0x36568ABE EQ PUSH2 0x285 JUMPI DUP1 PUSH4 0x426E04B6 EQ PUSH2 0x2A1 JUMPI DUP1 PUSH4 0x5C975ABB EQ PUSH2 0x2BD JUMPI PUSH2 0x14B JUMP JUMPDEST DUP1 PUSH4 0x1FFC9A7 EQ PUSH2 0x14F JUMPI DUP1 PUSH4 0x6FDDE03 EQ PUSH2 0x17F JUMPI DUP1 PUSH4 0x95EA7B3 EQ PUSH2 0x19D JUMPI DUP1 PUSH4 0x18160DDD EQ PUSH2 0x1CD JUMPI DUP1 PUSH4 0x23B872DD EQ PUSH2 0x1EB JUMPI JUMPDEST PUSH0 PUSH0 REVERT JUMPDEST PUSH2 0x169 PUSH1 0x4 DUP1 CALLDATASIZE SUB DUP2 ADD SWAP1 PUSH2 0x164 SWAP2 SWAP1 PUSH2 0x1812 JUMP JUMPDEST PUSH2 0x45B JUMP JUMPDEST PUSH1 0x40 MLOAD PUSH2 0x176 SWAP2 SWAP1 PUSH2 0x1857 JUMP JUMPDEST PUSH1 0x40 MLOAD DUP1 SWAP2 SUB SWAP1 RETURN JUMPDEST PUSH2 0x187 PUSH2 0x4D4 JUMP JUMPDEST PUSH1 0x40 MLOAD PUSH2 0x194 SWAP2 SWAP1 PUSH2 0x18E0 JUMP JUMPDEST PUSH1 0x40 MLOAD DUP1 SWAP2 SUB SWAP1 RETURN JUMPDEST PUSH2 0x1B7 PUSH1 0x4 DUP1 CALLDATASIZE SUB DUP2 ADD SWAP1 PUSH2 0x1B2 SWAP2 SWAP1 PUSH2 0x198D JUMP JUMPDEST PUSH2 0x564 JUMP JUMPDEST PUSH1 0x40 MLOAD PUSH2 0x1C4 SWAP2 SWAP1 PUSH2 0x1857 JUMP JUMPDEST PUSH1 0x40 MLOAD DUP1 SWAP2 SUB SWAP1 RETURN JUMPDEST PUSH2 0x1D5 PUSH2 0x586 JUMP JUMPDEST PUSH1 0x40 MLOAD PUSH2 0x1E2 SWAP2 SWAP1 PUSH2 0x19DA JUMP JUMPDEST PUSH1 0x40 MLOAD DUP1 SWAP2 SUB SWAP1 RETURN JUMPDEST PUSH2 0x205 PUSH1 0x4 DUP1 CALLDATASIZE SUB DUP2 ADD SWAP1 PUSH2 0x200 SWAP2 SWAP1 PUSH2 0x19F3 JUMP JUMPDEST PUSH2 0x58F JUMP JUMPDEST PUSH1 0x40 MLOAD PUSH2 0x212 SWAP2 SWAP1 PUSH2 0x1857 JUMP JUMPDEST PUSH1 0x40 MLOAD DUP1 SWAP2 SUB SWAP1 RETURN JUMPDEST PUSH2 0x235 PUSH1 0x4 DUP1 CALLDATASIZE SUB DUP2 ADD SWAP1 PUSH2 0x230 SWAP2 SWAP1 PUSH2 0x1A76 JUMP JUMPDEST PUSH2 0x5BD JUMP JUMPDEST PUSH1 0x40 MLOAD PUSH2 0x242 SWAP2 SWAP1 PUSH2 0x1AB0 JUMP JUMPDEST PUSH1 0x40 MLOAD DUP1 SWAP2 SUB SWAP1 RETURN JUMPDEST PUSH2 0x265 PUSH1 0x4 DUP1 CALLDATASIZE SUB DUP2 ADD SWAP1 PUSH2 0x260 SWAP2 SWAP1 PUSH2 0x1AC9 JUMP JUMPDEST PUSH2 0x5DA JUMP JUMPDEST STOP JUMPDEST PUSH2 0x26F PUSH2 0x5FC JUMP JUMPDEST PUSH1 0x40 MLOAD PUSH2 0x27C SWAP2 SWAP1 PUSH2 0x1B22 JUMP JUMPDEST PUSH1 0x40 MLOAD DUP1 SWAP2 SUB SWAP1 RETURN JUMPDEST PUSH2 0x29F PUSH1 0x4 DUP1 CALLDATASIZE SUB DUP2 ADD SWAP1 PUSH2 0x29A SWAP2 SWAP1 PUSH2 0x1AC9 JUMP JUMPDEST PUSH2 0x604 JUMP JUMPDEST STOP JUMPDEST PUSH2 0x2BB PUSH1 0x4 DUP1 CALLDATASIZE SUB DUP2 ADD SWAP1 PUSH2 0x2B6 SWAP2 SWAP1 PUSH2 0x198D JUMP JUMPDEST PUSH2 0x67F JUMP JUMPDEST STOP JUMPDEST PUSH2 0x2C5 PUSH2 0x6CC JUMP JUMPDEST PUSH1 0x40 MLOAD PUSH2 0x2D2 SWAP2 SWAP1 PUSH2 0x1857 JUMP JUMPDEST PUSH1 0x40 MLOAD DUP1 SWAP2 SUB SWAP1 RETURN JUMPDEST PUSH2 0x2F5 PUSH1 0x4 DUP1 CALLDATASIZE SUB DUP2 ADD SWAP1 PUSH2 0x2F0 SWAP2 SWAP1 PUSH2 0x1B3B JUMP JUMPDEST PUSH2 0x6E1 JUMP JUMPDEST PUSH1 0x40 MLOAD PUSH2 0x302 SWAP2 SWAP1 PUSH2 0x19DA JUMP JUMPDEST PUSH1 0x40 MLOAD DUP1 SWAP2 SUB SWAP1 RETURN JUMPDEST PUSH2 0x313 PUSH2 0x726 JUMP JUMPDEST STOP JUMPDEST PUSH2 0x32F PUSH1 0x4 DUP1 CALLDATASIZE SUB DUP2 ADD SWAP1 PUSH2 0x32A SWAP2 SWAP1 PUSH2 0x1AC9 JUMP JUMPDEST PUSH2 0x75B JUMP JUMPDEST PUSH1 0x40 MLOAD PUSH2 0x33C SWAP2 SWAP1 PUSH2 0x1857 JUMP JUMPDEST PUSH1 0x40 MLOAD DUP1 SWAP2 SUB SWAP1 RETURN JUMPDEST PUSH2 0x34D PUSH2 0x7BF JUMP JUMPDEST PUSH1 0x40 MLOAD PUSH2 0x35A SWAP2 SWAP1 PUSH2 0x18E0 JUMP JUMPDEST PUSH1 0x40 MLOAD DUP1 SWAP2 SUB SWAP1 RETURN JUMPDEST PUSH2 0x36B PUSH2 0x84F JUMP JUMPDEST PUSH1 0x40 MLOAD PUSH2 0x378 SWAP2 SWAP1 PUSH2 0x1AB0 JUMP JUMPDEST PUSH1 0x40 MLOAD DUP1 SWAP2 SUB SWAP1 RETURN JUMPDEST PUSH2 0x39B PUSH1 0x4 DUP1 CALLDATASIZE SUB DUP2 ADD SWAP1 PUSH2 0x396 SWAP2 SWAP1 PUSH2 0x198D JUMP JUMPDEST PUSH2 0x855 JUMP JUMPDEST PUSH1 0x40 MLOAD PUSH2 0x3A8 SWAP2 SWAP1 PUSH2 0x1857 JUMP JUMPDEST PUSH1 0x40 MLOAD DUP1 SWAP2 SUB SWAP1 RETURN JUMPDEST PUSH2 0x3CB PUSH1 0x4 DUP1 CALLDATASIZE SUB DUP2 ADD SWAP1 PUSH2 0x3C6 SWAP2 SWAP1 PUSH2 0x1BC7 JUMP JUMPDEST PUSH2 0x877 JUMP JUMPDEST STOP JUMPDEST PUSH2 0x3E7 PUSH1 0x4 DUP1 CALLDATASIZE SUB DUP2 ADD SWAP1 PUSH2 0x3E2 SWAP2 SWAP1 PUSH2 0x1AC9 JUMP JUMPDEST PUSH2 0x968 JUMP JUMPDEST STOP JUMPDEST PUSH2 0x403 PUSH1 0x4 DUP1 CALLDATASIZE SUB DUP2 ADD SWAP1 PUSH2 0x3FE SWAP2 SWAP1 PUSH2 0x1C24 JUMP JUMPDEST PUSH2 0x98A JUMP JUMPDEST PUSH1 0x40 MLOAD PUSH2 0x410 SWAP2 SWAP1 PUSH2 0x19DA JUMP JUMPDEST PUSH1 0x40 MLOAD DUP1 SWAP2 SUB SWAP1 RETURN JUMPDEST PUSH2 0x433 PUSH1 0x4 DUP1 CALLDATASIZE SUB DUP2 ADD SWAP1 PUSH2 0x42E SWAP2 SWAP1 PUSH2 0x1C62 JUMP JUMPDEST PUSH2 0xA0C JUMP JUMPDEST STOP JUMPDEST PUSH2 0x43D PUSH2 0xAED JUMP JUMPDEST STOP JUMPDEST PUSH2 0x459 PUSH1 0x4 DUP1 CALLDATASIZE SUB DUP2 ADD SWAP1 PUSH2 0x454 SWAP2 SWAP1 PUSH2 0x198D JUMP JUMPDEST PUSH2 0xB22 JUMP JUMPDEST STOP JUMPDEST PUSH0 PUSH32 0x7965DB0B00000000000000000000000000000000000000000000000000000000 PUSH28 0xFFFFFFFFFFFFFFFFFFFFFFFFFFFFFFFFFFFFFFFFFFFFFFFFFFFFFFFF NOT AND DUP3 PUSH28 0xFFFFFFFFFFFFFFFFFFFFFFFFFFFFFFFFFFFFFFFFFFFFFFFFFFFFFFFF NOT AND EQ DUP1 PUSH2 0x4CD JUMPI POP PUSH2 0x4CC DUP3 PUSH2 0xC29 JUMP JUMPDEST JUMPDEST SWAP1 POP SWAP2 SWAP1 POP JUMP JUMPDEST PUSH1 0x60 PUSH1 0x3 DUP1 SLOAD PUSH2 0x4E3 SWAP1 PUSH2 0x1CBA JUMP JUMPDEST DUP1 PUSH1 0x1F ADD PUSH1 0x20 DUP1 SWAP2 DIV MUL PUSH1 0x20 ADD PUSH1 0x40 MLOAD SWAP1 DUP2 ADD PUSH1 0x40 MSTORE DUP1 SWAP3 SWAP2 SWAP1 DUP2 DUP2 MSTORE PUSH1 0x20 ADD DUP3 DUP1 SLOAD PUSH2 0x50F SWAP1 PUSH2 0x1CBA JUMP JUMPDEST DUP1 ISZERO PUSH2 0x55A JUMPI DUP1 PUSH1 0x1F LT PUSH2 0x531 JUMPI PUSH2 0x100 DUP1 DUP4 SLOAD DIV MUL DUP4 MSTORE SWAP2 PUSH1 0x20 ADD SWAP2 PUSH2 0x55A JUMP JUMPDEST DUP3 ADD SWAP2 SWAP1 PUSH0 MSTORE PUSH1 0x20 PUSH0 KECCAK256 SWAP1 JUMPDEST DUP2 SLOAD DUP2 MSTORE SWAP1 PUSH1 0x1 ADD SWAP1 PUSH1 0x20 ADD DUP1 DUP4 GT PUSH2 0x53D JUMPI DUP3 SWAP1 SUB PUSH1 0x1F AND DUP3 ADD SWAP2 JUMPDEST POP POP POP POP POP SWAP1 POP SWAP1 JUMP JUMPDEST PUSH0 PUSH0 PUSH2 0x56E PUSH2 0xC92 JUMP JUMPDEST SWAP1 POP PUSH2 0x57B DUP2 DUP6 DUP6 PUSH2 0xC99 JUMP JUMPDEST PUSH1 0x1 SWAP2 POP POP SWAP3 SWAP2 POP POP JUMP JUMPDEST PUSH0 PUSH1 0x2 SLOAD SWAP1 POP SWAP1 JUMP JUMPDEST PUSH0 PUSH0 PUSH2 0x599 PUSH2 0xC92 JUMP JUMPDEST SWAP1 POP PUSH2 0x5A6 DUP6 DUP3 DUP6 PUSH2 0xCAB JUMP JUMPDEST PUSH2 0x5B1 DUP6 DUP6 DUP6 PUSH2 0xD3E JUMP JUMPDEST PUSH1 0x1 SWAP2 POP POP SWAP4 SWAP3 POP POP POP JUMP JUMPDEST PUSH0 PUSH1 0x5 PUSH0 DUP4 DUP2 MSTORE PUSH1 0x20 ADD SWAP1 DUP2 MSTORE PUSH1 0x20 ADD PUSH0 KECCAK256 PUSH1 0x1 ADD SLOAD SWAP1 POP SWAP2 SWAP1 POP JUMP JUMPDEST PUSH2 0x5E3 DUP3 PUSH2 0x5BD JUMP JUMPDEST PUSH2 0x5EC DUP2 PUSH2 0xE2E JUMP JUMPDEST PUSH2 0x5F6 DUP4 DUP4 PUSH2 0xE42 JUMP JUMPDEST POP POP POP POP JUMP JUMPDEST PUSH0 PUSH1 0x12 SWAP1 POP SWAP1 JUMP JUMPDEST PUSH2 0x60C PUSH2 0xC92 JUMP JUMPDEST PUSH20 0xFFFFFFFFFFFFFFFFFFFFFFFFFFFFFFFFFFFFFFFF AND DUP2 PUSH20 0xFFFFFFFFFFFFFFFFFFFFFFFFFFFFFFFFFFFFFFFF AND EQ PUSH2 0x670 JUMPI PUSH1 0x40 MLOAD PUSH32 0x6697B23200000000000000000000000000000000000000000000000000000000 DUP2 MSTORE PUSH1 0x4 ADD PUSH1 0x40 MLOAD DUP1 SWAP2 SUB SWAP1 REVERT JUMPDEST PUSH2 0x67A DUP3 DUP3 PUSH2 0xF2C JUMP JUMPDEST POP POP POP JUMP JUMPDEST PUSH32 0x77F9891D56176EDA73EC2C03CEB0E5841F866A13623E6E8C5F3371E4DD628571 PUSH2 0x6A9 DUP2 PUSH2 0xE2E JUMP JUMPDEST PUSH2 0x6C7 ADDRESS DUP5 PUSH8 0xDE0B6B3A7640000 DUP6 PUSH2 0x6C2 SWAP2 SWAP1 PUSH2 0x1D17 JUMP JUMPDEST PUSH2 0xD3E JUMP JUMPDEST POP POP POP JUMP JUMPDEST PUSH0 PUSH1 0x6 PUSH0 SWAP1 SLOAD SWAP1 PUSH2 0x100 EXP SWAP1 DIV PUSH1 0xFF AND SWAP1 POP SWAP1 JUMP JUMPDEST PUSH0 PUSH0 PUSH0 DUP4 PUSH20 0xFFFFFFFFFFFFFFFFFFFFFFFFFFFFFFFFFFFFFFFF AND PUSH20 0xFFFFFFFFFFFFFFFFFFFFFFFFFFFFFFFFFFFFFFFF AND DUP2 MSTORE PUSH1 0x20 ADD SWAP1 DUP2 MSTORE PUSH1 0x20 ADD PUSH0 KECCAK256 SLOAD SWAP1 POP SWAP2 SWAP1 POP JUMP JUMPDEST PUSH32 0x65D7A28E3265B37A6474929F336521B332C1681B933F6CB9F3376673440D862A PUSH2 0x750 DUP2 PUSH2 0xE2E JUMP JUMPDEST PUSH2 0x758 PUSH2 0x1016 JUMP JUMPDEST POP JUMP JUMPDEST PUSH0 PUSH1 0x5 PUSH0 DUP5 DUP2 MSTORE PUSH1 0x20 ADD SWAP1 DUP2 MSTORE PUSH1 0x20 ADD PUSH0 KECCAK256 PUSH0 ADD PUSH0 DUP4 PUSH20 0xFFFFFFFFFFFFFFFFFFFFFFFFFFFFFFFFFFFFFFFF AND PUSH20 0xFFFFFFFFFFFFFFFFFFFFFFFFFFFFFFFFFFFFFFFF AND DUP2 MSTORE PUSH1 0x20 ADD SWAP1 DUP2 MSTORE PUSH1 0x20 ADD PUSH0 KECCAK256 PUSH0 SWAP1 SLOAD SWAP1 PUSH2 0x100 EXP SWAP1 DIV PUSH1 0xFF AND SWAP1 POP SWAP3 SWAP2 POP POP JUMP JUMPDEST PUSH1 0x60 PUSH1 0x4 DUP1 SLOAD PUSH2 0x7CE SWAP1 PUSH2 0x1CBA JUMP JUMPDEST DUP1 PUSH1 0x1F ADD PUSH1 0x20 DUP1 SWAP2 DIV MUL PUSH1 0x20 ADD PUSH1 0x40 MLOAD SWAP1 DUP2 ADD PUSH1 0x40 MSTORE DUP1 SWAP3 SWAP2 SWAP1 DUP2 DUP2 MSTORE PUSH1 0x20 ADD DUP3 DUP1 SLOAD PUSH2 0x7FA SWAP1 PUSH2 0x1CBA JUMP JUMPDEST DUP1 ISZERO PUSH2 0x845 JUMPI DUP1 PUSH1 0x1F LT PUSH2 0x81C JUMPI PUSH2 0x100 DUP1 DUP4 SLOAD DIV MUL DUP4 MSTORE SWAP2 PUSH1 0x20 ADD SWAP2 PUSH2 0x845 JUMP JUMPDEST DUP3 ADD SWAP2 SWAP1 PUSH0 MSTORE PUSH1 0x20 PUSH0 KECCAK256 SWAP1 JUMPDEST DUP2 SLOAD DUP2 MSTORE SWAP1 PUSH1 0x1 ADD SWAP1 PUSH1 0x20 ADD DUP1 DUP4 GT PUSH2 0x828 JUMPI DUP3 SWAP1 SUB PUSH1 0x1F AND DUP3 ADD SWAP2 JUMPDEST POP POP POP POP POP SWAP1 POP SWAP1 JUMP JUMPDEST PUSH0 PUSH0 SHL DUP2 JUMP JUMPDEST PUSH0 PUSH0 PUSH2 0x85F PUSH2 0xC92 JUMP JUMPDEST SWAP1 POP PUSH2 0x86C DUP2 DUP6 DUP6 PUSH2 0xD3E JUMP JUMPDEST PUSH1 0x1 SWAP2 POP POP SWAP3 SWAP2 POP POP JUMP JUMPDEST PUSH32 0x77F9891D56176EDA73EC2C03CEB0E5841F866A13623E6E8C5F3371E4DD628571 PUSH2 0x8A1 DUP2 PUSH2 0xE2E JUMP JUMPDEST PUSH0 PUSH8 0xDE0B6B3A7640000 DUP4 PUSH2 0x8B6 SWAP2 SWAP1 PUSH2 0x1D17 JUMP JUMPDEST SWAP1 POP DUP5 DUP5 SWAP1 POP DUP2 PUSH2 0x8C7 SWAP2 SWAP1 PUSH2 0x1D17 JUMP JUMPDEST PUSH2 0x8D0 ADDRESS PUSH2 0x6E1 JUMP JUMPDEST LT ISZERO PUSH2 0x911 JUMPI PUSH1 0x40 MLOAD PUSH32 0x8C379A000000000000000000000000000000000000000000000000000000000 DUP2 MSTORE PUSH1 0x4 ADD PUSH2 0x908 SWAP1 PUSH2 0x1DA2 JUMP JUMPDEST PUSH1 0x40 MLOAD DUP1 SWAP2 SUB SWAP1 REVERT JUMPDEST PUSH0 PUSH0 SWAP1 POP JUMPDEST DUP6 DUP6 SWAP1 POP DUP2 LT ISZERO PUSH2 0x960 JUMPI PUSH2 0x953 ADDRESS DUP8 DUP8 DUP5 DUP2 DUP2 LT PUSH2 0x938 JUMPI PUSH2 0x937 PUSH2 0x1DC0 JUMP JUMPDEST JUMPDEST SWAP1 POP PUSH1 0x20 MUL ADD PUSH1 0x20 DUP2 ADD SWAP1 PUSH2 0x94D SWAP2 SWAP1 PUSH2 0x1B3B JUMP JUMPDEST DUP5 PUSH2 0xD3E JUMP JUMPDEST DUP1 DUP1 PUSH1 0x1 ADD SWAP2 POP POP PUSH2 0x916 JUMP JUMPDEST POP POP POP POP POP POP JUMP JUMPDEST PUSH2 0x971 DUP3 PUSH2 0x5BD JUMP JUMPDEST PUSH2 0x97A DUP2 PUSH2 0xE2E JUMP JUMPDEST PUSH2 0x984 DUP4 DUP4 PUSH2 0xF2C JUMP JUMPDEST POP POP POP POP JUMP JUMPDEST PUSH0 PUSH1 0x1 PUSH0 DUP5 PUSH20 0xFFFFFFFFFFFFFFFFFFFFFFFFFFFFFFFFFFFFFFFF AND PUSH20 0xFFFFFFFFFFFFFFFFFFFFFFFFFFFFFFFFFFFFFFFF AND DUP2 MSTORE PUSH1 0x20 ADD SWAP1 DUP2 MSTORE PUSH1 0x20 ADD PUSH0 KECCAK256 PUSH0 DUP4 PUSH20 0xFFFFFFFFFFFFFFFFFFFFFFFFFFFFFFFFFFFFFFFF AND PUSH20 0xFFFFFFFFFFFFFFFFFFFFFFFFFFFFFFFFFFFFFFFF AND DUP2 MSTORE PUSH1 0x20 ADD SWAP1 DUP2 MSTORE PUSH1 0x20 ADD PUSH0 KECCAK256 SLOAD SWAP1 POP SWAP3 SWAP2 POP POP JUMP JUMPDEST PUSH32 0x3C11D16CBAFFD01DF69CE1C404F6340EE057498F5F00246190EA54220576A848 PUSH2 0xA36 DUP2 PUSH2 0xE2E JUMP JUMPDEST PUSH2 0xA3E PUSH2 0x1078 JUMP JUMPDEST PUSH0 PUSH8 0xDE0B6B3A7640000 DUP4 PUSH2 0xA53 SWAP2 SWAP1 PUSH2 0x1D17 JUMP JUMPDEST SUB PUSH2 0xA8A JUMPI PUSH1 0x40 MLOAD PUSH32 0x6E0CCC0700000000000000000000000000000000000000000000000000000000 DUP2 MSTORE PUSH1 0x4 ADD PUSH1 0x40 MLOAD DUP1 SWAP2 SUB SWAP1 REVERT JUMPDEST DUP2 PUSH2 0xA94 ADDRESS PUSH2 0x6E1 JUMP JUMPDEST LT ISZERO PUSH2 0xACC JUMPI PUSH1 0x40 MLOAD PUSH32 0x6E0CCC0700000000000000000000000000000000000000000000000000000000 DUP2 MSTORE PUSH1 0x4 ADD PUSH1 0x40 MLOAD DUP1 SWAP2 SUB SWAP1 REVERT JUMPDEST PUSH2 0xAE9 ADDRESS PUSH8 0xDE0B6B3A7640000 DUP5 PUSH2 0xAE4 SWAP2 SWAP1 PUSH2 0x1D17 JUMP JUMPDEST PUSH2 0x10B8 JUMP JUMPDEST POP POP JUMP JUMPDEST PUSH32 0x65D7A28E3265B37A6474929F336521B332C1681B933F6CB9F3376673440D862A PUSH2 0xB17 DUP2 PUSH2 0xE2E JUMP JUMPDEST PUSH2 0xB1F PUSH2 0x1137 JUMP JUMPDEST POP JUMP JUMPDEST PUSH32 0x77F9891D56176EDA73EC2C03CEB0E5841F866A13623E6E8C5F3371E4DD628571 PUSH2 0xB4C DUP2 PUSH2 0xE2E JUMP JUMPDEST PUSH0 PUSH20 0xFFFFFFFFFFFFFFFFFFFFFFFFFFFFFFFFFFFFFFFF AND DUP4 PUSH20 0xFFFFFFFFFFFFFFFFFFFFFFFFFFFFFFFFFFFFFFFF AND SUB PUSH2 0xBB1 JUMPI PUSH1 0x40 MLOAD PUSH32 0x3EFA09AF00000000000000000000000000000000000000000000000000000000 DUP2 MSTORE PUSH1 0x4 ADD PUSH1 0x40 MLOAD DUP1 SWAP2 SUB SWAP1 REVERT JUMPDEST PUSH2 0xBBA ADDRESS PUSH2 0x6E1 JUMP JUMPDEST PUSH8 0xDE0B6B3A7640000 DUP4 PUSH2 0xBCE SWAP2 SWAP1 PUSH2 0x1D17 JUMP JUMPDEST GT ISZERO PUSH2 0xC06 JUMPI PUSH1 0x40 MLOAD PUSH32 0xE2969E3100000000000000000000000000000000000000000000000000000000 DUP2 MSTORE PUSH1 0x4 ADD PUSH1 0x40 MLOAD DUP1 SWAP2 SUB SWAP1 REVERT JUMPDEST PUSH2 0xC24 ADDRESS DUP5 PUSH8 0xDE0B6B3A7640000 DUP6 PUSH2 0xC1F SWAP2 SWAP1 PUSH2 0x1D17 JUMP JUMPDEST PUSH2 0xD3E JUMP JUMPDEST POP POP POP JUMP JUMPDEST PUSH0 PUSH32 0x1FFC9A700000000000000000000000000000000000000000000000000000000 PUSH28 0xFFFFFFFFFFFFFFFFFFFFFFFFFFFFFFFFFFFFFFFFFFFFFFFFFFFFFFFF NOT AND DUP3 PUSH28 0xFFFFFFFFFFFFFFFFFFFFFFFFFFFFFFFFFFFFFFFFFFFFFFFFFFFFFFFF NOT AND EQ SWAP1 POP SWAP2 SWAP1 POP JUMP JUMPDEST PUSH0 CALLER SWAP1 POP SWAP1 JUMP JUMPDEST PUSH2 0xCA6 DUP4 DUP4 DUP4 PUSH1 0x1 PUSH2 0x1198 JUMP JUMPDEST POP POP POP JUMP JUMPDEST PUSH0 PUSH2 0xCB6 DUP5 DUP5 PUSH2 0x98A JUMP JUMPDEST SWAP1 POP PUSH32 0xFFFFFFFFFFFFFFFFFFFFFFFFFFFFFFFFFFFFFFFFFFFFFFFFFFFFFFFFFFFFFFFF DUP2 LT ISZERO PUSH2 0xD38 JUMPI DUP2 DUP2 LT ISZERO PUSH2 0xD29 JUMPI DUP3 DUP2 DUP4 PUSH1 0x40 MLOAD PUSH32 0xFB8F41B200000000000000000000000000000000000000000000000000000000 DUP2 MSTORE PUSH1 0x4 ADD PUSH2 0xD20 SWAP4 SWAP3 SWAP2 SWAP1 PUSH2 0x1DFC JUMP JUMPDEST PUSH1 0x40 MLOAD DUP1 SWAP2 SUB SWAP1 REVERT JUMPDEST PUSH2 0xD37 DUP5 DUP5 DUP5 DUP5 SUB PUSH0 PUSH2 0x1198 JUMP JUMPDEST JUMPDEST POP POP POP POP JUMP JUMPDEST PUSH0 PUSH20 0xFFFFFFFFFFFFFFFFFFFFFFFFFFFFFFFFFFFFFFFF AND DUP4 PUSH20 0xFFFFFFFFFFFFFFFFFFFFFFFFFFFFFFFFFFFFFFFF AND SUB PUSH2 0xDAE JUMPI PUSH0 PUSH1 0x40 MLOAD PUSH32 0x96C6FD1E00000000000000000000000000000000000000000000000000000000 DUP2 MSTORE PUSH1 0x4 ADD PUSH2 0xDA5 SWAP2 SWAP1 PUSH2 0x1E31 JUMP JUMPDEST PUSH1 0x40 MLOAD DUP1 SWAP2 SUB SWAP1 REVERT JUMPDEST PUSH0 PUSH20 0xFFFFFFFFFFFFFFFFFFFFFFFFFFFFFFFFFFFFFFFF AND DUP3 PUSH20 0xFFFFFFFFFFFFFFFFFFFFFFFFFFFFFFFFFFFFFFFF AND SUB PUSH2 0xE1E JUMPI PUSH0 PUSH1 0x40 MLOAD PUSH32 0xEC442F0500000000000000000000000000000000000000000000000000000000 DUP2 MSTORE PUSH1 0x4 ADD PUSH2 0xE15 SWAP2 SWAP1 PUSH2 0x1E31 JUMP JUMPDEST PUSH1 0x40 MLOAD DUP1 SWAP2 SUB SWAP1 REVERT JUMPDEST PUSH2 0xE29 DUP4 DUP4 DUP4 PUSH2 0x1367 JUMP JUMPDEST POP POP POP JUMP JUMPDEST PUSH2 0xE3F DUP2 PUSH2 0xE3A PUSH2 0xC92 JUMP JUMPDEST PUSH2 0x14F2 JUMP JUMPDEST POP JUMP JUMPDEST PUSH0 PUSH2 0xE4D DUP4 DUP4 PUSH2 0x75B JUMP JUMPDEST PUSH2 0xF22 JUMPI PUSH1 0x1 PUSH1 0x5 PUSH0 DUP6 DUP2 MSTORE PUSH1 0x20 ADD SWAP1 DUP2 MSTORE PUSH1 0x20 ADD PUSH0 KECCAK256 PUSH0 ADD PUSH0 DUP5 PUSH20 0xFFFFFFFFFFFFFFFFFFFFFFFFFFFFFFFFFFFFFFFF AND PUSH20 0xFFFFFFFFFFFFFFFFFFFFFFFFFFFFFFFFFFFFFFFF AND DUP2 MSTORE PUSH1 0x20 ADD SWAP1 DUP2 MSTORE PUSH1 0x20 ADD PUSH0 KECCAK256 PUSH0 PUSH2 0x100 EXP DUP2 SLOAD DUP2 PUSH1 0xFF MUL NOT AND SWAP1 DUP4 ISZERO ISZERO MUL OR SWAP1 SSTORE POP PUSH2 0xEBF PUSH2 0xC92 JUMP JUMPDEST PUSH20 0xFFFFFFFFFFFFFFFFFFFFFFFFFFFFFFFFFFFFFFFF AND DUP3 PUSH20 0xFFFFFFFFFFFFFFFFFFFFFFFFFFFFFFFFFFFFFFFF AND DUP5 PUSH32 0x2F8788117E7EFF1D82E926EC794901D17C78024A50270940304540A733656F0D PUSH1 0x40 MLOAD PUSH1 0x40 MLOAD DUP1 SWAP2 SUB SWAP1 LOG4 PUSH1 0x1 SWAP1 POP PUSH2 0xF26 JUMP JUMPDEST PUSH0 SWAP1 POP JUMPDEST SWAP3 SWAP2 POP POP JUMP JUMPDEST PUSH0 PUSH2 0xF37 DUP4 DUP4 PUSH2 0x75B JUMP JUMPDEST ISZERO PUSH2 0x100C JUMPI PUSH0 PUSH1 0x5 PUSH0 DUP6 DUP2 MSTORE PUSH1 0x20 ADD SWAP1 DUP2 MSTORE PUSH1 0x20 ADD PUSH0 KECCAK256 PUSH0 ADD PUSH0 DUP5 PUSH20 0xFFFFFFFFFFFFFFFFFFFFFFFFFFFFFFFFFFFFFFFF AND PUSH20 0xFFFFFFFFFFFFFFFFFFFFFFFFFFFFFFFFFFFFFFFF AND DUP2 MSTORE PUSH1 0x20 ADD SWAP1 DUP2 MSTORE PUSH1 0x20 ADD PUSH0 KECCAK256 PUSH0 PUSH2 0x100 EXP DUP2 SLOAD DUP2 PUSH1 0xFF MUL NOT AND SWAP1 DUP4 ISZERO ISZERO MUL OR SWAP1 SSTORE POP PUSH2 0xFA9 PUSH2 0xC92 JUMP JUMPDEST PUSH20 0xFFFFFFFFFFFFFFFFFFFFFFFFFFFFFFFFFFFFFFFF AND DUP3 PUSH20 0xFFFFFFFFFFFFFFFFFFFFFFFFFFFFFFFFFFFFFFFF AND DUP5 PUSH32 0xF6391F5C32D9C69D2A47EA670B442974B53935D1EDC7FD64EB21E047A839171B PUSH1 0x40 MLOAD PUSH1 0x40 MLOAD DUP1 SWAP2 SUB SWAP1 LOG4 PUSH1 0x1 SWAP1 POP PUSH2 0x1010 JUMP JUMPDEST PUSH0 SWAP1 POP JUMPDEST SWAP3 SWAP2 POP POP JUMP JUMPDEST PUSH2 0x101E PUSH2 0x1543 JUMP JUMPDEST PUSH1 0x1 PUSH1 0x6 PUSH0 PUSH2 0x100 EXP DUP2 SLOAD DUP2 PUSH1 0xFF MUL NOT AND SWAP1 DUP4 ISZERO ISZERO MUL OR SWAP1 SSTORE POP PUSH32 0x62E78CEA01BEE320CD4E420270B5EA74000D11B0C9F74754EBDBFC544B05A258 PUSH2 0x1061 PUSH2 0xC92 JUMP JUMPDEST PUSH1 0x40 MLOAD PUSH2 0x106E SWAP2 SWAP1 PUSH2 0x1E31 JUMP JUMPDEST PUSH1 0x40 MLOAD DUP1 SWAP2 SUB SWAP1 LOG1 JUMP JUMPDEST PUSH2 0x1080 PUSH2 0x6CC JUMP JUMPDEST PUSH2 0x10B6 JUMPI PUSH1 0x40 MLOAD PUSH32 0x8DFC202B00000000000000000000000000000000000000000000000000000000 DUP2 MSTORE PUSH1 0x4 ADD PUSH1 0x40 MLOAD DUP1 SWAP2 SUB SWAP1 REVERT JUMPDEST JUMP JUMPDEST PUSH0 PUSH20 0xFFFFFFFFFFFFFFFFFFFFFFFFFFFFFFFFFFFFFFFF AND DUP3 PUSH20 0xFFFFFFFFFFFFFFFFFFFFFFFFFFFFFFFFFFFFFFFF AND SUB PUSH2 0x1128 JUMPI PUSH0 PUSH1 0x40 MLOAD PUSH32 0x96C6FD1E00000000000000000000000000000000000000000000000000000000 DUP2 MSTORE PUSH1 0x4 ADD PUSH2 0x111F SWAP2 SWAP1 PUSH2 0x1E31 JUMP JUMPDEST PUSH1 0x40 MLOAD DUP1 SWAP2 SUB SWAP1 REVERT JUMPDEST PUSH2 0x1133 DUP3 PUSH0 DUP4 PUSH2 0x1367 JUMP JUMPDEST POP POP JUMP JUMPDEST PUSH2 0x113F PUSH2 0x1078 JUMP JUMPDEST PUSH0 PUSH1 0x6 PUSH0 PUSH2 0x100 EXP DUP2 SLOAD DUP2 PUSH1 0xFF MUL NOT AND SWAP1 DUP4 ISZERO ISZERO MUL OR SWAP1 SSTORE POP PUSH32 0x5DB9EE0A495BF2E6FF9C91A7834C1BA4FDD244A5E8AA4E537BD38AEAE4B073AA PUSH2 0x1181 PUSH2 0xC92 JUMP JUMPDEST PUSH1 0x40 MLOAD PUSH2 0x118E SWAP2 SWAP1 PUSH2 0x1E31 JUMP JUMPDEST PUSH1 0x40 MLOAD DUP1 SWAP2 SUB SWAP1 LOG1 JUMP JUMPDEST PUSH0 PUSH20 0xFFFFFFFFFFFFFFFFFFFFFFFFFFFFFFFFFFFFFFFF AND DUP5 PUSH20 0xFFFFFFFFFFFFFFFFFFFFFFFFFFFFFFFFFFFFFFFF AND SUB PUSH2 0x1208 JUMPI PUSH0 PUSH1 0x40 MLOAD PUSH32 0xE602DF0500000000000000000000000000000000000000000000000000000000 DUP2 MSTORE PUSH1 0x4 ADD PUSH2 0x11FF SWAP2 SWAP1 PUSH2 0x1E31 JUMP JUMPDEST PUSH1 0x40 MLOAD DUP1 SWAP2 SUB SWAP1 REVERT JUMPDEST PUSH0 PUSH20 0xFFFFFFFFFFFFFFFFFFFFFFFFFFFFFFFFFFFFFFFF AND DUP4 PUSH20 0xFFFFFFFFFFFFFFFFFFFFFFFFFFFFFFFFFFFFFFFF AND SUB PUSH2 0x1278 JUMPI PUSH0 PUSH1 0x40 MLOAD PUSH32 0x94280D6200000000000000000000000000000000000000000000000000000000 DUP2 MSTORE PUSH1 0x4 ADD PUSH2 0x126F SWAP2 SWAP1 PUSH2 0x1E31 JUMP JUMPDEST PUSH1 0x40 MLOAD DUP1 SWAP2 SUB SWAP1 REVERT JUMPDEST DUP2 PUSH1 0x1 PUSH0 DUP7 PUSH20 0xFFFFFFFFFFFFFFFFFFFFFFFFFFFFFFFFFFFFFFFF AND PUSH20 0xFFFFFFFFFFFFFFFFFFFFFFFFFFFFFFFFFFFFFFFF AND DUP2 MSTORE PUSH1 0x20 ADD SWAP1 DUP2 MSTORE PUSH1 0x20 ADD PUSH0 KECCAK256 PUSH0 DUP6 PUSH20 0xFFFFFFFFFFFFFFFFFFFFFFFFFFFFFFFFFFFFFFFF AND PUSH20 0xFFFFFFFFFFFFFFFFFFFFFFFFFFFFFFFFFFFFFFFF AND DUP2 MSTORE PUSH1 0x20 ADD SWAP1 DUP2 MSTORE PUSH1 0x20 ADD PUSH0 KECCAK256 DUP2 SWAP1 SSTORE POP DUP1 ISZERO PUSH2 0x1361 JUMPI DUP3 PUSH20 0xFFFFFFFFFFFFFFFFFFFFFFFFFFFFFFFFFFFFFFFF AND DUP5 PUSH20 0xFFFFFFFFFFFFFFFFFFFFFFFFFFFFFFFFFFFFFFFF AND PUSH32 0x8C5BE1E5EBEC7D5BD14F71427D1E84F3DD0314C0F7B2291E5B200AC8C7C3B925 DUP5 PUSH1 0x40 MLOAD PUSH2 0x1358 SWAP2 SWAP1 PUSH2 0x19DA JUMP JUMPDEST PUSH1 0x40 MLOAD DUP1 SWAP2 SUB SWAP1 LOG3 JUMPDEST POP POP POP POP JUMP JUMPDEST PUSH0 PUSH8 0xDE0B6B3A7640000 DUP3 PUSH2 0x137C SWAP2 SWAP1 PUSH2 0x1D17 JUMP JUMPDEST SWAP1 POP PUSH2 0x1386 PUSH2 0x6CC JUMP JUMPDEST DUP1 ISZERO PUSH2 0x13BD JUMPI POP PUSH0 PUSH20 0xFFFFFFFFFFFFFFFFFFFFFFFFFFFFFFFFFFFFFFFF AND DUP4 PUSH20 0xFFFFFFFFFFFFFFFFFFFFFFFFFFFFFFFFFFFFFFFF AND EQ JUMPDEST DUP1 ISZERO PUSH2 0x13F4 JUMPI POP ADDRESS PUSH20 0xFFFFFFFFFFFFFFFFFFFFFFFFFFFFFFFFFFFFFFFF AND DUP5 PUSH20 0xFFFFFFFFFFFFFFFFFFFFFFFFFFFFFFFFFFFFFFFF AND EQ JUMPDEST DUP1 ISZERO PUSH2 0x1426 JUMPI POP PUSH2 0x1425 PUSH32 0x3C11D16CBAFFD01DF69CE1C404F6340EE057498F5F00246190EA54220576A848 CALLER PUSH2 0x75B JUMP JUMPDEST JUMPDEST ISZERO PUSH2 0x143C JUMPI PUSH2 0x1436 DUP5 DUP5 DUP4 PUSH2 0x1584 JUMP JUMPDEST POP PUSH2 0x14ED JUMP JUMPDEST PUSH0 PUSH20 0xFFFFFFFFFFFFFFFFFFFFFFFFFFFFFFFFFFFFFFFF AND DUP4 PUSH20 0xFFFFFFFFFFFFFFFFFFFFFFFFFFFFFFFFFFFFFFFF AND EQ DUP1 PUSH2 0x14A1 JUMPI POP ADDRESS PUSH20 0xFFFFFFFFFFFFFFFFFFFFFFFFFFFFFFFFFFFFFFFF AND DUP5 PUSH20 0xFFFFFFFFFFFFFFFFFFFFFFFFFFFFFFFFFFFFFFFF AND EQ JUMPDEST ISZERO PUSH2 0x14B2 JUMPI PUSH2 0x14B1 DUP5 DUP5 DUP4 PUSH2 0x179D JUMP JUMPDEST JUMPDEST PUSH0 PUSH2 0x3E8 PUSH1 0xC8 DUP4 PUSH2 0x14C3 SWAP2 SWAP1 PUSH2 0x1D17 JUMP JUMPDEST PUSH2 0x14CD SWAP2 SWAP1 PUSH2 0x1E77 JUMP JUMPDEST SWAP1 POP PUSH0 DUP2 DUP4 PUSH2 0x14DC SWAP2 SWAP1 PUSH2 0x1EA7 JUMP JUMPDEST SWAP1 POP PUSH2 0x14E9 DUP7 DUP7 DUP4 PUSH2 0x179D JUMP JUMPDEST POP POP POP JUMPDEST POP POP POP JUMP JUMPDEST PUSH2 0x14FC DUP3 DUP3 PUSH2 0x75B JUMP JUMPDEST PUSH2 0x153F JUMPI DUP1 DUP3 PUSH1 0x40 MLOAD PUSH32 0xE2517D3F00000000000000000000000000000000000000000000000000000000 DUP2 MSTORE PUSH1 0x4 ADD PUSH2 0x1536 SWAP3 SWAP2 SWAP1 PUSH2 0x1EDA JUMP JUMPDEST PUSH1 0x40 MLOAD DUP1 SWAP2 SUB SWAP1 REVERT JUMPDEST POP POP JUMP JUMPDEST PUSH2 0x154B PUSH2 0x6CC JUMP JUMPDEST ISZERO PUSH2 0x1582 JUMPI PUSH1 0x40 MLOAD PUSH32 0xD93C066500000000000000000000000000000000000000000000000000000000 DUP2 MSTORE PUSH1 0x4 ADD PUSH1 0x40 MLOAD DUP1 SWAP2 SUB SWAP1 REVERT JUMPDEST JUMP JUMPDEST PUSH0 PUSH20 0xFFFFFFFFFFFFFFFFFFFFFFFFFFFFFFFFFFFFFFFF AND DUP4 PUSH20 0xFFFFFFFFFFFFFFFFFFFFFFFFFFFFFFFFFFFFFFFF AND SUB PUSH2 0x15D4 JUMPI DUP1 PUSH1 0x2 PUSH0 DUP3 DUP3 SLOAD PUSH2 0x15C8 SWAP2 SWAP1 PUSH2 0x1F01 JUMP JUMPDEST SWAP3 POP POP DUP2 SWAP1 SSTORE POP PUSH2 0x16A2 JUMP JUMPDEST PUSH0 PUSH0 PUSH0 DUP6 PUSH20 0xFFFFFFFFFFFFFFFFFFFFFFFFFFFFFFFFFFFFFFFF AND PUSH20 0xFFFFFFFFFFFFFFFFFFFFFFFFFFFFFFFFFFFFFFFF AND DUP2 MSTORE PUSH1 0x20 ADD SWAP1 DUP2 MSTORE PUSH1 0x20 ADD PUSH0 KECCAK256 SLOAD SWAP1 POP DUP2 DUP2 LT ISZERO PUSH2 0x165D JUMPI DUP4 DUP2 DUP4 PUSH1 0x40 MLOAD PUSH32 0xE450D38C00000000000000000000000000000000000000000000000000000000 DUP2 MSTORE PUSH1 0x4 ADD PUSH2 0x1654 SWAP4 SWAP3 SWAP2 SWAP1 PUSH2 0x1DFC JUMP JUMPDEST PUSH1 0x40 MLOAD DUP1 SWAP2 SUB SWAP1 REVERT JUMPDEST DUP2 DUP2 SUB PUSH0 PUSH0 DUP7 PUSH20 0xFFFFFFFFFFFFFFFFFFFFFFFFFFFFFFFFFFFFFFFF AND PUSH20 0xFFFFFFFFFFFFFFFFFFFFFFFFFFFFFFFFFFFFFFFF AND DUP2 MSTORE PUSH1 0x20 ADD SWAP1 DUP2 MSTORE PUSH1 0x20 ADD PUSH0 KECCAK256 DUP2 SWAP1 SSTORE POP POP JUMPDEST PUSH0 PUSH20 0xFFFFFFFFFFFFFFFFFFFFFFFFFFFFFFFFFFFFFFFF AND DUP3 PUSH20 0xFFFFFFFFFFFFFFFFFFFFFFFFFFFFFFFFFFFFFFFF AND SUB PUSH2 0x16E9 JUMPI DUP1 PUSH1 0x2 PUSH0 DUP3 DUP3 SLOAD SUB SWAP3 POP POP DUP2 SWAP1 SSTORE POP PUSH2 0x1733 JUMP JUMPDEST DUP1 PUSH0 PUSH0 DUP5 PUSH20 0xFFFFFFFFFFFFFFFFFFFFFFFFFFFFFFFFFFFFFFFF AND PUSH20 0xFFFFFFFFFFFFFFFFFFFFFFFFFFFFFFFFFFFFFFFF AND DUP2 MSTORE PUSH1 0x20 ADD SWAP1 DUP2 MSTORE PUSH1 0x20 ADD PUSH0 KECCAK256 PUSH0 DUP3 DUP3 SLOAD ADD SWAP3 POP POP DUP2 SWAP1 SSTORE POP JUMPDEST DUP2 PUSH20 0xFFFFFFFFFFFFFFFFFFFFFFFFFFFFFFFFFFFFFFFF AND DUP4 PUSH20 0xFFFFFFFFFFFFFFFFFFFFFFFFFFFFFFFFFFFFFFFF AND PUSH32 0xDDF252AD1BE2C89B69C2B068FC378DAA952BA7F163C4A11628F55A4DF523B3EF DUP4 PUSH1 0x40 MLOAD PUSH2 0x1790 SWAP2 SWAP1 PUSH2 0x19DA JUMP JUMPDEST PUSH1 0x40 MLOAD DUP1 SWAP2 SUB SWAP1 LOG3 POP POP POP JUMP JUMPDEST PUSH2 0x17A5 PUSH2 0x1543 JUMP JUMPDEST PUSH2 0x17B0 DUP4 DUP4 DUP4 PUSH2 0x1584 JUMP JUMPDEST POP POP POP JUMP JUMPDEST PUSH0 PUSH0 REVERT JUMPDEST PUSH0 PUSH0 REVERT JUMPDEST PUSH0 PUSH32 0xFFFFFFFF00000000000000000000000000000000000000000000000000000000 DUP3 AND SWAP1 POP SWAP2 SWAP1 POP JUMP JUMPDEST PUSH2 0x17F1 DUP2 PUSH2 0x17BD JUMP JUMPDEST DUP2 EQ PUSH2 0x17FB JUMPI PUSH0 PUSH0 REVERT JUMPDEST POP JUMP JUMPDEST PUSH0 DUP2 CALLDATALOAD SWAP1 POP PUSH2 0x180C DUP2 PUSH2 0x17E8 JUMP JUMPDEST SWAP3 SWAP2 POP POP JUMP JUMPDEST PUSH0 PUSH1 0x20 DUP3 DUP5 SUB SLT ISZERO PUSH2 0x1827 JUMPI PUSH2 0x1826 PUSH2 0x17B5 JUMP JUMPDEST JUMPDEST PUSH0 PUSH2 0x1834 DUP5 DUP3 DUP6 ADD PUSH2 0x17FE JUMP JUMPDEST SWAP2 POP POP SWAP3 SWAP2 POP POP JUMP JUMPDEST PUSH0 DUP2 ISZERO ISZERO SWAP1 POP SWAP2 SWAP1 POP JUMP JUMPDEST PUSH2 0x1851 DUP2 PUSH2 0x183D JUMP JUMPDEST DUP3 MSTORE POP POP JUMP JUMPDEST PUSH0 PUSH1 0x20 DUP3 ADD SWAP1 POP PUSH2 0x186A PUSH0 DUP4 ADD DUP5 PUSH2 0x1848 JUMP JUMPDEST SWAP3 SWAP2 POP POP JUMP JUMPDEST PUSH0 DUP2 MLOAD SWAP1 POP SWAP2 SWAP1 POP JUMP JUMPDEST PUSH0 DUP3 DUP3 MSTORE PUSH1 0x20 DUP3 ADD SWAP1 POP SWAP3 SWAP2 POP POP JUMP JUMPDEST DUP3 DUP2 DUP4 MCOPY PUSH0 DUP4 DUP4 ADD MSTORE POP POP POP JUMP JUMPDEST PUSH0 PUSH1 0x1F NOT PUSH1 0x1F DUP4 ADD AND SWAP1 POP SWAP2 SWAP1 POP JUMP JUMPDEST PUSH0 PUSH2 0x18B2 DUP3 PUSH2 0x1870 JUMP JUMPDEST PUSH2 0x18BC DUP2 DUP6 PUSH2 0x187A JUMP JUMPDEST SWAP4 POP PUSH2 0x18CC DUP2 DUP6 PUSH1 0x20 DUP7 ADD PUSH2 0x188A JUMP JUMPDEST PUSH2 0x18D5 DUP2 PUSH2 0x1898 JUMP JUMPDEST DUP5 ADD SWAP2 POP POP SWAP3 SWAP2 POP POP JUMP JUMPDEST PUSH0 PUSH1 0x20 DUP3 ADD SWAP1 POP DUP2 DUP2 SUB PUSH0 DUP4 ADD MSTORE PUSH2 0x18F8 DUP2 DUP5 PUSH2 0x18A8 JUMP JUMPDEST SWAP1 POP SWAP3 SWAP2 POP POP JUMP JUMPDEST PUSH0 PUSH20 0xFFFFFFFFFFFFFFFFFFFFFFFFFFFFFFFFFFFFFFFF DUP3 AND SWAP1 POP SWAP2 SWAP1 POP JUMP JUMPDEST PUSH0 PUSH2 0x1929 DUP3 PUSH2 0x1900 JUMP JUMPDEST SWAP1 POP SWAP2 SWAP1 POP JUMP JUMPDEST PUSH2 0x1939 DUP2 PUSH2 0x191F JUMP JUMPDEST DUP2 EQ PUSH2 0x1943 JUMPI PUSH0 PUSH0 REVERT JUMPDEST POP JUMP JUMPDEST PUSH0 DUP2 CALLDATALOAD SWAP1 POP PUSH2 0x1954 DUP2 PUSH2 0x1930 JUMP JUMPDEST SWAP3 SWAP2 POP POP JUMP JUMPDEST PUSH0 DUP2 SWAP1 POP SWAP2 SWAP1 POP JUMP JUMPDEST PUSH2 0x196C DUP2 PUSH2 0x195A JUMP JUMPDEST DUP2 EQ PUSH2 0x1976 JUMPI PUSH0 PUSH0 REVERT JUMPDEST POP JUMP JUMPDEST PUSH0 DUP2 CALLDATALOAD SWAP1 POP PUSH2 0x1987 DUP2 PUSH2 0x1963 JUMP JUMPDEST SWAP3 SWAP2 POP POP JUMP JUMPDEST PUSH0 PUSH0 PUSH1 0x40 DUP4 DUP6 SUB SLT ISZERO PUSH2 0x19A3 JUMPI PUSH2 0x19A2 PUSH2 0x17B5 JUMP JUMPDEST JUMPDEST PUSH0 PUSH2 0x19B0 DUP6 DUP3 DUP7 ADD PUSH2 0x1946 JUMP JUMPDEST SWAP3 POP POP PUSH1 0x20 PUSH2 0x19C1 DUP6 DUP3 DUP7 ADD PUSH2 0x1979 JUMP JUMPDEST SWAP2 POP POP SWAP3 POP SWAP3 SWAP1 POP JUMP JUMPDEST PUSH2 0x19D4 DUP2 PUSH2 0x195A JUMP JUMPDEST DUP3 MSTORE POP POP JUMP JUMPDEST PUSH0 PUSH1 0x20 DUP3 ADD SWAP1 POP PUSH2 0x19ED PUSH0 DUP4 ADD DUP5 PUSH2 0x19CB JUMP JUMPDEST SWAP3 SWAP2 POP POP JUMP JUMPDEST PUSH0 PUSH0 PUSH0 PUSH1 0x60 DUP5 DUP7 SUB SLT ISZERO PUSH2 0x1A0A JUMPI PUSH2 0x1A09 PUSH2 0x17B5 JUMP JUMPDEST JUMPDEST PUSH0 PUSH2 0x1A17 DUP7 DUP3 DUP8 ADD PUSH2 0x1946 JUMP JUMPDEST SWAP4 POP POP PUSH1 0x20 PUSH2 0x1A28 DUP7 DUP3 DUP8 ADD PUSH2 0x1946 JUMP JUMPDEST SWAP3 POP POP PUSH1 0x40 PUSH2 0x1A39 DUP7 DUP3 DUP8 ADD PUSH2 0x1979 JUMP JUMPDEST SWAP2 POP POP SWAP3 POP SWAP3 POP SWAP3 JUMP JUMPDEST PUSH0 DUP2 SWAP1 POP SWAP2 SWAP1 POP JUMP JUMPDEST PUSH2 0x1A55 DUP2 PUSH2 0x1A43 JUMP JUMPDEST DUP2 EQ PUSH2 0x1A5F JUMPI PUSH0 PUSH0 REVERT JUMPDEST POP JUMP JUMPDEST PUSH0 DUP2 CALLDATALOAD SWAP1 POP PUSH2 0x1A70 DUP2 PUSH2 0x1A4C JUMP JUMPDEST SWAP3 SWAP2 POP POP JUMP JUMPDEST PUSH0 PUSH1 0x20 DUP3 DUP5 SUB SLT ISZERO PUSH2 0x1A8B JUMPI PUSH2 0x1A8A PUSH2 0x17B5 JUMP JUMPDEST JUMPDEST PUSH0 PUSH2 0x1A98 DUP5 DUP3 DUP6 ADD PUSH2 0x1A62 JUMP JUMPDEST SWAP2 POP POP SWAP3 SWAP2 POP POP JUMP JUMPDEST PUSH2 0x1AAA DUP2 PUSH2 0x1A43 JUMP JUMPDEST DUP3 MSTORE POP POP JUMP JUMPDEST PUSH0 PUSH1 0x20 DUP3 ADD SWAP1 POP PUSH2 0x1AC3 PUSH0 DUP4 ADD DUP5 PUSH2 0x1AA1 JUMP JUMPDEST SWAP3 SWAP2 POP POP JUMP JUMPDEST PUSH0 PUSH0 PUSH1 0x40 DUP4 DUP6 SUB SLT ISZERO PUSH2 0x1ADF JUMPI PUSH2 0x1ADE PUSH2 0x17B5 JUMP JUMPDEST JUMPDEST PUSH0 PUSH2 0x1AEC DUP6 DUP3 DUP7 ADD PUSH2 0x1A62 JUMP JUMPDEST SWAP3 POP POP PUSH1 0x20 PUSH2 0x1AFD DUP6 DUP3 DUP7 ADD PUSH2 0x1946 JUMP JUMPDEST SWAP2 POP POP SWAP3 POP SWAP3 SWAP1 POP JUMP JUMPDEST PUSH0 PUSH1 0xFF DUP3 AND SWAP1 POP SWAP2 SWAP1 POP JUMP JUMPDEST PUSH2 0x1B1C DUP2 PUSH2 0x1B07 JUMP JUMPDEST DUP3 MSTORE POP POP JUMP JUMPDEST PUSH0 PUSH1 0x20 DUP3 ADD SWAP1 POP PUSH2 0x1B35 PUSH0 DUP4 ADD DUP5 PUSH2 0x1B13 JUMP JUMPDEST SWAP3 SWAP2 POP POP JUMP JUMPDEST PUSH0 PUSH1 0x20 DUP3 DUP5 SUB SLT ISZERO PUSH2 0x1B50 JUMPI PUSH2 0x1B4F PUSH2 0x17B5 JUMP JUMPDEST JUMPDEST PUSH0 PUSH2 0x1B5D DUP5 DUP3 DUP6 ADD PUSH2 0x1946 JUMP JUMPDEST SWAP2 POP POP SWAP3 SWAP2 POP POP JUMP JUMPDEST PUSH0 PUSH0 REVERT JUMPDEST PUSH0 PUSH0 REVERT JUMPDEST PUSH0 PUSH0 REVERT JUMPDEST PUSH0 PUSH0 DUP4 PUSH1 0x1F DUP5 ADD SLT PUSH2 0x1B87 JUMPI PUSH2 0x1B86 PUSH2 0x1B66 JUMP JUMPDEST JUMPDEST DUP3 CALLDATALOAD SWAP1 POP PUSH8 0xFFFFFFFFFFFFFFFF DUP2 GT ISZERO PUSH2 0x1BA4 JUMPI PUSH2 0x1BA3 PUSH2 0x1B6A JUMP JUMPDEST JUMPDEST PUSH1 0x20 DUP4 ADD SWAP2 POP DUP4 PUSH1 0x20 DUP3 MUL DUP4 ADD GT ISZERO PUSH2 0x1BC0 JUMPI PUSH2 0x1BBF PUSH2 0x1B6E JUMP JUMPDEST JUMPDEST SWAP3 POP SWAP3 SWAP1 POP JUMP JUMPDEST PUSH0 PUSH0 PUSH0 PUSH1 0x40 DUP5 DUP7 SUB SLT ISZERO PUSH2 0x1BDE JUMPI PUSH2 0x1BDD PUSH2 0x17B5 JUMP JUMPDEST JUMPDEST PUSH0 DUP5 ADD CALLDATALOAD PUSH8 0xFFFFFFFFFFFFFFFF DUP2 GT ISZERO PUSH2 0x1BFB JUMPI PUSH2 0x1BFA PUSH2 0x17B9 JUMP JUMPDEST JUMPDEST PUSH2 0x1C07 DUP7 DUP3 DUP8 ADD PUSH2 0x1B72 JUMP JUMPDEST SWAP4 POP SWAP4 POP POP PUSH1 0x20 PUSH2 0x1C1A DUP7 DUP3 DUP8 ADD PUSH2 0x1979 JUMP JUMPDEST SWAP2 POP POP SWAP3 POP SWAP3 POP SWAP3 JUMP JUMPDEST PUSH0 PUSH0 PUSH1 0x40 DUP4 DUP6 SUB SLT ISZERO PUSH2 0x1C3A JUMPI PUSH2 0x1C39 PUSH2 0x17B5 JUMP JUMPDEST JUMPDEST PUSH0 PUSH2 0x1C47 DUP6 DUP3 DUP7 ADD PUSH2 0x1946 JUMP JUMPDEST SWAP3 POP POP PUSH1 0x20 PUSH2 0x1C58 DUP6 DUP3 DUP7 ADD PUSH2 0x1946 JUMP JUMPDEST SWAP2 POP POP SWAP3 POP SWAP3 SWAP1 POP JUMP JUMPDEST PUSH0 PUSH1 0x20 DUP3 DUP5 SUB SLT ISZERO PUSH2 0x1C77 JUMPI PUSH2 0x1C76 PUSH2 0x17B5 JUMP JUMPDEST JUMPDEST PUSH0 PUSH2 0x1C84 DUP5 DUP3 DUP6 ADD PUSH2 0x1979 JUMP JUMPDEST SWAP2 POP POP SWAP3 SWAP2 POP POP JUMP JUMPDEST PUSH32 0x4E487B7100000000000000000000000000000000000000000000000000000000 PUSH0 MSTORE PUSH1 0x22 PUSH1 0x4 MSTORE PUSH1 0x24 PUSH0 REVERT JUMPDEST PUSH0 PUSH1 0x2 DUP3 DIV SWAP1 POP PUSH1 0x1 DUP3 AND DUP1 PUSH2 0x1CD1 JUMPI PUSH1 0x7F DUP3 AND SWAP2 POP JUMPDEST PUSH1 0x20 DUP3 LT DUP2 SUB PUSH2 0x1CE4 JUMPI PUSH2 0x1CE3 PUSH2 0x1C8D JUMP JUMPDEST JUMPDEST POP SWAP2 SWAP1 POP JUMP JUMPDEST PUSH32 0x4E487B7100000000000000000000000000000000000000000000000000000000 PUSH0 MSTORE PUSH1 0x11 PUSH1 0x4 MSTORE PUSH1 0x24 PUSH0 REVERT JUMPDEST PUSH0 PUSH2 0x1D21 DUP3 PUSH2 0x195A JUMP JUMPDEST SWAP2 POP PUSH2 0x1D2C DUP4 PUSH2 0x195A JUMP JUMPDEST SWAP3 POP DUP3 DUP3 MUL PUSH2 0x1D3A DUP2 PUSH2 0x195A JUMP JUMPDEST SWAP2 POP DUP3 DUP3 DIV DUP5 EQ DUP4 ISZERO OR PUSH2 0x1D51 JUMPI PUSH2 0x1D50 PUSH2 0x1CEA JUMP JUMPDEST JUMPDEST POP SWAP3 SWAP2 POP POP JUMP JUMPDEST PUSH32 0x4E6F7420456E6F75676820546F6B656E20696E20436F6E747261637400000000 PUSH0 DUP3 ADD MSTORE POP JUMP JUMPDEST PUSH0 PUSH2 0x1D8C PUSH1 0x1C DUP4 PUSH2 0x187A JUMP JUMPDEST SWAP2 POP PUSH2 0x1D97 DUP3 PUSH2 0x1D58 JUMP JUMPDEST PUSH1 0x20 DUP3 ADD SWAP1 POP SWAP2 SWAP1 POP JUMP JUMPDEST PUSH0 PUSH1 0x20 DUP3 ADD SWAP1 POP DUP2 DUP2 SUB PUSH0 DUP4 ADD MSTORE PUSH2 0x1DB9 DUP2 PUSH2 0x1D80 JUMP JUMPDEST SWAP1 POP SWAP2 SWAP1 POP JUMP JUMPDEST PUSH32 0x4E487B7100000000000000000000000000000000000000000000000000000000 PUSH0 MSTORE PUSH1 0x32 PUSH1 0x4 MSTORE PUSH1 0x24 PUSH0 REVERT JUMPDEST PUSH2 0x1DF6 DUP2 PUSH2 0x191F JUMP JUMPDEST DUP3 MSTORE POP POP JUMP JUMPDEST PUSH0 PUSH1 0x60 DUP3 ADD SWAP1 POP PUSH2 0x1E0F PUSH0 DUP4 ADD DUP7 PUSH2 0x1DED JUMP JUMPDEST PUSH2 0x1E1C PUSH1 0x20 DUP4 ADD DUP6 PUSH2 0x19CB JUMP JUMPDEST PUSH2 0x1E29 PUSH1 0x40 DUP4 ADD DUP5 PUSH2 0x19CB JUMP JUMPDEST SWAP5 SWAP4 POP POP POP POP JUMP JUMPDEST PUSH0 PUSH1 0x20 DUP3 ADD SWAP1 POP PUSH2 0x1E44 PUSH0 DUP4 ADD DUP5 PUSH2 0x1DED JUMP JUMPDEST SWAP3 SWAP2 POP POP JUMP JUMPDEST PUSH32 0x4E487B7100000000000000000000000000000000000000000000000000000000 PUSH0 MSTORE PUSH1 0x12 PUSH1 0x4 MSTORE PUSH1 0x24 PUSH0 REVERT JUMPDEST PUSH0 PUSH2 0x1E81 DUP3 PUSH2 0x195A JUMP JUMPDEST SWAP2 POP PUSH2 0x1E8C DUP4 PUSH2 0x195A JUMP JUMPDEST SWAP3 POP DUP3 PUSH2 0x1E9C JUMPI PUSH2 0x1E9B PUSH2 0x1E4A JUMP JUMPDEST JUMPDEST DUP3 DUP3 DIV SWAP1 POP SWAP3 SWAP2 POP POP JUMP JUMPDEST PUSH0 PUSH2 0x1EB1 DUP3 PUSH2 0x195A JUMP JUMPDEST SWAP2 POP PUSH2 0x1EBC DUP4 PUSH2 0x195A JUMP JUMPDEST SWAP3 POP DUP3 DUP3 SUB SWAP1 POP DUP2 DUP2 GT ISZERO PUSH2 0x1ED4 JUMPI PUSH2 0x1ED3 PUSH2 0x1CEA JUMP JUMPDEST JUMPDEST SWAP3 SWAP2 POP POP JUMP JUMPDEST PUSH0 PUSH1 0x40 DUP3 ADD SWAP1 POP PUSH2 0x1EED PUSH0 DUP4 ADD DUP6 PUSH2 0x1DED JUMP JUMPDEST PUSH2 0x1EFA PUSH1 0x20 DUP4 ADD DUP5 PUSH2 0x1AA1 JUMP JUMPDEST SWAP4 SWAP3 POP POP POP JUMP JUMPDEST PUSH0 PUSH2 0x1F0B DUP3 PUSH2 0x195A JUMP JUMPDEST SWAP2 POP PUSH2 0x1F16 DUP4 PUSH2 0x195A JUMP JUMPDEST SWAP3 POP DUP3 DUP3 ADD SWAP1 POP DUP1 DUP3 GT ISZERO PUSH2 0x1F2E JUMPI PUSH2 0x1F2D PUSH2 0x1CEA JUMP JUMPDEST JUMPDEST SWAP3 SWAP2 POP POP JUMP INVALID LOG2 PUSH5 0x6970667358 0x22 SLT KECCAK256 CALLCODE 0x2C PUSH32 0xB3BA4F59BA85CF2709E7108A4E99E754C45FDE57341AEB2E6E96B270C564736F PUSH13 0x634300081E0033000000000000 "
		},
		"gasEstimates": {
			"creation": {
				"codeDepositCost": "1608400",
				"executionCost": "infinite",
				"totalCost": "infinite"
			},
			"external": {
				"DEFAULT_ADMIN_ROLE()": "440",
				"airdrop(address[],uint256)": "infinite",
				"allowance(address,address)": "infinite",
				"approve(address,uint256)": "infinite",
				"balanceOf(address)": "2851",
				"decimals()": "405",
				"distribute(address,uint256)": "infinite",
				"emergencyBurn(uint256)": "infinite",
				"getRoleAdmin(bytes32)": "infinite",
				"grantRole(bytes32,address)": "infinite",
				"hasRole(bytes32,address)": "3188",
				"name()": "infinite",
				"pause()": "infinite",
				"paused()": "2606",
				"renounceRole(bytes32,address)": "infinite",
				"revokeRole(bytes32,address)": "infinite",
				"supportsInterface(bytes4)": "741",
				"symbol()": "infinite",
				"totalSupply()": "2522",
				"transfer(address,uint256)": "infinite",
				"transferFrom(address,address,uint256)": "infinite",
				"transferToVesting(address,uint256)": "infinite",
				"unPause()": "infinite"
			},
			"internal": {
				"_update(address,address,uint256)": "infinite"
			}
		},
		"methodIdentifiers": {
			"DEFAULT_ADMIN_ROLE()": "a217fddf",
			"airdrop(address[],uint256)": "c204642c",
			"allowance(address,address)": "dd62ed3e",
			"approve(address,uint256)": "095ea7b3",
			"balanceOf(address)": "70a08231",
			"decimals()": "313ce567",
			"distribute(address,uint256)": "fb932108",
			"emergencyBurn(uint256)": "dfff8568",
			"getRoleAdmin(bytes32)": "248a9ca3",
			"grantRole(bytes32,address)": "2f2ff15d",
			"hasRole(bytes32,address)": "91d14854",
			"name()": "06fdde03",
			"pause()": "8456cb59",
			"paused()": "5c975abb",
			"renounceRole(bytes32,address)": "36568abe",
			"revokeRole(bytes32,address)": "d547741f",
			"supportsInterface(bytes4)": "01ffc9a7",
			"symbol()": "95d89b41",
			"totalSupply()": "18160ddd",
			"transfer(address,uint256)": "a9059cbb",
			"transferFrom(address,address,uint256)": "23b872dd",
			"transferToVesting(address,uint256)": "426e04b6",
			"unPause()": "f7b188a5"
		}
	},
	"abi": [
		{
			"inputs": [],
			"stateMutability": "nonpayable",
			"type": "constructor"
		},
		{
			"inputs": [],
			"name": "AccessControlBadConfirmation",
			"type": "error"
		},
		{
			"inputs": [
				{
					"internalType": "address",
					"name": "account",
					"type": "address"
				},
				{
					"internalType": "bytes32",
					"name": "neededRole",
					"type": "bytes32"
				}
			],
			"name": "AccessControlUnauthorizedAccount",
			"type": "error"
		},
		{
			"inputs": [
				{
					"internalType": "address",
					"name": "spender",
					"type": "address"
				},
				{
					"internalType": "uint256",
					"name": "allowance",
					"type": "uint256"
				},
				{
					"internalType": "uint256",
					"name": "needed",
					"type": "uint256"
				}
			],
			"name": "ERC20InsufficientAllowance",
			"type": "error"
		},
		{
			"inputs": [
				{
					"internalType": "address",
					"name": "sender",
					"type": "address"
				},
				{
					"internalType": "uint256",
					"name": "balance",
					"type": "uint256"
				},
				{
					"internalType": "uint256",
					"name": "needed",
					"type": "uint256"
				}
			],
			"name": "ERC20InsufficientBalance",
			"type": "error"
		},
		{
			"inputs": [
				{
					"internalType": "address",
					"name": "approver",
					"type": "address"
				}
			],
			"name": "ERC20InvalidApprover",
			"type": "error"
		},
		{
			"inputs": [
				{
					"internalType": "address",
					"name": "receiver",
					"type": "address"
				}
			],
			"name": "ERC20InvalidReceiver",
			"type": "error"
		},
		{
			"inputs": [
				{
					"internalType": "address",
					"name": "sender",
					"type": "address"
				}
			],
			"name": "ERC20InvalidSender",
			"type": "error"
		},
		{
			"inputs": [
				{
					"internalType": "address",
					"name": "spender",
					"type": "address"
				}
			],
			"name": "ERC20InvalidSpender",
			"type": "error"
		},
		{
			"inputs": [],
			"name": "EnforcedPause",
			"type": "error"
		},
		{
			"inputs": [],
			"name": "ExpectedPause",
			"type": "error"
		},
		{
			"inputs": [],
			"name": "NotEnoughContractToken",
			"type": "error"
		},
		{
			"inputs": [],
			"name": "ZeroAddressError",
			"type": "error"
		},
		{
			"inputs": [],
			"name": "ZeroAmountError",
			"type": "error"
		},
		{
			"anonymous": false,
			"inputs": [
				{
					"indexed": true,
					"internalType": "address",
					"name": "owner",
					"type": "address"
				},
				{
					"indexed": true,
					"internalType": "address",
					"name": "spender",
					"type": "address"
				},
				{
					"indexed": false,
					"internalType": "uint256",
					"name": "value",
					"type": "uint256"
				}
			],
			"name": "Approval",
			"type": "event"
		},
		{
			"anonymous": false,
			"inputs": [
				{
					"indexed": false,
					"internalType": "address",
					"name": "account",
					"type": "address"
				}
			],
			"name": "Paused",
			"type": "event"
		},
		{
			"anonymous": false,
			"inputs": [
				{
					"indexed": true,
					"internalType": "bytes32",
					"name": "role",
					"type": "bytes32"
				},
				{
					"indexed": true,
					"internalType": "bytes32",
					"name": "previousAdminRole",
					"type": "bytes32"
				},
				{
					"indexed": true,
					"internalType": "bytes32",
					"name": "newAdminRole",
					"type": "bytes32"
				}
			],
			"name": "RoleAdminChanged",
			"type": "event"
		},
		{
			"anonymous": false,
			"inputs": [
				{
					"indexed": true,
					"internalType": "bytes32",
					"name": "role",
					"type": "bytes32"
				},
				{
					"indexed": true,
					"internalType": "address",
					"name": "account",
					"type": "address"
				},
				{
					"indexed": true,
					"internalType": "address",
					"name": "sender",
					"type": "address"
				}
			],
			"name": "RoleGranted",
			"type": "event"
		},
		{
			"anonymous": false,
			"inputs": [
				{
					"indexed": true,
					"internalType": "bytes32",
					"name": "role",
					"type": "bytes32"
				},
				{
					"indexed": true,
					"internalType": "address",
					"name": "account",
					"type": "address"
				},
				{
					"indexed": true,
					"internalType": "address",
					"name": "sender",
					"type": "address"
				}
			],
			"name": "RoleRevoked",
			"type": "event"
		},
		{
			"anonymous": false,
			"inputs": [
				{
					"indexed": true,
					"internalType": "address",
					"name": "from",
					"type": "address"
				},
				{
					"indexed": true,
					"internalType": "address",
					"name": "to",
					"type": "address"
				},
				{
					"indexed": false,
					"internalType": "uint256",
					"name": "value",
					"type": "uint256"
				}
			],
			"name": "Transfer",
			"type": "event"
		},
		{
			"anonymous": false,
			"inputs": [
				{
					"indexed": false,
					"internalType": "address",
					"name": "account",
					"type": "address"
				}
			],
			"name": "Unpaused",
			"type": "event"
		},
		{
			"inputs": [],
			"name": "DEFAULT_ADMIN_ROLE",
			"outputs": [
				{
					"internalType": "bytes32",
					"name": "",
					"type": "bytes32"
				}
			],
			"stateMutability": "view",
			"type": "function"
		},
		{
			"inputs": [
				{
					"internalType": "address[]",
					"name": "recipents",
					"type": "address[]"
				},
				{
					"internalType": "uint256",
					"name": "value",
					"type": "uint256"
				}
			],
			"name": "airdrop",
			"outputs": [],
			"stateMutability": "nonpayable",
			"type": "function"
		},
		{
			"inputs": [
				{
					"internalType": "address",
					"name": "owner",
					"type": "address"
				},
				{
					"internalType": "address",
					"name": "spender",
					"type": "address"
				}
			],
			"name": "allowance",
			"outputs": [
				{
					"internalType": "uint256",
					"name": "",
					"type": "uint256"
				}
			],
			"stateMutability": "view",
			"type": "function"
		},
		{
			"inputs": [
				{
					"internalType": "address",
					"name": "spender",
					"type": "address"
				},
				{
					"internalType": "uint256",
					"name": "value",
					"type": "uint256"
				}
			],
			"name": "approve",
			"outputs": [
				{
					"internalType": "bool",
					"name": "",
					"type": "bool"
				}
			],
			"stateMutability": "nonpayable",
			"type": "function"
		},
		{
			"inputs": [
				{
					"internalType": "address",
					"name": "account",
					"type": "address"
				}
			],
			"name": "balanceOf",
			"outputs": [
				{
					"internalType": "uint256",
					"name": "",
					"type": "uint256"
				}
			],
			"stateMutability": "view",
			"type": "function"
		},
		{
			"inputs": [],
			"name": "decimals",
			"outputs": [
				{
					"internalType": "uint8",
					"name": "",
					"type": "uint8"
				}
			],
			"stateMutability": "view",
			"type": "function"
		},
		{
			"inputs": [
				{
					"internalType": "address",
					"name": "to",
					"type": "address"
				},
				{
					"internalType": "uint256",
					"name": "value",
					"type": "uint256"
				}
			],
			"name": "distribute",
			"outputs": [],
			"stateMutability": "nonpayable",
			"type": "function"
		},
		{
			"inputs": [
				{
					"internalType": "uint256",
					"name": "value",
					"type": "uint256"
				}
			],
			"name": "emergencyBurn",
			"outputs": [],
			"stateMutability": "nonpayable",
			"type": "function"
		},
		{
			"inputs": [
				{
					"internalType": "bytes32",
					"name": "role",
					"type": "bytes32"
				}
			],
			"name": "getRoleAdmin",
			"outputs": [
				{
					"internalType": "bytes32",
					"name": "",
					"type": "bytes32"
				}
			],
			"stateMutability": "view",
			"type": "function"
		},
		{
			"inputs": [
				{
					"internalType": "bytes32",
					"name": "role",
					"type": "bytes32"
				},
				{
					"internalType": "address",
					"name": "account",
					"type": "address"
				}
			],
			"name": "grantRole",
			"outputs": [],
			"stateMutability": "nonpayable",
			"type": "function"
		},
		{
			"inputs": [
				{
					"internalType": "bytes32",
					"name": "role",
					"type": "bytes32"
				},
				{
					"internalType": "address",
					"name": "account",
					"type": "address"
				}
			],
			"name": "hasRole",
			"outputs": [
				{
					"internalType": "bool",
					"name": "",
					"type": "bool"
				}
			],
			"stateMutability": "view",
			"type": "function"
		},
		{
			"inputs": [],
			"name": "name",
			"outputs": [
				{
					"internalType": "string",
					"name": "",
					"type": "string"
				}
			],
			"stateMutability": "view",
			"type": "function"
		},
		{
			"inputs": [],
			"name": "pause",
			"outputs": [],
			"stateMutability": "nonpayable",
			"type": "function"
		},
		{
			"inputs": [],
			"name": "paused",
			"outputs": [
				{
					"internalType": "bool",
					"name": "",
					"type": "bool"
				}
			],
			"stateMutability": "view",
			"type": "function"
		},
		{
			"inputs": [
				{
					"internalType": "bytes32",
					"name": "role",
					"type": "bytes32"
				},
				{
					"internalType": "address",
					"name": "callerConfirmation",
					"type": "address"
				}
			],
			"name": "renounceRole",
			"outputs": [],
			"stateMutability": "nonpayable",
			"type": "function"
		},
		{
			"inputs": [
				{
					"internalType": "bytes32",
					"name": "role",
					"type": "bytes32"
				},
				{
					"internalType": "address",
					"name": "account",
					"type": "address"
				}
			],
			"name": "revokeRole",
			"outputs": [],
			"stateMutability": "nonpayable",
			"type": "function"
		},
		{
			"inputs": [
				{
					"internalType": "bytes4",
					"name": "interfaceId",
					"type": "bytes4"
				}
			],
			"name": "supportsInterface",
			"outputs": [
				{
					"internalType": "bool",
					"name": "",
					"type": "bool"
				}
			],
			"stateMutability": "view",
			"type": "function"
		},
		{
			"inputs": [],
			"name": "symbol",
			"outputs": [
				{
					"internalType": "string",
					"name": "",
					"type": "string"
				}
			],
			"stateMutability": "view",
			"type": "function"
		},
		{
			"inputs": [],
			"name": "totalSupply",
			"outputs": [
				{
					"internalType": "uint256",
					"name": "",
					"type": "uint256"
				}
			],
			"stateMutability": "view",
			"type": "function"
		},
		{
			"inputs": [
				{
					"internalType": "address",
					"name": "to",
					"type": "address"
				},
				{
					"internalType": "uint256",
					"name": "value",
					"type": "uint256"
				}
			],
			"name": "transfer",
			"outputs": [
				{
					"internalType": "bool",
					"name": "",
					"type": "bool"
				}
			],
			"stateMutability": "nonpayable",
			"type": "function"
		},
		{
			"inputs": [
				{
					"internalType": "address",
					"name": "from",
					"type": "address"
				},
				{
					"internalType": "address",
					"name": "to",
					"type": "address"
				},
				{
					"internalType": "uint256",
					"name": "value",
					"type": "uint256"
				}
			],
			"name": "transferFrom",
			"outputs": [
				{
					"internalType": "bool",
					"name": "",
					"type": "bool"
				}
			],
			"stateMutability": "nonpayable",
			"type": "function"
		},
		{
			"inputs": [
				{
					"internalType": "address",
					"name": "to",
					"type": "address"
				},
				{
					"internalType": "uint256",
					"name": "value",
					"type": "uint256"
				}
			],
			"name": "transferToVesting",
			"outputs": [],
			"stateMutability": "nonpayable",
			"type": "function"
		},
		{
			"inputs": [],
			"name": "unPause",
			"outputs": [],
			"stateMutability": "nonpayable",
			"type": "function"
		}
	]
}